:107E0000112494B714BE93FFF0C080910001843B0D
:107E100009F0EBC01092000182E08093C00088E17D
:107E20008093C10096E09093C20090E19093C400CB
:107E3000809360008EE080936000D0E0C0E0EE248C
:107E4000E39495E0D92E21E1C22E33E0F32EA8D0A1
:107E5000813481F4A5D0182FAFD0123819F484E002
:107E600098D094C0113819F484E093D08FC083E087
:107E700090D08CC0823419F484E1AAD087C08534B4
:107E800019F485E0A5D082C0853549F489D0C82F82
:107E9000D0E086D0D82BCC0FDD1F8ED077C08635B2
:107EA00029F484E095D080E074D070C0843609F065
:107EB00045C076D075D0982E73D000E011E0C11582
:107EC00080E7D80730F4FE01F7BEE89500E011E046
:107ED00000C05801FFEFAF1ABF0A62D0F8018083DB
:107EE00085019A10F6CFC115F0E7DF0718F0FE0103
:107EF000F7BEE89561D007B600FCFDCFFE01A0E01B
:107F0000B1E001C0D9019C919D012E5F3F4F1196B8
:107F10008C9111978927982789270C01E7BEE8954E
:107F200011243296AE37B14069F7FE01D7BEE8950D
:107F300007B600FCFDCFC7BEE89528C08437A9F47A
:107F40002FD02ED0B82E2CD037D0AB2CFE018F01E5
:107F50000F5F1F4F84911DD0AA94F801A110F7CF95
:107F60002196BA94CB0DD11D11C0853741F424D090
:107F70008EE10FD085E90DD08FE00BD007C08135A1
:107F800021F488E02CD018D001C016D080E101D0B7
:107F90005ECF9091C00095FFFCCF8093C6000895FE
:107FA0008091C00087FFFCCF8091C00084FD01C09C
:107FB000A8958091C6000895F3DF803239F088E1FA
:107FC0008093600088E080936000FFCF84E1E1CF80
:107FD000CF93C82FE5DFC150E9F7CF91EDCFE0E6B1
:107FE000F0E098E1908380830895E0E6F0E088E196
:0A7FF00080831082EE27FF2709941A
:027FFE00040479
:0400000300007E007B
:00000001FF
