S00F000041726475636F6E2E7372656349
S11300000C94F6000C94FD0E0C941E010C941E012D
S11300100C941E010C944D130C941E010C941E019F
S11300200C94160B0C941E010C941E010C94390AAA
S11300300C941E010C941E010C94FC090C941E01DA
S11300400C941E010C941E010C9413080C94AF091B
S11300500C941E010C94DB070C941E010C941E01DD
S11300600C941E010C941E014C01570162016D0198
S113007078018301EF018E01EF01EF01EF01990196
S1130080A401B101BE01CB01D801E501FA01FE01D1
S1130090020206020A020E022802120228022802A2
S11300A02802130217021C02200224023A02400210
S11300B046024C025202580281025E02810281020F
S11300C0810264026A02700276027C02CF0DCF0DB7
S11300D0CF0DCF0DCF0DCF0D220E220EED0D220E22
S11300E0220E220E220E220E220E220E220EED0DC2
S11300F0ED0DBB0DC50DEF101F113B1191129112A7
S113010043117E11DE110A1212121A1222124F1218
S1130110702034206020782064207820442030200F
S11301203C204020782054202820582024203820A7
S1130130FC1F0020042008200C201020142018206C
S11301401C20202048204C207420502078202C2073
S113015068207C20981F9C1FA01FA41FA81FAC1FF1
S1130160B01FB41FB81FBC1FC01FC41FC81FCC1FA3
S1130170D01FD41FD81FDC1FE01FE41FE81FEC1F93
S1130180F01FF41FF81F78207820782078205C2056
S1130190782078207820782078207820782078209B
S11301A0782078207820782078207820782078208B
S11301B0782078207820782078207820782078207B
S11301C078207820782078206C2005A84CCDB2D4F3
S11301D04EB93836A9020C50B9918688083CA6AAB3
S11301E0AA2ABE000000803F771F881F11241FBE6B
S11301F0CFEFD8E0DEBFCDBF12E0A0E0B1E0EAE38C
S1130200FAE502C005900D92A23EB107D9F725E0A8
S1130210A2EEB2E001C01D92A037B207E1F710E0F0
S1130220C5EFD0E004C02197FE010E940328C43F1B
S1130230D107C9F70E94501E0C94102D0C94000095
S1130240623021F40E942D01845E0895683008F024
S11302506F5F61708EE1860F08959C0123703327D0
S1130260232B59F464E670E00E94AE27892B39F4FD
S11302706370772781E0672B19F080E0089581E0AF
S1130280089590E0FC013297E231F10508F0A7C02F
S1130290EC5CFF4F0C940328613011F4529A0895DA
S11302A05298633011F45A9A08955A980895613017
S11302B011F4539A08955398633011F45B9A089596
S11302C05B980895613011F4549A089554986330FA
S11302D011F45C9A08955C980895613011F4559A6C
S11302E008955598633011F45D9A08955D980895C2
S11302F0613011F4569A08955698633011F45E9A59
S113030008955E980895613011F4579A08955798A6
S1130310633011F45F9A08955F980895613011F481
S1130320219A08952198633011F4599A089559989F
S11303300895613011F4259A08952598633011F4D5
S11303405D9A08955D980895613011F4389A0BC050
S11303503898633019F4409A39980AC0409839980B
S11303600AC0613011F4399A0BC03998633019F41A
S1130370419A3A980AC041983A980AC0613011F4F7
S11303803A9A0BC03A98633019F4429A3B980AC0DF
S113039042983B980AC0613011F43B9A0BC03B98D9
S11303A0633019F4439A3C980AC043983C980AC0B5
S11303B0613011F43C9A0BC03C98633019F4449AB0
S11303C03D980AC044983D9809C0613011F43D9AA3
S11303D008953D98633011F4459A08954598089519
S11303E090E0FC013297E031F10590F5EA5BFF4FB4
S11303F00C94032829B1247030E02CC029B1287052
S113040030E028C029B1207130E024C029B1207225
S113041030E020C029B1207430E01CC029B120781C
S113042030E018C083B123B1207230E013C086B12C
S1130430282F217030E00EC026B1227030E00AC0AF
S113044026B1247030E006C026B1287030E002C026
S113045020E030E081E0232B09F480E0089590E06F
S1130460FC013297E031F10508F04BC0EA5AFF4F26
S11304700C940328662311F05A9A08955A98089503
S1130480662311F05B9A08955B980895662311F032
S11304905C9A08955C980895662311F05D9A089516
S11304A05D980895662311F05E9A08955E98089504
S11304B0662311F05F9A08955F980895662311F0FA
S11304C0299A089529980895662311F02D9A08957C
S11304D02D980895662311F0409A08954098089540
S11304E0662311F0419A089541980895662311F006
S11304F0429A089542980895662311F0439A089504
S1130500439808951F93CF93DF93EC010E94912C9D
S1130510182F882389F0219603C02196112361F0B6
S1130520812F0E948F07CE010E94912C182F0E94C8
S1130530E9068111FCCFF1CFDF91CF911F9108958E
S11305409C012E5F3F4F2B3381E0380710F02BE3E3
S113055031E0ADECBCEC0E94092896958795969500
S113056087959C01220F331F220F331F280F391F39
S11305700E94092896958795969587959C012073E6
S11305803327329522952F7023273F7023272093FA
S1130590E20298B18F70907F892B88B98BB18C7FE0
S11305A09091E202892B8BB908950E942E0761E095
S11305B08EE00E94410161E08FE00E94410161E010
S11305C080E10E94410161E081E10E94410161E01A
S11305D080E00E94410161E081E00E9441010895B0
S11305E0EF92FF920F931F93CF93DF93E42EF52E98
S11305F0D62FC72F0093FA021093FB022093FC021C
S11306003093FD0220E030E041E553E46E2D7F2D70
S11306108D2F9C2F0E94902618166CF020E030E05D
S113062048EC52E46E2D7F2D8D2F9C2F0E94ED24DB
S1130630882334F009C0E12CF12CD1E5C3E404C0D3
S1130640E12CF12CD8ECC2E46E2D7F2D8D2F9C2F44
S11306500E9469257093F5026093F402CB01880F20
S1130660991F0E9432289093E4028093E302DF9161
S1130670CF911F910F91FF90EF9008958091E30225
S11306809091E4020E94CA2808951092E802109200
S1130690E9021092EA021092EB021092EC0210921C
S11306A0ED021092EE021092EF021092E50208950C
S11306B08F929F92AF92BF92CF92DF92EF92FF926E
S11306C0CF93DF93EC014A015B016091F4027091D6
S11306D0F502072E000C880B990B0E94A1256B01D3
S11306E07C018092F6029092F702A092F802B092F6
S11306F0F902A50194010E9495262091FA023091F5
S1130700FB024091FC025091FD020E94F72420E07C
S113071030E040E05FE30E9481240E946925072EB7
S1130720000C880B990B0E94A1252BED3FE049ECAE
S113073050E40E949526A70196010E94F7240E9486
S1130740F2249B01AC010E9481246093F002709317
S1130750F1028093F2029093F302CE010E944503CA
S1130760DF91CF91FF90EF90DF90CF90BF90AF904B
S11307709F908F9008958F929F92AF92BF92CF9245
S1130780DF92EF92FF92CF93DF93EB01C090EC02E4
S1130790D090ED02E090EE02F090EF022091F00292
S11307A03091F1024091F2025091F302C701B60177
S11307B00E9495262091E8023091E9024091EA02D4
S11307C05091EB020E9480244B015C01BE017250E7
S11307D0072E000C880B990B0E94A1259B01AC01EC
S11307E0C501B4010E948124C092E802D092E902BA
S11307F0E092EA02F092EB026093EC027093ED0255
S11308008093EE029093EF02DF91CF91FF90EF90EF
S1130810DF90CF90BF90AF909F908F90089580917C
S1130820E502811127C0E091E602F091E702EE0FA4
S1130830FF1F8091E3029091E402E80FF91F718396
S113084060838091E6029091E70201969093E7021B
S11308508093E6022091F4023091F5028217930707
S11308603CF01092E7021092E60281E08093E502E8
S11308708091E50208958091E50208954F925F9278
S11308806F927F928F929F92AF92BF92CF92DF929C
S1130890EF92FF920F931F93CF93DF938C0180917C
S11308A0F4029091F50218161906C4F4C0E0D0E0E1
S11308B0CE01880F991FE091E302F091E402E80F62
S11308C0F91F60817181C8010E94BB032196809148
S11308D0F4029091F502C817D90754F38090EC0202
S11308E09090ED02A090EE02B090EF02C090E8026A
S11308F0D090E902E090EA02F090EB02A5019401A5
S1130900C501B4010E9495262B013C01A701960163
S1130910C701B6010E9495269B01AC01C301B20137
S11309200E9481242B013C012091F0023091F102BC
S11309304091F2025091F302C501B4010E94952640
S1130940A70196010E9495269B01AC01C301B20147
S11309500E9480246B017C01C8010E944503C701E9
S1130960B601DF91CF911F910F91FF90EF90DF902F
S1130970CF90BF90AF909F908F907F906F905F903B
S11309804F900895E4E6F0E080818F7780831092A1
S1130990B90085E28093B80084E08093BC0081E0D4
S11309A080930601089584EA8093BC00ECEBF0E0A8
S11309B08081882364F0809106018111F9CF07C0FA
S11309C080E98093BC0081E08093060108958091C2
S11309D006018823A9F380E0089584E98093BC008C
S11309E008958093BB0084E88093BC00ECEBF0E0B6
S11309F08081882364F0809106018111F9CF07C0BA
S1130A0084E98093BC0081E080930601089580917D
S1130A10B900887F8613F4CF80E0089584EC809336
S1130A20BC00ECEBF0E08081882324F08091060187
S1130A308111F9CF8091BB00089584E88093BC00B4
S1130A40ECEBF0E08081882324F080910601811191
S1130A50F9CF8091BB0008952091B900287F30E040
S1130A6090E02817390729F084E98093BC0081E0DD
S1130A70089580E00895CF93DF9300D000D000D094
S1130A80CDB7DEB78A836B835D834C832E83198253
S1130A900E94D30488E00E942C05982F81E09923BA
S1130AA009F480E0882311F081E03FC068E18A8185
S1130AB00E94F104982F81E0992309F480E08823AF
S1130AC011F081E032C068E28B810E94F104982F1A
S1130AD081E0992309F480E0882311F081E025C0A6
S1130AE08E819FEF980F9E8391E0882309F490E014
S1130AF09923C1F0898191E0980F9983882F90E020
S1130B002C813D81820F931FFC01808168E20E9449
S1130B10F104982F81E0992309F480E0882301F3FC
S1130B2081E003C00E94ED0480E026960FB6F8949D
S1130B30DEBF0FBECDBFDF91CF9108950F931F93FA
S1130B40CF93DF9300D000D000D0CDB7DEB78A8337
S1130B506B835D834C832E8319820E94D30488E0C7
S1130B600E942C05982F81E0992309F480E08823C2
S1130B7011F081E079C068E18A810E94F104982F24
S1130B8081E0992309F480E0882311F081E06CC0AE
S1130B9068E28B810E94F104982F81E0992309F483
S1130BA080E0882311F081E05FC00E94D30480E1DB
S1130BB00E942C05982F81E0992309F480E0882372
S1130BC011F081E051C08A81816060E40E94F104E7
S1130BD0982F81E0992309F480E0882311F081E0C3
S1130BE043C08E819FEF980F9E8391E0882309F480
S1130BF090E09923B1F18E818823D9F0898191E025
S1130C00980F9983882F90E02C813D818901080FEA
S1130C10191F0E940E05F801808380E50E942C05AF
S1130C20982F81E0992309F480E08823D1F281E0B0
S1130C301BC08981882F90E02C813D818901080F98
S1130C40191F0E941D05F801808388E50E942C0568
S1130C50982F81E0992309F480E0882311F281E040
S1130C6003C00E94ED0480E026960FB6F894DEBF20
S1130C700FBECDBFDF91CF911F910F910895809149
S1130C80010394E059E2282F30E0529FF001539F72
S1130C90F00D1124E058FC4F408141110CC09150DB
S1130CA029F08F5F843078F380E0EDCF80930103E7
S1130CB080E090E008958093010349E2429FC001DF
S1130CC0439F900D112480589C4F089580910003F8
S1130CD094E059E2282F30E0529FF001539FF00D29
S1130CE01124E058FC4F4081442361F0915029F0D5
S1130CF08F5F843078F380E0EDCF8093000380E051
S1130D0090E008958093000349E2429FC001439F0D
S1130D10900D112480589C4F08958091FF02282F34
S1130D2030E09FE3899FF0011124EE5FFC4F418185
S1130D305281452BA9F08F5F823008F080E0282F84
S1130D4030E09FE3899FF0011124EE5FFC4F418165
S1130D505281452B29F08093FF0280E090E00895B2
S1130D608093FF024FE3429FC001439F900D1124E3
S1130D708E5F9C4F08958091FE02282F30E09FE300
S1130D80899FF0011124EE5FFC4F41815281452B74
S1130D90A9F48F5F823008F080E0282F30E09FE3D1
S1130DA0899FF0011124EE5FFC4F41815281452B54
S1130DB029F48093FE0280E090E008958093FE027F
S1130DC04FE3429FC001439F900D11248E5F9C4FBF
S1130DD008958091240408959091240481E0911150
S1130DE080E0911108C091E090932404E1ECF0E0DC
S1130DF0908190629083089580912404882339F02F
S1130E00E1ECF0E080818F7D8083109224040895CA
S1130E109B01AC018EE7E2E0F3E0DF011D928A95CD
S1130E20E9F7E0E8F3E0108211A61092D2031092E1
S1130E30FB0360E472E48FE090E00E94C22721503B
S1130E4031093093C5002093C40088E98093C10020
S1130E508EE08093C20010920701089581E0809390
S1130E6007011092C1000E94FC068EE7E2E0F3E065
S1130E70DF011D928A95E9F7E0E8F3E0108211A6FC
S1130E801092D2031092FB0308950F931F93CF93F4
S1130E90DF9320910701211114C00097A1F08C0168
S1130EA00E9466060097B9F4C8ECD0E002C020970F
S1130EB061F090912404992351F02097D1F0219767
S1130EC0F8CF81E01BC081E019C081E017C00E9407
S1130ED06606009761F31F930F939F938F930E946D
S1130EE0DE290E94EC060F900F900F900F9080E087
S1130EF005C00E946606009771F781E0DF91CF91EB
S1130F001F910F91089583E291E00E94450781119A
S1130F10FACF089586E291E00E9445070895E5E23C
S1130F20F4E080831182CF010E9445070895CF9396
S1130F3020910701211125C0009729F1FC0101909E
S1130F400020E9F73197E81BF90BBA97F0F4C62FA4
S1130F50BC0149E250E085E294E00E94B229CC232E
S1130F6059F085E294E00E9445078111FACF8091FF
S1130F7024048111FCCF0AC085E294E00E94450755
S1130F8005C081E003C081E001C081E0CF910895F4
S1130F908091070181110EC00E948A078FEF91E0B2
S1130FA00E94820284E091E00E9482020E948A07E9
S1130FB00E948A0708951F920F920FB60F92112470
S1130FC02F933F934F935F936F937F938F939F934D
S1130FD0AF93BF93EF93FF9361E08BE00E942F02E6
S1130FE06091790070E087EF94E00E940F048823F9
S1130FF029F0EAE7F0E08081877F808360E08BE07E
S11310000E942F02FF91EF91BF91AF919F918F9119
S11310107F916F915F914F913F912F910F900FBEF0
S11310200F901F9018951F920F920FB60F921124D4
S11310301F932F933F934F935F936F937F938F935C
S11310409F93AF93BF93CF93DF93EF93FF9310914D
S1131050C600C091CC04D091CD04209751F40E94D5
S11310608D06EC019093CD048093CC04892B09F474
S113107062C1812F90E00E9498299C018091CB0449
S1131080882321F081508093CB0455C12B3121F466
S113109082E08093CB044FC12D3009F03FC0809192
S11310A08A04882331F1E091CA04EE23F9F082E046
S11310B0888380918804909189049A83898380919C
S11310C08704882379F090E001974091860454E1E5
S11310D0589F9001599F300D1124C20FD31FC40F84
S11310E0D11D1B82F0E0E557FB4F10820E948A0756
S11310F004C08FEF9FE79A8389831092CA041092E9
S11311008604109289041092880410928704109225
S1131110CD041092CC0410928A040DC1222309F448
S11311200AC1E091CA044E2F50E0DA01A557BB4F23
S11311302C93EE2309F4D6C02F3709F05FC0E15099
S1131140E093CA0480918704811113C0F0E0E5574D
S1131150FB4F40818091880490918904841B9109FC
S11311606AE070E00E94AE2770938904609388045B
S113117039C090918604992391F04FEF490F409321
S1131180860490E0019754E1589FB001599F700D77
S11311901124C60FD71FC40FD11D1B8223C0F0E03A
S11311A0E557FB4F90819032A1F4815080938704DE
S11311B0DE0194E1899FA00DB11D11241396FD0158
S11311C001900020E9F73197EA1BFB0BE0938604BA
S11311D009C094E1899FC00DD11D11241B82815047
S11311E0809387048091CA04E82FF0E0E557FB4F11
S11311F01082811193C010928A0490C0203279F534
S1131200FA01E657FB4F8081803209F494C0809143
S11312108704682F70E0FB01319633970CF08BC084
S1131220882379F06150710990918604A4E1A69F06
S1131230F001A79FF00D1124CE0FDF1FC90FD11DA0
S11312401B828F5F80938704109286044F5F5F4FE9
S11312504E3351050CF04EE34093CA045FC08091B5
S11312608604843108F067C040918704411119C095
S11312704091880450918904BA01660F771F440F86
S1131280551F440F551F440F551F460F571F420F3C
S1131290511D50938904409388048F5F8093860482
S11312A016C050E04150510991E0980F9093860484
S11312B0E4E1E49FB001E59F700D1124C60FD71F30
S11312C0FE01E80FF11D2383C90FD11D1B828091FC
S11312D0CA0490E001968E3391050CF08EE380935E
S11312E0CA041CC02F3741F480918804909189046A
S11312F018161906BCF01BC02032E9F010928704BE
S1131300C901992790938904809388041B821F8ABA
S11313101BA681E080938A048093CA04822F0E94D2
S11313208F0709C01092890410928804F7CF109295
S1131330890410928804FF91EF91DF91CF91BF91BE
S1131340AF919F918F917F916F915F914F913F9159
S11313502F911F910F900FBE0F901F9018951F9201
S11313600F920FB60F9211242F933F934F935F93D5
S11313706F937F938F939F93AF93BF93EF93FF9359
S11313808091840490918504892B31F40E943F0656
S11313909093850480938404E0918404F0918504FF
S11313A080918304DF01A80FB11D9C91992331F032
S11313B08F5F809383049093C6000DC010928304C2
S11313C010820E943F069093850480938404892BA5
S11313D011F40E94FC06FF91EF91BF91AF919F9190
S11313E08F917F916F915F914F913F912F910F90CA
S11313F00FBE0F901F9018951F920F920FB60F9269
S113140011242F933F934F935F936F937F938F9305
S11314109F93AF93BF93EF93FF938091780491E0F0
S1131420811190E09093780490913A05992361F0AA
S1131430811105C061E089E00E942F0209C060E0CB
S113144089E00E942F0204C060E089E00E942F021C
S1131450FF91EF91BF91AF919F918F917F916F9188
S11314605F914F913F912F910F900FBE0F901F905E
S113147018951F920F920FB60F9211242F933F933A
S11314804F935F936F937F938F939F93AF93BF9388
S1131490CF93EF93FF9380914705811104C080910E
S11314A07704882301F180917704C1E0C80FC093C9
S11314B0770490E0875D9D4F0E94912C8093760481
S11314C0C13210F01092770498B18F70907F892BFD
S11314D088B99BB180917604807382958F709C7FCC
S11314E0892B8BB913C0809176048F3379F08FE305
S11314F08093760488B18F6088B99BB1809176041B
S1131500807382958F709C7F892B8BB9FF91EF91AB
S1131510CF91BF91AF919F918F917F916F915F9187
S11315204F913F912F910F900FBE0F901F901895E0
S11315300F931F9380912001882309F461C0809147
S1131540480590914905A0914A05B0914B05892B16
S11315508A2B8B2B09F44DC0809148059091490545
S1131560A0914A05B0914B05892B8A2B8B2B09F44A
S113157042C08091500590915105A0915205B091BF
S1131580530581159646AE4EBF45B8F140914805C6
S11315905091490560914A0570914B0580914C0525
S11315A090914D05A0914E05B0914F058417950774
S11315B0A607B70720F5809120018823C1F0009188
S11315C050051091510520915205309153054091D9
S11315D048055091490560914A0570914B0581E099
S11315E0401751076207730758F080E009C080E094
S11315F007C081E005C081E003C081E001C081E053
S11316001F910F9108959091390591110AC020916D
S11316101A0130911B019FE2921B97BD80933A05FA
S113162008958FE287BD10923A0508951F920F9294
S11316300FB60F9211242F933F934F935F936F93A1
S11316407F938F939F93AF93BF93EF93FF93CF9326
S1131650DF9300D0CDB7DEB78091F8049091F90400
S1131660A091FA04B091FB040196A11DB11D8093D1
S1131670F8049093F904A093FA04B093FB0481E076
S113168089831A8280911901882319F184E00E94C8
S1131690F00181111EC080913705909138058B3B74
S11316A090414CF4809137059091380501969093C0
S11316B03805809337058091370590913805853931
S11316C095403CF081E08093360561E087E00E941C
S11316D02F0280913505811104C080913305882340
S11316E0C1F02091120130911301223E8FEF38078F
S11316F034F481E090E090931101809310012F3134
S11317003105A4F08FEF9FEF9093110180931001A6
S11317100DC081E090E090931101809310018FE15E
S113172090E0909313018093120110C080911001F6
S113173090911101820F931F9093130180931201D2
S1131740992324F481E08093540502C01092540537
S11317508091CE04811124C080913605882309F438
S11317601BC11EC080915405882329F060E08DE0E0
S11317700E942F0204C061E08DE00E942F0280913C
S11317803305882369F080915405882329F060E0AB
S113179087E00E942F0204C061E087E00E942F02CC
S11317A080910405882309F458C0809139059091EB
S11317B082049817B1F080913905809382048823BC
S11317C049F010920F0183E690E090938104809396
S11317D0800414C0109281041092800487E29BE07C
S11317E028C080918004909181040097E1F00197D2
S11317F09093810480938004892B81F08091390532
S1131800863030F08FE387BD81E080933A0525C0B0
S11318108FE187BD81E080933A051FC08FE287BDC9
S113182010923A051AC080917E0490917F0400972B
S1131830A1F0019790937F0480937E04892B41F457
S11318408FE287BD10923A0581E080930F0105C0B5
S11318508FE487BD81E080933A0580912001811156
S1131860A8C08091580590915905892B09F099C019
S1131870A0C0019790937D0480937C04892B09F088
S1131880A3C0AE014E5F5F4FBE016F5F7F4F80E02C
S113189090E00E94802080937B049981911111C073
S11318A09A81992371F010927B0481E0809355050D
S11318B080910F01882309F487C080E00E94030B04
S11318C01EC08823B9F08091CE04811104C061E068
S11318D087E00E942F0280910305882359F061E07C
S11318E08AE00E942F0261E088E00E942F0281E0DA
S11318F08093470580910F01882309F465C0809186
S11319007B040E94030B60C08091CE04811105C04A
S113191080913605882309F451C0809103058823FA
S113192071F060917B048AE00E942F0260917B0435
S113193088E00E942F0280917B0480934705809168
S113194056059091570590937D0480937C04809173
S11319500F018823C9F180917B040E94030B34C0DA
S113196010927B0480913605811104C060E087E009
S11319700E942F0260E08AE00E942F0260E088E06B
S11319800E942F021092470580910F018823E1F0F5
S113199080E00E94030B18C0809135058111E2CECE
S11319A0EECE80917C0490917D04009709F061CF84
S11319B0ABCF80917B048111D3CFE6CF60917B04C0
S11319C087E00E942F02A9CF0F900F90DF91CF9153
S11319D0FF91EF91BF91AF919F918F917F916F9103
S11319E05F914F913F912F910F900FBE0F901F90D9
S11319F01895EF92FF920F931F93CF93DF93C82F05
S1131A0087EE92E00E94912CD82F0E94C204C1114B
S1131A106CC0DA3B09F069C089E592E00E94912C20
S1131A2090E08530910514F485E090E085319105CE
S1131A3014F084E190E08093180188E592E00E941C
S1131A40912C863108F085E180935A0585E592E072
S1131A500E949F2C909316018093150183E592E0D8
S1131A600E949F2C909302058093010587E592E0E4
S1131A700E94912C8093050582E592E00E94912CAE
S1131A808093040581E592E00E94912C80930305E4
S1131A908DE492E00E94992C60934C0570934D055F
S1131AA080934E0590934F0589E492E00E94992C0F
S1131AB0609348057093490580934A0590934B05BC
S1131AC002ED12E0CDE1D5E00F2EF1E3EF2EF5E0CB
S1131AD0FF2EF02DC8010E94912C8993882329F0B0
S1131AE00F5F1F4FCE15DF05A9F7409148055091B0
S1131AF0490560914A0570914B0580914C05909180
S1131B004D05A0914E05B0914F0584179507A60782
S1131B10B707A0F080914C0590914D05A0914E051A
S1131B20B0914F0580589E4AAE4FBF4F80934805F1
S1131B3090934905A0934A05B0934B05DF91CF914B
S1131B401F910F91FF90EF900895009731F0FC01E1
S1131B508081863111F080935A05E0915A058E2FC9
S1131B6090E0FC013197E531F10508F06BC0EA59CA
S1131B70FF4F0C94032888E790E090931D01809315
S1131B801C0181E0809304057DC08CE291E0909378
S1131B901D0180931C0181E08093040573C08CE3D4
S1131BA090E0909346058093450525E030E030931E
S1131BB042052093410510923F0510923E0528E00E
S1131BC02093170190933D0580933C058CE291E0AE
S1131BD090931D0180931C0155C08CE090E090937C
S1131BE046058093450585E090E0909342058093F7
S1131BF0410580915A05833131F080915A058E3028
S1131C0020F08FE003C08AE001C08AE080931701CE
S1131C1080915A058E3018F08DE090E002C088E083
S1131C2090E090933F0580933E0588E592E0909381
S1131C303D0580933C0588E790E090931D018093D7
S1131C401C0120C088E592E09093460580934505E9
S1131C5021E030E0309342052093410528E02093B1
S1131C60170190933D0580933C0580915A05883077
S1131C7019F08CE291E002C088E790E090931D0196
S1131C8080931C0180913205882309F48AC0409115
S1131C904C0550914D0560914E0570914F05809112
S1131CA0500590915105A0915205B09153054817E4
S1131CB059076A077B0708F04DC080915005909141
S1131CC05105A0915205B091530540914C05509196
S1131CD04D0560914E0570914F05841B950BA60B25
S1131CE0B70B80935B0590935C05A0935D05B0935F
S1131CF05E051092590510925805109257051092DE
S1131D0056051092550560915B0570915C058091B4
S1131D105D0590915E052091450530914605032EA1
S1131D20000C440B550B0E94E4276F5F7F4F7093A8
S1131D301F0160931E0110924405109243051092F6
S1131D40400510923F0510923E0510923B051092FB
S1131D503A0547C010925B0510925C0510925D0530
S1131D6010925E051092590510925805109257056D
S1131D70109256051092550581E090E090931F0152
S1131D8080931E0110924405109243051092400561
S1131D9010923F0510923E0510923B0510923A05B1
S1131DA020C010925B0510925C0510925D051092A4
S1131DB05E0510925905109258051092570510921D
S1131DC05605109255051092440510924305109241
S1131DD0400510923F0510923E0510923B0510926B
S1131DE03A059091050581E0911180E08093CE043D
S1131DF060E087E00E942F0208951F920F920FB6B1
S1131E000F9211242F933F934F935F936F937F937C
S1131E108F939F93AF93BF93EF93FF93809150055C
S1131E2090915105A0915205B09153050196A11DC1
S1131E30B11D8093500590935105A0935205B09322
S1131E40530580911401882329F080911401815055
S1131E508093140180912001882391F180913205AF
S1131E60882309F44FC14091500550915105609168
S1131E7052057091530580914C0590914D05A091A8
S1131E804E05B0914F05481759076A077B0708F4B8
S1131E9039C140915005509151056091520570919E
S1131EA053058091480590914905A0914A05B09148
S1131EB04B05481759076A077B0708F4E9C022C194
S1131EC0809132058823F1F04091500550915105DD
S1131ED06091520570915305809148059091490590
S1131EE0A0914A05B0914B05481759076A077B072B
S1131EF048F01092320581E0809320011092590538
S1131F0010925805809120018111FCC080915B05DD
S1131F1090915C05A0915D05B0915E05892B8A2B9B
S1131F208B2B81F480913C0590913D0590937A042C
S1131F308093790481E090E090931F0180931E01C7
S1131F401092390580915B0590915C05A0915D0527
S1131F50B0915E050196A11DB11D80935B05909320
S1131F605C05A0935D05B0935E0580914305909157
S1131F704405019690934405809343058091790428
S1131F8090917A04009729F0019790937A048093B2
S1131F9079048091410590914205892B09F455C03B
S1131FA060915B0570915C0580915D0590915E0583
S1131FB02091450530914605032E000C440B550B2A
S1131FC00E94E427672B682B692B09F468C03DC085
S1131FD081E090E090931F0180931E01809119018C
S1131FE08823A1F0EDE6F0E080818F7E8083E8E62F
S1131FF0F0E080818B7F808360E084E00E94410177
S113200061E084E00E9441011092190181E0809313
S1132010CE0460E087E00E942F0281E080934005B7
S113202010924405109243058091790490917A04AA
S1132030892B59F480913C0590913D0590937A0445
S11320408093790481E080933B0580910405882383
S113205009F456C080915B0590915C05A0915D05E3
S1132060B0915E0520911C0130911D01BC01CD0190
S1132070655F7F4F8F4F9F4F032E000C440B550B12
S11320800E94E4276B30710581059105F4F038C096
S113209080E090E00E94A50D1092200133C0809151
S11320A01E0190911F01019690931F0180931E01C0
S11320B020911E0130911F018091410590914205AC
S11320C0821793070CF484CFA8CF80915B0590917D
S11320D05C05A0915D05B0915E0520911C013091D5
S11320E01D01BC01CD01655F7F4F8F4F9F4F032EB4
S11320F0000C440B550B0E94E4276093390502C081
S113210010923905FF91EF91BF91AF919F918F91FB
S11321107F916F915F914F913F912F910F900FBEDF
S11321200F901F9018950F931F93CF9344E150E0A5
S1132130BC018DE195E00E94B229C0E00DE115E0FB
S1132140F80101900020E9F7CF018E5195402C2F22
S113215030E02817390758F4C901FC01E85FFA4F49
S113216065898E529D4F0E94A52CCF5FE9CF8C2F9D
S113217090E060E08E529D4F0E94A52CCF911F915C
S11321800F910895682F88E592E00E94A52C089588
S1132190CF93DF931F92CDB7DEB78A3299F481E0F3
S11321A090E09093090180930801109271041092B9
S11321B0700410926F0410926E0410926D041092C9
S11321C06C04AFC1E0910801F09109013197ED3041
S11321D0F10508F0A6C1E558FF4F0C9403281092AE
S11321E071041092700410926F0410926E04109295
S11321F06D0410926C04833439F486E090E090937B
S11322000901809308018DC1813439F482E090E0A2
S1132210909309018093080184C18A3209F481C131
S113222090E0C09790936F0480936E040E94D5024F
S11322308DE090E0909309018093080172C180338E
S113224039F483E090E0909309018093080169C117
S1132250813339F484E090E090930901809308017C
S113226060C1823309F05DC185E090E0909309017B
S11322708093080156C1833209F053C110920901B9
S1132280109208014EC1813339F487E090E09093B5
S113229009018093080145C1823339F488E090E054
S11322A090930901809308013CC1843339F489E097
S11322B090E0909309018093080133C1853339F488
S11322C08AE090E090930901809308012AC1863343
S11322D039F48BE090E0909309018093080121C1C7
S11322E0873339F48CE090E09093090180930801DE
S11322F018C1109209011092080113C1833271F4BC
S113230087E594E00E94931060E087E594E00E94E2
S11323109707109209011092080103C190ED980FDC
S11323209A3008F0FEC020916C0430916D04232B88
S1132330C1F120916E0430916F04A901440F551F1F
S1132340220F331F220F331F220F331F240F351F79
S113235090E0C097820F931F90936F0480936E0454
S113236087329105CCF420917004309171042431AA
S1132370310594F4F901E95AFB4FDC01A55DBD4F29
S11323808C9180832F5F3F4F3093710420937004AE
S1132390F901E95AFB4F108210926D0410926C04FB
S11323A0C0C090E0C09790936F0480936E0481E066
S11323B090E090936D0480936C04B3C08332C1F4B5
S11323C080916E0490916F048631910560F4898345
S11323D00E94C21080915A059981981721F0CE016C
S11323E001960E94A50D109209011092080199C04E
S11323F090ED980F9A3008F094C090E0C097209127
S11324006E0430916F04820F931F90936F04809336
S11324106E0487C0833209F084C0109209011092BF
S113242008017FC0833209F07CC010920901109228
S1132430080177C0833209F074C010920901109228
S113244008016FC0833279F4809170049091710413
S11324500C9721F487E594E00E94D522109209019B
S1132460109208015EC090ED980F9A3008F059C0A0
S11324702091700430917104283231050CF051C060
S1132480F901E95AFB4F80832F5F3F4F309371046A
S113249020937004F901E95AFB4F108242C0833241
S11324A029F580916E0490916F04009751F480E0B7
S11324B090E00E94A002EFE6F0E0808182608083D9
S11324C010C08C3321E0920754F0EFE6F0E08081F5
S11324D08D7F80838BE391E00E94A00202C00E9462
S11324E0A00210920901109208011BC090ED980FF0
S11324F09A30B8F420916E0430916F04A901440F0E
S1132500551F220F331F220F331F220F331F240F97
S1132510351F90E0C097820F931F90936F048093B0
S11325206E040F90DF91CF910895EAE7F0E0808187
S113253086FDFDCF2091780030917900EAE7F0E044
S1132540908190649083C901089588EC80937C0005
S1132550EAE7F0E087E0808380818068808380817F
S1132560806480830E94951208950F931F93CF93E4
S1132570DF936091150170911601072E000C880BF2
S1132580990B0E94A12520E030E040E251E40E9432
S1132590F724062F172FD82FC92F20E030E048E466
S11325A053E40E94902618166CF020E030E048E4D2
S11325B053EC602F712F8D2F9C2F0E94ED248823C4
S11325C034F009C000E010E0D8E4C3E404C000E043
S11325D010E0D8E4C3EC0E9495120E949512BC014D
S11325E080E090E00E949F252EEA37E242EA53E41D
S11325F00E94802426EF38E24CE95FE30E94F7242E
S1132600202F312F4D2F5C2F0E9481240E940227FE
S1132610DF91CF911F910F910895EAE7F0E01082C6
S113262010927B00ACE7B0E01C929C9196609C9366
S11326309C91906C9C939C9190629C9390819660E9
S11326409083908190629083908198609083908130
S113265090689083882331F08081886080838081B2
S1132660806480830895FC012191222341F030E0AD
S1132670205331092A303105B8F380E0089581E010
S1132680089580E090E00E94A50D1092200160E082
S113269088E291E00E94970708951F920F920FB667
S11326A00F9211242F933F934F935F936F937F93D4
S11326B08F939F93AF93BF93EF93FF9384E00E9414
S11326C0F001882361F080913605882341F00E944F
S11326D041131092360560E087E00E942F021092A9
S11326E0380510923705FF91EF91BF91AF919F91FB
S11326F08F917F916F915F914F913F912F910F90A7
S11327000FBE0F901F90189580911D05811104C074
S11327108EE690E00E9482028091500590915105CE
S1132720A0915205B091530581159646AE4EBF4512
S113273020F48CED90E00E94820240914805509173
S1132740490560914A0570914B058091500590911F
S11327505105A0915205B0915305481759076A07CE
S11327607B07F0F440914C0550914D0560914E0566
S113277070914F058091500590915105A09152059B
S1132780B0915305481759076A077B0720F486EB75
S113279090E00E9482028FE890E00E9482020895F5
S11327A040914C0550914D0560914E0570914F0537
S11327B08091500590915105A0915205B091530517
S11327C0481759076A077B0728F461E083E391E01F
S11327D00E94970708952F923F924F925F926F92B3
S11327E07F928F929F92AF92BF92CF92DF92EF929D
S11327F0FF920F931F93CF93DF93CDB7DEB72C9740
S11328000FB6F894DEBF0FBECDBF2B013C014901CA
S11328105A01621773078407950750F0E114F10415
S113282009F404C161E0C7010E94970781E0FFC079
S11328300115110521F061E0C8010E949707750197
S11328406401C418D508E608F708C701B60120E8F2
S113285033E341EE51E00E94C22729013A014427A3
S1132860552760E873E381EE91E00E948A27C61A37
S1132870D70AE80AF90AC701B60120E831E541E0C0
S113288050E00E94C22749015A01190144275527E3
S113289060E871E581E090E00E948A27C61AD70AB1
S11328A0E80AF90AC701B60120E13EE040E050E041
S11328B00E94C22729833A834B835C8329813A810E
S11328C03A87298729813A814B815C81442755279E
S11328D0A0E1BEE00E941F28C61AD70AE80AF90A36
S11328E0C701B6012CE330E040E050E00E94C2276B
S11328F02D833E834F8358870D811E812CE3209FB7
S1132900C001219F900D1124A601481B590B5C871F
S11329104B871092CF0441145104B9F05F924F9247
S113292085E491E09F938F938FEC94E09F938F9332
S11329300E94DE2961E08FEC94E00E9497070F90DB
S11329400F900F900F900F900F902328B9F09F9243
S11329508F928DE491E09F938F938FEC94E09F93FB
S11329608F930E94DE2961E08FEC94E00E94970728
S11329700F900F900F900F900F900F9089859A856C
S1132980892BC9F09A819F93E981EF9386E591E0C1
S11329909F938F938FEC94E09F938F930E94DE29F3
S11329A061E08FEC94E00E9497070F900F900F90D6
S11329B00F900F900F90012BC9F0FE81FF932D8192
S11329C02F938EE591E09F938F938FEC94E09F93E8
S11329D08F930E94DE2961E08FEC94E00E949707B8
S11329E00F900F900F900F900F900F903C853F9396
S11329F04B854F9386E691E09F938F938FEC94E001
S1132A009F938F930E94DE2961E08FEC94E00E94F3
S1132A1097070E948A07EFECF4E010820F900F9062
S1132A200F900F900F900F9080E001C081E02C96E2
S1132A300FB6F894DEBF0FBECDBFDF91CF911F91CB
S1132A400F91FF90EF90DF90CF90BF90AF909F9049
S1132A508F907F906F905F904F903F902F9008954C
S1132A602F923F924F925F926F927F928F929F929A
S1132A70AF92BF92CF92DF92EF92FF920F931F9388
S1132A80CF93DF93CDB7DEB728970FB6F894DEBFA8
S1132A900FBECDBF0F2EF4E86F2EF1E07F2EF02D88
S1132AA00F2EFFECAF2EF4E0BF2EF02D0F2EF8E02A
S1132AB08F2EF2E09F2EF02D0F2EF5EC4F2EF1E02D
S1132AC05F2EF02D0F2EF4E72F2EF1E03F2EF02D88
S1132AD00E94BB066C01009709F4CFC5FC018181FB
S1132AE092818A39F3E29F0709F4AFC5C8F48532AD
S1132AF03EE1930709F4A9C550F48E31E3E09E0743
S1132B0009F4C8C18F369D4109F4A9C29CC5863C0D
S1132B102EE19207F9F0863A904209F4C5C093C5B4
S1132B20853F43E2940709F405C150F48F3CF3E276
S1132B309F0709F43AC5803D934209F436C283C520
S1132B40843334E2930709F42AC18C39944209F49A
S1132B5081C279C5F601838190E0009709F48FC0A2
S1132B608234910509F477C58434910539F4878951
S1132B70833509F473C586E090E075C08634910509
S1132B8009F46FC583349105C9F4F6018789108E61
S1132B90823429F090E0C0970A9708F070C0C6010B
S1132BA047960E945329992314F480E090E08630DC
S1132BB091050CF455C085E090E052C08335910531
S1132BC0E9F5F6018789908D118E823409F457C096
S1132BD0863449F48FEC890F853008F050C0892F72
S1132BE090E083971BC0833541F48FEC890F8530C7
S1132BF0C0F4892F90E0889711C0963439F49FEC83
S1132C00980F9530E0F590E0839708C09335B9F5B7
S1132C109FEC980F953098F590E08897009719F4F9
S1132C202EC088E090E08830910514F488E090E0AC
S1132C3083319105ACF082E190E012C08E349105AD
S1132C4059F4F6018789823309F40DC5853309F4F3
S1132C500CC580E090E007C0C60103960E9453298A
S1132C608631910560F489830E94C21080915A05CF
S1132C709981981721F0CE0101960E94A50D8091AB
S1132C805A051F928F933F922F92BF92AF920E9448
S1132C90DE2960E0C5010E9497070F900F900F9006
S1132CA00F900F900F90D1C4F6018381882301F116
S1132CB09481963411F0803359F41092050560E044
S1132CC08DE00E942F0260E087E00E942F0203C083
S1132CD081E0809305056091050587E592E00E94F7
S1132CE0A52C9091050581E0911180E08093CE049C
S1132CF080910505811105C020E731E0822F932FD3
S1132D0004C0EDE6F1E08E2F9F2F9F938F938CE705
S1132D1091E09F938F93BF92AF920E94DE2960E06F
S1132D20C5010E9497070F900F900F900F900F907E
S1132D300F908BC4F6018381882389F094819634A3
S1132D4011F0803319F41092040503C081E08093DC
S1132D5004056091040582E592E00E94A52C80910F
S1132D600405811105C020E731E0822F932F04C0B0
S1132D70EDE6F1E08E2F9F2F9F938F937F926F92BA
S1132D80BF92AF920E94DE2960E0C5010E949707BE
S1132D900F900F900F900F900F900F9056C4F60164
S1132DA08381882309F451C4803321F481E0809322
S1132DB020014BC4813319F40E94411346C4823369
S1132DC009F043C481E0809320010E94980A811194
S1132DD05EC081E08093320520914C0530914D0511
S1132DE040914E0550914F056091500570915105E9
S1132DF080915205909153050F2EFCE8EF2EF1E0DF
S1132E00FF2EF02D09E911E00E94EB1320914805F3
S1132E103091490540914A0550914B0560914C050C
S1132E2070914D0580914E0590914F05E12CF12C48
S1132E3005EA11E00E94EB1340914C0550914D05B9
S1132E4060914E0570914F05809150059091510508
S1132E50A0915205B0915305481759076A077B079B
S1132E6008F0F3C3209148053091490540914A0583
S1132E7050914B0560915005709151058091520518
S1132E80909153050DEA11E00E94EB13DEC30E94FA
S1132E908413DBC3F6018381882309F44DC080E2E7
S1132EA090E0F50191838083B6016D5F7F4FC5018A
S1132EB00E94A029F6018789882379F0F501019001
S1132EC00020E9F7319780E290E091838083B60196
S1132ED0695E7F4FC5010E94A029F5010190002081
S1132EE0E9F73197EF5CF440759730F5B5018DE162
S1132EF095E00E94AB29F12C0DE115E0F801019059
S1132F000020E9F7CF018E5195402F2D30E028178E
S1132F10390758F4C901FC01E85FFA4F65898E52FC
S1132F209D4F0E94A52CF394E9CF8F2D90E060E093
S1132F308E529D4F0E94A52C80911D058823F1F08F
S1132F406091180170E08DE195E00E947E218C5023
S1132F509E4F9C013695279536952795369527954E
S1132F60A5ECB0E20E940928929582958F7089277A
S1132F709F70892790930705809306058DE195E05E
S1132F809F938F938EEB91E09F938F93BF92AF9219
S1132F900E94DE2961E0C5010E9497070F900F90FF
S1132FA00F900F900F900F9050C3F60183818934D6
S1132FB0E1F587898823C9F1C60147960E947129E2
S1132FC0862F90E08530910514F485E090E08531FA
S1132FD091050CF084E1809318016091180189E552
S1132FE092E00E94A52C80911D058823F1F0609148
S1132FF0180170E08DE195E00E947E218C509E4F77
S11330009C01369527953695279536952795A5ECF9
S1133010B0E20E940928929582958F7089279F704B
S113302089279093070580930605809118011F92C4
S11330308F935F924F92BF92AF920E94DE2960E01D
S1133040C5010E9497070F900F900F900F900F905B
S11330500F90FBC28FEF91E00E948202F6C2F6014C
S11330608381843509F08BC04CE050E0B601695E81
S11330707F4FC5010E94B229F501148601900020FA
S1133080E9F73197EF5CF4401E161F060CF047C0B9
S11330903C9709F03FC0C5010E9433138823D1F146
S11330A0B50180E090E00E94CA21613076468E4EE0
S11330B09F4558F1C5010E94D52260E070E080E090
S11330C090E00E94CA21609350057093510580934B
S11330D05205909353058091500590915105A0910C
S11330E05205B0915305BF93AF939F938F9386ED91
S11330F091E09F938F93BF92AF920E94DE290FB607
S1133100F894DEBF0FBECDBFB3C280E090E00E9452
S11331108202AEC284E190E00E948202A9C22091A0
S11331204C0530914D0540914E0550914F056091ED
S11331305005709151058091520590915305E12CF1
S1133140F12C09E911E00E94EB1380915005909154
S11331505105A0915205B0915305BF93AF939F932E
S11331608F9381ED91E09F938F93BF92AF920E94D2
S1133170DE290FB6F894DEBF0FBECDBF79C283350A
S113318009F0CFC0B601695E7F4FC5010E94AB292B
S1133190F50101900020E9F73197EF5CF4401E1629
S11331A01F060CF0A4C03C9709F09CC0C5010E9406
S11331B03313882309F496C0B50180E090E00E949F
S11331C0CA2100915005109151052091520530916A
S11331D05305061717072807390708F07EC06093C0
S11331E04C0570934D0580934E0590934F05409187
S11331F04C0550914D0560914E0570914F058DE43D
S113320092E00E94B72C8091480590914905A091C5
S11332104A05B0914B058D839E83AF83B887809117
S11332204C0590914D05A0914E05B0914F058058E5
S11332309E4AAE4FBF4F89839A83AB83BC834D8133
S11332405E816F817885481759076A077B0728F4E0
S113325089819A81AB81BC8104C08D819E81AF81BB
S1133260B8858093480590934905A0934A05B09387
S11332704B05409148055091490560914A0570916C
S11332804B0589E492E00E94B72C80914C05909103
S11332904D05A0914E05B0914F05BF93AF939F93F9
S11332A08F9380EE91E09F938F93BF92AF920E9491
S11332B0DE290E94980A0FB6F894DEBF0FBECDBF78
S11332C0811107C09091200181E0911103C080E039
S11332D001C080E080933205CBC188E290E00E9477
S11332E08202C6C184E190E00E948202C1C1809141
S11332F04C0590914D05A0914E05B0914F05BF939B
S1133300AF939F938F9380EE91E09F938F93BF929F
S1133310AF920E94DE290FB6F894DEBF0FBECDBF78
S1133320A7C1863409F0B6C0B601695E7F4FC501F6
S11333300E94AB29F50101900020E9F73197EF5C79
S1133340F4401E161F060CF08BC03C9709F083C096
S1133350C5010E943313882309F47DC0B50180E0C0
S113336090E00E94CA2100915005109151052091CE
S1133370520530915305061717072807390708F037
S113338065C000914C0510914D0520914E0530917A
S11333904F05061717072807390708F052C060932E
S11333A048057093490580934A0590934B054091D5
S11333B048055091490560914A0570914B0589E48F
S11333C092E00E94B72C2091480530914905409124
S11333D04A0550914B0560914C0570914D058091C3
S11333E04E0590914F05E12CF12C05EA11E00E9465
S11333F0EB138091480590914905A0914A05B0913D
S11334004B05BF93AF939F938F938BEE91E09F9364
S11334108F93BF92AF920E94DE290E94980A0FB642
S1133420F894DEBF0FBECDBF811107C0909120017B
S113343081E0911103C080E001C080E080933205F7
S113344017C183E590E00E94820212C18DE390E0EF
S11334500E9482020DC184E190E00E94820208C1B0
S11334608091480590914905A0914A05B0914B057A
S1133470BF93AF939F938F938BEE91E09F938F9322
S1133480BF92AF920E94DE290FB6F894DEBF0FBE42
S1133490CDBFEEC0833409F5F6018789882351F046
S11334A0C60147960E9453298115F2E09F0710F444
S11334B00E9449230E942F239F938F9387EF91E0CB
S11334C09F938F93BF92AF920E94DE290F900F902B
S11334D00F900F900F900F90CBC0883521F4E8988F
S11334E00E946D24B2C00E94980A882319F00E9499
S11334F08413ABC020914C0530914D0540914E058D
S113350050914F056091500570915105809152057D
S1133510909153050F2EFCE8EF2EF1E0FF2EF02DD5
S113352009E911E00E94EB13209148053091490507
S113353040914A0550914B0560914C0570914D05A1
S113354080914E0590914F05E12CF12C05EA11E094
S11335500E94EB1340914C0550914D0560914E052E
S113356070914F058091500590915105A09152059D
S1133570B0915305481759076A077B0708F065C0DF
S1133580209148053091490540914A0550914B05D9
S113359060915005709151058091520590915305A9
S11335A00DEA11E00E94EB1350C0F60183818334CD
S11335B089F587898823B1F0C60147960E9453296B
S11335C09C012153384F2F393F4060F490931601EA
S11335D080931501609115017091160185E592E0C3
S11335E00E94C32C80911501909116019F938F9393
S11335F02DEF31E03F932F93BF92AF920E94DE29CB
S113360060E0C5010E9497070F900F900F900F90F4
S11336100F900F9080913405282F082E000C330B47
S11336203F938F939F928F92BF92AF920E94DE2915
S113363061E0C5010E9497070F900F900F900F90C3
S11336400F900F9002C00E94C807F60112821182E7
S11336500E9483073DCA80E090E005CB83E190E0BF
S113366002CB87E000CB84E1FECA85E190E0FBCA8F
S113367061E0C5010E949707E8CF28960FB6F89439
S1133680DEBF0FBECDBFDF91CF911F910F91FF9091
S1133690EF90DF90CF90BF90AF909F908F907F90EE
S11336A06F905F904F903F902F9008952F923F928C
S11336B04F925F926F927F928F929F92AF92BF923E
S11336C0CF92DF92EF92FF920F931F93CF93DF93EA
S11336D01F92CDB7DEB70E943015809158059091A6
S11336E05905892B29F080917504882309F4DAC0DF
S11336F08091200181112EC11092750480915A0588
S1133700863091F480911E0190911F01BC01660FD7
S1133710771F660F771F680F791F6E577D4F88E0FC
S113372095E00E94AB2927C080915A05833199F412
S113373080911E0190911F010896BC01660F771FAE
S1133740660F771F680F791F6E577D4F88E095E0ED
S11337500E94AB2910C080915A0590E0BC01660F0D
S1133760771F660F771F680F791F6E577D4F88E0AC
S113377095E00E94AB2980915A05863009F1809129
S11337805A058331E9F080915A058823C9F0809164
S11337905A058730A9F080915A05883089F0209124
S11337A05A0540911E0150911F0180913E05909150
S11337B03F0530E0840F951F2817390709F0CAC068
S11337C081E089836091170170E082E89BE10E94A7
S11337D0AE27CB016AE070E00E94AE27660F771F28
S11337E0709357056093560540E050E0BE016F5F4B
S11337F07F4F88E095E00E94802080913B058111F5
S11338000BC020913C0530913D0580914505909178
S11338104605821793073CF1009145051091460532
S11338206091180170E08DE195E00E947E218C503A
S11338309E4F9C0136952795369527953695279565
S1133840A5ECB0E20E940928929582958F70892791
S11338509F708927081B190B10930E0100930D010B
S113386010923B050AC080914505909146058D59FB
S11338709F4F90930E0180930D0110920C0181E0F3
S113388090E0909359058093580510925505109235
S1133890400580911E0190911F0190931B0180931C
S11338A01A0158C080910C0181119AC120914305DD
S11338B03091440580910D0190910E01281739072C
S11338C009F08EC16BC180915A05843108F48EC110
S11338D009C010924005109259051092580581E0D4
S11338E08093750480915A05863021F080915A05A1
S11338F0833149F480915505882361F18091400515
S1133900811179C127C080915A05882341F08091A3
S11339105A05873021F080915A05883041F480910E
S113392055058823B9F081E08093750413C0809114
S11339305A05893008F468C180915A05833108F02A
S113394063C18091550581115AC15EC180915505AD
S1133950811166C187EF94E00E943B04882309F437
S113396012C180911401811160C10E94A5120E94AC
S1133970B5120E946925809134056817B1F06093EF
S1133980340589E1861B880F990B865A9D4F0E9446
S1133990912C2091010530910205A901480F511D78
S11339A087FD5A95CA010E94492380E00E940D13A5
S11339B08CE38093140139C1F501419151916191D6
S11339C071915F0187EF94E00E94580387EF94E0C0
S11339D00E943E04E62EF72ED82EC92E272D362D12
S11339E0452D542D0E9490261816B4F420E034E29C
S11339F044E759E46E2D7F2D8D2D9C2D0E94902639
S1133A00181634F448017E2C6F2C5D2C4C2C04C009
S1133A107E2C6F2C5D2C4C2C0F5F1F4F0430110536
S1133A2059F613C1F50141915191619171915F0171
S1133A3087EF94E00E94580387EF94E00E943E04CD
S1133A40E62EF72ED82EC92E252D342D432D522D9A
S1133A500E9490261816B4F420E034E244E759E4B6
S1133A606E2D7F2D8D2D9C2D0E949026181634F4DA
S1133A7038015E2C4F2C3D2C2C2C04C05E2C4F2C7A
S1133A803D2C2C2C0F5F1F4F0430110559F6772065
S1133A900CF471C0C401880F991F880F991F8E5AA6
S1133AA09D4FFC01E60DF71D1081809174041813DD
S1133AB017C080910A0190910B01019690930B011C
S1133AC080930A01039761F481E080933505109295
S1133AD073041092720410930005812F0E94C81081
S1133AE01093740448C0C090F804D090F904E09096
S1133AF0FA04F090FB048090FC049090FD04A090E4
S1133B00FE04B090FF0480917204909173049C01B0
S1133B102F5F3F4F309373042093720403975CF13B
S1133B201092350560E08DE00E942F02C818D90874
S1133B30EA08FB08FCEDCF16F5E0DF06E104F1042A
S1133B4020F410920B0110920A0110927304109247
S1133B5072048091F8049091F904A091FA04B09150
S1133B60FB048093FC049093FD04A093FE04B093A3
S1133B70FF0410927404EAE7F0E080818860808397
S1133B80808180648083109133050E94980A809319
S1133B903305811171C011116BC06EC060911801A1
S1133BA070E082E89BE10E94AE27CB016AE070E0FE
S1133BB00E94AE27660F771F7093570560935605D2
S1133BC0198240E050E0BE016F5F7F4F8DE195E0C8
S1133BD00E94802081E080930C011092550582CED2
S1133BE080915A05893008F06ECE7CCE80914005D4
S1133BF081116FCE77CE81E080937504ABCE1092A5
S1133C00590510925805A6CE80915A0520911E019F
S1133C1030911F0190E08217930709F097CE9ACE56
S1133C20109259051092580595CE0F2EF2E6AF2E3C
S1133C30F2E0BF2EF02D00E010E088248A94982C46
S1133C40712C612C512C412CB7CE99200CF44BCF04
S1133C500F2EF2E7AF2EF2E0BF2EF02D00E010E0C1
S1133C6066246A94762C512C412C312C212CDACEEA
S1133C7060E087E00E942F020F90DF91CF911F91A7
S1133C800F91FF90EF90DF90CF90BF90AF909F90F7
S1133C908F907F906F905F904F903F902F900895FA
S1133CA061E08DE00E94410160E08DE00E942F02FE
S1133CB061E087E00E94410160E087E00E942F02FA
S1133CC061E08AE00E94410160E08AE00E942F02E4
S1133CD061E089E00E94410160E089E00E942F02D6
S1133CE061E088E00E94410160E088E00E942F02C8
S1133CF060E084E10E94410160E085E10E944101AD
S1133D0063E08CE00E94410161E08BE00E9441018C
S1133D1060E08BE00E942F0263E084E00E94410196
S1133D2061E08EE00E94410161E08FE00E94410168
S1133D3061E080E10E94410161E081E10E94410172
S1133D4061E080E00E94410161E081E00E94410164
S1133D5063E082E10E94410163E083E10E9441014A
S1133D6080E00E94F90C81E00E940D13E9E6F0E086
S1133D70808182608083E89AA0EBB0E01C92E1EB42
S1133D80F0E010828C9182608C93808187608083C4
S1133D908CE08093B3001092B400E6EBF0E08081F5
S1133DA08F7D8083E0E7F0E01082808184608083EF
S1133DB010928000E1E8F0E01082109285001092E9
S1133DC0840084EF91E0909389008093880080813F
S1133DD08860808380818160808314BC84B5826024
S1133DE084BD15BC85B5846085BD8FE287BDEEE6D4
S1133DF0F0E01082808182608083EDE6F0E0108242
S1133E0080E18083E8E6F0E0108284E080837894A7
S1133E1060E071EE80E090E00E9408070E940924AF
S1133E20C82F60E070E080E090E00E94CA216093B7
S1133E3050057093510580935205909353050E9449
S1133E40C807CC2354F487E0EEE0F2E0AFECB4E032
S1133E5001900D928A95E1F723C0C0FF0AC087E064
S1133E60E5E1F2E0AFECB4E001900D928A95E1F760
S1133E7017C0C1FF0AC087E0ECE1F2E0AFECB4E0A8
S1133E8001900D928A95E1F70BC0C5FF09C088E047
S1133E90E3E2F2E0AFECB4E001900D928A95E1F731
S1133EA08091CF04882329F061E08FEC94E00E9494
S1133EB097070E9484130E948307EFE6F0E0808155
S1133EC08260808380E090E00E94A50D0E94980AA1
S1133ED0811107C09091200181E0911103C080E01D
S1133EE001C080E0809332050E94561BFDCF0F93E2
S1133EF01F9300E018E726E936E440E050E069E467
S1133F0073E487EF94E00E94F0021F910F910895EB
S1133F1087EF94E00E943E03089590E0FC01B0977F
S1133F20ED35F10508F0E4C0E857FF4F0C94032881
S1133F3089E074E061E008958BE074E065E0089541
S1133F4087E073E061E0089581E071E060E0089546
S1133F5089E074E064E0089589E073E063E0089523
S1133F6087E074E060E0089583E072E060E0089523
S1133F708DE074E06EE0089589E073E065E00895F3
S1133F8089E074E062E0089587E072E063E00895F8
S1133F9085E072E061E008958BE073E067E00895E6
S1133FA08BE074E066E008958DE074E06BE00895C2
S1133FB087E073E062E0089585E073E060E00895CF
S1133FC083E071E061E0089587E073E064E00895C0
S1133FD089E074E068E0089589E073E066E008959C
S1133FE08BE074E069E008958DE074E06DE008957D
S1133FF08BE074E063E0089583E175E06FE1089578
S113400081E175E06EE108958FE075E06CE108955B
S11340108DE075E068E108958BE075E060E1089556
S113402089E075E060E008958BE075E061E0089553
S11340308DE075E063E008958FE075E067E0089532
S113404081E175E06FE0089581E176E06AE2089528
S113405083E176E063E308958FE076E06CE0089511
S113406083E176E06EE1089583E176E065E3089507
S11340708DE075E069E008958FE075E06DE00895E6
S113408083E176E06DE208958BE075E062E00895E7
S113409081E176E067E008958CE076E065E10895DB
S11340A08DE075E061E108958DE075E06AE00895C2
S11340B08FE076E061E2089581E176E06CE20895B4
S11340C08FE076E062E1089581E177E068E40895A5
S11340D081E176E066E1089584E077E06FEF08958A
S11340E087E077E06EEF089583E175E06FE108956E
S11340F080E070E060E0089585E072E062E0089599
S1134100CF93DF93EA010097B1F110926A0561152C
S1134110710521F0DB012C9120932201FC01208107
S11341202223D9F0909369058093680580E28093F7
S11341302101822F0E948D1F60936505709366058F
S113414080936705109264051092630510926205CE
S113415010926105109260050AC0109269051092D0
S1134160680581E080936005209709F088831092A8
S11341705F0580E0C0C0E0916805F0916905309763
S113418009F4AAC06115710521F080912201DB01B7
S11341908C9380916005882349F0209709F4A8C086
S11341A081E0888310926A0580E0A5C08091620551
S11341B0882321F08150809362057FC080915F0540
S11341C0882381F080916A0581110CC010925F05EB
S11341D080916105882309F470C080936205109270
S11341E061056BC09091660580916305891790F114
S11341F0809164058F5F80936405DF01A80FB11D72
S11342008C9180932101811119C08091220188230E
S113421031F0808180932101109264050FC01092C7
S113422069051092680510925F0591E0909360050E
S1134230209709F0988310926A055DC0809121014E
S11342400E948D1F609365057093660580936705D2
S113425010926305209165052D3F00F5409163059B
S113426031E0340F3093630581E090E002C0880FA1
S1134270991F4A95E2F7822321F082E08093620538
S113428002C01092620581E080935F05809166050B
S1134290381798F082E0809361050FC0809166051D
S11342A09FEF9093630510925F05843020F0845053
S11342B08093620502C010926205809121018C33C3
S11342C031F481E080936A05209741F414C0109280
S11342D06A05209719F409C0209719F080916005A8
S11342E0888380916A05811105C080915F0503C0B0
S11342F080E001C081E0DF91CF910895CF92DF92F9
S1134300EF92FF920F931F93CF93FC016B01808177
S11343108823C1F08F010F5F1F4F7F0194E1E90EE5
S1134320F11CC0E005C0F80181918F01882359F088
S11343300E948D1F6D3F08F4CD5FC80F0E151F0539
S113434091F701C0C0E080EB94E0B6010E949A2787
S1134350C69FC001C79F900D1124CF911F910F914B
S1134360FF90EF90DF90CF900895982F96959695B3
S113437096959E71292F220F220F920F8F70890F0D
S11343800895FC01208181818053F0E12F9F800DED
S1134390112408954F925F926F927F928F929F9211
S11343A0AF92BF92CF92DF92EF92FF920F931F933F
S11343B0CF93DF93CDB7DEB727970FB6F894DEBF60
S11343C00FBECDBF6C017B01FE01319687E0DF019A
S11343D01D928A95E9F761157105F1F0CB010A96F2
S11343E00E94C1218983C70108960E94C1218A8342
S11343F0C70106960E94C1218B83C70104960E94BF
S1134400C1218D83C70102960E94C1218E83C701F9
S11344100E94C1218F830BC027E0AE014F5F5F4F25
S113442060E084EA0E949E05382F81119BC08F8131
S11344300E94B521A82EB12C4501B0E38B1AB8EF28
S11344409B0A8E810E94B521082F8D810E94B5217F
S1134450782E023068F0E12CF12C11E0612FC401B8
S11344600E942001E80EF11C1F5F0113F7CF02C068
S1134470E12CF12C872D770C990B0197E80EF91E8E
S113448089810E94B521482E8A810E94B521182F66
S11344908B810E94B521042C000C5508ECE31E020C
S11344A0400C511C1124052C000C66087708A82F19
S11344B0880FBB0B20E13EE00E941828460E571ED1
S11344C0681E791ED70120E831E541E050E00E94E2
S11344D02A28460E571E681E791ED5015E9620E8CE
S11344E033E341EE51E00E942A28460E571E681E0F
S11344F0791EC5014F96DC010AF41396B595A7956C
S1134500B595A79520E831E541E050E00E942A28BE
S1134510460E571E681E791EC5018D599F4F64E6CD
S113452070E00E94AE27DB0120E83EEA4EEF5FEF29
S11345300E942A28460E571E681E791EC5018157FF
S11345409E4F60E971E00E94AE27DB0120E831E56F
S113455041E050E00E942A28640D751D861D971DB8
S113456030E003C060E070E0CB01C114D10431F04D
S113457021E0311101C020E0D6012C9327960FB61B
S1134580F894DEBF0FBECDBFDF91CF911F910F9185
S1134590FF90EF90DF90CF90BF90AF909F908F905F
S11345A07F906F905F904F900895CF93DF93CDB736
S11345B0DEB727970FB6F894DEBF0FBECDBF21E05C
S11345C02C83DC010D900020E9F71197A81BB90B8F
S11345D01C970CF43AC0FC0192858385805320E13A
S11345E0929F800D1124898390858185805320E1D9
S11345F0929F800D11248A8396818781805320E1C4
S1134600929F800D11248B8394818581805320E1B6
S1134610929F800D11248D8392818381805320E1A8
S1134620929F800D11248E8390818181805320E19B
S1134630929F800D11248F8327E0AE014F5F5F4F5F
S113464060E084EA0E943B0501C081E027960FB632
S1134650F894DEBF0FBECDBFDF91CF910895CF9305
S1134660DF9300D0CDB7DEB722E0AE014F5F5F4FDE
S113467066E384EA0E949E05898190E0880F991F71
S11346802A8122230CF401960F900F90DF91CF9191
S11346900895CF93DF9300D0CDB7DEB720E12A830E
S11346A09C0136952795298380FF02C080E98A837F
S11346B022E0AE014F5F5F4F66E384EA0E943B0550
S11346C00F900F90DF91CF910895CF93DF931F92B6
S11346D0CDB7DEB781E0898321E0AE014F5F5F4F44
S11346E06EE084EA0E949E05811107C0898180786A
S11346F089838111F1CF80E003C089818823D9F3B4
S11347000F90DF91CF9108951F93CF93DF9300D043
S113471000D0CDB7DEB78B83162F4C8319820E944D
S1134720652381115EC088E0898321E0AE014F5F7B
S11347305F4F6FE084EA0E943B05811154C021E081
S1134740AE014E5F5F4F6B8184EA0E949E05912FFC
S113475090958A8189238A839C811923812B8C8358
S113476021E0AE014D5F5F4F65E284EA0E943B05A4
S113477081113BC021E0AE014C5F5F4F66E284EAE9
S11347800E943B05811133C0198221E0AE014F5FC5
S11347905F4F67E284EA0E943B0581112AC00E94B0
S11347A06523811128C081E2898321E0AE014F5F36
S11347B05F4F67E284EA0E943B0581111EC00E949C
S11347C0652381111CC0198221E0AE014F5F5F4F48
S11347D06FE084EA0E943B0591E0811111C090E0F2
S11347E00FC091E00DC091E00BC091E009C091E0D1
S11347F007C091E005C091E003C091E001C091E0E1
S1134800892F0F900F900F900F90DF91CF911F91F0
S11348100895CF93DF9300D0CDB7DEB719821A8203
S113482080916B058823C9F00E94652381114BC0D8
S113483085EC8A8345EC6FEF85E30E948423811124
S113484044C084E08A8344E066E087E30E948423D2
S113485081113DC010926B051AC021E0AE014E5F7C
S11348605F4F67E284EA0E943B0589830E946523C7
S113487082E18A8321E0AE014E5F5F4F67E284EA02
S11348800E943B059981892B89830E946523898134
S113489081110CC021E0AE014F5F5F4F6EE084EAEE
S11348A00E949E0589818F76898302C080E889836E
S11348B01A8221E0AE014E5F5F4F6EE084EA0E94EF
S11348C03B05898105C081E003C081E001C081E02E
S11348D00F900F90DF91CF910895CF93DF931F92A4
S11348E0CDB7DEB780EC898321E0AE014F5F5F4F27
S11348F065E384EA0E943B050F90DF91CF91089510
S11349005058BB27AA270E9498240C9442260E9440
S1134910092638F00E94102620F039F49F3F19F43C
S113492026F40C9406260EF4E095E7FB0C9400267E
S1134930E92F0E94672658F3BA17620773078407A2
S1134940950720F079F4A6F50C9489260EF4E095E9
S11349500B2EBA2FA02D0B01B90190010C01CA0135
S1134960A0011124FF27591B99F0593F50F4503EE0
S113497068F11A16F040A22F232F342F4427585FD2
S1134980F3CF469537952795A795F0405395C9F7EA
S11349907EF41F16BA0B620B730B840BBAF09150A2
S11349A0A1F0FF0FBB1F661F771F881FC2F70EC041
S11349B0BA0F621F731F841F48F487957795679514
S11349C0B795F7959E3F08F0B0CF9395880F08F000
S11349D09927EE0F9795879508950E94DC2508F492
S11349E081E008950E941926E3950C9453260E94B1
S11349F00B250C9442260E94102658F00E9409268A
S1134A0040F029F45F3F29F00C94002651110C94D6
S1134A108A260C9406260E94672668F39923B1F32C
S1134A20552391F3951B550BBB27AA2762177307D0
S1134A30840738F09F5F5F4F220F331F441FAA1F64
S1134A40A9F335D00E2E3AF0E0E832D09150504020
S1134A50E695001CCAF72BD0FE2F29D0660F771FCE
S1134A60881FBB1F261737074807AB07B0E809F0B4
S1134A70BB0B802DBF01FF2793585F4F3AF09E3F39
S1134A80510578F00C9400260C948A265F3FE4F3D9
S1134A90983ED4F3869577956795B795F7959F5F7C
S1134AA0C9F7880F911D9695879597F90895E1E0C8
S1134AB0660F771F881FBB1F621773078407BA0727
S1134AC020F0621B730B840BBA0BEE1F88F7E09582
S1134AD008950E9470256894B1110C948A26089553
S1134AE00E946F2688F09F5798F0B92F9927B751E5
S1134AF0B0F0E1F0660F771F881F991F1AF0BA957E
S1134B00C9F714C0B13091F00E948926B1E008952C
S1134B100C948926672F782F8827B85F39F0B93F1E
S1134B20CCF3869577956795B395D9F73EF4909530
S1134B308095709561957F4F8F4F9F4F0895E894AE
S1134B4009C097FB3EF490958095709561957F4FD1
S1134B508F4F9F4F9923A9F0F92F96E9BB2793957F
S1134B60F695879577956795B795F111F8CFFAF48F
S1134B70BB0F11F460FF1BC06F5F7F4F8F4F9F4FC0
S1134B8016C0882311F096E911C0772321F09EE81E
S1134B90872F762F05C0662371F096E8862F70E084
S1134BA060E02AF09A95660F771F881FDAF7880F5E
S1134BB09695879597F90895990F0008550FAA0BB4
S1134BC0E0E8FEEF16161706E807F907C0F012161C
S1134BD01306E407F50798F0621B730B840B950B1F
S1134BE039F40A2661F0232B242B252B21F4089574
S1134BF00A2609F4A140A6958FEF811D811D089511
S1134C0097F99F6780E870E060E008959FEF80EC7B
S1134C10089500240A94161617061806090608951E
S1134C2000240A94121613061406050608950C941B
S1134C3006260E946F26D8F3E894E0E0BB279F572E
S1134C40F0F02AED3FE049EC06C0EE0FBB0F661F03
S1134C50771F881F28F0B23A62077307840728F089
S1134C60B25A620B730B840BE3959A9572F78038F2
S1134C7030F49A95BB0F661F771F881FD2F79048B0
S1134C800C944327092E0394000C11F4882352F04A
S1134C90BB0F40F4BF2B11F460FF04C06F5F7F4F64
S1134CA08F4F9F4F0895EF93E0FF07C0A2EA2AEDCC
S1134CB03FE049EC5FEB0E9498240E9442260F904B
S1134CC0039401FC9058EAECF1E00C944F2757FD53
S1134CD09058440F551F59F05F3F71F04795880F66
S1134CE097FB991F61F09F3F79F0879508951216FD
S1134CF013061406551FF2CF4695F1DF08C01616A9
S1134D0017061806991FF1CF869571056105089459
S1134D100895E894BB2766277727CB0197F9089570
S1134D200E94DC2508F48FEF08950E94A8260C94B5
S1134D3042260E94092638F00E94102620F095236E
S1134D4011F00C9400260C94062611240C948A2647
S1134D500E94672670F3959FC1F3950F50E0551F8D
S1134D60629FF001729FBB27F00DB11D639FAA27BC
S1134D70F00DB11DAA1F649F6627B00DA11D661F0B
S1134D80829F2227B00DA11D621F739FB00DA11D2C
S1134D90621F839FA00D611D221F749F3327A00DE6
S1134DA0611D231F849F600D211D822F762F6A2F82
S1134DB011249F5750409AF0F1F088234AF0EE0FE7
S1134DC0FF1FBB1F661F771F881F91505040A9F714
S1134DD09E3F510580F00C9400260C948A265F3F78
S1134DE0E4F3983ED4F3869577956795B795F79550
S1134DF0E7959F5FC1F7FE2B880F911D96958795C8
S1134E0097F908950E946F26E8F09E37E8F09639E6
S1134E10B8F49E3848F4672F782F8827985FF9CF25
S1134E2086957795679593959539D0F3B62FB1709C
S1134E306B0F711D811D20F4879577956795939568
S1134E400C9426270C9441270C948A26882371F409
S1134E50772321F09850872B762F07C0662311F40F
S1134E6099270DC09051862B70E060E02AF09A9546
S1134E70660F771F881FDAF7880F9695879597F93D
S1134E8008959F3F31F0915020F487957795679569
S1134E90B795880F911D9695879597F908959F93D7
S1134EA08F937F936F93FF93EF939B01AC010E94C9
S1134EB09526EF91FF910E9463272F913F914F9187
S1134EC05F910C949526DF93CF931F930F93FF92DA
S1134ED0EF92DF927B018C01689406C0DA2EEF0119
S1134EE00E94A826FE01E894A5912591359145914B
S1134EF05591A6F3EF010E949824FE019701A801A1
S1134F00DA9469F7DF90EF90FF900F911F91CF91A2
S1134F10DF910895DB018F939F930E941F28BF9117
S1134F20AF91A29F800D911DA39F900DB29F900DF4
S1134F3011240895AA1BBB1B51E107C0AA1FBB1F64
S1134F40A617B70710F0A61BB70B881F991F5A9511
S1134F50A9F780959095BC01CD01089597FB072E84
S1134F6016F4009407D077FD09D00E949A2707FC15
S1134F7005D03EF4909581959F4F08957095619565
S1134F807F4F0895A1E21A2EAA1BBB1BFD010DC081
S1134F90AA1FBB1FEE1FFF1FA217B307E407F507E5
S1134FA020F0A21BB30BE40BF50B661F771F881FC1
S1134FB0991F1A9469F760957095809590959B0157
S1134FC0AC01BD01CF010895052E97FB1EF400949A
S1134FD00E94FB2757FD07D00E94C22707FC03D07D
S1134FE04EF40C94FB2750954095309521953F4FF6
S1134FF04F4F5F4F089590958095709561957F4FC1
S11350008F4F9F4F0895EE0FFF1F0590F491E02DF1
S11350100994A29FB001B39FC001A39F700D811D8D
S11350201124911DB29F700D811D1124911D0895AD
S11350300E940928B7FF0895821B930B08950E94CC
S11350400928A59F900DB49F900DA49F800D911DDC
S113505011240895B7FF0C941F280E941F28821B57
S1135060930B08950F931F93CF93DF938230910591
S113507010F482E090E0E0916E05F0916F0520E07D
S113508030E0A0E0B0E0309719F140815181028115
S1135090138148175907C8F08417950769F41097C6
S11350A031F012960C93129713961C9327C0009319
S11350B06E0510936F0522C02115310519F04217B2
S11350C0530718F49A01BD01EF01DF01F801DBCFAA
S11350D021153105F9F0281B390B2430310580F4F2
S11350E08A819B816115710521F0FB019383828381
S11350F004C090936F0580936E05FE01329644C000
S1135100FE01E20FF31F81939193225031093983F9
S113511028833AC020916C0530916D05232B41F40E
S1135120209102013091030130936D0520936C05A9
S113513020910001309101012115310541F42DB771
S11351403EB74091040150910501241B350BE091B9
S11351506C05F0916D05E217F307A0F42E1B3F0BCD
S11351602817390778F0AC014E5F5F4F24173507D5
S113517048F04E0F5F1F50936D0540936C0581936B
S1135180919302C0E0E0F0E0CF01DF91CF911F9155
S11351900F910895CF93DF93009709F481C0FC0128
S11351A0329713821282A0916E05B0916F05109709
S11351B081F420813181820F931F20916C053091FD
S11351C06D052817390751F5F0936D05E0936C05CB
S11351D067C0ED0120E030E0CE17DF0740F44A81DC
S11351E05B819E0141155105F1F0EA01F5CFD383AE
S11351F0C28340815181840F951FC817D90759F480
S113520088819981840F951F0296918380838A8176
S11352109B81938382832115310529F4F0936F05D3
S1135220E0936E053DC0E901FB83EA8349915991FE
S1135230C40FD51FEC17FD0761F480819181840FA1
S1135240951F0296E90199838883828193819B83C8
S11352508A83E0E0F0E012968D919C911397009779
S113526019F0FD01DC01F7CF8D919C9111979D01FF
S11352702E5F3F4F820F931F20916C0530916D0577
S11352802817390769F4309729F410926F051092A2
S11352906E0502C013821282B0936D05A0936C0553
S11352A0DF91CF910895FC0188279927E8942191F3
S11352B02032E9F3293010F02E30C8F32B3241F0BC
S11352C02D3239F4689404C00E94D629820F911DAE
S11352D0219120532A30C0F31EF4909581959F4F5D
S11352E008951F93FC0199278827BC01E894119124
S11352F01032E9F3193010F01E30C8F31B3251F0AC
S11353001D3249F4689406C00E94C129610F711DC1
S1135310811D911D119110531A30B0F33EF49095F4
S11353208095709561957F4F8F4F9F4F1F91089582
S11353309111089581568A5108F480528558089530
S1135340FB01DC010D900020E9F7119701900D920B
S11353500020E1F70895FB01DC0101900D9200208B
S1135360E1F70895FB01DC014150504048F0019001
S11353700D920020C9F701C01D9241505040E0F742
S11353800895592F482F372F262F660F771F881F10
S1135390991F660F771F881F991F620F731F841F41
S11353A0951F660F771F881F991F08957AE0979FAE
S11353B0902D879F802D910D11240895AEE0B0E0CB
S11353C0E4EEF9E20C94E72C0D891E8986E08C83C7
S11353D01A8309838FEF9FE79E838D83AE01475E17
S11353E05F4F6F89788DCE0101960E94002AEF816C
S11353F0F885E00FF11F10822E96E4E00C94032D43
S1135400ABE0B0E0E6E0FAE20C94D92C6C017B014D
S11354108A01FC0117821682838181FFCCC1CE01EF
S113542001963C01F6019381F70193FD859193FF69
S113543081917F01882309F4BAC1853239F493FD3F
S1135440859193FF81917F01853229F4B60190E023
S11354500E94F72BE7CF912C212C312CFFE1F3157F
S1135460D8F08B3279F038F4803279F08332A1F4B9
S1135470232D20611DC08D3261F0803369F4232D0A
S1135480216016C0832D8260382EE32DE4603E2E09
S11354902AC0F32DF8601DC037FC2DC020ED280F65
S11354A02A3040F08E32B9F436FC81C1232D2064B9
S11354B0322E19C036FE06C08AE0989E200D1124B3
S11354C0922E11C0EAE02E9E200D1124222EF32DDF
S11354D0F0623F2E08C08C3621F4832D8068382E6C
S11354E002C0883641F4F70193FD859193FF8191C1
S11354F07F018111B3CF982F9F7D9554933028F469
S11355000C5F1F4F9FE399830DC0833631F08337BF
S113551071F0833509F059C021C0F8018081898375
S11355200E5F1F4F88248394912C530113C02801CC
S1135530F2E04F0E511CF801A080B18036FE03C08A
S1135540692D70E002C06FEF7FEFC5010E94EC2B64
S11355504C018201F32DFF773F2E16C0280122E073
S1135560420E511CF801A080B18036FE03C0692DA3
S113557070E002C06FEF7FEFC5010E94E12B4C0188
S1135580F32DF0683F2E820133FC1BC0822D90E086
S113559088169906B0F4B60180E290E00E94F72BD9
S11355A02A94F4CFF50137FC859137FE81915F0190
S11355B0B60190E00E94F72B21102A9421E0821A70
S11355C091088114910471F7E8C0843611F089368A
S11355D041F5F80137FE07C06081718182819381B2
S11355E00C5F1F4F08C060817181072E000C880B6F
S11355F0990B0E5F1F4FF32DFF763F2E97FF09C0C7
S113560090958095709561957F4F8F4F9F4FF0686F
S11356103F2E2AE030E0A3010E94332C882E861806
S113562045C0853731F4232D2F7EB22E2AE030E099
S113563025C0932D997FB92E8F36C1F018F4883583
S113564079F0B5C0803719F0883721F0B0C0E92F60
S1135650E061BE2EB4FE0DC0FB2DF460BF2E09C068
S113566034FE0AC0292F2660B22E06C028E030E09E
S113567005C020E130E002C020E132E0F801B7FECD
S113568007C060817181828193810C5F1F4F06C0C6
S11356906081718180E090E00E5F1F4FA3010E9442
S11356A0332C882E8618FB2DFF773F2E36FE0DC037
S11356B0232D2E7FA22E891458F434FE0BC032FC05
S11356C009C0832D8E7EA82E05C0B82CA32C03C040
S11356D0B82C01C0B92CA4FE0FC0FE01E80DF11DC9
S11356E08081803321F49A2D997EA92E09C0A2FECF
S11356F006C0B394B39404C08A2D867809F0B39499
S1135700A3FC11C0A0FE06C0B21488F4280C922C8D
S11357109B180EC0B21460F4B60180E290E00E94BF
S1135720F72BB394F7CFB21418F42B1802C0982CAB
S1135730212CA4FE10C0B60180E390E00E94F72B58
S1135740A2FE17C0A1FC03C088E790E002C088E570
S113575090E0B6010CC08A2D867859F0A1FE02C0F3
S11357608BE201C080E2A7FC8DE2B60190E00E94CA
S1135770F72B891438F4B60180E390E00E94F72BEC
S11357809A94F7CF8A94F301E80DF11D8081B60154
S113579090E00E94F72B8110F5CF222009F442CE2D
S11357A0B60180E290E00E94F72B2A94F6CFF6012E
S11357B08681978102C08FEF9FEF2B96E2E10C94D4
S11357C0F52CFC010590615070400110D8F78095CC
S11357D090958E0F9F1F0895FC01615070400190B9
S11357E00110D8F7809590958E0F9F1F08950F9301
S11357F01F93CF93DF93FB01238121FD03C08FEF20
S11358009FEF2CC022FF16C0468157812481358129
S11358104217530744F4A081B1819D012F5F3F4F8C
S1135820318320838C93268137812F5F3F4F3783C9
S1135830268314C08B01EC01FB010084F185E02D6B
S11358400995892BE1F6D80116968D919C911797AD
S1135850019617969C938E931697CE01DF91CF9164
S11358601F910F910895FA01AA27283051F1203190
S113587081F1E8946F936E7F6E5F7F4F8F4F9F4FE0
S1135880AF4FB1E03ED0B4E03CD0670F781F891F22
S11358909A1FA11D680F791F8A1F911DA11D6A0FF0
S11358A0711D811D911DA11D20D009F468943F91A3
S11358B02AE0269F11243019305D3193DEF6CF01A2
S11358C00895462F4770405D4193B3E00FD0C9F768
S11358D0F6CF462F4F70405D4A3318F0495D31FDD5
S11358E04052419302D0A9F7EACFB4E0A695979528
S11358F0879577956795BA95C9F7009761057105FE
S113590008959B01AC010A2E069457954795379547
S11359102795BA95C9F7620F731F841F951FA01DA1
S11359200895F999FECF92BD81BDF89A992780B563
S11359300895A6E1B0E044E050E00C94CB2CA8E13B
S1135940B0E042E050E00C94CB2C262FF999FECF26
S113595092BD81BDF89A019700B4021639F01FBABE
S113596020BD0FB6F894FA9AF99A0FBE08950396DB
S1135970272F0E94A62C0E94A52C252F0E94A62C1E
S1135980242F0C94A62C0196272F0E94A62C0C944D
S1135990A52CDC01CB01FC01F999FECF06C0F2BDB8
S11359A0E1BDF89A319600B40D9241505040B8F7D9
S11359B008952F923F924F925F926F927F928F92AF
S11359C09F92AF92BF92CF92DF92EF92FF920F938A
S11359D01F93CF93DF93CDB7DEB7CA1BDB0B0FB694
S11359E0F894DEBF0FBECDBF09942A883988488851
S11359F05F846E847D848C849B84AA84B984C884E7
S1135A00DF80EE80FD800C811B81AA81B981CE0FDD
S1135A10D11D0FB6F894DEBF0FBECDBFED010895C2
S1135A2010E0C5EFD0E004C0FE010E9403282196D7
S10D5A30C63FD107C9F7F894FFCF71
S1135A3A000070052000010101000A000163000151
S1135A4AFFFF64003C92FF08140101003C000100BE
S1135A5A0120013E20000A0053796E63204F4B0A4D
S1135A6A3E20004576656E742072756E6E696E67A7
S1135A7A2E2E2E0A002564207972732000256420B4
S1135A8A6461797320002564206872732000256498
S1135A9A206D696E2000256420736563004F4E00F3
S1135AAA4F464600466F783D25750A004C45443AF0
S1135ABA25730A005354413A25730A00496E20702B
S1135ACA726F67726573730A005374617274732018
S1135ADA696E3A20004C617374733A200054696DFC
S1135AEA652052656D61696E696E673A20004944A2
S1135AFA3A25730A0049443A2025642077706D0ACE
S1135B0A00554E49582054696D653A256C750A004A
S1135B1A53746172743A256C750A0046696E697326
S1135B2A683A256C750A00433D25640A00542043EB
S1135B3A616C3D2025640A00543D25640A004572BF
S1135B4A7220310A0045727220320A0045727220AC
S1135B5A330A00525443204F4B0A00204142434423
S1135B6A45464748494A4B4C4D4E4F50515253545F
S1135B7A55565758595A3C2F303132333435363703
S1135B8A38393132334134353642373839432A3099
S1135B9A234400402E440080404400005544004001
S1135BAA6B44002097440000A74400A0B844002096
S1135BBACC444D4F2000004D4F4520004D4F492005
S1135BCA004D4F5320004D4F4820004D4F352000C3
S1135BDA0000000000350000000053000000004DE2
S1135BEA450000004D490000004D530000004D4897
S1135BFA0000004D350000004F450000004F4900E9
S1135C0A00004F530000004F480000004F350000C9
S1055C1A000084
S9030000FC
