:100000000C9458020C9480020C9480020C94800290
:100010000C94D3130C9480020C94350B0C94800236
:100020000C945A0E0C9480020C9480020C94C6100E
:100030000C9480020C9480020C948D100C9480021D
:100040000C9480020C9480020C94710C0C940D0E94
:100050000C9480020C94670C0C9480020C94800227
:100060000C9480020C948002AD02B802C302CE024E
:10007000D902E402EF02FA02050310031B03720324
:100080007203260331033C03470352035D036803F5
:100090007D038103850389038D03910395039A03EF
:1000A0009E03B703B703A203A603AB03AF03B303D7
:1000B000C803CE03D403DA03E003E603EC03F20340
:1000C000F803FE030404270427040A04100416049A
:1000D0001C042204D905AB05DC05AE05B105B40549
:1000E000B705BA05BD05C005C30580118011801193
:1000F00080118011001200129E119E119E119E11FE
:100100009E11C011C011C011C011C0110012E01128
:100110002515E91415152D1519152D15F914E514C6
:10012000F114F5142D150915DD140D15D914ED1460
:10013000B114B514B914BD14C114C514C914CD1427
:10014000D114D514FD140115291505152D15E1142B
:100150001D1531154D145114551459145D146114A5
:10016000651469146D147114751479147D14811457
:10017000851489148D149114951499149D14A11447
:10018000A514A914AD142D152D152D152D1511150A
:100190002D152D152D152D152D152D152D152D154F
:1001A0002D152D152D152D152D152D152D152D153F
:1001B0002D152D152D152D152D152D152D152D152F
:1001C0002D152D152D152D15211505A84CCDB2D4A5
:1001D0004EB93836A9020C50B9918688083CA6AAB7
:1001E000AA2ABE000000803F5375636365737321C4
:1001F00020454550524F4D20686173206265656E01
:100200002070726F6772616D6D65642E2050726F21
:100210006772616D20697320646F6E652E0A526586
:10022000666C617368207769746820236465666909
:100230006E6520494E49545F454550524F4D5F4FC2
:100240004E4C592046414C53450A004572723A20A3
:1002500054696D6520696E2070617374210A0045D0
:1002600072723A20496E76616C69642074696D65BA
:10027000210A004572723A20537461727420696ECB
:100280002070617374210A004572723A2046696ECB
:1002900069736820696E2070617374210A00457269
:1002A000723A2046696E697368206265666F72658E
:1002B000207374617274210A004944205B226361D7
:1002C0006C6C7369676E225D203C2D205365742031
:1002D00063616C6C7369676E0A00434C4B20462067
:1002E00059594D4D444468686D6D7373203C2D2001
:1002F0005365742066696E6973682074696D650A58
:1003000000434C4B20532059594D4D444468686D6F
:100310006D7373203C2D2053657420737461727467
:100320002074696D650A00434C4B20542059594D87
:100330004D444468686D6D7373203C2D2053657483
:100340002063757272656E742074696D650A000AA7
:10035000436F6D6D616E64733A0A2020434C4B20ED
:100360005B547C537C46205B2259594D4D44446874
:10037000686D6D7373225D5D202D20526561642F61
:100380007365742074696D652F73746172742F6660
:10039000696E6973682F6F66667365740A202046FC
:1003A0004F58205B666F785D2D2053657420666F13
:1003B0007820726F6C650A20204944205B63616C71
:1003C0006C7369676E5D202D202053657420636116
:1003D0006C6C7369676E0A202053594E20302D33A0
:1003E000202D2053796E6368726F6E697A650A20DA
:1003F00020505744205B7077645D202D2053657436
:100400002044544D462070617373776F72640A20E4
:1004100020414D205B302D365D202D20536574200A
:10042000414D20746F6E65206672657175656E63EF
:10043000790A2020555449202D2052656164207688
:100440006F6C747320262074656D700A20205345EC
:100450005420537C50205B73657474696E675D2013
:100460002D2053657420494420636F6465207370A8
:10047000656564206F7220505454207265736574F2
:10048000002A2A2A2041726475636F6E20466F78B5
:1004900020436F6E74726F6C6C6572205665722E9D
:1004A00020312E302E31202A2A2A0A0035143A14FF
:1004B00011241FBECFEFD8E0DEBFCDBF12E0A0E019
:1004C000B1E0EAE6F8E302C005900D92A437B10767
:1004D000D9F724E0A4E7B2E001C01D92A837B20723
:1004E000E1F712E0C7E5D2E004C02197FE010E94C7
:1004F000D518C635D107C9F70E94950B0C94281C56
:100500000C940000623021F40E948F02845E0895F2
:10051000683008F06F5F61708EE1860F08959C016E
:1005200023703327232B59F464E670E00E9480186F
:10053000892B39F46370772781E0672B19F080E00D
:10054000089581E0089590E08431910508F0CAC0D3
:10055000FC01EC5CFF4F0C94D518613011F4509AFB
:1005600008955098633011F4589A08955898089552
:10057000613011F4519A08955198633011F4599AE9
:10058000089559980895613011F4529A0895529837
:10059000633011F45A9A08955A980895613011F40D
:1005A000539A08955398633011F45B9A08955B98B9
:1005B0000895613011F4549A08955498633011F4F9
:1005C0005C9A08955C980895613011F4559A0895E5
:1005D0005598633011F45D9A08955D9808956130DF
:1005E00011F4569A08955698633011F45E9A08955E
:1005F0005E980895613011F4579A089557986330C2
:1006000011F45F9A08955F980895613011F4209A6B
:1006100008952098633011F4289A08952898089531
:10062000613011F4219A08952198633011F4299AC8
:10063000089529980895613011F4229A0895229816
:10064000633011F42A9A08952A980895613011F4BC
:10065000259A08952598633011F45D9A08955D9860
:100660000895613011F4389A08953898633011F480
:10067000409A089540980895613011F4399A089588
:100680003998633011F4419A089541980895613082
:1006900011F43A9A08953A98633011F4429A089501
:1006A00042980895613011F43B9A08953B98633065
:1006B00011F4439A089543980895613011F43C9AD7
:1006C00008953C98633011F4449A0895449808952D
:1006D000613011F43D9A08953D98633011F4459AC4
:1006E00008954598089590E0FC013297E031F105B6
:1006F000F0F5E85BFF4F0C94D51829B1247030E079
:1007000038C029B1287030E034C029B1207130E000
:1007100030C029B1207230E02CC029B1207430E003
:1007200028C029B1207830E024C083B1282F21705F
:1007300030E01FC023B1227030E01BC023B1247011
:1007400030E017C023B1207230E013C086B1282FEB
:10075000217030E00EC026B1227030E00AC026B110
:10076000247030E006C026B1287030E002C020E0DE
:1007700030E081E0232B09F480E0089590E082319D
:10078000910508F064C0FC01E85AFF4F0C94D5189D
:10079000662311F0589A089558980895662311F029
:1007A000599A089559980895662311F05A9A089510
:1007B0005A980895662311F05B9A08955B980895FE
:1007C000662311F05C9A08955C980895662311F0F1
:1007D0005D9A08955D980895662311F05E9A0895D4
:1007E0005E980895662311F05F9A08955F980895C2
:1007F000662311F0289A089528980895662311F029
:10080000299A089529980895662311F02A9A08953F
:100810002A980895662311F02D9A08952D98089529
:10082000662311F0409A089540980895662311F0C8
:10083000419A089541980895662311F0429A0895C7
:1008400042980895662311F0439A089543980895B5
:10085000982F9695969596959E71292F220F220F87
:10086000920F8F70890F0895CF92DF92EF92FF92CF
:10087000CF93DF93EC01EE81FF818981C8800C2C3E
:10088000000CDD089CE38902C00CD11C11240D2C46
:10089000000CEE08FF08AA810A2E000CBB0B20E119
:1008A0003EE00E94EA18C60ED71EE81EF91EA88573
:1008B000B98520E831E541E050E00E94FC18C60E01
:1008C000D71EE81EF91EDF01A654B10920E833E364
:1008D00041EE51E00E94FC18C60ED71EE81EF91E1C
:1008E000CF0185549109DC010AF41396B595A795BB
:1008F000B595A79520E831E541E050E00E94FC184D
:10090000C60ED71EE81EF91ECF01019764E670E0FF
:100910000E948018DB0120E83EEA4EEF5FEF0E9464
:10092000FC18C60ED71EE81EF91ECF01855D9E4F2E
:1009300060E971E00E948018DB0120E831E541E0C8
:1009400050E00E94FC186C0D7D1D8E1D9F1DDF91D7
:10095000CF91FF90EF90DF90CF900895AF92BF922C
:10096000CF92DF92EF92FF920F931F93CF93DF937B
:10097000CDB7DEB763970FB6F894DEBF0FBECDBF1D
:100980007C01FE01319687E0DF011D928A95E9F72F
:100990001AE003C0115009F463C027E0AE014F5FB5
:1009A0005F4F60E080ED0E940B09082F8111F2CFAC
:1009B00064C05595479555954795559547955595D7
:1009C00047955595479540FD82E0880FA82EAA0CC3
:1009D000AA0C8A0DA82EA20E8F810E942804C82E70
:1009E000D12CC6018C599F4F9F878E87B0E3CB1ABD
:1009F000B8EFDB0A8E810E942804B82E8FEF8B0D92
:100A00008D878D810E9428048B87E1E0EB1570F4BF
:100A100011E0612FC6010E94820228893989280FBE
:100A2000311D398B288B1F5FB112F3CF8B85082EB8
:100A3000000C990B019728893989820F931F998B94
:100A4000888B89810E942804182F8A810E9428049B
:100A5000AA8689871887CE0108960E94340403C0AD
:100A600060E070E0CB01E114F10441F121E00111FB
:100A700001C020E0D7012C9321C0FE0138968CE004
:100A8000DF011D928A95E9F72B81422F50E0CA01C0
:100A9000959587959595879595958795959587953E
:100AA00081702F70BA01062E672F000C661F770B1E
:100AB000000C661F771F60FF7CCF87CF63960FB651
:100AC000F894DEBF0FBECDBFDF91CF911F910F9184
:100AD000FF90EF90DF90CF90BF90AF9008951F935D
:100AE000CF93DF931F92CDB7DEB7811102C084E0B0
:100AF00001C080E089831AE002C0115051F021E06A
:100B0000AE014F5F5F4F6EE080ED0E94A80881113B
:100B1000F4CF91E0811101C090E0892F0F90DF9117
:100B2000CF911F91089508950895EF92FF920F932A
:100B30001F93CF93C62F0E942F0B882309F446C022
:100B40008C2F90E08B30910508F040C0FC01E659F5
:100B5000FF4F0C94D51881EB90E030C08BE092E011
:100B60002DC081E392E02AC088E592E027C089E7A2
:100B700092E024C084E992E021C08AEA92E01EC09B
:100B80008FEB92E01BC083ED92E018C08701CC236D
:100B9000E9F08C2F0E94ED0A78018FEFE81AF80A2D
:100BA000C8010E94CE1BC82F0E94280A8111FCCFC9
:100BB000EDCF86E890E002C083EE91E08C010F5FFC
:100BC0001F4F0E94CE1BC82F8111E3CFCF911F91E1
:100BD0000F91FF90EF9008950F931F93CF93DF93A2
:100BE000EB010E942F0B8823C1F02097B1F08E01FA
:100BF0000F5F1F4FFE01C491CC2379F004C00F5F3B
:100C00001F4FCC2351F08C2F0E94ED0AF801C491A4
:100C10000E94280A8111FCCFF2CFDF91CF911F9162
:100C20000F910895CF93DF93EC0160E00E9495054A
:100C300068EE71E0CE010E94EC05DF91CF9108953E
:100C4000CF92DF92EF92FF920F931F93CF93DF9398
:100C500084E1809307016091070185E293E00E949F
:100C6000D61B81E0809362046091620486E293E087
:100C70000E94D61B10924C0460914C0487E293E0D2
:100C80000E94D61B8AE491E09093050180930401B1
:100C900060910401709105018AE790E00E94EC1BCD
:100CA0000E942F081092540410925504109256047A
:100CB0001092570440915404509155046091560489
:100CC000709157048EE790E00E94E41B109250044C
:100CD0001092510410925204109253044091500407
:100CE00050915104609152047091530482E890E055
:100CF0000E94E41B10924F0460914F0488E293E03D
:100D00000E94D61B10924E0460914E0489E293E03B
:100D10000E94D61B1092180460E087EE92E00E94B9
:100D2000D61B03E111E00F2EF2E3EF2EF4E0FF2ECD
:100D3000F02DCCE1D3E00F2EF7E1CF2EF1E0DF2E46
:100D4000F02DF80161918F01F70161937F01CE01D0
:100D50000E94D61B2196C016D10699F760E080E26A
:100D600093E00E94D61B1092360402E010E0C0E02F
:100D7000D0E00F2EF8EECF2EF3E0DF2EE12CF12C99
:100D8000F02DCC9F9001CD9F300D300D1124A5E2A8
:100D9000B0E00E94DB18A70196010E94B618622FEE
:100DA000C8010E94D61B21960E5F1F4FCC33D10580
:100DB00041F7C8E0D0E0BE0180E090E00E94DD167F
:100DC00029E334EB48E45EE30E946B170E94D817D6
:100DD00023E333E343EB5FE30E9442160E94E017F4
:100DE00020E030E040EB50E40E946B170E94AE160A
:100DF000CE018C509D4F0E94D61B2196C832D10542
:100E0000D1F6C1E8D4E006E810E00F2EFBEAEF2EA1
:100E1000F4E0FF2EF02DFE016491C8010E94D61B64
:100E200021960F5F1F4FEC16FD06A9F760E080EBDF
:100E300090E00E94D61BCFE4D3E001EB10E00F2E30
:100E4000F0E8EF2EF4E0FF2EF02DFE016491C801D2
:100E50000E94D61B21960F5F1F4FEC16FD06A9F7C7
:100E600060E082EE91E00E94D61BC9EBD2E008E57B
:100E700012E00F2EF9EDEF2EF2E0FF2EF02DFE0125
:100E80006491C8010E94D61B21960F5F1F4FEC167C
:100E9000FD06A9F760E088E792E00E94D61BC7E252
:100EA000D3E003EE11E00F2EFEE4EF2EF3E0FF2E71
:100EB000F02DFE016491C8010E94D61B21960F5FA0
:100EC0001F4FEC16FD06A9F760E08AE092E00E9451
:100ED000D61BC1E0D3E00BE012E00F2EF6E2EF2EBE
:100EE000F3E0FF2EF02DFE016491C8010E94D61B95
:100EF00021960F5F1F4FEC16FD06A9F760E080E317
:100F000092E00E94D61BCAEDD2E001E312E00F2E60
:100F1000F0E0EF2EF3E0FF2EF02DFE016491C8010A
:100F20000E94D61B21960F5F1F4FEC16FD06A9F7F6
:100F300060E087E592E00E94D61BC8E8D2E004E9B1
:100F400012E00F2EFDE9EF2EF2E0FF2EF02DFE0154
:100F50006491C8010E94D61B21960F5F1F4FEC16AB
:100F6000FD06A9F760E089EA92E00E94D61BC3E77C
:100F7000D2E00AEA12E00F2EF7E8EF2EF2E0FF2EA1
:100F8000F02DFE016491C8010E94D61B21960F5FCF
:100F90001F4FEC16FD06A9F760E08EEB92E00E9471
:100FA000D61BCEE9D2E009E712E00F2EF8EBEF2EC8
:100FB000F2E0FF2EF02DFE016491C8010E94D61BC5
:100FC00021960F5F1F4FEC16FD06A9F760E083E93D
:100FD00092E00E94D61BCFE5D2E00FEB12E00F2E7D
:100FE000F2E7EF2EF2E0FF2EF02DFE016491C80132
:100FF0000E94D61B21960F5F1F4FEC16FD06A9F726
:1010000060E082ED92E00E94D61BCBE4D2E003EDDB
:1010100012E00F2EFEE5EF2EF2E0FF2EF02DFE0186
:101020006491C8010E94D61B21960F5F1F4FEC16DA
:10103000FD06A9F760E086EE92E00E94D61B6BEBFE
:1010400070E080E090E00E94EC1B80E0DF91CF91A7
:101050001F910F91FF90EF90DF90CF900895E4E6FD
:10106000F0E080818F7780831092B90085E28093D1
:10107000B80084E08093BC0081E080930001089573
:1010800084EA8093BC00ECEBF0E08081882364F07C
:10109000809100018111F9CF07C080E98093BC00E5
:1010A00081E0809300010895809100018823A9F3D5
:1010B00080E0089584E98093BC0008958093BB008C
:1010C00084E88093BC00ECEBF0E08081882364F03E
:1010D000809100018111F9CF07C084E98093BC00A1
:1010E00081E08093000108958091B900887F861384
:1010F000F4CF80E0089584EC8093BC00ECEBF0E04A
:101100008081882324F0809100018111F9CF8091A2
:10111000BB00089584E88093BC00ECEBF0E0808194
:10112000882324F0809100018111F9CF8091BB00C8
:1011300008952091B900287F30E090E02817390702
:1011400029F084E98093BC0081E0089580E008954F
:10115000CF93DF9300D000D000D0CDB7DEB78A8325
:101160006B835D834C832E8319820E94400888E044
:101170000E949908982F81E0992309F480E0882340
:1011800011F081E03FC068E18A810E945E08982FDB
:1011900081E0992309F480E0882311F081E032C0D6
:1011A00068E28B810E945E08982F81E0992309F400
:1011B00080E0882311F081E025C08E819FEF980F99
:1011C0009E8391E0882309F490E09923C1F08981FE
:1011D00091E0980F9983882F90E02C813D81820FB8
:1011E000931FFC01808168E20E945E08982F81E0D5
:1011F000992309F480E0882301F381E003C00E9471
:101200005A0880E026960FB6F894DEBF0FBECDBF19
:10121000DF91CF9108950F931F93CF93DF9300D069
:1012200000D000D0CDB7DEB78A836B835D834C835B
:101230002E8319820E94400888E00E949908982F06
:1012400081E0992309F480E0882311F081E079C0DE
:1012500068E18A810E945E08982F81E0992309F451
:1012600080E0882311F081E06CC068E28B810E94ED
:101270005E08982F81E0992309F480E0882311F01B
:1012800081E05FC00E94400880E10E949908982F89
:1012900081E0992309F480E0882311F081E051C0B6
:1012A0008A81816060E40E945E08982F81E0992322
:1012B00009F480E0882311F081E043C08E819FEF24
:1012C000980F9E8391E0882309F490E09923B1F16F
:1012D0008E818823D9F0898191E0980F9983882F96
:1012E00090E02C813D818901080F191F0E947B0825
:1012F000F801808380E50E949908982F81E0992366
:1013000009F480E08823D1F281E01BC08981882F15
:1013100090E02C813D818901080F191F0E948A08E5
:10132000F801808388E50E949908982F81E099232D
:1013300009F480E0882311F281E003C00E945A087A
:1013400080E026960FB6F894DEBF0FBECDBFDF91CA
:10135000CF911F910F9108958091760293E059E209
:10136000282F30E0529FF001539FF00D1124EB50D5
:10137000FD4F408141110CC0915029F08F5F8330A7
:1013800078F380E0EDCF8093760280E090E00895DE
:101390008093760249E2429FC001439F900D112441
:1013A0008B509D4F08958091750293E059E2282F4C
:1013B00030E0529FF001539FF00D1124EB50FD4F90
:1013C0004081442361F0915029F08F5F833078F39E
:1013D00080E0EDCF8093750280E090E008958093E7
:1013E000750249E2429FC001439F900D11248B502A
:1013F0009D4F089580917402282F30E09FE3899FCC
:10140000F0011124E958FD4F41815281452BA9F08B
:101410008F5F823008F080E0282F30E09FE3899FC3
:10142000F0011124E958FD4F41815281452B29F0EB
:101430008093740280E090E00895809374024FE3FB
:10144000429FC001439F900D112489589D4F0895DC
:101450008091700308959091700381E0911180E074
:10146000911108C091E090937003E1ECF0E090815D
:1014700090629083089580917003882339F0E1ECA5
:10148000F0E080818F7D80831092700308950F9328
:101490001F938B019C018EE7E7E7F2E0DF011D92CD
:1014A0008A95E9F7E5EFF2E0108211A61092470362
:1014B000D901C80180589B47A14EBF4F880F991F83
:1014C000AA1FBB1F880F991FAA1FBB1FBC01CD01FC
:1014D000660F771F881F991F000F111F221F331FD0
:1014E000000F111F221F331FA9019801220F331F64
:1014F000441F551F220F331F441F551F0E9494186D
:10150000215031093093C5002093C40088E98093AD
:10151000C1008EE08093C200109201011F910F91D3
:10152000089581E0809301011092C1000E943B0A5E
:101530008EE7E7E7F2E0DF011D928A95E9F7E5EF34
:10154000F2E0108211A61092470308950F931F93A3
:10155000CF93DF9320910101211114C00097A1F0D6
:101560008C010E94D3090097B9F4C8ECD0E002C006
:10157000209761F090917003992351F02097D1F05A
:101580002197F8CF81E01BC081E019C081E017C02E
:101590000E94D309009761F31F930F939F938F933A
:1015A0000E941B190E942B0A0F900F900F900F9012
:1015B00080E005C00E94D309009771F781E0DF91B8
:1015C000CF911F910F91089580910101811104C065
:1015D00080E791E00E94A60A08959091010191117F
:1015E00007C0E1E7F3E080831182CF010E94A60AE1
:1015F0000895CF9320910101211128C0009741F156
:10160000FC012081222331F101900020E9F731977C
:10161000E81BF90BBA9700F5C62FBC0149E250E070
:1016200081E793E00E940C19CC2359F081E793E005
:101630000E94A60A8111FACF809170038111FCCF1C
:101640000CC081E793E00E94A60A07C081E005C0B4
:1016500081E003C081E001C081E0CF9108959091C5
:10166000010181E0911180E008951F920F920FB661
:101670000F9211248F93EF93FF93109200018091AA
:101680002D04811105C080910301811109C00EC094
:1016900080910301882351F081508093030106C09B
:1016A000E0E6F0E0808180648083F2CFFF91EF91EB
:1016B0008F910F900FBE0F901F901895A89504B6AC
:1016C00003FE03C094B7987094BF833061F484B76D
:1016D000877F84BFE0E6F0E08081886180831082AC
:1016E00010922D040895813041F4E0E6F0E09081FD
:1016F0009861908398E6908311C0811108C0E0E65C
:10170000F0E090819861908396E4908307C0E0E6D2
:10171000F0E090819861908398E4908391E081114A
:1017200001C090E090932D04089563E081E10E9450
:10173000A30261E080E10E94A30260E080E10E94D8
:10174000BE0361E086E00E94A30260E086E00E94A2
:10175000BE0361E085E00E94A30260E085E00E9494
:10176000BE0361E084E00E94A30260E084E00E9486
:10177000BE0360E084E10E94A30260E085E10E9474
:10178000A30261E087E00E94A30261E087E00E947B
:10179000BE0363E083E10E94A30263E082E10E9452
:1017A000A30263E082E00E94A3020E94910A61E02A
:1017B00083E00E94A30260E083E00E94BE0361E038
:1017C0008EE00E94A30260E08EE00E94BE0361E012
:1017D0008FE00E94A30260E08FE00E94BE0384B10C
:1017E0008F6384B985B1807C85B98BE694E00E94D3
:1017F0002006C82FF894A0EBB0E01C92E1EBF0E0DB
:1018000010828C9182608C938081876080838CE0D1
:101810008093B3001092B400E6EBF0E080818F7DFE
:101820008083E0E7F0E01082808184608083109202
:101830008000E1E8F0E010821092850010928400B0
:1018400080818860808380818160808314BC84B5BE
:10185000826084BD15BC85B5846085BD8FE287BD7F
:1018600010926E0010926D00ECE6F0E0108288E0BD
:101870008083E8E6F0E0108282E0808380914C046F
:10188000789460E071EE80E090E00E94470A80E08A
:101890000E945E0BA89581E10E94730391E0811183
:1018A00090E090932F0481E00E946F05CC2331F0EB
:1018B00061E082E791E00E94F90A04C08BE694E0BF
:1018C0000E94120661E080E10E94BE03FFCF1F92DA
:1018D0000F920FB60F9211240F900FBE0F901F9012
:1018E00018951F920F920FB60F9211241F932F93EA
:1018F0003F934F935F936F937F938F939F93AF9398
:10190000BF93CF93DF93EF93FF931091C600C091E5
:10191000F403D091F503209751F40E94FA09EC01E9
:101920009093F5038093F403892B09F462C1812F0E
:1019300090E00E9404199C018091F303882321F018
:1019400081508093F30355C12B3121F482E08093C1
:10195000F3034FC12D3009F03FC08091B2038823BB
:1019600031F1E091F203EE23F9F082E08883809177
:10197000B0039091B1039A8389838091AF03882348
:1019800079F090E001974091AE0354E1589F9001A7
:10199000599F300D1124C20FD31FC40FD11D1B82BC
:1019A000F0E0ED54FC4F10820E94E40A04C08FEF77
:1019B0009FE79A8389831092F2031092AE031092EC
:1019C000B1031092B0031092AF031092F50310927E
:1019D000F4031092B2030DC1222309F40AC1E0916D
:1019E000F2034E2F50E0DA01AD54BC4F2C93EE239E
:1019F00009F4D6C02F3709F05FC0E150E093F2033D
:101A00008091AF03811113C0F0E0ED54FC4F408191
:101A10008091B0039091B103841B91096AE070E05A
:101A20000E9480187093B1036093B00339C0909105
:101A3000AE03992391F04FEF490F4093AE0390E02E
:101A4000019754E1589FB001599F700D1124C60FA2
:101A5000D71FC40FD11D1B8223C0F0E0ED54FC4FF3
:101A600090819032A1F481508093AF03DE0194E124
:101A7000899FA00DB11D11241396FD010190002036
:101A8000E9F73197EA1BFB0BE093AE0309C094E141
:101A9000899FC00DD11D11241B8281508093AF03FB
:101AA0008091F203E82FF0E0ED54FC4F1082811199
:101AB00093C01092B20390C0203279F5FA01EE542F
:101AC000FC4F8081803209F494C08091AF03682F6D
:101AD00070E0FB01319633970CF08BC0882379F0CE
:101AE000615071099091AE03A4E1A69FF001A79FF8
:101AF000F00D1124CE0FDF1FC90FD11D1B828F5F88
:101B00008093AF031092AE034F5F5F4F4E3351058A
:101B10000CF04EE34093F2035FC08091AE0384313A
:101B200008F067C04091AF03411119C04091B00364
:101B30005091B103BA01660F771F440F551F440F30
:101B4000551F440F551F460F571F420F511D5093ED
:101B5000B1034093B0038F5F8093AE0316C050E093
:101B60004150510991E0980F9093AE03E4E1E49F56
:101B7000B001E59F700D1124C60FD71FFE01E80FBD
:101B8000F11D2383C90FD11D1B828091F20390E0C8
:101B900001968E3391050CF08EE38093F2031CC006
:101BA0002F3741F48091B0039091B10318161906B4
:101BB000BCF01BC02032E9F01092AF03C901992795
:101BC0009093B1038093B0031B821F8A1BA681E010
:101BD0008093B2038093F203822F0E94ED0A09C022
:101BE0001092B1031092B003F7CF1092B10310928C
:101BF000B003FF91EF91DF91CF91BF91AF919F9192
:101C00008F917F916F915F914F913F912F911F9194
:101C10000F900FBE0F901F9018951F920F920FB646
:101C20000F9211242F933F934F935F936F937F9362
:101C30008F939F93AF93BF93EF93FF938091AC03E8
:101C40009091AD03892B31F40E94AC099093AD03C0
:101C50008093AC03E091AC03F091AD038091AB03B2
:101C6000DF01A80FB11D9C91992331F08F5F809304
:101C7000AB039093C6000DC01092AB0310820E947C
:101C8000AC099093AD038093AC03892B11F40E94AF
:101C90003B0AFF91EF91BF91AF919F918F917F91FF
:101CA0006F915F914F913F912F910F900FBE0F90C9
:101CB0001F9018951F920F920FB60F9211241F9329
:101CC0002F933F934F935F936F937F938F939F9344
:101CD000AF93BF93EF93FF93CF93DF9300D0CDB734
:101CE000DEB78091FF0390910004A0910104B091B0
:101CF00002040196A11DB11D8093FF03909300047F
:101D0000A0930104B093020480915D0490915E045D
:101D1000892B49F080915D0490915E040197909326
:101D20005E0480935D0480910A0190910B01892BE0
:101D300049F080910A0190910B01019790930B015A
:101D400080930A018091FB039091FC03892B49F059
:101D50008091FB039091FC0301979093FC03809387
:101D6000FB0380913B04882381F08091FD039091D7
:101D7000FE0301969093FE038093FD0384E995E0B2
:101D80009093FC038093FB0304C01092FE03109217
:101D9000FD038091F7039091F803A091F903B091AE
:101DA000FA03892B8A2B8B2B99F08091F703909162
:101DB000F803A091F903B091FA030197A109B109C1
:101DC0008093F7039093F803A093F903B093FA0379
:101DD00081E089831A8281E10E947303182F809128
:101DE0002F04882309F45CC1112309F45CC158C194
:101DF00061E080E10E94BE031BC08091630490916A
:101E00006404A0916504B09166040597A105B1052D
:101E100079F486E090E0A0E0B0E0809363049093D2
:101E20006404A0936504B093660481E080932E045B
:101E300080910201181328C080913D0490913E04C6
:101E40008B3B90414CF480913D0490913E0401966F
:101E500090933E0480933D0480913D0490913E0414
:101E600080399105BCF0113009F42BC182E08093D8
:101E70003C0411110FC080912F0481110BC061E04F
:101E800080E10E94BE0306C01093020110923E043E
:101E900010923D0480910E01811117C1809161045F
:101EA000882309F412C18091A9039091AA03892B78
:101EB00009F411C10AC161E084E00E94BE0384E913
:101EC00095E09093A8038093A70311C18091A70385
:101ED0009091A803009731F001979093A803809305
:101EE000A70305C18091A5039091A6030097F1F186
:101EF00001979093A6038093A503892B09F0F7C05F
:101F0000AE014E5F5F4FBE016F5F7F4F80E090E09C
:101F10000E9435158093A4038981811114C08A81A0
:101F2000882389F01092A40381E0809310018091AE
:101F30004004882341F01092610484E995E0909375
:101F4000AA038093A9036091A40380E10E94BE03C9
:101F50006091A40386E00E94BE038091A403809355
:101F60004D049FE297BD80933F04C1C080913C0423
:101F7000823029F06091A40380E10E94BE03609149
:101F8000A40386E00E94BE038091A40380934D04C5
:101F90009FE297BD80933F0480915F04909160041D
:101FA0009093A6038093A503A2C08091A70390916C
:101FB000A803009739F484E690E09093A8038093F7
:101FC000A7031CC001979093A8038093A703892BB4
:101FD000A9F460E084E00E94BE0310C08091A903D0
:101FE0009091AA03009751F001979093AA038093D0
:101FF000A903892B19F481E08093610480915C042A
:102000008823A9F18091FB039091FC03892BE9F5CA
:102010008091A5039091A603009701F101979093F9
:10202000A6038093A503892B81F5AE014E5F5F4F18
:10203000BE016F5F7F4F80E090E00E943515809376
:10204000A403682F80E10E94BE0380915F049091F9
:1020500060049093A6038093A50317C080915F044A
:10206000909160049093A6038093A5030EC0809185
:10207000A403882351F01092A40380913C04823081
:1020800021F060E080E10E94BE0360E086E00E94F3
:10209000BE0310924D048FE287BD10923F0427C00B
:1020A00010922F04C5CE8091630490916404A09196
:1020B0006504B09166040597A105B1050CF09DCEAD
:1020C00097CE81E080933C04E5CE84E00E947303C8
:1020D00081116BCF83CF87E29BE090930B018093BC
:1020E0000A0184E00E9473038111F0CEE4CE0F90C8
:1020F0000F90DF91CF91FF91EF91BF91AF919F91A1
:102100008F917F916F915F914F913F912F911F918F
:102110000F900FBE0F901F9018951F920F920FB641
:102120000F9211242F933F934F935F936F937F935D
:102130008F939F93AF93BF93EF93FF9380910F0182
:10214000811113C061E08091A303811160E060936D
:10215000A30380913F04882321F085E00E94BE0301
:1021600004C060E085E00E94BE03FF91EF91BF9143
:10217000AF919F918F917F916F915F914F913F911F
:102180002F910F900FBE0F901F9018951F920F92D6
:102190000FB60F9211240F900FBE0F901F9018953D
:1021A0008091500490915104A0915204B091530435
:1021B00081159646AE4EBF4508F467C08091540421
:1021C00090915504A0915604B091570481159646FC
:1021D000AE4EBF4508F45BC08091580490915904FD
:1021E000A0915A04B0915B0481159646AE4EBF454E
:1021F00008F44FC040915004509151046091520432
:10220000709153048091540490915504A091560408
:10221000B091570484179507A607B707E0F54091DA
:1022200058045091590460915A0470915B04809154
:10223000500490915104A0915204B091530484171A
:102240009507A607B70748F14091580450915904E3
:1022500060915A0470915B048091540490915504EC
:10226000A0915604B091570484179507A607B707A5
:1022700030F480910E01811112C085E008958091A3
:102280003004882371F081E0089582E0089582E0AF
:10229000089582E0089582E0089582E0089583E041
:1022A000089584E008950F931F93CF93DF9300D098
:1022B000CDB7DEB7162F009731F0FC018081823157
:1022C00011F08093620480E090E00E94AE0460937D
:1022D00058047093590480935A0490935B041092AD
:1022E0004004F894E09162048E2F90E0FC01319755
:1022F000E331F10508F084C0EB58FF4F0C94D5187A
:102300008CE390E090934B0480934A048CE291E03C
:10231000909349048093480425E030E030934704CB
:1023200020934604109245041092440428E0209320
:102330000601909343048093420490C08CE090E0A7
:1023400090934B0480934A048CE390E0909349046B
:102350008093480485E090E090934704809346047E
:1023600088E08093060187E090E090934504809395
:10237000440488E592E090934304809342046EC045
:102380008CE090E090934B0480934A042CE330E07F
:10239000309349042093480425E030E0309347040B
:1023A000209346042FE020930601909345048093E8
:1023B000440488E592E090934304809342044EC025
:1023C0008EE190E090934B0480934A048CE390E07C
:1023D000909349048093480422E030E0309347040E
:1023E0002093460428E02093060122E130E0309358
:1023F00045042093440490934304809342042EC0E8
:1024000080914E048093400481E090E090934704D3
:102410008093460488E08093060180914E048111E8
:1024200003C088E592E002C08CE390E090934304FF
:1024300080934204809142049091430490934B0412
:1024400080934A04109245041092440480914204FF
:10245000909143049093490480934804111106C05D
:102460001092300481E080930E01FDC0113099F488
:1024700081E090E090930D0180930C01109267042D
:10248000109268041092690410926A041092300449
:1024900010920E01E8C01230B9F5809162042091CB
:1024A00044043091450490E0821B930B18161906E2
:1024B00014F081E090E090930D0180930C01209145
:1024C0000C0130910D0140914A0450914B04215070
:1024D0003109249FC001259F900D349F900D112438
:1024E000092E000CAA0BBB0B809367049093680421
:1024F000A0936904B0936A041092300410920E0104
:1025000081E080934104AFC0409154045091550440
:102510006091560470915704809158049091590429
:10252000A0915A04B0915B04481759076A077B07CA
:1025300008F069C08091580490915904A0915A0400
:10254000B0915B044091540450915504609156043D
:1025500070915704841B950BA60BB70B80936704EF
:1025600090936804A0936904B0936A04609167042F
:10257000709168048091690490916A0420914804E4
:102580003091490400914A0410914B04032E000C31
:10259000440B550B0E94B6189801110F440B550BB4
:1025A0000E94B618BA01A9014F5F5F4F6F4F7F4F6E
:1025B00080914604909147049A83898389819A8106
:1025C000092E000CAA0BBB0B84179507A607B707AB
:1025D0003CF429813A81C901330FAA0BBB0B0BC014
:1025E000DB01CA01141615061606170624F081E051
:1025F00090E0A0E0B0E090930D0180930C0183E0A7
:10260000809341042BC010926704109268041092CA
:10261000690410926A0481E090E090930D01809328
:102620000C018091580490915904A0915A04B091E2
:102630005B0440915404509155046091560470918C
:102640005704845D9E4FAF4FBF4F84179507A60771
:10265000B70720F460E087E00E94BE0381E080932A
:10266000300480930E018FE287BD10923F041092D8
:10267000600410925F04109261041092310460E0D3
:1026800080E10E94BE0360E086E00E94BE031092DB
:102690004D0410925C041092310478940F900F90C6
:1026A000DF91CF911F910F910895CF93C82F0E9472
:1026B000D010F894C1110EC0823031F460E080E097
:1026C00090E00E9453113EC063E080E090E00E94E1
:1026D000531138C0C230C9F4823031F461E080E077
:1026E00090E00E9453112EC0813019F08350823047
:1026F00030F461E080E090E00E94531123C063E079
:1027000080E090E00E9453111DC0823031F461E0FE
:1027100080E090E00E94531115C0813031F462E0F6
:1027200080E090E00E9453110DC0843031F463E0EA
:1027300080E090E00E94531105C063E080E090E0EB
:102740000E94531110925C047894CF910895CF9316
:10275000C82F0E94D010F894C23031F460E080E0BD
:1027600090E00E94531115C0813031F462E080E0A6
:1027700090E00E94531108C0843031F460E080E0A2
:1027800090E00E94531105C060E080E090E00E945C
:10279000531180913C04823021F460E080E10E947A
:1027A000BE03CF9108951F920F920FB60F9211247E
:1027B0002F933F934F935F936F937F938F939F9349
:1027C000AF93BF93CF93EF93FF9381E10E94730385
:1027D000C82F10923E0410923D04882391F18091FD
:1027E000F60381112EC08091080190910901892B77
:1027F00001F180912E0481111EC080910E01882369
:1028000071F080913C048230B1F410923C0460E09D
:1028100080E10E94BE0381E00E9455130CC08091AC
:102820003C04823041F410923C0481E00E94A713E2
:1028300002C0109231048CE291E0909309018093E0
:102840000801C093F603FF91EF91CF91BF91AF9133
:102850009F918F917F916F915F914F913F912F91B8
:102860000F900FBE0F901F9018958BE694E00E947A
:10287000930508958BE694E00E949405089590E0F6
:102880000E940419FC01FF27B097ED35F10508F00F
:10289000E4C0E857FF4F0C94D51889E074E061E07C
:1028A00008958BE074E065E0089587E073E061E0EF
:1028B000089581E071E060E0089589E074E064E0EB
:1028C000089589E073E063E0089587E074E060E0D4
:1028D000089583E072E060E008958DE074E06EE0BA
:1028E000089589E073E065E0089589E074E062E0AE
:1028F000089587E072E063E0089585E072E061E0AA
:1029000008958BE073E067E008958BE074E066E083
:1029100008958DE074E06BE0089587E073E062E075
:10292000089585E073E060E0089583E071E061E080
:10293000089587E073E064E0089589E074E068E05A
:10294000089589E073E066E008958BE074E069E043
:1029500008958DE074E06DE008958BE074E063E02D
:10296000089583E175E06FE1089581E175E06EE11E
:1029700008958FE075E06CE108958DE075E068E101
:1029800008958BE075E060E1089589E075E060E00E
:1029900008958BE075E061E008958DE075E063E0F7
:1029A00008958FE075E067E0089581E175E06FE0DC
:1029B000089581E176E06AE2089583E176E063E3D9
:1029C00008958FE076E06CE0089583E176E06EE1B3
:1029D000089583E176E065E308958DE075E069E0B0
:1029E00008958FE075E06DE0089583E176E06DE293
:1029F00008958BE075E062E0089581E176E067E09C
:102A000008958CE076E065E108958DE075E061E180
:102A100008958DE075E06AE008958FE076E061E268
:102A2000089581E176E06CE208958FE076E062E15E
:102A3000089581E177E068E4089581E176E066E158
:102A4000089584E077E06FEF089587E077E06EEF18
:102A5000089583E175E06FE1089580E070E060E043
:102A6000089585E072E062E00895CF93DF93EA0174
:102A7000009709F441C0109277046115710521F0A7
:102A8000DB012C9120931201FC012081222331F1E2
:102A900040917504509176048417950709F4E9C0B4
:102AA000909376048093750480E280931101822FC5
:102AB0000E943F14609372047093730480937404B3
:102AC000109271041092700410926F0410926E04B0
:102AD00010926D0410926C0480E0D0C010927604C5
:102AE0001092750481E080936D04209709F088832B
:102AF00010926C0480E0C2C0E0917504F0917604FD
:102B0000309709F4AAC06115710521F08091120176
:102B1000DB018C9380916D04882349F0209709F4A0
:102B2000AAC081E088831092770480E0A7C08091DA
:102B30006F04882321F0815080936F047FC08091BF
:102B40006C04882381F08091770481110CC010926D
:102B50006C0480916E04882309F470C080936F0424
:102B600010926E046BC09091730480917004891769
:102B700090F1809171048F5F80937104DF01A80F41
:102B8000B11D8C9180931101811119C080911201A6
:102B9000882331F0808180931101109271040FC05D
:102BA000109276041092750410926C0491E0909348
:102BB0006D04209709F09883109277045FC080918C
:102BC00011010E943F146093720470937304809308
:102BD000740410927004209172042D3F00F540910E
:102BE000700431E0340F3093700481E090E002C053
:102BF000880F991F4A95E2F7822321F082E08093A3
:102C00006F0402C010926F0481E080936C04809185
:102C10007304381798F082E080936E040FC080919F
:102C200073049FEF9093700410926C04843020F032
:102C3000845080936F0402C010926F048091110140
:102C40008C3331F481E080937704209741F416C0EF
:102C500010927704209719F409C0209719F08091F9
:102C60006D04888380917704811107C080916C0482
:102C700005C080E003C080E001C081E0DF91CF911A
:102C800008955058BB27AA270E9459160C94311753
:102C90000E94231738F00E942A1720F039F49F3F32
:102CA00019F426F40C9420170EF4E095E7FB0C942D
:102CB0001A17E92F0E94421758F3BA1762077307D1
:102CC0008407950720F079F4A6F50C9464170EF4A8
:102CD000E0950B2EBA2FA02D0B01B90190010C012C
:102CE000CA01A0011124FF27591B99F0593F50F444
:102CF000503E68F11A16F040A22F232F342F44279C
:102D0000585FF3CF469537952795A795F040539593
:102D1000C9F77EF41F16BA0B620B730B840BBAF063
:102D20009150A1F0FF0FBB1F661F771F881FC2F7CE
:102D30000EC0BA0F621F731F841F48F487957795E2
:102D40006795B795F7959E3F08F0B0CF9395880F9C
:102D500008F09927EE0F9795879508950E944A17D6
:102D600088F09F5798F0B92F9927B751B0F0E1F04C
:102D7000660F771F881F991F1AF0BA95C9F714C0FC
:102D8000B13091F00E946417B1E008950C9464177B
:102D9000672F782F8827B85F39F0B93FCCF3869535
:102DA00077956795B395D9F73EF490958095709592
:102DB00061957F4F8F4F9F4F0895E89409C097FB0F
:102DC0003EF490958095709561957F4F8F4F9F4F02
:102DD0009923A9F0F92F96E9BB279395F695879546
:102DE00077956795B795F111F8CFFAF4BB0F11F409
:102DF00060FF1BC06F5F7F4F8F4F9F4F16C08823B0
:102E000011F096E911C0772321F09EE8872F762FE5
:102E100005C0662371F096E8862F70E060E02AF026
:102E20009A95660F771F881FDAF7880F9695879512
:102E300097F9089597F99F6780E870E060E008953A
:102E40009FEF80EC089500240A94161617061806C2
:102E50000906089500240A9412161306140605069E
:102E60000895092E0394000C11F4882352F0BB0F2F
:102E700040F4BF2B11F460FF04C06F5F7F4F8F4F92
:102E80009F4F089557FD9058440F551F59F05F3FCD
:102E900071F04795880F97FB991F61F09F3F79F07C
:102EA00087950895121613061406551FF2CF4695FE
:102EB000F1DF08C0161617061806991FF1CF869580
:102EC0007105610508940895E894BB276627772764
:102ED000CB0197F908950E947E170C9431170E9438
:102EE000231738F00E942A1720F0952311F00C9434
:102EF0001A170C94201711240C9465170E9442177E
:102F000070F3959FC1F3950F50E0551F629FF0013C
:102F1000729FBB27F00DB11D639FAA27F00DB11D55
:102F2000AA1F649F6627B00DA11D661F829F2227DE
:102F3000B00DA11D621F739FB00DA11D621F839F65
:102F4000A00D611D221F749F3327A00D611D231F3B
:102F5000849F600D211D822F762F6A2F11249F5789
:102F600050409AF0F1F088234AF0EE0FFF1FBB1F8C
:102F7000661F771F881F91505040A9F79E3F51054B
:102F800080F00C941A170C9465175F3FE4F3983E99
:102F9000D4F3869577956795B795F795E7959F5FF5
:102FA000C1F7FE2B880F911D9695879597F9089587
:102FB0009F930E94F4170F9007FCEE5F0C941D186E
:102FC0009B01AC010C946B179F3F31F0915020F4A2
:102FD000879577956795B795880F911D96958795F5
:102FE00097F908950C9420170E944A17D8F3E89493
:102FF000E0E0BB279F57F0F02AED3FE049EC06C028
:10300000EE0FBB0F661F771F881F28F0B23A6207CA
:103010007307840728F0B25A620B730B840BE39595
:103020009A9572F7803830F49A95BB0F661F771F18
:10303000881FD2F790480C94E617EF93E0FF07C083
:10304000A2EA2AED3FE049EC5FEB0E9459160E948C
:1030500031170F90039401FC9058EAECF1E00C94C6
:1030600031189F938F937F936F93FF93EF939B01FF
:10307000AC010E946B17EF91FF910E9445182F91B0
:103080003F914F915F910C946B17DF93CF931F93F8
:103090000F93FF92EF92DF927B018C01689406C040
:1030A000DA2EEF010E947E17FE01E894A59125918A
:1030B000359145915591A6F3EF010E945916FE01F5
:1030C0009701A801DA9469F7DF90EF90FF900F91D4
:1030D0001F91CF91DF910895AA1BBB1B51E107C03F
:1030E000AA1FBB1FA617B70710F0A61BB70B881F98
:1030F000991F5A95A9F780959095BC01CD01089527
:1031000097FB072E16F4009407D077FD09D00E9494
:103110006C1807FC05D03EF4909581959F4F08955B
:10312000709561957F4F0895A1E21A2EAA1BBB1BD3
:10313000FD010DC0AA1FBB1FEE1FFF1FA217B30783
:10314000E407F50720F0A21BB30BE40BF50B661F99
:10315000771F881F991F1A9469F76095709580955D
:1031600090959B01AC01BD01CF010895052E97FB01
:103170001EF400940E94CD1857FD07D00E949418A9
:1031800007FC03D04EF40C94CD1850954095309523
:1031900021953F4F4F4F5F4F0895909580957095C3
:1031A00061957F4F8F4F9F4F0895EE0FFF1F059042
:1031B000F491E02D0994A29FB001B39FC001A39F99
:1031C000700D811D1124911DB29F700D811D112460
:1031D000911D08950E94DB18B7FF0895821B930B81
:1031E00008950E94DB18A59F900DB49F900DA49F99
:1031F000800D911D11240895B7FF0C94F1180E94C1
:10320000F118821B930B08959111089581568A51EC
:1032100008F4805285580895FB01DC01415050406C
:1032200048F001900D920020C9F701C01D92415055
:103230005040E0F70895AEE0B0E0E1E2F9E10C942F
:10324000FF1B0D891E8986E08C831A8309838FEF0B
:103250009FE79E838D83AE01475E5F4F6F89788DB8
:10326000CE0101960E943D19EF81F885E00FF11F14
:1032700010822E96E4E00C941B1CABE0B0E0E3E47B
:10328000F9E10C94F11B6C017B018A01FC011782AE
:103290001682838181FFCCC1CE0101963C01F601EB
:1032A0009381F70193FD859193FF81917F0188239D
:1032B00009F4BAC1853239F493FD859193FF819168
:1032C0007F01853229F4B60190E00E94341BE7CFDC
:1032D000912C212C312CFFE1F315D8F08B3279F0B1
:1032E00038F4803279F08332A1F4232D20611DC09F
:1032F0008D3261F0803369F4232D216016C0832D57
:103300008260382EE32DE4603E2E2AC0F32DF86053
:103310001DC037FC2DC020ED280F2A3040F08E3222
:10332000B9F436FC81C1232D2064322E19C036FE3B
:1033300006C08AE0989E200D1124922E11C0EAE06A
:103340002E9E200D1124222EF32DF0623F2E08C058
:103350008C3621F4832D8068382E02C0883641F4E3
:10336000F70193FD859193FF81917F018111B3CF87
:10337000982F9F7D9554933028F40C5F1F4F9FE347
:1033800099830DC0833631F0833771F0833509F0AE
:1033900059C021C0F801808189830E5F1F4F8824A6
:1033A0008394912C530113C02801F2E04F0E511C5D
:1033B000F801A080B18036FE03C0692D70E002C024
:1033C0006FEF7FEFC5010E94291B4C018201F32D95
:1033D000FF773F2E16C0280122E0420E511CF80153
:1033E000A080B18036FE03C0692D70E002C06FEF8F
:1033F0007FEFC5010E941E1B4C01F32DF0683F2E8C
:10340000820133FC1BC0822D90E088169906B0F42F
:10341000B60180E290E00E94341B2A94F4CFF501BB
:1034200037FC859137FE81915F01B60190E00E94E3
:10343000341B21102A9421E0821A910881149104EE
:1034400071F7E8C0843611F0893641F5F80137FE8E
:1034500007C060817181828193810C5F1F4F08C01A
:1034600060817181072E000C880B990B0E5F1F4F36
:10347000F32DFF763F2E97FF09C0909580957095AC
:1034800061957F4F8F4F9F4FF0683F2E2AE030E0CD
:10349000A3010E94701B882E861845C0853731F421
:1034A000232D2F7EB22E2AE030E025C0932D997F68
:1034B000B92E8F36C1F018F4883579F0B5C0803751
:1034C00019F0883721F0B0C0E92FE061BE2EB4FEBC
:1034D0000DC0FB2DF460BF2E09C034FE0AC0292F99
:1034E0002660B22E06C028E030E005C020E130E0C2
:1034F00002C020E132E0F801B7FE07C060817181AF
:10350000828193810C5F1F4F06C06081718180E0D2
:1035100090E00E5F1F4FA3010E94701B882E86183B
:10352000FB2DFF773F2E36FE0DC0232D2E7FA22EC2
:10353000891458F434FE0BC032FC09C0832D8E7EF2
:10354000A82E05C0B82CA32C03C0B82C01C0B92CE0
:10355000A4FE0FC0FE01E80DF11D8081803321F42F
:103560009A2D997EA92E09C0A2FE06C0B394B394E9
:1035700004C08A2D867809F0B394A3FC11C0A0FE84
:1035800006C0B21488F4280C922C9B180EC0B214FA
:1035900060F4B60180E290E00E94341BB394F7CF50
:1035A000B21418F42B1802C0982C212CA4FE10C0C1
:1035B000B60180E390E00E94341BA2FE17C0A1FC7C
:1035C00003C088E790E002C088E590E0B6010CC037
:1035D0008A2D867859F0A1FE02C08BE201C080E2FC
:1035E000A7FC8DE2B60190E00E94341B891438F4E8
:1035F000B60180E390E00E94341B9A94F7CF8A943E
:10360000F301E80DF11D8081B60190E00E94341BAA
:103610008110F5CF222009F442CEB60180E290E07D
:103620000E94341B2A94F6CFF6018681978102C04E
:103630008FEF9FEF2B96E2E10C940D1CFC0105909F
:10364000615070400110D8F7809590958E0F9F1FA4
:103650000895FC016150704001900110D8F78095E9
:1036600090958E0F9F1F08950F931F93CF93DF9315
:10367000FB01238121FD03C08FEF9FEF2CC022FFB0
:1036800016C046815781248135814217530744F47F
:10369000A081B1819D012F5F3F4F318320838C93A7
:1036A000268137812F5F3F4F3783268314C08B01DC
:1036B000EC01FB010084F185E02D0995892BE1F6F1
:1036C000D80116968D919C911797019617969C9309
:1036D0008E931697CE01DF91CF911F910F91089590
:1036E000FA01AA27283051F1203181F1E8946F9333
:1036F0006E7F6E5F7F4F8F4F9F4FAF4FB1E03ED0D9
:10370000B4E03CD0670F781F891F9A1FA11D680F76
:10371000791F8A1F911DA11D6A0F711D811D911DA9
:10372000A11D20D009F468943F912AE0269F11241E
:103730003019305D3193DEF6CF010895462F477082
:10374000405D4193B3E00FD0C9F7F6CF462F4F70DD
:10375000405D4A3318F0495D31FD4052419302D03B
:10376000A9F7EACFB4E0A6959795879577956795E1
:10377000BA95C9F700976105710508959B01AC01E1
:103780000A2E06945795479537952795BA95C9F708
:10379000620F731F841F951FA01D0895F999FECF16
:1037A00092BD81BDF89A992780B50895262FF99981
:1037B000FECF1FBA92BD81BD20BD0FB6F894FA9A14
:1037C000F99A0FBE01960895242F0E94D71B252F2A
:1037D0000E94D71B0C94EC1B0E94D61B272F0C9425
:1037E000D71B2F923F924F925F926F927F928F9250
:1037F0009F92AF92BF92CF92DF92EF92FF920F9380
:103800001F93CF93DF93CDB7DEB7CA1BDB0B0FB689
:10381000F894DEBF0FBECDBF09942A883988488846
:103820005F846E847D848C849B84AA84B984C884DC
:10383000DF80EE80FD800C811B81AA81B981CE0FD3
:10384000D11D0FB6F894DEBF0FBECDBFED010895B8
:1038500012E0C7E5D2E004C0FE010E94D51821960F
:0A386000C835D107C9F7F894FFCF6F
:10386A000101010A4A0108142C01270B0100010178
:10387A00012001313335370043533D25640A0046A0
:10388A00583D25640A00414D3D25640A0054433DD4
:10389A0025750A0052564F3D25750A0053453D25A8
:1038AA006C750A0046453D256C750A00554F3D2545
:1038BA00640A0050543D25640A0049443D22257398
:1038CA00220A0050573D222573220A0054004D0057
:1038DA000A00454550524F4D204572617365204597
:1038EA0072726F72210A004576656E742072756E67
:1038FA006E696E672E2E2E0A002564207972732057
:10390A00002564206461797320002564206872733D
:10391A0020002564206D696E20002564207365638C
:10392A0000496E2070726F67726573730A00537470
:10393A006172747320696E3A200054696D65205271
:10394A00656D61696E696E673A20004C61737473C4
:10395A003A2000466F783D25750A00414D3A2564A4
:10396A000A006572720A0049443A25730A004944FA
:10397A003A2025642077706D0A004452503A256433
:10398A000A005057443D25730A0054696D653A256B
:10399A006C750A0045706F63683A256C750A0053A6
:1039AA00746172743A256C750A0046696E697368A7
:1039BA003A256C750A00542043616C3D2025640A3F
:1039CA0000543D2564430A00563D25642E253032B5
:0439DA0064560A0025
:00000001FF
