S00F000041726475636F6E2E7372656349
S11300000C9466010C948E010C948E010C948E0158
S11300100C948E010C94E9070C948E010C948E01BF
S11300200C94260A0C948E010C948E010C94AF0B44
S11300300C948E010C948E010C94C50C0C948E01BE
S11300400C948E010C948E010C9419080C94D9090B
S11300500C948E010C94B1070C948E010C948E01B7
S11300600C948E010C948E019B01A601B101BC017C
S1130070C701D2013E02DD013E023E023E02E8011A
S1130080F30100020D021A022702340249024D0252
S11300905102550259025D0277026102770277022A
S11300A07702620266026B026F02730289028F0298
S11300B095029B02A102A702D002AD02D002D00297
S11300C0D002B302B902BF02C502CB022916291617
S11300D029162916291629167C167C1647167C160D
S11300E07C167C167C167C167C167C167C164716B1
S11300F0471615161F16C5178917B517CD17B91743
S1130100CD179917851791179517CD17A9177D172F
S1130110AD1779178D175117551759175D176117B3
S1130120651769176D17711775179D17A117C917EB
S1130130A517CD178117BD17D117ED16F116F516B2
S1130140F916FD160117051709170D1711171517BD
S113015019171D172117251729172D1731173517AB
S113016039173D174117451749174D17CD17CD17A7
S1130170CD17CD17B117CD17CD17CD17CD17CD1777
S1130180CD17CD17CD17CD17CD17CD17CD17CD174B
S1130190CD17CD17CD17CD17CD17CD17CD17CD173B
S11301A0CD17CD17CD17CD17CD17CD17CD17C11737
S11301B005A84CCDB2D44EB93836A9020C50B99129
S11301C08688083CA6AAAA2ABE000000803F0040F8
S11301D07A10F35A00A0724E18090010A5D4E80052
S11301E000E87648170000E40B54020000CA9A3B6A
S11301F0000000E1F50500008096980000004042F0
S11302000F000000A086010000001027000000007D
S1130210E803000000006400000000000A00000081
S113022000000100000000002C76D888DC674F082D
S113023023DFC1DFAE59E1B1B796E5E3E453C63A33
S1130240E651997696E8E6C28426EB898C9B62EDAA
S1130250407C6FFCEFBC9C9F40F2BAA56FA5F49064
S1130260055A2AF75C936B6CF9676DC11BFCE0E4DB
S11302700D47FEF520E6B500D0ED902E0300943531
S113028077050080841E080000204E0A000000C884
S11302900C333333330F986E12831141EF8D2114D5
S11302A0893BE65516CFFEE6DB18D1844B381BF7A5
S11302B07C1D901DA4BBE424203284725E22810044
S11302C0C9F124ECA1E53D27CC16DD1611241FBE8F
S11302D0CFEFD8E0DEBFCDBF13E0A0E0B1E0EAE2AB
S11302E0F7E402C005900D92A435B107D9F725E0D3
S11302F0A4E5B3E001C01D92A537B207E1F711E010
S1130300C5E6D1E004C02197FE010E943E1CC4361C
S1130310D107C9F70E9450060C9488230C9400005E
S113032090E0FC013297E231F10508F0A7C0EC5CE3
S1130330FF4F0C943E1C613011F4529A0895529868
S1130340633011F45A9A08955A980895613011F45B
S1130350539A08955398633011F45B9A08955B9807
S11303600895613011F4549A08955498633011F447
S11303705C9A08955C980895613011F4559A089533
S11303805598633011F45D9A08955D98089561302D
S113039011F4569A08955698633011F45E9A0895AC
S11303A05E980895613011F4579A08955798633010
S11303B011F45F9A08955F980895613011F4219AB9
S11303C008952198633011F4599A0895599808951D
S11303D0613011F4259A08952598633011F45D9ADB
S11303E008955D980895613011F4389A0BC03898D7
S11303F0633019F4409A39980AC0409839980AC071
S1130400613011F4399A0BC03998633019F4419A68
S11304103A980AC041983A980AC0613011F43A9A5D
S11304200BC03A98633019F4429A3B980AC0429838
S11304303B980AC0613011F43B9A0BC03B9863307F
S113044019F4439A3C980AC043983C980AC0613016
S113045011F43C9A0BC03C98633019F4449A3D98CB
S11304600AC044983D9809C0613011F43D9A08953A
S11304703D98633011F4459A08954598089590E0A5
S1130480FC013297E031F10590F5EA5BFF4F0C94E3
S11304903E1C29B1247030E02CC029B1287030E012
S11304A028C029B1207130E024C029B1207230E085
S11304B020C029B1207430E01CC029B1207830E07C
S11304C018C083B123B1207230E013C086B1282F45
S11304D0217030E00EC026B1227030E00AC026B18F
S11304E0247030E006C026B1287030E002C020E05D
S11304F030E081E0232B09F480E0089590E0FC01D2
S11305003297E031F10508F04BC0EA5AFF4F0C94E2
S11305103E1C662311F05A9A08955A98089566234A
S113052011F05B9A08955B980895662311F05C9A24
S113053008955C980895662311F05D9A08955D9876
S11305400895662311F05E9A08955E9808956623CF
S113055011F05F9A08955F980895662311F0299A1F
S1130560089529980895662311F02D9A08952D98D9
S11305700895662311F0409A0895409808956623DB
S113058011F0419A089541980895662311F0429A12
S1130590089542980895662311F0439A0895439864
S11305A00895EF92FF920F931F93CF93DF93E42E5E
S11305B0F52ED62FC72F00936B0310936C03209353
S11305C06D0330936E0320E030E041E553E46E2D7B
S11305D07F2D8D2F9C2F0E941A1B18166CF020E083
S11305E030E048EC52E46E2D7F2D8D2F9C2F0E941D
S11305F07719882334F009C0E12CF12CD1E5C3E448
S113060004C0E12CF12CD8ECC2E46E2D7F2D8D2F8B
S11306109C2F0E94F3197093660360936503CB01CA
S1130620880F991F0E94731C909355038093540361
S1130630DF91CF911F910F91FF90EF9008958091DA
S11306405403909155030E940B1D08951092590371
S113065010925A0310925B0310925C0310925D0394
S113066010925E0310925F0310926003109256037F
S113067008958F929F92AF92BF92CF92DF92EF92A2
S1130680FF92CF93DF93EC014A015B016091650314
S113069070916603072E000C880B990B0E942B1A8D
S11306A06B017C018092670390926803A0926903B6
S11306B0B0926A03A50194010E941F1B20916B0351
S11306C030916C0340916D0350916E030E94811927
S11306D020E030E040E05FE30E940B190E94F31930
S11306E0072E000C880B990B0E942B1A2BED3FE070
S11306F049EC50E40E941F1BA70196010E94811936
S11307000E947C199B01AC010E940B196093610348
S1130710709362038093630390936403CE010E94F9
S11307202603DF91CF91FF90EF90DF90CF90BF90A1
S1130730AF909F908F9008958F929F92AF92BF92A7
S1130740CF92DF92EF92FF92CF93DF93EB01C090B1
S11307505D03D0905E03E0905F03F090600320910E
S11307606103309162034091630350916403C701B4
S1130770B6010E941F1B2091590330915A034091E6
S11307805B0350915C030E940A194B015C01BE019A
S11307907250072E000C880B990B0E942B1A9B0198
S11307A0AC01C501B4010E940B19C0925903D09247
S11307B05A03E0925B03F0925C0360935D037093D1
S11307C05E0380935F0390936003DF91CF91FF906A
S11307D0EF90DF90CF90BF90AF909F908F9008954F
S11307E080915603811127C0E0915703F09158037B
S11307F0EE0FFF1F8091540390915503E80FF91FEA
S1130800718360838091570390915803019690936C
S11308105803809357032091650330916603821730
S113082093073CF0109258031092570381E0809391
S113083056038091560308958091560308954F926C
S11308405F926F927F928F929F92AF92BF92CF925C
S1130850DF92EF92FF920F931F93CF93DF938C015C
S1130860809165039091660318161906C4F4C0E0DC
S1130870D0E0CE01880F991FE0915403F091550305
S1130880E80FF91F60817181C8010E949C032196C1
S11308908091650390916603C817D90754F380903B
S11308A05D0390905E03A0905F03B0906003C090DE
S11308B05903D0905A03E0905B03F0905C03A501C8
S11308C09401C501B4010E941F1B2B013C01A70127
S11308D09601C701B6010E941F1B9B01AC01C30115
S11308E0B2010E940B192B013C012091610330914C
S11308F062034091630350916403C501B4010E94F3
S11309001F1BA70196010E941F1B9B01AC01C30181
S1130910B2010E940A196B017C01C8010E942603DE
S1130920C701B601DF91CF911F910F91FF90EF9016
S1130930DF90CF90BF90AF909F908F907F906F90FB
S11309405F904F9008958091720394E059E2282FAC
S113095030E0529FF001539FF00D1124EB54FC4FF3
S1130960408141110CC0915029F08F5F843078F39D
S113097080E0EDCF8093720380E090E0089580934F
S1130980720349E2429FC001439F900D11248B548E
S11309909C4F08958091710394E059E2282F30E030
S11309A0529FF001539FF00D1124EB54FC4F4081F2
S11309B0442361F0915029F08F5F843078F380E014
S11309C0EDCF8093710380E090E0089580937103EC
S11309D049E2429FC001439F900D11248B549C4FC8
S11309E0089580917003282F30E091E2899FF001EF
S11309F01124ED58FC4F41815281452BA9F08F5FA2
S1130A00823008F080E0282F30E091E2899FF001E5
S1130A101124ED58FC4F41815281452B29F08093DC
S1130A20700380E090E008958093700341E2429F58
S1130A30C001439F900D11248D589C4F08958091BF
S1130A406F03282F30E091E2899FF0011124ED58C3
S1130A50FC4F41815281452BA9F48F5F823008F00D
S1130A6080E0282F30E091E2899FF0011124ED58B5
S1130A70FC4F41815281452B29F480936F0380E020
S1130A8090E0089580936F0341E2429FC001439F29
S1130A90900D11248D589C4F08959091590481E034
S1130AA0911180E0911108C091E090935904E1EC18
S1130AB0F0E0908190629083089580915904882396
S1130AC039F0E1ECF0E080818F7D8083109259044D
S1130AD008959B01AC0182E4E3E7F3E0DF011D929A
S1130AE08A95E9F7E5EBF3E0108211A6109207046A
S1130AF01092300460E472E48FE090E00E94FD1BE9
S1130B00215031093093C5002093C40088E98093B3
S1130B10C1008EE08093C2001092060108950F93E5
S1130B201F93CF93DF9320910601211114C00097E6
S1130B30A1F08C010E94CA040097B9F4C8ECD0E07B
S1130B4002C0209761F090915904992351F02097A5
S1130B50D1F02197F8CF81E01BC081E019C081E07A
S1130B6017C00E94CA04009761F31F930F939F93C9
S1130B708F930E94281E0E944D050F900F900F9096
S1130B800F9080E005C00E94CA04009771F781E0CD
S1130B90DF91CF911F910F91089585E892E00E9413
S1130BA08F058111FACF089588E892E00E948F059D
S1130BB00895EAE5F4E080831182CF010E948F0555
S1130BC00895CF93009719F1FC0101900020E9F7F3
S1130BD03197E81BF90BBA97E0F4C62FBC0149E240
S1130BE050E08AE594E00E94FC1DCC2359F08AE58C
S1130BF094E00E948F058111FACF809159048111EC
S1130C00FCCF08C08AE594E00E948F0503C081E010
S1130C1001C081E0CF9108950F931F93CF93DF9389
S1130C2080910601811137C08DEE91E09F938F93DF
S1130C3086EF91E09F938F938EEF91E09F938F9334
S1130C408AE594E09F938F930E94281E8DB79EB7E8
S1130C5008960FB6F8949EBF0FBE8DBF8AE594E048
S1130C600E948F058111FACF809159048111FCCF24
S1130C70C2E1D2E005E812E0CE010E948F058111A5
S1130C80FBCF809159048111FCCF6796C017D1071F
S1130C9099F70E94D405DF91CF911F910F91089588
S1130CA080E00E949D1361E08DE00E94900160E06D
S1130CB08DE00E947E0261E08AE00E94900160E083
S1130CC08AE00E947E0261E089E00E94900160E077
S1130CD089E00E947E0263E087E00E94900163E065
S1130CE088E00E94900163E08AE00E94900163E042
S1130CF08CE00E94900160E08EE00E94900163E02D
S1130D008FE00E94900163E080E10E94900163E023
S1130D1081E10E94900163E082E10E94900163E01E
S1130D2083E10E94900160E084E10E94900161E00F
S1130D308BE00E94900160E08BE00E947E02EAE773
S1130D40F0E0108210927B00ACE7B0E08C918660FA
S1130D508C938C9180648C938C9180628C93808131
S1130D6086608083808180628083808188608083C4
S1130D70808180688083808180648083A0EBB0E080
S1130D801C92E1EBF0E010828C9182608C93808164
S1130D90876080838CE08093B3001092B400E6EB0C
S1130DA0F0E080818F7D8083E0E7F0E01082808135
S1130DB08460808314BC84B5826084BD15BC85B511
S1130DC0846085BD8FE287BDEEE6F0E0108280810D
S1130DD082608083EDE6F0E0108288E08083E8E6BC
S1130DE0F0E0108284E08083789460E071EE80E02B
S1130DF090E00E94690560E087E291E00E94E105CD
S1130E0061E080E391E00E94E1058DEB94E09F9323
S1130E108F9380E491E09F938F93C1EED4E0DF93AE
S1130E20CF930E94281E61E0CE010E94E1058091CB
S1130E301001909111019F938F938AE491E09F9305
S1130E408F93DF93CF930E94281E61E0CE010E940E
S1130E50E1058091D4042DB73EB7245F3F4F0FB610
S1130E60F8943EBF0FBE2DBF811103C083E291E011
S1130E7002C080E291E09F938F9385E591E09F9378
S1130E808F9381EE94E09F938F930E94281E61E0DC
S1130E9081EE94E00E94E1058091D5040F900F90BB
S1130EA00F900F900F900F90811103C083E291E097
S1130EB002C080E291E09F938F9380E691E09F933C
S1130EC08F9381EE94E09F938F930E94281E61E09C
S1130ED081EE94E00E94E1058091D6040F900F907A
S1130EE00F900F900F900F90811103C083E291E057
S1130EF002C080E291E09F938F938BE691E09F93F1
S1130F008F93C1EED4E0DF93CF930E94281E61E05B
S1130F10CE010E94E1050FEF14E020E044E060E020
S1130F2074E284E799E40E94531CC8019F930F93D1
S1130F3086E791E09F938F93DF93CF930E94281EBF
S1130F4061E0CE010E94E1050E94CD058DB79EB7F8
S1130F500C960FB6F8949EBF0FBE8DBF0E94020D73
S1130F60FDCF1F920F920FB60F9211242F933F9330
S1130F704F935F936F937F938F939F93AF93BF939D
S1130F80EF93FF9361E08BE00E947E026091790011
S1130F9070E080EE94E00E94F003882329F0EAE7F1
S1130FA0F0E08081877F808360E08BE00E947E0296
S1130FB0FF91EF91BF91AF919F918F917F916F912D
S1130FC05F914F913F912F910F900FBE0F901F9003
S1130FD018951F920F920FB60F9211242F933F93DF
S1130FE04F935F936F937F938F939F93AF93BF932D
S1130FF0EF93FF9384E00E943F02882329F08091BD
S1131000A70481110E9425151092A6041092A5042C
S1131010FF91EF91BF91AF919F918F917F916F91CC
S11310205F914F913F912F910F900FBE0F901F90A2
S113103018951F920F920FB60F9211241F932F939E
S11310403F934F935F936F937F938F939F93AF934C
S1131050BF93CF93DF93EF93FF931091C600C0919A
S11310600C05D0910D05209751F40E94F104EC0178
S113107090930D0580930C05892B09F486C1812F6B
S113108090E00E94D91D9C0180910E05882321F0D7
S1131090815080930E0579C12B3121F482E0809335
S11310A00E0573C12D3009F044C0809131058823A9
S11310B059F1E0910F05EE2321F182E088838091BC
S11310C03205909133059A8389838091340588236E
S11310D0A1F090E0019720913505AC01440F551F14
S11310E0880F991F880F991F880F991F840F951FC8
S11310F0C80FD91FC20FD11D1B82F0E0E05FFA4F69
S113110010820E94D40504C08FEF9FE79A838983DD
S113111010920F0510923505109233051092320586
S11311201092340510920D0510920C0510923105A1
S11311302CC1222309F429C1E0910F054E2F50E060
S1131140DA01A05FBA4F2C93EE2309F4F5C02F37D0
S113115009F076C0E150E0930F05809134058111C8
S113116013C0F0E0E05FFA4F408180913205909126
S11311703305841B91096AE070E00E94E91B7093B7
S113118033056093320550C0909135059923B9F029
S11311904FEF490F4093350590E00197BC01660F6E
S11311A0771F880F991F880F991F880F991F860F23
S11311B0971FC80FD91FC40FD11D1B8235C0F0E083
S11311C0E05FFA4F90819032E1F4815080933405CE
S11311D090E0AC01440F551F880F991F880F991F89
S11311E0880F991F840F951F0396C80FD91FFE01FE
S11311F001900020E9F73197EC1BFD0BE0933505D6
S113120013C0482F50E0BA01660F771F440F551FD3
S1131210440F551F440F551F460F571FC40FD51FAA
S11312201B8281508093340580910F05E82FF0E0F4
S1131230E05FFA4F108281119BC01092310598C073
S1131240203299F5FA01E15FFA4F8081803209F486
S11312509CC060913405862F90E0FC013196339751
S11312600CF093C0662399F0019770913505FC0149
S1131270EE0FFF1F880F991F880F991F880F991F62
S11312808E0F9F1FC80FD91FC70FD11D1B826F5F01
S113129060933405109235054F5F5F4F403251051E
S11312A00CF040E240930F0563C0409135054A308D
S11312B008F06BC080913405811119C0809132050A
S11312C090913305BC01660F771F880F991F880F13
S11312D0991F880F991F860F971F820F911D909356
S11312E03305809332054F5F409335051AC090E073
S11312F0019751E0540F50933505BC01660F771FD9
S1131300880F991F880F991F880F991F860F971FA1
S1131310C80FD91FFE01E40FF11D2383C50FD11D92
S11313201B8280910F0590E00196803291050CF0AC
S113133080E280930F051CC02F3741F48091320561
S11313409091330518161906BCF01BC02032E9F041
S113135010923405C901992790933305809332057F
S11313601B821D861F8A81E08093310580930F05BF
S1131370822F0E94D90509C01092330510923205BC
S1131380F7CF1092330510923205FF91EF91DF9160
S1131390CF91BF91AF919F918F917F916F915F9109
S11313A04F913F912F911F910F900FBE0F901F905F
S11313B018951F920F920FB60F9211242F933F93FB
S11313C04F935F936F937F938F939F93AF93BF9349
S11313D0EF93FF938091360590913705892B31F473
S11313E00E94A3049093370580933605E091360557
S11313F0F091370580913805DF01A80FB11D9C914C
S1131400992331F08F5F809338059093C6000DC007
S11314101092380510820E94A3049093370580939C
S11314203605892B11F40E945D05FF91EF91BF9160
S1131430AF919F918F917F916F915F914F913F9168
S11314402F910F900FBE0F901F9018951F920F921F
S11314500FB60F9211242F933F934F935F936F9383
S11314607F938F939F93AF93BF93EF93FF93CF9308
S1131470DF9300D0CDB7DEB78091DC049091DD041A
S1131480A091DE04B091DF040196A11DB11D8093EB
S1131490DC049093DD04A093DE04B093DF0481E0C8
S11314A089831A8280910D01882319F184E00E94B6
S11314B03F0281111EC08091A5049091A6048B3B2C
S11314C090414CF48091A5049091A60401969093C8
S11314D0A6048093A5048091A5049091A60485395F
S11314E095403CF081E08093A70461E08DE00E9488
S11314F07E0220911401309115012C308EEF3807B3
S113150034F481E090E0909317018093160125361E
S1131510310534F08FEF9FEF9093170180931601FC
S11315208091160190911701820F931F90931501DA
S113153080931401992324F481E08093960402C0DB
S1131540109296048091D504882309F458C08091A0
S1131550A404909139059817B1F08091A404809364
S11315603905882349F01092180183E690E090939E
S11315703B0580933A0514C010923B0510923A053E
S113158087E29BE028C080913A0590913B05009743
S1131590E1F0019790933B0580933A05892B81F004
S11315A08091A404863030F08FE387BD81E080937E
S11315B0A30425C08FE187BD81E08093A3041FC0ED
S11315C08FE287BD1092A3041AC080913C059091CC
S11315D03D050097A1F0019790933D0580933C054C
S11315E0892B41F48FE287BD1092A30481E080939C
S11315F0180105C08FE487BD81E08093A304809126
S1131600910490919204181619060CF06DC0809103
S11316103E0590913F05009709F444C001979093CB
S11316203F0580933E05892B09F084C0AE014E5FCF
S11316305F4FBE016F5F7F4F80E090E00E94D5173F
S1131640809340059981911111C09A81992371F079
S11316501092400581E080939504809118018823BD
S113166009F468C080E00E94DE0F17C0882381F06F
S113167080910B05811104C061E08DE00E947E021F
S11316808091D604882321F061E08AE00E947E02E2
S113169080911801882309F44DC0809140050E946F
S11316A0DE0F48C080910B05811104C08091A7040E
S11316B08823D1F18091D604882329F060914005D4
S11316C08AE00E947E028091930490919404909306
S11316D03F0580933E0580911801882359F180913C
S11316E040050E94DE0F26C08091910490919204DF
S11316F0892B01F580914005882371F010924005F3
S11317008091A704811104C060E08DE00E947E02F4
S113171060E08AE00E947E0280911801882351F0E3
S113172080E00E94DE0F06C0609140058DE00E94BB
S11317307E02C0CF0F900F90DF91CF91FF91EF9178
S1131740BF91AF919F918F917F916F915F914F91D5
S11317503F912F910F900FBE0F901F9018951F92DD
S11317600F920FB60F9211242F933F934F935F93D1
S11317706F937F938F939F93AF93BF93EF93FF9355
S113178080918C0490918D04A0918E04B0918F046B
S1131790892B8A2B8B2B81F48091A0049091A10436
S11317A0909342058093410581E090E09093080175
S11317B0809307011092A40480918C0490918D046D
S11317C0A0918E04B0918F040196A11DB11D809348
S11317D08C0490938D04A0938E04B0938F04809115
S11317E0990490919A04019690939A048093990491
S11317F08091410590914205009729F001979093BB
S113180042058093410580919B0490919C04892B0F
S113181009F455C060918C0470918D0480918E04FC
S113182090918F042091970430919804032E000C1A
S1131830440B550B0E941F1C672B682B692B09F462
S113184060C03DC081E090E090930801809307015F
S113185080910D018823A1F0EDE6F0E08081877F7F
S11318608083E8E6F0E080818B7F808360E084E021
S11318700E94900161E084E00E94900110920D01A9
S113188081E080930B0560E08DE00E947E0281E0A0
S113189080939D0410929A041092990480914105BA
S11318A090914205892B59F48091A0049091A10450
S11318B0909342058093410581E08093A204809136
S11318C0D5048823A1F180918C0490918D04A0917A
S11318D08E04B0918F042091090130910A01BC015A
S11318E0CD01655F7F4F8F4F9F4F032E000C440B3C
S11318F0550B0E941F1C6B30710581059105D4F0B6
S113190016C08091070190910801019690930801F7
S113191080930701209107013091080180919B0475
S113192090919C04821793070CF48CCFB0CF109243
S1131930A4041AC080918C0490918D04A0918E040B
S1131940B0918F042091090130910A01BC01CD01AD
S1131950655F7F4F8F4F9F4F032E000C440B550B39
S11319600E941F1C6093A404FF91EF91BF91AF915B
S11319709F918F917F916F915F914F913F912F91A3
S11319800F900FBE0F901F9018951F920F920FB6D5
S11319900F9211242F933F934F935F936F937F93F1
S11319A08F939F93AF93BF93EF93FF9380914305DE
S11319B091E0811190E0909343059091A3049923C1
S11319C061F0811105C061E089E00E947E0209C0D6
S11319D060E089E00E947E0204C060E089E00E9429
S11319E07E02FF91EF91BF91AF919F918F917F9173
S11319F06F915F914F913F912F910F900FBE0F9078
S1131A001F9018952F923F924F925F926F927F9200
S1131A108F929F92AF92BF92CF92DF92EF92FF92FA
S1131A200F931F93CF93DF931F92CDB7DEB70E941E
S1131A30F10F8091910490919204892B29F0809167
S1131A404405882309F4ECC0109244058091900465
S1131A50863091F48091070190910801BC01660FD2
S1131A60771F680F791F660F771F66577D4F88EAC7
S1131A7094E00E94EC1D27C080919004833199F476
S1131A8080910701909108010896BC01660F771FA9
S1131A90680F791F660F771F66577D4F88EA94E0B9
S1131AA00E94EC1D10C08091900490E0BC01660F70
S1131AB0771F680F791F660F771F66577D4F88EA77
S1131AC094E00E94EC1D80919004863009F180918D
S1131AD090048331E9F0809190048823C9F08091C7
S1131AE090048730A9F080919004883089F0209187
S1131AF09004409107015091080180919E049091B7
S1131B009F0430E0840F951F2817390709F072C02D
S1131B1081E0898360910F0170E082E89BE10E947B
S1131B20E91BCB016AE070E00E94E91B660F771F96
S1131B30709394046093930440E050E0BE016F5F9F
S1131B407F4F88EA94E00E94D5178091A204811106
S1131B500BC02091A0043091A1048091970490912E
S1131B609804821793073CF100919704109198040C
S1131B7060910E0170E08DEB94E00E94D3188C50BC
S1131B809E4F9C0136952795369527953695279532
S1131B90A5ECB0E20E94441C929582958F7089272F
S1131BA09F708927081B190B10931A0100931901C0
S1131BB01092A2040AC080919704909198048D59C0
S1131BC09F4F90931A018093190110921B0181E099
S1131BD090E0909392048093910410929504109253
S1131BE09D04809107019091080190930C018093CA
S1131BF00B01B6C180910B058111B2C1809196048D
S1131C00882349F08091A7048111AAC160E08DE086
S1131C100E947E02A5C161E08DE00E947E02A0C107
S1131C2080911B01811178C12091990430919A040B
S1131C308091190190911A012817390709F06CC194
S1131C4049C180919004843108F46CC109C0109298
S1131C509D04109292041092910481E080934405B3
S1131C6080919004863021F080919004833149F46E
S1131C7080919504882369F180919D04811157C155
S1131C8028C080919004882341F08091900487308B
S1131C9021F080919004883049F480919504882340
S1131CA009F45EC181E0809344055AC18091900497
S1131CB0893008F445C180919004833108F040C113
S1131CC080919504811137C13BC1809195048111A4
S1131CD043C180EE94E00E941C04882309F45AC195
S1131CE00F2EFCE0AF2EF3E0BF2EF02D00E010E04D
S1131CF088248A94982C712C612C512C412CF50148
S1131D0041915191619171915F0180EE94E00E9443
S1131D10390380EE94E00E941F04E62EF72ED82E9D
S1131D20C92E272D362D452D542D0E941A1B181609
S1131D30B4F420E034E244E759E46E2D7F2D8D2D78
S1131D409C2D0E941A1B181634F448017E2C6F2C0B
S1131D505D2C4C2C04C07E2C6F2C5D2C4C2C0F5F06
S1131D601F4F0430110559F602C1F50141915191FB
S1131D70619171915F0180EE94E00E94390380EEDD
S1131D8094E00E941F04E62EF72ED82EC92E252D8E
S1131D90342D432D522D0E941A1B1816B4F420E042
S1131DA034E244E759E46E2D7F2D8D2D9C2D0E9445
S1131DB01A1B181634F438015E2C4F2C3D2C2C2C95
S1131DC004C05E2C4F2C3D2C2C2C0F5F1F4F043075
S1131DD0110559F677200CF477C0C401880F991FB8
S1131DE0880F991F845E9C4FFC01E60DF71D10813E
S1131DF08091450518132BC080911C0190911D0101
S1131E00019690931D0180931C01039701F5109294
S1131E104705109246051093D7041F921F9382E83A
S1131E2091E09F938F9381EE94E09F938F930E9410
S1131E30281E61E081EE94E00E94E105812F0E945A
S1131E4010130F900F900F900F900F900F9010930E
S1131E5045053AC04091DC045091DD046091DE04F4
S1131E607091DF04C090D804D090D904E090DA04D3
S1131E70F090DB0480914605909147059C012F5F0B
S1131E803F4F30934705209346050397ECF0DB0161
S1131E90CA018C199D09AE09BF098C3D9540A10565
S1131EA0B10520F410921D0110921C0110924705F7
S1131EB0109246054093D8045093D9046093DA04F1
S1131EC07093DB0410924505EAE7F0E080818860B6
S1131ED0808360C060910E0170E082E89BE10E9403
S1131EE0E91BCB016AE070E00E94E91B660F771FD3
S1131EF07093940460939304198240E050E0BE010F
S1131F006F5F7F4F8DEB94E00E94D51781E0809343
S1131F101B0110929504A4CE80919004893008F09E
S1131F2090CE9ECE80919D04811191CE99CE81E078
S1131F308093440515C0109292041092910410C02D
S1131F4080919004209107013091080190E082175C
S1131F50930709F0BACEBDCE109292041092910468
S1131F6080EE94E00E941C048111BACE13C0992023
S1131F700CF470CF0F2EFCEFAF2EF2E0BF2EF02D3D
S1131F8000E010E066246A94762C512C412C312C0C
S1131F90212CEBCE0F90DF91CF911F910F91FF90E9
S1131FA0EF90DF90CF90BF90AF909F908F907F90F5
S1131FB06F905F904F903F902F9008959091A4045C
S1131FC091110AC020910B0130910C019FE2921BE8
S1131FD097BD8093A30408958FE287BD1092A30454
S1131FE008950F931F93CF93DF93CDB7DEB72E974A
S1131FF00FB6F894DEBF0FBECDBF81E08A830E9486
S11320001F059C838B8321E08B819C81892B09F4A0
S113201020E0222309F4F8C28B819C81FC01818198
S113202092819E838D838D819E81863AF0E29F0703
S113203009F443C0873A20E29207ECF48230EDE1E0
S11320409E0709F429C18330FDE19F0754F48531CB
S113205023E0920709F418C18E31934009F469C151
S1132060BDC28A3BFDE19F0709F4BBC285329E4194
S113207009F4B9C2B3C2803DE3E29E0709F407C282
S1132080813DF3E29F0754F48A3923E2920709F46D
S1132090ACC28F3C934209F4AAC2A0C28538F4E2D0
S11320A09F0709F4A4C08C3924E2920709F473C28F
S11320B0853F934209F454C091C28B819C81FC01F9
S11320C08381882329F18B819C81FC01848186345E
S11320D031F08B819C81FC018381803339F410922F
S11320E0D40460E08DE00E947E0203C081E080930E
S11320F0D4048091D404682F89E190E00E941B23CA
S11321009091D40481E0992309F080E080930B0539
S11321108091D404882319F080E291E002C083E224
S113212091E0292F2F938F9388E891E0892F8F9343
S113213088E891E08F9381EE94E0892F8F9381EE6C
S113214094E08F930E94281E0F900F900F900F9091
S11321500F900F9060E081EE94E00E94E10548C288
S11321608B819C81FC0183818823C9F08B819C81B4
S1132170FC018481863431F08B819C81FC01838154
S1132180803319F41092D50403C081E08093D50400
S11321908091D504682F8CE190E00E941B238091EC
S11321A0D504882319F080E291E002C083E291E033
S11321B0292F2F938F9380E991E0892F8F9380E9C2
S11321C091E08F9381EE94E0892F8F9381EE94E0D8
S11321D08F930E94281E0F900F900F900F900F90D6
S11321E00F9060E081EE94E00E94E10501C28B81D2
S11321F09C81FC0183818823F9F08B819C81FC0103
S11322008481863431F08B819C81FC01838180330D
S113221049F4F8941092D60460E08AE00E947E02A9
S1132220789403C081E08093D6048091D604682F0B
S11322308DE190E00E941B238091D604882319F03D
S113224080E291E002C083E291E0292F2F938F93E3
S113225088E991E0892F8F9388E991E08F9381EE4B
S113226094E0892F8F9381EE94E08F930E94281E2F
S11322700F900F900F900F900F900F9060E081EEF1
S113228094E00E94E105B4C10E94251560E080EA53
S113229091E00E94E105ACC18B819C81FC018381AA
S11322A0882321F18B819C8103960E94941D988739
S11322B08F838F81988585369105C0F08F819885AD
S11322C0909311018093100188E890E0209110010F
S11322D030911101FC013183208380911001909190
S11322E01101BC0187E190E00E942D23809110012F
S11322F090911101292F2F938F9385EB91E0892FD2
S11323008F9385EB91E08F9381EE94E0892F8F93E7
S113231081EE94E08F930E94281E0F900F900F90EF
S11323200F900F900F9060E081EE94E00E94E10521
S11323305FC18B819C81FC018381882309F460C087
S113234080E290E09093E2048093E1048B819C818D
S11323500396BC0181EE94E00E94E11D8B819C8177
S1132360FC0185858823D1F081EE94E09C01F9017C
S113237001900020E9F7CF010197821B930B8F5145
S11323809B4F20E230E0FC01318320838B819C81D0
S11323900D96BC0181EE94E00E94E11D81EE94E073
S11323A00E94F31D459760F561EE74E08DEB94E0B7
S11323B00E94EC1D19828981082F10E08DEB94E0B6
S11323C00E94F31D0817190798F48981882F90E05B
S11323D083549B4FFC0120818981882F90E08F5F7B
S11323E09F4F622F0E941B2389818F5F8983E3CFD4
S11323F08981882F90E08F5F9F4F60E00E941B23AC
S11324008091BD04882301F180910E01882F90E012
S1132410BC018DEB94E00E94D3188C509E4F96958E
S1132420879596958795969587959C01A5ECB0E23E
S11324300E94441C929582958F7089279F708927EA
S11324409093D3048093D2048DEB94E0892F8F93DF
S11324508DEB94E08F938DEB91E0892F8F938DEB2F
S113246091E08F9381EE94E0892F8F9381EE94E035
S11324708F930E94281E0F900F900F900F900F9033
S11324800F9061E081EE94E00E94E105B1C08B8180
S11324909C81FC018381893409F05AC08B819C8121
S11324A0FC018585882309F453C08B819C810D969A
S11324B00E94B21DDC01CB01898789858A8785E06A
S11324C090E09C878B8784E190E09E878D878A8546
S11324D0282F30E08D859E858217930754F08A85D6
S11324E0882F90E02B853C858217930724F4C9013B
S11324F002C08D859E8580930E0180910E01682F08
S113250086E190E00E941B238091BD04882301F1A1
S113251080910E01882F90E0BC018DEB94E00E9425
S1132520D3188C509E4F969587959695879596953A
S113253087959C01A5ECB0E20E94441C929582957B
S11325408F7089279F7089279093D3048093D20436
S113255080910E01882F90E0292F2F938F9384EC84
S113256091E0892F8F9384EC91E08F9381EE94E036
S1132570892F8F9381EE94E08F930E94281E0F90F1
S11325800F900F900F900F900F9060E081EE94E009
S11325900E94E1052DC087E291E0892F8F9387E2A5
S11325A091E08F9381ED91E0892F8F9381ED91E0FC
S11325B08F9381EE94E0892F8F9381EE94E08F9333
S11325C00E94281E0F900F900F900F900F900F9065
S11325D060E081EE94E00E94E1050AC00E940C06CE
S11325E007C0000005C0000003C0000001C00000D7
S11325F08B819C81FC01128211828A81882309F4D7
S1132600FECC0E94CD05FBCC00002E960FB6F894AC
S1132610DEBF0FBECDBFDF91CF911F910F91089503
S1132620209148053091490521303105E1F02230EF
S1132630310519F1232B09F07FC010924B0510923C
S11326404A0510924D0510924C0510924F051092B8
S11326504E05833409F070C081E090E09093490501
S1132660809348050895813309F066C082E090E0C4
S113267090934905809348050895833271F480E569
S113268095E00E949D1660E080E595E00E94E105DA
S11326901092490510924805089590ED980F9A30CC
S11326A008F04AC020914E0530914F05232BC1F10B
S11326B020914C0530914D05A901440F551F220F5F
S11326C0331F220F331F220F331F240F351F90E0B7
S11326D0C097820F931F90934D0580934C058732CA
S11326E09105CCF420914A0530914B0524313105F4
S11326F094F4F901E05BFA4FDC01A45DBC4F8C91CA
S113270080832F5F3F4F30934B0520934A05F90197
S1132710E05BFA4F108210924F0510924E05089517
S113272090E0C09790934D0580934C0581E090E034
S113273090934F0580934E050895EF92FF920F9367
S11327401F93CF93DF93C82F80E090E00E940D2366
S1132750C1112BC1883B09F04AC086E190E00E9478
S11327600D2390E08530910514F485E090E08531E7
S1132770910514F084E190E080930E0187E190E0EC
S11327800E94152390931101809310018AE190E037
S11327900E941523909313018093120189E190E024
S11327A00E940D238093D4048CE190E00E940D23B9
S11327B08093D5048DE190E00E940D238093D6048C
S11327C001E010E0CDEBD4E00F2EF1EDEF2EF4E0BC
S11327D0FF2EF02DC8010E940D238993882309F44C
S11327E02DC10F5F1F4FCE15DF05A1F727C186E16D
S11327F090E00E940D238F3F09F4CDC090E0853016
S1132800910514F485E090E08531910514F084E19C
S113281090E080930E0187E190E00E9415238F3FA2
S11328202FEF920789F48DE09DE39093110180933B
S11328301001609110017091110187E190E00E94F4
S11328402D23C111BCC004C09093110180931001C9
S11328508AE190E00E9415238F3FEFEF9E0789F4F1
S113286083E990E090931301809312016091120127
S1132870709113018AE190E00E942D23CC2329F06A
S1132880ADC0909313018093120189E190E00E94FE
S11328900D238F3F61F481E08093D4046091D404CC
S11328A089E190E00E941B23C111A2C002C0809361
S11328B0D4048CE190E00E940D238F3F69F481E001
S11328C08093D5046091D5048CE190E00E941B2391
S11328D0CC2309F4A1C0A8C08093D5048DE190E075
S11328E00E940D238F3F61F481E08093D6046091B0
S11328F0D6048DE190E00E941B23C11109C002C0DF
S11329008093D60481E090E00E940D238F3F41F52F
S113291044E150E06CED71E08DEB94E00E94FC1D0D
S11329200DEB14E0C0E0D0E07801F7010190002045
S1132930E9F7CF018E5B9440C817D90750F4F8012A
S113294061918F01CE018F5F9F4F0E941B232196BF
S1132950ECCF60E0CE018F5F9F4F0E941B2315C018
S113296001E010E0CDEBD4E00F2EF1EDEF2EF4E01A
S1132970FF2EF02DC8010E940D238993882329F08E
S11329800F5F1F4FCE15DF05A9F768EB80E090E0DD
S11329900E94332353C084E180930E0160910E01A1
S11329A086E190E00E941B2336CF84E180930E01E0
S11329B060910E0186E190E00E941B2334CF83E9ED
S11329C090E0909313018093120160911201709131
S11329D013018AE190E00E942D235DCF81E0809372
S11329E0D4046091D40489E190E00E941B2367CF52
S11329F081E08093D5046091D5048CE190E00E943D
S1132A001B2372CF81E08093D6046091D6048DE1BC
S1132A1090E00E941B2376CF8DE190E00E940D236D
S1132A208F3F09F06DCFEECF81E08093D6046091A3
S1132A30D6048DE190E00E941B236ACFDF91CF91F1
S1132A401F910F91FF90EF9008950E945A15F894EA
S1132A50EDE6F0E0108288E08083E8E6F0E01082A2
S1132A6084E0808363E00E94900181E080930D0103
S1132A70109285001092840010928C0410928D04A0
S1132A8010928E0410928F0410929A04109299045A
S1132A901092A70460E08DE00E947E0210929204DE
S1132AA01092910481E090E09093080180930701D3
S1132AB078940895F89461E080E00E94900161E0C8
S1132AC081E00E94900163E082E00E94900163E053
S1132AD083E00E94900163E084E00E94900163E03F
S1132AE085E00E94900161E086E00E94900161E02F
S1132AF087E00E94900161E088E00E94900161E01B
S1132B0089E00E94900161E08AE00E94900161E006
S1132B108DE00E94900161E08EE00E94900161E0EE
S1132B208FE00E94900161E080E10E94900161E0E9
S1132B3081E10E94900160E08DE00E947E0260E0ED
S1132B4087E00E947E0260E08EE00E947E0260E0E8
S1132B508FE00E947E0260E080E10E947E0260E0DD
S1132B6081E10E947E0260E080E00E947E0260E0DB
S1132B7081E00E947E0260E086E00E947E0260E0C6
S1132B8088E00E947E0260E089E00E947E0260E0AC
S1132B908AE00E947E0210928C0410928D0410929E
S1132BA08E0410928F041092920410929104109249
S1132BB09404109293041092950410929804109225
S1132BC0970410929A041092990410929C04109203
S1132BD09B0410929D0410929F0410929E041092E4
S1132BE0A1041092A0041092A2041092A304789459
S1132BF09091D40481E0911180E080930B051092B0
S1132C00900480919004863111F410929004E09124
S1132C1090048E2F90E0FC013197E531F10508F026
S1132C206BC0EA59FF4F0C943E1C88E790E09093E8
S1132C300A018093090181E08093D50408958CE210
S1132C4091E090930A018093090181E08093D50477
S1132C5008958CE390E0909398048093970425E082
S1132C6030E030939C0420939B0410929F041092B4
S1132C709E0428E020930F019093A1048093A00464
S1132C808CE291E090930A018093090108958CE00D
S1132C9090E0909398048093970485E090E090935B
S1132CA09C0480939B0480919004833131F0809143
S1132CB090048E3020F08FE003C08AE001C08AE0E7
S1132CC080930F01809190048E3018F08DE090E095
S1132CD002C088E090E090939F0480939E0488E56E
S1132CE092E09093A1048093A00488E790E09093ED
S1132CF00A0180930901089588E592E0909398046D
S1132D008093970421E030E030939C0420939B044B
S1132D1028E020930F019093A1048093A004809154
S1132D209004883019F08CE291E002C088E790E0CA
S1132D3090930A018093090108950F931F93CF93F1
S1132D4044E150E0BC018DEB94E00E94FC1DC0E026
S1132D500DEB14E0F80101900020E9F7CF018E5B40
S1132D6094402C2F30E02817390758F4C901FC018E
S1132D70E855FB4F65898F5F9F4F0E941B23CF5FF0
S1132D80E9CF8C2F90E060E08F5F9F4F0E941B2360
S1132D90CF911F910F9108950F931F9300E018E7AF
S1132DA026E936E440E050E069E473E480EE94E020
S1132DB00E94D1021F910F91089580EE94E00E9429
S1132DC01F03089590E0FC01B097ED35F10508F07C
S1132DD0E4C0E558FF4F0C943E1C89E074E061E0C8
S1132DE008958BE074E065E0089587E073E061E0A6
S1132DF0089581E071E060E0089589E074E064E0A2
S1132E00089589E073E063E0089587E074E060E08A
S1132E10089583E072E060E008958DE074E06EE070
S1132E20089589E073E065E0089589E074E062E064
S1132E30089587E072E063E0089585E072E061E060
S1132E4008958BE073E067E008958BE074E066E03A
S1132E5008958DE074E06BE0089587E073E062E02C
S1132E60089585E073E060E0089583E071E061E037
S1132E70089587E073E064E0089589E074E068E011
S1132E80089589E073E066E008958BE074E069E0FA
S1132E9008958DE074E06DE008958BE074E063E0E4
S1132EA0089583E175E06FE1089581E175E06EE1D5
S1132EB008958FE075E06CE108958DE075E068E1B8
S1132EC008958BE075E060E1089589E075E060E0C5
S1132ED008958BE075E061E008958DE075E063E0AE
S1132EE008958FE075E067E0089581E175E06FE093
S1132EF0089581E176E06AE2089583E176E063E390
S1132F0008958FE076E06CE0089583E176E06EE169
S1132F10089583E176E065E308958DE075E069E066
S1132F2008958FE075E06DE0089583E176E06DE249
S1132F3008958BE075E062E0089581E176E067E052
S1132F4008958CE076E065E108958DE075E061E137
S1132F5008958DE075E06AE008958FE076E061E21F
S1132F60089581E176E06CE208958FE076E062E115
S1132F70089581E177E068E4089581E176E066E10F
S1132F80089584E077E06FEF089587E077E06EEFCF
S1132F90089583E175E06FE1089580E070E060E0FA
S1132FA0089585E072E062E00895CF93DF93EA012B
S1132FB00097B1F1109270056115710521F0DB01E4
S1132FC02C9120931F01FC0120812223D9F090939E
S1132FD06F0580936E0580E280931E01822F0E940C
S1132FE0E21660936B0570936C0580936D051092E7
S1132FF06A0510926905109268051092670510928F
S113300066050AC010926F0510926E0581E08093E8
S11330106605209709F088831092650580E0C0C09A
S1133020E0916E05F0916F05309709F4AAC061151F
S1133030710521F080911F01DB018C93809166055D
S1133040882349F0209709F4A8C081E0888310926E
S1133050700580E0A5C080916805882321F0815027
S1133060809368057FC080916505882381F08091F5
S1133070700581110CC01092650580916705882345
S113308009F470C080936805109267056BC0909135
S11330906C0580916905891790F180916A058F5FAD
S11330A080936A05DF01A80FB11D8C9180931E01E6
S11330B0811119C080911F01882331F08081809390
S11330C01E0110926A050FC010926F0510926E05D2
S11330D01092650591E090936605209709F0988316
S11330E0109270055DC080911E010E94E2166093EB
S11330F06B0570936C0580936D05109269052091A2
S11331006B052D3F00F54091690531E0340F309394
S1133110690581E090E002C0880F991F4A95E2F7A3
S1133120822321F082E08093680502C01092680532
S113313081E08093650580916C05381798F082E0F2
S1133140809367050FC080916C059FEF909369058C
S113315010926505843020F084508093680502C085
S11331601092680580911E018C3331F481E08093C4
S11331707005209741F414C010927005209719F43B
S113318009C0209719F080916605888380917005A5
S1133190811105C08091650503C080E001C081E014
S11331A0DF91CF910895CF92DF92EF92FF920F9328
S11331B01F93CF93FC016B0180818823C1F08F01A1
S11331C00F5F1F4F7F0194E1E90EF11CC0E005C0C1
S11331D0F80181918F01882359F00E94E2166D3F16
S11331E008F4CD5FC80F0E151F0591F701C0C0E0AC
S11331F080EB94E0B6010E94D51BC69FC001C79F17
S1133200900D1124CF911F910F91FF90EF90DF90BB
S1133210CF9008955058BB27AA270E9422190C94D6
S1133220CC1A0E94931A38F00E949A1A20F039F4AA
S11332309F3F19F426F40C94901A0EF4E095E7FBE2
S11332400C948A1AE92F0E94F11A58F3BA176207EC
S113325073078407950720F079F4A6F50C94131BE3
S11332600EF4E0950B2EBA2FA02D0B01B90190019D
S11332700C01CA01A0011124FF27591B99F0593FE1
S113328050F4503E68F11A16F040A22F232F342F29
S11332904427585FF3CF469537952795A795F04077
S11332A05395C9F77EF41F16BA0B620B730B840B8C
S11332B0BAF09150A1F0FF0FBB1F661F771F881F44
S11332C0C2F70EC0BA0F621F731F841F48F487959C
S11332D077956795B795F7959E3F08F0B0CF93958E
S11332E0880F08F09927EE0F9795879508950E9407
S11332F0661A08F481E008950E94A31AE3950C94D9
S1133300DD1A0E9495190C94CC1A0E949A1A58F04E
S11333100E94931A40F029F45F3F29F00C948A1A12
S113332051110C94141B0C94901A0E94F11A68F316
S11333309923B1F3552391F3951B550BBB27AA276A
S113334062177307840738F09F5F5F4F220F331FA4
S1133350441FAA1FA9F335D00E2E3AF0E0E832D06C
S113336091505040E695001CCAF72BD0FE2F29D06F
S1133370660F771F881FBB1F261737074807AB0741
S1133380B0E809F0BB0B802DBF01FF2793585F4FB6
S11333903AF09E3F510578F00C948A1A0C94141B51
S11333A05F3FE4F3983ED4F3869577956795B79598
S11333B0F7959F5FC9F7880F911D9695879597F9A3
S11333C00895E1E0660F771F881FBB1F621773071C
S11333D08407BA0720F0621B730B840BBA0BEE1F31
S11333E088F7E09508950E94FA196894B1110C9435
S11333F0141B08950E94F91A88F09F5798F0B92F6A
S11334009927B751B0F0E1F0660F771F881F991F15
S11334101AF0BA95C9F714C0B13091F00E94131B89
S1133420B1E008950C94131B672F782F8827B85F99
S113343039F0B93FCCF3869577956795B395D9F76D
S11334403EF490958095709561957F4F8F4F9F4F77
S11334500895E89409C097FB3EF490958095709583
S113346061957F4F8F4F9F4F9923A9F0F92F96E9CC
S1133470BB279395F695879577956795B795F11141
S1133480F8CFFAF4BB0F11F460FF1BC06F5F7F4FDE
S11334908F4F9F4F16C0882311F096E911C07723F0
S11334A021F09EE8872F762F05C0662371F096E8F9
S11334B0862F70E060E02AF09A95660F771F881FC8
S11334C0DAF7880F9695879597F90895990F00086C
S11334D0550FAA0BE0E8FEEF16161706E807F907E2
S11334E0C0F012161306E407F50798F0621B730B7D
S11334F0840B950B39F40A2661F0232B242B252BFE
S113350021F408950A2609F4A140A6958FEF811DA0
S1133510811D089597F99F6780E870E060E0089541
S11335209FEF80EC089500240A94161617061806D7
S11335300906089500240A941216130614060506B3
S113354008950C94901A0E94F91AD8F3E894E0E0D4
S1133550BB279F57F0F02AED3FE049EC06C0EE0F81
S1133560BB0F661F771F881F28F0B23A62077307E4
S1133570840728F0B25A620B730B840BE3959A9577
S113358072F7803830F49A95BB0F661F771F881F37
S1133590D2F790480C948E1B092E0394000C11F45E
S11335A0882352F0BB0F40F4BF2B11F460FF04C01A
S11335B06F5F7F4F8F4F9F4F0895EF93E0FF07C0DA
S11335C0A2EA2AED3FE049EC5FEB0E9422190E9437
S11335D0CC1A0F90039401FC9058E0EBF1E00C94AA
S11335E09A1B57FD9058440F551F59F05F3F71F0D7
S11335F04795880F97FB991F61F09F3F79F0879556
S11336000895121613061406551FF2CF4695F1DFDE
S113361008C0161617061806991FF1CF869571056E
S1133620610508940895E894BB2766277727CB01A2
S113363097F908950E94661A08F48FEF08950E947E
S1133640321B0C94CC1A0E94931A38F00E949A1AD6
S113365020F0952311F00C948A1A0C94901A1124DA
S11336600C94141B0E94F11A70F3959FC1F3950FEB
S113367050E0551F629FF001729FBB27F00DB11DF2
S1133680639FAA27F00DB11DAA1F649F6627B00D82
S1133690A11D661F829F2227B00DA11D621F739F6B
S11336A0B00DA11D621F839FA00D611D221F749F79
S11336B03327A00D611D231F849F600D211D822FC0
S11336C0762F6A2F11249F5750409AF0F1F08823E7
S11336D04AF0EE0FFF1FBB1F661F771F881F915014
S11336E05040A9F79E3F510580F00C948A1A0C941F
S11336F0141B5F3FE4F3983ED4F386957795679562
S1133700B795F795E7959F5FC1F7FE2B880F911D3D
S11337109695879597F908959F3F31F0915020F43D
S1133720879577956795B795880F911D9695879599
S113373097F908959F938F937F936F93FF93EF93DC
S11337409B01AC010E941F1BEF91FF910E94AE1BD5
S11337502F913F914F915F910C941F1BDF93CF9357
S11337601F930F93FF92EF92DF927B018C01689479
S113377006C0DA2EEF010E94321BFE01E894A591E7
S11337802591359145915591A6F3EF010E94221997
S1133790FE019701A801DA9469F7DF90EF90FF909A
S11337A00F911F91CF91DF910895AA1BBB1B51E18B
S11337B007C0AA1FBB1FA617B70710F0A61BB70B9D
S11337C0881F991F5A95A9F780959095BC01CD0142
S11337D0089597FB072E16F4009407D077FD09D0BF
S11337E00E94D51B07FC05D03EF4909581959F4F10
S11337F00895709561957F4F0895A1E21A2EAA1B32
S1133800BB1BFD010DC0AA1FBB1FEE1FFF1FA2178C
S1133810B307E407F50720F0A21BB30BE40BF50B89
S1133820661F771F881F991F1A9469F76095709512
S1133830809590959B01AC01BD01CF010895052EA3
S113384097FB1EF400940E94361C57FD07D00E947B
S1133850FD1B07FC03D04EF40C94361C5095409588
S1133860309521953F4F4F4F5F4F08959095809528
S1133870709561957F4F8F4F9F4F0895EE0FFF1FF7
S11338800590F491E02D0994A29FB001B39FC0016B
S1133890A39F700D811D1124911DB29F700D811D78
S11338A01124911D0895EF920F931F93CF93DF93EB
S11338B0E80147FD02C034E001C034E1042E000CED
S11338C0550B57FF03C0519541955109E32E022F23
S11338D0242FAE010E942B20CE01DF91CF911F91A6
S11338E00F91EF9008950F931F93CF93DF9382303E
S11338F0910510F482E090E0E0917305F091740575
S113390020E030E0A0E0B0E0309719F1408151812F
S11339100281138148175907C8F08417950769F481
S1133920109731F012960C93129713961C9327C09C
S1133930009373051093740522C02115310519F005
S11339404217530718F49A01BD01EF01DF01F80192
S1133950DBCF21153105F9F0281B390B2430310553
S113396080F48A819B816115710521F0FB019383A9
S1133970828304C09093740580937305FE0132968C
S113398044C0FE01E20FF31F819391932250310949
S1133990398328833AC02091710530917205232B15
S11339A041F4209102013091030130937205209378
S11339B0710520910001309101012115310541F477
S11339C02DB73EB74091040150910501241B350BDE
S11339D0E0917105F0917205E217F307A0F42E1B34
S11339E03F0B2817390778F0AC014E5F5F4F24175F
S11339F0350748F04E0F5F1F5093720540937105D1
S1133A008193919302C0E0E0F0E0CF01DF91CF9188
S1133A101F910F910895CF93DF93009709F481C00C
S1133A20FC01329713821282A0917305B091740540
S1133A30109781F420813181820F931F20917105A9
S1133A40309172052817390751F5F0937205E09308
S1133A50710567C0ED0120E030E0CE17DF0740F4C8
S1133A604A815B819E0141155105F1F0EA01F5CFD0
S1133A70D383C28340815181840F951FC817D9070E
S1133A8059F488819981840F951F029691838083CC
S1133A908A819B81938382832115310529F4F093D4
S1133AA07405E09373053DC0E901FB83EA83499102
S1133AB05991C40FD51FEC17FD0761F480819181E2
S1133AC0840F951F0296E9019983888382819381EB
S1133AD09B838A83E0E0F0E012968D919C9113978A
S1133AE0009719F0FD01DC01F7CF8D919C9111979E
S1133AF09D012E5F3F4F820F931F209171053091DE
S1133B0072052817390769F4309729F4109274055F
S1133B101092730502C013821282B0937205A093AF
S1133B207105DF91CF910895FC0188279927E894C6
S1133B3021912032E9F3293010F02E30C8F32B32D2
S1133B4041F02D3239F4689404C00E94201E820F83
S1133B50911D219120532A30C0F31EF49095819534
S1133B609F4F08951F93FC0199278827BC01E8946F
S1133B7011911032E9F3193010F01E30C8F31B32E2
S1133B8051F01D3249F4689406C00E940B1E610F67
S1133B90711D811D911D119110531A30B0F33EF423
S1133BA090958095709561957F4F8F4F9F4F1F9192
S1133BB008959111089581568A5108F480528558C8
S1133BC00895FB01DC010D900020E9F711970190A5
S1133BD00D920020E1F70895FB01DC0101900D92A4
S1133BE00020E1F70895FC0101900020E9F7809599
S1133BF090958E0F9F1F0895FB01DC0141505040AA
S1133C0048F001900D920020C9F701C01D92415067
S1133C105040E0F70895592F482F372F262F660F6D
S1133C20771F881F991F660F771F881F991F620FC0
S1133C30731F841F951F660F771F881F991F089590
S1133C407AE0979F902D879F802D910D11240895E0
S1133C50AEE0B0E0EEE2FEE10C945F230D891E8934
S1133C6086E08C831A8309838FEF9FE79E838D837D
S1133C70AE01475E5F4F6F89788DCE0101960E9439
S1133C804A1EEF81F885E00FF11F10822E96E4E0C2
S1133C900C947B23ABE0B0E0E0E5FEE10C9451230F
S1133CA06C017B018A01FC0117821682838181FFEA
S1133CB0CCC1CE0101963C01F6019381F70193FD3D
S1133CC0859193FF81917F01882309F4BAC18532DC
S1133CD039F493FD859193FF81917F01853229F415
S1133CE0B60190E00E947322E7CF912C212C312C55
S1133CF0FFE1F315D8F08B3279F038F4803279F0A3
S1133D008332A1F4232D20611DC08D3261F08033F4
S1133D1069F4232D216016C0832D8260382EE32D93
S1133D20E4603E2E2AC0F32DF8601DC037FC2DC080
S1133D3020ED280F2A3040F08E32B9F436FC81C1D0
S1133D40232D2064322E19C036FE06C08AE0989EC8
S1133D50200D1124922E11C0EAE02E9E200D112474
S1133D60222EF32DF0623F2E08C08C3621F4832DD1
S1133D708068382E02C0883641F4F70193FD85919E
S1133D8093FF81917F018111B3CF982F9F7D95542B
S1133D90933028F40C5F1F4F9FE399830DC0833643
S1133DA031F0833771F0833509F059C021C0F8012F
S1133DB0808189830E5F1F4F88248394912C530143
S1133DC013C02801F2E04F0E511CF801A080B1800D
S1133DD036FE03C0692D70E002C06FEF7FEFC501AE
S1133DE00E9468224C018201F32DFF773F2E16C0FA
S1133DF0280122E0420E511CF801A080B18036FE59
S1133E0003C0692D70E002C06FEF7FEFC5010E940F
S1133E105D224C01F32DF0683F2E820133FC1BC060
S1133E20822D90E088169906B0F4B60180E290E005
S1133E300E9473222A94F4CFF50137FC859137FE52
S1133E4081915F01B60190E00E94732221102A94AF
S1133E5021E0821A91088114910471F7E8C0843634
S1133E6011F0893641F5F80137FE07C06081718190
S1133E70828193810C5F1F4F08C060817181072E7E
S1133E80000C880B990B0E5F1F4FF32DFF763F2E0E
S1133E9097FF09C090958095709561957F4F8F4FDE
S1133EA09F4FF0683F2E2AE030E0A3010E94AF222A
S1133EB0882E861845C0853731F4232D2F7EB22EE7
S1133EC02AE030E025C0932D997FB92E8F36C1F0BA
S1133ED018F4883579F0B5C0803719F0883721F0A7
S1133EE0B0C0E92FE061BE2EB4FE0DC0FB2DF4601E
S1133EF0BF2E09C034FE0AC0292F2660B22E06C088
S1133F0028E030E005C020E130E002C020E132E0EA
S1133F10F801B7FE07C060817181828193810C5FD3
S1133F201F4F06C06081718180E090E00E5F1F4FDB
S1133F30A3010E94AF22882E8618FB2DFF773F2E07
S1133F4036FE0DC0232D2E7FA22E891458F434FE84
S1133F500BC032FC09C0832D8E7EA82E05C0B82C60
S1133F60A32C03C0B82C01C0B92CA4FE0FC0FE01C1
S1133F70E80DF11D8081803321F49A2D997EA92EBC
S1133F8009C0A2FE06C0B394B39404C08A2D8678F7
S1133F9009F0B394A3FC11C0A0FE06C0B21488F4C7
S1133FA0280C922C9B180EC0B21460F4B60180E267
S1133FB090E00E947322B394F7CFB21418F42B1834
S1133FC002C0982C212CA4FE10C0B60180E390E01E
S1133FD00E947322A2FE17C0A1FC03C088E790E0F0
S1133FE002C088E590E0B6010CC08A2D867859F0AD
S1133FF0A1FE02C08BE201C080E2A7FC8DE2B60103
S113400090E00E947322891438F4B60180E390E0B2
S11340100E9473229A94F7CF8A94F301E80DF11D5C
S11340208081B60190E00E9473228110F5CF222096
S113403009F442CEB60180E290E00E9473222A94F1
S1134040F6CFF6018681978102C08FEF9FEF2B9602
S1134050E2E10C946D23A9E0B0E0E1E3F0E20C941A
S113406057236A01122FB02E2BE3201720F0FF24D0
S1134070F394F00E02C02CE3F22E0F2D27E0AE01D4
S11340804F5F5F4F0E948521BC014981842F897055
S1134090813031F0E1FC06C0E0FE06C090E205C0CC
S11340A09DE203C09BE201C090E05E2D507143FF8E
S11340B03CC0911102C083E001C084E0811718F470
S11340C0212F281B01C020E051110BC0F601822FC3
S11340D030E2882319F031938150FBCFC20ED11CFA
S11340E020E0992329F0D6019C93F60131966F01C3
S11340F0C6010396E2FE0AC03EE4D6013C9341E4C5
S113410011964C93119712963C9306C03EE6F60125
S1134110308341E641833283FC01322F40E2332372
S113412009F442C041933150FACF42FF44C0911187
S113413002C083E001C084E0811718F4212F281BFA
S113414001C020E051110BC0F601822F30E2882318
S113415019F031938150FBCFC20ED11C20E099237A
S113416029F0D6019C93F60131966F01C60103969E
S1134170E2FE0BC039E4D6013C933EE411963C9335
S1134180119736E412963C9307C039E6F601308362
S11341903EE6318336E63283FC01322F40E233239C
S11341A019F041933150FBCFFC01E20FF11D108255
S11341B08EEF9FEFA6C021E030E0911102C020E015
S11341C030E0161617061CF4FB01319602C0E1E03C
S11341D0F0E02E0F3F1FBB2021F0EB2DF0E03196D5
S11341E002C0E0E0F0E02E0F3F1FE12FF0E02E17B9
S11341F03F071CF4121B212F01C020E08E2D887173
S113420059F4F601822F30E2882319F0319381505A
S1134210FBCFC20ED11C20E0992329F0D6019C9338
S1134220F60131966F0151110BC0F601822F90E314
S1134230882319F091938150FBCFC20ED11C20E04A
S11342400F2D060F9A81342F307144FF03C0913330
S113425009F40150101624F4093018F008E001C0E4
S113426001E0AB0177FF02C040E050E0FB01E41B3A
S1134270F50BA1E0B0E0AC0FBD1FEA0FFB1F8EE20F
S1134280A82E4B01801A91080B2D10E01195019571
S113429011094F3FBFEF5B0721F4D601AC92119691
S11342A06D01641775072CF08416950614F481814A
S11342B001C080E3415051093196D60111967D0128
S11342C04017510724F0D6018C936701E2CF64179D
S11342D0750739F4963320F4953319F4311101C07C
S11342E081E3F6018083F701822F90E2882319F09D
S11342F091938150FBCFF701E20FF11D108280E012
S113430090E02996ECE00C947323283008F027E021
S11343103327DA01990F311D87FD916000966105FD
S1134320710539F432602E5F3D9330E32A95E1F74D
S113433008959F3F30F080387105610509F03C5FB6
S11343403C5F3D93913008F08068911DDF93CF93DB
S11343501F930F93FF92EF92192F987F9695E92F51
S113436096959695E90FFF27E85DFD4F992733272A
S1134370EE24FF24A701E70105900894079428F48C
S1134380360FE71EF81E491F511D660F771F881F41
S1134390991F0694A1F70590079428F4E70EF81ED8
S11343A0491F561FC11D770F881F991F661F06944A
S11343B0A1F70590079428F4F80E491F561FC71F4C
S11343C0D11D880F991F661F771F0694A1F70590CA
S11343D0079420F4490F561FC71FD81F990F661F53
S11343E0771F881F0694A9F784911095177041F0E0
S11343F0D695C79557954795F794E7941A95C1F7BD
S1134400EEECF1E0689415901591359165919591D4
S113441005907FE27395E118F10A430B560BC90B23
S1134420D009C0F7E10CF11E431F561FC91FD01D50
S11344307EF4703311F48A95E6CFE894015030F09D
S1134440080F0AF40027021708F4202F2395022FDF
S11344507A3328F079E37D932A95E9F710C07D93A8
S11344602A9589F606949795679537951795179425
S1134470E118F10A430B560BC90BD00998F02395A8
S11344807E9173957A3308F070E37C932013B8F728
S11344907E9170617D9330F0839571E37D9370E339
S11344A02A95E1F71124EF90FF900F911F91CF917E
S11344B0DF91992787FD90950895FC01059061503F
S11344C070400110D8F7809590958E0F9F1F089526
S11344D0FC016150704001900110D8F780959095CF
S11344E08E0F9F1F08950F931F93CF93DF93FB01AC
S11344F0238121FD03C08FEF9FEF2CC022FF16C044
S113450046815781248135814217530744F4A081A1
S1134510B1819D012F5F3F4F318320838C9326818E
S113452037812F5F3F4F3783268314C08B01EC0103
S1134530FB010084F185E02D0995892BE1F6D80172
S113454016968D919C911797019617969C938E932E
S11345501697CE01DF91CF911F910F910895FA0123
S1134560AA27283051F1203181F1E8946F936E7FAE
S11345706E5F7F4F8F4F9F4FAF4FB1E03ED0B4E09F
S11345803CD0670F781F891F9A1FA11D680F791FE0
S11345908A1F911DA11D6A0F711D811D911DA11DF1
S11345A020D009F468943F912AE0269F1124301901
S11345B0305D3193DEF6CF010895462F4770405D9C
S11345C04193B3E00FD0C9F7F6CF462F4F70405D4B
S11345D04A3318F0495D31FD4052419302D0A9F7A6
S11345E0EACFB4E0A6959795879577956795BA95A0
S11345F0C9F700976105710508959B01AC010A2E66
S113460006945795479537952795BA95C9F7620F3C
S1134610731F841F951FA01D0895F999FECF92BDA5
S113462081BDF89A992780B50895A8E1B0E042E0E9
S113463050E00C944323262FF999FECF92BD81BDFF
S1134640F89A019700B4021639F01FBA20BD0FB6CC
S1134650F894FA9AF99A0FBE08950196272F0E94AA
S11346601C230C941B23262FF999FECF1FBA92BD4D
S113467081BD20BD0FB6F894FA9AF99A0FBE01963F
S11346800895DC01CB01FC01F999FECF06C0F2BD0F
S1134690E1BDF89A319600B40D9241505040B8F7FC
S11346A008952F923F924F925F926F927F928F92D2
S11346B09F92AF92BF92CF92DF92EF92FF920F93AD
S11346C01F93CF93DF93CDB7DEB7CA1BDB0B0FB6B7
S11346D0F894DEBF0FBECDBF09942A883988488874
S11346E05F846E847D848C849B84AA84B984C8840A
S11346F0DF80EE80FD800C811B81AA81B981CE0F01
S1134700D11D0FB6F894DEBF0FBECDBFED010895E5
S113471011E0C5E6D1E004C0FE010E943E1C2196D2
S10D4720C636D107C9F7F894FFCF9D
S113472A0000750520000101003C00010001140885
S113473A0D3D93006400FFFF016300010A0020019C
S113474A4F4E004F4646005665723A20302E3100CD
S113475A0A0A53746F72656420446174613A0A00E8
S113476A202049443A2025730A00202043414C3A28
S113477A2025750A0020204C45443A2025730A0056
S113478A20205354413A2025730A002020545845C6
S113479A3A2025730A005468726573683D25730AC2
S11347AA0A00222563220A004C45443A25730A006A
S11347BA5354413A25730A005458453A25730A005A
S11347CA52652D73796E63207375636365737366BB
S11347DA756C210A0043616C3D25750A0049443A07
S11347EA25730A0049443A202025642077706D0A0B
S11347FA005357205665723A25730A00464F5842A9
S113480A4F58003E2025733D256425730056657272
S113481A3A20302E310041726475636F6E000A2AA1
S113482A2A2A202573205665722E202573202A2AC7
S113483A2A000A436F6D6D616E64733A0A000000C0
S113484A0000000000000000002020474F20202D17
S113485A2053796E6320636C6F636B0A0000000057
S113486A20204944202D20205365742063616C6CF8
S113487A7369676E0A00002020564552202D205382
S113488A2F572076657273696F6E0A000000202024
S113489A545845202D20547820656E61626C650059
S11348AA00000000003E20000A004D4F20000000D6
S11348BA4D4F452000004D4F492000004D4F5320D5
S11348CA00004D4F482000004D4F352000000000E5
S11348DA0000000035000000000053000000000042
S11348EA4D45000000004D49000000004D530000F2
S11348FA00004D48000000004D35000000004F45FF
S113490A000000004F49000000004F53000000005F
S113491A4F48000000004F35000000000020974473
S113492A0000A74400A0B8440020CC4400402E4410
S113493A008040440000554400406B443132334106
S113494A34353642373839432A30234420414243E6
S113495A4445464748494A4B4C4D4E4F5051525391
S113496A5455565758595A3C2F3031323334353608
S107497A373839008D
S9030000FC
