S00F000041726475636F6E2E7372656349
S11300000C9418010C94800C0C9440010C94400145
S11300100C9440010C94C5160C9440010C944001BE
S11300200C94DD110C9440010C9440010C94EE10DE
S11300300C9440010C9440010C94B1100C944001B8
S11300400C9440010C9440010C94970A0C94330CCA
S11300500C9440010C945F0A0C9440010C944001F0
S11300600C9440010C9440016D01780183018E01D0
S11300709901A401AF01BA01C501D001DB0132022B
S11300803202E601F101FC01070212021D022802FC
S11300903D024102450249024D02510255025A02F3
S11300A05E0277027702620266026B026F027302DB
S11300B088028E0294029A02A002A602AC02B20244
S11300C0B802BE02C402E702E702CA02D002D602A4
S11300D0DC02E20208036703670325034C030503FC
S11300E04F03550302035F03FF024603490358030A
S11300F0B0038203B303850388038B038E03910348
S1130100940397039A03B013B013B013B013B0134E
S113011030143014CE13CE13CE13CE13CE13F013EB
S1130120F013F013F013F013301410146D20AF20FB
S113013023212E21392143215021E3215222CD2292
S11301401123552391229B23BD23E523AC21F323C3
S1130150E6201F24AC2870289C28B428A028B428A2
S113016080286C2878287C28B4289028642894282F
S11301706028742838283C284028442848284C28DB
S11301805028542858285C2884288828B0288C288B
S1130190B4286828A428B828D427D827DC27E0273F
S11301A0E427E827EC27F027F427F827FC27002882
S11301B0042808280C281028142818281C2820286B
S11301C0242828282C2830283428B428B428B428F3
S11301D0B4289828B428B428B428B428B428B42857
S11301E0B428B428B428B428B428B428B428B4282B
S11301F0B428B428B428B428B428B428B428B4281B
S1130200B428B428B428B428B428B428A82805A845
S11302104CCDB2D44EB93836A9020C50B991868867
S1130220083CA6AAAA2ABE000000803FA827BD2732
S113023011241FBECFEFD8E0DEBFCDBF13E0A0E096
S1130240B1E0E0E5F9E602C005900D92A431B107F2
S1130250D9F725E0A4E1B3E001C01D92AE3AB2079C
S1130260E1F711E0C7E1D1E004C02197FE010E944B
S1130270732FC631D107C9F70E9486260C949B348C
S11302800C940000623021F40E944F01845E0895B2
S1130290683008F06F5F61708EE1860F08959C01ED
S11302A023703327232B59F464E670E00E941E2F39
S11302B0892B39F46370772781E0672B19F080E08C
S11302C0089581E0089590E08431910508F0CAC052
S11302D0FC01EC5CFF4F0C94732F613011F4509AC5
S11302E008955098633011F4589A089558980895D1
S11302F0613011F4519A08955198633011F4599A68
S1130300089559980895613011F4529A08955298B5
S1130310633011F45A9A08955A980895613011F48B
S1130320539A08955398633011F45B9A08955B9837
S11303300895613011F4549A08955498633011F477
S11303405C9A08955C980895613011F4559A089563
S11303505598633011F45D9A08955D98089561305D
S113036011F4569A08955698633011F45E9A0895DC
S11303705E980895613011F4579A08955798633040
S113038011F45F9A08955F980895613011F4209AEA
S113039008952098633011F4289A089528980895B0
S11303A0613011F4219A08952198633011F4299A47
S11303B0089529980895613011F4229A0895229895
S11303C0633011F42A9A08952A980895613011F43B
S11303D0259A08952598633011F45D9A08955D98DF
S11303E00895613011F4389A08953898633011F4FF
S11303F0409A089540980895613011F4399A089507
S11304003998633011F4419A089541980895613000
S113041011F43A9A08953A98633011F4429A08957F
S113042042980895613011F43B9A08953B986330E3
S113043011F4439A089543980895613011F43C9A55
S113044008953C98633011F4449A089544980895AB
S1130450613011F43D9A08953D98633011F4459A42
S113046008954598089590E0FC013297E031F10534
S1130470F0F5E85BFF4F0C94732F29B1247030E042
S113048038C029B1287030E034C029B1207130E07F
S113049030C029B1207230E02CC029B1207430E082
S11304A028C029B1207830E024C083B1282F2170DE
S11304B030E01FC023B1227030E01BC023B1247090
S11304C030E017C023B1207230E013C086B1282F6A
S11304D0217030E00EC026B1227030E00AC026B18F
S11304E0247030E006C026B1287030E002C020E05D
S11304F030E081E0232B09F480E0089590E082311C
S1130500910508F064C0FC01E85AFF4F0C94732F66
S1130510662311F0589A089558980895662311F0A7
S1130520599A089559980895662311F05A9A08958E
S11305305A980895662311F05B9A08955B9808957C
S1130540662311F05C9A08955C980895662311F06F
S11305505D9A08955D980895662311F05E9A089552
S11305605E980895662311F05F9A08955F98089540
S1130570662311F0289A089528980895662311F0A7
S1130580299A089529980895662311F02A9A0895BE
S11305902A980895662311F02D9A08952D980895A8
S11305A0662311F0409A089540980895662311F047
S11305B0419A089541980895662311F0429A089546
S11305C042980895662311F0439A08954398089534
S11305D0089508950F931F93CF93DF934115510509
S11305E009F475C0862F90E0FC013B97EE30F105CD
S11305F008F06DC0DA01E659FF4F0C94732F85E2C1
S113060093E05FC08FE193E055C08BE193E049C074
S11306108A010F5F1F4F6C91662371F0C0E0D0E038
S11306202196CE018D599D4F0E941534F801619198
S11306308F016111F5CF02C0C0E0D0E060E0CE01CF
S11306408C599D4F0E94153442C08A010F5F1F4F81
S11306506C91662391F0C0E0D0E003C0C830D105AE
S113066071F02196CE01805F9C4F0E941534F801F1
S113067061918F016111F2CF02C0C0E0D0E060E06F
S1130680CE018F5E9C4F0E94153421C089E293E015
S113069008C08AE293E005C08AE193E002C08CE1DD
S11306A093E06C910E94153412C08DE193E002C076
S11306B08BE293E06D917C910E94333408C081E217
S11306C093E04D915D916D917C910E942734DF916F
S11306D0CF911F910F910895EF92FF920F931F9363
S11306E0CF93C62F0E94590A882309F446C08C2F41
S11306F090E08B30910508F040C0FC01E858FF4FB2
S11307000C94732F8AE290E030C088E891E02DC009
S11307108EEA91E02AC085ED91E027C086EF91E052
S113072024C081E192E021C087E292E01EC08CE304
S113073092E01BC080E592E018C08701CC23E9F069
S11307408C2F0E94170A78018FEFE81AF80AC80163
S11307500E940134C82F0E946D098111FCCFEDCF96
S113076080E090E002C080E691E08C010F5F1F4FB3
S11307700E940134C82F8111E3CFCF911F910F91B3
S1130780FF90EF900895EF92FF920F931F93CF93F2
S1130790DF938BE293E00E940F348B3B910509F0C9
S11307A0B6C08AE193E00E94013490E0853091055F
S11307B014F485E090E08531910514F084E190E033
S11307C0809310018BE193E00E940134823108F0A0
S11307D081E1809393058CE193E00E94013480933E
S11307E07F058DE193E00E940F3490930E01809376
S11307F00D018FE193E00E940F3490930E058093D6
S11308000D0581E293E00E9409346093870570939B
S113081088058093890590938A0585E293E00E9478
S113082009346093830570938405809385059093C0
S1130830860589E293E00E940134809382058AE26E
S113084093E00E9401348093810504E612E0C8E23B
S1130850D5E00F2EFCE3EF2EF5E0FF2EF02DC801BE
S11308600E940134899381110BC001E113E0C4E4B7
S1130870D5E00F2EFCE4EF2EF5E0FF2EF02D06C0A0
S11308800F5F1F4FCE15DF0551F7EFCFC8010E9450
S113089001348993882329F00F5F1F4FCE15DF059C
S11308A0A9F701EF12E0CEE5D5E00F2EFEE7EF2E1B
S11308B0F5E0FF2EF02DC8010E94013489930F5FEB
S11308C01F4FCE15DF05B9F78091870590918805F4
S11308D0A0918905B0918A05892B8A2B8B2BC9F0AD
S11308E0409183055091840560918505709186053A
S11308F08091870590918805A0918905B0918A051A
S113090084179507A607B70730F480E019C081E083
S113091017C080E015C08091870590918805A0914B
S11309208905B0918A0580589E4AAE4FBF4F809387
S1130930830590938405A0938505B093860580E094
S1130940DF91CF911F910F91FF90EF900895EF9257
S1130950FF920F931F93CF93DF930BE111E0C4E455
S1130960D5E00F2EF8E4EF2EF5E0FF2EF02DF80180
S113097061918F016883CE010E9439342196CE158E
S1130980DF05A9F760E085E193E00E943934109215
S1130990480510927F0560917F058CE193E00E94E9
S11309A039341092870510928805109289051092A7
S11309B08A05409187055091880560918905709159
S11309C08A0581E293E00E944734109283051092D5
S11309D084051092850510928605409183055091F7
S11309E08405609185057091860585E293E00E94F7
S11309F04734DF91CF911F910F91FF90EF900895AD
S1130A00CF93DF93EC010E940E0A60E0CE010E94B6
S1130A106C0361E0CE010E946C030E940E0A0E94E6
S1130A200E0ADF91CF910895CB01880F991F875843
S1130A309D4F0E940F3408959C012E5F3F4F2B332E
S1130A4081E0380710F02BE331E0ADECBCEC0E9400
S1130A50792F96958795969587959C01220F331F3C
S1130A60220F331F280F391F0E94792F96958795DF
S1130A70969587959C0120733327329522952F7084
S1130A8023273F7023272093140398B18F70907FFE
S1130A90892B88B98BB18C7F90911403892B8BB9E6
S1130AA008950E94B00961E08EE00E94630161E054
S1130AB08FE00E94630161E080E10E94630161E0D4
S1130AC081E10E94630161E080E00E94630161E0D2
S1130AD081E00E94630161E086E00E94630161E0BD
S1130AE086E00E947E020895EF92FF920F931F9377
S1130AF0CF93DF93E42EF52ED62FC72F00932C032C
S1130B0010932D0320932E0330932F0320E030E025
S1130B1041E553E46E2D7F2D8D2F9C2F0E94002ED6
S1130B2018166CF020E030E048EC52E46E2D7F2D76
S1130B308D2F9C2F0E945D2C882334F009C0E12C5A
S1130B40F12CD1E5C3E404C0E12CF12CD8ECC2E4CF
S1130B506E2D7F2D8D2F9C2F0E94D92C70932703EF
S1130B6060932603CB01880F991F0E94A22F9093B4
S1130B70160380931503DF91CF911F910F91FF907E
S1130B80EF90089580911503909116030E943A30D6
S1130B90089510921A0310921B0310921C031092D2
S1130BA01D0310921E0310921F0310922003109233
S1130BB021031092170308958F929F92AF92BF92D0
S1130BC0CF92DF92EF92FF92CF93DF93EC014A0131
S1130BD05B016091260370912703072E000C880B9C
S1130BE0990B0E94112D6B017C0180922803909235
S1130BF02903A0922A03B0922B03A50194010E9419
S1130C00052E20912C0330912D0340912E035091F9
S1130C102F030E94672C20E030E040E05FE30E9455
S1130C20F12B0E94D92C072E000C880B990B0E94E3
S1130C30112D2BED3FE049EC50E40E94052EA70155
S1130C4096010E94672C0E94622C9B01AC010E94B9
S1130C50F12B6093220370932303809324039093D6
S1130C602503CE010E94C905DF91CF91FF90EF903B
S1130C70DF90CF90BF90AF909F908F9008958F9208
S1130C809F92AF92BF92CF92DF92EF92FF92CF9357
S1130C90DF93EB01C0901E03D0901F03E09020036C
S1130CA0F0902103209122033091230340912403E7
S1130CB050912503C701B6010E94052E20911A0305
S1130CC030911B0340911C0350911D030E94F02B93
S1130CD04B015C01BE017250072E000C880B990B6E
S1130CE00E94112D9B01AC01C501B4010E94F12B9E
S1130CF0C0921A03D0921B03E0921C03F0921D03CE
S1130D0060931E0370931F03809320039093210329
S1130D10DF91CF91FF90EF90DF90CF90BF90AF9095
S1130D209F908F90089580911703811127C0E091BF
S1130D301803F0911903EE0FFF1F80911503909192
S1130D401603E80FF91F7183608380911803909153
S1130D501903019690931903809318032091260395
S1130D6030912703821793073CF0109219031092D5
S1130D70180381E0809317038091170308958091ED
S1130D80170308954F925F926F927F928F929F9272
S1130D90AF92BF92CF92DF92EF92FF920F931F9385
S1130DA0CF93DF938C01809126039091270318162B
S1130DB01906C4F4C0E0D0E0CE01880F991FE09179
S1130DC01503F0911603E80FF91F60817181C801C2
S1130DD00E943F0621968091260390912703C8170D
S1130DE0D90754F380901E0390901F03A090200312
S1130DF0B0902103C0901A03D0901B03E0901C0311
S1130E00F0901D03A5019401C501B4010E94052EB3
S1130E102B013C01A7019601C701B6010E94052ED2
S1130E209B01AC01C301B2010E94F12B2B013C01D7
S1130E3020912203309123034091240350912503F0
S1130E40C501B4010E94052EA70196010E94052E3A
S1130E509B01AC01C301B2010E94F02B6B017C0128
S1130E60C8010E94C905C701B601DF91CF911F9146
S1130E700F91FF90EF90DF90CF90BF90AF909F9035
S1130E808F907F906F905F904F900895E4E6F0E02C
S1130E9080818F7780831092B90085E28093B800B7
S1130EA084E08093BC0081E080930601089584EA85
S1130EB08093BC00ECEBF0E08081882364F08091A7
S1130EC006018111F9CF07C080E98093BC0081E05D
S1130ED0809306010895809106018823A9F380E098
S1130EE0089584E98093BC0008958093BB0084E84E
S1130EF08093BC00ECEBF0E08081882364F0809167
S1130F0006018111F9CF07C084E98093BC0081E018
S1130F108093060108958091B900887F8613F4CFE9
S1130F2080E0089584EC8093BC00ECEBF0E08081D9
S1130F30882324F0809106018111F9CF8091BB00B0
S1130F40089584E88093BC00ECEBF0E08081882372
S1130F5024F0809106018111F9CF8091BB0008959E
S1130F602091B900287F30E090E02817390729F054
S1130F7084E98093BC0081E0089580E00895CF93D4
S1130F80DF9300D000D000D0CDB7DEB78A836B8367
S1130F905D834C832E8319820E94570788E00E9448
S1130FA0B007982F81E0992309F480E0882311F099
S1130FB081E03FC068E18A810E947507982F81E033
S1130FC0992309F480E0882311F081E032C068E2BB
S1130FD08B810E947507982F81E0992309F480E0A2
S1130FE0882311F081E025C08E819FEF980F9E83A6
S1130FF091E0882309F490E09923C1F0898191E07C
S1131000980F9983882F90E02C813D81820F931F44
S1131010FC01808168E20E947507982F81E0992382
S113102009F480E0882301F381E003C00E94710782
S113103080E026960FB6F894DEBF0FBECDBFDF91D9
S1131040CF9108950F931F93CF93DF9300D000D0D7
S113105000D0CDB7DEB78A836B835D834C832E8348
S113106019820E94570788E00E94B007982F81E0F8
S1131070992309F480E0882311F081E079C068E1C4
S11310808A810E947507982F81E0992309F480E0F2
S1131090882311F081E06CC068E28B810E9475079F
S11310A0982F81E0992309F480E0882311F081E0EE
S11310B05FC00E94570780E10E94B007982F81E02B
S11310C0992309F480E0882311F081E051C08A81DA
S11310D0816060E40E947507982F81E0992309F4E8
S11310E080E0882311F081E043C08E819FEF980F48
S11310F09E8391E0882309F490E09923B1F18E81D5
S11311008823D9F0898191E0980F9983882F90E002
S11311102C813D818901080F191F0E949207F80153
S1131120808380E50E94B007982F81E0992309F419
S113113080E08823D1F281E01BC08981882F90E070
S11311402C813D818901080F191F0E94A107F80114
S1131150808388E50E94B007982F81E0992309F4E1
S113116080E0882311F281E003C00E94710780E0CF
S113117026960FB6F894DEBF0FBECDBFDF91CF9198
S11311801F910F9108958091330393E059E2282F22
S113119030E0529FF001539FF00D1124EE54FC4FA8
S11311A0408141110CC0915029F08F5F833078F356
S11311B080E0EDCF8093330380E090E00895809346
S11311C0330349E2429FC001439F900D11248E5482
S11311D09C4F08958091320393E059E2282F30E028
S11311E0529FF001539FF00D1124EE54FC4F4081A7
S11311F0442361F0915029F08F5F833078F380E0CD
S1131200EDCF8093320380E090E008958093320321
S113121049E2429FC001439F900D11248E549C4F7C
S1131220089580913103282F30E09FE3899FF001D6
S11312301124EC5CFC4F41815281452BA9F08F5F56
S1131240823008F080E0282F30E09FE3899FF0018E
S11312501124EC5CFC4F41815281452B29F0809391
S1131260310380E090E00895809331034FE3429F7F
S1131270C001439F900D11248C5C9C4F0895809174
S11312803003282F30E09FE3899FF0011124EC5CA8
S1131290FC4F41815281452BA9F48F5F823008F0C5
S11312A080E0282F30E09FE3899FF0011124EC5C5B
S11312B0FC4F41815281452B29F48093300380E017
S11312C090E00895809330034FE3429FC001439F11
S11312D0900D11248C5C9C4F089580912D040895E9
S11312E090912D0481E0911180E0911108C091E06A
S11312F090932D04E1ECF0E0908190629083089546
S113130080912D04882339F0E1ECF0E080818F7D19
S1131310808310922D0408959B01AC018EE7E4E3D1
S1131320F3E0DF011D928A95E9F7E2EBF3E0108226
S113133011A61092040460E472E48FE090E00E942D
S1131340322F215031093093C5002093C40088E91D
S11313508093C1008EE08093C2001092070108952B
S113136081E0809307011092C1000E9480098EE7FA
S1131370E4E3F3E0DF011D928A95E9F7E2EBF3E0A1
S1131380108211A61092040408950F931F93CF9313
S1131390DF9320910701211114C00097A1F08C0163
S11313A00E94EA080097B9F4C8ECD0E002C0209784
S11313B061F090912D04992351F02097D1F0219759
S11313C0F8CF81E01BC081E019C081E017C00E9402
S11313D0EA08009761F31F930F939F938F930E94E2
S11313E04E310E9470090F900F900F900F9080E083
S11313F005C00E94EA08009771F781E0DF91CF9160
S11314001F910F91089580910701811106C080E218
S113141091E00E94C5098111FACF089580910701D6
S1131420811104C083E291E00E94C509089590915E
S11314300701911107C0EEE2F4E080831182CF012D
S11314400E94C5090895CF9320910701211128C056
S1131450009741F1FC012081222331F10190002009
S1131460E9F73197E81BF90BBA9700F5C62FBC01D1
S113147049E250E08EE294E00E942231CC2359F0FC
S11314808EE294E00E94C5098111FACF80912D0467
S11314908111FCCF0CC08EE294E00E94C50907C004
S11314A081E005C081E003C081E001C081E0CF910B
S11314B008959091070181E0911180E008951F92B1
S11314C00F920FB60F9211242F933F934F935F9374
S11314D06F937F938F939F93AF93BF93EF93FF93F8
S11314E061E08BE00E947E026091790070E083E00D
S11314F095E00E949306882329F0EAE7F0E08081D2
S1131500877F808360E08BE00E947E02FF91EF91F1
S1131510BF91AF919F918F917F916F915F914F9107
S11315203F912F910F900FBE0F901F9018951F920F
S11315300F920FB60F9211241F932F933F934F9343
S11315405F936F937F938F939F93AF93BF93CF9347
S1131550DF93EF93FF931091C600C091D904D0910B
S1131560DA04209751F40E941109EC019093DA04F3
S11315708093D904892B09F462C1812F90E00E94E1
S113158008319C018091D804882321F081508093F4
S1131590D80455C12B3121F482E08093D8044FC183
S11315A02D3009F03FC080919704882331F1E091F8
S11315B0D704EE23F9F082E088838091950490911A
S11315C096049A83898380919404882379F090E027
S11315D001974091930454E1589F9001599F300D15
S11315E01124C20FD31FC40FD11D1B82F0E0E85693
S11315F0FB4F10820E940E0A04C08FEF9FE79A836C
S113160089831092D7041092930410929604109236
S11316109504109294041092DA041092D904109252
S113162097040DC1222309F40AC1E091D7044E2F77
S113163050E0DA01A856BB4F2C93EE2309F4D6C030
S11316402F3709F05FC0E150E093D70480919404F0
S1131650811113C0F0E0E856FB4F4081809195045E
S113166090919604841B91096AE070E00E941E2FF9
S1131670709396046093950439C0909193049923D0
S113168091F04FEF490F4093930490E0019754E198
S1131690589FB001599F700D1124C60FD71FC40F56
S11316A0D11D1B8223C0F0E0E856FB4F908190329D
S11316B0A1F4815080939404DE0194E1899FA00DEC
S11316C0B11D11241396FD0101900020E9F7319713
S11316D0EA1BFB0BE093930409C094E1899FC00DBE
S11316E0D11D11241B828150809394048091D704CE
S11316F0E82FF0E0E856FB4F1082811193C010925E
S1131700970490C0203279F5FA01E956FB4F8081A5
S1131710803209F494C080919404682F70E0FB0136
S1131720319633970CF08BC0882379F0615071099E
S113173090919304A4E1A69FF001A79FF00D1124BA
S1131740CE0FDF1FC90FD11D1B828F5F80939404BE
S1131750109293044F5F5F4F4E3351050CF04EE3EC
S11317604093D7045FC080919304843108F067C02C
S113177040919404411119C04091950450919604EC
S1131780BA01660F771F440F551F440F551F440FAE
S1131790551F460F571F420F511D509396044093F7
S11317A095048F5F8093930416C050E04150510913
S11317B091E0980F90939304E4E1E49FB001E59FD6
S11317C0700D1124C60FD71FFE01E80FF11D2383EE
S11317D0C90FD11D1B828091D70490E001968E33EE
S11317E091050CF08EE38093D7041CC02F3741F48D
S11317F0809195049091960418161906BCF01BC0AC
S11318002032E9F010929404C90199279093960428
S1131810809395041B821F8A1BA681E08093970402
S11318208093D704822F0E94170A09C0109296044D
S113183010929504F7CF1092960410929504FF919C
S1131840EF91DF91CF91BF91AF919F918F917F9154
S11318506F915F914F913F912F911F910F900FBE08
S11318600F901F9018951F920F920FB60F9211248C
S11318702F933F934F935F936F937F938F939F9394
S1131880AF93BF93EF93FF9380919104909192044F
S1131890892B31F40E94C30890939204809391049D
S11318A0E0919104F091920480919004DF01A80FDB
S11318B0B11D9C91992331F08F5F80939004909394
S11318C0C6000DC01092900410820E94C308909329
S11318D0920480939104892B11F40E948009FF9152
S11318E0EF91BF91AF919F918F917F916F915F9194
S11318F04F913F912F910F900FBE0F901F9018950D
S11319001F920F920FB60F9211248F929F92AF9253
S1131910BF92CF92DF92EF92FF920F931F932F9378
S11319203F934F935F936F937F938F939F93AF9363
S1131930BF93EF93FF93CF93DF931F92CDB7DEB79F
S113194080918B0590918C05A0918D05B0918E05A9
S11319500196A11DB11D80938B0590938C05A093D6
S11319608D05B0938E058091940590919505A09175
S11319709605B09197050196A11DB11D809394051C
S113198090939505A0939605B093970580911005C3
S1131990882329F08091100581508093100580914F
S11319A00F05882329F080910F05815080930F053E
S11319B080911601882391F180913F05882309F4D1
S11319C0B2C340918B0550918C0560918D05709147
S11319D08E058091870590918805A0918905B09125
S11319E08A05481759076A077B0708F49CC3409186
S11319F08B0550918C0560918D0570918E058091B9
S1131A00830590918405A0918505B09186054817BA
S1131A1059076A077B0708F402C385C380913F0511
S1131A208823D1F040918B0550918C0560918D05F0
S1131A3070918E058091830590918405A091850510
S1131A40B0918605481759076A077B0728F010925A
S1131A503F0581E08093160180911601811163C3D3
S1131A606091100170E088E295E00E94BA298C50E0
S1131A709E4F9C0136952795369527953695279543
S1131A80A5ECB0E20E94792F8C01129502950F709B
S1131A9001271F7001278091980590919905A091C5
S1131AA09A05B0919B05892B8A2B8B2B09F0E6C2F2
S1131AB080915305882309F4D4C2E0C28091930530
S1131AC0209156053091570590E040915C05509166
S1131AD05D05821B930B1816190614F081E090E043
S1131AE0849F9001859F300D949F300D1124C9016E
S1131AF0801B910B092E000CAA0BBB0B8093850451
S1131B0090938604A0938704B0938804109284046D
S1131B101092830410E0F6C220915305213031F570
S1131B2080915C0590915D054091980550919905CF
S1131B3060919A0570919B05092E000CAA0BBB0BB2
S1131B40840F951FA61FB71F012E000C220B330B09
S1131B50801B910BA20BB30B809385049093860496
S1131B60A0938704B093880411E0CCC2209153055C
S1131B70233009F0E2C020919305A0915605B0915D
S1131B805705E0911401F091150130E02A1B3B0B3D
S1131B902E173F0741F02091580530915905213007
S1131BA0310509F066C020915C0530915D056091B6
S1131BB05C0570915D05CA010E941E2FA901481B96
S1131BC0590BCA010417150714F540919805509153
S1131BD0990560919A0570919B05092E000CAA0B3A
S1131BE0BB0B840F951FA61FB71F012E000C220BE1
S1131BF0330B801B910BA20BB30B80938504909342
S1131C008604A0938704B093880411E07BC2401734
S1131C1051070CF07FC2C0909805D0909905E090D0
S1131C209A05F0909B0540915A0550915B05092E49
S1131C30000CAA0BBB0B8C0D9D1DAE1DBF1D052EEC
S1131C40000C660B770B840F951FA61FB71F012E80
S1131C50000C220B330B801B910BA20BB30B809354
S1131C60850490938604A0938704B093880411E0BC
S1131C7049C28090980590909905A0909A05B090DB
S1131C809B05E0919305E0905605F0905705A091CF
S1131C905C05B0915D05F0E0EE19FF09EA9F600173
S1131CA0EB9FD00CFA9FD00C11240D2C000CEE08E5
S1131CB0FF08CB01770FAA0BBB0BA5019401281BCE
S1131CC0390B4A0B5B0BDA01C9018C0D9D1DAE1D4E
S1131CD0BF1D012E000C220B330B801B910BA20B9A
S1131CE0B30B8093850490938604A0938704B093E8
S1131CF08804409198055091990560919A057091D6
S1131D009B0584179507A607B7070CF0F8C1409107
S1131D10540550915505052E000C660B770B840F66
S1131D20951FA61FB71F8093850490938604A093E4
S1131D308704B093880410E0E5C1809198059091E0
S1131D409905A0919A05B0919B0540918504509105
S1131D5086046091870470918804481759076A07BC
S1131D607B0709F0CEC180915405909155054091AF
S1131D7098055091990560919A0570919B05092EDB
S1131D80000CAA0BBB0B840F951FA61FB71F8093D3
S1131D90850490938604A0938704B093880410E08C
S1131DA0BAC100E001C001E0609198057091990505
S1131DB080919A0590919B0520915C0530915D0579
S1131DC0032E000C440B550B0E94542F672B682BD9
S1131DD0692B09F473C120C080915305882309F449
S1131DE07BC181E08093820420911401309115011C
S1131DF080915805909159058217930734F481E036
S1131E0090E0909315018093140110928404109231
S1131E108304011103C036C0002381F160911001D5
S1131E2070E082E89BE10E941E2FCB016AE070E023
S1131E300E941E2F660F771F709391056093900583
S1131E40198280912805882351F040E050E0BE01BA
S1131E506F5F7F4F88E295E00E94BC2809C040E094
S1131E6050E0BE016F5F7F4F85E392E00E94BC2883
S1131E701092180181E080939205B2C0809182048F
S1131E80882321F080911801811103C0112309F4E2
S1131E90A7C060E08DE00E947E02109282048091CF
S1131EA058059091590502970CF423C1209193058C
S1131EB04091140150911501809156059091570558
S1131EC030E0840F951F2817390709F00FC111C19D
S1131ED040914105509142054B5F5F4F809143050E
S1131EE0282F082E000C330B3F938F93FA01F6959D
S1131EF0E795F695E7959F01ABE7B4E10E94792F4A
S1131F009695879564E6689F9001699F300D11242A
S1131F10CA01821B930B9C01ADECBCEC0E94792F8F
S1131F209695879596958795969587959F938F9384
S1131F309F01ABE7B4E10E94792F969587959F9313
S1131F408F9385E291E09F938F938BED94E09F9321
S1131F508F930E944E316BED74E083E195E00E9413
S1131F601B3119820FB6F894DEBF0FBECDBF12C06D
S1131F708091930590E0BC01660F771F660F771F71
S1131F80680F791F66547D4F83E195E00E941B31F1
S1131F9081E0898360910F0170E082E89BE10E94F7
S1131FA01E2FCB016AE070E00E941E2F660F771F80
S1131FB0709391056093900540E050E0BE016F5F1F
S1131FC07F4F83E195E00E94BC2881E080939205D5
S1131FD08091140190911501909313018093120143
S1131FE0109253058091980590919905A0919A05B6
S1131FF0B0919B050196A11DB11D80939805909306
S11320009905A0939A05B0939B05809183049091C0
S113201084040196909384048093830484C0109272
S11320208F051092160181E0898340E050E0BE01E3
S11320306F5F7F4F83E195E00E94BC2860910F01A0
S113204070E082E89BE10E941E2FCB016AE070E001
S11320500E941E2F660F771F709391056093900561
S113206062C0209154053091550580915A05909194
S11320705B05821793070CF021CD48CD609198053C
S11320807091990580919A0590919B0520915A052C
S113209030915B05032E000C440B550B0E94542F0A
S11320A0AB017093840460938304209154053091B0
S11320B05505232B09F030CD10E024C080919805FC
S11320C090919905A0919A05B0919B05892B8A2B33
S11320D08B2B09F081CE85CE80911401909115014E
S11320E0019690931501809314017BCE1092920572
S11320F077CF80919305833109F03ACFE9CE10E090
S113210001C010E08091580590915905892B09F080
S113211048CEB4CE11E08091580590915905892B91
S113212009F47CCE40CE0F90DF91CF91FF91EF91D7
S1132130BF91AF919F918F917F916F915F914F91DB
S11321403F912F911F910F91FF90EF90DF90CF90CF
S1132150BF90AF909F908F900F900FBE0F901F90E5
S113216018951F920F920FB60F9211242F933F933D
S11321704F935F936F937F938F939F93AF93BF938B
S1132180EF93FF938091810491E0811190E090930B
S1132190810490915105992361F0811105C061E09A
S11321A089E00E947E0209C060E089E00E947E020C
S11321B004C060E089E00E947E02FF91EF91BF912C
S11321C0AF919F918F917F916F915F914F913F91CB
S11321D02F910F900FBE0F901F9018951F920F9282
S11321E00FB60F9211248F939F93EF93FF938091D7
S11321F01701882309F44BC080918005811130C0F8
S11322008091800481112CC080917E058823A1F0E7
S113221036C01092800498B18F70907F892B88B952
S11322209BB180917F04807382958F709C7F892BF2
S11322308BB910927F042BC080917F048F3339F1C6
S11322408FE380937F0488B18F6088B98BB19091BC
S11322507F04907392959F708C7F892B8BB917C0E4
S1132260E091800491E09E0F90938004F0E0E25AA4
S1132270FA4F808180937F04903258F6CCCF81E06E
S11322808093800480915E0580937F04C4CFFF9186
S1132290EF919F918F910F900FBE0F901F90189503
S11322A08091830590918405A0918505B091860560
S11322B081159646AE4EBF4508F467C080918305EC
S11322C090918405A0918505B09186058115964667
S11322D0AE4EBF4508F45BC080918B0590918C0590
S11322E0A0918D05B0918E0581159646AE4EBF45E1
S11322F008F44FC040918305509184056091850591
S1132300709186058091870590918805A091890533
S1132310B0918A0584179507A607B707E0F54091A1
S11323208B0550918C0560918D0570918E0580917F
S1132330830590918405A0918505B0918605841745
S11323409507A607B70748F140918B0550918C0576
S113235060918D0570918E05809187059091880517
S1132360A0918905B0918A0584179507A607B70738
S113237030F480911601811112C085E00895809196
S11323803F05882371F081E0089582E0089582E09A
S1132390089582E0089582E0089582E0089583E03C
S11323A0089584E0089520911201309113019FE271
S11323B0921B97BD8093510508951F920F920FB6FB
S11323C00F9211242F933F934F935F936F937F93B7
S11323D08F939F93AF93BF93EF93FF93CF93DF9329
S11323E000D0CDB7DEB78091040590910505A0918A
S11323F00605B09107050196A11DB11D8093040542
S113240090930505A0930605B093070581E08983A1
S11324101A8284E00E94330290913E05992309F4C4
S11324203DC1882309F43DC139C144E050E060E076
S113243070E04093940550939505609396057093CE
S1132440970591E090933D0590910C01891325C067
S113245020914F05309150052B3B304154F420918D
S11324604F05309150052F5F3F4F30935005209317
S11324704F0520914F0530915005203931059CF0CE
S1132480813009F41DC192E090934E0581110BC077
S113249061E08DE00E947E0206C080930C011092E0
S11324A0500510924F0580911601811113C180913E
S11324B09205882309F40EC180918E0490918F04B3
S11324C0892B09F401C106C161E088E00E947E0203
S11324D084E995E090938D0480938C0401C18091EC
S11324E08C0490918D04009731F0019790938D04A2
S11324F080938C04F5C080918A0490918B0400979A
S1132500E1F1019790938B0480938A04892B09F05D
S1132510E7C0AE014E5F5F4FBE016F5F7F4F80E04B
S113252090E00E94BC28809389048981811114C0A1
S11325308A81882389F01092890481E080931801AC
S113254080915205882341F01092920584E995E028
S113255090938F0480938E04609189048DE00E948F
S11325607E02609189048AE00E947E02809189043F
S1132570809380050E94D311B3C080914E058230B0
S113258029F0609189048DE00E947E0260918904A3
S11325908AE00E947E0280918904809380050E94D3
S11325A0D311809190059091910590938B04809321
S11325B08A0496C080918C0490918D04009739F41C
S11325C084E690E090938D0480938C041CC0019762
S11325D090938D0480938C04892BA9F460E088E0A7
S11325E00E947E0210C080918E0490918F04009707
S11325F051F0019790938F0480938E04892B19F4E2
S113260081E08093920580918F05882379F18091F0
S11326108A0490918B04009701F1019790938B04A5
S113262080938A04892B81F5AE014E5F5F4FBE0112
S11326306F5F7F4F80E090E00E94BC288093890404
S1132640682F8DE00E947E02809190059091910503
S113265090938B0480938A0417C080919005909185
S1132660910590938B0480938A040EC08091890411
S1132670882351F01092890480914E05823021F014
S113268060E08DE00E947E0260E08AE00E947E02AB
S11326901092800580E00E94D31122C010923E0562
S11326A0D3CE409194055091950560919605709113
S11326B09705433051056105710509F0C5CEB5CEC6
S11326C081E080934E05EFCE88E00E9433028111B1
S11326D006CFFACE88E00E94330281116BCF83CFFC
S11326E00F900F90DF91CF91FF91EF91BF91AF9138
S11326F09F918F917F916F915F914F913F912F9116
S11327000F900FBE0F901F9018950F931F93CF93A8
S1132710DF9300D0CDB7DEB7162F009731F0FC0160
S11327208081823111F0809393050E94262A609360
S11327308B0570938C0580938D0590938E05109274
S11327405205F894E09193058E2F90E0FC013197A7
S1132750E331F10508F084C0ED57FF4F0C94732F5B
S11327608CE390E090935D0580935C058CE291E0AE
S113277090935B0580935A0525E030E0309359052A
S113278020935805109257051092560528E020937F
S11327900F01909355058093540590C08CE090E010
S11327A090935D0580935C058CE390E090935B05CA
S11327B080935A0585E090E09093590580935805DD
S11327C088E080930F0187E090E090935705809311
S11327D0560588E592E090935505809354056EC0A4
S11327E08CE090E090935D0580935C052CE330E0F1
S11327F030935B0520935A0525E030E0309359056A
S1132800209358052FE020930F0190935705809350
S1132810560588E592E090935505809354054EC083
S11328208EE190E090935D0580935C058CE390E0ED
S113283090935B0580935A0522E030E0309359056C
S11328402093580528E020930F0122E130E03093D3
S113285057052093560590935505809354052EC033
S1132860809181058093520581E090E09093590511
S11328708093580588E080930F0180918105811130
S113288003C088E592E002C08CE390E09093550584
S113289080935405809154059091550590935D055E
S11328A080935C051092570510925605809154054B
S11328B09091550590935B0580935A05111106C0BC
S11328C010923F0581E080931601E0C0113099F425
S11328D081E090E090931501809314011092980583
S11328E01092990510929A0510929B0510923F053B
S11328F010921601CBC01230B9F580919305209146
S113290056053091570590E0821B930B1816190653
S113291014F081E090E090931501809314012091CC
S113292014013091150140915C0550915D052150D1
S11329303109249FC001259F900D349F900D1124CF
S1132940092E000CAA0BBB0B809398059093990554
S1132950A0939A05B0939B0510923F05109216011F
S113296081E08093530592C040918705509188057A
S11329706091890570918A0580918B0590918C05F1
S1132980A0918D05B0918E05481759076A077B07FA
S113299008F069C080918B0590918C05A0918D05FC
S11329A0B0918E0540918705509188056091890505
S11329B070918A05841B950BA60BB70B8093980521
S11329C090939905A0939A05B0939B0560919805FF
S11329D07091990580919A0590919B0520915A05D3
S11329E030915B0500915C0510915D05032E000C90
S11329F0440B550B0E94542F9801110F440B550B97
S1132A000E94542FBA01A9014F5F5F4F6F4F7F4F50
S1132A1080915805909159059A83898389819A8177
S1132A20092E000CAA0BBB0B84179507A607B70742
S1132A303CF429813A81C901330FAA0BBB0B0BC0AB
S1132A40DB01CA01141615061606170624F081E0E8
S1132A5090E0A0E0B0E0909315018093140183E02E
S1132A60809353050EC01092980510929905109208
S1132A709A0510929B0581E090E090931501809354
S1132A80140181E080933F05809316018091140125
S1132A9090911501909313018093120180E00E949C
S1132AA0D3111092910510929005109292051092F4
S1132AB0400560E08DE00E947E0260E08AE00E94B2
S1132AC07E021092800510928F0510924005789432
S1132AD00F900F90DF91CF911F910F9108958FEF79
S1132AE09FEFEAE7F0E0208126FF04C0009711F091
S1132AF00197F9CF2091780030917900EAE7F0E06E
S1132B00908190649083C90108950F931F93CF938C
S1132B10DF9360910D0170910E01072E000C880B5C
S1132B20990B0E94112D20E030E040E251E40E9414
S1132B30672C062F172FD82FC92F20E030E048E448
S1132B4053E40E94002E18166CF020E030E048E4B4
S1132B5053EC602F712F8D2F9C2F0E945D2C8823A6
S1132B6034F009C000E010E0D8E4C3E404C000E09D
S1132B7010E0D8E4C3EC0E946F150E946F15BC01ED
S1132B8080E090E00E940F2D2EEA37E242EA53E4FF
S1132B900E94F02B26EF38E24CE95FE30E94672C99
S1132BA0202F312F4D2F5C2F0E94F12B0E94722E6B
S1132BB0DF91CF911F910F9108950E946F150E948C
S1132BC06F159C01ADEEB0E00E94792FDC01CB01C2
S1132BD0689416F8B695A795979587951694D1F7A6
S1132BE0089510927A0010927B0010927C0081115B
S1132BF022C0ECE7F0E08081866080838081806C75
S1132C008083808180628083EAE7F0E0808186604F
S1132C1080838081806280838081886080838081DA
S1132C2080688083662321F180818860808380812D
S1132C30806480830895ECE7F0E09081906C908349
S1132C40813021F480818860808305C0ECE7F0E066
S1132C50808187608083EAE7F0E0808187608083F9
S1132C608081806880838081806480830E946F1566
S1132C700895FC012191222341F030E020533109D1
S1132C802A303105B8F380E0089581E00895CF93A8
S1132C90C82F0E945011F894C1110EC0823031F433
S1132CA060E080E090E00E9485133EC063E080E035
S1132CB090E00E94851338C0C230C9F4823031F4E8
S1132CC061E080E090E00E9485132EC0813019F00D
S1132CD08350823030F461E080E090E00E948513FC
S1132CE023C063E080E090E00E9485131DC0823021
S1132CF031F461E080E090E00E94851315C08130DA
S1132D0031F462E080E090E00E9485130DC08430CD
S1132D1031F463E080E090E00E94851305C063E035
S1132D2080E090E00E94851310928F057894CF91F3
S1132D300895CF93C82F0E945011F894C23031F4F3
S1132D4060E080E090E00E94851315C0813031F48A
S1132D5062E080E090E00E94851308C0843031F482
S1132D6060E080E090E00E94851305C060E080E0B0
S1132D7090E00E94851380914E05823021F460E03A
S1132D808DE00E947E02CF9108951F920F920FB69C
S1132D900F9211242F933F934F935F936F937F93DD
S1132DA08F939F93AF93BF93EF93FF9384E00E941D
S1132DB033021092500510924F058823D9F0809168
S1132DC01601882371F080914E05823099F4109297
S1132DD04E0560E08DE00E947E0281E00E9447166D
S1132DE009C080914E05823029F410924E0581E08D
S1132DF00E949916FF91EF91BF91AF919F918F918E
S1132E007F916F915F914F913F912F910F900FBEE2
S1132E100F901F9018950E94262A60938B0570933B
S1132E208C0580938D0590938E05809128058111E2
S1132E3005C065E08CE995E00E946C0380918B05E8
S1132E4090918C05A0918D05B0918E0581159646C3
S1132E50AE4EBF4528F462E08CE995E00E946C0315
S1132E604091830550918405609185057091860594
S1132E7080918B0590918C05A0918D05B0918E0564
S1132E80481759076A077B0700F540918705509159
S1132E9088056091890570918A0580918B059091D0
S1132EA08C05A0918D05B0918E05481759076A07C6
S1132EB07B0728F463E08CE995E00E946C0364E0EE
S1132EC08CE995E00E946C03089540918705509128
S1132ED088056091890570918A0580918B05909190
S1132EE08C05A0918D05B0918E05481759076A0786
S1132EF07B0728F461E081E391E00E94230A0895AE
S1132F002F923F924F925F926F927F928F929F92F5
S1132F10AF92BF92CF92DF92EF92FF920F931F93E3
S1132F20CF93DF93CDB7DEB72C970FB6F894DEBFFF
S1132F300FBECDBF2B013C0149015A016217730733
S1132F408407950750F0E114F10409F404C161E029
S1132F50C7010E94230A81E0FFC00115110521F079
S1132F6061E0C8010E94230A75016401C418D508F0
S1132F70E608F708C701B60120E833E341EE51E063
S1132F800E94322F29013A014427552760E873E350
S1132F9081EE91E00E94FA2EC61AD70AE80AF90ACD
S1132FA0C701B60120E831E541E050E00E94322F2C
S1132FB049015A0119014427552760E871E581E068
S1132FC090E00E94FA2EC61AD70AE80AF90AC70145
S1132FD0B60120E13EE040E050E00E94322F298318
S1132FE03A834B835C8329813A813A8729872981F3
S1132FF03A814B815C8144275527A0E1BEE00E94C1
S11330008F2FC61AD70AE80AF90AC701B6012CE3BA
S113301030E040E050E00E94322F2D833E834F8306
S113302058870D811E812CE3209FC001219F900DA4
S11330301124A601481B590B5C874B871092DB04B3
S113304041145104B9F05F924F9283E491E09F934D
S11330508F938BED94E09F938F930E944E3161E0A8
S11330608BED94E00E94230A0F900F900F900F9025
S11330700F900F902328B9F09F928F928BE491E0E8
S11330809F938F938BED94E09F938F930E944E3187
S113309061E08BED94E00E94230A0F900F900F9053
S11330A00F900F900F9089859A85892BC9F09A818A
S11330B09F93E981EF9384E591E09F938F938BED48
S11330C094E09F938F930E944E3161E08BED94E0E6
S11330D00E94230A0F900F900F900F900F900F9063
S11330E0012BC9F0FE81FF932D812F938CE591E094
S11330F09F938F938BED94E09F938F930E944E3117
S113310061E08BED94E00E94230A0F900F900F90E2
S11331100F900F900F903C853F934B854F9384E61F
S113312091E09F938F938BED94E09F938F930E94F4
S11331304E3161E08BED94E00E94230A0E940E0A56
S1133140EBEDF4E010820F900F900F900F900F9022
S11331500F9080E001C081E02C960FB6F894DEBF9A
S11331600FBECDBFDF91CF911F910F91FF90EF90D4
S1133170DF90CF90BF90AF909F908F907F906F9093
S11331805F904F903F902F900895EF92FF920F938E
S11331901F9363E080E090E00E9485130E94262A3A
S11331A060938B0570938C0580938D0590938E05A9
S11331B00E945011823009F45AC020918705309141
S11331C088054091890550918A0560918B0570911D
S11331D08C0580918D0590918E050F2EFBE6EF2EC8
S11331E0F1E0FF2EF02D08E711E00E9480172091F6
S11331F08305309184054091850550918605609141
S11332008705709188058091890590918A05E12C44
S1133210F12C04E811E00E94801740918705509139
S113322088056091890570918A0580918B0590913C
S11332308C05A0918D05B0918E05481759076A0732
S11332407B07B8F42091830530918405409185056E
S11332505091860560918B0570918C0580918D0548
S113326090918E050CE811E00E94801702C00E9424
S11332700B171F910F91FF90EF9008954F925F925B
S11332806F927F928F929F92AF92BF92EF92FF9232
S11332900F931F93CF93DF93CDB7DEB72C970FB661
S11332A0F894DEBF0FBECDBF8C01E42EFC0101906B
S11332B00020E9F73197E81BF90B25E0673872071E
S11332C049F580918B0590918C05A0918D05B09165
S11332D08E0589879A87AB87BC8780E096E6AEEE39
S11332E0BFE589839A83AB83BC8389859A85AB8543
S11332F0BC8581159646AE4EBF4528F489809A80D8
S1133300AB80BC8004C089849A84AB84BC84FF24D1
S1133310F39442C063587540A9F580918705909154
S11333208805A0918905B0918A058D839E83AF831A
S1133330B88780918B0590918C05A0918D05B091F3
S11333408E0589839A83AB83BC834D815E816F81B3
S1133350788589819A81AB81BC81481759076A07AE
S11333607B0740F489809A80AB80BC806894FF24FA
S1133370F1F812C08D809E80AF80B8846894FF24D9
S1133380F1F80AC0F12C0F2E812CF6E69F2EFEEEEA
S1133390AF2EFFE5BF2EF02DEC30F10509F05EC035
S11333A0C8010E943916882309F44FC0B80180E08F
S11333B090E00E94552A2B013C01AE2DEE0CBB0B74
S11333C020E13EE00E94882F640D751D861D971D27
S11333D086169706A806B90608F445C021E0F2123D
S11333E009C068E08CE995E00E946C0360E070E03D
S11333F0CB0139C022E0F2121FC000918B0510915D
S11334008C0520918D0530918E0560177107820718
S1133410930748F467E08CE995E00E946C0360E050
S113342070E0CB0120C066E08CE995E00E946C035B
S113343060E070E0CB0117C06AE08CE995E00E947F
S11334406C0360E070E0CB010EC069E08CE995E0AC
S11334500E946C0360E070E0CB0105C0EF2BA9F77C
S113346060E070E0CB012C960FB6F894DEBF0FBE7F
S1133470CDBFDF91CF911F910F91FF90EF90BF903F
S1133480AF909F908F907F906F905F904F90089532
S1133490833009F128F4882349F08230A9F037C039
S11334A0853039F1F8F0863059F131C088EE93E077
S11334B0909389008093880060E071EE80E090E052
S11334C00E948C0980E02AC08CE292E090938900EB
S11334D08093880026C081E792E0909389008093CE
S11334E088001FC08AEC92E0909389008093880042
S11334F018C081E493E0909389008093880011C000
S113350088EE93E090938900809388000AC084EF4A
S113351091E0909389008093880003C08093170101
S113352008950E94510581E0F9CF2F923F924F9266
S11335305F926F927F928F929F92AF92BF92CF923F
S1133540DF92EF92FF920F931F93CF93DF93CDB748
S1133550DEB72C970FB6F894DEBF0FBECDBF0F2E8B
S1133560FDE96F2EF1E07F2EF02D0F2EFBEDAF2E37
S1133570F4E0BF2EF02D0F2EF3E12F2EF5E03F2EB9
S1133580F02D0F2EF6E18F2EF2E09F2EF02D0F2E50
S1133590FDE14F2EF2E05F2EF02D0E943F096C01F9
S11335A0009709F43FC5DC0111968D919C91129707
S11335B0863CBEE19B0729F178F48E31F3E09F0746
S11335C009F415C18F362DE1920709F44DC2873DE8
S11335D0924009F003C5ADC08237A3E29A0709F40B
S11335E077C128F48A3E924209F409C2F7C48433AD
S11335F0F4E29F0709F4CFC0853C944209F474C4F3
S1133600EDC4D60113968C91139790E0009709F4BA
S11336107BC08234910509F4EDC48634910509F424
S1133620EBC483349105D1F457968C9157975896EF
S11336301C92823429F090E0C0970A9708F064C085
S1133640C60147960E94C330992314F480E090E0A9
S113365086309105CCF185E090E036C08335910544
S113366079F5F6018789908D118E823489F186343B
S113367039F48FEC890F853068F58CED890F18C00B
S1133680833539F48FEC890F8530B8F487ED890FD1
S11336900FC0963431F49FEC980F9530E8F48452BF
S11336A007C09335D9F49FEC980F9530C8F489522C
S11336B099EF980F9B3010F0A1C487E090E004C00C
S11336C0C60103960E94C33082319105E8F409C013
S11336D080E007C080E005C080E003C080E001C056
S11336E080E08983AE014F5F5F4F60E18CE995E034
S11336F00E94EA02809193059981981729F060E06D
S1133700CE0101960E948513809193051F928F9399
S11337107F926F92BF92AF920E944E3160E0C501DA
S11337200E94230A0F900F900F900F900F900F900C
S113373059C4D60113968C918823B1F0C60103961F
S11337400E94E13070E0673071050CF066E0609330
S11337507F054FE755E061E18CE995E00E94EA02BC
S113376080917F050E94481A80917F051F928F9354
S113377085EA91E09F938F93BF92AF920E944E315E
S113378060E0C5010E94230A0F900F900F900F90E4
S11337900F900F9027C4F6018381882311F18033A1
S11337A021F482E00E9499161DC4813321F482E041
S11337B00E94471617C4823331F481E080931601C6
S11337C00E94C5180FC4833331F462E080E090E0B6
S11337D00E94851307C461E08CEA91E00E94230AE9
S11337E001C461E08CEA91E00E94230AFBC3D60184
S11337F013968C91882399F180E290E0F5019183EE
S11338008083B6016D5F7F4FC5010E941031D601E0
S113381057968C91882379F0F50101900020E9F7FF
S1133820319780E290E091838083B601695E7F4F97
S1133830C5010E941031F50101900020E9F731978C
S1133840EB5DF440759758F4B50188E295E00E9469
S11338501B31A5016BE08CE995E00E94EA02F101BD
S113386085898823F1F06091100170E088E295E089
S11338700E94BA29885A9D4F9C0136952795369502
S1133880279536952795A5ECB0E20E94792F92955D
S113389082958F7089279F70892790931205809352
S11338A0110588E295E09F938F9381EB91E09F93BC
S11338B08F93BF92AF920E944E3161E0C5010E9486
S11338C0230A0F900F900F900F900F900F908AC3C0
S11338D0D60113968C911397833509F051C05796EE
S11338E08C918823D1F1C60147960E94E130862F3E
S11338F090E08530910514F485E090E085319105E0
S11339000CF084E18093100140E151E06FE08CE918
S113391095E00E94EA02F10185898823F1F0609123
S1133920100170E088E295E00E94BA29885A9D4F00
S11339309C01369527953695279536952795A5ECC0
S1133940B0E20E94792F929582958F7089279F709B
S113395089279093120580931105809110011F927D
S11339608F9388EB91E09F938F93BF92AF920E94C5
S11339704E310F900F900F900F900F900F903AC010
S1133980803581F5F60187898823C9F0813339F0C0
S1133990843539F091E0893529F090E003C091E055
S11339A001C091E09093810541E855E067E18CE91D
S11339B095E00E94EA0280918105809352058091EE
S11339C081051F928F9384EC91E09F938F93BF9214
S11339D0AF920E944E310F900F900F900F900F9066
S11339E00F9008C085E0ECEAF1E0D50101900D925A
S11339F08A95E1F760E0C5010E94230AF3C2F6014B
S1133A0083818823D1F048E050E0B6016D5F7F4F99
S1133A10C5010E942231D50118961C92C5010E944D
S1133A203916882351F0F50101900020E9F7319708
S1133A30EB5DF440349708F0E3C284E495E09F938F
S1133A408F938CEC91E09F938F93BF92AF920E94DF
S1133A504E3161E0C5010E94230A0F900F900F9030
S1133A600F900F900F90BEC2F6018381843509F048
S1133A7074C04CE050E0B601695E7F4FC5010E94FE
S1133A802231D5011C961C924091820541956BE828
S1133A9075E0C5010E943E1969877A878B879C87E8
S1133AA0611571058105910541F10E94062A8985F8
S1133AB09A85AB85BC8580938B0590938C05A093E8
S1133AC08D05B0938E0580918B0590918C05A09106
S1133AD08D05B0918E05BF93AF939F938F9389ED1E
S1133AE091E09F938F93BF92AF920E944E310FB695
S1133AF0F894DEBF0FBECDBF90C2209187053091F0
S1133B0088054091890550918A0560918B057091D3
S1133B108C0580918D0590918E05E12CF12C08E7A0
S1133B2011E00E94801780918B0590918C05A091E3
S1133B308D05B0918E05BF93AF939F938F9384EDC2
S1133B4091E09F938F93BF92AF920E944E310FB634
S1133B50F894DEBF0FBECDBF60C2833509F096C0B6
S1133B60B601695E7F4FC5010E941B3140918205F9
S1133B70419567E875E0C5010E943E19611571051C
S1133B808105910509F468C06093870570938805E1
S1133B908093890590938A0547E855E064E18CE9B0
S1133BA095E00E94EA028091830590918405A0919A
S1133BB08505B09186058D839E83AF83B8878091F8
S1133BC0870590918805A0918905B0918A05805850
S1133BD09E4AAE4FBF4F89839A83AB83BC834D818A
S1133BE05E816F817885481759076A077B0728F437
S1133BF089819A81AB81BC8104C08D819E81AF8112
S1133C00B8858093830590938405A0938505B0932C
S1133C10860543E855E065E18CE995E00E94EA02F7
S1133C208091870590918805A0918905B0918A05B6
S1133C30BF93AF939F938F9383EE91E09F938F9362
S1133C40BF92AF920E944E310E94C5180FB6F894ED
S1133C50DEBF0FBECDBFE1C180918705909188057D
S1133C60A0918905B0918A05BF93AF939F938F93D9
S1133C7083EE91E09F938F93BF92AF920E944E3157
S1133C800FB6F894DEBF0FBECDBFC7C1863409F0AE
S1133C906FC0B601695E7F4FC5010E941B31409120
S1133CA08205419563E875E0C5010E943E196115DE
S1133CB071058105910509F441C0609383057093F2
S1133CC08405809385059093860543E855E065E176
S1133CD08CE995E00E94EA022091830530918405E5
S1133CE040918505509186056091870570918805FE
S1133CF08091890590918A05E12CF12C04E811E06A
S1133D000E9480178091830590918405A091850578
S1133D10B0918605BF93AF939F938F938EEE91E0FE
S1133D209F938F93BF92AF920E944E310E94C51809
S1133D300FB6F894DEBF0FBECDBF6FC1809183056F
S1133D4090918405A0918505B0918605BF93AF93AA
S1133D509F938F938EEE91E09F938F93BF92AF9238
S1133D600E944E310FB6F894DEBF0FBECDBF55C1D1
S1133D708F34A9F587898823D9F0C60147960E9414
S1133D80C330893154F4082E000C990B883EBFEFE0
S1133D909B072CF488EE9FEF02C088E190E08093AB
S1133DA0820542E855E066E18CE995E00E94EA026A
S1133DB080918205282F082E000C330B3F938F939C
S1133DC08AEF91E09F938F93BF92AF920E944E31FE
S1133DD00F900F900F900F900F900F901EC183348F
S1133DE009F5F6018789882351F0C60147960E9498
S1133DF0C3308115F2E09F0710F40E943F2B0E940C
S1133E00D42B9F938F9385E092E09F938F93BF92DF
S1133E10AF920E944E310F900F900F900F900F9021
S1133E200F90FBC00E945011823019F40E940B17AE
S1133E30D9C020918705309188054091890550911A
S1133E408A0560918B0570918C0580918D05909108
S1133E508E050F2EFBE6EF2EF1E0FF2EF02D08E786
S1133E6011E00E94801720918305309184054091D0
S1133E70850550918605609187057091880580912C
S1133E80890590918A05E12CF12C04E811E00E9447
S1133E90801740918705509188056091890570913C
S1133EA08A0580918B0590918C05A0918D05B09128
S1133EB08E05481759076A077B0708F093C02091BD
S1133EC08305309184054091850550918605609164
S1133ED08B0570918C0580918D0590918E050CE871
S1133EE011E00E9480177EC0D60113968C9113971F
S1133EF0833489F557968C918823A9F0C601479697
S1133F000E94C3309C012153384F2F393F4058F44D
S1133F1090930E0180930D014DE051E062E18CE934
S1133F2095E00E94EA0280910D0190910E019F9309
S1133F308F93EBE0F2E0FF93EF93BF92AF920E9476
S1133F404E3161E0C5010E94230A0F900F900F903B
S1133F500F900F900F9080914305282F082E000C8E
S1133F60330B3F938F939F928F92BF92AF920E9495
S1133F704E3161E0C5010E94230A409141055091F0
S1133F804205FA01F695E795F695E7959F01ABE7AB
S1133F90B4E10E94792F9695879564E6689F900115
S1133FA0699F300D1124421B530B5F934F939F0164
S1133FB00E94792F969587959F938F935F924F9246
S1133FC0BF92AF920E944E3161E0C5010E94230A64
S1133FD00FB6F894DEBF0FBECDBF04C08CE995E0E8
S1133FE00E940005D60112961C921E9211970E94FF
S1133FF0030AD3CA80E075CB86E073CB80E071CB33
S1134000B50184E495E00E941B3144E455E06EE080
S11340108CE995E00E94EA0210CD61E0C5010E949E
S1134020230AE0CF2C960FB6F894DEBF0FBECDBFA7
S1134030DF91CF911F910F91FF90EF90DF90CF9080
S1134040BF90AF909F908F907F906F905F904F90B4
S11340503F902F900895CF92DF92EF92FF92CF93EB
S1134060DF931F92CDB7DEB7843439F41092110177
S1134070109209011092080120C49091110191112C
S113408007C022E130E03093090120930801ABC35B
S11340908A32A9F481E090E09093090180930801A9
S11340A010927B0410927A0410927904109278048E
S11340B0109277041092760480911101FEC3E0916E
S11340C00801F09109013197E431F10508F0F5C3D5
S11340D0282FEA56FF4F0C94732F10927B041092F2
S11340E07A04109279041092780410927704109252
S11340F0760480911101882309F4DFC3213439F453
S113410082E090E09093090180930801D6C32234A1
S113411039F483E190E09093090180930801CDC3C1
S1134120233439F487E090E09093090180930801E7
S1134130C4C32A3209F4C1C330E020533109309397
S11341407904209378048091170181110E9451050C
S113415084E190E09093090180930801AEC310922A
S1134160090110920801803339F483E090E09093C0
S1134170090180930801A1C3813339F484E090E0FC
S1134180909309018093080198C3823339F485E040
S113419090E090930901809308018FC3833339F42D
S11341A086E090E0909309018093080186C38833E8
S11341B009F083C380917504882309F47EC381E1E7
S11341C090E0909309018093080177C380ED820FFA
S11341D08A3008F54091780450917904CA01880F17
S11341E0991F440F551F440F551F440F551F480F67
S11341F0591F30E020533109420F531F5093790463
S1134200409378048091760490917704019690937A
S113421077048093760480917604909177040297D2
S11342200CF44BC31092090110920801809193057C
S113423090917804981341C381E090E09093090130
S1134240809308013AC3833209F037C382E00E94A5
S1134250991610920901109208012FC3833209F0B4
S11342602CC382E00E9447161092090110920801A3
S113427024C3833209F021C30E94C5181092090196
S1134280109208011AC3833209F017C362E080E078
S113429090E00E94851310920901109208010DC349
S11342A0813339F488E090E0909309018093080108
S11342B004C3823339F489E090E090930901809338
S11342C00801FBC2833339F48DE090E09093090137
S11342D080930801F2C2843339F48AE090E0909329
S11342E0090180930801E9C2853339F48BE090E039
S11342F09093090180930801E0C2863369F48CE04D
S113430090E0909309018093080181E090E09093FC
S1134310770480937604D1C2893339F48EE090E037
S11343209093090180930801C8C2813439F48FE065
S113433090E09093090180930801BFC2823439F45C
S113434080E190E09093090180930801B6C2109235
S1134350090110920801B1C28332C1F480917A0438
S113436090917B0404976CF060E674E084E495E03B
S11343700E941B3144E455E06EE08CE995E00E9414
S1134380EA02109209011092080197C280ED820F8F
S11343908A3008F092C280917A0490917B0489302B
S11343A091050CF08AC2AC014F5F5F4F50937B04C0
S11343B040937A04FC01E05AFB4F2083FA01E05A4F
S11343C0FB4F10827AC28332E1F4E0E6F4E001901C
S11343D00020E9F73197E056F440759768F460E6F9
S11343E074E088E295E00E941B3148E255E06BE0FE
S11343F08CE995E00E94EA021092090110920801EA
S11344005CC280ED820F8A3008F057C28091760436
S113441090917704892BC1F180917804909179046B
S1134420AC01440F551F880F991F880F991F880FDF
S1134430991F840F951F30E020533109280F391F2D
S1134440309379042093780427323105C4F48091A1
S11344507A0490917B04843191058CF4FC01E05A38
S1134460FB4FD901AD59BD4F2C91208301969093F8
S11344707B0480937A04FC01E05AFB4F1082109273
S113448077041092760419C230E020533109309336
S113449079042093780481E090E0909377048093EA
S11344A076040BC28332F9F48091780490917904F4
S11344B08231910598F48983AE014F5F5F4F60E1CB
S11344C08CE995E00E94EA028091930599819817FE
S11344D029F060E0CE0101960E9485131092090133
S11344E010920801EAC180ED820F8A3008F0E5C11C
S11344F08091780490917904AC01440F551F880F82
S1134500991F880F991F880F991F840F951F30E0FA
S113451020533109820F931F909379048093780478
S1134520CCC18332F9F44091820541956BE875E082
S113453080E694E00E943E196B017C0161157105CF
S11345408105910551F00E94062AC0928B05D092F4
S11345508C05E0928D05F0928E051092090110925F
S11345600801ABC180ED820F8A3008F0A6C18091AA
S11345707A0490917B04883291050CF09EC1FC0171
S1134580E05AFB4F2083019690937B0480937A0436
S1134590FC01E05AFB4F108290C1833239F54091FF
S11345A08205419567E875E080E694E00E943E1933
S11345B06115710581059105A1F0609387057093DC
S11345C088058093890590938A0547E855E064E15E
S11345D08CE995E00E94EA0263E080E090E00E94AA
S11345E08513109209011092080167C180ED820FB2
S11345F08A3008F062C180917A0490917B048832F9
S113460091050CF05AC1FC01E05AFB4F208301963E
S113461090937B0480937A04FC01E05AFB4F108250
S11346204CC1833239F540918205419563E875E0C8
S113463080E694E00E943E1961157105810591059B
S1134640A1F060938305709384058093850590930E
S1134650860543E855E065E18CE995E00E94EA02AD
S113466063E080E090E00E948513109209011092AB
S1134670080123C180ED820F8A3008F01EC18091A9
S11346807A0490917B04883291050CF016C1FC01E8
S1134690E05AFB4F2083019690937B0480937A0425
S11346A0FC01E05AFB4F108208C18332E9F4809187
S11346B07804909179048831910588F49091760476
S11346C0989F802D11248983AE014F5F5F4F66E16F
S11346D08CE995E00E94EA02898180938205109218
S11346E0090110920801E9C080ED820F8A30C8F4F4
S11346F08091780490917904AC01440F551F880F80
S1134700991F880F991F880F991F840F951F30E0F8
S113471020533109820F931F909379048093780476
S1134720CCC0223409F0C9C08FEF9FEF9093770477
S113473080937604C2C08332A1F48091780480937C
S11347407F0580917F050E94481A4FE755E061E19B
S11347508CE995E00E94EA02109209011092080186
S1134760ACC0873008F0A9C0282F30E020533109AD
S11347703093790420937804A0C08332C9F48091E3
S11347807804909179048230910568F480938105CE
S1134790809181058093520541E855E067E18CE9F9
S11347A095E00E94EA02109209011092080185C066
S11347B080ED820F823008F080C030E02053310950
S11347C0309379042093780478C0833239F483E1F8
S11347D0898362E0CE0101960E948513109209013B
S11347E0109208016AC02091760430917704A901DF
S11347F04F5F5F4F5093770440937604F901EC5B6D
S1134800FA4F9081891312C0E4E4F5E0019000208E
S1134810E9F73197E454F540E417F50709F04DC082
S113482081E0809311018093750447C0109277044E
S11348301092760410920901109208013EC083324E
S113484001F58091780490917904009741F480E017
S113485090E00E941C0581E080937E050DC08C339E
S113486021E092073CF010927E058BE391E00E94D8
S11348701C0502C00E941C05109209011092080137
S11348801CC080ED820F8A30C0F4409178045091AE
S11348907904CA01880F991F440F551F440F551FEF
S11348A0440F551F840F951F30E020533109820FA8
S11348B0931F90937904809378040F90DF91CF91A4
S11348C0FF90EF90DF90CF9008952F923F924F92F8
S11348D05F926F927F928F929F92AF92BF92CF928C
S11348E0DF92EF92FF920F931F93CF93DF931F9268
S11348F0CDB7DEB780913D05882361F010923D0568
S11349008CE995E00E94A70460E071EE80E090E0FD
S11349100E948C090E94951A83E095E00E94BF06CC
S1134920882309F436C180911005811130C060E0FC
S113493081E00E94F1150E9485150E94D92C809176
S113494043056817E1F0609343056A3114F0695137
S113495003C089E1861B682F062E000C770B8CE9B7
S113496095E00E94140520910D0530910E05A901D2
S1134970480F511D87FD5A95CA010E943F2B60E0E4
S113498080E00E94F1158BE38093100583C1809130
S11349900F0581117FC160E082E00E94F1150E9441
S11349A0DD15909342058093410560E080E00E940C
S11349B0F1158BE080930F056DC1F5014191519183
S11349C0619171915F0183E095E00E94DC0583E0D1
S11349D095E00E94C206E62EF72ED82EC92E272D6A
S11349E0362D452D542D0E94002E1816B4F420E0C7
S11349F034E244E759E46E2D7F2D8D2D9C2D0E94C9
S1134A00002E181634F448017E2C6F2C5D2C4C2C8F
S1134A1004C07E2C6F2C5D2C4C2C0F5F1F4F043078
S1134A20110559F647C1F501419151916191719177
S1134A305F0183E095E00E94DC0583E095E00E943D
S1134A40C206E62EF72ED82EC92E252D342D432D41
S1134A50522D0E94002E1816B4F420E034E244E7EC
S1134A6059E46E2D7F2D8D2D9C2D0E94002E18163D
S1134A7034F438015E2C4F2C3D2C2C2C04C05E2CBD
S1134A804F2C3D2C2C2C0F5F1F4F0430110559F671
S1134A9077200CF476C0C401880F991F880F991FE2
S1134AA086579D4FFC01E60DF71D108180917E0411
S1134AB0181317C080910A0190910B0101969093ED
S1134AC00B0180930A01039761F481E080934D0503
S1134AD010927D0410927C0410930C05812F0E9487
S1134AE02B2010937E044DC0C0900405D090050582
S1134AF0E0900605F0900705809008059090090560
S1134B00A0900A05B0900B0580917C0490917D04DF
S1134B109C012F5F3F4F30937D0420937C040397C7
S1134B2084F110924D0580911601882329F080911B
S1134B308F05882309F4D1C0C818D908EA08FB08EE
S1134B40FCEDCF16F5E0DF06E104F10420F4109249
S1134B500B0110920A0110927D0410927C04809142
S1134B60040590910505A0910605B0910705809371
S1134B70080590930905A0930A05B0930B051092BC
S1134B807E04EAE7F0E0808188608083808180642D
S1134B908083809192058111A5C080914D05882361
S1134BA0B1F0198240E050E0BE016F5F7F4F89E2AF
S1134BB092E00E94BC288CE890E090939105809349
S1134BC0900581E080938F05109240058BC0809101
S1134BD01601882309F486C0109140050E945011E3
S1134BE08093400580914005181709F47BC080919B
S1134BF040058230A1F411E0198340E050E0BE0189
S1134C006F5F7F4F8BE292E00E94BC288CE890E0BB
S1134C10909391058093900510938F0563C08091C4
S1134C2040058130A1F411E0198340E050E0BE0159
S1134C306F5F7F4F8DE292E00E94BC2886E490E093
S1134C40909391058093900510938F054BC08091AC
S1134C504005843021F0809140058330A1F411E0B7
S1134C60198340E050E0BE016F5F7F4F8BE292E01A
S1134C700E94BC288CE890E0909391058093900565
S1134C8010938F052FC010928F0560E08DE00E9475
S1134C907E0228C00F2EFAE9AF2EF2E0BF2EF02DCF
S1134CA000E010E088248A94982C712C612C512CFB
S1134CB0412C83CE99200CF417CF0F2EFAEAAF2E95
S1134CC0F2E0BF2EF02D00E010E066246A94762C0A
S1134CD0512C412C312C212CA6CE60E08DE00E9479
S1134CE07E022ACF0F90DF91CF911F910F91FF90F9
S1134CF0EF90DF90CF90BF90AF909F908F907F9078
S1134D006F905F904F903F902F90089563E084E000
S1134D100E94630161E08DE00E94630160E08DE028
S1134D200E947E0261E08DE00E94630160E08DE0FC
S1134D300E947E0261E08AE00E94630160E08AE0F2
S1134D400E947E0261E089E00E94630160E089E0E4
S1134D500E947E0261E088E00E94630160E088E0D6
S1134D600E947E0260E084E10E94630160E085E1CC
S1134D700E94630163E08CE00E94630161E08BE0C8
S1134D800E94630160E08BE00E947E020E94B009F1
S1134D9087B18F6087B988B1807F88B98AB1836011
S1134DA08AB98BB18C7F8BB961E086E00E94630184
S1134DB061E086E00E947E0263E082E10E9463017A
S1134DC063E083E10E9463010E9446078CE995E059
S1134DD00E94C303182F61E080E00E94F115F8944B
S1134DE0A0EBB0E01C92E1EBF0E010828C918260C9
S1134DF08C938081876080838CE08093B3001092D1
S1134E00B400E6EBF0E080818F7D8083E0E7F0E0A2
S1134E10108280818460808310928000C1E8D0E099
S1134E201882109285001092840080917F050E9460
S1134E30481A88818860888388818160888314BC4B
S1134E4084B5826084BD15BC85B5846085BD8FE260
S1134E5087BDEEE6F0E01082808182608083EDE61B
S1134E60F0E0108280E18083E8E6F0E0108284E0E4
S1134E708083789480911701811106C060E071EEFF
S1134E8080E090E00E948C0984E00E94330291E06B
S1134E90811190E090933E05112329F061E087E3AE
S1134EA092E00E94230A81E00E945B2BC82F8CE9C8
S1134EB095E00E940005CC2354F487E0E6E4F2E098
S1134EC0ABEDB4E001900D928A95E1F723C0C0FFE9
S1134ED00AC087E0EDE4F2E0ABEDB4E001900D929E
S1134EE08A95E1F717C0C1FF0AC087E0E4E5F2E064
S1134EF0ABEDB4E001900D928A95E1F70BC0C5FFCC
S1134F0009C088E0EBE5F2E0ABEDB4E001900D926E
S1134F108A95E1F78091DB04882329F061E08BED29
S1134F2094E00E94230A0E940B170E94030AEFE6F2
S1134F30F0E080818260808380E00E944716E9E689
S1134F40F0E0808182608083E89A0E946524FDCF2E
S1134F500F931F938CE995E00E94E80200E018E7A4
S1134F6026E936E440E050E069E473E483E095E048
S1134F700E9474051F910F91089583E095E00E94AB
S1134F80C2058CE995E00E94E902089590E00E9430
S1134F900831FC01FF27B097ED35F10508F0E4C0B6
S1134FA0E655FF4F0C94732F89E074E061E0089597
S1134FB08BE074E065E0089587E073E061E00895B4
S1134FC081E071E060E0089589E074E064E00895B0
S1134FD089E073E063E0089587E074E060E0089599
S1134FE083E072E060E008958DE074E06EE008957F
S1134FF089E073E065E0089589E074E062E0089573
S113500087E072E063E0089585E072E061E008956E
S11350108BE073E067E008958BE074E066E0089548
S11350208DE074E06BE0089587E073E062E008953A
S113503085E073E060E0089583E071E061E0089545
S113504087E073E064E0089589E074E068E008951F
S113505089E073E066E008958BE074E069E0089508
S11350608DE074E06DE008958BE074E063E00895F2
S113507083E175E06FE1089581E175E06EE10895E3
S11350808FE075E06CE108958DE075E068E10895C6
S11350908BE075E060E1089589E075E060E00895D3
S11350A08BE075E061E008958DE075E063E00895BC
S11350B08FE075E067E0089581E175E06FE00895A1
S11350C081E176E06AE2089583E176E063E308959E
S11350D08FE076E06CE0089583E176E06EE1089578
S11350E083E176E065E308958DE075E069E0089575
S11350F08FE075E06DE0089583E176E06DE2089558
S11351008BE075E062E0089581E176E067E0089560
S11351108CE076E065E108958DE075E061E1089545
S11351208DE075E06AE008958FE076E061E208952D
S113513081E176E06CE208958FE076E062E1089523
S113514081E177E068E4089581E176E066E108951D
S113515084E077E06FEF089587E077E06EEF0895DD
S113516083E175E06FE1089580E070E060E0089508
S113517085E072E062E00895CF93DF93EA0100973F
S1135180B1F11092A8056115710521F0DB012C9194
S113519020931A01FC0120812223D9F09093A705C2
S11351A08093A60580E280931901822F0E94C6276E
S11351B06093A3057093A4058093A5051092A2059E
S11351C01092A1051092A00510929F0510929E05C1
S11351D00AC01092A7051092A60581E080939E054F
S11351E0209709F0888310929D0580E0C0C0E0916B
S11351F0A605F091A705309709F4AAC061157105B9
S113520021F080911A01DB018C9380919E05882303
S113521049F0209709F4A8C081E088831092A8057A
S113522080E0A5C08091A005882321F0815080935F
S1135230A0057FC080919D05882381F08091A805F9
S113524081110CC010929D0580919F05882309F45B
S113525070C08093A00510929F056BC09091A40527
S11352608091A105891790F18091A2058F5F8093A9
S1135270A205DF01A80FB11D8C9180931901811142
S113528019C080911A01882331F08081809319011B
S11352901092A2050FC01092A7051092A6051092B5
S11352A09D0591E090939E05209709F098831092B4
S11352B0A8055DC0809119010E94C6276093A305CB
S11352C07093A4058093A5051092A1052091A305D0
S11352D02D3F00F54091A10531E0340F3093A10535
S11352E081E090E002C0880F991F4A95E2F782237B
S11352F021F082E08093A00502C01092A00581E015
S113530080939D058091A405381798F082E08093DE
S11353109F050FC08091A4059FEF9093A105109263
S11353209D05843020F084508093A00502C0109223
S1135330A005809119018C3331F481E08093A80594
S1135340209741F414C01092A805209719F409C0BD
S1135350209719F080919E0588838091A80581117A
S113536005C080919D0503C080E001C081E0DF910C
S1135370CF910895CF92DF92EF92FF920F931F93F4
S1135380CF93FC016B0180818823C1F08F010F5FF3
S11353901F4F7F0194E1E90EF11CC0E005C0F80144
S11353A081918F01882359F00E94C6276D3F08F42C
S11353B0CD5FC80F0E151F0591F701C0C0E080EB4B
S11353C094E0B6010E940A2FC69FC001C79F900DAA
S11353D01124CF911F910F91FF90EF90DF90CF9008
S11353E00895982F9695969596959E71292F220F3C
S11353F0220F920F8F70890F0895FC012081818103
S11354008053F0E12F9F800D11240895CF93DF93F3
S113541000D000D01F92CDB7DEB7AE014F5F5F4F13
S113542025E0FA0111922A95E9F79C838B837A830C
S1135430698324E06BE184EA0E94BF070F900F9018
S11354400F900F900F90DF91CF910895CF93DF933A
S113545000D000D0CDB7DEB719821A821B821C821D
S113546024E0AE014F5F5F4F6BE184EA0E942208A3
S1135470811111C02A816B81862F90E0A0E0B0E0F9
S1135480DC0199278827922B2981822B2C81BC014E
S1135490CD01922B03C060E070E0CB010F900F9020
S11354A00F900F90DF91CF9108956F927F928F921A
S11354B09F92AF92BF92CF92DF92EF92FF920F939F
S11354C01F93CF93DF936C01EB01209709F4B6C0CF
S11354D0CB010A960E94FD29882ECE0108960E94CF
S11354E0FD29782ECE0106960E94FD29982ECE0124
S11354F004960E94FD29182FCE0102960E94FD29D0
S1135500082FCE010E94FD290E94F129E82EF12CDA
S1135510570180E3A81A88EFB80A802F0E94F12966
S1135520D82F812F0E94F129682ED23068F000E034
S113553010E0C1E06C2FC5010E944201080F111D4B
S1135540CF5FDC13F7CF02C000E010E0862D660CBD
S1135550990B0197080F191F882D0E94F129882E95
S1135560872D0E94F129C82F892D0E94F129082C2A
S1135570000C99089CE3C902800C911C1124092C8D
S1135580000CAA08BB08A82F880FBB0B20E13EE043
S11355900E94882F860E971EA81EB91ED80120E8E7
S11355A031E541E050E00E949A2F860E971EA81E16
S11355B0B91ED7015E9620E833E341EE51E00E9424
S11355C09A2F860E971EA81EB91EC7014F96DC019E
S11355D00AF41396B595A795B595A79520E831E5F6
S11355E041E050E00E949A2F860E971EA81EB91E15
S11355F0C7018D599F4F64E670E00E941E2FDB01A6
S113560020E83EEA4EEF5FEF0E949A2F860E971E27
S1135610A81EB91EC70181579E4F60E971E00E9420
S11356201E2FDB0120E831E541E050E00E949A2F73
S1135630680D791D8A1D9B1D30E009C00E94262A31
S113564031E0611571058105910509F030E0C1145F
S1135650D10431F021E0311101C020E0F6012083B2
S1135660DF91CF911F910F91FF90EF90DF90CF903A
S1135670BF90AF909F908F907F906F900895CF933D
S1135680DF9300D0CDB7DEB720E12A839C013695A5
S11356902795298380FF02C080E98A8322E0AE0136
S11356A04F5F5F4F66E384EA0E94BF070F900F903D
S11356B0DF91CF910895CF93DF9300D0CDB7DEB7BC
S11356C01982882331F085EC8A8381E08093A905CF
S11356D004C085E48A831092A90521E0AE014E5FDF
S11356E05F4F65E384EA0E94BF07898181110CC082
S11356F021E0AE014F5F5F4F6EE084EA0E94220812
S113570089818F76898302C080E889831A8221E0A7
S1135710AE014E5F5F4F6EE084EA0E94BF0789814D
S11357200F900F90DF91CF910895CF93DF931F9245
S1135730CDB7DEB781E0898321E0AE014F5F5F4FD3
S11357406EE084EA0E942208811107C08981807872
S113575089838111F1CF80E003C089818823D9F343
S11357600F90DF91CF910895CF93DF931F92CDB720
S1135770DEB7198221E0AE014F5F5F4F67E284EA32
S11357800E94BF070E94952B82E1898321E0AE012C
S11357904F5F5F4F67E284EA0E94BF070E94952B28
S11357A00F90DF91CF910895CF93DF9300D0CDB7C1
S11357B0DEB70E94B42B22E0AE014F5F5F4F66E379
S11357C084EA0E942208898190E0880F991F2A8127
S11357D022230CF401960F900F90DF91CF9108953E
S11357E05058BB27AA270E94082C0C94B22D0E9463
S11357F0792D38F00E94802D20F039F49F3F19F460
S113580026F40C94762D0EF4E095E7FB0C94702DA1
S1135810E92F0E94D72D58F3BA176207730784073C
S1135820950720F079F4A6F50C94F92D0EF4E09583
S11358300B2EBA2FA02D0B01B90190010C01CA0146
S1135840A0011124FF27591B99F0593F50F4503EF1
S113585068F11A16F040A22F232F342F4427585FE3
S1135860F3CF469537952795A795F0405395C9F7FB
S11358707EF41F16BA0B620B730B840BBAF09150B3
S1135880A1F0FF0FBB1F661F771F881FC2F70EC052
S1135890BA0F621F731F841F48F487957795679525
S11358A0B795F7959E3F08F0B0CF9395880F08F011
S11358B09927EE0F9795879508950E944C2D08F42B
S11358C081E008950E94892DE3950C94C32D0E94D4
S11358D07B2C0C94B22D0E94802D58F00E94792DBF
S11358E040F029F45F3F29F00C94702D51110C9471
S11358F0FA2D0C94762D0E94D72D68F39923B1F3D9
S1135900552391F3951B550BBB27AA2762177307E1
S1135910840738F09F5F5F4F220F331F441FAA1F75
S1135920A9F335D00E2E3AF0E0E832D09150504031
S1135930E695001CCAF72BD0FE2F29D0660F771FDF
S1135940881FBB1F261737074807AB07B0E809F0C5
S1135950BB0B802DBF01FF2793585F4F3AF09E3F4A
S1135960510578F00C94702D0C94FA2D5F3FE4F3FC
S1135970983ED4F3869577956795B795F7959F5F8D
S1135980C9F7880F911D9695879597F90895E1E0D9
S1135990660F771F881FBB1F621773078407BA0738
S11359A020F0621B730B840BBA0BEE1F88F7E09593
S11359B008950E94E02C6894B1110C94FA2D089576
S11359C00E94DF2D88F09F5798F0B92F9927B7517F
S11359D0B0F0E1F0660F771F881F991F1AF0BA958F
S11359E0C9F714C0B13091F00E94F92DB1E00895C7
S11359F00C94F92D672F782F8827B85F39F0B93FB9
S1135A00CCF3869577956795B395D9F73EF4909541
S1135A108095709561957F4F8F4F9F4F0895E894BF
S1135A2009C097FB3EF490958095709561957F4FE2
S1135A308F4F9F4F9923A9F0F92F96E9BB27939590
S1135A40F695879577956795B795F111F8CFFAF4A0
S1135A50BB0F11F460FF1BC06F5F7F4F8F4F9F4FD1
S1135A6016C0882311F096E911C0772321F09EE82F
S1135A70872F762F05C0662371F096E8862F70E095
S1135A8060E02AF09A95660F771F881FDAF7880F6F
S1135A909695879597F90895990F0008550FAA0BC5
S1135AA0E0E8FEEF16161706E807F907C0F012162D
S1135AB01306E407F50798F0621B730B840B950B30
S1135AC039F40A2661F0232B242B252B21F4089585
S1135AD00A2609F4A140A6958FEF811D811D089522
S1135AE097F99F6780E870E060E008959FEF80EC8D
S1135AF0089500240A941616170618060906089530
S1135B0000240A94121613061406050608950C942C
S1135B10762D0E94DF2DD8F3E894E0E0BB279F5751
S1135B20F0F02AED3FE049EC06C0EE0FBB0F661F14
S1135B30771F881F28F0B23A62077307840728F09A
S1135B40B25A620B730B840BE3959A9572F7803803
S1135B5030F49A95BB0F661F771F881FD2F79048C1
S1135B600C94B32E092E0394000C11F4882352F0E4
S1135B70BB0F40F4BF2B11F460FF04C06F5F7F4F75
S1135B808F4F9F4F0895EF93E0FF07C0A2EA2AEDDD
S1135B903FE049EC5FEB0E94082C0E94B22D0F906D
S1135BA0039401FC9058EEE0F2E00C94BF2E57FDF4
S1135BB09058440F551F59F05F3F71F04795880F77
S1135BC097FB991F61F09F3F79F08795089512160E
S1135BD013061406551FF2CF4695F1DF08C01616BA
S1135BE017061806991FF1CF86957105610508946B
S1135BF00895E894BB2766277727CB0197F9089582
S1135C000E944C2D08F48FEF08950E94182E0C94D6
S1135C10B22D0E94792D38F00E94802D20F095231A
S1135C2011F00C94702D0C94762D11240C94FA2DF3
S1135C300E94D72D70F3959FC1F3950F50E0551F27
S1135C40629FF001729FBB27F00DB11D639FAA27CD
S1135C50F00DB11DAA1F649F6627B00DA11D661F1C
S1135C60829F2227B00DA11D621F739FB00DA11D3D
S1135C70621F839FA00D611D221F749F3327A00DF7
S1135C80611D231F849F600D211D822F762F6A2F93
S1135C9011249F5750409AF0F1F088234AF0EE0FF8
S1135CA0FF1FBB1F661F771F881F91505040A9F725
S1135CB09E3F510580F00C94702D0C94FA2D5F3F9B
S1135CC0E4F3983ED4F3869577956795B795F79561
S1135CD0E7959F5FC1F7FE2B880F911D96958795D9
S1135CE097F908950E94DF2DE8F09E37E8F0963981
