:100000000C94F6000C947E100C941E010C941E01AE
:100010000C941E010C94CE140C941E010C941E0121
:100020000C94E30A0C941E010C941E010C94390AE2
:100030000C941E010C941E010C94FC090C941E01DE
:100040000C941E010C941E010C9413080C94AF091F
:100050000C941E010C94DB070C941E010C941E01E1
:100060000C941E010C941E014C01570162016D019C
:1000700078018301EF018E01EF01EF01EF0199019A
:10008000A401B101BE01CB01D801E501FA01FE01D5
:10009000020206020A020E022802120228022802A6
:1000A0002802130217021C02200224023A02400214
:1000B00046024C025202580281025E028102810213
:1000C000810264026A02700276027C02500F500FB5
:1000D000500F500F500F500FA30FA30F6E0FA30F11
:1000E000A30FA30FA30FA30FA30FA30FA30F6E0FB5
:1000F0006E0F3C0F460F7012A012BC121214121495
:10010000C412FF125F138B1393139B13A313D0130B
:10011000F421B821E421FC21E821FC21C821B421EB
:10012000C021C421FC21D821AC21DC21A821BC2183
:100130008021842188218C219021942198219C2147
:10014000A021A421CC21D021F821D421FC21B0214F
:10015000EC2100221C212021242128212C213021C6
:10016000342138213C214021442148214C21502177
:10017000542158215C216021642168216C21702167
:10018000742178217C21FC21FC21FC21FC21E0212F
:10019000FC21FC21FC21FC21FC21FC21FC21FC2177
:1001A000FC21FC21FC21FC21FC21FC21FC21FC2167
:1001B000FC21FC21FC21FC21FC21FC21FC21FC2157
:1001C000FC21FC21FC21FC21F02105A84CCDB2D45E
:1001D0004EB93836A9020C50B9918688083CA6AAB7
:1001E000AA2ABE000000803FFB200C2111241FBE64
:1001F000CFEFD8E0DEBFCDBF12E0A0E0B1E0E2E497
:10020000FDE502C005900D92A23EB107D9F725E0A9
:10021000A2EEB2E001C01D92AE36B207E1F710E0E7
:10022000C5EFD0E004C02197FE010E948729C43F9A
:10023000D107C9F70E94D11F0C94942E0C94000092
:10024000623021F40E942D01845E0895683008F028
:100250006F5F61708EE1860F08959C0123703327D4
:10026000232B59F464E670E00E943229892B39F47B
:100270006370772781E0672B19F080E0089581E0B3
:10028000089590E0FC013297E231F10508F0A7C033
:10029000EC5CFF4F0C948729613011F4529A089559
:1002A0005298633011F45A9A08955A98089561301B
:1002B00011F4539A08955398633011F45B9A08959A
:1002C0005B980895613011F4549A089554986330FE
:1002D00011F45C9A08955C980895613011F4559A70
:1002E00008955598633011F45D9A08955D980895C6
:1002F000613011F4569A08955698633011F45E9A5D
:1003000008955E980895613011F4579A08955798AA
:10031000633011F45F9A08955F980895613011F485
:10032000219A08952198633011F4599A08955998A3
:100330000895613011F4259A08952598633011F4D9
:100340005D9A08955D980895613011F4389A0BC054
:100350003898633019F4409A39980AC0409839980F
:100360000AC0613011F4399A0BC03998633019F41E
:10037000419A3A980AC041983A980AC0613011F4FB
:100380003A9A0BC03A98633019F4429A3B980AC0E3
:1003900042983B980AC0613011F43B9A0BC03B98DD
:1003A000633019F4439A3C980AC043983C980AC0B9
:1003B000613011F43C9A0BC03C98633019F4449AB4
:1003C0003D980AC044983D9809C0613011F43D9AA7
:1003D00008953D98633011F4459A0895459808951D
:1003E00090E0FC013297E031F10590F5EA5BFF4FB8
:1003F0000C94872929B1247030E02CC029B12870D1
:1004000030E028C029B1207130E024C029B1207229
:1004100030E020C029B1207430E01CC029B1207820
:1004200030E018C083B123B1207230E013C086B130
:10043000282F217030E00EC026B1227030E00AC0B3
:1004400026B1247030E006C026B1287030E002C02A
:1004500020E030E081E0232B09F480E0089590E073
:10046000FC013297E031F10508F04BC0EA5AFF4F2A
:100470000C948729662311F05A9A08955A98089582
:10048000662311F05B9A08955B980895662311F036
:100490005C9A08955C980895662311F05D9A08951A
:1004A0005D980895662311F05E9A08955E98089508
:1004B000662311F05F9A08955F980895662311F0FE
:1004C000299A089529980895662311F02D9A089580
:1004D0002D980895662311F0409A08954098089544
:1004E000662311F0419A089541980895662311F00A
:1004F000429A089542980895662311F0439A089508
:10050000439808951F93CF93DF93EC010E94152E1B
:10051000182F882389F0219603C02196112361F0BA
:10052000812F0E948F07CE010E94152E182F0E9446
:10053000E9068111FCCFF1CFDF91CF911F91089592
:100540009C012E5F3F4F2B3381E0380710F02BE3E7
:1005500031E0ADECBCEC0E948D299695879596957F
:1005600087959C01220F331F220F331F280F391F3D
:100570000E948D2996958795969587959C01207365
:100580003327329522952F7023273F7023272093FE
:10059000E20298B18F70907F892B88B98BB18C7FE4
:1005A0009091E202892B8BB908950E942E0761E099
:1005B0008EE00E94410161E08FE00E94410161E014
:1005C00080E10E94410161E081E10E94410161E01E
:1005D00080E00E94410161E081E00E9441010895B4
:1005E000EF92FF920F931F93CF93DF93E42EF52E9C
:1005F000D62FC72F0093FA021093FB022093FC0220
:100600003093FD0220E030E041E553E46E2D7F2D74
:100610008D2F9C2F0E94142818166CF020E030E0DB
:1006200048EC52E46E2D7F2D8D2F9C2F0E94712659
:10063000882334F009C0E12CF12CD1E5C3E404C0D7
:10064000E12CF12CD8ECC2E46E2D7F2D8D2F9C2F48
:100650000E94ED267093F5026093F402CB01880F9F
:10066000991F0E94B6299093E4028093E302DF91E0
:10067000CF911F910F91FF90EF9008958091E30229
:100680009091E4020E944E2A08951092E80210927E
:10069000E9021092EA021092EB021092EC02109220
:1006A000ED021092EE021092EF021092E502089510
:1006B0008F929F92AF92BF92CF92DF92EF92FF9272
:1006C000CF93DF93EC014A015B016091F4027091DA
:1006D000F502072E000C880B990B0E9425276B0151
:1006E0007C018092F6029092F702A092F802B092FA
:1006F000F902A50194010E9419282091FA02309173
:10070000FB024091FC025091FD020E947B2620E0FA
:1007100030E040E05FE30E9405260E94ED26072EB0
:10072000000C880B990B0E9425272BED3FE049EC2C
:1007300050E40E941928A70196010E947B260E947E
:1007400076269B01AC010E9405266093F00270930F
:10075000F1028093F2029093F302CE010E944503CE
:10076000DF91CF91FF90EF90DF90CF90BF90AF904F
:100770009F908F9008958F929F92AF92BF92CF9249
:10078000DF92EF92FF92CF93DF93EB01C090EC02E8
:10079000D090ED02E090EE02F090EF022091F00296
:1007A0003091F1024091F2025091F302C701B6017B
:1007B0000E9419282091E8023091E9024091EA0252
:1007C0005091EB020E9404264B015C01BE01725065
:1007D000072E000C880B990B0E9425279B01AC016A
:1007E000C501B4010E940526C092E802D092E90238
:1007F000E092EA02F092EB026093EC027093ED0259
:100800008093EE029093EF02DF91CF91FF90EF90F3
:10081000DF90CF90BF90AF909F908F900895809180
:10082000E502811127C0E091E602F091E702EE0FA8
:10083000FF1F8091E3029091E402E80FF91F71839A
:1008400060838091E6029091E70201969093E7021F
:100850008093E6022091F4023091F502821793070B
:100860003CF01092E7021092E60281E08093E502EC
:100870008091E50208958091E50208954F925F927C
:100880006F927F928F929F92AF92BF92CF92DF92A0
:10089000EF92FF920F931F93CF93DF938C01809180
:1008A000F4029091F50218161906C4F4C0E0D0E0E5
:1008B000CE01880F991FE091E302F091E402E80F66
:1008C000F91F60817181C8010E94BB03219680914C
:1008D000F4029091F502C817D90754F38090EC0206
:1008E0009090ED02A090EE02B090EF02C090E8026E
:1008F000D090E902E090EA02F090EB02A5019401A9
:10090000C501B4010E9419282B013C01A7019601E1
:10091000C701B6010E9419289B01AC01C301B201B5
:100920000E9405262B013C012091F0023091F1023A
:100930004091F2025091F302C501B4010E941928BE
:10094000A70196010E9419289B01AC01C301B201C5
:100950000E9404266B017C01C8010E944503C70167
:10096000B601DF91CF911F910F91FF90EF90DF9033
:10097000CF90BF90AF909F908F907F906F905F903F
:100980004F900895E4E6F0E080818F7780831092A5
:10099000B90085E28093B80084E08093BC0081E0D8
:1009A00080930601089584EA8093BC00ECEBF0E0AC
:1009B0008081882364F0809106018111F9CF07C0FE
:1009C00080E98093BC0081E08093060108958091C6
:1009D00006018823A9F380E0089584E98093BC0090
:1009E00008958093BB0084E88093BC00ECEBF0E0BA
:1009F0008081882364F0809106018111F9CF07C0BE
:100A000084E98093BC0081E0809306010895809181
:100A1000B900887F8613F4CF80E0089584EC80933A
:100A2000BC00ECEBF0E08081882324F0809106018B
:100A30008111F9CF8091BB00089584E88093BC00B8
:100A4000ECEBF0E08081882324F080910601811195
:100A5000F9CF8091BB0008952091B900287F30E044
:100A600090E02817390729F084E98093BC0081E0E1
:100A7000089580E00895CF93DF9300D000D000D098
:100A8000CDB7DEB78A836B835D834C832E83198257
:100A90000E94D30488E00E942C05982F81E09923BE
:100AA00009F480E0882311F081E03FC068E18A8189
:100AB0000E94F104982F81E0992309F480E08823B3
:100AC00011F081E032C068E28B810E94F104982F1E
:100AD00081E0992309F480E0882311F081E025C0AA
:100AE0008E819FEF980F9E8391E0882309F490E018
:100AF0009923C1F0898191E0980F9983882F90E024
:100B00002C813D81820F931FFC01808168E20E944D
:100B1000F104982F81E0992309F480E0882301F300
:100B200081E003C00E94ED0480E026960FB6F894A1
:100B3000DEBF0FBECDBFDF91CF9108950F931F93FE
:100B4000CF93DF9300D000D000D0CDB7DEB78A833B
:100B50006B835D834C832E8319820E94D30488E0CB
:100B60000E942C05982F81E0992309F480E08823C6
:100B700011F081E079C068E18A810E94F104982F28
:100B800081E0992309F480E0882311F081E06CC0B2
:100B900068E28B810E94F104982F81E0992309F487
:100BA00080E0882311F081E05FC00E94D30480E1DF
:100BB0000E942C05982F81E0992309F480E0882376
:100BC00011F081E051C08A81816060E40E94F104EB
:100BD000982F81E0992309F480E0882311F081E0C7
:100BE00043C08E819FEF980F9E8391E0882309F484
:100BF00090E09923B1F18E818823D9F0898191E029
:100C0000980F9983882F90E02C813D818901080FEE
:100C1000191F0E940E05F801808380E50E942C05B3
:100C2000982F81E0992309F480E08823D1F281E0B4
:100C30001BC08981882F90E02C813D818901080F9C
:100C4000191F0E941D05F801808388E50E942C056C
:100C5000982F81E0992309F480E0882311F281E044
:100C600003C00E94ED0480E026960FB6F894DEBF24
:100C70000FBECDBFDF91CF911F910F91089580914D
:100C8000010394E059E2282F30E0529FF001539F76
:100C9000F00D1124E058FC4F408141110CC09150DF
:100CA00029F08F5F843078F380E0EDCF80930103EB
:100CB00080E090E008958093010349E2429FC001E3
:100CC000439F900D112480589C4F089580910003FC
:100CD00094E059E2282F30E0529FF001539FF00D2D
:100CE0001124E058FC4F4081442361F0915029F0D9
:100CF0008F5F843078F380E0EDCF8093000380E055
:100D000090E008958093000349E2429FC001439F11
:100D1000900D112480589C4F08958091FF02282F38
:100D200030E09FE3899FF0011124EE5FFC4F418189
:100D30005281452BA9F08F5F823008F080E0282F88
:100D400030E09FE3899FF0011124EE5FFC4F418169
:100D50005281452B29F08093FF0280E090E00895B6
:100D60008093FF024FE3429FC001439F900D1124E7
:100D70008E5F9C4F08958091FE02282F30E09FE304
:100D8000899FF0011124EE5FFC4F41815281452B78
:100D9000A9F48F5F823008F080E0282F30E09FE3D5
:100DA000899FF0011124EE5FFC4F41815281452B58
:100DB00029F48093FE0280E090E008958093FE0283
:100DC0004FE3429FC001439F900D11248E5F9C4FC3
:100DD00008958091240408959091240481E0911154
:100DE00080E0911108C091E090932404E1ECF0E0E0
:100DF000908190629083089580912404882339F033
:100E0000E1ECF0E080818F7D8083109224040895CE
:100E10009B01AC018EE7E2E0F3E0DF011D928A95D1
:100E2000E9F7E0E8F3E0108211A61092D2031092E5
:100E3000FB0360E472E48FE090E00E9446292150B9
:100E400031093093C5002093C40088E98093C10024
:100E50008EE08093C20010920701089581E0809394
:100E600007011092C1000E94FC068EE7E2E0F3E069
:100E7000DF011D928A95E9F7E0E8F3E0108211A600
:100E80001092D2031092FB0308950F931F93CF93F8
:100E9000DF9320910701211114C00097A1F08C016C
:100EA0000E9466060097B9F4C8ECD0E002C0209713
:100EB00061F090912404992351F02097D1F021976B
:100EC000F8CF81E01BC081E019C081E017C00E940B
:100ED0006606009761F31F930F939F938F930E9471
:100EE000622B0E94EC060F900F900F900F9080E005
:100EF00005C00E946606009771F781E0DF91CF91EF
:100F00001F910F91089584E291E00E94450781119D
:100F1000FACF089587E291E00E9445070895E5E23F
:100F2000F4E080831182CF010E9445070895CF939A
:100F300020910701211125C0009729F1FC010190A2
:100F40000020E9F73197E81BF90BBA97F0F4C62FA8
:100F5000BC0149E250E085E294E00E94362BCC23AC
:100F600059F085E294E00E9445078111FACF809103
:100F700024048111FCCF0AC085E294E00E94450759
:100F800005C081E003C081E001C081E0CF910895F8
:100F90008091070181110EC00E948A078FEF91E0B6
:100FA0000E94820284E091E00E9482020E948A07ED
:100FB0000E948A0708951F920F920FB60F92112474
:100FC0002F933F934F935F936F937F938F939F9351
:100FD000AF93BF93EF93FF9361E08BE00E942F02EA
:100FE0006091790070E086EF94E00E940F048823FE
:100FF00029F0EAE7F0E08081877F808360E08BE082
:101000000E942F02FF91EF91BF91AF919F918F911D
:101010007F916F915F914F913F912F910F900FBEF4
:101020000F901F9018951F920F920FB60F921124D8
:101030001F932F933F934F935F936F937F938F9360
:101040009F93AF93BF93CF93DF93EF93FF93109151
:10105000C600C091CB04D091CC04209751F40E94DB
:101060008D06EC019093CC048093CB04892B09F47A
:1010700062C1812F90E00E941C2B9C018091CA04C8
:10108000882321F081508093CA0455C12B3121F46B
:1010900082E08093CA044FC12D3009F03FC0809197
:1010A0008904882331F1E091C904EE23F9F082E04C
:1010B000888380918704909188049A8389838091A2
:1010C0008604882379F090E001974091850454E1EB
:1010D000589F9001599F300D1124C20FD31FC40F88
:1010E000D11D1B82F0E0E657FB4F10820E948A0759
:1010F00004C08FEF9FE79A8389831092C9041092EE
:10110000850410928804109287041092860410922D
:10111000CC041092CB04109289040DC1222309F44F
:101120000AC1E091C9044E2F50E0DA01A657BB4F27
:101130002C93EE2309F4D6C02F3709F05FC0E1509D
:10114000E093C90480918604811113C0F0E0E65752
:10115000FB4F40818091870490918804841B910902
:101160006AE070E00E9432297093880460938704DB
:1011700039C090918504992391F04FEF490F409326
:10118000850490E0019754E1589FB001599F700D7C
:101190001124C60FD71FC40FD11D1B8223C0F0E03E
:1011A000E657FB4F90819032A1F4815080938604E2
:1011B000DE0194E1899FA00DB11D11241396FD015C
:1011C00001900020E9F73197EA1BFB0BE0938504BF
:1011D00009C094E1899FC00DD11D11241B8281504B
:1011E000809386048091C904E82FF0E0E657FB4F16
:1011F0001082811193C01092890490C0203279F539
:10120000FA01E757FB4F8081803209F494C0809146
:101210008604682F70E0FB01319633970CF08BC089
:10122000882379F06150710990918504A4E1A69F0B
:10123000F001A79FF00D1124CE0FDF1FC90FD11DA4
:101240001B828F5F80938604109285044F5F5F4FEF
:101250004E3351050CF04EE34093C9045FC08091BA
:101260008504843108F067C040918604411119C09B
:101270004091870450918804BA01660F771F440F8C
:10128000551F440F551F440F551F460F571F420F40
:10129000511D50938804409387048F5F8093850489
:1012A00016C050E04150510991E0980F9093850489
:1012B000E4E1E49FB001E59F700D1124C60FD71F34
:1012C000FE01E80FF11D2383C90FD11D1B82809100
:1012D000C90490E001968E3391050CF08EE3809363
:1012E000C9041CC02F3741F4809187049091880471
:1012F00018161906BCF01BC02032E9F010928604C3
:10130000C901992790938804809387041B821F8AC0
:101310001BA681E0809389048093C904822F0E94D8
:101320008F0709C01092880410928704F7CF10929B
:10133000880410928704FF91EF91DF91CF91BF91C4
:10134000AF919F918F917F916F915F914F913F915D
:101350002F911F910F900FBE0F901F9018951F9205
:101360000F920FB60F9211242F933F934F935F93D9
:101370006F937F938F939F93AF93BF93EF93FF935D
:101380008091830490918404892B31F40E943F065C
:101390009093840480938304E0918304F091840407
:1013A00080918204DF01A80FB11D9C91992331F037
:1013B0008F5F809382049093C6000DC010928204C8
:1013C00010820E943F069093840480938304892BAB
:1013D00011F40E94FC06FF91EF91BF91AF919F9194
:1013E0008F917F916F915F914F913F912F910F90CE
:1013F0000FBE0F901F9018951F920F920FB60F926D
:1014000011242F933F934F935F936F937F938F9309
:101410009F93AF93BF93EF93FF938091770491E0F5
:10142000811190E09093770490913905992361F0B0
:10143000811105C061E089E00E942F0209C060E0CF
:1014400089E00E942F0204C060E089E00E942F0220
:10145000FF91EF91BF91AF919F918F917F916F918C
:101460005F914F913F912F910F900FBE0F901F9062
:1014700018951F920F920FB60F9211248F939F937E
:1014800080910F01813051F4809176048F5F8093B9
:1014900076048F3068F010920F010AC080917604B4
:1014A000815080937604811103C081E080930F0105
:1014B00088B1807F90917604892B88B99F918F9114
:1014C0000F900FBE0F901F9018950F931F93809150
:1014D0002101882309F461C0809146059091470558
:1014E000A0914805B0914905892B8A2B8B2B09F4D3
:1014F0004DC08091460590914705A0914805B09157
:101500004905892B8A2B8B2B09F442C080914E050B
:1015100090914F05A0915005B091510581159646C7
:10152000AE4EBF45B8F140914605509147056091D8
:1015300048057091490580914A0590914B05A0910D
:101540004C05B0914D0584179507A607B70720F500
:10155000809121018823C1F000914E0510914F0523
:101560002091500530915105409146055091470515
:10157000609148057091490581E040175107620765
:10158000730758F080E009C080E007C081E005C023
:1015900081E003C081E001C081E01F910F910895B7
:1015A0009091380591110AC020911B0130911C01C6
:1015B0009FE2921B97BD8093390508958FE287BD06
:1015C0001092390508951F920F920FB60F921124B1
:1015D0002F933F934F935F936F937F938F939F933B
:1015E000AF93BF93EF93FF93CF93DF9300D0CDB72B
:1015F000DEB78091F7049091F804A091F904B091BE
:10160000FA040196A11DB11D8093F7049093F8048C
:10161000A093F904B093FA0481E089831A8280913F
:101620001A01882319F184E00E94F00181111EC083
:1016300080913605909137058B3B90414CF4809119
:1016400036059091370501969093370580933605BE
:101650008091360590913705853995403CF081E0C1
:101660008093350561E087E00E942F028091340568
:10167000811104C0809132058823C1F020911301AB
:1016800030911401223E8FEF380734F481E090E06E
:1016900090931201809311012F313105A4F08FEF47
:1016A0009FEF90931201809311010DC081E090E0B3
:1016B00090931201809311018FE190E090931401B7
:1016C0008093130110C08091110190911201820F3B
:1016D000931F9093140180931301992324F481E0C4
:1016E0008093520502C0109252058091CD04811161
:1016F00024C080913505882309F405C11EC080915E
:101700005205882329F060E08DE00E942F0204C07A
:1017100061E08DE00E942F0280913205882369F0FC
:1017200080915205882329F060E087E00E942F0213
:1017300004C061E087E00E942F02809103058823A6
:1017400009F458C080913805909181049817B1F040
:101750008091380580938104882349F0109210010C
:1017600083E690E09093800480937F0414C01092ED
:10177000800410927F0487E29BE028C080917F0460
:10178000909180040097E1F00197909380048093FA
:101790007F04892B81F080913805863030F08FE30B
:1017A00087BD81E08093390525C08FE187BD81E049
:1017B000809339051FC08FE287BD109239051AC08A
:1017C00080917D0490917E040097A1F00197909301
:1017D0007E0480937D04892B41F48FE287BD1092B3
:1017E000390581E08093100105C08FE487BD81E059
:1017F0008093390580912101811192C08091560515
:1018000090915705892B09F083C08AC00197909366
:101810007C0480937B04892B09F08DC0AE014E5F60
:101820005F4FBE016F5F7F4F80E090E00E94042217
:1018300080937A049981911111C09A81992371F052
:1018400010927A0481E080935305809110018823DF
:1018500009F471C080E00E94D00A17C0882381F08B
:101860008091CD04811104C061E087E00E942F02C5
:1018700080910205882321F061E08AE00E942F0216
:1018800080911001882309F456C080917A040E9447
:10189000D00A51C08091CD04811105C080913505D9
:1018A000882309F442C080910205882329F06091C1
:1018B0007A048AE00E942F02809154059091550588
:1018C00090937C0480937B0480911001882399F18C
:1018D00080917A040E94D00A2EC010927A048091DE
:1018E0003505811104C060E087E00E942F0260E0AE
:1018F0008AE00E942F02809110018823E1F080E0AD
:101900000E94D00A18C0809134058111F8CE04CF0E
:1019100080917B0490917C04009709F077CFBACF37
:1019200080917A048111D9CFE6CF60917A0487E063
:101930000E942F02B8CF0F900F90DF91CF91FF91AF
:10194000EF91BF91AF919F918F917F916F915F9137
:101950004F913F912F910F900FBE0F901F901895B0
:10196000CF92DF92EF92FF920F931F93CF93DF936B
:10197000C82F86EC92E00E94152ED82F0E94C20438
:10198000C111DFC1DA3B09F06BC088E392E00E942D
:10199000152E90E08530910514F485E090E08531B6
:1019A000910514F084E190E08093190187E392E0BF
:1019B0000E94152E863108F085E18093580584E356
:1019C00092E00E94232E909317018093160182E3E8
:1019D00092E00E94232E909301058093000586E3F8
:1019E00092E00E94152E8093040581E392E00E940C
:1019F000152E8093030580E392E00E94152E8093BC
:101A000002058CE292E00E941D2E60934A057093BD
:101A10004B0580934C0590934D0588E292E00E941F
:101A20001D2E60934605709347058093480590935B
:101A3000490501EB12E0CCE1D5E00F2EF0E3EF2EEB
:101A4000F5E0FF2EF02DC8010E94152E8993882302
:101A500009F42EC10F5F1F4FCE15DF05A1F728C176
:101A600088E392E00E94152E8F3F09F459C190E05F
:101A70008530910514F485E090E08531910514F0EE
:101A800084E190E08093190187E392E00E94152E93
:101A90008F3F61F460C1109258056091580587E34B
:101AA00092E00E94292EC1110EC005C0873108F0B6
:101AB00086E18093580584E392E00E94232E8F3FB5
:101AC0002FEF920779F482E99FEF909317018093AB
:101AD0001601609116017091170184E392E00E9453
:101AE000472E04C0909317018093160182E392E081
:101AF0000E94232E8F3F2FEF920791F40E94B32470
:101B00009093010580930005609100057091010597
:101B100082E392E00E94472E81E08093690504C031
:101B20009093010580930005C11128C186E392E0DE
:101B30000E94152E8F3F09F417C18093040581E39D
:101B400092E00E94152E8F3F59F410920305609188
:101B5000030581E392E00E94292EC11119C102C040
:101B60008093030580E392E00E94152E8F3F61F47D
:101B700081E0809302056091020580E392E00E947B
:101B8000292ECC2319F00EC1809302058CE292E03D
:101B90000E941D2E6F3F2FEF720782079207B9F444
:101BA00010924A0510924B0510924C0510924D056B
:101BB00040914A0550914B0560914C0570914D053F
:101BC0008CE292E00E943B2EC11122C115C16093AC
:101BD0004A0570934B0580934C0590934D0588E220
:101BE00092E00E941D2E6F3F2FEF7207820792072F
:101BF000B9F410924A0510924B0510924C051092C0
:101C00004D0540914A0550914B0560914C057091EE
:101C10004D0588E292E00E943B2ECC2349F00EC095
:101C200060934A0570934B0580934C0590934D0546
:101C300081EB92E00E94152E8F3F31F460E081EB42
:101C400092E00E94292E5FC001EB12E0CCE1D5E0CA
:101C50000F2EF0E3EF2EF5E0FF2EF02DC8010E94CD
:101C6000152E8993882309F44EC00F5F1F4FCE15A0
:101C7000DF05A1F748C0CC9F9001CD9F300D300DFE
:101C80001124A5E2B0E00E948D29A70196010E94CF
:101C90006829622FC8010E94292E21960E5F1F4FCE
:101CA000CC33D10541F76AEB86EC92E00E94292EF5
:101CB000409146055091470560914805709149054E
:101CC00080914A0590914B05A0914C05B0914D052E
:101CD00084179507A607B70708F4AFC080914A0597
:101CE00090914B05A0914C05B0914D0580589E4AAE
:101CF000AE4FBF4F8093460590934705A09348058C
:101D0000B09349059AC009E312E0C0E0D0E00F2E7D
:101D1000F8EECF2EF3E0DF2EE12CF12CF02DABCF3F
:101D200084E1809319016091190188E392E00E9497
:101D3000292E87E392E00E94152E8F3F09F0B6CE40
:101D4000AACE84E1809319016091190188E392E0A1
:101D50000E94292EA0CE109258056091580587E365
:101D600092E00E94292EA7CE81E080930405609125
:101D7000040586E392E00E94292EE1CE81E0809363
:101D800004056091040586E392E00E94292EDDCED1
:101D900081E0809302056091020580E392E00E9459
:101DA000292EFECE10924A0510924B0510924C053A
:101DB00010924D0540914A0550914B0560914C059C
:101DC00070914D058CE292E00E943B2E12CF109252
:101DD0004A0510924B0510924C0510924D0540910A
:101DE0004A0550914B0560914C0570914D0588E274
:101DF00092E00E943B2E1CCF88E292E00E941D2EB2
:101E00006F3F2FEF72078207920709F009CFDFCFEC
:101E100010924A0510924B0510924C0510924D05F8
:101E200040914A0550914B0560914C0570914D05CC
:101E300088E292E00E943B2E01CFDF91CF911F916B
:101E40000F91FF90EF90DF90CF900895009731F0C1
:101E5000FC018081863111F080935805E09158058E
:101E60008E2F90E0FC013197E531F10508F06BC051
:101E7000EA59FF4F0C94872988E790E090931E0160
:101E800080931D0181E0809303057DC08CE291E089
:101E900090931E0180931D0181E08093030573C020
:101EA0008CE390E0909345058093440525E030E075
:101EB000309341052093400510923E0510923D0558
:101EC00028E02093180190933C0580933B058CE219
:101ED00091E090931E0180931D0155C08CE090E02D
:101EE000909345058093440585E090E090934105EB
:101EF0008093400580915805833131F080915805D9
:101F00008E3020F08FE003C08AE001C08AE0809329
:101F10001801809158058E3018F08DE090E002C0D5
:101F200088E090E090933E0580933D0588E592E03F
:101F300090933C0580933B0588E790E090931E01C9
:101F400080931D0120C088E592E090934505809321
:101F5000440521E030E0309341052093400528E01E
:101F60002093180190933C0580933B058091580580
:101F7000883019F08CE291E002C088E790E09093FD
:101F80001E0180931D0180913105882309F48AC0C8
:101F900040914A0550914B0560914C0570914D055B
:101FA00080914E0590914F05A0915005B09151053B
:101FB000481759076A077B0708F04DC080914E0506
:101FC00090914F05A0915005B091510540914A055F
:101FD00050914B0560914C0570914D05841B950BFC
:101FE000A60BB70B8093590590935A05A0935B05F8
:101FF000B0935C0510925705109256051092550546
:1020000010925405109253056091590570915A052C
:1020100080915B0590915C052091440530914505C8
:10202000032E000C440B550B0E9468296F5F7F4FF5
:102030007093200160931F01109243051092420596
:1020400010923F0510923E0510923D0510923A0500
:102050001092390547C01092590510925A051092F6
:102060005B0510925C051092570510925605109270
:102070005505109254051092530581E090E090931D
:10208000200180931F011092430510924205109287
:102090003F0510923E0510923D0510923A051092B0
:1020A000390520C01092590510925A0510925B050F
:1020B00010925C0510925705109256051092550526
:1020C0001092540510925305109243051092420548
:1020D00010923F0510923E0510923D0510923A0570
:1020E000109239059091040581E0911180E0809370
:1020F000CD0460E087E00E942F0208951F920F92A6
:102100000FB60F9211242F933F934F935F936F93CA
:102110007F938F939F93AF93BF93EF93FF938091A0
:102120004E0590914F05A0915005B0915105019633
:10213000A11DB11D80934E0590934F05A0935005AE
:10214000B093510580911501882329F080911501E4
:1021500081508093150180912101882391F1809114
:102160003105882309F44FC140914E0550914F0528
:10217000609150057091510580914A0590914B05F1
:10218000A0914C05B0914D05481759076A077B0788
:1021900008F439C140914E0550914F0560915005AA
:1021A000709151058091460590914705A091480591
:1021B000B0914905481759076A077B0708F4E9C039
:1021C00022C1809131058823F1F040914E05509154
:1021D0004F05609150057091510580914605909191
:1021E0004705A0914805B0914905481759076A0766
:1021F0007B0748F01092310581E080932101109215
:10220000570510925605809121018111FCC08091E3
:10221000590590915A05A0915B05B0915C05892BF9
:102220008A2B8B2B81F480913B0590913C059093F8
:1022300079048093780481E090E09093200180936A
:102240001F01109238058091590590915A05A0916F
:102250005B05B0915C050196A11DB11D80935905E8
:1022600090935A05A0935B05B0935C05809142055D
:102270009091430501969093430580934205809188
:10228000780490917904009729F00197909379044C
:10229000809378048091400590914105892B09F441
:1022A00055C06091590570915A0580915B059091D8
:1022B0005C052091440530914505032E000C440B2C
:1022C000550B0E946829672B682B692B09F468C09D
:1022D0003DC081E090E09093200180931F018091A8
:1022E0001A018823A1F0EDE6F0E080818F7E8083E3
:1022F000E8E6F0E080818B7F808360E084E00E94EC
:10230000410161E084E00E94410110921A0181E0E4
:102310008093CD0460E087E00E942F0281E08093EB
:102320003F051092430510924205809178049091E8
:102330007904892B59F480913B0590913C05909349
:1023400079048093780481E080933A0580910305B5
:10235000882309F456C08091590590915A05A0919F
:102360005B05B0915C0520911D0130911E01BC01FF
:10237000CD01655F7F4F8F4F9F4F032E000C440BA5
:10238000550B0E9468296B30710581059105F4F0A9
:1023900038C080E090E00E94260F1092210133C0E7
:1023A00080911F01909120010196909320018093CC
:1023B0001F0120911F0130912001809140059091D3
:1023C0004105821793070CF484CFA8CF809159055B
:1023D00090915A05A0915B05B0915C0520911D017B
:1023E00030911E01BC01CD01655F7F4F8F4F9F4F24
:1023F000032E000C440B550B0E946829609338058E
:1024000002C010923805FF91EF91BF91AF919F915B
:102410008F917F916F915F914F913F912F910F908D
:102420000FBE0F901F9018950F931F93CF9344E109
:1024300050E0BC018CE195E00E94362BC0E00CE13D
:1024400015E0F80101900020E9F7CF018D5195408A
:102450002C2F30E02817390758F4C901FC01E95F37
:10246000FA4F65898F549D4F0E94292ECF5FE9CF87
:102470008C2F90E060E08F549D4F0E94292ECF91C9
:102480001F910F910895682F87E392E00E94292EF3
:102490000895CF93DF931F92CDB7DEB78A3299F4B8
:1024A00081E090E0909309018093080110927104FB
:1024B0001092700410926F0410926E0410926D04CA
:1024C00010926C04AFC1E0910801F09109013197BD
:1024D000ED30F10508F0A6C1E558FF4F0C948729AF
:1024E000109271041092700410926F0410926E0496
:1024F00010926D0410926C04833439F486E090E0FD
:1025000090930901809308018DC1813439F482E0F0
:1025100090E0909309018093080184C18A3209F404
:1025200081C190E0C09790936F0480936E040E94E5
:10253000D5028DE090E0909309018093080172C16B
:10254000803339F483E090E090930901809308018F
:1025500069C1813339F484E090E09093090180935C
:10256000080160C1823309F05DC185E090E090937D
:1025700009018093080156C1833209F053C11092BA
:102580000901109208014EC1813339F487E090E0CF
:10259000909309018093080145C1823339F488E0A2
:1025A00090E090930901809308013CC1843339F491
:1025B00089E090E0909309018093080133C185334D
:1025C00039F48AE090E090930901809308012AC1D0
:1025D000863339F48BE090E09093090180930801F1
:1025E00021C1873339F48CE090E090930901809306
:1025F000080118C1109209011092080113C1833219
:1026000071F487E594E00E94141260E087E594E09D
:102610000E949707109209011092080103C190EDE2
:10262000980F9A3008F0FEC020916C0430916D0430
:10263000232BC1F120916E0430916F04A901440F46
:10264000551F220F331F220F331F220F331F240F5A
:10265000351F90E0C097820F931F90936F04809373
:102660006E0487329105CCF420917004309171048E
:102670002431310594F4F901E95AFB4FDC01A45DE2
:10268000BD4F8C9180832F5F3F4F30937104209317
:102690007004F901E95AFB4F108210926D041092F8
:1026A0006C04C0C090E0C09790936F0480936E0458
:1026B00081E090E090936D0480936C04B3C083320A
:1026C000C1F480916E0490916F048631910560F49D
:1026D00089830E944312809158059981981721F0AF
:1026E000CE0101960E94260F109209011092080156
:1026F00099C090ED980F9A3008F094C090E0C09780
:1027000020916E0430916F04820F931F90936F0499
:1027100080936E0487C0833209F084C0109209014F
:10272000109208017FC0833209F07CC01092090129
:102730001092080177C0833209F074C01092090129
:10274000109208016FC0833279F4809170049091E7
:1027500071040C9721F487E594E00E9459241092AB
:102760000901109208015EC090ED980F9A3008F0B0
:1027700059C02091700430917104283231050CF059
:1027800051C0F901E95AFB4F80832F5F3F4F3093CF
:10279000710420937004F901E95AFB4F108242C082
:1027A000833229F580916E0490916F04009751F463
:1027B00080E090E00E94A002EFE6F0E0808182607D
:1027C000808310C08C3321E0920754F0EFE6F0E0F4
:1027D00080818D7F80838BE391E00E94A00202C004
:1027E0000E94A00210920901109208011BC090EDF6
:1027F000980F9A30B8F420916E0430916F04A901BB
:10280000440F551F220F331F220F331F220F331F78
:10281000240F351F90E0C097820F931F90936F0491
:1028200080936E040F90DF91CF910895EAE7F0E076
:10283000808186FDFDCF2091780030917900EAE714
:10284000F0E0908190649083C901089588EC8093B2
:102850007C00EAE7F0E087E0808380818068808305
:102860008081806480830E94161408950F931F93C3
:10287000CF93DF936091160170911701072E000C22
:10288000880B990B0E94252720E030E040E251E4BC
:102890000E947B26062F172FD82FC92F20E030E06B
:1028A00048E453E40E94142818166CF020E030E04D
:1028B00048E453EC602F712F8D2F9C2F0E947126BE
:1028C000882334F009C000E010E0D8E4C3E404C079
:1028D00000E010E0D8E4C3EC0E9416140E94161425
:1028E000BC0180E090E00E9423272EEA37E242EA12
:1028F00053E40E94042626EF38E24CE95FE30E948D
:102900007B26202F312F4D2F5C2F0E9405260E9401
:102910008628DF91CF911F910F910895EAE7F0E0AB
:10292000108210927B00ACE7B0E01C929C91966004
:102930009C939C91906C9C939C9190629C939081B1
:10294000966090839081906290839081986090834C
:10295000908190689083882331F0808188608083A3
:102960008081806480830895FC012191222341F0BD
:1029700030E0205331092A303105B8F380E0089562
:1029800081E0089580E090E00E94260F10922101DE
:1029900060E089E291E00E94970708951F920F92EC
:1029A0000FB60F9211242F933F934F935F936F9322
:1029B0007F938F939F93AF93BF93EF93FF9384E0A5
:1029C0000E94F001882361F080913505882341F051
:1029D0000E94C2141092350560E087E00E942F0229
:1029E0001092370510923605FF91EF91BF91AF918C
:1029F0009F918F917F916F915F914F913F912F9117
:102A00000F900FBE0F901F90189580911C0581119B
:102A100004C08EE690E00E94820280914E05909163
:102A20004F05A0915005B091510581159646AE4EC7
:102A3000BF4520F48CED90E00E9482024091460553
:102A400050914705609148057091490580914E0568
:102A500090914F05A0915005B09151054817590725
:102A60006A077B07F0F440914A0550914B0560914D
:102A70004C0570914D0580914E0590914F05A091A8
:102A80005005B0915105481759076A077B0720F494
:102A900086EB90E00E9482028FE890E00E94820222
:102AA000089540914A0550914B0560914C057091F5
:102AB0004D0580914E0590914F05A0915005B09124
:102AC0005105481759076A077B0728F461E084E33A
:102AD00091E00E94970708952F923F924F925F9244
:102AE0006F927F928F929F92AF92BF92CF92DF921E
:102AF000EF92FF920F931F93CF93DF93CDB7DEB783
:102B00002C970FB6F894DEBF0FBECDBF2B013C0152
:102B100049015A01621773078407950750F0E114C1
:102B2000F10409F404C161E0C7010E94970781E044
:102B3000FFC00115110521F061E0C8010E9497074F
:102B400075016401C418D508E608F708C701B60185
:102B500020E833E341EE51E00E94462929013A0181
:102B60004427552760E873E381EE91E00E940E2927
:102B7000C61AD70AE80AF90AC701B60120E831E502
:102B800041E050E00E94462949015A0119014427B9
:102B9000552760E871E581E090E00E940E29C61A91
:102BA000D70AE80AF90AC701B60120E13EE040E091
:102BB00050E00E94462929833A834B835C83298114
:102BC0003A813A87298729813A814B815C81442760
:102BD0005527A0E1BEE00E94A329C61AD70AE80A39
:102BE000F90AC701B6012CE330E040E050E00E9452
:102BF00046292D833E834F8358870D811E812CE308
:102C0000209FC001219F900D1124A601481B590B44
:102C10005C874B871092CE0441145104B9F05F9247
:102C20004F9286E491E09F938F938EEC94E09F9374
:102C30008F930E94622B61E08EEC94E00E949707D4
:102C40000F900F900F900F900F900F902328B9F0D6
:102C50009F928F928EE491E09F938F938EEC94E0FD
:102C60009F938F930E94622B61E08EEC94E00E9410
:102C700097070F900F900F900F900F900F908985EE
:102C80009A85892BC9F09A819F93E981EF9387E513
:102C900091E09F938F938EEC94E09F938F930E948B
:102CA000622B61E08EEC94E00E9497070F900F90EA
:102CB0000F900F900F900F90012BC9F0FE81FF93A2
:102CC0002D812F938FE591E09F938F938EEC94E06D
:102CD0009F938F930E94622B61E08EEC94E00E94A0
:102CE00097070F900F900F900F900F900F903C85CB
:102CF0003F934B854F9387E691E09F938F938EECA4
:102D000094E09F938F930E94622B61E08EEC94E09D
:102D10000E9497070E948A07EEECF4E010820F9061
:102D20000F900F900F900F900F9080E001C081E006
:102D30002C960FB6F894DEBF0FBECDBFDF91CF91BA
:102D40001F910F91FF90EF90DF90CF90BF90AF90C9
:102D50009F908F907F906F905F904F903F902F90BB
:102D600008952F923F924F925F926F927F928F922F
:102D70009F92AF92BF92CF92DF92EF92FF920F930A
:102D80001F93CF93DF93CDB7DEB728970FB6F89494
:102D9000DEBF0FBECDBF0F2EF5E86F2EF1E07F2E08
:102DA000F02D0F2EFEECAF2EF4E0BF2EF02D0F2EE7
:102DB000F9E08F2EF2E09F2EF02D0F2EF6EC4F2E25
:102DC000F1E05F2EF02D0F2EF5E72F2EF1E03F2ED4
:102DD000F02D0E94BB066C01009709F4CFC5FC01E1
:102DE000818192818A39F3E29F0709F4AFC5C8F463
:102DF00085323EE1930709F4A9C550F48E31E3E032
:102E00009E0709F4C8C18F369D4109F4A9C29CC52B
:102E1000863C2EE19207F9F0863A904209F4C5C04B
:102E200093C5853F43E2940709F405C150F48F3CF4
:102E3000F3E29F0709F43AC5803D934209F436C294
:102E400083C5843334E2930709F42AC18C39944250
:102E500009F481C279C5F601838190E0009709F4F5
:102E60008FC08234910509F477C58434910539F413
:102E70008789833509F473C586E090E075C0863490
:102E8000910509F46FC583349105C9F4F60187896A
:102E9000108E823429F090E0C0970A9708F070C035
:102EA000C60147960E94D72A992314F480E090E047
:102EB000863091050CF455C085E090E052C0833512
:102EC0009105E9F5F6018789908D118E823409F418
:102ED00057C0863449F48FEC890F853008F050C014
:102EE000892F90E083971BC0833541F48FEC890FC5
:102EF0008530C0F4892F90E0889711C0963439F45A
:102F00009FEC980F9530E0F590E0839708C09335DB
:102F1000B9F59FEC980F953098F590E08897009759
:102F200019F42EC088E090E08830910514F488E010
:102F300090E083319105ACF082E190E012C08E34D4
:102F4000910559F4F6018789823309F40DC585335B
:102F500009F40CC580E090E007C0C60103960E940A
:102F6000D72A8631910560F489830E9443128091AB
:102F700058059981981721F0CE0101960E94260FDD
:102F8000809158051F928F933F922F92BF92AF92DC
:102F90000E94622B60E0C5010E9497070F900F907E
:102FA0000F900F900F900F90D1C4F601838188236A
:102FB00001F19481963411F0803359F41092040594
:102FC00060E08DE00E942F0260E087E00E942F0207
:102FD00003C081E0809304056091040586E392E0DC
:102FE0000E94292E9091040581E0911180E0809348
:102FF000CD0480910405811105C021E731E0822FC5
:10300000932F04C0EEE6F1E08E2F9F2F9F938F93B6
:103010008DE791E09F938F93BF92AF920E94622BB6
:1030200060E0C5010E9497070F900F900F900F90DE
:103030000F900F908BC4F6018381882389F09481CF
:10304000963411F0803319F41092030503C081E027
:10305000809303056091030581E392E00E94292E8D
:1030600080910305811105C021E731E0822F932F64
:1030700004C0EEE6F1E08E2F9F2F9F938F937F92F7
:103080006F92BF92AF920E94622B60E0C5010E94D6
:1030900097070F900F900F900F900F900F9056C4BE
:1030A000F6018381882309F451C4803321F481E03F
:1030B000809321014BC4813319F40E94C21446C489
:1030C000823309F043C481E0809321010E94650AA4
:1030D00081115EC081E08093310520914A053091D5
:1030E0004B0540914C0550914D0560914E057091F6
:1030F0004F0580915005909151050F2EFDE8EF2E60
:10310000F1E0FF2EF02D0AE911E00E946C152091EC
:103110004605309147054091480550914905609119
:103120004A0570914B0580914C0590914D05E12C1D
:10313000F12C06EA11E00E946C1540914A0550916D
:103140004B0560914C0570914D0580914E05909115
:103150004F05A0915005B0915105481759076A07CE
:103160007B0708F0F3C32091460530914705409155
:1031700048055091490560914E0570914F05809129
:103180005005909151050EEA11E00E946C15DEC3C6
:103190000E940515DBC3F6018381882309F44DC025
:1031A00080E290E0F50191838083B6016D5F7F4FEF
:1031B000C5010E94242BF6018789882379F0F50147
:1031C00001900020E9F7319780E290E091838083BD
:1031D000B601695E7F4FC5010E94242BF501019065
:1031E0000020E9F73197EE5CF440759730F5B501B2
:1031F0008CE195E00E942F2BF12C0CE115E0F801F9
:1032000001900020E9F7CF018D5195402F2D30E03E
:103210002817390758F4C901FC01E95FFA4F65899D
:103220008F549D4F0E94292EF394E9CF8F2D90E06B
:1032300060E08F549D4F0E94292E80911C058823A9
:10324000F1F06091190170E08CE195E00E94022399
:103250008C509E4F9C01369527953695279536952F
:103260002795A5ECB0E20E948D29929582958F70EA
:1032700089279F70892790930605809305058CE127
:1032800095E09F938F938FEB91E09F938F93BF92E5
:10329000AF920E94622B61E0C5010E9497070F90D8
:1032A0000F900F900F900F900F9050C3F6018381F5
:1032B0008934E1F587898823C9F1C60147960E94C0
:1032C000F52A862F90E08530910514F485E090E092
:1032D000853191050CF084E1809319016091190109
:1032E00088E392E00E94292E80911C058823F1F04A
:1032F0006091190170E08CE195E00E9402238C50EE
:103300009E4F9C013695279536952795369527959E
:10331000A5ECB0E20E948D29929582958F70892745
:103320009F70892790930605809305058091190168
:103330001F928F935F924F92BF92AF920E94622B27
:1033400060E0C5010E9497070F900F900F900F90BB
:103350000F900F90FBC28FEF91E00E948202F6C2A5
:10336000F6018381843509F08BC04CE050E0B60152
:10337000695E7F4FC5010E94362BF50114860190CE
:103380000020E9F73197EE5CF4401E161F060CF0A2
:1033900047C03C9709F03FC0C5010E94B414882380
:1033A000D1F1B50180E090E00E944E236130764675
:1033B0008E4E9F4558F1C5010E94592460E070E08F
:1033C00080E090E00E944E2360934E0570934F057D
:1033D000809350059093510580914E0590914F0533
:1033E000A0915005B0915105BF93AF939F938F93D8
:1033F00087ED91E09F938F93BF92AF920E94622BD3
:103400000FB6F894DEBF0FBECDBFB3C280E090E030
:103410000E948202AEC284E190E00E948202A9C2B0
:1034200020914A0530914B0540914C0550914D0536
:1034300060914E0570914F05809150059091510516
:10344000E12CF12C0AE911E00E946C1580914E05E7
:1034500090914F05A0915005B0915105BF93AF9346
:103460009F938F9382ED91E09F938F93BF92AF9242
:103470000E94622B0FB6F894DEBF0FBECDBF79C29B
:10348000833509F0CFC0B601695E7F4FC5010E9448
:103490002F2BF50101900020E9F73197EE5CF44005
:1034A0001E161F060CF0A4C03C9709F09CC0C50175
:1034B0000E94B414882309F496C0B50180E090E01E
:1034C0000E944E2300914E0510914F05209150050A
:1034D00030915105061717072807390708F07EC0F5
:1034E00060934A0570934B0580934C0590934D056E
:1034F00040914A0550914B0560914C0570914D05E6
:103500008CE292E00E943B2E809146059091470507
:10351000A0914805B09149058D839E83AF83B887FC
:1035200080914A0590914B05A0914C05B0914D05B5
:1035300080589E4AAE4FBF4F89839A83AB83BC832A
:103540004D815E816F817885481759076A077B072F
:1035500028F489819A81AB81BC8104C08D819E81D0
:10356000AF81B8858093460590934705A0934805A1
:10357000B093490540914605509147056091480533
:103580007091490588E292E00E943B2E80914A05A5
:1035900090914B05A0914C05B0914D05BF93AF9311
:1035A0009F938F9381EE91E09F938F93BF92AF9201
:1035B0000E94622B0E94650A0FB6F894DEBF0FBE10
:1035C000CDBF811107C09091210181E0911103C00D
:1035D00080E001C080E080933105CBC188E290E0BB
:1035E0000E948202C6C184E190E00E948202C1C1B1
:1035F00080914A0590914B05A0914C05B0914D05E5
:10360000BF93AF939F938F9381EE91E09F938F939E
:10361000BF92AF920E94622B0FB6F894DEBF0FBE2E
:10362000CDBFA7C1863409F0B6C0B601695E7F4F31
:10363000C5010E942F2BF50101900020E9F7319779
:10364000EE5CF4401E161F060CF08BC03C9709F090
:1036500083C0C5010E94B414882309F47DC0B5015C
:1036600080E090E00E944E2300914E0510914F059E
:103670002091500530915105061717072807390783
:1036800008F065C000914A0510914B0520914C054A
:1036900030914D05061717072807390708F052C063
:1036A00060934605709347058093480590934905BC
:1036B0004091460550914705609148057091490534
:1036C00088E292E00E943B2E20914605309147050A
:1036D000409148055091490560914A0570914B050C
:1036E00080914C0590914D05E12CF12C06EA11E0FA
:1036F0000E946C158091460590914705A091480560
:10370000B0914905BF93AF939F938F938CEE91E057
:103710009F938F93BF92AF920E94622B0E94650A83
:103720000FB6F894DEBF0FBECDBF811107C09091D8
:10373000210181E0911103C080E001C080E080930D
:10374000310517C183E590E00E94820212C18DE32A
:1037500090E00E9482020DC184E190E00E9482020A
:1037600008C18091460590914705A0914805B09108
:103770004905BF93AF939F938F938CEE91E09F93F6
:103780008F93BF92AF920E94622B0FB6F894DEBF68
:103790000FBECDBFEEC0833409F5F60187898823BB
:1037A00051F0C60147960E94D72A8115F2E09F0783
:1037B00010F40E94CD240E94B3249F938F9388EF2E
:1037C00091E09F938F93BF92AF920E94622B0F90D4
:1037D0000F900F900F900F900F90CBC0883521F471
:1037E000E8980E94F125B2C00E94650A882319F06A
:1037F0000E940515ABC020914A0530914B054091C0
:103800004C0550914D0560914E0570914F0580918A
:103810005005909151050F2EFDE8EF2EF1E0FF2E9F
:10382000F02D0AE911E00E946C15209146053091B7
:103830004705409148055091490560914A057091AE
:103840004B0580914C0590914D05E12CF12C06EA39
:1038500011E00E946C1540914A0550914B05609112
:103860004C0570914D0580914E0590914F05A091AA
:103870005005B0915105481759076A077B0708F0B2
:1038800065C020914605309147054091480550910B
:10389000490560914E0570914F05809150059091BA
:1038A00051050EEA11E00E946C1550C0F6018381AB
:1038B000833489F587898823B1F0C60147960E9431
:1038C000D72A9C012153384F2F393F4060F4909301
:1038D000170180931601609116017091170184E31E
:1038E00092E00E94472E80911601909117019F93BC
:1038F0008F932EEF31E03F932F93BF92AF920E94B0
:10390000622B60E0C5010E9497070F900F900F9007
:103910000F900F900F9080913305282F082E000CE8
:10392000330B3F938F939F928F92BF92AF920E94DF
:10393000622B61E0C5010E9497070F900F900F90D6
:103940000F900F900F9002C00E94C807F6011282DC
:1039500011820E9483073DCA80E090E005CB83E19D
:1039600090E002CB87E000CB84E1FECA85E190E0E5
:10397000FBCA61E0C5010E949707E8CF28960FB601
:10398000F894DEBF0FBECDBFDF91CF911F910F9195
:10399000FF90EF90DF90CF90BF90AF909F908F906F
:1039A0007F906F905F904F903F902F9008952F924F
:1039B0003F924F925F926F927F928F929F92AF92BF
:1039C000BF92CF92DF92EF92FF920F931F93CF930C
:1039D000DF931F92CDB7DEB70E94B11680915605D6
:1039E00090915705892B29F080917504882309F45B
:1039F000DAC08091210181112EC11092750480914D
:103A00005805863091F480911F0190912001BC01EE
:103A1000660F771F660F771F680F791F6D577D4FF1
:103A200087E095E00E942F2B27C0809158058331B5
:103A300099F480911F01909120010896BC01660FB6
:103A4000771F660F771F680F791F6D577D4F87E0CF
:103A500095E00E942F2B10C08091580590E0BC018A
:103A6000660F771F660F771F680F791F6D577D4FA1
:103A700087E095E00E942F2B80915805863009F150
:103A8000809158058331E9F0809158058823C9F069
:103A9000809158058730A9F080915805883089F0C9
:103AA0002091580540911F015091200180913D05C2
:103AB00090913E0530E0840F951F2817390709F0D3
:103AC000CAC081E089836091180170E082E89BE1BF
:103AD0000E943229CB016AE070E00E943229660F11
:103AE000771F709355056093540540E050E0BE0188
:103AF0006F5F7F4F87E095E00E94042280913A0536
:103B000081110BC020913B0530913C05809144050B
:103B100090914505821793073CF10091440510915F
:103B200045056091190170E08CE195E00E94022347
:103B30008C509E4F9C013695279536952795369546
:103B40002795A5ECB0E20E948D29929582958F7001
:103B500089279F708927081B190B10930E0100936A
:103B60000D0110923A050AC08091440590914505D7
:103B70008D599F4F90930E0180930D0110920C016F
:103B800081E090E09093570580935605109253057D
:103B900010923F0580911F019091200190931C018C
:103BA00080931B0158C080910C0181119AC1209112
:103BB00042053091430580910D0190910E01281727
:103BC000390709F08EC16BC180915805843108F422
:103BD0008EC109C010923F051092570510925605EC
:103BE00081E08093750480915805863021F08091A2
:103BF0005805833149F480915305882361F1809100
:103C00003F05811179C127C080915805882341F073
:103C100080915805873021F080915805883041F413
:103C2000809153058823B9F081E08093750413C017
:103C300080915805893008F468C180915805833116
:103C400008F063C18091530581115AC15EC1809112
:103C50005305811166C186EF94E00E943B048823DE
:103C600009F412C180911501811160C10E942614CE
:103C70000E9436140E94ED26809133056817B1F03A
:103C80006093330589E1861B880F990B875C9D4FF4
:103C90000E94152E2091000530910105A901480FC1
:103CA000511D87FD5A95CA010E94CD2480E00E94D3
:103CB0008E148CE38093150139C1F5014191519126
:103CC000619171915F0186EF94E00E94580386EF45
:103CD00094E00E943E04E62EF72ED82EC92E272D02
:103CE000362D452D542D0E9414281816B4F420E0CA
:103CF00034E244E759E46E2D7F2D8D2D9C2D0E94DA
:103D00001428181634F448017E2C6F2C5D2C4C2C92
:103D100004C07E2C6F2C5D2C4C2C0F5F1F4F043089
:103D2000110559F613C1F5014191519161917191BC
:103D30005F0186EF94E00E94580386EF94E00E94B2
:103D40003E04E62EF72ED82EC92E252D342D432DD8
:103D5000522D0E9414281816B4F420E034E244E7EF
:103D600059E46E2D7F2D8D2D9C2D0E941428181640
:103D700034F438015E2C4F2C3D2C2C2C04C05E2CCE
:103D80004F2C3D2C2C2C0F5F1F4F0430110559F682
:103D900077200CF471C0C401880F991F880F991FF8
:103DA0008D5A9D4FFC01E60DF71D10818091740422
:103DB000181317C080910A0190910B0101969093FE
:103DC0000B0180930A01039761F481E0809334052D
:103DD00010927304109272041093FF04812F0E94BA
:103DE00049121093740448C0C090F704D090F804AE
:103DF000E090F904F090FA048090FB049090FC04A9
:103E0000A090FD04B090FE04809172049091730420
:103E10009C012F5F3F4F30937304209372040397EC
:103E20005CF11092340560E08DE00E942F02C8180A
:103E3000D908EA08FB08FCEDCF16F5E0DF06E1043F
:103E4000F10420F410920B0110920A0110927304F5
:103E5000109272048091F7049091F804A091F904F3
:103E6000B091FA048093FB049093FC04A093FD04AA
:103E7000B093FE0410927404EAE7F0E08081886059
:103E80008083808180648083109132050E94650A5E
:103E900080933205811171C011116BC06EC06091A9
:103EA000190170E082E89BE10E943229CB016AE0AF
:103EB00070E00E943229660F771F7093550560935A
:103EC0005405198240E050E0BE016F5F7F4F8CE1E6
:103ED00095E00E94042281E080930C01109253052A
:103EE00082CE80915805893008F06ECE7CCE8091CC
:103EF0003F0581116FCE77CE81E080937504ABCE04
:103F00001092570510925605A6CE80915805209123
:103F10001F013091200190E08217930709F097CE9E
:103F20009ACE109257051092560595CE0F2EF3E6B5
:103F3000AF2EF2E0BF2EF02D00E010E088248A942E
:103F4000982C712C612C512C412CB7CE99200CF45B
:103F50004BCF0F2EF3E7AF2EF2E0BF2EF02D00E097
:103F600010E066246A94762C512C412C312C212CA3
:103F7000DACE60E087E00E942F020F90DF91CF91B0
:103F80001F910F91FF90EF90DF90CF90BF90AF9077
:103F90009F908F907F906F905F904F903F902F9069
:103FA000089561E08DE00E94410160E08DE00E9493
:103FB0002F0261E087E00E94410160E087E00E94FB
:103FC0002F0261E08AE00E94410160E08AE00E94E5
:103FD0002F0261E089E00E94410160E089E00E94D7
:103FE0002F0261E088E00E94410160E088E00E94C9
:103FF0002F0261E08AE00E94410160E08AE00E94B5
:104000002F0260E084E10E94410160E085E10E94AE
:10401000410163E08CE00E94410161E08BE00E947D
:10402000410160E08BE00E942F0263E084E00E9487
:10403000410161E08EE00E94410161E08FE00E9459
:10404000410161E080E10E94410161E081E10E9463
:10405000410161E080E00E94410161E081E00E9455
:10406000410163E082E10E94410163E083E10E943B
:10407000410180E00E94B00C81E00E948E14E9E6CC
:10408000F0E0808182608083E89AA0EBB0E01C922F
:10409000E1EBF0E010828C9182608C9380818760EC
:1040A00080838CE08093B3001092B400E6EBF0E0E4
:1040B00080818F7D8083E0E7F0E0108280818460E2
:1040C000808310928000E1E8F0E010821092850079
:1040D0001092840084EF91E090938900809388008F
:1040E00080818860808380818160808314BC84B5F6
:1040F000826084BD15BC85B5846085BD8FE287BDB7
:10410000EEE6F0E01082808182608083EDE6F0E0F0
:10411000108280E18083E8E6F0E0108284E0808312
:10412000789460E071EE80E090E00E9408070E94C1
:104130008D25C82F60E070E080E090E00E944E2363
:1041400060934E0570934F058093500590935105F1
:104150000E94C807CC2354F487E0EFE0F2E0AEEC15
:10416000B4E001900D928A95E1F723C0C0FF0AC028
:1041700087E0E6E1F2E0AEECB4E001900D928A95C2
:10418000E1F717C0C1FF0AC087E0EDE1F2E0AEEC55
:10419000B4E001900D928A95E1F70BC0C5FF09C00C
:1041A00088E0E4E2F2E0AEECB4E001900D928A9592
:1041B000E1F78091CE04882329F061E08EEC94E051
:1041C0000E9497070E9405150E94830780E090E0F7
:1041D0000E94260F0E94650A811107C0909121015B
:1041E00081E0911103C080E001C080E0809331053F
:1041F0000E94D71CFDCF0F931F9300E018E726E91C
:1042000036E440E050E069E473E486EF94E00E9415
:10421000F0021F910F91089586EF94E00E943E03F3
:10422000089590E0FC01B097ED35F10508F0E4C089
:10423000E857FF4F0C94872989E074E061E0089506
:104240008BE074E065E0089587E073E061E0089535
:1042500081E071E060E0089589E074E064E0089531
:1042600089E073E063E0089587E074E060E008951A
:1042700083E072E060E008958DE074E06EE0089500
:1042800089E073E065E0089589E074E062E00895F4
:1042900087E072E063E0089585E072E061E00895F0
:1042A0008BE073E067E008958BE074E066E00895CA
:1042B0008DE074E06BE0089587E073E062E00895BC
:1042C00085E073E060E0089583E071E061E00895C7
:1042D00087E073E064E0089589E074E068E00895A1
:1042E00089E073E066E008958BE074E069E008958A
:1042F0008DE074E06DE008958BE074E063E0089574
:1043000083E175E06FE1089581E175E06EE1089564
:104310008FE075E06CE108958DE075E068E1089547
:104320008BE075E060E1089589E075E060E0089554
:104330008BE075E061E008958DE075E063E008953D
:104340008FE075E067E0089581E175E06FE0089522
:1043500081E176E06AE2089583E176E063E308951F
:104360008FE076E06CE0089583E176E06EE10895F9
:1043700083E176E065E308958DE075E069E00895F6
:104380008FE075E06DE0089583E176E06DE20895D9
:104390008BE075E062E0089581E176E067E00895E2
:1043A0008CE076E065E108958DE075E061E10895C7
:1043B0008DE075E06AE008958FE076E061E20895AF
:1043C00081E176E06CE208958FE076E062E10895A5
:1043D00081E177E068E4089581E176E066E108959F
:1043E00084E077E06FEF089587E077E06EEF08955F
:1043F00083E175E06FE1089580E070E060E008958A
:1044000085E072E062E00895CF93DF93EA010097C0
:10441000B1F1109268056115710521F0DB012C9155
:1044200020932301FC0120812223D9F0909367057A
:104430008093660580E280932201822F0E941121E1
:10444000609363057093640580936505109262051F
:10445000109261051092600510925F0510925E0542
:104460000AC0109267051092660581E080935E0590
:10447000209709F0888310925D0580E0C0C0E0912C
:104480006605F0916705309709F4AAC061157105BA
:1044900021F080912301DB018C9380915E058823BC
:1044A00049F0209709F4A8C081E08883109268053C
:1044B00080E0A5C080916005882321F08150809321
:1044C00060057FC080915D05882381F0809168053B
:1044D00081110CC010925D0580915F05882309F45D
:1044E00070C08093600510925F056BC09091640569
:1044F00080916105891790F1809162058F5F8093AB
:104500006205DF01A80FB11D8C91809322018111FA
:1045100019C080912301882331F08081809322018A
:10452000109262050FC010926705109266051092F6
:104530005D0591E090935E05209709F098831092B5
:1045400068055DC0809122010E941121609363057E
:104550007093640580936505109261052091630551
:104560002D3F00F54091610531E0340F3093610536
:1045700081E090E002C0880F991F4A95E2F78223FC
:1045800021F082E08093600502C01092600581E016
:1045900080935D0580916405381798F082E08093E0
:1045A0005F050FC0809164059FEF909361051092A5
:1045B0005D05843020F084508093600502C0109225
:1045C0006005809122018C3331F481E0809368058D
:1045D000209741F414C010926805209719F409C07F
:1045E000209719F080915E0588838091680581117C
:1045F00005C080915D0503C080E001C081E0DF91CE
:10460000CF910895CF92DF92EF92FF920F931F9375
:10461000CF93FC016B0180818823C1F08F010F5F74
:104620001F4F7F0194E1E90EF11CC0E005C0F801C5
:1046300081918F01882359F00E9411216D3F08F468
:10464000CD5FC80F0E151F0591F701C0C0E080EBCC
:1046500094E0B6010E941E29C69FC001C79F900D1D
:104660001124CF911F910F91FF90EF90DF90CF9089
:104670000895982F9695969596959E71292F220FBD
:10468000220F920F8F70890F0895FC012081818184
:104690008053F0E12F9F800D112408954F925F9277
:1046A0006F927F928F929F92AF92BF92CF92DF9242
:1046B000EF92FF920F931F93CF93DF93CDB7DEB7A7
:1046C00027970FB6F894DEBF0FBECDBF6C017B01FC
:1046D000FE01319687E0DF011D928A95E9F76115A9
:1046E0007105F1F0CB010A960E9445238983C70129
:1046F00008960E9445238A83C70106960E94452397
:104700008B83C70104960E9445238D83C7010296BF
:104710000E9445238E83C7010E9445238F830BC0CF
:1047200027E0AE014F5F5F4F60E084EA0E949E0584
:10473000382F81119BC08F810E943923A82EB12C64
:104740004501B0E38B1AB8EF9B0A8E810E94392392
:10475000082F8D810E943923782E023068F0E12CD9
:10476000F12C11E0612FC4010E942001E80EF11C20
:104770001F5F0113F7CF02C0E12CF12C872D770CBE
:10478000990B0197E80EF91E89810E943923482E62
:104790008A810E943923182F8B810E943923042C8F
:1047A000000C5508ECE31E02400C511C1124052C92
:1047B000000C66087708A82F880FBB0B20E13EE0AD
:1047C0000E949C29460E571E681E791ED70120E8BC
:1047D00031E541E050E00E94AE29460E571E681EAA
:1047E000791ED5015E9620E833E341EE51E00E9448
:1047F000AE29460E571E681E791EC5014F96DC0174
:104800000AF41396B595A795B595A79520E831E5D7
:1048100041E050E00E94AE29460E571E681E791EE8
:10482000C5018D599F4F64E670E00E943229DB017B
:1048300020E83EEA4EEF5FEF0E94AE29460E571E7B
:10484000681E791EC50181579E4F60E971E00E9484
:104850003229DB0120E831E541E050E00E94AE2939
:10486000640D751D861D971D30E003C060E070E08B
:10487000CB01C114D10431F021E0311101C020E09D
:10488000D6012C9327960FB6F894DEBF0FBECDBF8E
:10489000DF91CF911F910F91FF90EF90DF90CF901C
:1048A000BF90AF909F908F907F906F905F904F9050
:1048B0000895CF93DF93CDB7DEB727970FB6F8945F
:1048C000DEBF0FBECDBF21E02C83DC010D900020A8
:1048D000E9F71197A81BB90B1C970CF43AC0FC011F
:1048E00092858385805320E1929F800D11248983D6
:1048F00090858185805320E1929F800D11248A83C9
:1049000096818781805320E1929F800D11248B83B3
:1049100094818581805320E1929F800D11248D83A5
:1049200092818381805320E1929F800D11248E8398
:1049300090818181805320E1929F800D11248F838B
:1049400027E0AE014F5F5F4F60E084EA0E943B05C5
:1049500001C081E027960FB6F894DEBF0FBECDBF31
:10496000DF91CF910895CF93DF9300D0CDB7DEB71D
:1049700022E0AE014F5F5F4F66E384EA0E949E052E
:10498000898190E0880F991F2A8122230CF40196D7
:104990000F900F90DF91CF910895CF93DF9300D0C8
:1049A000CDB7DEB720E12A839C0136952795298370
:1049B00080FF02C080E98A8322E0AE014F5F5F4F33
:1049C00066E384EA0E943B050F900F90DF91CF9140
:1049D0000895CF93DF931F92CDB7DEB781E089832F
:1049E00021E0AE014F5F5F4F6EE084EA0E949E05BA
:1049F000811107C08981807889838111F1CF80E09E
:104A000003C089818823D9F30F90DF91CF91089556
:104A10001F93CF93DF9300D000D0CDB7DEB78B8349
:104A2000162F4C8319820E94E92481115EC088E010
:104A3000898321E0AE014F5F5F4F6FE084EA0E94FF
:104A40003B05811154C021E0AE014E5F5F4F6B8189
:104A500084EA0E949E05912F90958A8189238A83FA
:104A60009C811923812B8C8321E0AE014D5F5F4F28
:104A700065E284EA0E943B0581113BC021E0AE0162
:104A80004C5F5F4F66E284EA0E943B05811133C0B0
:104A9000198221E0AE014F5F5F4F67E284EA0E9416
:104AA0003B0581112AC00E94E924811128C081E2BE
:104AB000898321E0AE014F5F5F4F67E284EA0E9485
:104AC0003B0581111EC00E94E92481111CC019827E
:104AD00021E0AE014F5F5F4F6FE084EA0E943B052B
:104AE00091E0811111C090E00FC091E00DC091E004
:104AF0000BC091E009C091E007C091E005C091E0D2
:104B000003C091E001C091E0892F0F900F900F90AA
:104B10000F90DF91CF911F910895CF93DF9300D035
:104B2000CDB7DEB719821A82809169058823C9F052
:104B30000E94E92481114BC085EC8A8345EC6FEF1C
:104B400085E30E940825811144C084E08A8344E003
:104B500066E087E30E94082581113DC01092690537
:104B60001AC021E0AE014E5F5F4F67E284EA0E9407
:104B70003B0589830E94E92482E18A8321E0AE011A
:104B80004E5F5F4F67E284EA0E943B059981892B63
:104B900089830E94E924898181110CC021E0AE0142
:104BA0004F5F5F4F6EE084EA0E949E0589818F7699
:104BB000898302C080E889831A8221E0AE014E5FBA
:104BC0005F4F6EE084EA0E943B05898105C081E069
:104BD00003C081E001C081E00F900F90DF91CF9181
:104BE0000895CF93DF931F92CDB7DEB780EC898312
:104BF00021E0AE014F5F5F4F65E384EA0E943B0511
:104C00000F90DF91CF9108955058BB27AA270E949B
:104C10001C260C94C6270E948D2738F00E949427EA
:104C200020F039F49F3F19F426F40C948A270EF4EF
:104C3000E095E7FB0C948427E92F0E94EB2758F3BB
:104C4000BA17620773078407950720F079F4A6F571
:104C50000C940D280EF4E0950B2EBA2FA02D0B010D
:104C6000B90190010C01CA01A0011124FF27591BB1
:104C700099F0593F50F4503E68F11A16F040A22FB7
:104C8000232F342F4427585FF3CF46953795279528
:104C9000A795F0405395C9F77EF41F16BA0B620B27
:104CA000730B840BBAF09150A1F0FF0FBB1F661F6E
:104CB000771F881FC2F70EC0BA0F621F731F841FB1
:104CC00048F4879577956795B795F7959E3F08F0D7
:104CD000B0CF9395880F08F09927EE0F9795879599
:104CE00008950E94602708F481E008950E949D279E
:104CF000E3950C94D7270E948F260C94C6270E9418
:104D0000942758F00E948D2740F029F45F3F29F046
:104D10000C94842751110C940E280C948A270E941D
:104D2000EB2768F39923B1F3552391F3951B550BAA
:104D3000BB27AA2762177307840738F09F5F5F4F6E
:104D4000220F331F441FAA1FA9F335D00E2E3AF0AD
:104D5000E0E832D091505040E695001CCAF72BD0C5
:104D6000FE2F29D0660F771F881FBB1F2617370716
:104D70004807AB07B0E809F0BB0B802DBF01FF2748
:104D800093585F4F3AF09E3F510578F00C9484277A
:104D90000C940E285F3FE4F3983ED4F38695779504
:104DA0006795B795F7959F5FC9F7880F911D969501
:104DB000879597F90895E1E0660F771F881FBB1F5D
:104DC000621773078407BA0720F0621B730B840B0A
:104DD000BA0BEE1F88F7E09508950E94F4266894B8
:104DE000B1110C940E2808950E94F32788F09F5764
:104DF00098F0B92F9927B751B0F0E1F0660F771FFF
:104E0000881F991F1AF0BA95C9F714C0B13091F0F4
:104E10000E940D28B1E008950C940D28672F782F7B
:104E20008827B85F39F0B93FCCF3869577956795B9
:104E3000B395D9F73EF490958095709561957F4F25
:104E40008F4F9F4F0895E89409C097FB3EF49095CB
:104E50008095709561957F4F8F4F9F4F9923A9F053
:104E6000F92F96E9BB279395F695879577956795E2
:104E7000B795F111F8CFFAF4BB0F11F460FF1BC026
:104E80006F5F7F4F8F4F9F4F16C0882311F096E9B9
:104E900011C0772321F09EE8872F762F05C0662367
:104EA00071F096E8862F70E060E02AF09A95660F20
:104EB000771F881FDAF7880F9695879597F90895D9
:104EC000990F0008550FAA0BE0E8FEEF161617061B
:104ED000E807F907C0F012161306E407F50798F083
:104EE000621B730B840B950B39F40A2661F0232B9C
:104EF000242B252B21F408950A2609F4A140A69518
:104F00008FEF811D811D089597F99F6780E870E0FC
:104F100060E008959FEF80EC089500240A9416162F
:104F2000170618060906089500240A941216130697
:104F30001406050608950C948A270E94F327D8F3D7
:104F4000E894E0E0BB279F57F0F02AED3FE049EC02
:104F500006C0EE0FBB0F661F771F881F28F0B23AFE
:104F600062077307840728F0B25A620B730B840B35
:104F7000E3959A9572F7803830F49A95BB0F661FC7
:104F8000771F881FD2F790480C94C728092E0394E6
:104F9000000C11F4882352F0BB0F40F4BF2B11F426
:104FA00060FF04C06F5F7F4F8F4F9F4F0895EF9357
:104FB000E0FF07C0A2EA2AED3FE049EC5FEB0E9468
:104FC0001C260E94C6270F90039401FC9058EAEC1F
:104FD000F1E00C94D32857FD9058440F551F59F019
:104FE0005F3F71F04795880F97FB991F61F09F3FD6
:104FF00079F087950895121613061406551FF2CFFF
:105000004695F1DF08C0161617061806991FF1CF4E
:1050100086957105610508940895E894BB27662775
:105020007727CB0197F908950E94602708F48FEF46
:1050300008950E942C280C94C6270E948D2738F0D2
:105040000E94942720F0952311F00C9484270C944F
:105050008A2711240C940E280E94EB2770F3959F49
:10506000C1F3950F50E0551F629FF001729FBB275F
:10507000F00DB11D639FAA27F00DB11DAA1F649FFB
:105080006627B00DA11D661F829F2227B00DA11DAE
:10509000621F739FB00DA11D621F839FA00D611D34
:1050A000221F749F3327A00D611D231F849F600D55
:1050B000211D822F762F6A2F11249F5750409AF07E
:1050C000F1F088234AF0EE0FFF1FBB1F661F771F0A
:1050D000881F91505040A9F79E3F510580F00C94D5
:1050E00084270C940E285F3FE4F3983ED4F3869512
:1050F00077956795B795F795E7959F5FC1F7FE2B75
:10510000880F911D9695879597F908950E94F3272A
:10511000E8F09E37E8F09639B8F49E3848F4672FE7
:10512000782F8827985FF9CF86957795679593951F
:105130009539D0F3B62FB1706B0F711D811D20F41E
:1051400087957795679593950C94AA280C94C52814
:105150000C940E28882371F4772321F09850872B24
:10516000762F07C0662311F499270DC09051862B26
:1051700070E060E02AF09A95660F771F881FDAF7D3
:10518000880F9695879597F908959F3F31F0915034
:1051900020F4879577956795B795880F911D96951B
:1051A000879597F908959F938F937F936F93FF93BC
:1051B000EF939B01AC010E941928EF91FF910E948F
:1051C000E7282F913F914F915F910C941928DF931D
:1051D000CF931F930F93FF92EF92DF927B018C018D
:1051E000689406C0DA2EEF010E942C28FE01E89494
:1051F000A5912591359145915591A6F3EF010E9416
:105200001C26FE019701A801DA9469F7DF90EF9060
:10521000FF900F911F91CF91DF910895DB018F9344
:105220009F930E94A329BF91AF91A29F800D911DD2
:10523000A39F900DB29F900D11240895AA1BBB1B34
:1052400051E107C0AA1FBB1FA617B70710F0A61B86
:10525000B70B881F991F5A95A9F780959095BC01A7
:10526000CD01089597FB072E16F4009407D077FD23
:1052700009D00E941E2907FC05D03EF49095819527
:105280009F4F0895709561957F4F0895A1E21A2E62
:10529000AA1BBB1BFD010DC0AA1FBB1FEE1FFF1FDA
:1052A000A217B307E407F50720F0A21BB30BE40B2A
:1052B000F50B661F771F881F991F1A9469F7609571
:1052C0007095809590959B01AC01BD01CF0108952B
:1052D000052E97FB1EF400940E947F2957FD07D0EE
:1052E0000E94462907FC03D04EF40C947F29509568
:1052F0004095309521953F4F4F4F5F4F08959095C2
:105300008095709561957F4F8F4F9F4F0895EE0F59
:10531000FF1F0590F491E02D0994A29FB001B39F67
:10532000C001A39F700D811D1124911DB29F700DAE
:10533000811D1124911D08950E948D29B7FF0895A4
:10534000821B930B08950E948D29A59F900DB49FF9
:10535000900DA49F800D911D11240895B7FF0C940A
:10536000A3290E94A329821B930B08950F931F93D7
:10537000CF93DF938230910510F482E090E0E091CA
:105380006C05F0916D0520E030E0A0E0B0E03097D2
:1053900019F1408151810281138148175907C8F0E2
:1053A0008417950769F4109731F012960C931297B1
:1053B00013961C9327C000936C0510936D0522C0B3
:1053C0002115310519F04217530718F49A01BD0150
:1053D000EF01DF01F801DBCF21153105F9F0281BC2
:1053E000390B2430310580F48A819B816115710568
:1053F00021F0FB019383828304C090936D05809319
:105400006C05FE01329644C0FE01E20FF31F81934A
:10541000919322503109398328833AC020916A053B
:1054200030916B05232B41F420910201309103014F
:1054300030936B0520936A052091000130910101A2
:105440002115310541F42DB73EB74091040150912B
:105450000501241B350BE0916A05F0916B05E217FD
:10546000F307A0F42E1B3F0B2817390778F0AC0187
:105470004E5F5F4F2417350748F04E0F5F1F509364
:105480006B0540936A058193919302C0E0E0F0E0E0
:10549000CF01DF91CF911F910F910895CF93DF93AB
:1054A000009709F481C0FC01329713821282A09107
:1054B0006C05B0916D05109781F420813181820FC8
:1054C000931F20916A0530916B052817390751F514
:1054D000F0936B05E0936A0567C0ED0120E030E0D2
:1054E000CE17DF0740F44A815B819E0141155105CB
:1054F000F1F0EA01F5CFD383C28340815181840F5B
:10550000951FC817D90759F488819981840F951F71
:105510000296918380838A819B8193838283211564
:10552000310529F4F0936D05E0936C053DC0E90168
:10553000FB83EA8349915991C40FD51FEC17FD07EE
:1055400061F480819181840F951F0296E90199830E
:105550008883828193819B838A83E0E0F0E01296C6
:105560008D919C911397009719F0FD01DC01F7CF05
:105570008D919C9111979D012E5F3F4F820F931F3C
:1055800020916A0530916B052817390769F4309727
:1055900029F410926D0510926C0502C013821282DC
:1055A000B0936B05A0936A05DF91CF910895FC013C
:1055B00088279927E89421912032E9F3293010F0C7
:1055C0002E30C8F32B3241F02D3239F4689404C0E8
:1055D0000E945A2B820F911D219120532A30C0F333
:1055E0001EF4909581959F4F08951F93FC01992774
:1055F0008827BC01E89411911032E9F3193010F0BA
:105600001E30C8F31B3251F01D3249F4689406C0B5
:105610000E94452B610F711D811D911D1191105329
:105620001A30B0F33EF490958095709561957F4F58
:105630008F4F9F4F1F9108959111089581568A5160
:1056400008F4805285580895FB01DC010D9000207C
:10565000E9F7119701900D920020E1F70895FB0101
:10566000DC0101900D920020E1F70895FB01DC01BF
:105670004150504048F001900D920020C9F701C000
:105680001D9241505040E0F70895592F482F372F71
:10569000262F660F771F881F991F660F771F881F99
:1056A000991F620F731F841F951F660F771F881F36
:1056B000991F08957AE0979F902D879F802D910DD7
:1056C00011240895AEE0B0E0E8E6FBE20C946B2E06
:1056D0000D891E8986E08C831A8309838FEF9FE7EB
:1056E0009E838D83AE01475E5F4F6F89788DCE01BB
:1056F00001960E94842BEF81F885E00FF11F108244
:105700002E96E4E00C94872EABE0B0E0EAE8FBE2F2
:105710000C945D2E6C017B018A01FC0117821682BC
:10572000838181FFCCC1CE0101963C01F6019381BA
:10573000F70193FD859193FF81917F01882309F4FF
:10574000BAC1853239F493FD859193FF81917F0130
:10575000853229F4B60190E00E947B2DE7CF912C91
:10576000212C312CFFE1F315D8F08B3279F038F48D
:10577000803279F08332A1F4232D20611DC08D3257
:1057800061F0803369F4232D216016C0832D82607F
:10579000382EE32DE4603E2E2AC0F32DF8601DC0A4
:1057A00037FC2DC020ED280F2A3040F08E32B9F49E
:1057B00036FC81C1232D2064322E19C036FE06C06E
:1057C0008AE0989E200D1124922E11C0EAE02E9EB0
:1057D000200D1124222EF32DF0623F2E08C08C36AE
:1057E00021F4832D8068382E02C0883641F4F701F9
:1057F00093FD859193FF81917F018111B3CF982F04
:105800009F7D9554933028F40C5F1F4F9FE399833D
:105810000DC0833631F0833771F0833509F059C0FC
:1058200021C0F801808189830E5F1F4F88248394F3
:10583000912C530113C02801F2E04F0E511CF801C6
:10584000A080B18036FE03C0692D70E002C06FEF0A
:105850007FEFC5010E94702D4C018201F32DFF776F
:105860003F2E16C0280122E0420E511CF801A080F4
:10587000B18036FE03C0692D70E002C06FEF7FEF8C
:10588000C5010E94652D4C01F32DF0683F2E820169
:1058900033FC1BC0822D90E088169906B0F4B60147
:1058A00080E290E00E947B2D2A94F4CFF50137FC32
:1058B000859137FE81915F01B60190E00E947B2DBA
:1058C00021102A9421E0821A91088114910471F721
:1058D000E8C0843611F0893641F5F80137FE07C07B
:1058E00060817181828193810C5F1F4F08C060814C
:1058F0007181072E000C880B990B0E5F1F4FF32D43
:10590000FF763F2E97FF09C0909580957095619521
:105910007F4F8F4F9F4FF0683F2E2AE030E0A3016A
:105920000E94B72D882E861845C0853731F4232D67
:105930002F7EB22E2AE030E025C0932D997FB92E1C
:105940008F36C1F018F4883579F0B5C0803719F07A
:10595000883721F0B0C0E92FE061BE2EB4FE0DC043
:10596000FB2DF460BF2E09C034FE0AC0292F26602B
:10597000B22E06C028E030E005C020E130E002C0D1
:1059800020E132E0F801B7FE07C0608171818281B9
:1059900093810C5F1F4F06C06081718180E090E0B1
:1059A0000E5F1F4FA3010E94B72D882E8618FB2D76
:1059B000FF773F2E36FE0DC0232D2E7FA22E891499
:1059C00058F434FE0BC032FC09C0832D8E7EA82E05
:1059D00005C0B82CA32C03C0B82C01C0B92CA4FE60
:1059E0000FC0FE01E80DF11D8081803321F49A2D56
:1059F000997EA92E09C0A2FE06C0B394B39404C038
:105A00008A2D867809F0B394A3FC11C0A0FE06C0CD
:105A1000B21488F4280C922C9B180EC0B21460F4B7
:105A2000B60180E290E00E947B2DB394F7CFB214D0
:105A300018F42B1802C0982C212CA4FE10C0B6011B
:105A400080E390E00E947B2DA2FE17C0A1FC03C062
:105A500088E790E002C088E590E0B6010CC08A2D8E
:105A6000867859F0A1FE02C08BE201C080E2A7FC5B
:105A70008DE2B60190E00E947B2D891438F4B601C6
:105A800080E390E00E947B2D9A94F7CF8A94F301F3
:105A9000E80DF11D8081B60190E00E947B2D811000
:105AA000F5CF222009F442CEB60180E290E00E94B8
:105AB0007B2D2A94F6CFF6018681978102C08FEF65
:105AC0009FEF2B96E2E10C94792EFC01059061503A
:105AD00070400110D8F7809590958E0F9F1F089504
