:100000000C94F6000C9409100C941E010C941E0123
:100010000C941E010C94F0130C941E010C941E0100
:100020000C944C0A0C941E010C941E010C941E019D
:100030000C941E010C941E010C9491090C941E0149
:100040000C941E010C941E010C94A8070C944409F6
:100050000C941E010C9470070C941E010C941E014C
:100060000C941E010C941E014C01570162016D019C
:1000700078018301EF018E01EF01EF01EF0199019A
:10008000A401B101BE01CB01D801E501FA01FE01D5
:10009000020206020A020E022802120228022802A6
:1000A0002802130217021C02200224023A02400214
:1000B00046024C025202580281025E028102810213
:1000C000810264026A02700276027C02DB0EDB0EA1
:1000D000DB0EDB0EDB0EDB0E2E0F2E0FF90E2E0FBE
:1000E0002E0F2E0F2E0F2E0F2E0F2E0F2E0FF90E5E
:1000F000F90EC70ED10EE511EF110E122A123413AC
:10010000341332126912C912F512FC1203130A13C6
:10011000FC20C020EC200421F0200421D020BC20B1
:10012000C820CC200421E020B420E420B020C4204A
:1001300088208C209020942098209C20A020A4200F
:10014000A820AC20D420D8200021DC200421B82015
:10015000F4200821242028202C203020342038208E
:100160003C204020442048204C205020542058203F
:100170005C206020642068206C207020742078202F
:100180007C20802084200421042104210421E820F3
:100190000421042104210421042104210421042137
:1001A0000421042104210421042104210421042127
:1001B0000421042104210421042104210421042117
:1001C0000421042104210421F82005A84CCDB2D437
:1001D0004EB93836A9020C50B9918688083CA6AAB7
:1001E000AA2ABE000000803F0320142011241FBE55
:1001F000CFEFD8E0DEBFCDBF13E0A0E0B1E0EEE688
:10020000FBE502C005900D92A838B107D9F726E0AA
:10021000A8E8B3E001C01D92A231B207E1F710E0F7
:10022000C5EFD0E004C02197FE010E948F28C43F93
:10023000D107C9F70E94E71E0C94AA2D0C94000068
:10024000623021F40E942D01845E0895683008F028
:100250006F5F61708EE1860F08959C0123703327D4
:10026000232B59F464E670E00E943A28892B39F474
:100270006370772781E0672B19F080E0089581E0B3
:10028000089590E0FC013297E231F10508F0A7C033
:10029000EC5CFF4F0C948F28613011F4529A089552
:1002A0005298633011F45A9A08955A98089561301B
:1002B00011F4539A08955398633011F45B9A08959A
:1002C0005B980895613011F4549A089554986330FE
:1002D00011F45C9A08955C980895613011F4559A70
:1002E00008955598633011F45D9A08955D980895C6
:1002F000613011F4569A08955698633011F45E9A5D
:1003000008955E980895613011F4579A08955798AA
:10031000633011F45F9A08955F980895613011F485
:10032000219A08952198633011F4599A08955998A3
:100330000895613011F4259A08952598633011F4D9
:100340005D9A08955D980895613011F4389A0BC054
:100350003898633019F4409A39980AC0409839980F
:100360000AC0613011F4399A0BC03998633019F41E
:10037000419A3A980AC041983A980AC0613011F4FB
:100380003A9A0BC03A98633019F4429A3B980AC0E3
:1003900042983B980AC0613011F43B9A0BC03B98DD
:1003A000633019F4439A3C980AC043983C980AC0B9
:1003B000613011F43C9A0BC03C98633019F4449AB4
:1003C0003D980AC044983D9809C0613011F43D9AA7
:1003D00008953D98633011F4459A0895459808951D
:1003E00090E0FC013297E031F10590F5EA5BFF4FB8
:1003F0000C948F2829B1247030E02CC029B12870CA
:1004000030E028C029B1207130E024C029B1207229
:1004100030E020C029B1207430E01CC029B1207820
:1004200030E018C083B123B1207230E013C086B130
:10043000282F217030E00EC026B1227030E00AC0B3
:1004400026B1247030E006C026B1287030E002C02A
:1004500020E030E081E0232B09F480E0089590E073
:10046000FC013297E031F10508F04BC0EA5AFF4F2A
:100470000C948F28662311F05A9A08955A9808957B
:10048000662311F05B9A08955B980895662311F036
:100490005C9A08955C980895662311F05D9A08951A
:1004A0005D980895662311F05E9A08955E98089508
:1004B000662311F05F9A08955F980895662311F0FE
:1004C000299A089529980895662311F02D9A089580
:1004D0002D980895662311F0409A08954098089544
:1004E000662311F0419A089541980895662311F00A
:1004F000429A089542980895662311F0439A089508
:10050000439808951F93CF93DF93EC010E941D2D14
:10051000182F882389F0219603C02196112361F0BA
:10052000812F0E942807CE010E941D2D182F0E94A6
:1005300099068111FCCFF1CFDF91CF911F910895E2
:10054000EF92FF920F931F93CF93DF93E42EF52E3C
:10055000D62FC72F00939F031093A0032093A103CE
:100560003093A20320E030E041E553E46E2D7F2D6F
:100570008D2F9C2F0E941C2718166CF020E030E075
:1005800048EC52E46E2D7F2D8D2F9C2F0E947925F3
:10059000882334F009C0E12CF12CD1E5C3E404C078
:1005A000E12CF12CD8ECC2E46E2D7F2D8D2F9C2FE9
:1005B0000E94F52570939A0360939903CB01880FED
:1005C000991F0E94BE289093890380938803DF912E
:1005D000CF911F910F91FF90EF9008958091880324
:1005E000909189030E945629089510928D031092CC
:1005F0008E0310928F031092900310929103109229
:100600009203109293031092940310928A03089518
:100610008F929F92AF92BF92CF92DF92EF92FF9212
:10062000CF93DF93EC014A015B01609199037091D4
:100630009A03072E000C880B990B0E942D266B0144
:100640007C0180929B0390929C03A0929D03B092A8
:100650009E03A50194010E94212720919F033091C0
:10066000A0034091A1035091A2030E94832520E0A2
:1006700030E040E05FE30E940D250E94F525072E43
:10068000000C880B990B0E942D262BED3FE049ECC6
:1006900050E40E942127A70196010E9483250E9411
:1006A0007E259B01AC010E940D25609395037093FC
:1006B00096038093970390939803CE010E94F502CE
:1006C000DF91CF91FF90EF90DF90CF90BF90AF90F0
:1006D0009F908F9008958F929F92AF92BF92CF92EA
:1006E000DF92EF92FF92CF93DF93EB01C0909103E3
:1006F000D0909203E0909303F0909403209195039F
:10070000309196034091970350919803C701B60129
:100710000E94212720918D0330918E0340918F03F9
:10072000509190030E940C254B015C01BE01725058
:10073000072E000C880B990B0E942D269B01AC0103
:10074000C501B4010E940D25C0928D03D0928E0385
:10075000E0928F03F0929003609391037093920361
:100760008093930390939403DF91CF91FF90EF9048
:10077000DF90CF90BF90AF909F908F900895809121
:100780008A03811127C0E0918B03F0918C03EE0F57
:10079000FF1F8091880390918903E80FF91F7183EF
:1007A000608380918B0390918C03019690938C03CE
:1007B00080938B032091990330919A0382179307BA
:1007C0003CF010928C0310928B0381E080938A039B
:1007D00080918A03089580918A0308954F925F92D1
:1007E0006F927F928F929F92AF92BF92CF92DF9241
:1007F000EF92FF920F931F93CF93DF938C01809121
:10080000990390919A0318161906C4F4C0E0D0E039
:10081000CE01880F991FE0918803F0918903E80FBA
:10082000F91F60817181C8010E946B03219680913C
:10083000990390919A03C817D90754F380909103B4
:1008400090909203A0909303B0909403C0908D0376
:10085000D0908E03E0908F03F0909003A501940157
:10086000C501B4010E9421272B013C01A70196017B
:10087000C701B6010E9421279B01AC01C301B2014F
:100880000E940D252B013C01209195033091960388
:100890004091970350919803C501B4010E9421270C
:1008A000A70196010E9421279B01AC01C301B2015F
:1008B0000E940C256B017C01C8010E94F502C70152
:1008C000B601DF91CF911F910F91FF90EF90DF90D4
:1008D000CF90BF90AF909F908F907F906F905F90E0
:1008E0004F900895E4E6F0E080818F778083109246
:1008F000B90085E28093B80084E08093BC0081E079
:1009000080930601089584EA8093BC00ECEBF0E04C
:100910008081882364F0809106018111F9CF07C09E
:1009200080E98093BC0081E0809306010895809166
:1009300006018823A9F380E0089584E98093BC0030
:1009400008958093BB0084E88093BC00ECEBF0E05A
:100950008081882364F0809106018111F9CF07C05E
:1009600084E98093BC0081E0809306010895809122
:10097000B900887F8613F4CF80E0089584EC8093DB
:10098000BC00ECEBF0E08081882324F0809106012C
:100990008111F9CF8091BB00089584E88093BC0059
:1009A000ECEBF0E08081882324F080910601811136
:1009B000F9CF8091BB0008952091B900287F30E0E5
:1009C00090E02817390729F084E98093BC0081E082
:1009D000089580E00895CF93DF9300D000D000D039
:1009E000CDB7DEB78A836B835D834C832E831982F8
:1009F0000E94830488E00E94DC04982F81E0992300
:100A000009F480E0882311F081E03FC068E18A8129
:100A10000E94A104982F81E0992309F480E08823A3
:100A200011F081E032C068E28B810E94A104982F0E
:100A300081E0992309F480E0882311F081E025C04A
:100A40008E819FEF980F9E8391E0882309F490E0B8
:100A50009923C1F0898191E0980F9983882F90E0C4
:100A60002C813D81820F931FFC01808168E20E94EE
:100A7000A104982F81E0992309F480E0882301F3F1
:100A800081E003C00E949D0480E026960FB6F89492
:100A9000DEBF0FBECDBFDF91CF9108950F931F939F
:100AA000CF93DF9300D000D000D0CDB7DEB78A83DC
:100AB0006B835D834C832E8319820E94830488E0BC
:100AC0000E94DC04982F81E0992309F480E08823B8
:100AD00011F081E079C068E18A810E94A104982F19
:100AE00081E0992309F480E0882311F081E06CC053
:100AF00068E28B810E94A104982F81E0992309F478
:100B000080E0882311F081E05FC00E94830480E1CF
:100B10000E94DC04982F81E0992309F480E0882367
:100B200011F081E051C08A81816060E40E94A104DB
:100B3000982F81E0992309F480E0882311F081E067
:100B400043C08E819FEF980F9E8391E0882309F424
:100B500090E09923B1F18E818823D9F0898191E0C9
:100B6000980F9983882F90E02C813D818901080F8F
:100B7000191F0E94BE04F801808380E50E94DC04F6
:100B8000982F81E0992309F480E08823D1F281E055
:100B90001BC08981882F90E02C813D818901080F3D
:100BA000191F0E94CD04F801808388E50E94DC04AF
:100BB000982F81E0992309F480E0882311F281E0E5
:100BC00003C00E949D0480E026960FB6F894DEBF15
:100BD0000FBECDBFDF91CF911F910F9108958091EE
:100BE000A60394E059E2282F30E0529FF001539F72
:100BF000F00D1124EB5DFB4F408141110CC0915071
:100C000029F08F5F843078F380E0EDCF8093A603E6
:100C100080E090E008958093A60349E2429FC001DE
:100C2000439F900D11248B5D9B4F08958091A503E8
:100C300094E059E2282F30E0529FF001539FF00DCD
:100C40001124EB5DFB4F4081442361F0915029F06A
:100C50008F5F843078F380E0EDCF8093A50380E050
:100C600090E008958093A50349E2429FC001439F0D
:100C7000900D11248B5D9B4F08958091A403282F24
:100C800030E09FE3899FF0011124E955FC4F418139
:100C90005281452BA9F08F5F823008F080E0282F29
:100CA00030E09FE3899FF0011124E955FC4F418119
:100CB0005281452B29F08093A40380E090E00895B1
:100CC0008093A4034FE3429FC001439F900D1124E2
:100CD00089559C4F08958091A303282F30E09FE30E
:100CE000899FF0011124E955FC4F41815281452B28
:100CF000A9F48F5F823008F080E0282F30E09FE376
:100D0000899FF0011124E955FC4F41815281452B07
:100D100029F48093A30380E090E008958093A303D7
:100D20004FE3429FC001439F900D112489559C4F72
:100D300008958091C90408959091C90481E09111AA
:100D400080E0911108C091E09093C904E1ECF0E0DB
:100D500090819062908308958091C904882339F02E
:100D6000E1ECF0E080818F7D80831092C9040895CA
:100D70009B01AC018EE7E7EAF3E0DF011D928A9563
:100D8000E9F7E5E2F4E0108211A6109277041092E0
:100D9000A00460E472E48FE090E00E944E282150AD
:100DA00031093093C5002093C40088E98093C100C5
:100DB0008EE08093C2001092070108950F931F9355
:100DC000CF93DF9320910701211114C00097A1F068
:100DD0008C010E9416060097B9F4C8ECD0E002C05E
:100DE000209761F09091C904992351F02097D1F098
:100DF0002197F8CF81E01BC081E019C081E017C0C6
:100E00000E941606009761F31F930F939F938F9391
:100E10000E946A2A0E949C060F900F900F900F90DC
:100E200080E005C00E941606009771F781E0DF910F
:100E3000CF911F910F91089583E291E00E94DE0609
:100E40008111FACF089586E291E00E94DE060895AE
:100E5000EAECF4E080831182CF010E94DE0608955F
:100E6000CF93009719F1FC0101900020E9F7319729
:100E7000E81BF90BBA97E0F4C62FBC0149E250E039
:100E80008AEC94E00E943E2ACC2359F08AEC94E04C
:100E90000E94DE068111FACF8091C9048111FCCF36
:100EA00008C08AEC94E00E94DE0603C081E001C025
:100EB00081E0CF91089580910701811110C00E94B7
:100EC000230780E791E00E9482020E94230785E7C2
:100ED00090E00E9482020E9423070E942307089547
:100EE0001F920F920FB60F9211242F933F934F939F
:100EF0005F936F937F938F939F93AF93BF93EF9382
:100F0000FF9361E08BE00E942F026091790070E016
:100F10008AE995E00E94BF03882329F0EAE7F0E020
:100F20008081877F808360E08BE00E942F02FF91A9
:100F3000EF91BF91AF919F918F917F916F915F9151
:100F40004F913F912F910F900FBE0F901F901895CA
:100F50001F920F920FB60F9211241F932F933F935E
:100F60004F935F936F937F938F939F93AF93BF93B1
:100F7000CF93DF93EF93FF931091C600C0916F055D
:100F8000D0917005209751F40E943D06EC0190939A
:100F9000700580936F05892B09F462C1812F90E061
:100FA0000E94242A9C0180916E05882321F08150A3
:100FB00080936E0555C12B3121F482E080936E053C
:100FC0004FC12D3009F03FC080912D05882331F1AC
:100FD000E0916D05EE23F9F082E0888380912B0586
:100FE00090912C059A83898380912A05882379F032
:100FF00090E001974091290554E1589F9001599F35
:10100000300D1124C20FD31FC40FD11D1B82F0E07D
:10101000E25DFA4F10820E94230704C08FEF9FE722
:101020009A83898310926D051092290510922C05E0
:1010300010922B0510922A051092700510926F05E0
:1010400010922D050DC1222309F40AC1E0916D050E
:101050004E2F50E0DA01A25DBA4F2C93EE2309F433
:10106000D6C02F3709F05FC0E150E0936D05809145
:101070002A05811113C0F0E0E25DFA4F40818091B2
:101080002B0590912C05841B91096AE070E00E9469
:101090003A2870932C0560932B0539C0909129054F
:1010A000992391F04FEF490F4093290590E0019764
:1010B00054E1589FB001599F700D1124C60FD71FDE
:1010C000C40FD11D1B8223C0F0E0E25DFA4F908176
:1010D0009032A1F4815080932A05DE0194E1899F2A
:1010E000A00DB11D11241396FD0101900020E9F718
:1010F0003197EA1BFB0BE093290509C094E1899F16
:10110000C00DD11D11241B82815080932A0580912E
:101110006D05E82FF0E0E25DFA4F1082811193C077
:1011200010922D0590C0203279F5FA01E35DFA4F57
:101130008081803209F494C080912A05682F70E084
:10114000FB01319633970CF08BC0882379F0615006
:10115000710990912905A4E1A69FF001A79FF00DC8
:101160001124CE0FDF1FC90FD11D1B828F5F80930B
:101170002A05109229054F5F5F4F4E3351050CF041
:101180004EE340936D055FC080912905843108F0DE
:1011900067C040912A05411119C040912B0550911B
:1011A0002C05BA01660F771F440F551F440F551FBA
:1011B000440F551F460F571F420F511D50932C05CA
:1011C00040932B058F5F8093290516C050E0415056
:1011D000510991E0980F90932905E4E1E49FB00153
:1011E000E59F700D1124C60FD71FFE01E80FF11DFA
:1011F0002383C90FD11D1B8280916D0590E001965C
:101200008E3391050CF08EE380936D051CC02F3753
:1012100041F480912B0590912C0518161906BCF00D
:101220001BC02032E9F010922A05C901992790933A
:101230002C0580932B051B821F8A1BA681E08093BF
:101240002D0580936D05822F0E94280709C01092FA
:101250002C0510922B05F7CF10922C0510922B0520
:10126000FF91EF91DF91CF91BF91AF919F918F91BE
:101270007F916F915F914F913F912F911F910F90AF
:101280000FBE0F901F9018951F920F920FB60F92DE
:1012900011242F933F934F935F936F937F938F937B
:1012A0009F93AF93BF93EF93FF9380912705909106
:1012B0002805892B31F40E94EF059093280580932F
:1012C0002705E0912705F091280580912605DF018B
:1012D000A80FB11D9C91992331F08F5F8093260553
:1012E0009093C6000DC01092260510820E94EF0553
:1012F0009093280580932705892B11F40E94AC0652
:10130000FF91EF91BF91AF919F918F917F916F91DD
:101310005F914F913F912F910F900FBE0F901F90B3
:1013200018951F920F920FB60F9211242F933F938F
:101330004F935F936F937F938F939F93AF93BF93DD
:10134000EF93FF9380911B0591E0811190E09093C2
:101350001B059091DD05992361F0811105C061E0C5
:1013600089E00E942F0209C060E089E00E942F02FC
:1013700004C060E089E00E942F02FF91EF91BF91CD
:10138000AF919F918F917F916F915F914F913F911D
:101390002F910F900FBE0F901F9018950F931F93D2
:1013A00080912001882309F461C08091EA05909121
:1013B000EB05A091EC05B091ED05892B8A2B8B2BC9
:1013C00009F44DC08091EA059091EB05A091EC05E0
:1013D000B091ED05892B8A2B8B2B09F442C08091AB
:1013E000F2059091F305A091F405B091F5058115F2
:1013F0009646AE4EBF45B8F14091EA055091EB05D7
:101400006091EC057091ED058091EE059091EF05EE
:10141000A091F005B091F10584179507A607B707CD
:1014200020F5809120018823C1F00091F2051091F0
:10143000F3052091F4053091F5054091EA055091AE
:10144000EB056091EC057091ED0581E040175107C7
:101450006207730758F080E009C080E007C081E0B0
:1014600005C081E003C081E001C081E01F910F91C0
:1014700008959091DC0591110AC020911A013091D4
:101480001B019FE2921B97BD8093DD0508958FE2BB
:1014900087BD1092DD0508951F920F920FB60F922F
:1014A00011242F933F934F935F936F937F938F9369
:1014B0009F93AF93BF93EF93FF93CF93DF9300D0AE
:1014C000CDB7DEB780919B0590919C05A0919D05BD
:1014D000B0919E050196A11DB11D80939B0590932F
:1014E0009C05A0939D05B0939E0581E089831A8297
:1014F00080911901882319F184E00E94F001811183
:101500001EC08091DA059091DB058B3B90414CF435
:101510008091DA059091DB0501969093DB0580932D
:10152000DA058091DA059091DB05853995403CF02C
:1015300081E08093D90561E087E00E942F028091CD
:10154000D805811104C08091D6058823C1F020916F
:10155000120130911301223E8FEF380734F481E0FD
:1015600090E090931101809310012F313105A4F088
:101570008FEF9FEF90931101809310010DC081E0D8
:1015800090E090931101809310018FE190E090938F
:1015900013018093120110C08091100190911101EC
:1015A000820F931F9093130180931201992324F4C7
:1015B00081E08093F60502C01092F60580917105D6
:1015C000811124C08091D905882309F405C11EC06A
:1015D0008091F605882329F060E08DE00E942F02BB
:1015E00004C061E08DE00E942F028091D60588231F
:1015F00069F08091F605882329F060E087E00E9479
:101600002F0204C061E087E00E942F028091A705AD
:10161000882309F458C08091DC059091250598171E
:10162000B1F08091DC0580932505882349F0109264
:101630000F0183E690E0909324058093230514C066
:10164000109224051092230587E29BE028C0809128
:101650002305909124050097E1F0019790932405CC
:1016600080932305892B81F08091DC05863030F052
:101670008FE387BD81E08093DD0525C08FE187BDC5
:1016800081E08093DD051FC08FE287BD1092DD05EC
:101690001AC080912105909122050097A1F0019731
:1016A0009093220580932105892B41F48FE287BD19
:1016B0001092DD0581E080930F0105C08FE487BDA6
:1016C00081E08093DD0580912001811192C080919D
:1016D000FA059091FB05892B09F083C08AC0019718
:1016E0009093200580931F05892B09F08DC0AE01D2
:1016F0004E5F5F4FBE016F5F7F4F80E090E00E94C2
:101700000C2180931E059981911111C09A81992312
:1017100071F010921E0581E08093F70580910F0112
:10172000882309F471C080E00E94390A17C0882319
:1017300081F080917105811104C061E087E00E9411
:101740002F028091A605882321F061E08AE00E94A3
:101750002F0280910F01882309F456C080911E0545
:101760000E94390A51C080917105811105C0809194
:10177000D905882309F442C08091A605882329F061
:1017800060911E058AE00E942F028091F8059091D9
:10179000F9059093200580931F0580910F01882300
:1017A00099F180911E050E94390A2EC010921E05E3
:1017B0008091D905811104C060E087E00E942F026A
:1017C00060E08AE00E942F0280910F018823E1F0FF
:1017D00080E00E94390A18C08091D8058111F8CEA6
:1017E00004CF80911F0590912005009709F077CFD5
:1017F000BACF80911E058111D9CFE6CF60911E0529
:1018000087E00E942F02B8CF0F900F90DF91CF9109
:10181000FF91EF91BF91AF919F918F917F916F91C8
:101820005F914F913F912F910F900FBE0F901F909E
:101830001895CF92DF92EF92FF920F931F93CF9361
:10184000DF93C82F86E392E00E941D2DD82F0E94BF
:101850007204C11101C2DA3B09F06BC088EA91E061
:101860000E941D2D90E08530910514F485E090E0F4
:101870008531910514F084E190E08093180187EAA6
:1018800091E00E941D2D863108F085E18093FC05D2
:1018900084EA91E00E942B2D90931601809315010C
:1018A00082EA91E00E942B2D9093A5058093A405D8
:1018B00086EA91E00E941D2D8093A80581EA91E0BF
:1018C0000E941D2D8093A70580EA91E00E941D2DA6
:1018D0008093A6058CE991E00E94252D6093EE058A
:1018E0007093EF058093F0059093F10588E991E0FE
:1018F0000E94252D6093EA057093EB058093EC051B
:101900009093ED0501E212E0C0ECD5E00F2EF4ED6E
:10191000EF2EF5E0FF2EF02DC8010E941D2D8993BA
:10192000882309F450C10F5F1F4FCE15DF05A1F7C3
:101930004AC188EA91E00E941D2D8F3F09F47BC1C6
:1019400090E08530910514F485E090E085319105B3
:1019500014F084E190E08093180187EA91E00E94FE
:101960001D2D8F3F61F482C11092FC056091FC0532
:1019700087EA91E00E94312DC1110EC005C0873168
:1019800008F086E18093FC0584EA91E00E942B2D0B
:101990008F3F2FEF920779F482E99FEF9093160122
:1019A00080931501609115017091160184EA91E010
:1019B0000E944F2D04C0909316018093150182EA76
:1019C00091E00E942B2D8F3FEFEF9E0791F40E9434
:1019D000BB239093A5058093A4056091A405709105
:1019E000A50582EA91E00E944F2D81E080930D06CB
:1019F00004C09093A5058093A405C1114AC186EA4D
:101A000091E00E941D2D8F3F09F439C18093A805F4
:101A100081EA91E00E941D2D8F3F59F41092A70595
:101A20006091A70581EA91E00E94312DC1113BC16F
:101A300002C08093A70580EA91E00E941D2D8F3F90
:101A400061F481E08093A6056091A60580EA91E0AB
:101A50000E94312DCC2319F030C18093A6058CE96A
:101A600091E00E94252D6F3FFFEF7F078F079F07B3
:101A7000B9F41092EE051092EF051092F005109255
:101A8000F1054091EE055091EF056091F0057091E0
:101A9000F1058CE991E00E94432DC11144C137C189
:101AA0006093EE057093EF058093F0059093F10538
:101AB00088E991E00E94252D6F3F2FEF7207820782
:101AC0009207B9F41092EE051092EF051092F0050E
:101AD0001092F1054091EE055091EF056091F005EF
:101AE0007091F10588E991E00E94432DCC2349F0E3
:101AF0000EC06093EE057093EF058093F005909310
:101B0000F10581E292E00E941D2D8F3F41F544E1F5
:101B100050E068E271E080EC95E00E943E2A00EC23
:101B200015E0C0E0D0E07801F70101900020E9F76E
:101B3000CF01815C9540C817D90750F4F801619135
:101B40008F01CE018F5D9D4F0E94312D2196ECCFEC
:101B500060E0CE018F5D9D4F0E94312D5FC001E29C
:101B600012E0C0ECD5E00F2EF4EDEF2EF5E0FF2EE5
:101B7000F02DC8010E941D2D8993882309F44EC0C1
:101B80000F5F1F4FCE15DF05A1F748C0CC9F900116
:101B9000CD9F300D300D1124A5E2B0E00E949528B4
:101BA000A70196010E947028622FC8010E94312D62
:101BB00021960E5F1F4FCC33D10541F76AEB86E3C8
:101BC00092E00E94552D4091EA055091EB056091FD
:101BD000EC057091ED058091EE059091EF05A091D7
:101BE000F005B091F10584179507A607B70708F42B
:101BF000AFC08091EE059091EF05A091F005B091F6
:101C0000F10580589E4AAE4FBF4F8093EA059093EE
:101C1000EB05A093EC05B093ED059AC009EA11E03D
:101C2000C0E0D0E00F2EF8EECF2EF3E0DF2EE12C57
:101C3000F12CF02DABCF84E1809318016091180155
:101C400088EA91E00E94312D87EA91E00E941D2DE3
:101C50008F3F09F094CE88CE84E180931801609183
:101C6000180188EA91E00E94312D7ECE1092FC0589
:101C70006091FC0587EA91E00E94312D85CE81E0DC
:101C80008093A8056091A80586EA91E00E94312D15
:101C9000BFCE81E08093A8056091A80586EA91E017
:101CA0000E94312DBBCE81E08093A6056091A605F0
:101CB00080EA91E00E94312DDCCE1092EE05109268
:101CC000EF051092F0051092F1054091EE0550914C
:101CD000EF056091F0057091F1058CE991E00E94AB
:101CE000432DF0CE1092EE051092EF051092F00504
:101CF0001092F1054091EE055091EF056091F005CD
:101D00007091F10588E991E00E94432DFACE88E9AF
:101D100091E00E94252D6F3FFFEF7F078F079F0700
:101D200009F0E7CEDFCF1092EE051092EF0510928A
:101D3000F0051092F1054091EE055091EF0560918C
:101D4000F0057091F10588E991E00E94432DDFCE06
:101D5000DF91CF911F910F91FF90EF90DF90CF9087
:101D60000895009731F0FC018081863111F0809355
:101D7000FC05E091FC058E2F90E0FC013197E531E8
:101D8000F10508F06BC0EA59FF4F0C948F2888E7E3
:101D900090E090931D0180931C0181E08093A70542
:101DA0007DC08CE291E090931D0180931C0181E045
:101DB0008093A70573C08CE390E09093E90580932E
:101DC000E80525E030E03093E5052093E405109226
:101DD000E2051092E10528E0209317019093E005B9
:101DE0008093DF058CE291E090931D0180931C01AC
:101DF00055C08CE090E09093E9058093E80585E07C
:101E000090E09093E5058093E4058091FC05833193
:101E100031F08091FC058E3020F08FE003C08AE025
:101E200001C08AE0809317018091FC058E3018F084
:101E30008DE090E002C088E090E09093E20580930E
:101E4000E10588E592E09093E0058093DF0588E75F
:101E500090E090931D0180931C0120C088E592E0E2
:101E60009093E9058093E80521E030E03093E505A3
:101E70002093E40528E0209317019093E0058093D8
:101E8000DF058091FC05883019F08CE291E002C0FA
:101E900088E790E090931D0180931C018091D50507
:101EA000882309F48AC04091EE055091EF056091B6
:101EB000F0057091F1058091F2059091F305A091E4
:101EC000F405B091F505481759076A077B0708F034
:101ED0004DC08091F2059091F305A091F405B09169
:101EE000F5054091EE055091EF056091F005709178
:101EF000F105841B950BA60BB70B8093FD05909302
:101F0000FE05A093FF05B09300061092FB0510920A
:101F1000FA051092F9051092F8051092F7056091F4
:101F2000FD057091FE058091FF05909100062091BE
:101F3000E8053091E905032E000C440B550B0E9477
:101F400070286F5F7F4F70931F0160931E01109286
:101F5000E7051092E6051092E3051092E205109253
:101F6000E1051092DE051092DD0547C01092FD05D7
:101F70001092FE051092FF05109200061092FB05CC
:101F80001092FA051092F9051092F8051092F705D3
:101F900081E090E090931F0180931E011092E7056D
:101FA0001092E6051092E3051092E2051092E10509
:101FB0001092DE051092DD0520C01092FD051092F2
:101FC000FE051092FF05109200061092FB0510927C
:101FD000FA051092F9051092F8051092F705109283
:101FE000E7051092E6051092E3051092E2051092C3
:101FF000E1051092DE051092DD059091A80581E0C3
:10200000911180E08093710560E087E00E942F02CB
:1020100008951F920F920FB60F9211242F933F93A2
:102020004F935F936F937F938F939F93AF93BF93E0
:10203000EF93FF938091F2059091F305A091F40541
:10204000B091F5050196A11DB11D8093F205909305
:10205000F305A093F405B093F5058091140188234E
:1020600029F0809114018150809314018091200106
:10207000882391F18091D505882309F44FC14091BF
:10208000F2055091F3056091F4057091F50580918A
:10209000EE059091EF05A091F005B091F10548177C
:1020A00059076A077B0708F439C14091F20550913E
:1020B000F3056091F4057091F5058091EA05909122
:1020C000EB05A091EC05B091ED05481759076A079B
:1020D0007B0708F4E9C022C18091D5058823F1F07F
:1020E0004091F2055091F3056091F4057091F5056A
:1020F0008091EA059091EB05A091EC05B091ED057A
:10210000481759076A077B0748F01092D50581E008
:10211000809320011092FB051092FA058091200116
:102120008111FCC08091FD059091FE05A091FF05F5
:10213000B0910006892B8A2B8B2B81F48091DF05CF
:102140009091E00590931D0580931C0581E090E03F
:1021500090931F0180931E011092DC058091FD0574
:102160009091FE05A091FF05B09100060196A11D7A
:10217000B11D8093FD059093FE05A093FF05B093DC
:1021800000068091E6059091E70501969093E7059A
:102190008093E60580911C0590911D05009729F01C
:1021A000019790931D0580931C058091E405909103
:1021B000E505892B09F455C06091FD057091FE0578
:1021C0008091FF05909100062091E8053091E90586
:1021D000032E000C440B550B0E947028672B682BB4
:1021E000692B09F468C03DC081E090E090931F0125
:1021F00080931E01809119018823A1F0EDE6F0E0A3
:1022000080818F7E8083E8E6F0E080818B7F808311
:1022100060E084E00E94410161E084E00E944101AD
:102220001092190181E08093710560E087E00E94BF
:102230002F0281E08093E3051092E7051092E605F6
:1022400080911C0590911D05892B59F48091DF0523
:102250009091E00590931D0580931C0581E080938B
:10226000DE058091A705882309F456C08091FD05FD
:102270009091FE05A091FF05B091000620911C01F0
:1022800030911D01BC01CD01655F7F4F8F4F9F4F86
:10229000032E000C440B550B0E9470286B30710507
:1022A00081059105F4F038C080E090E00E94B10E05
:1022B0001092200133C080911E0190911F01019660
:1022C00090931F0180931E0120911E0130911F01E8
:1022D0008091E4059091E505821793070CF484CF73
:1022E000A8CF8091FD059091FE05A091FF05B091CA
:1022F000000620911C0130911D01BC01CD01655FDC
:102300007F4F8F4F9F4F032E000C440B550B0E94A5
:1023100070286093DC0502C01092DC05FF91EF91FC
:10232000BF91AF919F918F917F916F915F914F91ED
:102330003F912F910F900FBE0F901F9018950F9304
:102340001F93CF9344E150E0BC0180EC95E00E94E4
:102350003E2AC0E000EC15E0F80101900020E9F70A
:10236000CF01815C95402C2F30E02817390758F4B5
:10237000C901FC01E555FA4F65898F5D9D4F0E94AB
:10238000312DCF5FE9CF8C2F90E060E08F5D9D4FC6
:102390000E94312DCF911F910F910895682F87EAE8
:1023A00091E00E94312D0895CF93DF931F92CDB716
:1023B000DEB7E0910801F0910901ED30F10508F078
:1023C00053C1E558FF4F0C948F288A3209F04CC155
:1023D00081E090E0909309018093080145C110923B
:1023E00016051092150510921405109213051092FF
:1023F000120510921105833439F486E090E0909331
:1024000009018093080130C1813409F02DC182E0B7
:1024100090E0909309018093080126C1803339F43C
:1024200083E090E090930901809308011DC18133FE
:1024300039F484E090E0909309018093080114C17D
:10244000823309F011C185E090E0909309018093F7
:1024500008010AC1833209F007C1109209011092E4
:10246000080102C1813339F487E090E090930901BB
:1024700080930801F9C0823339F488E090E09093AA
:10248000090180930801F0C0843339F489E090E0B9
:102490009093090180930801E7C0853339F48AE0FD
:1024A00090E09093090180930801DEC0863339F4EF
:1024B0008BE090E09093090180930801D5C08733A9
:1024C00009F0D2C08CE090E090930901809308015C
:1024D000CBC0833271F48CEF94E00E949F1160E0D6
:1024E0008CEF94E00E9430071092090110920801CD
:1024F000BBC090ED980F9A3008F0B6C0209111053E
:1025000030911205232BC1F1209113053091140550
:10251000A901440F551F220F331F220F331F220F13
:10252000331F240F351F90E0C097820F931F9093A5
:1025300014058093130587329105CCF4209115057D
:10254000309116052431310594F4F901E450FB4F24
:10255000DC01AE52BD4F8C9180832F5F3F4F309393
:10256000160520931505F901E450FB4F10821092D7
:1025700012051092110578C090E0C0979093140551
:102580008093130581E090E09093120580931105EC
:102590006BC08332C1F4809113059091140586318C
:1025A000910560F489830E94CE118091FC05998188
:1025B000981721F0CE0101960E94B10E10920901E8
:1025C0001092080151C090ED980F9A3008F04CC05D
:1025D00090E0C0972091130530911405820F931F4E
:1025E00090931405809313053FC08332E9F5109250
:1025F00009011092080138C08332B1F51092090127
:102600001092080131C0833279F5109209011092BD
:1026100008012AC0833279F480911505909116053E
:102620000C9711F58CEF94E00E9461231092090140
:102630001092080119C090ED980F9A30A8F42091DB
:102640001505309116052832310574F4F901E4506E
:10265000FB4F80832F5F3F4F309316052093150566
:10266000F901E450FB4F10820F90DF91CF91089554
:10267000EAE7F0E0808186FDFDCF2091780030917F
:102680007900EAE7F0E0908190649083C9010895B1
:1026900088EC80937C00EAE7F0E087E0808380812B
:1026A000806880838081806480830E9438130895CD
:1026B0000F931F93CF93DF936091150170911601D3
:1026C000072E000C880B990B0E942D2620E030E08D
:1026D00040E251E40E948325062F172FD82FC92FDF
:1026E00020E030E048E453E40E941C2718166CF008
:1026F00020E030E048E453EC602F712F8D2F9C2FA9
:102700000E947925882334F009C000E010E0D8E465
:10271000C3E404C000E010E0D8E4C3EC0E94381326
:102720000E943813BC0180E090E00E942B262EEA24
:1027300037E242EA53E40E940C2526EF38E24CE9E6
:102740005FE30E948325202F312F4D2F5C2F0E94A5
:102750000D250E948E27DF91CF911F910F91089533
:10276000EAE7F0E0108210927B00ACE7B0E01C9248
:102770009C9196609C939C91906C9C939C91906290
:102780009C939081966090839081906290839081D9
:1027900098609083908190689083882331F0808145
:1027A000886080838081806480830895FC0121910A
:1027B000222341F030E0205331092A303105B8F3AB
:1027C00080E0089581E0089580E090E00E94B10EDD
:1027D0001092200160E08FE291E00E94300708959E
:1027E0001F920F920FB60F9211242F933F934F9386
:1027F0005F936F937F938F939F93AF93BF93EF9369
:10280000FF9384E00E94F001882361F08091D90554
:10281000882341F00E94E4131092D90560E087E01C
:102820000E942F021092DB051092DA05FF91EF91C2
:10283000BF91AF919F918F917F916F915F914F91D8
:102840003F912F910F900FBE0F901F901895809180
:10285000F2059091F305A091F405B091F50581156D
:102860009646AE4EBF4520F48DE490E00E94820271
:102870004091EE055091EF056091F0057091F105E2
:102880008091F2059091F305A091F405B091F505C2
:10289000481759076A077B0720F487E290E00E94F7
:1028A00082024091EA055091EB056091EC05709130
:1028B000ED058091F2059091F305A091F405B0919A
:1028C000F505481759076A077B0720F480E090E078
:1028D0000E94820208952F923F924F925F926F92D0
:1028E0007F928F929F92AF92BF92CF92DF92EF92A0
:1028F000FF920F931F93CF93DF93CDB7DEB72C9743
:102900000FB6F894DEBF0FBECDBF2B013C014901CD
:102910005A01621773078407950750F0E114F10418
:1029200009F404C161E0C7010E94300781E0FFC0E3
:102930000115110521F061E0C8010E943007750101
:102940006401C418D508E608F708C701B60120E8F5
:1029500033E341EE51E00E944E2829013A01442719
:10296000552760E873E381EE91E00E941628C61AAD
:10297000D70AE80AF90AC701B60120E831E541E0C3
:1029800050E00E944E2849015A0119014427552759
:1029900060E871E581E090E00E941628C61AD70A27
:1029A000E80AF90AC701B60120E13EE040E050E044
:1029B0000E944E2829833A834B835C8329813A8184
:1029C0003A87298729813A814B815C8144275527A1
:1029D000A0E1BEE00E94AB28C61AD70AE80AF90AAD
:1029E000C701B6012CE330E040E050E00E944E28E1
:1029F0002D833E834F8358870D811E812CE3209FBA
:102A0000C001219F900D1124A601481B590B5C8722
:102A10004B871092720541145104B9F05F924F92A6
:102A20008FE391E09F938F9382E795E09F938F933D
:102A30000E946A2A61E082E795E00E9430070F90C9
:102A40000F900F900F900F900F902328B9F09F9246
:102A50008F9287E491E09F938F9382E795E09F9315
:102A60008F930E946A2A61E082E795E00E94300716
:102A70000F900F900F900F900F900F9089859A856F
:102A8000892BC9F09A819F93E981EF9380E591E0CA
:102A90009F938F9382E795E09F938F930E946A2A7A
:102AA00061E082E795E00E9430070F900F900F9051
:102AB0000F900F900F90012BC9F0FE81FF932D8195
:102AC0002F9388E591E09F938F9382E795E09F9302
:102AD0008F930E946A2A61E082E795E00E943007A6
:102AE0000F900F900F900F900F900F903C853F9399
:102AF0004B854F9380E691E09F938F9382E795E01B
:102B00009F938F930E946A2A61E082E795E00E947A
:102B100030070E942307E2E7F5E010820F900F9044
:102B20000F900F900F900F9080E001C081E02C96E5
:102B30000FB6F894DEBF0FBECDBFDF91CF911F91CE
:102B40000F91FF90EF90DF90CF90BF90AF909F904C
:102B50008F907F906F905F904F903F902F9008954F
:102B60002F923F924F925F926F927F928F929F929D
:102B7000AF92BF92CF92DF92EF92FF920F931F938B
:102B8000CF93DF93CDB7DEB728970FB6F894DEBFAB
:102B90000FBECDBF0F2EFEE76F2EF1E07F2EF02D82
:102BA0000F2EF2E7AF2EF5E0BF2EF02D0F2EFBE734
:102BB0008F2EF2E09F2EF02D0F2EFFEB4F2EF1E027
:102BC0005F2EF02D0F2EFEE62F2EF1E03F2EF02D82
:102BD0000E946B066C01009709F4CFC5FC0181814E
:102BE00092818A39F3E29F0709F4AFC5C8F48532B0
:102BF0003EE1930709F4A9C550F48E31E3E09E0746
:102C000009F4C8C18F369D4109F4A9C29CC5863C10
:102C10002EE19207F9F0863A904209F4C5C093C5B7
:102C2000853F43E2940709F405C150F48F3CF3E279
:102C30009F0709F43AC5803D934209F436C283C523
:102C4000843334E2930709F42AC18C39944209F49D
:102C500081C279C5F601838190E0009709F48FC0A5
:102C60008234910509F477C58434910539F4878954
:102C7000833509F473C586E090E075C0863491050C
:102C800009F46FC583349105C9F4F6018789108E64
:102C9000823429F090E0C0970A9708F070C0C6010E
:102CA00047960E94DF29992314F480E090E0863053
:102CB00091050CF455C085E090E052C08335910534
:102CC000E9F5F6018789908D118E823409F457C099
:102CD000863449F48FEC890F853008F050C0892F75
:102CE00090E083971BC0833541F48FEC890F8530CA
:102CF000C0F4892F90E0889711C0963439F49FEC86
:102D0000980F9530E0F590E0839708C09335B9F5BA
:102D10009FEC980F953098F590E08897009719F4FC
:102D20002EC088E090E08830910514F488E090E0AF
:102D300083319105ACF082E190E012C08E349105B0
:102D400059F4F6018789823309F40DC5853309F4F6
:102D50000CC580E090E007C0C60103960E94DF2901
:102D60008631910560F489830E94CE118091FC0523
:102D70009981981721F0CE0101960E94B10E8091A1
:102D8000FC051F928F933F922F92BF92AF920E94A9
:102D90006A2A60E0C5010E9430070F900F900F90E3
:102DA0000F900F900F90D1C4F6018381882301F119
:102DB0009481963411F0803359F41092A80560E0A4
:102DC0008DE00E942F0260E087E00E942F0203C086
:102DD00081E08093A8056091A80586EA91E00E94B1
:102DE000312D9091A80581E0911180E080937105CB
:102DF0008091A805811105C02AE631E0822F932F2A
:102E000004C0E7E6F1E08E2F9F2F9F938F9386E714
:102E100091E09F938F93BF92AF920E946A2A60E0E5
:102E2000C5010E9430070F900F900F900F900F90E8
:102E30000F908BC4F6018381882389F094819634A6
:102E400011F0803319F41092A70503C081E080933C
:102E5000A7056091A70581EA91E00E94312D80913C
:102E6000A705811105C02AE631E0822F932F04C007
:102E7000E7E6F1E08E2F9F2F9F938F937F926F92C3
:102E8000BF92AF920E946A2A60E0C5010E9430079B
:102E90000F900F900F900F900F900F9056C4F60167
:102EA0008381882309F451C4803321F481E0809325
:102EB00020014BC4813319F40E94E41346C48233C9
:102EC00009F043C481E0809320010E94CE09811162
:102ED0005EC081E08093D5052091EE053091EF052D
:102EE0004091F0055091F1056091F2057091F30564
:102EF0008091F4059091F5050F2EF6E8EF2EF1E0A4
:102F0000FF2EF02D03E911E00E946B142091EA05D9
:102F10003091EB054091EC055091ED056091EE0587
:102F20007091EF058091F0059091F105E12CF12C65
:102F30000FE911E00E946B144091EE055091EF05EE
:102F40006091F0057091F1058091F2059091F30583
:102F5000A091F405B091F505481759076A077B075A
:102F600008F0F3C32091EA053091EB054091EC05A0
:102F70005091ED056091F2057091F3058091F40593
:102F80009091F50507EA11E00E946B14DEC30E94E0
:102F90002714DBC3F6018381882309F44DC080E246
:102FA00090E0F50191838083B6016D5F7F4FC5018D
:102FB0000E942C2AF6018789882379F0F501019077
:102FC0000020E9F7319780E290E091838083B60199
:102FD000695E7F4FC5010E942C2AF50101900020F7
:102FE000E9F73197E257F540759730F5B50180EC78
:102FF00095E00E94372AF12C00EC15E0F8010190D1
:103000000020E9F7CF01815C95402F2D30E0281793
:10301000390758F4C901FC01E555FA4F65898F5D00
:103020009D4F0E94312DF394E9CF8F2D90E060E009
:103030008F5D9D4F0E94312D8091C0058823F1F056
:103040006091180170E080EC95E00E940A228C509B
:103050009E4F9C0136952795369527953695279551
:10306000A5ECB0E20E949528929582958F708927F1
:103070009F7089279093AA058093A90580EC95E01D
:103080009F938F9388EB91E09F938F93BF92AF9222
:103090000E946A2A61E0C5010E9430070F900F90DC
:1030A0000F900F900F900F9050C3F60183818934D9
:1030B000E1F587898823C9F1C60147960E94FD2959
:1030C000862F90E08530910514F485E090E08531FD
:1030D00091050CF084E1809318016091180188EA51
:1030E00091E00E94312D8091C0058823F1F060911C
:1030F000180170E080EC95E00E940A228C509E4FEF
:103100009C01369527953695279536952795A5ECFC
:10311000B0E20E949528929582958F7089279F70C2
:1031200089279093AA058093A905809118011F9281
:103130008F935F924F92BF92AF920E946A2A60E093
:10314000C5010E9430070F900F900F900F900F90C5
:103150000F90FBC280E791E00E948202F6C2F60166
:103160008381843509F093C04CE050E0B601695E7C
:103170007F4FC5010E943E2AF50114860190002070
:10318000E9F73197E257F5401E161F060CF04FC0C5
:103190003C9709F043C0C5010E94D6138823F1F182
:1031A000B50180E090E00E945622613076468E4E56
:1031B0009F4558F1C5010E94612360E070E080E006
:1031C00090E00E9456226093F2057093F30580937D
:1031D000F4059093F5058091F2059091F305A09187
:1031E000F405B091F505BF93AF939F938F9389EF4B
:1031F00091E09F938F93BF92AF920E946A2A0FB67D
:10320000F894DEBF0FBECDBFB3C284E1ECECF1E0B9
:10321000D50101900D928A95E1F7AAC284E1E0EE12
:10322000F1E0D50101900D928A95E1F7A1C22091BC
:10323000EE053091EF054091F0055091F105609158
:10324000F2057091F3058091F4059091F505E12C5C
:10325000F12C03E911E00E946B148091F20590912A
:10326000F305A091F405B091F505BF93AF939F933B
:103270008F9384EF91E09F938F93BF92AF920E94C0
:103280006A2A0FB6F894DEBF0FBECDBF71C2833578
:1032900009F0C9C0B601695E7F4FC5010E94372A97
:1032A000F50101900020E9F73197E257F5401E162D
:1032B0001F060CF09EC03C9709F092C0C5010E9409
:1032C000D613882309F48CC0B50180E090E00E94F9
:1032D00056220091F2051091F3052091F4053091EA
:1032E000F505061717072807390708F070C060931F
:1032F000EE057093EF058093F0059093F1054091F2
:10330000EE055091EF056091F0057091F1058CE9A3
:1033100091E00E94432D8091EA059091EB05A091E8
:10332000EC05B091ED058D839E83AF83B8878091C6
:10333000EE059091EF05A091F005B091F105805850
:103340009E4AAE4FBF4F89839A83AB83BC834D8126
:103350005E816F817885481759076A077B0728F4D3
:1033600089819A81AB81BC8104C08D819E81AF81AE
:10337000B8858093EA059093EB05A093EC05B09394
:10338000ED054091EA055091EB056091EC057091D7
:10339000ED0588E991E00E94432D8091EE05909122
:1033A000EF05A091F005B091F105BF93AF939F9306
:1033B0008F9383E092E09F938F93BF92AF920E948E
:1033C0006A2A0FB6F894DEBF0FBECDBFD1C185E12A
:1033D000E3E1F2E0D50101900D928A95E1F7C8C1D1
:1033E00084E1E0EEF1E0D50101900D928A95E1F7DC
:1033F000BFC18091EE059091EF05A091F005B091CD
:10340000F105BF93AF939F938F9388E092E09F93D2
:103410008F93BF92AF920E946A2A0FB6F894DEBFD4
:103420000FBECDBFA5C1863409F0B4C0B601695E38
:103430007F4FC5010E94372AF50101900020E9F76E
:103440003197E257F5401E161F060CF089C03C97D5
:1034500009F07DC0C5010E94D613882309F477C006
:10346000B50180E090E00E9456220091F205109193
:10347000F3052091F4053091F50506171707280785
:10348000390708F05BC00091EE051091EF0520911F
:10349000F0053091F105061717072807390708F0DE
:1034A00044C06093EA057093EB058093EC0590931C
:1034B000ED054091EA055091EB056091EC057091A6
:1034C000ED0588E991E00E94432D2091EA053091B5
:1034D000EB054091EC055091ED056091EE05709182
:1034E000EF058091F0059091F105E12CF12C0FE9A9
:1034F00011E00E946B148091EA059091EB05A09178
:10350000EC05B091ED05BF93AF939F938F9388E245
:1035100092E09F938F93BF92AF920E946A2A0FB658
:10352000F894DEBF0FBECDBF23C18BE1E9E3F2E02B
:10353000D50101900D928A95E1F71AC186E1E4E583
:10354000F2E0D50101900D928A95E1F711C184E175
:10355000E0EEF1E0D50101900D928A95E1F708C106
:103560008091EA059091EB05A091EC05B091ED05F5
:10357000BF93AF939F938F938DE292E09F938F932E
:10358000BF92AF920E946A2A0FB6F894DEBF0FBEB8
:10359000CDBFEEC0833409F5F6018789882351F049
:1035A000C60147960E94DF298115F2E09F0710F4BB
:1035B0000E94D5230E94BB239F938F938AE692E0BB
:1035C0009F938F93BF92AF920E946A2A0F900F90A1
:1035D0000F900F900F900F90CBC0883521F4E89892
:1035E0000E94F924B2C00E94CE09882319F00E94DB
:1035F0002714ABC02091EE053091EF054091F00506
:103600005091F1056091F2057091F3058091F405F8
:103610009091F5050F2EF6E8EF2EF1E0FF2EF02D3C
:1036200003E911E00E946B142091EA053091EB054B
:103630004091EC055091ED056091EE057091EF051C
:103640008091F0059091F105E12CF12C0FE911E04A
:103650000E946B144091EE055091EF056091F005CA
:103660007091F1058091F2059091F305A091F40518
:10367000B091F505481759076A077B0708F065C040
:103680002091EA053091EB054091EC055091ED0554
:103690006091F2057091F3058091F4059091F50524
:1036A00007EA11E00E946B1450C0F6018381833455
:1036B00089F587898823B1F0C60147960E94DF29E2
:1036C0009C012153384F2F393F4060F490931601ED
:1036D00080931501609115017091160184EA91E0C3
:1036E0000E944F2D80911501909116019F938F9309
:1036F00020E732E03F932F93BF92AF920E946A2A55
:1037000060E0C5010E9430070F900F900F900F905E
:103710000F900F908091D705282F082E000C330BA7
:103720003F938F939F928F92BF92AF920E946A2A8B
:1037300061E0C5010E9430070F900F900F900F902D
:103740000F900F9002C00E945B07F6011282118257
:103750000E941C073DCA80E090E005CB83E190E029
:1037600002CB87E000CB84E1FECA85E190E0FBCA92
:1037700061E0C5010E943007E8CF28960FB6F894A3
:10378000DEBF0FBECDBFDF91CF911F910F91FF9094
:10379000EF90DF90CF90BF90AF909F908F907F90F1
:1037A0006F905F904F903F902F9008952F923F928F
:1037B0004F925F926F927F928F929F92AF92BF9241
:1037C000CF92DF92EF92FF920F931F93CF93DF93ED
:1037D0001F92CDB7DEB70E94B0158091FA05909187
:1037E000FB05892B29F080911A05882309F4DAC09A
:1037F0008091200181112EC110921A058091FC0543
:10380000863091F480911E0190911F01BC01660FDA
:10381000771F660F771F680F791F675D7C4F8BEAF4
:1038200095E00E94372A27C08091FC05833199F4E6
:1038300080911E0190911F010896BC01660F771FB1
:10384000660F771F680F791F675D7C4F8BEA95E0E5
:103850000E94372A10C08091FC0590E0BC01660FE1
:10386000771F660F771F680F791F675D7C4F8BEAA4
:1038700095E00E94372A8091FC05863009F18091FD
:10388000FC058331E9F08091FC058823C9F0809123
:10389000FC058730A9F08091FC05883089F02091E3
:1038A000FC0540911E0150911F018091E10590910E
:1038B000E20530E0840F951F2817390709F0CAC0C8
:1038C00081E089836091170170E082E89BE10E94AA
:1038D0003A28CB016AE070E00E943A28660F771F11
:1038E0007093F9056093F80540E050E0BE016F5F0A
:1038F0007F4F8BEA95E00E940C218091DE058111BB
:103900000BC02091DF053091E0058091E805909192
:10391000E905821793073CF10091E8051091E9054C
:103920006091180170E080EC95E00E940A228C50B2
:103930009E4F9C0136952795369527953695279568
:10394000A5ECB0E20E949528929582958F70892708
:103950009F708927081B190B10930E0100930D010E
:103960001092DE050AC08091E8059091E9058D5915
:103970009F4F90930E0180930D0110920C0181E0F6
:1039800090E09093FB058093FA051092F705109252
:10399000E30580911E0190911F0190931B0180937C
:1039A0001A0158C080910C018111B1C12091E60526
:1039B0003091E70580910D0190910E01281739078C
:1039C00009F0A5C182C18091FC05843108F4A5C12C
:1039D00009C01092E3051092FB051092FA0581E0F0
:1039E00080931A058091FC05863021F08091FC05BA
:1039F000833149F48091F705882361F18091E305D3
:103A0000811190C127C08091FC05882341F08091ED
:103A1000FC05873021F08091FC05883041F48091CD
:103A2000F7058823B9F081E080931A0513C08091CF
:103A3000FC05893008F47FC18091FC05833108F0D2
:103A40007AC18091F705811171C175C18091F70527
:103A500081117DC18AE995E00E94EB03882309F476
:103A600029C180911401811177C10E9448130E94DD
:103A700058130E94F5258091D7056817B1F060931F
:103A8000D70589E1861B880F990B87559E4F0E94A9
:103A90001D2D2091A4053091A505A901480F511DA8
:103AA00087FD5A95CA010E94D52380E00E94B01379
:103AB0008CE38093140150C1F501419151916191C2
:103AC00071915F018AE995E00E9408038AE995E017
:103AD0000E94EE03E62EF72ED82EC92E272D362D66
:103AE000452D542D0E941C271816B4F420E034E212
:103AF00044E759E46E2D7F2D8D2D9C2D0E941C27AF
:103B0000181634F448017E2C6F2C5D2C4C2C04C00C
:103B10007E2C6F2C5D2C4C2C0F5F1F4F0430110539
:103B200059F62AC1F50141915191619171915F015D
:103B30008AE995E00E9408038AE995E00E94EE0375
:103B4000E62EF72ED82EC92E252D342D432D522D9D
:103B50000E941C271816B4F420E034E244E759E42C
:103B60006E2D7F2D8D2D9C2D0E941C27181634F450
:103B700038015E2C4F2C3D2C2C2C04C05E2C4F2C7D
:103B80003D2C2C2C0F5F1F4F0430110559F6772068
:103B90000CF488C0C401880F991F880F991F8750A3
:103BA0009D4FFC01E60DF71D10818091190518133A
:103BB0002EC080910A0190910B01019690930B0108
:103BC00080930A01039719F581E08093D80510923C
:103BD0001805109217051093A3051F921F9381E8F3
:103BE00092E09F938F9382E795E09F938F930E943B
:103BF0006A2A61E082E795E00E943007812F0E94E7
:103C0000D4110F900F900F900F900F900F90109372
:103C1000190548C0C0909B05D0909C05E0909D057B
:103C2000F0909E0580909F059090A005A090A10522
:103C3000B090A20580911705909118059C012F5F07
:103C40003F4F309318052093170503975CF11092AE
:103C5000D80560E08DE00E942F02C818D908EA0854
:103C6000FB08FCEDCF16F5E0DF06E104F10420F4DB
:103C700010920B0110920A0110921805109217056C
:103C800080919B0590919C05A0919D05B0919E050A
:103C900080939F059093A005A093A105B093A205E2
:103CA00010921905EAE7F0E08081886080838081C6
:103CB000806480831091D6050E94CE098093D6053A
:103CC000811171C011116BC06EC06091180170E05C
:103CD00082E89BE10E943A28CB016AE070E00E94F2
:103CE0003A28660F771F7093F9056093F8051982DB
:103CF00040E050E0BE016F5F7F4F80EC95E00E9496
:103D00000C2181E080930C011092F7056BCE80911D
:103D1000FC05893008F057CE65CE8091E30581110E
:103D200058CE60CE81E080931A0594CE1092FB05A8
:103D30001092FA058FCE8091FC0520911E013091E2
:103D40001F0190E08217930709F080CE83CE109276
:103D5000FB051092FA057ECE0F2EF9E0AF2EF3E0B0
:103D6000BF2EF02D00E010E088248A94982C712C4E
:103D7000612C512C412CA0CE99200CF44BCF0F2E4E
:103D8000F9E1AF2EF3E0BF2EF02D00E010E0662445
:103D90006A94762C512C412C312C212CC3CE60E01E
:103DA00087E00E942F020F90DF91CF911F910F911A
:103DB000FF90EF90DF90CF90BF90AF909F908F904B
:103DC0007F906F905F904F903F902F90089561E0AB
:103DD0008DE00E94410160E08DE00E942F0261E0D1
:103DE00087E00E94410160E087E00E942F0261E0CD
:103DF0008AE00E94410160E08AE00E942F0261E0B7
:103E000089E00E94410160E089E00E942F0261E0A8
:103E100088E00E94410160E088E00E942F0261E09A
:103E20008AE00E94410160E08AE00E942F0260E087
:103E300084E10E94410160E085E10E94410163E06C
:103E40008CE00E94410161E08BE00E94410160E052
:103E50008BE00E942F0263E084E00E94410161E058
:103E60008EE00E94410161E08FE00E94410161E02B
:103E700080E10E94410161E081E10E94410161E035
:103E800081E00E94410163E082E10E94410163E020
:103E900083E10E94410180E00E94190C81E00E94B0
:103EA000B013E9E6F0E0808182608083E89AA0EBBD
:103EB000B0E01C92E1EBF0E010828C9182608C9378
:103EC0008081876080838CE08093B3001092B4007F
:103ED000E6EBF0E080818F7D8083E0E7F0E0108208
:103EE00080818460808314BC84B5826084BD15BCED
:103EF00085B5846085BD8FE287BDEEE6F0E0108277
:103F0000808182608083EDE6F0E0108280E1808332
:103F1000E8E6F0E0108284E080830E949524C82FB8
:103F2000789460E071EE80E090E00E94B80660E076
:103F300070E080E090E00E9456226093F20570935A
:103F4000F3058093F4059093F5050E945B07CC235D
:103F500054F48FE0E7E8F2E0A2E7B5E001900D92BB
:103F60008A95E1F723C0C0FF0AC08DE0E6E9F2E0E0
:103F7000A2E7B5E001900D928A95E1F717C0C1FF65
:103F80000AC080E1E3EAF2E0A2E7B5E001900D9219
:103F90008A95E1F70BC0C5FF09C085E1E3EBF2E0CC
:103FA000A2E7B5E001900D928A95E1F78091720544
:103FB000882329F061E082E795E00E94300780ECD9
:103FC00095E09F938F9388EC92E09F938F9382E785
:103FD00095E09F938F930E946A2A61E082E795E0C3
:103FE0000E9430070E9427140E941C0780E090E086
:103FF0000E94B10E0F900F900F900F900F900F90A6
:104000000E94D61BFDCF0F931F9300E018E726E90F
:1040100036E440E050E069E473E48AE995E00E9408
:10402000A0021F910F9108958AE995E00E94EE0287
:10403000089590E0FC01B097ED35F10508F0E4C07B
:10404000E857FF4F0C948F2889E074E061E00895F1
:104050008BE074E065E0089587E073E061E0089527
:1040600081E071E060E0089589E074E064E0089523
:1040700089E073E063E0089587E074E060E008950C
:1040800083E072E060E008958DE074E06EE00895F2
:1040900089E073E065E0089589E074E062E00895E6
:1040A00087E072E063E0089585E072E061E00895E2
:1040B0008BE073E067E008958BE074E066E00895BC
:1040C0008DE074E06BE0089587E073E062E00895AE
:1040D00085E073E060E0089583E071E061E00895B9
:1040E00087E073E064E0089589E074E068E0089593
:1040F00089E073E066E008958BE074E069E008957C
:104100008DE074E06DE008958BE074E063E0089565
:1041100083E175E06FE1089581E175E06EE1089556
:104120008FE075E06CE108958DE075E068E1089539
:104130008BE075E060E1089589E075E060E0089546
:104140008BE075E061E008958DE075E063E008952F
:104150008FE075E067E0089581E175E06FE0089514
:1041600081E176E06AE2089583E176E063E3089511
:104170008FE076E06CE0089583E176E06EE10895EB
:1041800083E176E065E308958DE075E069E00895E8
:104190008FE075E06DE0089583E176E06DE20895CB
:1041A0008BE075E062E0089581E176E067E00895D4
:1041B0008CE076E065E108958DE075E061E10895B9
:1041C0008DE075E06AE008958FE076E061E20895A1
:1041D00081E176E06CE208958FE076E062E1089597
:1041E00081E177E068E4089581E176E066E1089591
:1041F00084E077E06FEF089587E077E06EEF089551
:1042000083E175E06FE1089580E070E060E008957B
:1042100085E072E062E00895CF93DF93EA010097B2
:10422000B1F110920C066115710521F0DB012C91A2
:1042300020932201FC0120812223D9F090930B06C8
:1042400080930A0680E280932101822F0E94192028
:10425000609307067093080680930906109206067D
:1042600010920506109204061092030610920206A0
:104270000AC010920B0610920A0681E08093020693
:10428000209709F088831092010680E0C0C0E09179
:104290000A06F0910B06309709F4AAC06115710562
:1042A00021F080912201DB018C938091020688230A
:1042B00049F0209709F4A8C081E0888310920C0689
:1042C00080E0A5C080910406882321F0815080936E
:1042D00004067FC080910106882381F080910C063E
:1042E00081110CC01092010680910306882309F405
:1042F00070C080930406109203066BC0909108066C
:1043000080910506891790F1809106068F5F809352
:104310000606DF01A80FB11D8C9180932101811148
:1043200019C080912201882331F08081809321017E
:10433000109206060FC010920B0610920A061092F9
:10434000010691E090930206209709F0988310925D
:104350000C065DC0809121010E9419206093070620
:1043600070930806809309061092050620910706AF
:104370002D3F00F54091050631E0340F30930506DE
:1043800081E090E002C0880F991F4A95E2F78223EE
:1043900021F082E08093040602C01092040681E0BE
:1043A0008093010680910806381798F082E0809388
:1043B00003060FC0809108069FEF909305061092A8
:1043C0000106843020F084508093040602C01092CD
:1043D0000406809121018C3331F481E080930C0636
:1043E000209741F414C010920C06209719F409C0CC
:1043F000209719F080910206888380910C06811124
:1044000005C08091010603C080E001C081E0DF911A
:10441000CF910895CF92DF92EF92FF920F931F9367
:10442000CF93FC016B0180818823C1F08F010F5F66
:104430001F4F7F0194E1E90EF11CC0E005C0F801B7
:1044400081918F01882359F00E9419206D3F08F453
:10445000CD5FC80F0E151F0591F701C0C0E080EBBE
:1044600094E0B6010E942628C69FC001C79F900D08
:104470001124CF911F910F91FF90EF90DF90CF907B
:104480000895982F9695969596959E71292F220FAF
:10449000220F920F8F70890F0895FC012081818176
:1044A0008053F0E12F9F800D112408954F925F9269
:1044B0006F927F928F929F92AF92BF92CF92DF9234
:1044C000EF92FF920F931F93CF93DF93CDB7DEB799
:1044D00027970FB6F894DEBF0FBECDBF6C017B01EE
:1044E000FE01319687E0DF011D928A95E9F761159B
:1044F0007105F1F0CB010A960E944D228983C70114
:1045000008960E944D228A83C70106960E944D227A
:104510008B83C70104960E944D228D83C7010296AA
:104520000E944D228E83C7010E944D228F830BC0B3
:1045300027E0AE014F5F5F4F60E084EA0E944E05C6
:10454000382F81119BC08F810E944122A82EB12C4F
:104550004501B0E38B1AB8EF9B0A8E810E9441227D
:10456000082F8D810E944122782E023068F0E12CC4
:10457000F12C11E0612FC4010E942001E80EF11C12
:104580001F5F0113F7CF02C0E12CF12C872D770CB0
:10459000990B0197E80EF91E89810E944122482E4D
:1045A0008A810E944122182F8B810E944122042C73
:1045B000000C5508ECE31E02400C511C1124052C84
:1045C000000C66087708A82F880FBB0B20E13EE09F
:1045D0000E94A428460E571E681E791ED70120E8A7
:1045E00031E541E050E00E94B628460E571E681E95
:1045F000791ED5015E9620E833E341EE51E00E943A
:10460000B628460E571E681E791EC5014F96DC015E
:104610000AF41396B595A795B595A79520E831E5C9
:1046200041E050E00E94B628460E571E681E791ED3
:10463000C5018D599F4F64E670E00E943A28DB0166
:1046400020E83EEA4EEF5FEF0E94B628460E571E66
:10465000681E791EC50181579E4F60E971E00E9476
:104660003A28DB0120E831E541E050E00E94B6281D
:10467000640D751D861D971D30E003C060E070E07D
:10468000CB01C114D10431F021E0311101C020E08F
:10469000D6012C9327960FB6F894DEBF0FBECDBF80
:1046A000DF91CF911F910F91FF90EF90DF90CF900E
:1046B000BF90AF909F908F907F906F905F904F9042
:1046C0000895CF93DF93CDB7DEB727970FB6F89451
:1046D000DEBF0FBECDBF21E02C83DC010D9000209A
:1046E000E9F71197A81BB90B1C970CF43AC0FC0111
:1046F00092858385805320E1929F800D11248983C8
:1047000090858185805320E1929F800D11248A83BA
:1047100096818781805320E1929F800D11248B83A5
:1047200094818581805320E1929F800D11248D8397
:1047300092818381805320E1929F800D11248E838A
:1047400090818181805320E1929F800D11248F837D
:1047500027E0AE014F5F5F4F60E084EA0E94EB0408
:1047600001C081E027960FB6F894DEBF0FBECDBF23
:10477000DF91CF910895CF93DF9300D0CDB7DEB70F
:1047800022E0AE014F5F5F4F66E384EA0E944E0570
:10479000898190E0880F991F2A8122230CF40196C9
:1047A0000F900F90DF91CF910895CF93DF9300D0BA
:1047B000CDB7DEB720E12A839C0136952795298362
:1047C00080FF02C080E98A8322E0AE014F5F5F4F25
:1047D00066E384EA0E94EB040F900F90DF91CF9183
:1047E0000895CF93DF931F92CDB7DEB781E0898321
:1047F00021E0AE014F5F5F4F6EE084EA0E944E05FC
:10480000811107C08981807889838111F1CF80E08F
:1048100003C089818823D9F30F90DF91CF91089548
:104820001F93CF93DF9300D000D0CDB7DEB78B833B
:10483000162F4C8319820E94F12381115EC088E0FB
:10484000898321E0AE014F5F5F4F6FE084EA0E94F1
:10485000EB04811154C021E0AE014E5F5F4F6B81CC
:1048600084EA0E944E05912F90958A8189238A833C
:104870009C811923812B8C8321E0AE014D5F5F4F1A
:1048800065E284EA0E94EB0481113BC021E0AE01A5
:104890004C5F5F4F66E284EA0E94EB04811133C0F3
:1048A000198221E0AE014F5F5F4F67E284EA0E9408
:1048B000EB0481112AC00E94F123811128C081E2FA
:1048C000898321E0AE014F5F5F4F67E284EA0E9477
:1048D000EB0481111EC00E94F12381111CC01982BA
:1048E00021E0AE014F5F5F4F6FE084EA0E94EB046E
:1048F00091E0811111C090E00FC091E00DC091E0F6
:104900000BC091E009C091E007C091E005C091E0C3
:1049100003C091E001C091E0892F0F900F900F909C
:104920000F90DF91CF911F910895CF93DF9300D027
:10493000CDB7DEB719821A8280910D068823C9F09F
:104940000E94F12381114BC085EC8A8345EC6FEF07
:1049500085E30E941024811144C084E08A8344E0EE
:1049600066E087E30E94102481113DC010920D067D
:104970001AC021E0AE014E5F5F4F67E284EA0E94F9
:10498000EB0489830E94F12382E18A8321E0AE0156
:104990004E5F5F4F67E284EA0E94EB049981892BA6
:1049A00089830E94F123898181110CC021E0AE012D
:1049B0004F5F5F4F6EE084EA0E944E0589818F76DB
:1049C000898302C080E889831A8221E0AE014E5FAC
:1049D0005F4F6EE084EA0E94EB04898105C081E0AC
:1049E00003C081E001C081E00F900F90DF91CF9173
:1049F0000895CF93DF931F92CDB7DEB780EC898304
:104A000021E0AE014F5F5F4F65E384EA0E94EB0453
:104A10000F90DF91CF9108955058BB27AA270E948D
:104A200024250C94CE260E94952638F00E949C26C0
:104A300020F039F49F3F19F426F40C9492260EF4DA
:104A4000E095E7FB0C948C26E92F0E94F32658F39F
:104A5000BA17620773078407950720F079F4A6F563
:104A60000C9415270EF4E0950B2EBA2FA02D0B01F8
:104A7000B90190010C01CA01A0011124FF27591BA3
:104A800099F0593F50F4503E68F11A16F040A22FA9
:104A9000232F342F4427585FF3CF4695379527951A
:104AA000A795F0405395C9F77EF41F16BA0B620B19
:104AB000730B840BBAF09150A1F0FF0FBB1F661F60
:104AC000771F881FC2F70EC0BA0F621F731F841FA3
:104AD00048F4879577956795B795F7959E3F08F0C9
:104AE000B0CF9395880F08F09927EE0F979587958B
:104AF00008950E94682608F481E008950E94A52682
:104B0000E3950C94DF260E9497250C94CE260E94F4
:104B10009C2658F00E94952640F029F45F3F29F02A
:104B20000C948C2651110C9416270C9492260E94FA
:104B3000F32668F39923B1F3552391F3951B550B95
:104B4000BB27AA2762177307840738F09F5F5F4F60
:104B5000220F331F441FAA1FA9F335D00E2E3AF09F
:104B6000E0E832D091505040E695001CCAF72BD0B7
:104B7000FE2F29D0660F771F881FBB1F2617370708
:104B80004807AB07B0E809F0BB0B802DBF01FF273A
:104B900093585F4F3AF09E3F510578F00C948C2665
:104BA0000C9416275F3FE4F3983ED4F386957795EF
:104BB0006795B795F7959F5FC9F7880F911D9695F3
:104BC000879597F90895E1E0660F771F881FBB1F4F
:104BD000621773078407BA0720F0621B730B840BFC
:104BE000BA0BEE1F88F7E09508950E94FC256894A3
:104BF000B1110C94162708950E94FB2688F09F5748
:104C000098F0B92F9927B751B0F0E1F0660F771FF0
:104C1000881F991F1AF0BA95C9F714C0B13091F0E6
:104C20000E941527B1E008950C941527672F782F5F
:104C30008827B85F39F0B93FCCF3869577956795AB
:104C4000B395D9F73EF490958095709561957F4F17
:104C50008F4F9F4F0895E89409C097FB3EF49095BD
:104C60008095709561957F4F8F4F9F4F9923A9F045
:104C7000F92F96E9BB279395F695879577956795D4
:104C8000B795F111F8CFFAF4BB0F11F460FF1BC018
:104C90006F5F7F4F8F4F9F4F16C0882311F096E9AB
:104CA00011C0772321F09EE8872F762F05C0662359
:104CB00071F096E8862F70E060E02AF09A95660F12
:104CC000771F881FDAF7880F9695879597F90895CB
:104CD000990F0008550FAA0BE0E8FEEF161617060D
:104CE000E807F907C0F012161306E407F50798F075
:104CF000621B730B840B950B39F40A2661F0232B8E
:104D0000242B252B21F408950A2609F4A140A69509
:104D10008FEF811D811D089597F99F6780E870E0EE
:104D200060E008959FEF80EC089500240A94161621
:104D3000170618060906089500240A941216130689
:104D40001406050608950C9492260E94FB26D8F3BB
:104D5000E894E0E0BB279F57F0F02AED3FE049ECF4
:104D600006C0EE0FBB0F661F771F881F28F0B23AF0
:104D700062077307840728F0B25A620B730B840B27
:104D8000E3959A9572F7803830F49A95BB0F661FB9
:104D9000771F881FD2F790480C94CF27092E0394D1
:104DA000000C11F4882352F0BB0F40F4BF2B11F418
:104DB00060FF04C06F5F7F4F8F4F9F4F0895EF9349
:104DC000E0FF07C0A2EA2AED3FE049EC5FEB0E945A
:104DD00024250E94CE260F90039401FC9058EAEC03
:104DE000F1E00C94DB2757FD9058440F551F59F004
:104DF0005F3F71F04795880F97FB991F61F09F3FC8
:104E000079F087950895121613061406551FF2CFF0
:104E10004695F1DF08C0161617061806991FF1CF40
:104E200086957105610508940895E894BB27662767
:104E30007727CB0197F908950E94682608F48FEF31
:104E400008950E9434270C94CE260E94952638F0AF
:104E50000E949C2620F0952311F00C948C260C9433
:104E6000922611240C9416270E94F32670F3959F26
:104E7000C1F3950F50E0551F629FF001729FBB2751
:104E8000F00DB11D639FAA27F00DB11DAA1F649FED
:104E90006627B00DA11D661F829F2227B00DA11DA0
:104EA000621F739FB00DA11D621F839FA00D611D26
:104EB000221F749F3327A00D611D231F849F600D47
:104EC000211D822F762F6A2F11249F5750409AF070
:104ED000F1F088234AF0EE0FFF1FBB1F661F771FFC
:104EE000881F91505040A9F79E3F510580F00C94C7
:104EF0008C260C9416275F3FE4F3983ED4F38695F6
:104F000077956795B795F795E7959F5FC1F7FE2B66
:104F1000880F911D9695879597F908950E94FB2615
:104F2000E8F09E37E8F09639B8F49E3848F4672FD9
:104F3000782F8827985FF9CF869577956795939511
:104F40009539D0F3B62FB1706B0F711D811D20F410
:104F500087957795679593950C94B2270C94CD27F8
:104F60000C941627882371F4772321F09850872B0F
:104F7000762F07C0662311F499270DC09051862B18
:104F800070E060E02AF09A95660F771F881FDAF7C5
:104F9000880F9695879597F908959F3F31F0915026
:104FA00020F4879577956795B795880F911D96950D
:104FB000879597F908959F938F937F936F93FF93AE
:104FC000EF939B01AC010E942127EF91FF910E947A
:104FD000EF272F913F914F915F910C942127DF9301
:104FE000CF931F930F93FF92EF92DF927B018C017F
:104FF000689406C0DA2EEF010E943427FE01E8947F
:10500000A5912591359145915591A6F3EF010E9407
:105010002425FE019701A801DA9469F7DF90EF904B
:10502000FF900F911F91CF91DF910895DB018F9336
:105030009F930E94AB28BF91AF91A29F800D911DBD
:10504000A39F900DB29F900D11240895AA1BBB1B26
:1050500051E107C0AA1FBB1FA617B70710F0A61B78
:10506000B70B881F991F5A95A9F780959095BC0199
:10507000CD01089597FB072E16F4009407D077FD15
:1050800009D00E94262807FC05D03EF49095819512
:105090009F4F0895709561957F4F0895A1E21A2E54
:1050A000AA1BBB1BFD010DC0AA1FBB1FEE1FFF1FCC
:1050B000A217B307E407F50720F0A21BB30BE40B1C
:1050C000F50B661F771F881F991F1A9469F7609563
:1050D0007095809590959B01AC01BD01CF0108951D
:1050E000052E97FB1EF400940E94872857FD07D0D9
:1050F0000E944E2807FC03D04EF40C94872850954C
:105100004095309521953F4F4F4F5F4F08959095B3
:105110008095709561957F4F8F4F9F4F0895EE0F4B
:10512000FF1F0590F491E02D0994A29FB001B39F59
:10513000C001A39F700D811D1124911DB29F700DA0
:10514000811D1124911D08950E949528B7FF08958F
:10515000821B930B08950E949528A59F900DB49FE4
:10516000900DA49F800D911D11240895B7FF0C94FC
:10517000AB280E94AB28821B930B08950F931F93BB
:10518000CF93DF938230910510F482E090E0E091BC
:105190001006F091110620E030E0A0E0B0E030977A
:1051A00019F1408151810281138148175907C8F0D4
:1051B0008417950769F4109731F012960C931297A3
:1051C00013961C9327C0009310061093110622C05B
:1051D0002115310519F04217530718F49A01BD0142
:1051E000EF01DF01F801DBCF21153105F9F0281BB4
:1051F000390B2430310580F48A819B81611571055A
:1052000021F0FB019383828304C090931106809365
:105210001006FE01329644C0FE01E20FF31F819397
:10522000919322503109398328833AC020910E0688
:1052300030910F06232B41F420910201309103019C
:1052400030930F0620930E0620910001309101014A
:105250002115310541F42DB73EB74091040150911D
:105260000501241B350BE0910E06F0910F06E217A5
:10527000F307A0F42E1B3F0B2817390778F0AC0179
:105280004E5F5F4F2417350748F04E0F5F1F509356
:105290000F0640930E068193919302C0E0E0F0E088
:1052A000CF01DF91CF911F910F910895CF93DF939D
:1052B000009709F481C0FC01329713821282A091F9
:1052C0001006B0911106109781F420813181820F70
:1052D000931F20910E0630910F062817390751F5BC
:1052E000F0930F06E0930E0667C0ED0120E030E07A
:1052F000CE17DF0740F44A815B819E0141155105BD
:10530000F1F0EA01F5CFD383C28340815181840F4C
:10531000951FC817D90759F488819981840F951F63
:105320000296918380838A819B8193838283211556
:10533000310529F4F0931106E09310063DC0E90110
:10534000FB83EA8349915991C40FD51FEC17FD07E0
:1053500061F480819181840F951F0296E901998300
:105360008883828193819B838A83E0E0F0E01296B8
:105370008D919C911397009719F0FD01DC01F7CFF7
:105380008D919C9111979D012E5F3F4F820F931F2E
:1053900020910E0630910F062817390769F43097CF
:1053A00029F4109211061092100602C01382128284
:1053B000B0930F06A0930E06DF91CF910895FC01E4
:1053C00088279927E89421912032E9F3293010F0B9
:1053D0002E30C8F32B3241F02D3239F4689404C0DA
:1053E0000E94622A820F911D219120532A30C0F31E
:1053F0001EF4909581959F4F08951F93FC01992766
:105400008827BC01E89411911032E9F3193010F0AB
:105410001E30C8F31B3251F01D3249F4689406C0A7
:105420000E944D2A610F711D811D911D1191105314
:105430001A30B0F33EF490958095709561957F4F4A
:105440008F4F9F4F1F9108959111089581568A5152
:1054500008F4805285580895FB01DC010D9000206E
:10546000E9F7119701900D920020E1F70895FB01F3
:10547000DC0101900D920020E1F70895FB01DC01B1
:105480004150504048F001900D920020C9F701C0F2
:105490001D9241505040E0F70895592F482F372F63
:1054A000262F660F771F881F991F660F771F881F8B
:1054B000991F620F731F841F951F660F771F881F28
:1054C000991F08957AE0979F902D879F802D910DC9
:1054D00011240895AEE0B0E0E0E7FAE20C94812DEB
:1054E0000D891E8986E08C831A8309838FEF9FE7DD
:1054F0009E838D83AE01475E5F4F6F89788DCE01AD
:1055000001960E948C2AEF81F885E00FF11F10822E
:105510002E96E4E00C949D2DABE0B0E0E2E9FAE2D7
:105520000C94732D6C017B018A01FC011782168299
:10553000838181FFCCC1CE0101963C01F6019381AC
:10554000F70193FD859193FF81917F01882309F4F1
:10555000BAC1853239F493FD859193FF81917F0122
:10556000853229F4B60190E00E94832CE7CF912C7C
:10557000212C312CFFE1F315D8F08B3279F038F47F
:10558000803279F08332A1F4232D20611DC08D3249
:1055900061F0803369F4232D216016C0832D826071
:1055A000382EE32DE4603E2E2AC0F32DF8601DC096
:1055B00037FC2DC020ED280F2A3040F08E32B9F490
:1055C00036FC81C1232D2064322E19C036FE06C060
:1055D0008AE0989E200D1124922E11C0EAE02E9EA2
:1055E000200D1124222EF32DF0623F2E08C08C36A0
:1055F00021F4832D8068382E02C0883641F4F701EB
:1056000093FD859193FF81917F018111B3CF982FF5
:105610009F7D9554933028F40C5F1F4F9FE399832F
:105620000DC0833631F0833771F0833509F059C0EE
:1056300021C0F801808189830E5F1F4F88248394E5
:10564000912C530113C02801F2E04F0E511CF801B8
:10565000A080B18036FE03C0692D70E002C06FEFFC
:105660007FEFC5010E94782C4C018201F32DFF775A
:105670003F2E16C0280122E0420E511CF801A080E6
:10568000B18036FE03C0692D70E002C06FEF7FEF7E
:10569000C5010E946D2C4C01F32DF0683F2E820154
:1056A00033FC1BC0822D90E088169906B0F4B60139
:1056B00080E290E00E94832C2A94F4CFF50137FC1D
:1056C000859137FE81915F01B60190E00E94832CA5
:1056D00021102A9421E0821A91088114910471F713
:1056E000E8C0843611F0893641F5F80137FE07C06D
:1056F00060817181828193810C5F1F4F08C060813E
:105700007181072E000C880B990B0E5F1F4FF32D34
:10571000FF763F2E97FF09C0909580957095619513
:105720007F4F8F4F9F4FF0683F2E2AE030E0A3015C
:105730000E94BF2C882E861845C0853731F4232D52
:105740002F7EB22E2AE030E025C0932D997FB92E0E
:105750008F36C1F018F4883579F0B5C0803719F06C
:10576000883721F0B0C0E92FE061BE2EB4FE0DC035
:10577000FB2DF460BF2E09C034FE0AC0292F26601D
:10578000B22E06C028E030E005C020E130E002C0C3
:1057900020E132E0F801B7FE07C0608171818281AB
:1057A00093810C5F1F4F06C06081718180E090E0A3
:1057B0000E5F1F4FA3010E94BF2C882E8618FB2D61
:1057C000FF773F2E36FE0DC0232D2E7FA22E89148B
:1057D00058F434FE0BC032FC09C0832D8E7EA82EF7
:1057E00005C0B82CA32C03C0B82C01C0B92CA4FE52
:1057F0000FC0FE01E80DF11D8081803321F49A2D48
:10580000997EA92E09C0A2FE06C0B394B39404C029
:105810008A2D867809F0B394A3FC11C0A0FE06C0BF
:10582000B21488F4280C922C9B180EC0B21460F4A9
:10583000B60180E290E00E94832CB394F7CFB214BB
:1058400018F42B1802C0982C212CA4FE10C0B6010D
:1058500080E390E00E94832CA2FE17C0A1FC03C04D
:1058600088E790E002C088E590E0B6010CC08A2D80
:10587000867859F0A1FE02C08BE201C080E2A7FC4D
:105880008DE2B60190E00E94832C891438F4B601B1
:1058900080E390E00E94832C9A94F7CF8A94F301DE
:1058A000E80DF11D8081B60190E00E94832C8110EB
:1058B000F5CF222009F442CEB60180E290E00E94AA
:1058C000832C2A94F6CFF6018681978102C08FEF50
:1058D0009FEF2B96E2E10C948F2DFC010590615017
:1058E00070400110D8F7809590958E0F9F1F0895F6
:1058F000FC016150704001900110D8F7809590959F
:105900008E0F9F1F08950F931F93CF93DF93FB017B
:10591000238121FD03C08FEF9FEF2CC022FF16C013
:1059200046815781248135814217530744F4A08171
:10593000B1819D012F5F3F4F318320838C9326815E
:1059400037812F5F3F4F3783268314C08B01EC01D3
:10595000FB010084F185E02D0995892BE1F6D80142
:1059600016968D919C911797019617969C938E93FE
:105970001697CE01DF91CF911F910F910895FA01F3
:10598000AA27283051F1203181F1E8946F936E7F7E
:105990006E5F7F4F8F4F9F4FAF4FB1E03ED0B4E06F
:1059A0003CD0670F781F891F9A1FA11D680F791FB0
:1059B0008A1F911DA11D6A0F711D811D911DA11DC1
:1059C00020D009F468943F912AE0269F11243019D1
:1059D000305D3193DEF6CF010895462F4770405D6C
:1059E0004193B3E00FD0C9F7F6CF462F4F70405D1B
:1059F0004A3318F0495D31FD4052419302D0A9F776
:105A0000EACFB4E0A6959795879577956795BA956F
:105A1000C9F700976105710508959B01AC010A2E35
:105A200006945795479537952795BA95C9F7620F0C
:105A3000731F841F951FA01D0895F999FECF92BD75
:105A400081BDF89A992780B50895A6E1B0E044E0B9
:105A500050E00C94652DA8E1B0E042E050E00C94D9
:105A6000652D262FF999FECF92BD81BDF89A019739
:105A700000B4021639F01FBA20BD0FB6F894FA9A96
:105A8000F99A0FBE08950396272F0E94322D0E9487
:105A9000312D252F0E94322D242F0C94322D01966A
:105AA000272F0E94322D0C94312D262FF999FECFED
:105AB0001FBA92BD81BD20BD0FB6F894FA9AF99A2B
:105AC0000FBE01960895DC01CB01FC01F999FECFD0
:105AD00006C0F2BDE1BDF89A319600B40D92415076
