:100000000C9414010C94B4100C943C010C943C011D
:100010000C943C010C940A130C943C010C943C018C
:100020000C94330D0C943C010C943C010C945B0C2F
:100030000C943C010C943C010C941E0C0C943C015F
:100040000C943C010C943C010C94350A0C94D10B9B
:100050000C943C010C94FD090C943C010C943C0163
:100060000C943C010C943C016A01750180018B01E8
:100070009601A101AC01B701C20123022302CD0107
:10008000D801E501F201FF010C0219022E02320231
:1000900036023A023E02420246024B024F02680218
:1000A0006802530257025C02600264027A02800214
:1000B00086028C02920298029E02A402AA02CD023B
:1000C000CD02B002B602BC02C202C802EE02530365
:1000D00053030B034103EB0244032C034A03E802DE
:1000E0002F0332033803E50235034D039C036E03EF
:1000F0009F037103740377037A037D0380038303F3
:100100008603510F510F510F510F510F510FA40F73
:10011000A40F6F0FA40FA40FA40FA40FA40FA40F7C
:10012000A40FA40F6F0F6F0F3D0F470FE01C151D9D
:10013000441D4E1D581D621DE31D541ECF1E161F6B
:100140005D1F931EA41FAC1DC81FF41FB9257D257C
:10015000A925C125AD25C1258D257925852589258B
:10016000C1259D257125A1256D258125452549257B
:100170004D255125552559255D256125652569257F
:1001800091259525BD259925C1257525B125C5251F
:10019000E124E524E924ED24F124F524F924FD24C7
:1001A0000125052509250D251125152519251D25AF
:1001B0002125252529252D253125352539253D259F
:1001C0004125C125C125C125C125A525C125C1259B
:1001D000C125C125C125C125C125C125C125C125EF
:1001E000C125C125C125C125C125C125C125C125DF
:1001F000C125C125C125C125C125C125C125C125CF
:10020000C125C125B52505A84CCDB2D44EB9383687
:10021000A9020C50B9918688083CA6AAAA2ABE0059
:100220000000803FB824CD2411241FBECFEFD8E0BA
:10023000DEBFCDBF13E0A0E0B1E0E2E1F3E602C033
:1002400005900D92A431B107D9F725E0A4E1B3E000
:1002500001C01D92A03DB207E1F711E0C3E1D1E07A
:1002600004C02197FE010E946F2CC231D107C9F74B
:100270000E9488230C947C310C940000623021F49D
:100280000E944B01845E0895683008F06F5F6170D2
:100290008EE1860F08959C0123703327232B59F498
:1002A00064E670E00E941A2C892B39F4637077277A
:1002B00081E0672B19F080E0089581E0089590E0D7
:1002C000FC013297E231F10508F0BDC0EC5CFF4F54
:1002D0000C946F2C613011F4529A08955298633047
:1002E00011F45A9A08955A980895613011F4539A66
:1002F00008955398633011F45B9A08955B980895BC
:10030000613011F4549A08955498633011F45C9A52
:1003100008955C980895613011F4559A08955598A0
:10032000633011F45D9A08955D980895613011F479
:10033000569A08955698633011F45E9A08955E981F
:100340000895613011F4579A08955798633011F465
:100350005F9A08955F980895613011F4209A089586
:100360002098633011F4289A0895289808956130F0
:1003700011F4219A08952198633011F4299A08956F
:1003800029980895613011F4229A089522986330D3
:1003900011F42A9A08952A980895613011F4259A43
:1003A00008952598633011F45D9A08955D98089535
:1003B000613011F4389A0BC03898633019F4409AC0
:1003C00039980AC0409839980AC0613011F4399AB6
:1003D0000BC03998633019F4419A3A980AC0419891
:1003E0003A980AC0613011F43A9A0BC03A986330D7
:1003F00019F4429A3B980AC042983B980AC061306F
:1004000011F43B9A0BC03B98633019F4439A3C9823
:100410000AC043983C980AC0613011F43C9A0BC062
:100420003C98633019F4449A3D980AC044983D982A
:1004300009C0613011F43D9A08953D98633011F47C
:10044000459A08954598089590E0FC013297E0316F
:10045000F105F0F5EA5BFF4F0C946F2C29B1247085
:1004600030E038C029B1287030E034C029B12071A3
:1004700030E030C029B1207230E02CC029B12074A6
:1004800030E028C029B1207830E024C083B1282F83
:10049000217030E01FC023B1227030E01BC023B1B7
:1004A000247030E017C023B1207230E013C086B151
:1004B000282F217030E00EC026B1227030E00AC033
:1004C00026B1247030E006C026B1287030E002C0AA
:1004D00020E030E081E0232B09F480E0089590E0F3
:1004E000FC013297E031F10508F057C0EA5AFF4F9E
:1004F0000C946F2C662311F05A9A08955A98089517
:10050000662311F05B9A08955B980895662311F0B5
:100510005C9A08955C980895662311F05D9A089599
:100520005D980895662311F05E9A08955E98089587
:10053000662311F05F9A08955F980895662311F07D
:10054000289A089528980895662311F0299A089505
:1005500029980895662311F02A9A08952A980895F3
:10056000662311F02D9A08952D980895662311F0B1
:10057000409A089540980895662311F0419A08958D
:1005800041980895662311F0429A0895429808957B
:10059000662311F0439A08954398089508950895A5
:1005A0000F931F93CF93DF934115510509F47BC03F
:1005B000862F90E0FC013B97E031F10508F073C015
:1005C000DA01EA59FF4F0C946F2C8FEE92E052C083
:1005D00087EE92E064C082EE92E058C08A010F5F1D
:1005E0001F4F6C91662371F0C0E0D0E02196CE01E0
:1005F000865D9D4F0E941131F80161918F0161115B
:10060000F5CF02C0C0E0D0E060E0CE01855D9D4F37
:100610000E94113148C08A010F5F1F4F6C91662301
:1006200091F0C0E0D0E003C0C830D10571F0219650
:10063000CE0189529D4F0E941131F80161918F01C5
:100640006111F2CF02C0C0E0D0E060E0CE0188527C
:100650009D4F0E94113127C084EE92E017C089EEB1
:1006600092E014C08AEE92E011C083EF92E00EC0D7
:100670008BEE92E04D915D916D917C910E942331C2
:1006800012C081EE92E002C083EE92E06C910E9473
:10069000113109C085EE92E002C084EF92E06D91C5
:1006A0007C910E942F31DF91CF911F910F9108957E
:1006B000EF92FF920F931F93CF93C62F0E94F709DB
:1006C000882309F446C08C2F90E08B30910508F008
:1006D00040C0FC01EA58FF4F0C946F2C8AE290E076
:1006E00030C08FE491E02DC085E791E02AC08CE90D
:1006F00091E027C08DEB91E024C088ED91E021C00E
:100700008EEE91E01EC083E092E01BC087E192E094
:1007100018C08701CC23E9F08C2F0E94BA09780118
:100720008FEFE81AF80AC8010E94FD30C82F0E9416
:100730000C098111FCCFEDCF80E090E002C087E290
:1007400091E08C010F5F1F4F0E94FD30C82F811177
:10075000E3CFCF911F910F91FF90EF900895EF920B
:10076000FF920F931F93CF93DF9384EF92E00E9449
:100770000B318B3B910509F0C2C081EE92E00E94E3
:10078000FD3090E08530910514F485E090E08531EE
:10079000910514F084E190E08093150182EE92E0DF
:1007A0000E94FD30863108F085E18093BA0583EE22
:1007B00092E00E94FD308093A60585EE92E00E94B3
:1007C0000B31909313018093120187EE92E00E9407
:1007D0000B31909337058093360584EE92E00E94AA
:1007E000FD3080933A0589EE92E00E94FD308093BF
:1007F00039058AEE92E00E94FD30809338058BEE39
:1008000092E00E9405316093AD057093AE05809330
:10081000AF059093B0058FEE92E00E940531609392
:10082000A9057093AA058093AB059093AC0583EF5F
:1008300092E00E94FD308093A8050BE212E0C2E531
:10084000D5E00F2EF6E6EF2EF5E0FF2EF02DC801D5
:100850000E94FD30899381110BC008ED12E0CAE6B9
:10086000D5E00F2EF2E7EF2EF5E0FF2EF02D06C0BB
:100870000F5F1F4FCE15DF0551F7EFCFC8010E9464
:10088000FD308993882329F00F5F1F4FCE15DF05B8
:10089000A9F708EB12E0C5E8D5E00F2EF5EAEF2E38
:1008A000F5E0FF2EF02DC8010E94FD3089930F5F07
:1008B0001F4FCE15DF05B9F78091AD059091AE05BC
:1008C000A091AF05B091B005892B8A2B8B2BC9F075
:1008D0004091A9055091AA056091AB057091AC05B6
:1008E0008091AD059091AE05A091AF05B091B00596
:1008F00084179507A607B70730F480E019C081E098
:1009000017C080E015C08091AD059091AE05A09113
:10091000AF05B091B00580589E4AAE4FBF4F80934F
:10092000A9059093AA05A093AB05B093AC0580E010
:10093000DF91CF911F910F91FF90EF900895CF938A
:10094000DF93EC010E94B10960E0CE010E945803E0
:1009500061E0CE010E9458030E94B1090E94B109D2
:10096000DF91CF910895CB01880F991F805C9D4F37
:100970000E940B3108959C012E5F3F4F2B3381E085
:10098000380710F02BE331E0ADECBCEC0E94752C85
:1009900096958795969587959C01220F331F220F78
:1009A000331F280F391F0E94752C969587959695B1
:1009B00087959C0120733327329522952F7023272A
:1009C0003F7023272093140398B18F70907F892B59
:1009D00088B98BB18C7F90911403892B8BB90895C2
:1009E0000E94510961E08EE00E945F0161E08FE0AA
:1009F0000E945F0161E080E10E945F0161E081E1AE
:100A00000E945F0161E080E00E945F0161E081E09F
:100A10000E945F0161E086E00E945F0161E086E084
:100A20000E946F020895EF92FF920F931F93CF934E
:100A3000DF93E42EF52ED62FC72F00932C031093AF
:100A40002D0320932E0330932F0320E030E041E567
:100A500053E46E2D7F2D8D2F9C2F0E94FC2A18169B
:100A60006CF020E030E048EC52E46E2D7F2D8D2FAD
:100A70009C2F0E945929882334F009C0E12CF12CC5
:100A8000D1E5C3E404C0E12CF12CD8ECC2E46E2D16
:100A90007F2D8D2F9C2F0E94D52970932703609363
:100AA0002603CB01880F991F0E949E2C909316035A
:100AB00080931503DF91CF911F910F91FF90EF90DD
:100AC000089580911503909116030E94362D089584
:100AD00010921A0310921B0310921C0310921D0314
:100AE00010921E0310921F031092200310922103F4
:100AF0001092170308958F929F92AF92BF92CF9258
:100B0000DF92EF92FF92CF93DF93EC014A015B01FA
:100B10006091260370912703072E000C880B990B18
:100B20000E940D2A6B017C01809228039092290378
:100B3000A0922A03B0922B03A50194010E94012BDD
:100B400020912C0330912D0340912E0350912F03BF
:100B50000E94632920E030E040E05FE30E94ED283E
:100B60000E94D529072E000C880B990B0E940D2A94
:100B70002BED3FE049EC50E40E94012BA7019601C8
:100B80000E9463290E945E299B01AC010E94ED280E
:100B9000609322037093230380932403909325038F
:100BA000CE010E946805DF91CF91FF90EF90DF901A
:100BB000CF90BF90AF909F908F9008958F929F920B
:100BC000AF92BF92CF92DF92EF92FF92CF93DF93DB
:100BD000EB01C0901E03D0901F03E0902003F09023
:100BE000210320912203309123034091240350914B
:100BF0002503C701B6010E94012B20911A033091F1
:100C00001B0340911C0350911D030E94EC284B01D3
:100C10005C01BE017250072E000C880B990B0E94DC
:100C20000D2A9B01AC01C501B4010E94ED28C092C0
:100C30001A03D0921B03E0921C03F0921D036093F1
:100C40001E0370931F038093200390932103DF9171
:100C5000CF91FF90EF90DF90CF90BF90AF909F909B
:100C60008F90089580911703811127C0E091180398
:100C7000F0911903EE0FFF1F809115039091160359
:100C8000E80FF91F71836083809118039091190315
:100C900001969093190380931803209126033091B5
:100CA0002703821793073CF0109219031092180340
:100CB00081E08093170380911703089580911703B3
:100CC00008954F925F926F927F928F929F92AF9210
:100CD000BF92CF92DF92EF92FF920F931F93CF9329
:100CE000DF938C0180912603909127031816190633
:100CF000C4F4C0E0D0E0CE01880F991FE091150345
:100D0000F0911603E80FF91F60817181C8010E94FC
:100D1000DE0521968091260390912703C817D907F5
:100D200054F380901E0390901F03A0902003B09076
:100D30002103C0901A03D0901B03E0901C03F09095
:100D40001D03A5019401C501B4010E94012B2B01D3
:100D50003C01A7019601C701B6010E94012B9B012E
:100D6000AC01C301B2010E94ED282B013C0120918E
:100D70002203309123034091240350912503C501A0
:100D8000B4010E94012BA70196010E94012B9B0137
:100D9000AC01C301B2010E94EC286B017C01C801C7
:100DA0000E946805C701B601DF91CF911F910F9195
:100DB000FF90EF90DF90CF90BF90AF909F908F907B
:100DC0007F906F905F904F900895E4E6F0E080810F
:100DD0008F7780831092B90085E28093B80084E019
:100DE0008093BC0081E080930601089584EA80939B
:100DF000BC00ECEBF0E08081882364F08091060178
:100E00008111F9CF07C080E98093BC0081E0809315
:100E100006010895809106018823A9F380E00895D2
:100E200084E98093BC0008958093BB0084E880939C
:100E3000BC00ECEBF0E08081882364F08091060137
:100E40008111F9CF07C084E98093BC0081E08093D1
:100E5000060108958091B900887F8613F4CF80E061
:100E6000089584EC8093BC00ECEBF0E08081882353
:100E700024F0809106018111F9CF8091BB00089583
:100E800084E88093BC00ECEBF0E08081882324F0C0
:100E9000809106018111F9CF8091BB0008952091C6
:100EA000B900287F30E090E02817390729F084E95D
:100EB0008093BC0081E0089580E00895CF93DF9394
:100EC00000D000D000D0CDB7DEB78A836B835D83BE
:100ED0004C832E8319820E94F60688E00E944F07F9
:100EE000982F81E0992309F480E0882311F081E0B4
:100EF0003FC068E18A810E941407982F81E09923FE
:100F000009F480E0882311F081E032C068E28B812F
:100F10000E941407982F81E0992309F480E0882328
:100F200011F081E025C08E819FEF980F9E8391E0A4
:100F3000882309F490E09923C1F0898191E0980F0A
:100F40009983882F90E02C813D81820F931FFC01B3
:100F5000808168E20E941407982F81E0992309F4A8
:100F600080E0882301F381E003C00E94100780E045
:100F700026960FB6F894DEBF0FBECDBFDF91CF919E
:100F800008950F931F93CF93DF9300D000D000D02C
:100F9000CDB7DEB78A836B835D834C832E83198242
:100FA0000E94F60688E00E944F07982F81E099235F
:100FB00009F480E0882311F081E079C068E18A813A
:100FC0000E941407982F81E0992309F480E0882378
:100FD00011F081E06CC068E28B810E941407982FA9
:100FE00081E0992309F480E0882311F081E05FC05B
:100FF0000E94F60680E10E944F07982F81E0992316
:1010000009F480E0882311F081E051C08A81816079
:1010100060E40E941407982F81E0992309F480E08E
:10102000882311F081E043C08E819FEF980F9E834B
:1010300091E0882309F490E09923B1F18E8188230F
:10104000D9F0898191E0980F9983882F90E02C81C5
:101050003D818901080F191F0E943107F801808323
:1010600080E50E944F07982F81E0992309F480E0E2
:101070008823D1F281E01BC08981882F90E02C81E8
:101080003D818901080F191F0E944007F8018083E4
:1010900088E50E944F07982F81E0992309F480E0AA
:1010A000882311F281E003C00E94100780E0269699
:1010B0000FB6F894DEBF0FBECDBFDF91CF911F9169
:1010C0000F9108958091330394E059E2282F30E086
:1010D000529FF001539FF00D1124EE54FC4F4081BC
:1010E00041110CC0915029F08F5F843078F380E07B
:1010F000EDCF8093330380E090E008958093330335
:1011000049E2429FC001439F900D11248E549C4F91
:1011100008958091320394E059E2282F30E0529FE5
:10112000F001539FF00D1124EE54FC4F40814423F5
:1011300061F0915029F08F5F843078F380E0EDCF3B
:101140008093320380E090E008958093320349E277
:10115000429FC001439F900D11248E549C4F0895CF
:1011600080913103282F30E09FE3899FF001112403
:10117000EC5CFC4F41815281452BA9F08F5F82309E
:1011800008F080E0282F30E09FE3899FF0011124D0
:10119000EC5CFC4F41815281452B29F08093310357
:1011A00080E090E00895809331034FE3429FC001B7
:1011B000439F900D11248C5C9C4F089580913003C7
:1011C000282F30E09FE3899FF0011124EC5CFC4F55
:1011D00041815281452BA9F48F5F823008F080E075
:1011E000282F30E09FE3899FF0011124EC5CFC4F35
:1011F00041815281452B29F48093300380E090E0B7
:101200000895809330034FE3429FC001439F900DA8
:1012100011248C5C9C4F0895809156040895909100
:10122000560481E0911180E0911108C091E0909303
:101230005604E1ECF0E090819062908308958091F3
:101240005604882339F0E1ECF0E080818F7D8083C3
:101250001092560408959B01AC018EE7E4E3F3E09D
:10126000DF011D928A95E9F7E2EBF3E0108211A607
:101270001092040410922D0460E472E48FE090E078
:101280000E942E2C215031093093C5002093C400B8
:1012900088E98093C1008EE08093C200109207011C
:1012A000089581E0809307011092C1000E941F09F8
:1012B0008EE7E4E3F3E0DF011D928A95E9F7E2EBC4
:1012C000F3E0108211A61092040410922D040895E8
:1012D0000F931F93CF93DF9320910701211114C027
:1012E0000097A1F08C010E9489080097B9F4C8EC1E
:1012F000D0E002C0209761F090915604992351F0FC
:101300002097D1F02197F8CF81E01BC081E019C070
:1013100081E017C00E948908009761F31F930F9323
:101320009F938F930E944A2E0E940F090F900F9057
:101330000F900F9080E005C00E948908009771F718
:1013400081E0DF91CF911F910F9108958091070166
:10135000811106C081E291E00E9468098111FACFF3
:10136000089580910701811104C084E291E00E94F8
:101370006809089590910701911107C0E7E5F4E02D
:1013800080831182CF010E9468090895CF93209134
:101390000701211125C0009729F1FC0101900020CF
:1013A000E9F73197E81BF90BBA97F0F4C62FBC01A7
:1013B00049E250E087E594E00E941E2ECC2359F0CC
:1013C00087E594E00E9468098111FACF8091560464
:1013D0008111FCCF0AC087E594E00E94680905C02E
:1013E00081E003C081E001C081E0CF910895909138
:1013F000070181E0911180E008951F920F920FB6CE
:101400000F9211242F933F934F935F936F937F938A
:101410008F939F93AF93BF93EF93FF9361E08BE024
:101420000E946F026091790070E08CE295E00E946A
:101430003206882329F0EAE7F0E08081877F808305
:1014400060E08BE00E946F02FF91EF91BF91AF913E
:101450009F918F917F916F915F914F913F912F91CC
:101460000F900FBE0F901F9018951F920F920FB6FE
:101470000F9211241F932F933F934F935F936F937A
:101480007F938F939F93AF93BF93CF93DF93EF930C
:10149000FF931091C600C0910105D09102052097DD
:1014A00051F40E94B008EC0190930205809301056D
:1014B000892B09F462C1812F90E00E94042E9C01C7
:1014C00080910005882321F081508093000555C14B
:1014D0002B3121F482E0809300054FC12D3009F0BB
:1014E0003FC08091BF04882331F1E091FF04EE23D7
:1014F000F9F082E088838091BD049091BE049A83C4
:1015000089838091BC04882379F090E00197409111
:10151000BB0454E1589F9001599F300D1124C20F14
:10152000D31FC40FD11D1B82F0E0E054FB4F10828B
:101530000E94B10904C08FEF9FE79A8389831092BC
:10154000FF041092BB041092BE041092BD041092CE
:10155000BC0410920205109201051092BF040DC147
:10156000222309F40AC1E091FF044E2F50E0DA0172
:10157000A054BB4F2C93EE2309F4D6C02F3709F0AB
:101580005FC0E150E093FF048091BC04811113C05F
:10159000F0E0E054FB4F40818091BD049091BE0487
:1015A000841B91096AE070E00E941A2C7093BE04BB
:1015B0006093BD0439C09091BB04992391F04FEF23
:1015C000490F4093BB0490E0019754E1589FB0014C
:1015D000599F700D1124C60FD71FC40FD11D1B8238
:1015E00023C0F0E0E054FB4F90819032A1F4815091
:1015F0008093BC04DE0194E1899FA00DB11D1124EC
:101600001396FD0101900020E9F73197EA1BFB0BCF
:10161000E093BB0409C094E1899FC00DD11D112442
:101620001B8281508093BC048091FF04E82FF0E07E
:10163000E054FB4F1082811193C01092BF0490C000
:10164000203279F5FA01E154FB4F8081803209F4B0
:1016500094C08091BC04682F70E0FB0131963397F1
:101660000CF08BC0882379F0615071099091BB0414
:10167000A4E1A69FF001A79FF00D1124CE0FDF1F5C
:10168000C90FD11D1B828F5F8093BC041092BB04D5
:101690004F5F5F4F4E3351050CF04EE34093FF0414
:1016A0005FC08091BB04843108F067C04091BC04E6
:1016B000411119C04091BD045091BE04BA01660F9A
:1016C000771F440F551F440F551F440F551F460FDA
:1016D000571F420F511D5093BE044093BD048F5FAE
:1016E0008093BB0416C050E04150510991E0980F1F
:1016F0009093BB04E4E1E49FB001E59F700D1124D9
:10170000C60FD71FFE01E80FF11D2383C90FD11D9E
:101710001B828091FF0490E001968E3391050CF0BE
:101720008EE38093FF041CC02F3741F48091BD04E9
:101730009091BE0418161906BCF01BC02032E9F0C7
:101740001092BC04C90199279093BE048093BD04F4
:101750001B821F8A1BA681E08093BF048093FF0435
:10176000822F0E94BA0909C01092BE041092BD04D3
:10177000F7CF1092BE041092BD04FF91EF91DF915C
:10178000CF91BF91AF919F918F917F916F915F9119
:101790004F913F912F911F910F900FBE0F901F906F
:1017A00018951F920F920FB60F9211242F933F930B
:1017B0004F935F936F937F938F939F93AF93BF9359
:1017C000EF93FF938091B9049091BA04892B31F47F
:1017D0000E9462089093BA048093B904E091B9041E
:1017E000F091BA048091B804DF01A80FB11D9C915B
:1017F000992331F08F5F8093B8049093C6000DC099
:101800001092B80410820E9462089093BA048093E8
:10181000B904892B11F40E941F09FF91EF91BF9128
:10182000AF919F918F917F916F915F914F913F9178
:101830002F910F900FBE0F901F9018951F920F922F
:101840000FB60F9211242F933F934F935F936F9393
:101850007F938F939F93AF93BF93EF93FF93809169
:10186000AB0491E0811190E09093AB0490917805E6
:10187000992361F0811105C061E089E00E946F0247
:1018800009C060E089E00E946F0204C060E089E066
:101890000E946F02FF91EF91BF91AF919F918F9145
:1018A0007F916F915F914F913F912F910F900FBE5C
:1018B0000F901F9018951F920F920FB60F92112440
:1018C0008F939F93EF93FF938091A70581112EC073
:1018D0008091AA0481112AC08091A505882391F0E6
:1018E00034C01092AA0498B18F70907F892B88B968
:1018F0009BB18091A904807382958F709C7F892B06
:101900008BB92BC08091A9048F3339F18FE3809379
:10191000A90488B18F6088B99BB18091A9048073B4
:1019200082958F709C7F892B8BB917C0E091AA0498
:1019300091E09E0F9093AA04F0E0EB57FA4F80815C
:101940008093A904903268F6CECF81E08093AA04F8
:10195000809185058093A904C6CFFF91EF919F9157
:101960008F910F900FBE0F901F90189580911E01C0
:10197000882309F457C08091A9059091AA05A091E8
:10198000AB05B091AC05892B8A2B8B2B09F44CC08D
:101990008091A9059091AA05A091AB05B091AC05E5
:1019A000892B8A2B8B2B09F441C08091B105909132
:1019B000B205A091B305B091B40581159646AE4E1F
:1019C000BF45B0F14091A9055091AA056091AB05C2
:1019D0007091AC058091AD059091AE05A091AF05D9
:1019E000B091B00584179507A607B70718F5809141
:1019F0001E01882309F14091B1055091B205609113
:101A0000B3057091B4058091A9059091AA05A091A4
:101A1000AB05B091AC0584179507A607B70770F41E
:101A200082E0089583E0089582E0089582E00895B9
:101A300082E0089582E0089581E0089581E00895AC
:101A40009091770591110AC02091180130911901E8
:101A50009FE2921B97BD8093780508958FE287BD22
:101A60001092780508951F920F920FB60F921124CD
:101A70002F933F934F935F936F937F938F939F9396
:101A8000AF93BF93EF93FF93CF93DF9300D0CDB786
:101A9000DEB780912D0590912E05A0912F05B09174
:101AA00030050196A11DB11D80932D0590932E0543
:101AB000A0932F05B093300581E089831A8280912D
:101AC0001701882391F184E00E9424029091100173
:101AD000891325C020917505309176052B3B304147
:101AE00054F420917505309176052F5F3F4F309368
:101AF000760520937505209175053091760525367C
:101B000031059CF0813009F473C192E09093740523
:101B100081110BC061E08DE00E946F0206C08093CE
:101B20001001109276051092750580913905882371
:101B300009F458C0809177059091B7049817B1F0D7
:101B4000809177058093B704882349F010920F01A4
:101B500083E690E09093B6048093B50414C010928D
:101B6000B6041092B50487E29BE028C08091B504CA
:101B70009091B6040097E1F001979093B60480939A
:101B8000B504892B81F080917705863030F08FE3A2
:101B900087BD81E08093780525C08FE187BD81E016
:101BA000809378051FC08FE287BD109278051AC018
:101BB0008091B3049091B4040097A1F001979093A1
:101BC000B4048093B304892B41F48FE287BD109253
:101BD000780581E080930F0105C08FE487BD81E027
:101BE0008093780580911E01811106C18091B9050D
:101BF000811107C101C161E088E00E946F0284E9A0
:101C000095E09093B2048093B10407C18091B10430
:101C10009091B204009731F001979093B2048093B1
:101C2000B104FBC08091AF049091B004009709F417
:101C30004BC001979093B0048093AF04892B09F0B7
:101C4000ECC0AE014E5F5F4FBE016F5F7F4F80E023
:101C500090E00E94C9258093AE049981911111C032
:101C60009A81992371F01092AE0481E08093B605B9
:101C700080910F01882309F4D0C080E00E94200DDC
:101C80001EC08823B9F080910305811104C061E072
:101C90008DE00E946F0280913805882359F061E041
:101CA0008AE00E946F0261E088E00E946F0281E09A
:101CB0008093A70580910F01882309F4AEC080911D
:101CC000AE040E94200DA9C080910305811105C0BA
:101CD00080917405823009F09AC08091380588237C
:101CE00049F06091AE048AE00E946F028091AE04D8
:101CF0008093A7058091B7059091B8059093B004A3
:101D00008093AF0480910F01882309F486C08091ED
:101D1000AE040E94200D81C08091AF049091B00468
:101D2000009709F101979093B0048093AF04892B39
:101D300009F073C0AE014E5F5F4FBE016F5F7F4F12
:101D400080E090E00E94C9258093AE04682F8DE06A
:101D50000E946F028091B7059091B8059093B004EE
:101D60008093AF045AC08091B7059091B8059093C5
:101D7000B0048093AF0451C08091AE04882351F029
:101D80001092AE0480917405811104C060E08DE072
:101D90000E946F0260E08AE00E946F0260E088E0CB
:101DA0000E946F021092A70580910F01882319F0FD
:101DB00080E00E94200D88E00E942402882339F0F0
:101DC00084E690E09093B2048093B10426C08091A1
:101DD000B1049091B204009731F001979093B2044E
:101DE0008093B1041AC060E088E00E946F0215C0C1
:101DF00081E08093740599CE8091B50581118CCFD7
:101E0000BBCF88E00E942402811100CFF4CE609104
:101E1000AE048DE00E946F0260CF0F900F90DF91B3
:101E2000CF91FF91EF91BF91AF919F918F917F9152
:101E30006F915F914F913F912F910F900FBE0F9037
:101E40001F901895CF93DF9300D0CDB7DEB70097E2
:101E500031F0FC018081863111F08093BA05E09168
:101E6000BA058E2F90E0FC013197E531F10508F0BD
:101E70006BC0EF57FF4F0C946F2C88E790E0909366
:101E80001B0180931A0181E0809339057DC08CE2AB
:101E900091E090931B0180931A0181E080933905B2
:101EA00073C08CE390E0909384058093830525E0D4
:101EB00030E03093800520937F0510927D051092CD
:101EC0007C0528E02093140190937B0580937A058C
:101ED0008CE291E090931B0180931A0155C08CE035
:101EE00090E0909384058093830585E090E0909343
:101EF000800580937F058091BA05833131F0809110
:101F0000BA058E3020F08FE003C08AE001C08AE07D
:101F1000809314018091BA058E3018F08DE090E026
:101F200002C088E090E090937D0580937C0588E571
:101F300092E090937B0580937A0588E790E09093F8
:101F40001B0180931A0120C088E592E090938405DC
:101F50008093830521E030E03093800520937F0556
:101F600028E02093140190937B0580937A0580915B
:101F7000BA05883019F08CE291E002C088E790E061
:101F800090931B0180931A0180916705882309F4BF
:101F9000BDC04091AD055091AE056091AF05709107
:101FA000B0058091B1059091B205A091B305B091B3
:101FB000B405481759076A077B0708F086C0809167
:101FC000B1059091B205A091B305B091B4054091CF
:101FD000AD055091AE056091AF057091B005841BC1
:101FE000950BA60BB70B8093BB059093BC05A093F4
:101FF000BD05B093BE051092B9051092B8051092B8
:10200000B7051092B6056091BB057091BC05809133
:10201000BD059091BE0520911A0130911B01032E40
:10202000000C440B550B0E94502C7093820560935A
:102030008105809181059091820560918305709161
:1020400084050E941A2C6F5F7F4F80917F059091CD
:1020500080059A83898389819A818617970734F04E
:10206000161617062CF061E070E002C069817A81D3
:1020700070931D0160931C0110927E0510927905EA
:102080001092780580911C0190911D019093190187
:10209000809318018091BB059091BC05A091BD056E
:1020A000B091BE0520911A0130911B01BC01CD01F8
:1020B000655F7F4F8F4F9F4F032E000C440B550BD6
:1020C0000E94502C609377053FC01092BB05109280
:1020D000BC051092BD051092BE051092B905109274
:1020E000B8051092B7051092B60581E090E0909384
:1020F0001D0180931C01109282051092810510929F
:102100007E0510927905109278051EC01092BB05CD
:102110001092BC051092BD051092BE051092B90533
:102120001092B8051092B7051092B605109282056C
:102130001092810510927E0510927D0510927C050B
:10214000109279051092780590913A0581E09111ED
:1021500080E08093030560E08DE00E946F020F90A5
:102160000F90DF91CF9108951F920F920FB60F92AB
:1021700011242F933F934F935F936F937F938F938C
:102180009F93AF93BF93EF93FF938091B10590918D
:10219000B205A091B305B091B4050196A11DB11D82
:1021A0008093B1059093B205A093B305B093B405A5
:1021B00080911101882329F0809111018150809331
:1021C000110180911E01882391F180916705882378
:1021D00009F435C14091B1055091B2056091B30544
:1021E0007091B4058091AD059091AE05A091AF05B9
:1021F000B091B005481759076A077B0708F41FC15B
:102200004091B1055091B2056091B3057091B4054C
:102210008091A9059091AA05A091AB05B091AC055C
:10222000481759076A077B0708F4CDC008C1809199
:1022300067058823E1F04091B1055091B2056091A6
:10224000B3057091B4058091A9059091AA05A0915C
:10225000AB05B091AC05481759076A077B0738F002
:102260001092670581E080931E011092B90580915C
:102270001E018111E4C08091BB059091BC05A09125
:10228000BD05B091BE05892B8A2B8B2B81F48091E3
:102290007A0590917B059093AD048093AC0481E026
:1022A00090E090931D0180931C011092770580911E
:1022B000BB059091BC05A091BD05B091BE050196EE
:1022C000A11DB11D8093BB059093BC05A093BD05D6
:1022D000B093BE05809181059091820501969093FF
:1022E0008205809381058091AC049091AD040097A4
:1022F00029F001979093AD048093AC0480917F0501
:1023000090918005892BE1F16091BB057091BC052E
:102310008091BD059091BE05209183053091840583
:10232000032E000C440B550B0E94502C672B682B7E
:10233000692B09F451C024C081E090E090931D0105
:1023400080931C018093030560E08DE00E946F0282
:1023500081E080937E051092820510928105809124
:10236000AC049091AD04892B59F480917A05909139
:102370007B059093AD048093AC0481E08093790554
:1023800080913905882309F458C08091BB0590914C
:10239000BC05A091BD05B091BE0520911A013091F8
:1023A0001B01BC01CD01655F7F4F8F4F9F4F032EF7
:1023B000000C440B550B0E94502C6B3071058105AD
:1023C000910504F13AC01092B50580E090E00E94BA
:1023D000220F10921E0133C080911C0190911D01AB
:1023E000019690931D0180931C0120911C01309156
:1023F0001D0180917F0590918005821793070CF055
:10240000A7CF9ACF8091BB059091BC05A091BD0547
:10241000B091BE0520911A0130911B01BC01CD0184
:10242000655F7F4F8F4F9F4F032E000C440B550B62
:102430000E94502C6093770502C010927705FF919F
:10244000EF91BF91AF919F918F917F916F915F912C
:102450004F913F912F910F900FBE0F901F901895A5
:10246000EAE7F0E0808186FDFDCF20917800309191
:102470007900EAE7F0E0908190649083C9010895C3
:1024800088EC80937C00EAE7F0E087E0808380813D
:10249000806880838081806480830E9430120895E8
:1024A0000F931F93CF93DF936091120170911301EB
:1024B000072E000C880B990B0E940D2A20E030E0BB
:1024C00040E251E40E946329062F172FD82FC92F0D
:1024D00020E030E048E453E40E94FC2A18166CF037
:1024E00020E030E048E453EC602F712F8D2F9C2FBB
:1024F0000E945929882334F009C000E010E0D8E494
:10250000C3E404C000E010E0D8E4C3EC0E94301241
:102510000E943012BC0180E090E00E940B2A2EEA5B
:1025200037E242EA53E40E94EC2826EF38E24CE915
:102530005FE30E946329202F312F4D2F5C2F0E94D3
:10254000ED280E946E2BDF91CF911F910F9108957E
:10255000EAE7F0E0108210927B00ACE7B0E01C925A
:102560009C9196609C939C91906C9C939C919062A2
:102570009C939081966090839081906290839081EB
:1025800098609083908190689083882331F0808157
:10259000886080838081806480830895FC0121911C
:1025A000222341F030E0205331092A303105B8F3BD
:1025B00080E0089581E008950E94510980E090E054
:1025C0000E94220F0E94F00410921E011092B50585
:1025D00060E086E291E00E94C609089581E0809360
:1025E0001E0180917405811104C060E08DE00E949D
:1025F0006F0260E08AE00E946F0260E088E00E9463
:102600006F021092A70560E071EE80E090E00E94FA
:102610002B0908951F920F920FB60F9211242F933A
:102620003F934F935F936F937F938F939F93AF935A
:10263000BF93EF93FF9384E00E9424028823D9F094
:102640001092030580911E01882369F08091740522
:10265000823089F40E94DC121092740560E08DE0F3
:102660000E946F0208C080917405823021F40E949C
:10267000EE12109274051092760510927505FF9176
:10268000EF91BF91AF919F918F917F916F915F91EA
:102690004F913F912F910F900FBE0F901F90189563
:1026A00080915205811105C065E08FEB95E00E9495
:1026B00058038091B1059091B205A091B305B091F6
:1026C000B40581159646AE4EBF4528F462E08FEB07
:1026D00095E00E9458034091A9055091AA05609188
:1026E000AB057091AC058091B1059091B205A091B8
:1026F000B305B091B405481759076A077B0700F581
:102700004091AD055091AE056091AF057091B00557
:102710008091B1059091B205A091B305B091B40537
:10272000481759076A077B0728F463E08FEB95E0A9
:102730000E94580364E08FEB95E00E9458030895CF
:102740004091AD055091AE056091AF057091B00517
:102750008091B1059091B205A091B305B091B405F7
:10276000481759076A077B0728F461E08FE291E078
:102770000E94C60908952F923F924F925F926F92E6
:102780007F928F929F92AF92BF92CF92DF92EF9201
:10279000FF920F931F93CF93DF93CDB7DEB72C97A4
:1027A0000FB6F894DEBF0FBECDBF2B013C0149012F
:1027B0005A01621773078407950750F0E114F1047A
:1027C00009F404C161E0C7010E94C60981E0FFC0AD
:1027D0000115110521F061E0C8010E94C6097501CB
:1027E0006401C418D508E608F708C701B60120E857
:1027F00033E341EE51E00E942E2C29013A01442797
:10280000552760E873E381EE91E00E94F62BC61A2B
:10281000D70AE80AF90AC701B60120E831E541E024
:1028200050E00E942E2C49015A01190144275527D6
:1028300060E871E581E090E00E94F62BC61AD70AA5
:10284000E80AF90AC701B60120E13EE040E050E0A5
:102850000E942E2C29833A834B835C8329813A8101
:102860003A87298729813A814B815C814427552702
:10287000A0E1BEE00E948B2CC61AD70AE80AF90A2A
:10288000C701B6012CE330E040E050E00E942E2C5E
:102890002D833E834F8358870D811E812CE3209F1B
:1028A000C001219F900D1124A601481B590B5C8784
:1028B0004B871092040541145104B9F05F924F9276
:1028C00081E491E09F938F9384E095E09F938F93B1
:1028D0000E944A2E61E084E095E00E94C6090F90B4
:1028E0000F900F900F900F900F902328B9F09F92A8
:1028F0008F9289E491E09F938F9384E095E09F937A
:102900008F930E944A2E61E084E095E00E94C60900
:102910000F900F900F900F900F900F9089859A85D0
:10292000892BC9F09A819F93E981EF9382E591E029
:102930009F938F9384E095E09F938F930E944A2EFC
:1029400061E084E095E00E94C6090F900F900F901F
:102950000F900F900F90012BC9F0FE81FF932D81F6
:102960002F938AE591E09F938F9384E095E09F9366
:102970008F930E944A2E61E084E095E00E94C60990
:102980000F900F900F900F900F900F903C853F93FA
:102990004B854F9382E691E09F938F9384E095E07F
:1029A0009F938F930E944A2E61E084E095E00E94FD
:1029B000C6090E94B109E4E0F5E010820F900F9083
:1029C0000F900F900F900F9080E001C081E02C9647
:1029D0000FB6F894DEBF0FBECDBFDF91CF911F9130
:1029E0000F91FF90EF90DF90CF90BF90AF909F90AE
:1029F0008F907F906F905F904F903F902F900895B1
:102A0000EF92FF920F931F9381E080931E010E942B
:102A1000B60C81115DC081E0809367052091AD0502
:102A20003091AE054091AF055091B0056091B10570
:102A30007091B2058091B3059091B4050F2EF9E61F
:102A4000EF2EF1E0FF2EF02D06E711E00E94BB1300
:102A50002091A9053091AA054091AB055091AC0594
:102A60006091AD057091AE058091AF059091B00574
:102A7000E12CF12C02E811E00E94BB134091AD055E
:102A80005091AE056091AF057091B0058091B10590
:102A90009091B205A091B305B091B40548175907BC
:102AA0006A077B07B8F42091A9053091AA054091E7
:102AB000AB055091AC056091B1057091B205809164
:102AC000B3059091B4050AE811E00E94BB1302C05F
:102AD0000E9450131F910F91FF90EF9008954F9215
:102AE0005F926F927F928F929F92AF92BF92EF927E
:102AF000FF920F931F93CF93DF93CDB7DEB72C9741
:102B00000FB6F894DEBF0FBECDBF8C01E42EFC01E2
:102B100001900020E9F73197E81BF90B25E06D3AA9
:102B2000720749F58091B1059091B205A091B30566
:102B3000B091B40589879A87AB87BC8780E096E619
:102B4000AEEEBFE589839A83AB83BC8389859A8582
:102B5000AB85BC8581159646AE4EBF4528F489806D
:102B60009A80AB80BC8004C089849A84AB84BC8486
:102B7000FF24F39442C0695A7540A9F58091AD05D0
:102B80009091AE05A091AF05B091B0058D839E8365
:102B9000AF83B8878091B1059091B205A091B3053C
:102BA000B091B40589839A83AB83BC834D815E81E8
:102BB0006F81788589819A81AB81BC8148175907DB
:102BC0006A077B0740F489809A80AB80BC80689458
:102BD000FF24F1F812C08D809E80AF80B884689485
:102BE000FF24F1F80AC0F12C0F2E812CF6E69F2E5F
:102BF000FEEEAF2EFFE5BF2EF02DEC30F10509F013
:102C00005EC0C8010E94CE12882309F44FC0B801EB
:102C100080E090E00E9462272B013C01AE2DEE0C7B
:102C2000BB0B20E13EE00E94842C640D751D861DC7
:102C3000971D86169706A806B90608F445C021E038
:102C4000F21209C068E08FEB95E00E94580360E043
:102C500070E0CB0139C022E0F2121FC00091B10533
:102C60001091B2052091B3053091B405601771073A
:102C70008207930748F467E08FEB95E00E945803C2
:102C800060E070E0CB0120C066E08FEB95E00E9431
:102C9000580360E070E0CB0117C06AE08FEB95E06D
:102CA0000E94580360E070E0CB010EC069E08FEB3A
:102CB00095E00E94580360E070E0CB0105C0EF2B67
:102CC000A9F760E070E0CB012C960FB6F894DEBF58
:102CD0000FBECDBFDF91CF911F910F91FF90EF906D
:102CE000BF90AF909F908F907F906F905F904F902C
:102CF00008958430C9F028F4823041F0833069F0BF
:102D000028C08530C1F08630E9F023C08CE292E023
:102D10009093890080938800089581E792E09093D2
:102D200089008093880008958AEC92E0909389004E
:102D300080938800089581E493E0909389008093C4
:102D40008800089588EE93E090938900809388002E
:102D5000089584EF91E0909389008093880008950E
:102D60002F923F924F925F926F927F928F929F929B
:102D7000AF92BF92CF92DF92EF92FF920F931F9389
:102D8000CF93DF93CDB7DEB72C970FB6F894DEBFA5
:102D90000FBECDBF0F2EFAE68F2EF5E09F2EF02D41
:102DA0000F2EF4ED6F2EF1E07F2EF02D0F2EF4E0BC
:102DB000AF2EF5E0BF2EF02D0F2EF8EC4F2EF1E0E8
:102DC0005F2EF02D0F2EF9EB2F2EF1E03F2EF02D80
:102DD0000E94DE086C01009709F494C5DC0111968D
:102DE0008D919C9112978A3EB2E29B0709F491C2A1
:102DF000F0F48F36FDE19F0709F4BCC250F4873D23
:102E000032E0930709F4EEC08E31934009F4B4C167
:102E100051C5863CAEE19A0749F1863AB0E29B077C
:102E200009F418C185329E4109F044C547C5803D6B
:102E3000F3E29F0709F411C250F48A3933E2930791
:102E400009F43CC58F3C934209F4E2C433C5843392
:102E5000A4E29A0709F47BC18C39B4E29B0709F418
:102E600052C2853F934209F025C53BC1D601139656
:102E70008C91139790E0009709F49DC082349105DE
:102E800009F422C58434910541F457968C91833519
:102E900009F41DC586E090E07CC08634910509F4F4
:102EA00019C583349105C9F4F6018789108E8234DF
:102EB00029F090E0C0970A9708F07DC0C6014796B8
:102EC0000E94BF2D992314F480E090E08630910594
:102ED0000CF45CC085E090E059C08335910509F0A1
:102EE00043C0D60157968C91579758969C91589706
:102EF00059961C92823409F45EC0863449F48FECF2
:102F0000890F853008F057C0892F90E083971CC047
:102F1000833541F48FEC890F8530C8F4892F90E018
:102F2000889712C0963441F49FEC980F953008F0C2
:102F300042C090E0839708C09335E9F59FEC980F65
:102F40009530C8F590E08897009719F434C088E070
:102F500090E08830910514F488E090E08331910589
:102F6000ACF082E190E012C08E34910559F4F60184
:102F70008789823309F4B1C4853309F4B0C480E091
:102F800090E007C0C60103960E94BF2D86319105CF
:102F900090F48983AE014F5F5F4F60E18FEB95E066
:102FA0000E94D0028091BA059981981721F0CE0134
:102FB00001960E94220F8091BA051F928F9382EA98
:102FC00091E09F938F93BF92AF920E944A2E60E050
:102FD000C5010E94C6090F900F900F900F900F909F
:102FE0000F906CC4D60113968C918823E1F0C60132
:102FF00003960E94DD2D70E01616170614F061E0AE
:1030000070E06730710514F066E070E06093A6052B
:1030100046EA55E061E18FEB95E00E94D002809195
:10302000A6050E9479168091A6051F928F938AEAC1
:1030300091E09F938F93BF92AF920E944A2E60E0DF
:10304000C5010E94C6090F900F900F900F900F902E
:103050000F9034C4F6018381882309F1948196345A
:1030600011F0803359F410923A0560E08DE00E942F
:103070006F0260E08DE00E946F0203C081E08093E8
:103080003A054AE355E062E18FEB95E00E94D002F9
:1030900090913A0581E0911180E080930305809141
:1030A0003A05811105C02EE931E0822F932F04C02B
:1030B000ABE9B1E08A2F9B2F9F938F9381EB91E037
:1030C0009F938F93BF92AF920E944A2E60E0C501FA
:1030D0000E94C6090F900F900F900F900F900F90C5
:1030E000EDC3F6018381882391F09481963411F029
:1030F000803319F41092390503C081E080933905BB
:1031000049E355E065E18FEB95E00E94D0028091A4
:103110003905811105C02EE931E0822F932F04C0BB
:10312000ABE9B1E08A2F9B2F9F938F933F922F9211
:10313000BF92AF920E944A2E60E0C5010E94C6096C
:103140000F900F900F900F900F900F90B7C3F60154
:103150008381882309F4B2C3803319F40E94EE12EC
:10316000ADC3813319F40E94DC12A8C3823309F085
:10317000A5C30E940015A2C3D60113968C91882383
:1031800099F180E290E0F50191838083B6016D5F53
:103190007F4FC5010E940C2ED60157968C91882333
:1031A00079F0F50101900020E9F7319780E290E095
:1031B00091838083B601695E7F4FC5010E940C2E0A
:1031C000F50101900020E9F73197E450F54075973B
:1031D00058F4B50182E595E00E94172EA5016BE039
:1031E0008FEB95E00E94D002809152058823F1F088
:1031F0006091150170E082E595E00E94C7268C5031
:103200009E4F9C013695279536952795369527959F
:10321000A5ECB0E20E94752C929582958F7089275B
:103220009F70892790933C0580933B0582E595E04C
:103230009F938F9381EC91E09F938F93BF92AF9276
:103240000E944A2E61E0C5010E94C6090F900F90AE
:103250000F900F900F900F9031C3F6018381893446
:10326000E9F587898823D1F1C60147960E94DD2DB3
:10327000862F90E08530910514F485E090E085314B
:1032800091050CF084E18093150145E151E06FE078
:103290008FEB95E00E94D002809152058823F1F0D7
:1032A0006091150170E082E595E00E94C7268C5080
:1032B0009E4F9C01369527953695279536952795EF
:1032C000A5ECB0E20E94752C929582958F708927AB
:1032D0009F70892790933C0580933B058091150151
:1032E0001F928F935F924F92BF92AF920E944A2E8D
:1032F00060E0C5010E94C6090F900F900F900F90DB
:103300000F900F90DBC260E08FEB95E00E945803B6
:10331000D5C2D60113968C918823C9F048E050E0BD
:10332000B6016D5F7F4FC5010E941E2EF50110860C
:10333000C5010E94CE12882351F0F50101900020B2
:10334000E9F73197E450F540349708F0CBC29F92EB
:103350008F927F926F92BF92AF920E944A2E61E04D
:10336000C5010E94C6090F900F900F900F900F900B
:103370000F90A4C2D60113968C91843509F073C0C6
:103380004CE050E0B601695E7F4FC5010E941E2EE1
:10339000F50114864091A805419561EB75E0C501E2
:1033A0000E946F1569877A878B879C8761157105E5
:1033B0008105910541F10E94132789859A85AB8586
:1033C000BC858093B1059093B205A093B305B093EB
:1033D000B4058091B1059091B205A091B305B0916B
:1033E000B405BF93AF939F938F9381EE91E09F932A
:1033F0008F93BF92AF920E944A2E0FB6F894DEBF11
:103400000FBECDBF7AC22091AD053091AE0540917F
:10341000AF055091B0056091B1057091B2058091F2
:10342000B3059091B405E12CF12C06E711E00E9460
:10343000BB138091B1059091B205A091B305B091F5
:10344000B405BF93AF939F938F938CED91E09F93BF
:103450008F93BF92AF920E944A2E0FB6F894DEBFB0
:103460000FBECDBF4AC2833509F09CC0B601695E6C
:103470007F4FC5010E94172E4091A80541956DEA26
:1034800075E0C5010E946F156115710581059105F3
:1034900009F46EC06093AD057093AE058093AF05DF
:1034A0009093B0054DEA55E067E18FEB95E00E94FF
:1034B000D0028091A9059091AA05A091AB05B09189
:1034C000AC058D839E83AF83B8878091AD059091C5
:1034D000AE05A091AF05B091B00580589E4AAE4FA1
:1034E000BF4F89839A83AB83BC834D815E816F819B
:1034F0007885481759076A077B0728F489819A81DC
:10350000AB81BC8104C08D819E81AF81B8858093E1
:10351000A9059093AA05A093AB05B093AC0549EA21
:1035200055E068E18FEB95E00E94D0028091AD05F7
:103530009091AE05A091AF05B091B005BF93AF9348
:103540009F938F938BEE91E09F938F93BF92AF9257
:103550000E944A2E0E94B60C91E00FB6F894DEBF8E
:103560000FBECDBF813009F090E090936705C5C1D3
:103570008091AD059091AE05A091AF05B091B005D9
:10358000BF93AF939F938F938BEE91E09F938F9315
:10359000BF92AF920E944A2E0FB6F894DEBF0FBEC4
:1035A000CDBFABC1863409F075C0B601695E7F4FEF
:1035B000C5010E94172E4091A805419569EA75E062
:1035C000C5010E946F15611571058105910509F40A
:1035D00047C06093A9057093AA058093AB059093AB
:1035E000AC0549EA55E068E18FEB95E00E94D00216
:1035F0002091A9053091AA054091AB055091AC05E9
:103600006091AD057091AE058091AF059091B005C8
:10361000E12CF12C02E811E00E94BB138091A90576
:103620009091AA05A091AB05B091AC05BF93AF9363
:103630009F938F9386EF91E09F938F93BF92AF926A
:103640000E944A2E0E94B60C91E00FB6F894DEBF9D
:103650000FBECDBF813009F090E0909367054DC15A
:103660008091A9059091AA05A091AB05B091AC05F8
:10367000BF93AF939F938F9386EF91E09F938F9328
:10368000BF92AF920E944A2E0FB6F894DEBF0FBED3
:10369000CDBF33C18F34B9F5D60157968C918823AD
:1036A000D9F0C60147960E94BF2D893154F4082EE7
:1036B000000C990B883EBFEF9B072CF488EE9FEF20
:1036C00002C088E190E08093A80548EA55E069E1EE
:1036D0008FEB95E00E94D0028091A805282F082E3C
:1036E000000C330B3F938F9382E092E09F938F9374
:1036F000BF92AF920E944A2E0F900F900F900F90A2
:103700000F900F90FAC0833409F5F601878988235A
:1037100051F0C60147960E94BF2D8115F2E09F0728
:1037200010F40E944C280E94A7289F938F938DE04D
:1037300092E09F938F93BF92AF920E944A2E0F9078
:103740000F900F900F900F900F90D7C00E94B60C63
:10375000882319F00E945013B1C02091AD0530911B
:10376000AE054091AF055091B0056091B1057091E3
:10377000B2058091B3059091B4050F2EF9E6EF2EB6
:10378000F1E0FF2EF02D06E711E00E94BB1320911F
:10379000A9053091AA054091AB055091AC05609107
:1037A000AD057091AE058091AF059091B005E12C0B
:1037B000F12C02E811E00E94BB134091AD0550913D
:1037C000AE056091AF057091B0058091B105909103
:1037D000B205A091B305B091B405481759076A071F
:1037E0007B0708F06BC02091A9053091AA05409194
:1037F000AB055091AC056091B1057091B205809117
:10380000B3059091B4050AE811E00E94BB1356C0BD
:10381000D60113968C911397833489F557968C9122
:103820008823A9F0C60147960E94BF2D9C01215311
:10383000384F2F393F4058F4909313018093120171
:1038400042E151E063E18FEB95E00E94D00280916C
:103850001201909113019F938F93E3E1F2E0FF93A4
:10386000EF93BF92AF920E944A2E60E0C5010E9482
:10387000C6090F900F900F900F900F900F908091AE
:103880006905282F082E000C330B3F938F938EE190
:1038900092E09F938F93BF92AF920E944A2E61E075
:1038A000C5010E94C6090F900F900F900F900F90C6
:1038B0000F9004C08FEB95E00E949F04F6011282E6
:1038C00011820E94A60984CA80E090E062CB83E165
:1038D00090E05FCB87E090E05CCB84E15ACB85E160
:1038E00090E057CBB501C4010E94172EA4016EE0F1
:1038F0008FEB95E00E94D0022ACD61E0C5010E94C5
:10390000C609DCCF2C960FB6F894DEBF0FBECDBF34
:10391000DF91CF911F910F91FF90EF90DF90CF90AB
:10392000BF90AF909F908F907F906F905F904F90DF
:103930003F902F900895CF92DF92EF92FF921F93C6
:10394000CF93DF931F92CDB7DEB7843439F4109252
:103950001601109209011092080185C39091160179
:10396000911107C02FE030E0309309012093080146
:103970000FC3182F8A32B9F481E090E090930901C7
:10398000809308011092A4041092A3041092A20440
:103990001092A1041092A00410929F04809116012D
:1039A0008823C9F160C3E0910801F09109013197C2
:1039B000E031F10508F057C3EA56FF4F0C946F2C25
:1039C0001092A4041092A3041092A2041092A104D5
:1039D0001092A00410929F04809116018823D9F0C0
:1039E000133439F486E090E0909309018093080144
:1039F0003AC31A3209F437C3812F90E0C0979093ED
:103A0000A2048093A1040E94F00480E190E09093CE
:103A1000090180930801113409F025C382E090E088
:103A200090930901809308011EC380911601882399
:103A300009F419C3103339F483E090E0909309013D
:103A40008093080110C3113339F484E090E090931F
:103A500009018093080107C3123339F485E090E02F
:103A60009093090180930801FEC2183309F0FBC24C
:103A700080919E04882309F4F6C28EE090E0909332
:103A8000090180930801EFC2833209F0ECC20E9461
:103A9000EE121092090110920801E5C2833209F07A
:103AA000E2C20E94DC121092090110920801DBC2EE
:103AB000833209F0D8C20E940015109209011092B9
:103AC0000801D1C2813339F487E090E09093090175
:103AD00080930801C8C2823339F488E090E0909363
:103AE000090180930801BFC2833339F48CE090E070
:103AF0009093090180930801B6C2843339F489E0B8
:103B000090E09093090180930801ADC2853339F4A8
:103B10008AE090E09093090180930801A4C2863363
:103B200069F48BE090E0909309018093080181E0B3
:103B300090E09093A00480939F0495C2893339F458
:103B40008DE090E090930901809308018CC210925F
:103B500009011092080187C28332C1F48091A30445
:103B60009091A40404976CF069E874E08AE695E00B
:103B70000E94172E4AE655E06EE08FEB95E00E941A
:103B8000D00210920901109208016DC280ED810FE0
:103B90008A3008F068C28091A3049091A40489300F
:103BA00091050CF060C29C012F5F3F4F3093A4043D
:103BB0002093A304FC01E757FB4F1083F901E7575B
:103BC000FB4F108250C28332E1F4E9E8F4E0019047
:103BD0000020E9F73197E958F440759768F469E8EF
:103BE00074E082E595E00E94172E42E555E06BE017
:103BF0008FEB95E00E94D00210920901109208010B
:103C000032C280ED810F8A3008F02DC280919F046E
:103C10009091A004892BC9F18091A1049091A204F4
:103C20009C01220F331F880F991F880F991F880F3F
:103C3000991F820F931F212F30E020533109280F45
:103C4000391F3093A2042093A10427323105C4F414
:103C50008091A3049091A404843191058CF4FC011B
:103C6000E757FB4FD901A25ABD4F2C9120830196F3
:103C70009093A4048093A304FC01E757FB4F1082A8
:103C80001092A00410929F04EEC1212F30E0205327
:103C900031093093A2042093A10481E090E0909335
:103CA000A00480939F04DFC18332F1F48091A104CA
:103CB0009091A2048631910590F48983AE014F5F03
:103CC0005F4F60E18FEB95E00E94D0028091BA05D2
:103CD0009981981721F0CE0101960E94220F10922F
:103CE000090110920801BFC180ED810F8A3008F0F0
:103CF000BAC18091A1049091A2049C01220F331FAC
:103D0000880F991F880F991F880F991F820F931F83
:103D1000212F30E020533109820F931F9093A2048A
:103D20008093A104A0C18332F9F44091A805419584
:103D300061EB75E089E894E00E946F156B017C01EE
:103D4000611571058105910551F00E941327C092FC
:103D5000B105D092B205E092B305F092B40510928D
:103D60000901109208017FC180ED810F8A3008F0AF
:103D70007AC18091A3049091A404883291050CF03B
:103D800072C1FC01E757FB4F108301969093A40486
:103D90008093A304FC01E757FB4F108264C1833278
:103DA00051F54091A80541956DEA75E089E894E0E8
:103DB0000E946F156115710581059105B9F0609339
:103DC000AD057093AE058093AF059093B0054DEAB5
:103DD00055E067E18FEB95E00E94D0020E94B60C9F
:103DE00091E0813009F090E090936705109209010D
:103DF0001092080138C180ED810F8A3008F033C17C
:103E00008091A3049091A404883291050CF02BC1F9
:103E1000FC01E757FB4F108301969093A404809315
:103E2000A304FC01E757FB4F10821DC1833251F5FB
:103E30004091A805419569EA75E089E894E00E94FF
:103E40006F156115710581059105B9F06093A9059C
:103E50007093AA058093AB059093AC0549EA55E0B1
:103E600068E18FEB95E00E94D0020E94B60C91E0D1
:103E7000813009F090E0909367051092090110924B
:103E80000801F1C080ED810F8A3008F0ECC080910C
:103E9000A3049091A404883291050CF0E4C0FC01C5
:103EA000E757FB4F108301969093A4048093A304DB
:103EB000FC01E757FB4F1082D6C08332E9F48091B2
:103EC000A1049091A2048831910588F490919F04F7
:103ED000989F802D11248983AE014F5F5F4F69E168
:103EE0008FEB95E00E94D00289818093A805109203
:103EF000090110920801B7C080ED810F8A30D0F41B
:103F00008091A1049091A2049C01220F331F880F7D
:103F1000991F880F991F880F991F820F931F212FB8
:103F200030E020533109820F931F9093A2048093B5
:103F3000A10499C0123409F096C08FEF9FEF9093BF
:103F4000A00480939F048FC08332A1F48091A104C8
:103F50008093A6058091A6050E94791646EA55E051
:103F600061E18FEB95E00E94D0021092090110925E
:103F7000080179C08FEC810F863008F074C0212FC2
:103F800030E0205331093093A2042093A1046BC088
:103F900020919F043091A004A9014F5F5F4F50937F
:103FA000A00440939F04F901E659FA4F90818913C8
:103FB00012C0EAE6F5E001900020E9F73197EA56F1
:103FC000F540E417F50709F04EC081E08093160133
:103FD00080939E0448C01092A00410929F041092F7
:103FE0000901109208013FC0833201F58091A104BC
:103FF0009091A204009741F480E090E00E94BB04FD
:1040000081E08093A5050DC08C3321E092073CF040
:104010001092A5058BE391E00E94BB0402C00E94B0
:10402000BB0410920901109208011DC080ED810FA0
:104030008A30C8F42091A1043091A204C901880FEC
:10404000991F220F331F220F331F220F331F820F9E
:10405000931F212F30E020533109820F931F90933B
:10406000A2048093A1040F90DF91CF911F91FF9044
:10407000EF90DF90CF9008952F923F924F925F92F2
:104080006F927F928F929F92AF92BF92CF92DF9268
:10409000EF92FF920F931F93CF93DF931F92CDB7B1
:1040A000DEB70E94B0168091B905882329F080916F
:1040B000A804882309F4D7C080911E01811129C169
:1040C0001092A8048091BA05863091F480911C0169
:1040D00090911D01BC01660F771F660F771F680F57
:1040E000791F6B547D4F8DE395E00E94172E27C0FA
:1040F0008091BA05833199F480911C0190911D0142
:104100000896BC01660F771F660F771F680F791F2F
:104110006B547D4F8DE395E00E94172E10C0809167
:10412000BA0590E0BC01660F771F660F771F680F16
:10413000791F6B547D4F8DE395E00E94172E80917F
:10414000BA05863009F18091BA058331E9F0809192
:10415000BA058823C9F08091BA058730A9F080910B
:10416000BA05883089F02091BA0540911C01509120
:104170001D0180917C0590917D0530E0840F951F95
:104180002817390709F0C5C081E0898360911401BF
:1041900070E082E89BE10E941A2CCB016AE070E09B
:1041A0000E941A2C660F771F7093B8056093B705AD
:1041B00040E050E0BE016F5F7F4F8DE395E00E94CD
:1041C000C9258091790581110BC020917A05309124
:1041D0007B058091830590918405821793073CF1BC
:1041E00000918305109184056091150170E082E5CE
:1041F00095E00E94C7268C509E4F9C0136952795CE
:104200003695279536952795A5ECB0E20E94752C3A
:10421000929582958F7089279F708927081B190BAB
:1042200010930E0100930D01109279050AC0809140
:104230008305909184058D599F4F90930E01809333
:104240000D0110920C0181E08093B9051092B60522
:1042500010927E0580911C0190911D01909319018F
:104260008093180156C080910C018111F4C12091F6
:1042700081053091820580910D0190910E012817E2
:10428000390709F0E8C1C5C18091BA05843108F445
:10429000E8C107C010927E051092B90581E08093B5
:1042A000A8048091BA05863021F08091BA05833147
:1042B00049F48091B605882361F180917E058111D2
:1042C000D5C127C08091BA05882341F08091BA05F5
:1042D000873021F08091BA05883041F48091B6058D
:1042E0008823B9F081E08093A80413C08091BA05B7
:1042F000893008F4C2C18091BA05833108F0BDC18C
:104300008091B6058111B6C1B8C18091B605811101
:10431000C0C18CE295E00E945E06882309F41DC1AD
:10432000809111018111B8C10E9440120E94501267
:104330000E94D529809169056817E1F060936905AD
:104340006A3114F0695103C089E1861B682F062E7B
:10435000000C770B8FEB95E00E94B304209136059B
:1043600030913705A901480F511D87FD5A95CA01A3
:104370000E944C2880E00E94A8128CE380931101D7
:104380008BC1F50141915191619171915F018CE275
:1043900095E00E947B058CE295E00E946106E62E86
:1043A000F72ED82EC92E272D362D452D542D0E949F
:1043B000FC2A1816B4F420E034E244E759E46E2DE8
:1043C0007F2D8D2D9C2D0E94FC2A181634F4480157
:1043D0007E2C6F2C5D2C4C2C04C07E2C6F2C5D2C05
:1043E0004C2C0F5F1F4F0430110559F665C1F501C4
:1043F00041915191619171915F018CE295E00E9430
:104400007B058CE295E00E946106E62EF72ED82E01
:10441000C92E252D342D432D522D0E94FC2A18160D
:10442000B4F420E034E244E759E46E2D7F2D8D2D65
:104430009C2D0E94FC2A181634F438015E2C4F2C57
:104440003D2C2C2C04C05E2C4F2C3D2C2C2C0F5FB3
:104450001F4F0430110559F677200CF476C0C401C3
:10446000880F991F880F991F8B579D4FFC01E60DF0
:10447000F71D10818091A704181317C080910A01BD
:1044800090910B01019690930B0180930A01039781
:1044900061F481E0809373051092A6041092A50444
:1044A00010933505812F0E949B1C1093A7044DC0CB
:1044B000C0902D05D0902E05E0902F05F09030058E
:1044C0008090310590903205A0903305B09034056E
:1044D0008091A5049091A6049C012F5F3F4F3093DB
:1044E000A6042093A504039784F11092730580918C
:1044F0001E01882329F08091B505882309F4EFC0B7
:10450000C818D908EA08FB08FCEDCF16F5E0DF066D
:10451000E104F10420F410920B0110920A011092B0
:10452000A6041092A50480912D0590912E05A091CE
:104530002F05B09130058093310590933205A093FB
:104540003305B09334051092A704EAE7F0E08081C8
:104550008860808380818064808380917305882354
:10456000B1F0198240E050E0BE016F5F7F4F84E2FE
:1045700092E00E94C9258CE890E09093B805809362
:10458000B70581E08093B50510926805ADC0109124
:1045900068050E94B60C809368058091680518171D
:1045A00009F4A2C0809168058230A1F411E019835A
:1045B00040E050E0BE016F5F7F4F86E292E00E94D4
:1045C000C9258CE890E09093B8058093B7051093C7
:1045D000B5058AC0809168058130A1F411E0198386
:1045E00040E050E0BE016F5F7F4F88E292E00E94A2
:1045F000C92586E490E09093B8058093B7051093A1
:10460000B50572C01092B50560E08DE00E946F02A2
:104610006BC06091150170E082E89BE10E941A2C4A
:10462000CB016AE070E00E941A2C660F771F70932E
:10463000B8056093B705198240E050E0BE016F5F96
:104640007F4F82E595E00E94C92581E080930C01AF
:104650001092B60526CE8091BA05893008F014CEA6
:1046600020CE80917E05811115CE1BCE81E08093F6
:10467000A8044FCE1092B9054CCE8091BA05209176
:104680001C0130911D0190E08217930709F03DCE87
:1046900040CE1092B9053DCE0F2EF5E9AF2EF2E0D7
:1046A000BF2EF02D00E010E088248A94982C712C05
:1046B000612C512C412C65CE99200CF4F9CE0F2E93
:1046C000F5EAAF2EF2E0BF2EF02D00E010E06624F8
:1046D0006A94762C512C412C312C212C88CE60E010
:1046E0008DE00E946F020CCF0F90DF91CF911F9150
:1046F0000F91FF90EF90DF90CF90BF90AF909F9081
:104700008F907F906F905F904F903F902F90089583
:1047100061E08DE00E945F0160E08DE00E946F0229
:1047200061E08DE00E945F0160E08DE00E946F0219
:1047300061E08AE00E945F0160E08AE00E946F020F
:1047400061E089E00E945F0160E089E00E946F0201
:1047500061E088E00E945F0160E088E00E946F02F3
:1047600060E084E10E945F0160E085E10E945F01FA
:1047700063E08CE00E945F0161E08BE00E945F01DA
:1047800060E08BE00E946F0263E084E00E945F01C2
:1047900061E08EE00E945F0161E08FE00E945F01B6
:1047A00061E080E10E945F0161E081E10E945F01C0
:1047B00061E080E00E945F0161E081E00E945F01B2
:1047C00061E086E00E945F0161E086E00E946F0286
:1047D00063E082E10E945F0163E083E10E945F0188
:1047E0000E94E5068FEB95E00E94AF03182F81E051
:1047F0000E94A812E9E6F0E0808182608083E89A56
:10480000A0EBB0E01C92E1EBF0E010828C918260B2
:104810008C938081876080838CE08093B3001092BA
:10482000B400E6EBF0E080818F7D8083E0E7F0E08C
:10483000108280818460808310928000C1E8D0E083
:10484000188210928500109284008091A6050E9423
:10485000791688818860888388818160888314BC08
:1048600084B5826084BD15BC85B5846085BD8FE24A
:1048700087BDEEE6F0E01082808182608083EDE605
:10488000F0E0108280E18083E8E6F0E0108284E0CE
:104890008083789460E071EE80E090E00E942B09C4
:1048A000112329F061E082E392E00E94C6090E9490
:1048B000C328C82F0E9433276093B1057093B205B7
:1048C0008093B3059093B4058FEB95E00E949F040D
:1048D000CC2354F487E0E1E4F2E0A4E0B5E00190F9
:1048E0000D928A95E1F723C0C0FF0AC087E0E8E493
:1048F000F2E0A4E0B5E001900D928A95E1F717C0CF
:10490000C1FF0AC087E0EFE4F2E0A4E0B5E0019067
:104910000D928A95E1F70BC0C5FF09C088E0E6E576
:10492000F2E0A4E0B5E001900D928A95E1F7809164
:104930000405882329F061E084E095E00E94C6091F
:104940000E9450130E94A609EFE6F0E08081826089
:10495000808380E090E00E94220F0E94B60C91E0DC
:10496000813009F090E0909367050E943C20FDCFD4
:104970000F931F938FEB95E00E94CE0200E018E7A3
:1049800026E936E440E050E069E473E48CE295E027
:104990000E9413051F910F9108958CE295E00E94EB
:1049A00061058FEB95E00E94CF02089590E0FC0135
:1049B000B097ED35F10508F0E4C0EA55FF4F0C94CF
:1049C0006F2C89E074E061E008958BE074E065E0AD
:1049D000089587E073E061E0089581E071E060E0B0
:1049E000089589E074E064E0089589E073E063E08D
:1049F000089587E074E060E0089583E072E060E08D
:104A000008958DE074E06EE0089589E073E065E05C
:104A1000089589E074E062E0089587E072E063E061
:104A2000089585E072E061E008958BE073E067E04F
:104A300008958BE074E066E008958DE074E06BE02B
:104A4000089587E073E062E0089585E073E060E038
:104A5000089583E071E061E0089587E073E064E029
:104A6000089589E074E068E0089589E073E066E005
:104A700008958BE074E069E008958DE074E06DE0E6
:104A800008958BE074E063E0089583E175E06FE1E1
:104A9000089581E175E06EE108958FE075E06CE1C5
:104AA00008958DE075E068E108958BE075E060E1C0
:104AB000089589E075E060E008958BE075E061E0BD
:104AC00008958DE075E063E008958FE075E067E09C
:104AD000089581E175E06FE0089581E176E06AE292
:104AE000089583E176E063E308958FE076E06CE07B
:104AF000089583E176E06EE1089583E176E065E371
:104B000008958DE075E069E008958FE075E06DE04F
:104B1000089583E176E06DE208958BE075E062E050
:104B2000089581E176E067E008958CE076E065E144
:104B300008958DE075E061E108958DE075E06AE02B
:104B400008958FE076E061E2089581E176E06CE21D
:104B500008958FE076E062E1089581E177E068E40E
:104B6000089581E176E066E1089584E077E06FEFF3
:104B7000089587E077E06EEF089583E175E06FE1D7
:104B8000089580E070E060E0089585E072E062E002
:104B90000895CF93DF93EA010097B1F11092CB050E
:104BA0006115710521F0DB012C9120932001FC019E
:104BB00020812223D9F09093CA058093C90580E211
:104BC00080931F01822F0E94D6246093C6057093A4
:104BD000C7058093C8051092C5051092C4051092B0
:104BE000C3051092C2051092C1050AC01092CA05F1
:104BF0001092C90581E08093C105209709F0888350
:104C00001092C00580E0C0C0E091C905F091CA05CE
:104C1000309709F4AAC06115710521F08091200137
:104C2000DB018C938091C105882349F0209709F41A
:104C3000A8C081E088831092CB0580E0A5C0809158
:104C4000C305882321F081508093C3057FC08091E4
:104C5000C005882381F08091CB0581110CC0109292
:104C6000C0058091C205882309F470C08093C305F4
:104C70001092C2056BC09091C7058091C405891739
:104C800090F18091C5058F5F8093C505DF01A80F66
:104C9000B11D8C9180931F01811119C08091200159
:104CA000882331F0808180931F011092C5050FC0C9
:104CB0001092CA051092C9051092C00591E0909318
:104CC000C105209709F098831092CB055DC08091B3
:104CD0001F010E94D6246093C6057093C705809378
:104CE000C8051092C4052091C6052D3F00F54091DE
:104CF000C40531E0340F3093C40581E090E002C078
:104D0000880F991F4A95E2F7822321F082E0809371
:104D1000C30502C01092C30581E08093C005809155
:104D2000C705381798F082E08093C2050FC08091C4
:104D3000C7059FEF9093C4051092C005843020F002
:104D400084508093C30502C01092C30580911F0157
:104D50008C3331F481E08093CB05209741F414C06B
:104D60001092CB05209719F409C0209719F0809173
:104D7000C10588838091CB05811105C08091C00554
:104D800003C080E001C081E0DF91CF910895CF9210
:104D9000DF92EF92FF920F931F93CF93FC016B0171
:104DA00080818823C1F08F010F5F1F4F7F0194E145
:104DB000E90EF11CC0E005C0F80181918F01882344
:104DC00059F00E94D6246D3F08F4CD5FC80F0E1530
:104DD0001F0591F701C0C0E080EB94E0B6010E948E
:104DE000062CC69FC001C79F900D1124CF911F9123
:104DF0000F91FF90EF90DF90CF900895982F9695A8
:104E0000969596959E71292F220F220F920F8F70E3
:104E1000890F0895FC01208181818053F0E12F9F4B
:104E2000800D11240895CF93DF9300D000D01F92FE
:104E3000CDB7DEB7AE014F5F5F4F25E0FA011192AB
:104E40002A95E9F79C838B837A83698324E06BE15D
:104E500084EA0E945E070F900F900F900F900F90C2
:104E6000DF91CF910895CF93DF9300D000D0CDB7DD
:104E7000DEB719821A821B821C8224E0AE014F5FCA
:104E80005F4F6BE184EA0E94C107811111C02A8142
:104E90006B81862F90E0A0E0B0E0DC0199278827A5
:104EA000922B2981822B2C81BC01CD01922B03C036
:104EB00060E070E0CB010F900F900F900F90DF91AA
:104EC000CF9108956F927F928F929F92AF92BF92EF
:104ED000CF92DF92EF92FF920F931F93CF93DF93C6
:104EE0006C01EB01209709F4B6C0CB010A960E9431
:104EF0000A27882ECE0108960E940A27782ECE0116
:104F000006960E940A27982ECE0104960E940A2730
:104F1000182FCE0102960E940A27082FCE010E9468
:104F20000A270E94FE26E82EF12C570180E3A81ADA
:104F300088EFB80A802F0E94FE26D82F812F0E946A
:104F4000FE26682ED23068F000E010E0C1E06C2F41
:104F5000C5010E943E01080F111DCF5FDC13F7CF82
:104F600002C000E010E0862D660C990B0197080F37
:104F7000191F882D0E94FE26882E872D0E94FE264E
:104F8000C82F892D0E94FE26082C000C99089CE34E
:104F9000C902800C911C1124092C000CAA08BB0822
:104FA000A82F880FBB0B20E13EE00E94842C860EC8
:104FB000971EA81EB91ED80120E831E541E050E057
:104FC0000E94962C860E971EA81EB91ED7015E96CB
:104FD00020E833E341EE51E00E94962C860E971EA6
:104FE000A81EB91EC7014F96DC010AF41396B595A9
:104FF000A795B595A79520E831E541E050E00E94DE
:10500000962C860E971EA81EB91EC7018D599F4F5C
:1050100064E670E00E941A2CDB0120E83EEA4EEFC5
:105020005FEF0E94962C860E971EA81EB91EC70120
:1050300081579E4F60E971E00E941A2CDB0120E845
:1050400031E541E050E00E94962C680D791D8A1DE3
:105050009B1D30E009C00E94332731E061157105C6
:105060008105910509F030E0C114D10431F021E04F
:10507000311101C020E0F6012083DF91CF911F9113
:105080000F91FF90EF90DF90CF90BF90AF909F90E7
:105090008F907F906F900895CF93DF9300D0CDB71E
:1050A000DEB720E12A839C0136952795298380FF6E
:1050B00002C080E98A8322E0AE014F5F5F4F66E362
:1050C00084EA0E945E070F900F90DF91CF910895C0
:1050D000CF93DF931F92CDB7DEB781E0898321E0C4
:1050E000AE014F5F5F4F6EE084EA0E94C1078111FD
:1050F00007C08981807889838111F1CF80E003C066
:1051000089818823D9F30F90DF91CF910895CF93B0
:10511000DF931F92CDB7DEB7198221E0AE014F5F5A
:105120005F4F67E284EA0E945E070E94682882E17E
:10513000898321E0AE014F5F5F4F67E284EA0E94FE
:105140005E070E9468280F90DF91CF910895CF935A
:10515000DF9300D0CDB7DEB70E94872822E0AE01F2
:105160004F5F5F4F66E384EA0E94C107898190E048
:10517000880F991F2A8122230CF401960F900F901B
:10518000DF91CF910895CF93DF9300D0CDB7DEB7F5
:1051900019821A820E948728898181110CC021E01E
:1051A000AE014F5F5F4F6EE084EA0E94C1078981C4
:1051B0008F76898302C080E889831A8221E0AE015C
:1051C0004E5F5F4F6EE084EA0E945E0789810F9018
:1051D0000F90DF91CF9108955058BB27AA270E94C6
:1051E00004290C94AE2A0E94752A38F00E947C2A69
:1051F00020F039F49F3F19F426F40C94722A0EF42F
:10520000E095E7FB0C946C2AE92F0E94D32A58F30F
:10521000BA17620773078407950720F079F4A6F59B
:105220000C94F52A0EF4E0950B2EBA2FA02D0B014D
:10523000B90190010C01CA01A0011124FF27591BDB
:1052400099F0593F50F4503E68F11A16F040A22FE1
:10525000232F342F4427585FF3CF46953795279552
:10526000A795F0405395C9F77EF41F16BA0B620B51
:10527000730B840BBAF09150A1F0FF0FBB1F661F98
:10528000771F881FC2F70EC0BA0F621F731F841FDB
:1052900048F4879577956795B795F7959E3F08F001
:1052A000B0CF9395880F08F09927EE0F97958795C3
:1052B00008950E94482A08F481E008950E94852AF2
:1052C000E3950C94BF2A0E9477290C94AE2A0E9481
:1052D0007C2A58F00E94752A40F029F45F3F29F09B
:1052E0000C946C2A51110C94F62A0C94722A0E9488
:1052F000D32A68F39923B1F3552391F3951B550BEA
:10530000BB27AA2762177307840738F09F5F5F4F98
:10531000220F331F441FAA1FA9F335D00E2E3AF0D7
:10532000E0E832D091505040E695001CCAF72BD0EF
:10533000FE2F29D0660F771F881FBB1F2617370740
:105340004807AB07B0E809F0BB0B802DBF01FF2772
:1053500093585F4F3AF09E3F510578F00C946C2AB9
:105360000C94F62A5F3FE4F3983ED4F38695779544
:105370006795B795F7959F5FC9F7880F911D96952B
:10538000879597F90895E1E0660F771F881FBB1F87
:10539000621773078407BA0720F0621B730B840B34
:1053A000BA0BEE1F88F7E09508950E94DC296894F7
:1053B000B1110C94F62A08950E94DB2A88F09F57B9
:1053C00098F0B92F9927B751B0F0E1F0660F771F29
:1053D000881F991F1AF0BA95C9F714C0B13091F01F
:1053E0000E94F52AB1E008950C94F52A672F782FD2
:1053F0008827B85F39F0B93FCCF3869577956795E4
:10540000B395D9F73EF490958095709561957F4F4F
:105410008F4F9F4F0895E89409C097FB3EF49095F5
:105420008095709561957F4F8F4F9F4F9923A9F07D
:10543000F92F96E9BB279395F6958795779567950C
:10544000B795F111F8CFFAF4BB0F11F460FF1BC050
:105450006F5F7F4F8F4F9F4F16C0882311F096E9E3
:1054600011C0772321F09EE8872F762F05C0662391
:1054700071F096E8862F70E060E02AF09A95660F4A
:10548000771F881FDAF7880F9695879597F9089503
:10549000990F0008550FAA0BE0E8FEEF1616170645
:1054A000E807F907C0F012161306E407F50798F0AD
:1054B000621B730B840B950B39F40A2661F0232BC6
:1054C000242B252B21F408950A2609F4A140A69542
:1054D0008FEF811D811D089597F99F6780E870E027
:1054E00060E008959FEF80EC089500240A9416165A
:1054F000170618060906089500240A9412161306C2
:105500001406050608950C94722A0E94DB2AD8F32B
:10551000E894E0E0BB279F57F0F02AED3FE049EC2C
:1055200006C0EE0FBB0F661F771F881F28F0B23A28
:1055300062077307840728F0B25A620B730B840B5F
:10554000E3959A9572F7803830F49A95BB0F661FF1
:10555000771F881FD2F790480C94AF2B092E039425
:10556000000C11F4882352F0BB0F40F4BF2B11F450
:1055700060FF04C06F5F7F4F8F4F9F4F0895EF9381
:10558000E0FF07C0A2EA2AED3FE049EC5FEB0E9492
:1055900004290E94AE2A0F90039401FC9058E6E083
:1055A000F2E00C94BB2B57FD9058440F551F59F057
:1055B0005F3F71F04795880F97FB991F61F09F3F00
:1055C00079F087950895121613061406551FF2CF29
:1055D0004695F1DF08C0161617061806991FF1CF79
:1055E00086957105610508940895E894BB276627A0
:1055F0007727CB0197F908950E94482A08F48FEF86
:1056000008950E94142B0C94AE2A0E94752A38F03B
:105610000E947C2A20F0952311F00C946C2A0C94A3
:10562000722A11240C94F62A0E94D32A70F3959FB3
:10563000C1F3950F50E0551F629FF001729FBB2789
:10564000F00DB11D639FAA27F00DB11DAA1F649F25
:105650006627B00DA11D661F829F2227B00DA11DD8
:10566000621F739FB00DA11D621F839FA00D611D5E
:10567000221F749F3327A00D611D231F849F600D7F
:10568000211D822F762F6A2F11249F5750409AF0A8
:10569000F1F088234AF0EE0FFF1FBB1F661F771F34
:1056A000881F91505040A9F79E3F510580F00C94FF
:1056B0006C2A0C94F62A5F3FE4F3983ED4F3869567
:1056C00077956795B795F795E7959F5FC1F7FE2B9F
:1056D000880F911D9695879597F908950E94DB2A6A
:1056E000E8F09E37E8F09639B8F49E3848F4672F12
:1056F000782F8827985FF9CF86957795679593954A
:105700009539D0F3B62FB1706B0F711D811D20F448
:1057100087957795679593950C94922B0C94AD2B68
:105720000C94F62A882371F4772321F09850872B64
:10573000762F07C0662311F499270DC09051862B50
:1057400070E060E02AF09A95660F771F881FDAF7FD
:10575000880F9695879597F908959F3F31F091505E
:1057600020F4879577956795B795880F911D969545
:10577000879597F908959F938F937F936F93FF93E6
:10578000EF939B01AC010E94012BEF91FF910E94CE
:10579000CF2B2F913F914F915F910C94012BDF9371
:1057A000CF931F930F93FF92EF92DF927B018C01B7
:1057B000689406C0DA2EEF010E94142BFE01E894D3
:1057C000A5912591359145915591A6F3EF010E9440
:1057D0000429FE019701A801DA9469F7DF90EF90A0
:1057E000FF900F911F91CF91DF910895DB018F936F
:1057F0009F930E948B2CBF91AF91A29F800D911D12
:10580000A39F900DB29F900D11240895AA1BBB1B5E
:1058100051E107C0AA1FBB1FA617B70710F0A61BB0
:10582000B70B881F991F5A95A9F780959095BC01D1
:10583000CD01089597FB072E16F4009407D077FD4D
:1058400009D00E94062C07FC05D03EF49095819566
:105850009F4F0895709561957F4F0895A1E21A2E8C
:10586000AA1BBB1BFD010DC0AA1FBB1FEE1FFF1F04
:10587000A217B307E407F50720F0A21BB30BE40B54
:10588000F50B661F771F881F991F1A9469F760959B
:105890007095809590959B01AC01BD01CF01089555
:1058A000052E97FB1EF400940E94672C57FD07D02D
:1058B0000E942E2C07FC03D04EF40C94672C5095BC
:1058C0004095309521953F4F4F4F5F4F08959095EC
:1058D0008095709561957F4F8F4F9F4F0895EE0F84
:1058E000FF1F0590F491E02D0994A29FB001B39F92
:1058F000C001A39F700D811D1124911DB29F700DD9
:10590000811D1124911D08950E94752CB7FF0895E3
:10591000821B930B08950E94752CA59F900DB49F38
:10592000900DA49F800D911D11240895B7FF0C9434
:105930008B2C0E948B2C821B930B08950F931F932B
:10594000CF93DF938230910510F482E090E0E091F4
:10595000CE05F091CF0520E030E0A0E0B0E0309738
:1059600019F1408151810281138148175907C8F00C
:105970008417950769F4109731F012960C931297DB
:1059800013961C9327C00093CE051093CF0522C019
:105990002115310519F04217530718F49A01BD017A
:1059A000EF01DF01F801DBCF21153105F9F0281BEC
:1059B000390B2430310580F48A819B816115710592
:1059C00021F0FB019383828304C09093CF058093E1
:1059D000CE05FE01329644C0FE01E20FF31F819313
:1059E000919322503109398328833AC02091CC0504
:1059F0003091CD05232B41F4209102013091030118
:105A00003093CD052093CC05209100013091010108
:105A10002115310541F42DB73EB740910401509155
:105A20000501241B350BE091CC05F091CD05E21763
:105A3000F307A0F42E1B3F0B2817390778F0AC01B1
:105A40004E5F5F4F2417350748F04E0F5F1F50938E
:105A5000CD054093CC058193919302C0E0E0F0E046
:105A6000CF01DF91CF911F910F910895CF93DF93D5
:105A7000009709F481C0FC01329713821282A09131
:105A8000CE05B091CF05109781F420813181820F2E
:105A9000931F2091CC053091CD052817390751F57A
:105AA000F093CD05E093CC0567C0ED0120E030E038
:105AB000CE17DF0740F44A815B819E0141155105F5
:105AC000F1F0EA01F5CFD383C28340815181840F85
:105AD000951FC817D90759F488819981840F951F9C
