:100000000C942E010C948A110C9456010C945601F8
:100010000C94B4190C9456010C94030D0C945601D5
:100020000C947C0F0C9456010C9456010C940B16F6
:100030000C9456010C9456010C94D2150C94560154
:100040000C9456010C9456010C94930D0C942F0FA4
:100050000C9456010C94630D0C9456010C945601AB
:100060000C9456010C94560183018E019901A40150
:10007000AF01BA01C501D001DB01E601F10148027F
:100080004802FC01070212021D02280233023E024E
:10009000530257025B025F02630267026B02700247
:1000A00074028D028D0278027C028102850289022F
:1000B0009E02A402AA02B002B602BC02C202C80298
:1000C000CE02D402DA02FD02FD02E002E602EC02F8
:1000D000F202F8026005BF05BF057D05A4055D05B8
:1000E000A705AD055A05B70557059E05A105B0053D
:1000F0000806DA050B06DD05E005E305E605E9057A
:10010000EC05EF05F205FE16FE16FE16FE16FE16AF
:100110007E177E171C171C171C171C171C173E1761
:100120003E173E173E173E177E175E17C823CA2399
:100130001F246024672471247A24862402256D25D7
:10014000F3253A265227AE2581260B27A226CC2658
:10015000C624DB262724C823CA23F8235427672470
:1001600071247A24862402256D25F3253A26542706
:10017000AE2581260B27A226CC26C624DB262724E3
:10018000672C2B2C572C6F2C5B2C6F2C3B2C272C8B
:10019000332C372C6F2C4B2C1F2C4F2C1B2C2F2C23
:1001A000F32BF72BFB2BFF2B032C072C0B2C0F2CEB
:1001B000132C172C3F2C432C6B2C472C6F2C232CEF
:1001C0005F2C732C8F2B932B972B9B2B9F2BA32B6D
:1001D000A72BAB2BAF2BB32BB72BBB2BBF2BC32B1F
:1001E000C72BCB2BCF2BD32BD72BDB2BDF2BE32B0F
:1001F000E72BEB2BEF2B6F2C6F2C6F2C6F2C532CD2
:100200006F2C6F2C6F2C6F2C6F2C6F2C6F2C6F2C16
:100210006F2C6F2C6F2C6F2C6F2C6F2C6F2C6F2C06
:100220006F2C6F2C6F2C6F2C6F2C6F2C6F2C6F2CF6
:100230006F2C6F2C6F2C6F2C632C05A84CCDB2D477
:100240004EB93836A9020C50B9918688083CA6AA46
:10025000AA2ABE000000803F632B782B11241FBE0A
:10026000CFEFD8E0DEBFCDBF12E0A0E0B1E0E6E620
:10027000FCE602C005900D92A63DB107D9F725E036
:10028000A6EDB2E001C01D92AD37B207E1F711E073
:10029000CDE2D1E004C02197FE010E94FE30CC32B5
:1002A000D107C9F70E947F2A0C9426360C940000CF
:1002B000623021F40E946501845E0895683008F080
:1002C0006F5F61708EE1860F08959C012370332764
:1002D000232B59F464E670E00E94A930892B39F48D
:1002E0006370772781E0672B19F080E0089581E043
:1002F000089590E08431910508F0CAC0FC01EC5CDF
:10030000FF4F0C94FE30613011F4509A08955098CC
:10031000633011F4589A089558980895613011F493
:10032000519A08955198633011F4599A0895599843
:100330000895613011F4529A08955298633011F47F
:100340005A9A08955A980895613011F4539A08956D
:100350005398633011F45B9A08955B980895613067
:1003600011F4549A08955498633011F45C9A0895E6
:100370005C980895613011F4559A0895559863304A
:1003800011F45D9A08955D980895613011F4569ABC
:1003900008955698633011F45E9A08955E98089512
:1003A000613011F4579A08955798633011F45F9AA9
:1003B00008955F980895613011F4209A0895209867
:1003C000633011F4289A089528980895613011F443
:1003D000219A08952198633011F4299A0895299853
:1003E0000895613011F4229A08952298633011F42F
:1003F0002A9A08952A980895613011F4259A08954B
:100400002598633011F45D9A08955D9808956130E0
:1004100011F4389A08953898633011F4409A089589
:1004200040980895613011F4399A089539986330ED
:1004300011F4419A089541980895613011F43A9A5F
:1004400008953A98633011F4429A089542980895B5
:10045000613011F43B9A08953B98633011F4439A4C
:10046000089543980895613011F43C9A08953C989A
:10047000633011F4449A089544980895613011F45A
:100480003D9A08953D98633011F4459A0895459832
:10049000089590E0FC013297E031F105F0F5E85B5A
:1004A000FF4F0C94FE3029B1247030E038C029B1E0
:1004B000287030E034C029B1207130E030C029B15B
:1004C000207230E02CC029B1207430E028C029B15E
:1004D000207830E024C083B1282F217030E01FC085
:1004E00023B1227030E01BC023B1247030E017C06C
:1004F00023B1207230E013C086B1282F217030E084
:100500000EC026B1227030E00AC026B1247030E05F
:1005100006C026B1287030E002C020E030E081E063
:10052000232B09F480E0089590E08231910508F0D2
:1005300064C0FC01E85AFF4F0C94FE30662311F0B2
:10054000589A089558980895662311F0599A089575
:1005500059980895662311F05A9A08955A98089563
:10056000662311F05B9A08955B980895662311F055
:100570005C9A08955C980895662311F05D9A089539
:100580005D980895662311F05E9A08955E98089527
:10059000662311F05F9A08955F980895662311F01D
:1005A000289A089528980895662311F0299A0895A5
:1005B00029980895662311F02A9A08952A98089593
:1005C000662311F02D9A08952D980895662311F051
:1005D000409A089540980895662311F0419A08952D
:1005E00041980895662311F0429A0895429808951B
:1005F000662311F0439A089543980895982F96958D
:10060000969596959E71292F220F220F920F8F702B
:10061000890F0895FC01208181818053F0E12F9F93
:10062000800D11240895CF92DF92EF92FF92CF9325
:10063000DF93EC01EE81FF818981C8800C2C000CD6
:10064000DD089CE38902C00CD11C11240D2C000C88
:10065000EE08FF08AA810A2E000CBB0B20E13EE049
:100660000E941331C60ED71EE81EF91EA885B98553
:1006700020E831E541E050E00E942531C60ED71E4A
:10068000E81EF91EDF01A654B10920E833E341EE6C
:1006900051E00E942531C60ED71EE81EF91ECF017B
:1006A00085549109DC010AF41396B595A795B59583
:1006B000A79520E831E541E050E00E942531C60EC3
:1006C000D71EE81EF91ECF01019764E670E00E9474
:1006D000A930DB0120E83EEA4EEF5FEF0E942531B2
:1006E000C60ED71EE81EF91ECF01855D9E4F60E93C
:1006F00071E00E94A930DB0120E831E541E050E0E3
:100700000E9425316C0D7D1D8E1D9F1DDF91CF91A7
:10071000FF90EF90DF90CF900895DF92EF92FF92DD
:100720000F931F93CF93DF93CDB7DEB763970FB6C9
:10073000F894DEBF0FBECDBFAE014F5F5F4F87E0C5
:10074000DA011D928A95E9F727E060E080ED0E94CA
:10075000A00A811176C0FE0138968CE0DF011D925F
:100760008A95E9F72B81422F50E0CA01959587952C
:1007700095958795959587959595879581702F7017
:10078000BA01062E672F000C661F770B000C661F40
:10079000771F60FD0CC05595479555954795559524
:1007A0004795559547955595479540FD82E0880FAB
:1007B000D82EDD0CDD0C8D0DD82ED20E8F810E942F
:1007C000FE02E82EF12CC7018C599F4F9F878E8720
:1007D000B0E3EB1AB8EFFB0A8E810E94FE02082FED
:1007E0008FEF800F8D878D810E94FE028B870230F4
:1007F00070F011E0612FC7010E94580128893989E2
:10080000280F311D398B288B1F5F0113F3CF8B8588
:10081000082E000C990B019728893989820F931FA4
:10082000998B888B89810E94FE02182F8A810E94F1
:10083000FE02DA8689871887CE0108960E94130384
:1008400003C060E070E0CB0163960FB6F894DEBFA2
:100850000FBECDBFDF91CF911F910F91FF90EF9011
:10086000DF9008957F928F929F92AF92BF92CF9226
:10087000DF92EF92FF920F931F93CF93DF93CDB749
:10088000DEB72C970FB6F894DEBF0FBECDBF6C015C
:100890008B01FE0131968CE0DF011D928A95E9F70C
:1008A0006115710509F464C0CB010A960E940A0320
:1008B000A82EC80108960E940A03B82EC801069601
:1008C0000E940A03F82EC80104960E940A03882E8B
:1008D000C80102960E940A03782EC8010E940A03EA
:1008E000182F8F2D0E94FE02982E812F0E94FE024B
:1008F000E82EF12CC7018C599F4F98878F83B0E366
:10090000EB1AB8EFFB0A872D0E94FE02082F8FEF2B
:10091000800F8E83882D0E94FE028C83023070F03F
:1009200011E0612FC7010E94580129853A85280FDF
:10093000311D3A8729871F5F0113F3CF8C81082E61
:10094000000C990B019729853A85820F931F9A878E
:1009500089878A2D0E94FE02182F8B2D0E94FE028D
:100960009B828A831983CE0101960E94130302C0E1
:100970000E948D03C114D10449F021E06115710575
:100980008105910509F020E0F60120832C960FB631
:10099000F894DEBF0FBECDBFDF91CF911F910F91B5
:1009A000FF90EF90DF90CF90BF90AF909F908F908F
:1009B0007F9008950F931F93CF93DF93CDB7DEB74A
:1009C00027970FB6F894DEBF0FBECDBFFE0131965C
:1009D00027E0DF011D922A95E9F7009731F18C019C
:1009E0000A960E940A038983C80108960E940A0396
:1009F0008A83C80106960E940A038B83C801049665
:100A00000E940A038D83C80102960E940A038E8306
:100A1000C8010E940A038F8327E0AE014F5F5F4F3A
:100A200060E080ED0E943D0A01C081E027960FB68C
:100A3000F894DEBF0FBECDBFDF91CF911F910F9114
:100A40000895CF93DF931F92CDB7DEB7882351F07F
:100A5000198221E0AE014F5F5F4F6EE080ED0E9492
:100A60003D0A0AC084E0898321E0AE014F5F5F4FF9
:100A70006EE080ED0E943D0A0F90DF91CF910895C6
:100A8000089508950F931F93CF93DF934115510558
:100A900009F475C0862F90E0FC013B97EE30F1051C
:100AA00008F06DC0DA01E659FF4F0C94FE3087E282
:100AB00093E05FC081E293E055C08DE193E049C0CF
:100AC0008A010F5F1F4F6C91662371F0C0E0D0E088
:100AD0002196CE018B599D4F0E94A035F80161915E
:100AE0008F016111F5CF02C0C0E0D0E060E0CE011F
:100AF0008A599D4F0E94A03542C08A010F5F1F4F47
:100B00006C91662391F0C0E0D0E003C0C830D105FD
:100B100071F02196CE018E5E9C4F0E94A035F801A7
:100B200061918F016111F2CF02C0C0E0D0E060E0BE
:100B3000CE018D5E9C4F0E94A03521C08BE293E0D8
:100B400008C08CE293E005C08CE193E002C08EE126
:100B500093E06C910E94A03512C08FE193E002C037
:100B60008DE293E06D917C910E94BE3508C083E2D6
:100B700093E04D915D916D917C910E94B235DF9132
:100B8000CF911F910F910895EF92FF920F931F93B2
:100B9000CF93C62F0E94FD0C882309F446C08C2FEA
:100BA00090E08B30910508F040C0FC01E858FF4F01
:100BB0000C94FE308CE290E030C08AE891E02DC0C9
:100BC00080EB91E02AC087ED91E027C088EF91E0AB
:100BD00024C083E192E021C089E292E01EC08EE34E
:100BE00092E01BC082E592E018C08701CC23E9F0B7
:100BF0008C2F0E94BB0C78018FEFE81AF80AC8010D
:100C00000E948C35C82F0E94EB0B8111FCCFEDCFD9
:100C100080E090E002C082E691E08C010F5F1F4F00
:100C20000E948C35C82F8111E3CFCF911F910F9176
:100C3000FF90EF900895EF92FF920F931F93CF9341
:100C4000DF938DE293E00E949A358B3B910509F08A
:100C5000B6C08CE193E00E948C3590E08530910520
:100C600014F485E090E08531910514F084E190E082
:100C700080930F018DE193E00E948C35823108F062
:100C800081E1809363058EE193E00E948C3580932F
:100C90004D058FE193E00E949A3590930D0180936A
:100CA0000C0181E293E00E949A359093DB048093DB
:100CB000DA0483E293E00E949435609355057093C3
:100CC0005605809357059093580587E293E00E945C
:100CD000943560935105709352058093530590931A
:100CE00054058BE293E00E948C35809350058CE292
:100CF00093E00E948C3580934F0506E612E0C5EF25
:100D0000D4E00F2EF9E0EF2EF5E0FF2EF02DC80114
:100D10000E948C35899381110BC003E113E0C2E17D
:100D2000D5E00F2EFAE1EF2EF5E0FF2EF02D06C0F4
:100D30000F5F1F4FCE15DF0551F7EFCFC8010E949F
:100D40008C358993882329F00F5F1F4FCE15DF055F
:100D5000A9F703EF12E0CCE2D5E00F2EFCE4EF2E72
:100D6000F5E0FF2EF02DC8010E948C3589930F5FAE
:100D70001F4FCE15DF05B9F78091550590915605A7
:100D8000A0915705B0915805892B8A2B8B2BC9F060
:100D90004091510550915205609153057091540551
:100DA0008091550590915605A0915705B091580531
:100DB00084179507A607B70730F480E019C081E0D3
:100DC00017C080E015C08091550590915605A091FF
:100DD0005705B091580580589E4AAE4FBF4F80933B
:100DE000510590935205A0935305B093540580E0AC
:100DF000DF91CF911F910F91FF90EF900895EF92A7
:100E0000FF920F931F93CF93DF930CE111E0C2E1A8
:100E1000D5E00F2EF6E1EF2EF5E0FF2EF02DF801D4
:100E200061918F016883CE010E94C4352196CE1551
:100E3000DF05A9F760E087E193E00E94C4351092D6
:100E400016051092F50460E086E692E00E94C43533
:100E500010924D0560914D058EE193E00E94C435DE
:100E6000109255051092560510925705109258058C
:100E70004091550550915605609157057091580560
:100E800083E293E00E94D2351092510510925205F0
:100E900010925305109254054091510550915205FE
:100EA000609153057091540587E293E00E94D2351A
:100EB000DF91CF911F910F91FF90EF900895CF9305
:100EC000DF93EC010E94B20C60E0CE010E94C405E9
:100ED00061E0CE010E94C4050E94B20C0E94B20CD7
:100EE000DF91CF9108959C012E5F3F4F2B3381E01E
:100EF000380710F02BE331E0ADECBCEC0E9404317C
:100F000096958795969587959C01220F331F220F02
:100F1000331F280F391F0E940431969587959695A7
:100F2000879585B90895CF93C82F61E088E00E9426
:100F3000790161E089E00E94790161E08AE00E9424
:100F4000790161E08BE00E94790161E08CE00E9410
:100F5000790161E08DE00E94790161E087E00E9403
:100F6000790161E087E00E949402C11101C015B8C7
:100F7000CF910895EF92FF920F931F93CF93DF933A
:100F8000E42EF52ED62FC72F0093EF021093F00218
:100F90002093F1023093F20220E030E041E553E487
:100FA0006E2D7F2D8D2F9C2F0E94CA2F18166CF04E
:100FB00020E030E048EC52E46E2D7F2D8D2F9C2FE9
:100FC0000E94272E882334F009C0E12CF12CD1E5B2
:100FD000C3E404C0E12CF12CD8ECC2E46E2D7F2DCB
:100FE0008D2F9C2F0E94A32E7093EA026093E9023A
:100FF0008091E9029091EA02880F991F0E942D3199
:101000009093D7028093D602DF91CF911F910F91D9
:10101000FF90EF9008958091D6029091D7020E94A0
:10102000C53108951092DD021092DE021092DF02A7
:101030001092E0021092E1021092E2021092E3029A
:101040001092E4021092DA0208958F929F92AF926A
:10105000BF92CF92DF92EF92FF92CF93DF93EC019A
:101060004A015B016091E9027091EA02072E000CCF
:10107000880B990B0E94DB2E6B017C018092EB02A6
:101080009092EC02A092ED02B092EE02A5019401C2
:101090000E94CF2F2091EF023091F0024091F10297
:1010A0005091F2020E94312E20E030E040E05FE3F8
:1010B0000E94BB2D0E94A32E072E000C880B990BBB
:1010C0000E94DB2E2BED3FE049EC50E40E94CF2F35
:1010D000A70196010E94312E0E942C2E9B01AC018B
:1010E0000E94BB2D6093E5027093E6028093E702B5
:1010F0009093E802CE010E941208DF91CF91FF90F9
:10110000EF90DF90CF90BF90AF909F908F90089519
:101110008F929F92AF92BF92CF92DF92EF92FF9207
:10112000CF93DF93EB01C090E102D090E202E09018
:10113000E302F090E4022091E5023091E602409152
:10114000E7025091E802C701B6010E94CF2F20911B
:10115000DD023091DE024091DF025091E0020E94F8
:10116000BA2D4B015C01BE017250072E000C880B9A
:10117000990B0E94DB2E9B01AC01C501B4010E94BA
:10118000BB2DC73ED10554F02091D8023091D90231
:101190002F5F3F4F3093D9022093D802C092DD02D7
:1011A000D092DE02E092DF02F092E0026093E10270
:1011B0007093E2028093E3029093E402DF91CF9177
:1011C000FF90EF90DF90CF90BF90AF909F908F9067
:1011D00008958091DA02882319F08091DA02089547
:1011E000E091DB02F091DC02EE0FFF1F8091D6024E
:1011F0009091D702E80FF91F718360838091DB0221
:101200009091DC0201969093DC028093DB022091A6
:10121000DB023091DC028091E9029091EA0228170A
:1012200039073CF01092DC021092DB0281E08093DF
:10123000DA028091DA0208958091DA0208954F92DD
:101240005F926F927F928F929F92AF92BF92EF9236
:10125000FF920F931F93CF93DF9300D000D0CDB7B1
:10126000DEB77C018B011092D9021092D8028091D6
:10127000E9029091EA0218161906F4F41A8219820A
:1012800089819A81880F991FE091D602F091D70247
:10129000E80FF91F60817181C7010E9488082981C8
:1012A0003A812F5F3F4F3A8329838091E9029091E1
:1012B000EA022817390724F30115110539F0809146
:1012C000D8029091D902F801918380834090E10285
:1012D0005090E2026090E3027090E4028090DD02A0
:1012E0009090DE02A090DF02B090E002A301920194
:1012F000C301B2010E94CF2F69837A838B839C83C1
:10130000A5019401C501B4010E94CF2F9B01AC013E
:1013100069817A818B819C810E94BB2D69837A834C
:101320008B839C832091E5023091E6024091E70295
:101330005091E802C301B2010E94CF2FA501940190
:101340000E94CF2F9B01AC0169817A818B819C81A6
:101350000E94BA2D4B015C01C7010E941208C50111
:10136000B4010F900F900F900F90DF91CF911F91CC
:101370000F91FF90EF90BF90AF909F908F907F90D4
:101380006F905F904F900895E4E6F0E080818F7752
:1013900080831092B90085E28093B80084E0809346
:1013A000BC0081E080930601089584EA8093BC002C
:1013B000ECEBF0E08081882364F0809106018111DC
:1013C000F9CF07C080E98093BC0081E080930601DB
:1013D0000895809106018823A9F380E0089584E9A7
:1013E0008093BC0008958093BB0084E88093BC0088
:1013F000ECEBF0E08081882364F08091060181119C
:10140000F9CF07C084E98093BC0081E08093060196
:1014100008958091B900887F8613F4CF80E0089505
:1014200084EC8093BC00ECEBF0E08081882324F016
:10143000809106018111F9CF8091BB00089584E865
:101440008093BC00ECEBF0E08081882324F0809155
:1014500006018111F9CF8091BB0008952091B90058
:10146000287F30E090E02817390729F084E980933D
:10147000BC0081E0089580E00895CF93DF9300D011
:1014800000D000D0CDB7DEB78A836B835D834C83F9
:101490002E8319820E94D50988E00E942E0A982F77
:1014A00081E0992309F480E0882311F081E03FC0B6
:1014B00068E18A810E94F309982F81E0992309F459
:1014C00080E0882311F081E032C068E28B810E94C5
:1014D000F309982F81E0992309F480E0882311F023
:1014E00081E025C08E819FEF980F9E8391E0882335
:1014F00009F490E09923C1F0898191E0980F9983D4
:10150000882F90E02C813D81820F931FFC01808108
:1015100068E20E94F309982F81E0992309F480E0A2
:10152000882301F381E003C00E94EF0980E0269642
:101530000FB6F894DEBF0FBECDBFDF91CF910895F7
:101540000F931F93CF93DF9300D000D000D0CDB77F
:10155000DEB78A836B835D834C832E8319820E945E
:10156000D50988E00E942E0A982F81E0992309F47A
:1015700080E0882311F081E079C068E18A810E94CF
:10158000F309982F81E0992309F480E0882311F072
:1015900081E06CC068E28B810E94F309982F81E0A2
:1015A000992309F480E0882311F081E05FC00E9454
:1015B000D50980E10E942E0A982F81E0992309F431
:1015C00080E0882311F081E051C08A81816060E46D
:1015D0000E94F309982F81E0992309F480E0882381
:1015E00011F081E043C08E819FEF980F9E8391E0C0
:1015F000882309F490E09923B1F18E818823D9F0F2
:10160000898191E0980F9983882F90E02C813D810A
:101610008901080F191F0E94100AF801808380E5D4
:101620000E942E0A982F81E0992309F480E08823F4
:10163000D1F281E01BC08981882F90E02C813D810F
:101640008901080F191F0E941F0AF801808388E58D
:101650000E942E0A982F81E0992309F480E08823C4
:1016600011F281E003C00E94EF0980E026960FB6D8
:10167000F894DEBF0FBECDBFDF91CF911F910F91C8
:1016800008958091F60293E059E2282F30E0529FAE
:10169000F001539FF00D1124EB58FC4F4081411194
:1016A0000CC0915029F08F5F833078F380E0EDCF4C
:1016B0008093F60280E090E008958093F60249E27C
:1016C000429FC001439F900D11248B589C4F089559
:1016D0008091F50293E059E2282F30E0529FF0010B
:1016E000539FF00D1124EB58FC4F4081442361F0CF
:1016F000915029F08F5F833078F380E0EDCF8093B5
:10170000F50280E090E008958093F50249E2429F5F
:10171000C001439F900D11248B589C4F08958091D8
:10172000F402282F30E09FE3899FF0011124E95053
:10173000FD4F41815281452BA9F08F5F823008F027
:1017400080E0282F30E09FE3899FF0011124E950C9
:10175000FD4F41815281452B29F08093F40280E0B6
:1017600090E008958093F4024FE3429FC001439FAD
:10177000900D112489509D4F08958091F302282FD8
:1017800030E09FE3899FF0011124E950FD4F418132
:101790005281452BA9F48F5F823008F080E0282F1A
:1017A00030E09FE3899FF0011124E950FD4F418112
:1017B0005281452B29F48093F30280E090E0089554
:1017C0008093F3024FE3429FC001439F900D112489
:1017D00089509D4F08958091F00308959091F003F2
:1017E00081E0911180E0911108C091E09093F003A5
:1017F000E1ECF0E090819062908308958091F00395
:10180000882339F0E1ECF0E080818F7D80831092B5
:10181000F00308950F931F938B019C018EE7E7EF70
:10182000F2E0DF011D928A95E9F7E5E7F3E0108227
:1018300011A61092C703D901C80180589B47A14E39
:10184000BF4F880F991FAA1FBB1F880F991FAA1F80
:10185000BB1FBC01CD01660F771F881F991F000FAA
:10186000111F221F331F000F111F221F331FA90139
:101870009801220F331F441F551F220F331F441F8F
:10188000551F0E94BD30215031093093C50020936F
:10189000C40088E98093C1008EE08093C20010925A
:1018A00007011F910F91089581E080930701109225
:1018B000C1000E94FE0B8EE7E7EFF2E0DF011D9210
:1018C0008A95E9F7E5E7F3E0108211A61092C703C5
:1018D00008950F931F93CF93DF9320910701211158
:1018E00014C00097A1F08C010E94680B0097B9F416
:1018F000C8ECD0E002C0209761F09091F0039923EA
:1019000051F02097D1F02197F8CF81E01BC081E002
:1019100019C081E017C00E94680B009761F31F9304
:101920000F939F938F930E94D9320E94EE0B0F90DA
:101930000F900F900F9080E005C00E94680B0097F9
:1019400071F781E0DF91CF911F910F910895809100
:101950000701811106C081E291E00E94690C8111AA
:10196000FACF089580910701811104C084E291E0CB
:101970000E94690C089590910701911107C0E1EF51
:10198000F3E080831182CF010E94690C0895CF9308
:1019900020910701211128C0009741F1FC0120810D
:1019A000222331F101900020E9F73197E81BF90B70
:1019B000BA9700F5C62FBC0149E250E081EF93E0F1
:1019C0000E94AD32CC2359F081EF93E00E94690C64
:1019D0008111FACF8091F0038111FCCF0CC081EF0F
:1019E00093E00E94690C07C081E005C081E003C05C
:1019F00081E001C081E0CF9108959091070181E0DD
:101A0000911180E008951F920F920FB60F9211244A
:101A10008F93EF93FF931092060180910A05811135
:101A200005C080910B01811109C00EC080910B018E
:101A3000882351F0815080930B0106C0E0E6F0E06E
:101A4000808180648083F2CFFF91EF918F910F901E
:101A50000FBE0F901F901895A89504B603FE03C003
:101A600094B7987094BF833061F484B7877F84BF44
:101A7000E0E6F0E0808188618083108210920A05A0
:101A80000895813041F4E0E6F0E090819861908320
:101A900098E6908311C0811108C0E0E6F0E09081E3
:101AA0009861908396E4908307C0E0E6F0E090812F
:101AB0009861908398E4908391E0811101C090E057
:101AC00090930A0508951F920F920FB60F9211245A
:101AD0002F933F934F935F936F937F938F939F9336
:101AE000AF93BF93EF93FF936091790070E08EEC1A
:101AF00094E00E94E908882329F0EAE7F0E0808179
:101B0000877F8083FF91EF91BF91AF919F918F91DC
:101B10007F916F915F914F913F912F910F900FBEE9
:101B20000F901F9018951F920F920FB60F921124CD
:101B30001F932F933F934F935F936F937F938F9355
:101B40009F93AF93BF93CF93DF93EF93FF93109146
:101B5000C600C091A304D091A404209751F40E9420
:101B60008F0BEC019093A4048093A304892B09F4B8
:101B700062C1812F90E00E9493329C018091A20467
:101B8000882321F081508093A20455C12B3121F488
:101B900082E08093A2044FC12D3009F03FC08091B4
:101BA0006104882331F1E091A104EE23F9F082E091
:101BB000888380915F04909160049A8389838091E7
:101BC0005E04882379F090E0019740915D0454E130
:101BD000589F9001599F300D1124C20FD31FC40F7D
:101BE000D11D1B82F0E0EE59FB4F10820E94B20C17
:101BF00004C08FEF9FE79A8389831092A10410920B
:101C00005D041092600410925F0410925E041092C2
:101C1000A4041092A304109261040DC1222309F4BC
:101C20000AC1E091A1044E2F50E0DA01AE59BB4F3A
:101C30002C93EE2309F4D6C02F3709F05FC0E15092
:101C4000E093A10480915E04811113C0F0E0EE598D
:101C5000FB4F408180915F0490916004841B910947
:101C60006AE070E00E94A9307093600460935F04A2
:101C700039C090915D04992391F04FEF490F409343
:101C80005D0490E0019754E1589FB001599F700D99
:101C90001124C60FD71FC40FD11D1B8223C0F0E033
:101CA000EE59FB4F90819032A1F4815080935E04F5
:101CB000DE0194E1899FA00DB11D11241396FD0151
:101CC00001900020E9F73197EA1BFB0BE0935D04DC
:101CD00009C094E1899FC00DD11D11241B82815040
:101CE00080935E048091A104E82FF0E0EE59FB4F51
:101CF0001082811193C01092610490C0203279F556
:101D0000FA01EF59FB4F8081803209F494C0809131
:101D10005E04682F70E0FB01319633970CF08BC0A6
:101D2000882379F06150710990915D04A4E1A69F28
:101D3000F001A79FF00D1124CE0FDF1FC90FD11D99
:101D40001B828F5F80935E0410925D044F5F5F4F34
:101D50004E3351050CF04EE34093A1045FC08091D7
:101D60005D04843108F067C040915E04411119C0E0
:101D700040915F0450916004BA01660F771F440FD1
:101D8000551F440F551F440F551F460F571F420F35
:101D9000511D5093600440935F048F5F80935D04F6
:101DA00016C050E04150510991E0980F90935D04A6
:101DB000E4E1E49FB001E59F700D1124C60FD71F29
:101DC000FE01E80FF11D2383C90FD11D1B828091F5
:101DD000A10490E001968E3391050CF08EE3809380
:101DE000A1041CC02F3741F480915F0490916004DE
:101DF00018161906BCF01BC02032E9F010925E04E0
:101E0000C90199279093600480935F041B821F8A05
:101E10001BA681E0809361048093A104822F0E941D
:101E2000BB0C09C01092600410925F04F7CF1092AF
:101E3000600410925F04FF91EF91DF91CF91BF9109
:101E4000AF919F918F917F916F915F914F913F9152
:101E50002F911F910F900FBE0F901F9018951F92FA
:101E60000F920FB60F9211242F933F934F935F93CE
:101E70006F937F938F939F93AF93BF93EF93FF9352
:101E800080915B0490915C04892B31F40E94410B9A
:101E900090935C0480935B04E0915B04F0915C049C
:101EA00080915A04DF01A80FB11D9C91992331F054
:101EB0008F5F80935A049093C6000DC010925A040D
:101EC00010820E94410B90935C0480935B04892BE9
:101ED00011F40E94FE0BFF91EF91BF91AF919F9182
:101EE0008F917F916F915F914F913F912F910F90C3
:101EF0000FBE0F901F9018951F920F920FB60F9262
:101F000011241F932F933F934F935F936F937F936E
:101F10008F939F93AF93BF93EF93FF93CF93DF93F1
:101F200000D0CDB7DEB78091D5049091D604A091B2
:101F3000D704B091D8040196A11DB11D8093D5049A
:101F40009093D604A093D704B093D80480915E05F3
:101F500090915F05892B49F080915E0590915F0516
:101F6000019790935F0580935E058091D1049091D5
:101F7000D204892B49F08091D1049091D204019729
:101F80009093D2048093D10480911B05882381F023
:101F90008091D3049091D40401969093D4048093BB
:101FA000D30484E995E09093D2048093D10404C0D3
:101FB0001092D4041092D3048091CF049091D00455
:101FC000892B49F08091CF049091D0040197909390
:101FD000D0048093CF0481E089831A8281E10E943A
:101FE0004902182F80910C05882309F46AC1112336
:101FF00009F459C166C161E080E10E9494021BC0EE
:102000008091640590916505A0916605B091670582
:102010000597A105B10579F486E090E0A0E0B0E075
:102020008093640590936505A0936605B09367055A
:1020300081E080930B0580910A01181328C08091DC
:102040001D0590911E058B3B90414CF480911D0520
:1020500090911E05019690931E0580931D05809119
:102060001D0590911E0580399105BCF0113009F4D1
:102070002BC182E080931C0511110FC080910C05CB
:1020800081110BC061E080E10E94940206C01093B0
:102090000A0110921E0510921D05809115018111F3
:1020A0001DC180916205882309F418C180915804EC
:1020B00090915904892B09F40BC110C161E084E0AF
:1020C0000E94940284E995E090935704809356040B
:1020D0000BC18091560490915704009731F00197FD
:1020E0009093570480935604FFC0809154049091BC
:1020F00055040097F1F1019790935504809354048F
:10210000892B09F0F1C0AE014E5F5F4FBE016F5FDA
:102110007F4F80E090E00E94772C80935304898168
:10212000811114C08A81882389F01092530481E0C0
:102130008093170180912005882341F01092620559
:1021400084E995E090935904809358046091530476
:1021500080E10E9494026091530486E00E94940200
:102160008091530480934E059FE297BD80931F0595
:10217000BBC080911C05823029F06091530480E13E
:102180000E9494026091530486E00E949402809120
:10219000530480934E059FE297BD80931F05809165
:1021A00060059091610590935504809354049CC000
:1021B0008091560490915704009739F484E690E09A
:1021C00090935704809356041CC001979093570432
:1021D00080935604892BA9F460E084E00E94940265
:1021E00010C08091580490915904009751F00197C4
:1021F0009093590480935804892B19F481E08093BB
:10220000620580915D058823A9F18091D1049091A8
:10221000D204892BE9F580915404909155040097DC
:1022200001F101979093550480935404892B81F513
:10223000AE014E5F5F4FBE016F5F7F4F80E090E069
:102240000E94772C80935304682F80E10E949402AF
:10225000809160059091610590935504809354049A
:1022600017C080916005909161059093550480930B
:1022700054040EC080915304882351F010925304EB
:1022800080911C05823021F060E080E10E94940280
:1022900060E086E00E94940210924E058FE287BDB6
:1022A00010921F0521C08091640590916505A09151
:1022B0006605B09167050597A105B1050CF0A0CEA4
:1022C0009ACE10920C05B7CE81E080931C05E5CE26
:1022D00084E00E9449028111FCCEF0CE84E00E948D
:1022E0004902811165CF7DCF0F900F90DF91CF9183
:1022F000FF91EF91BF91AF919F918F917F916F91DE
:102300005F914F913F912F911F910F900FBE0F90B2
:102310001F9018951F920F920FB60F9211248F9253
:102320009F92AF92BF92CF92DF92EF92FF920F9364
:102330001F932F933F934F935F936F937F938F934D
:102340009F93AF93BF93EF93FF93CF93DF931F922E
:10235000CDB7DEB78091590590915A05A0915B05E4
:10236000B0915C050196A11DB11D80935905909314
:102370005A05A0935B05B0935C058091640590912C
:102380006505A0916605B09167050196A11DB11D77
:102390008093640590936505A0936605B0936705E7
:1023A0008091DD04882329F08091DD0481508093A1
:1023B000DD048091100190911101892B49F08091E9
:1023C00010019091110101979093110180931001D8
:1023D0008091DC04882329F08091DC048150809373
:1023E000DC0480911501882391F180910D058823EB
:1023F00009F4BAC34091590550915A0560915B05A3
:1024000070915C058091550590915605A0915705F6
:10241000B0915805481759076A077B0708F4A4C309
:102420004091590550915A0560915B0570915C058A
:102430008091510590915205A0915305B09154059A
:10244000481759076A077B0708F402C38DC38091B8
:102450000D058823D1F04091590550915A0560919E
:102460005B0570915C058091510590915205A0919A
:102470005305B0915405481759076A077B0728F0A0
:1024800010920D0581E08093150180911501811155
:102490006BC360910F0170E085EF94E00E94832D83
:1024A0008C509E4F9C0136952795369527953695ED
:1024B0002795A5ECB0E20E9404318C01129502959B
:1024C0000F7001271F7001278091680590916905A1
:1024D000A0916A05B0916B05892B8A2B8B2B09F093
:1024E000EEC280912105882309F4DCC2E8C2809104
:1024F0006305209124053091250590E040912A053F
:1025000050912B05821B930B1816190614F081E0CD
:1025100090E0849F9001859F300D949F300D112491
:10252000C901801B910B092E000CAA0BBB0B8093D9
:102530004F0490935004A0935104B093520410920E
:102540004E0410924D0410E0FEC22091210521306E
:1025500031F580912A0590912B05409168055091A5
:10256000690560916A0570916B05092E000CAA0B34
:10257000BB0B840F951FA61FB71F012E000C220B4B
:10258000330B801B910BA20BB30B80934F049093E2
:102590005004A0935104B093520411E0D4C220918E
:1025A0002105233009F0E2C020916305A0912405A4
:1025B000B0912505E0911301F091140130E02A1B40
:1025C0003B0B2E173F0741F0209126053091270540
:1025D0002130310509F066C020912A0530912B0584
:1025E00060912A0570912B05CA010E94A930A901AA
:1025F000481B590BCA010417150714F540916805CB
:102600005091690560916A0570916B05092E000C67
:10261000AA0BBB0B840F951FA61FB71F012E000C22
:10262000220B330B801B910BA20BB30B80934F0437
:1026300090935004A0935104B093520411E083C2CC
:10264000401751070CF087C2C0906805D09069050B
:10265000E0906A05F0906B0540912805509129059E
:10266000092E000CAA0BBB0B8C0D9D1DAE1DBF1DB2
:10267000052E000C660B770B840F951FA61FB71F46
:10268000012E000C220B330B801B910BA20BB30B02
:1026900080934F0490935004A0935104B09352043C
:1026A00011E051C28090680590906905A0906A057C
:1026B000B0906B05E0916305E0902405F09025054E
:1026C000A0912A05B0912B05F0E0EE19FF09EA9FD1
:1026D0006001EB9FD00CFA9FD00C11240D2C000C44
:1026E000EE08FF08CB01770FAA0BBB0BA5019401E5
:1026F000281B390B4A0B5B0BDA01C9018C0D9D1DA0
:10270000AE1DBF1D012E000C220B330B801B910B45
:10271000A20BB30B80934F0490935004A0935104E9
:10272000B0935204409168055091690560916A0523
:1027300070916B0584179507A607B7070CF000C2C8
:102740004091220550912305052E000C660B770B56
:10275000840F951FA61FB71F80934F0490935004BA
:10276000A0935104B093520410E0EDC1809168052C
:1027700090916905A0916A05B0916B0540914F0455
:1027800050915004609151047091520448175907B8
:102790006A077B0709F0D6C1809122059091230535
:1027A000409168055091690560916A0570916B05CB
:1027B000092E000CAA0BBB0B840F951FA61FB71F79
:1027C00080934F0490935004A0935104B09352040B
:1027D00010E0C2C100E001C001E0609168057091A5
:1027E000690580916A0590916B0520912A053091C9
:1027F0002B05032E000C440B550B0E94DF30672B7A
:10280000682B692B09F47BC120C0809121058823A6
:1028100009F483C181E080934C042091130130912D
:10282000140180912605909127058217930734F4AF
:1028300081E090E0909314018093130110924E0474
:1028400010924D04011103C036C0002381F1609144
:102850000F0170E082E89BE10E94A930CB016AE0A1
:1028600070E00E94A930660F771F70936105609336
:10287000600519828091F504882351F040E050E012
:10288000BE016F5F7F4F85EF94E00E94772C09C0F7
:1028900040E050E0BE016F5F7F4F8AE492E00E940B
:1028A000772C1092170181E080936205B2C080916D
:1028B0004C04882321F080911701811103C011235A
:1028C00009F4A7C060E080E10E94940210924C04D9
:1028D000809126059091270502970CF42BC1209139
:1028E000630540911301509114018091240590914A
:1028F000250530E0840F951F2817390709F017C107
:1029000019C140910F05509110054B5F5F4F8091A9
:102910001105282F082E000C330B3F938F93FA01DB
:10292000F695E795F695E7959F01ABE7B4E10E9430
:1029300004319695879564E6689F9001699F300DF4
:102940001124CA01821B930B9C01ADECBCEC0E94CC
:1029500004319695879596958795969587959F933B
:102960008F939F01ABE7B4E10E9404319695879560
:102970009F938F9386E291E09F938F9386EA94E0F2
:102980009F938F930E94D93266EA74E080EE94E0C0
:102990000E94A63219820FB6F894DEBF0FBECDBFDB
:1029A00012C08091630590E0BC01660F771F660F2F
:1029B000771F680F791F65587D4F80EE94E00E9465
:1029C000A63281E0898360910E0170E082E89BE18C
:1029D0000E94A930CB016AE070E00E94A930660F26
:1029E000771F709361056093600540E050E060E000
:1029F00070E08AE191E00E94772C40E050E0BE0157
:102A00006F5F7F4F80EE94E00E94772C81E080938F
:102A10006205109221058091680590916905A09149
:102A20006A05B0916B050196A11DB11D80936805E3
:102A300090936905A0936A05B0936B0580914D044E
:102A400090914E04019690934E0480934D048CC057
:102A500010925D051092150181E0898340E050E0FD
:102A600060E070E08AE191E00E94772C40E050E065
:102A7000BE016F5F7F4F80EE94E00E94772C6091E3
:102A80000E0170E082E89BE10E94A930CB016AE070
:102A900070E00E94A930660F771F70936105609304
:102AA000600562C0209122053091230580912805A0
:102AB00090912905821793070CF019CD40CD6091B4
:102AC00068057091690580916A0590916B05209168
:102AD000280530912905032E000C440B550B0E944C
:102AE000DF30AB0170934E0460934D0420912205BA
:102AF00030912305232B09F028CD10E024C08091CC
:102B0000680590916905A0916A05B0916B05892BC4
:102B10008A2B8B2B09F079CE7DCE80911301909179
:102B200014010196909314018093130173CE1092B7
:102B300062056FCF80916305833109F032CFE1CE1A
:102B400010E001C010E08091260590912705892BA7
:102B500009F040CEACCE11E080912605909127057A
:102B6000892B09F474CE38CE0F90DF91CF91FF916D
:102B7000EF91BF91AF919F918F917F916F915F91F5
:102B80004F913F912F911F910F91FF90EF90DF9008
:102B9000CF90BF90AF909F908F900F900FBE0F90EF
:102BA0001F9018951F920F920FB60F9211242F931A
:102BB0003F934F935F936F937F938F939F93AF93C5
:102BC000BF93EF93FF9380911601811113C061E0D1
:102BD00080914B04811160E060934B0480911F054C
:102BE000882321F085E00E94940204C060E085E023
:102BF0000E949402FF91EF91BF91AF919F918F91AD
:102C00007F916F915F914F913F912F910F900FBEE8
:102C10000F901F9018951F920F920FB60F921124CC
:102C20008F939F93EF93FF9380911601882379F1FF
:102C300080914E05811118C080914A04811114C001
:102C400080914C05882339F01CC010924A0495B934
:102C5000109249041CC0809149048F33C1F08FE366
:102C60008093490485B913C0E0914A0481E08E0F36
:102C700080934A04F0E0E45DFA4F9081803228F7B7
:102C8000E6CF81E080934A0490912C05E0CFFF913C
:102C9000EF919F918F910F900FBE0F901F901895FD
:102CA0008091510590915205A0915305B091540522
:102CB00081159646AE4EBF4508F467C08091550514
:102CC00090915605A0915705B091580581159646EB
:102CD000AE4EBF4508F45BC08091590590915A05EE
:102CE000A0915B05B0915C0581159646AE4EBF453F
:102CF00008F44FC040915105509152056091530521
:102D0000709154058091550590915605A0915705F5
:102D1000B091580584179507A607B707E0F54091CD
:102D2000590550915A0560915B0570915C05809141
:102D3000510590915205A0915305B0915405841707
:102D40009507A607B70748F14091590550915A05D4
:102D500060915B0570915C058091550590915605D9
:102D6000A0915705B091580584179507A607B70796
:102D700030F480911501811112C085E00895809191
:102D80000D05882371F081E0089582E0089582E0C6
:102D9000089582E0089582E0089582E0089583E036
:102DA000089584E008950F931F93CF93DF9300D08D
:102DB000CDB7DEB7162F009731F0FC01808182314C
:102DC00011F0809363050E948D0360935905709301
:102DD0005A0580935B0590935C0510922005F8944A
:102DE000E09163058E2F90E0FC013197E331F1050E
:102DF00008F084C0ED57FF4F0C94FE308CE390E058
:102E000090932B0580932A058CE291E090932905FD
:102E10008093280525E030E0309327052093260590
:102E2000109225051092240528E020930E0190931E
:102E300023058093220590C08CE090E090932B05B1
:102E400080932A058CE390E09093290580932805D0
:102E500085E090E0909327058093260588E0809395
:102E60000E0187E090E0909325058093240588E586
:102E700092E090932305809322056EC08CE090E051
:102E800090932B0580932A052CE330E0309329059D
:102E90002093280525E030E0309327052093260570
:102EA0002FE020930E01909325058093240588E55B
:102EB00092E090932305809322054EC08EE190E02E
:102EC00090932B0580932A058CE390E0909329053D
:102ED0008093280522E030E03093270520932605D3
:102EE00028E020930E0122E130E030932505209365
:102EF000240590932305809322052EC080914F05D1
:102F00008093200581E090E090932705809326052B
:102F100088E080930E0180914F05811103C088E500
:102F200092E002C08CE390E0909323058093220509
:102F3000809122059091230590932B0580932A057B
:102F40001092250510922405809122059091230569
:102F50009093290580932805111106C010920D0544
:102F600081E080931501E0C0113099F481E090E098
:102F700090931401809313011092680510926905D3
:102F800010926A0510926B0510920D0510921501B2
:102F9000CBC01230B9F580916305209124053091A2
:102FA000250590E0821B930B1816190614F081E09A
:102FB00090E09093140180931301209113013091BC
:102FC000140140912A0550912B0521503109249F6D
:102FD000C001259F900D349F900D1124092E000CE7
:102FE000AA0BBB0B8093680590936905A0936A05B3
:102FF000B0936B0510920D051092150181E080933E
:10300000210592C040915505509156056091570594
:10301000709158058091590590915A05A0915B05D2
:10302000B0915C05481759076A077B0708F069C02B
:103030008091590590915A05A0915B05B0915C056E
:10304000409155055091560560915705709158056E
:10305000841B950BA60BB70B8093680590936905AD
:10306000A0936A05B0936B0560916805709169053E
:1030700080916A0590916B05209128053091290572
:1030800000912A0510912B05032E000C440B550BC3
:103090000E94DF309801110F440B550B0E94DF3066
:1030A000BA01A9014F5F5F4F6F4F7F4F8091260597
:1030B000909127059A83898389819A81092E000C32
:1030C000AA0BBB0B84179507A607B7073CF4298109
:1030D0003A81C901330FAA0BBB0B0BC0DB01CA013C
:1030E000141615061606170624F081E090E0A0E0FD
:1030F000B0E0909314018093130183E08093210545
:103100000EC0109268051092690510926A0510921F
:103110006B0581E090E0909314018093130181E0AE
:1031200080930D05809315018FE287BD10921F05D6
:1031300010926105109260051092620510920E05C2
:1031400060E080E10E94940260E086E00E949402C8
:1031500010924E0510925D0510920E0578940F9016
:103160000F90DF91CF911F910F9108958FEF9FEFF7
:10317000EAE7F0E0208126FF04C0009711F00197F4
:10318000F9CF2091780030917900EAE7F0E0908162
:1031900090649083C90108950E94B6180E94B618E1
:1031A0009C01ADEEB0E00E940431DC01CB016894DB
:1031B00016F8B695A795979587951694D1F7089523
:1031C00010927A0010927B0010927C00811122C034
:1031D000ECE7F0E08081866080838081806C808372
:1031E000808180628083EAE7F0E08081866080836E
:1031F0008081806280838081886080838081806814
:103200008083662321F1808188608083808180644F
:1032100080830895ECE7F0E09081906C908381309A
:1032200021F480818860808305C0ECE7F0E0808134
:1032300087608083EAE7F0E0808187608083808117
:10324000806880838081806480830E94B61808959E
:10325000FC012191222341F030E0205331092A3032
:103260003105B8F380E0089581E00895CF93C82F29
:103270000E945016F894C1110EC0823031F460E003
:1032800080E090E00E94D3163EC063E080E090E0D2
:103290000E94D31638C0C230C9F4823031F461E0E4
:1032A00080E090E00E94D3162EC0813019F0835048
:1032B000823030F461E080E090E00E94D31623C0B9
:1032C00063E080E090E00E94D3161DC0823031F4AC
:1032D00061E080E090E00E94D31615C0813031F4A7
:1032E00062E080E090E00E94D3160DC0843031F49B
:1032F00063E080E090E00E94D31605C063E080E0C8
:1033000090E00E94D31610925D057894CF910895B5
:10331000CF93C82F0E945016F894C23031F460E069
:1033200080E090E00E94D31615C0813031F462E055
:1033300080E090E00E94D31608C0843031F460E051
:1033400080E090E00E94D31605C060E080E090E04D
:103350000E94D31680911C05823021F460E080E148
:103360000E949402CF9108951F920F920FB60F9270
:1033700011242F933F934F935F936F937F938F937A
:103380009F93AF93BF93CF93EF93FF9381E10E94FD
:103390004902C82F10921E0510921D05882391F135
:1033A0008091A50481112EC080911001909111018E
:1033B000892B01F180910B0581111EC080911501AF
:1033C000882371F080911C058230B1F410921C05A5
:1033D00060E080E10E94940281E00E9436190CC0F6
:1033E00080911C05823041F410921C0581E00E94FE
:1033F000881902C010920E058CE291E090931101A1
:1034000080931001C093A504FF91EF91CF91BF91DC
:10341000AF919F918F917F916F915F914F913F916C
:103420002F910F900FBE0F901F9018950E948D0343
:103430006093590570935A0580935B0590935C05E2
:103440008091F504811105C065E08CE695E00E944D
:10345000C4058091590590915A05A0915B05B091E2
:103460005C0581159646AE4EBF4528F462E08CE6B9
:1034700095E00E94C405409151055091520560911C
:103480005305709154058091590590915A05A0916A
:103490005B05B0915C05481759076A077B0700F583
:1034A000409155055091560560915705709158050A
:1034B0008091590590915A05A0915B05B0915C05EA
:1034C000481759076A077B0728F463E08CE695E004
:1034D0000E94C40564E08CE695E00E94C40508954E
:1034E00040915505509156056091570570915805CA
:1034F0008091590590915A05A0915B05B0915C05AA
:10350000481759076A077B07C0F4809155059091C9
:103510005605A0915705B091580581159646AE4EB7
:10352000BF4530F463E08CE695E00E94C405089541
:1035300061E082E391E00E94C70C08952F923F92D0
:103540004F925F926F927F928F929F92AF92BF92B3
:10355000CF92DF92EF92FF920F931F93CF93DF935F
:10356000CDB7DEB72C970FB6F894DEBF0FBECDBF38
:103570002B013C0149015A01621773078407950723
:1035800050F0E114F10409F404C161E0C7010E94A4
:10359000C70C81E0FFC00115110521F061E0C801F1
:1035A0000E94C70C75016401C418D508E608F70825
:1035B000C701B60120E833E341EE51E00E94BD307F
:1035C00029013A014427552760E873E381EE91E031
:1035D0000E948530C61AD70AE80AF90AC701B6015F
:1035E00020E831E541E050E00E94BD3049015A0138
:1035F00019014427552760E871E581E090E00E94B9
:103600008530C61AD70AE80AF90AC701B60120E1CF
:103610003EE040E050E00E94BD3029833A834B8376
:103620005C8329813A813A87298729813A814B81B4
:103630005C8144275527A0E1BEE00E941A31C61ADA
:10364000D70AE80AF90AC701B6012CE330E040E0E6
:1036500050E00E94BD302D833E834F8358870D81FB
:103660001E812CE3209FC001219F900D1124A601F3
:10367000481B590B5C874B871092A60441145104D8
:10368000B9F05F924F9284E491E09F938F9386EA22
:1036900094E09F938F930E94D93261E086EA94E090
:1036A0000E94C70C0F900F900F900F900F900F90EB
:1036B0002328B9F09F928F928CE491E09F938F938F
:1036C00086EA94E09F938F930E94D93261E086EA64
:1036D00094E00E94C70C0F900F900F900F900F90E6
:1036E0000F9089859A85892BC9F09A819F93E981EA
:1036F000EF9385E591E09F938F9386EA94E09F9303
:103700008F930E94D93261E086EA94E00E94C70C50
:103710000F900F900F900F900F900F90012BC9F00A
:10372000FE81FF932D812F938DE591E09F938F93E1
:1037300086EA94E09F938F930E94D93261E086EAF3
:1037400094E00E94C70C0F900F900F900F900F9075
:103750000F903C853F934B854F9385E691E09F9377
:103760008F9386EA94E09F938F930E94D93261E011
:1037700086EA94E00E94C70C0E94B20CE6EAF4E0EC
:1037800010820F900F900F900F900F900F9080E08D
:1037900001C081E02C960FB6F894DEBF0FBECDBFFE
:1037A000DF91CF911F910F91FF90EF90DF90CF901D
:1037B000BF90AF909F908F907F906F905F904F9051
:1037C0003F902F900895EF92FF920F931F930E94C6
:1037D0008D036093590570935A0580935B05909310
:1037E0005C050E945016823009F462C063E080E0FC
:1037F00090E00E94D31620915505309156054091D6
:103800005705509158056091590570915A0580915E
:103810005B0590915C050F2EFCE6EF2EF1E0FF2E8C
:10382000F02D09E711E00E949E1A40915505509134
:1038300056056091570570915805809159059091F2
:103840005A05A0915B05B0915C05481759076A07B6
:103850007B07B8F4209151053091520540915305F2
:10386000509154056091590570915A0580915B05FE
:1038700090915C05E12CF12C05E811E00E949E1A64
:1038800019C0209151053091520540915305509136
:10389000540560915505709156058091570590919A
:1038A0005805E12CF12C06E911E00E949E1A02C095
:1038B0000E94161A1F910F91FF90EF9008954F925A
:1038C0005F926F927F928F929F92AF92BF92EF9290
:1038D000FF920F931F93CF93DF93CDB7DEB72C9753
:1038E0000FB6F894DEBF0FBECDBF8C01E42EFC01F5
:1038F00001900020E9F73197E81BF90B25E06535C9
:10390000720749F58091590590915A05A0915B0580
:10391000B0915C0589879A87AB87BC8780E096E683
:10392000AEEEBFE589839A83AB83BC8389859A8594
:10393000AB85BC8581159646AE4EBF4528F489807F
:103940009A80AB80BC8004C089849A84AB84BC8498
:10395000FF24F39442C061557540A9F58091550547
:1039600090915605A0915705B09158058D839E837F
:10397000AF83B8878091590590915A05A0915B0556
:10398000B0915C0589839A83AB83BC834D815E8152
:103990006F81788589819A81AB81BC8148175907ED
:1039A0006A077B0740F489809A80AB80BC8068946A
:1039B000FF24F1F812C08D809E80AF80B884689497
:1039C000FF24F1F80AC0F12C0F2E812CF6E69F2E71
:1039D000FEEEAF2EFFE5BF2EF02DEC30F10509F025
:1039E0005EC0C8010E942819882309F44FC0B8019D
:1039F00080E090E00E9432042B013C01AE2DEE0CE1
:103A0000BB0B20E13EE00E941331640D751D861D45
:103A1000971D86169706A806B90608F445C021E04A
:103A2000F21209C068E08CE695E00E94C40560E0EF
:103A300070E0CB0139C022E0F2121FC0009159059D
:103A400010915A0520915B0530915C056017710754
:103A50008207930748F467E08CE695E00E94C4056E
:103A600060E070E0CB0120C066E08CE695E00E944B
:103A7000C40560E070E0CB0117C06AE08CE695E019
:103A80000E94C40560E070E0CB010EC069E08CE6E6
:103A900095E00E94C40560E070E0CB0105C0EF2B0B
:103AA000A9F760E070E0CB012C960FB6F894DEBF6A
:103AB0000FBECDBFDF91CF911F910F91FF90EF907F
:103AC000BF90AF909F908F907F906F905F904F903E
:103AD0000895CF93823019F128F48823C1F1813001
:103AE00031F12DC0843059F090F0853041F58CE2F1
:103AF00092E09093890080938800C1E029C081E71B
:103B000092E09093890080938800C1E021C08AEC04
:103B100092E09093890080938800C1E019C081E40D
:103B200093E09093890080938800C1E011C088EEF3
:103B300093E09093890080938800C1E009C084EFEE
:103B400091E09093890080938800C1E001C0C0E0BB
:103B500087B5811102C08FE287BD80918800909166
:103B60008900892B31F488EE93E09093890080934B
:103B70008800F8948C2F0E949307CC2359F0EEE62E
:103B8000F0E080818D7F8083EFE6F0E080818260CD
:103B900080830AC0EEE6F0E0808182608083EFE6F9
:103BA000F0E080818D7F8083C093160178948C2F04
:103BB000CF9108952F923F924F925F926F927F9292
:103BC0008F929F92AF92BF92CF92DF92EF92FF922D
:103BD0000F931F93CF93DF93CDB7DEB72C970FB61C
:103BE000F894DEBF0FBECDBF0F2EFEE96F2EF1E0C1
:103BF0007F2EF02D0F2EF6EAAF2EF4E0BF2EF02D23
:103C00000F2EF0EE4F2EF4E05F2EF02D0F2EFCE085
:103C10008F2EF2E09F2EF02D0F2EF3E12F2EF2E0EB
:103C20003F2EF02D0E94BD0B6C01009709F401C5D9
:103C3000DC0111968D919C911297863CBEE19B0709
:103C400029F178F48E31F3E09F0709F415C18F361E
:103C50002DE1920709F44DC2873D924009F0BDC4A1
:103C6000ADC08237A3E29A0709F477C128F48A3EEF
:103C7000924209F409C2B1C48433F4E29F0709F403
:103C8000CFC0853C944209F417C4A7C4D60113964B
:103C90008C91139790E0009709F47BC082349105D2
:103CA00009F4AFC48634910509F4ADC48334910599
:103CB000D1F457968C91579758961C92823429F0DC
:103CC00090E0C0970A9708F064C0C60147960E942A
:103CD0004E32992314F480E090E086309105CCF1C7
:103CE00085E090E036C08335910579F5F601878946
:103CF000908D118E823489F1863439F48FEC890FDE
:103D0000853068F58CED890F18C0833539F48FEC58
:103D1000890F8530B8F487ED890F0FC0963431F4E0
:103D20009FEC980F9530E8F4845207C09335D9F48E
:103D30009FEC980F9530C8F4895299EF980F9B30FB
:103D400010F063C487E090E004C0C60103960E94AF
:103D50004E3282319105E8F409C080E007C080E06E
:103D600005C080E003C080E001C080E08983AE012F
:103D70004F5F5F4F60E18CE695E00E9442058091C5
:103D800063059981981729F060E0CE0101960E94A1
:103D9000D316809163051F928F937F926F92BF928B
:103DA000AF920E94D93260E0C5010E94C70C0F900B
:103DB0000F900F900F900F900F9013C4D601139691
:103DC0008C918823B1F0C60103960E946C3270E09A
:103DD000673071050CF066E060934D054DE455E0E9
:103DE00061E18CE695E00E94420580914D050E94BC
:103DF000691D80914D051F928F9386EA91E09F93F4
:103E00008F93BF92AF920E94D93260E0C5010E94A9
:103E1000C70C0F900F900F900F900F900F90E1C371
:103E2000F6018381882311F1803321F482E00E941E
:103E30008819D7C3813321F482E00E943619D1C397
:103E4000823331F481E0809315010E94E31BC9C3E2
:103E5000833331F462E080E090E00E94D316C1C366
:103E600061E08DEA91E00E94C70CBBC361E08DEA7E
:103E700091E00E94C70CB5C3D60113968C9188239C
:103E800099F180E290E0F50191838083B6016D5F46
:103E90007F4FC5010E949B32D60157968C91882393
:103EA00079F0F50101900020E9F7319780E290E088
:103EB00091838083B601695E7F4FC5010E949B326A
:103EC000F50101900020E9F73197E65AF440759723
:103ED00058F4B50185EF94E00E94A632A5016BE08D
:103EE0008CE695E00E944205F20185898823F1F075
:103EF00060910F0170E085EF94E00E94832D885A55
:103F00009D4F9C0136952795369527953695279593
:103F1000A5ECB0E20E940431929582958F708927BA
:103F20009F7089279093DF048093DE0485EF94E0EF
:103F30009F938F9382EB91E09F938F93BF92AF9269
:103F40000E94D93261E0C5010E94C70C0F900F900A
:103F50000F900F900F900F9044C3D60113968C9141
:103F60001397833509F051C057968C918823D1F16E
:103F7000C60147960E946C32862F90E085309105ED
:103F800014F485E090E0853191050CF084E1809394
:103F90000F014FE051E06FE08CE695E00E94420592
:103FA000F20185898823F1F060910F0170E085EFBF
:103FB00094E00E94832D885A9D4F9C013695279549
:103FC0003695279536952795A5ECB0E20E940431E9
:103FD000929582958F7089279F7089279093DF042F
:103FE0008093DE0480910F011F928F9389EB91E003
:103FF0009F938F93BF92AF920E94D9320F900F90F0
:104000000F900F900F900F903AC0803581F5F60118
:1040100087898823C9F0813339F0843539F091E0FC
:10402000893529F090E003C091E001C091E09093C0
:104030004F054FE455E067E18CE695E00E944205AC
:1040400080914F058093200580914F051F928F939B
:1040500085EC91E09F938F93BF92AF920E94D932EB
:104060000F900F900F900F900F900F9008C085E069
:10407000EDEAF1E0D50101900D928A95E1F760E05B
:10408000C5010E94C70CADC2F60183818823D1F01F
:1040900048E050E0B6016D5F7F4FC5010E94AD3230
:1040A000D50118961C92C5010E942819882351F049
:1040B000F50101900020E9F73197E65AF440349772
:1040C00008F0A5C282E195E09F938F938DEC91E07B
:1040D0009F938F93BF92AF920E94D93261E0C50146
:1040E0000E94C70C0F900F900F900F900F900F90A1
:1040F00078C2F6018381843509F083C04CE050E03A
:10410000B601695E7F4FC5010E94AD32D5011C9694
:104110001C9240915005419569E575E0C5010E94EA
:104120005F1C69877A878B879C87672B682B692B35
:1041300071F1C5010E94DA0489859A85AB85BC8539
:104140008093590590935A05A0935B05B0935C0545
:104150008091590590915A05A0915B05B0915C053D
:10416000BF93AF939F938F9385ED91E09F938F9330
:10417000BF92AF920E94D93260E080E090E00E944E
:10418000D3160FB6F894DEBF0FBECDBF4DC20E944E
:104190008D036093590570935A0580935B05909346
:1041A0005C05209155053091560540915705509179
:1041B00058056091590570915A0580915B05909161
:1041C0005C05E12CF12C09E711E00E949E1A809118
:1041D000590590915A05A0915B05B0915C05BF937C
:1041E000AF939F938F938FED91E09F938F93BF92A7
:1041F000AF920E94D9320FB6F894DEBF0FBECDBF8A
:1042000013C2833509F096C0B601695E7F4FC501C0
:104210000E94A63240915005419565E575E0C501C3
:104220000E945F1C611571058105910509F468C044
:1042300060935505709356058093570590935805E4
:1042400045E555E064E18CE695E00E9442058091E9
:10425000510590915205A0915305B09154058D835D
:104260009E83AF83B8878091550590915605A091A4
:104270005705B091580580589E4AAE4FBF4F89836D
:104280009A83AB83BC834D815E816F8178854817AB
:1042900059076A077B0728F489819A81AB81BC8121
:1042A00004C08D819E81AF81B88580935105909324
:1042B0005205A0935305B093540541E555E065E1DF
:1042C0008CE695E00E944205809155059091560537
:1042D000A0915705B0915805BF93AF939F938F93CB
:1042E0008AEE91E09F938F93BF92AF920E94D93252
:1042F0000E94E31B0FB6F894DEBF0FBECDBF94C182
:104300008091550590915605A0915705B09158059B
:10431000BF93AF939F938F938AEE91E09F938F9378
:10432000BF92AF920E94D9320FB6F894DEBF0FBE93
:10433000CDBF7AC1863409F05CC0B601695E7F4F9B
:10434000C5010E94A63240915005419561E575E096
:10435000C5010E945F1C611571058105910579F108
:1043600060935105709352058093530590935405C3
:1043700041E555E065E18CE695E00E9442058091BB
:10438000510590915205A0915305B0915405BF93EA
:10439000AF939F938F9385EF91E09F938F93BF92FD
:1043A000AF920E94D93261E0C5010E94C70C0E9401
:1043B000E31B0FB6F894DEBF0FBECDBF12C18091D4
:1043C000510590915205A0915305B0915405BF93AA
:1043D000AF939F938F9385EF91E09F938F93BF92BD
:1043E000AF920E94D9320FB6F894DEBF0FBECDBF98
:1043F0001BC10E9450168B7F813019F00E94161A43
:10440000F0C02091550530915605409157055091C7
:1044100058056091590570915A0580915B059091FE
:104420005C050F2EFCE6EF2EF1E0FF2EF02D09E7E4
:1044300011E00E949E1A2091510530915205409141
:104440005305509154056091550570915605809122
:10445000570590915805E12CF12C06E911E00E94D6
:104460009E1A4091550550915605609157057091DF
:1044700058058091590590915A05A0915B05B0911E
:104480005C05481759076A077B0708F0AAC0209106
:10449000510530915205409153055091540560915A
:1044A000590570915A0580915B0590915C0505E86E
:1044B00011E00E949E1A95C0D60113968C91139715
:1044C000833491F557968C918823A9F0C6014796BD
:1044D0000E944E329C012153384F2F393F4058F4EF
:1044E00090930D0180930C014CE051E062E18CE669
:1044F00095E00E94420580910C0190910D019F93DF
:104500008F9381E092E09F938F93BF92AF920E942E
:10451000D93261E0C5010E94C70C0F900F900F9037
:104520000F900F900F900FC08A3569F4F894109295
:104530001601EEE6F0E080818260808380E090E00A
:104540000E947307789480911105282F082E000C83
:10455000330B3F938F939F928F92BF92AF920E94A3
:10456000D93261E0C5010E94C70C40910F055091FE
:104570001005E0910F05F09110059A0136952795E9
:1045800036952795ABE7B4E10E940431969587955F
:1045900064E6689F9001699F300D1124421B530B04
:1045A0005F934F939F0136952795369527950E94E7
:1045B0000431969587959F938F933F922F92BF9248
:1045C000AF920E94D93261E0C5010E94C70C0FB6BC
:1045D000F894DEBF0FBECDBF04C08CE695E00E940C
:1045E0005F07D60112961C921E9211970E94A70C8B
:1045F0008CE291E0909311018093100110920E05CE
:1046000011CB80E0B3CB86E0B1CB80E0AFCBB5017E
:1046100082E195E00E94A63242E155E06EE08CE630
:1046200095E00E9442054ECD61E0C5010E94C70C95
:10463000D8CF2C960FB6F894DEBF0FBECDBFDF915A
:10464000CF911F910F91FF90EF90DF90CF90BF908F
:10465000AF909F908F907F906F905F904F903F9022
:104660002F9008958F3791F09FEF980F9A3110F4A3
:10467000805C089593EE980F9A3010F48D5E089543
:104680008B3131F08C3131F48FE2089587E2089557
:104690008CE3089580E20895CF92DF92EF92FF922B
:1046A0000F931F93CF93DF931F92CDB7DEB7109276
:1046B0000E05843431F4109212011092410480E00E
:1046C00029C4811121C08091CF049091D004892BFD
:1046D00089F480913F0490914004892B39F081E066
:1046E00090914104911103C080E001C080E01092DC
:1046F000410401C080E02091CF043091D004309378
:10470000400420933F0406C42CE231E030931101B1
:104710002093100190911201911104C093E19093A4
:10472000410449C38A3259F481E08093410488EC02
:1047300097E39093D0048093CF0480E0EBC3982F4D
:10474000833289F41092D0041092CF04E091410496
:104750004E2F50E04531510508F0A4C3FA01EA5646
:10476000FF4F0C94FE30E0914104EE2389F028ECD9
:1047700037E33093D0042093CF044E2F50E04531DF
:10478000510508F091C3FA01E555FF4F0C94FE3036
:1047900081E0C0C310923E0410923D0410923C048C
:1047A00010923B0410923A04109239048091120145
:1047B000882309F47BC3913429F482E08093410477
:1047C00080E0A8C3923429F484E18093410480E01E
:1047D000A1C3933429F487E08093410480E09AC315
:1047E0001092D0041092CF041092410481E092C341
:1047F000803329F483E08093410480E08BC38133CC
:1048000029F484E08093410480E084C3823329F456
:1048100085E08093410480E07DC3833329F486E002
:104820008093410480E076C3883349F48091380452
:10483000882329F082E18093410480E06BC31092C9
:10484000D0041092CF041092410481E063C380ED44
:10485000890F8A3008F520913B0430913C04A9016E
:10486000440F551F220F331F220F331F220F331FF8
:10487000240F351F892F90E0C097280F391F3093E0
:104880003C0420933B048091390490913A040196B2
:1048900090933A04809339048091390490913A04BA
:1048A00002970CF405C31092410480916305909126
:1048B0003B049813FFC281E08093410480E02AC347
:1048C00082E00E9488191092410480E023C3933251
:1048D00009F0F2C282E00E9436191092410480E091
:1048E00019C3933209F0EAC20E94E31B10924104FB
:1048F00080E010C3933209F0E3C262E080E090E010
:104900000E94D3161092410480E004C3913329F42D
:1049100088E08093410480E0FDC2923329F489E06D
:104920008093410480E0F6C2933329F48DE08093B4
:10493000410480E0EFC2943329F48AE0809341047B
:1049400080E0E8C2953329F48BE08093410480E055
:10495000E1C2993329F48EE08093410480E0DAC209
:10496000913429F480E18093410480E0D3C29234F1
:1049700029F481E18093410480E0CCC21092D004FC
:104980001092CF041092410481E0C4C29332C9F462
:1049900080913D0490913E0404977CF063E274E0C2
:1049A00082E195E00E94A63242E155E06EE08CE69D
:1049B00095E00E94420580E001C081E01092410430
:1049C000A9C280ED890F8A30C8F420913D0430914E
:1049D0003E04293031050CF075C2A9014F5F5F4FCD
:1049E00050933E0440933D04F901ED5DFB4F9083ED
:1049F000FA01ED5DFB4F108280E08CC21092410401
:104A000081E088C29332E9F4E3E2F4E0019000200F
:104A1000E9F73197E352F440759778F463E274E074
:104A200085EF94E00E94A63245EF54E06BE08CE6FF
:104A300095E00E94420580E001C081E010924104AF
:104A400069C280ED890F8A3008F043C02091390493
:104A500030913A04232B71F120913B0430913C04B6
:104A60008901000F111F220F331F220F331F220F46
:104A7000331F020F131F892F90E0C097080F191FD3
:104A800010933C0400933B048FE70E94322390E094
:104A9000081719074CF4E0903D04F0903E0424E11F
:104AA000E216F1040CF424C210923A041092390474
:104AB00080E030C2892F90E0C09790933C048093AF
:104AC0003B0481E090E090933A048093390480E0C5
:104AD00021C21092410481E01DC2933201F5809100
:104AE0003B0490913C0482319105A8F48983AE0186
:104AF0004F5F5F4F60E18CE695E00E944205809138
:104B000063059981981729F060E0CE0101960E9413
:104B1000D31680E001C081E010924104FBC180ED1A
:104B2000890F8A3008F0D0C120913B0430913C04B9
:104B3000A901440F551F220F331F220F331F220FCD
:104B4000331F240F351F892F90E0C097280F391F7E
:104B500030933C0420933B0480E0DCC1933231F578
:104B600040915005419569E575E083E294E00E942B
:104B70005F1C6B017C01672B682B692B99F083E22A
:104B800094E00E94DA04C0925905D0925A05E0924E
:104B90005B05F0925C0560E080E090E00E94D31637
:104BA00080E001C081E010924104B4C180ED890F22
:104BB0008A3008F08BC120913D0430913E042832A8
:104BC00031050CF085C1F901ED5DFB4F90832F5F3E
:104BD0003F4F30933E0420933D04F901ED5DFB4FC0
:104BE000108280E097C1933241F540915005419584
:104BF00065E575E083E294E00E945F1C6115710534
:104C000081059105B1F06093550570935605809329
:104C100057059093580545E555E064E18CE695E02D
:104C20000E94420563E080E090E00E94D31680E09D
:104C300001C081E0109241046DC180ED890F8A307E
:104C400008F048C120913D0430913E0428323105DE
:104C50000CF042C1F901ED5DFB4F90832F5F3F4F98
:104C600030933E0420933D04F901ED5DFB4F10822B
:104C700080E050C1933241F540915005419561E586
:104C800075E083E294E00E945F1C61157105810567
:104C90009105B1F0609351057093520580935305CF
:104CA0009093540541E555E065E18CE695E00E945E
:104CB000420563E080E090E00E94D31680E001C0EE
:104CC00081E01092410426C180ED890F8A3008F0FE
:104CD00005C120913D0430913E04283231050CF08D
:104CE000FFC0F901ED5DFB4F90832F5F3F4F309385
:104CF0003E0420933D04F901ED5DFB4F108280E0FE
:104D000009C1933299F480913B0480934D058091C1
:104D10004D050E94691D4DE455E061E18CE695E08A
:104D20000E9442051092410480E0F4C0973008F0E0
:104D3000D9C0892F90E0C09790933C0480933B04A6
:104D400080E0E8C09332D1F480913B0490913C0420
:104D50008230910578F480934F0580914F058093C0
:104D600020054FE455E067E18CE695E00E9442059E
:104D700080E001C081E010924104CCC080ED890F39
:104D8000823008F0B1C0892F90E0C09790933C0426
:104D900080933B0480E0BEC0933249F483E1898371
:104DA00062E0CE0101960E94D31680E001C081E04E
:104DB00010924104AFC02091390430913A04A90106
:104DC0004F5F5F4F50933A0440933904F901EE5E10
:104DD000FA4F9081891313C0E2E1F5E001900020C1
:104DE000E9F73197E251F540E417F50709F07EC085
:104DF00081E0809312018093380480E08BC0109290
:104E0000D0041092CF0410923A04109239041092F8
:104E1000410481E07FC09332F9F480913B0490918A
:104E20003C04009741F480E090E00E94730781E029
:104E300080934C050DC08C3321E092073CF010921A
:104E40004C058BE391E00E94730702C00E94730738
:104E50001092410480E05EC080ED890F8A30D0F46A
:104E600020913B0430913C04A901440F551F220FAF
:104E7000331F220F331F220F331F240F351F892F9B
:104E800090E0C097820F931F90933C0480933B0463
:104E900080E040C01092D0041092CF0410924104E0
:104EA00081E038C080E036C080E034C080E032C0AD
:104EB00080E030C080E02EC080E02CC080E02AC0BE
:104EC00080E028C080E026C080E024C080E022C0CE
:104ED00080E020C080E01EC080E01CC080E01AC0DE
:104EE00080E018C080E016C080E014C080E012C0EE
:104EF000802F0E943223F701ED5DFB4F8083C701B5
:104F0000019690933E0480933D04FC01ED5DFB4FC0
:104F10001082CACD0F90DF91CF911F910F91FF901A
:104F2000EF90DF90CF900895833010F48F5C089558
:104F30009CEF980F933010F4805D089598EF980FD0
:104F4000933010F4815D0895833071F0873071F0F3
:104F50008B3071F08C3071F08D3071F08E3071F0DB
:104F60008F3071F484E4089581E4089582E4089513
:104F700083E408958AE2089580E3089583E2089522
:104F800080E008954F925F926F927F928F929F92EE
:104F9000AF92BF92CF92DF92EF92FF920F931F9347
:104FA000CF93DF9300D01F92CDB7DEB71A8219825C
:104FB00080910B058823C1F08CE695E00E94FF06E6
:104FC00060E071EE80E090E00E940A0C80910C0598
:104FD000882341F060E080E10E94940280910C05FA
:104FE0008111F8CF10920B0580E00E944C23182FFE
:104FF0000E94DA1DA895111189C18EEC94E00E94DF
:105000001C09882309F482C11A8219828091DD0467
:10501000811107C060E00E94E0188BE38093DD04FB
:1050200024C28091DC04811120C260E082E00E94F1
:10503000E0180E94CC189093100580930F0560E053
:1050400080E00E94E0188BE08093DC040EC2F50142
:1050500041915191619171915F018EEC94E00E94B8
:105060002508BE016F5F7F4F8EEC94E00E941F0900
:10507000E62EF72E082FD92E292D382D472D562D07
:105080000E94CA2F1816B4F420E034E244E759E431
:105090006E2D7F2D802F9D2D0E94CA2F181634F45F
:1050A0005C2C9E2C8F2C702E6D2C04C09E2C8F2C73
:1050B000702E6D2CC394F4E0CF12C9CFE4C1F5017A
:1050C00041915191619171915F018EEC94E00E9448
:1050D000250860E070E08EEC94E00E941F09E62E47
:1050E000F72E082FD92E292D382D472D562D0E9409
:1050F000CA2F1816B4F420E034E244E759E46E2DC8
:105100007F2D802F9D2D0E94CA2F181634F44C2C11
:105110009E2C8F2C702E6D2C04C09E2C8F2C702EEC
:105120006D2CC394F4E0CF12CACF8091CF0490913C
:10513000D004892B59F480910801909109010397BB
:105140002CF089819A81C2970CF04DC044200CF458
:1051500070C0852D880F880F840D0E949427082F1A
:105160008091480408133CC0809108019091090186
:105170008A3091052CF401969093090180930801DF
:105180008091080190910901039751F581E0809386
:105190001B0510924704109246040093D9040E9404
:1051A000FD0C8823C9F08091D9041F928F938FE161
:1051B00092E09F938F9386EA94E09F938F930E944F
:1051C000D93261E086EA94E00E94C70C0F900F90FC
:1051D0000F900F900F900F90802F0E944C23182F4C
:1051E0000093480475C081E080931B0561E080E175
:1051F0000E9494020E94FD0C882309F469C08A81F0
:105200008F9389818F9385E292E09F938F9386EAB3
:1052100094E09F938F930E94D93261E086EA94E0F4
:105220000E94C70C0F900F900F900F900F900F904F
:105230004FC0C090D504D090D604E090D704F09031
:10524000D8048090420490904304A0904404B0900D
:10525000450480914604909147049C012F5F3F4F85
:10526000309347042093460403970CF447C01092F0
:105270001B0580911501882329F080915D05882305
:1052800009F412C1C818D908EA08FB0827E2C216B7
:105290002BE0D206E104F10420F4109209011092EF
:1052A000080110924704109246048091D504909111
:1052B000D604A091D704B091D8048093420490936F
:1052C0004304A0934404B09345041092480416C0CC
:1052D0008091D3049091D404823E9B4178F0109247
:1052E0001B0510920E0580911501882329F08091ED
:1052F0005D05882309F4DDC010924804EAE7F0E078
:105300008081886080838081806480838091620551
:105310008111E1C080915E0590915F05892B19F0A4
:1053200010921B05D8C0112301F11B8240E050E010
:10533000BE016D5F7F4F83E392E00E94772C8EE287
:1053400090E0909361058093600581E080935D0516
:1053500010921B058BEB90E190935F0580935E05A7
:105360001092D2041092D104B6C080911B058823FC
:1053700039F061E080E10E94940210920E05ABC00A
:1053800080911501882309F469C0809110019091E2
:105390001101892B09F49DC08091D1049091D20410
:1053A000892B09F096C08091CF049091D004892B6D
:1053B00009F484C08EC080910E058230A1F411E002
:1053C0001B8340E050E0BE016D5F7F4F8CE392E0B5
:1053D0000E94772C8CE890E09093610580936005A3
:1053E00010935D0578C080910E058130A1F411E025
:1053F0001B8340E050E0BE016D5F7F4F8FE392E082
:105400000E94772C86E490E090936105809360057C
:1054100010935D0560C080910E05843021F080916D
:105420000E058330A1F411E01B8340E050E0BE0183
:105430006D5F7F4F8CE392E00E94772C8CE890E0C8
:10544000909361058093600510935D0544C01092B0
:105450005D0560E080E10E9494023DC010925D0510
:1054600060E080E10E94940236C00F2EFBE5AF2E73
:10547000F2E0BF2EF02DC12C912C812C712C612CCF
:1054800055245A94E4CD55200CF4D3CE0F2EFBE6D0
:10549000AF2EF2E0BF2EF02DC12C912C812C712C5F
:1054A000612C44244A940BCE60E080E10E94940277
:1054B000E9CE60E080E10E9494021ECF10910E05BB
:1054C0000E94501680930E0580910E05181373CF1D
:1054D00002C010925D050F900F900F90DF91CF9159
:1054E0001F910F91FF90EF90DF90CF90BF90AF9002
:1054F0009F908F907F906F905F904F90089563E0A2
:1055000081E10E94790161E080E10E94790160E01F
:1055100080E10E94940261E086E00E94790160E0EF
:1055200086E00E94940261E085E00E94790160E0DB
:1055300085E00E94940261E084E00E94790160E0CD
:1055400084E00E94940260E084E10E94790160E0BE
:1055500085E10E94790161E087E00E94790161E0C4
:1055600087E00E94940263E083E10E94790163E096
:1055700082E10E94790163E082E00E9479010E9449
:10558000540C61E083E00E94790160E083E00E94B6
:10559000940261E08EE00E94790160E08EE00E945A
:1055A000940261E08FE00E94790160E08FE00E9448
:1055B000940284B18F6384B985B1807C85B90E94DF
:1055C000C4098CE695E00E941B06C82F61E080E0CC
:1055D0000E94E018F894A0EBB0E01C92E1EBF0E040
:1055E00010828C9182608C938081876080838CE0B4
:1055F0008093B3001092B400E6EBF0E080818F7DE1
:105600008083E0E7F0E010828081846080831092E4
:105610008000E1E8F0E01082109285001092840092
:1056200080818860808380818160808314BC84B5A0
:10563000826084BD15BC85B5846085BD8FE287BD61
:1056400010926E0010926D00ECE6F0E0108288E09F
:105650008083E8E6F0E0108282E0808380914D054F
:105660000E94691D789460E071EE80E090E00E94F5
:105670000A0C80E00E942C0DA89581E10E9449024D
:1056800091E0811190E090930C05CC2329F061E02A
:105690008CE492E00E94C70C81E00E9421058CE618
:1056A00095E00E945F070E94161A0E94A70C80E0F6
:1056B0000E943619E9E6F0E0808182608083E89AF2
:1056C0000E94C227FDCF0F931F938CE695E00E94A6
:1056D000400500E018E726E936E440E050E069E4E0
:1056E00073E48EEC94E00E94BA071F910F91089525
:1056F0008EEC94E00E940B088CE695E00E94410538
:10570000089590E00E949332FC01FF27B097ED3599
:10571000F10508F0E4C0E054FF4F0C94FE3089E03E
:1057200074E061E008958BE074E065E0089587E03F
:1057300073E061E0089581E071E060E0089589E040
:1057400074E064E0089589E073E063E0089587E021
:1057500074E060E0089583E072E060E008958DE019
:1057600074E06EE0089589E073E065E0089589E0F3
:1057700074E062E0089587E072E063E0089585E0F8
:1057800072E061E008958BE073E067E008958BE0DC
:1057900074E066E008958DE074E06BE0089587E0C2
:1057A00073E062E0089585E073E060E0089583E0CF
:1057B00071E061E0089587E073E064E0089589E0B6
:1057C00074E068E0089589E073E066E008958BE096
:1057D00074E069E008958DE074E06DE008958BE079
:1057E00074E063E0089583E175E06FE1089581E17D
:1057F00075E06EE108958FE075E06CE108958DE04D
:1058000075E068E108958BE075E060E1089589E056
:1058100075E060E008958BE075E061E008958DE04B
:1058200075E063E008958FE075E067E0089581E139
:1058300075E06FE0089581E176E06AE2089583E122
:1058400076E063E308958FE076E06CE0089583E10D
:1058500076E06EE1089583E176E065E308958DE0FA
:1058600075E069E008958FE075E06DE0089583E1EB
:1058700076E06DE208958BE075E062E0089581E1E5
:1058800076E067E008958CE076E065E108958DE0CC
:1058900075E061E108958DE075E06AE008958FE0BC
:1058A00076E061E2089581E176E06CE208958FE0B0
:1058B00076E062E1089581E177E068E4089581E1AE
:1058C00076E066E1089584E077E06FEF089587E081
:1058D00077E06EEF089583E175E06FE1089580E071
:1058E00070E060E0089585E072E062E00895CF9393
:1058F000DF93EA01009709F441C010927805611521
:10590000710521F0DB012C9120931901FC0120810C
:10591000222331F140917605509177058417950740
:1059200009F4E9C0909377058093760580E280932F
:105930001801822F0E94812B609373057093740568
:105940008093750510927205109271051092700582
:1059500010926F0510926E0510926D0580E0D0C018
:10596000109277051092760581E080936E0520975E
:1059700009F0888310926D0580E0C2C0E091760541
:10598000F0917705309709F4AAC06115710521F0EF
:1059900080911901DB018C9380916E05882349F079
:1059A000209709F4AAC081E088831092780580E0EE
:1059B000A7C080917005882321F0815080937005E5
:1059C0007FC080916D05882381F0809178058111D9
:1059D0000CC010926D0580916F05882309F470C08A
:1059E0008093700510926F056BC090917405809143
:1059F0007105891790F1809172058F5F8093720510
:105A0000DF01A80FB11D8C9180931801811119C07D
:105A100080911901882331F08081809318011092C0
:105A200072050FC0109277051092760510926D05E1
:105A300091E090936E05209709F098831092780575
:105A40005FC0809118010E94812B60937305709351
:105A500074058093750510927105209173052D3F93
:105A600000F54091710531E0340F3093710581E00C
:105A700090E002C0880F991F4A95E2F7822321F037
:105A800082E08093700502C01092700581E08093DF
:105A90006D0580917405381798F082E080936F054A
:105AA0000FC0809174059FEF9093710510926D0562
:105AB000843020F084508093700502C010927005ED
:105AC000809118018C3331F481E080937805209720
:105AD00041F416C010927805209719F409C0209758
