:100000000C9417010C947F0C0C943F010C943F014D
:100010000C943F010C94F6150C943F010C943F0195
:100020000C941C110C943F010C943F010C942D1066
:100030000C943F010C943F010C94F00F0C943F0181
:100040000C943F010C943F010C94960A0C94320CD2
:100050000C943F010C945E0A0C943F010C943F01F8
:100060000C943F010C943F016C01770182018D01DA
:100070009801A301AE01B901C401CF01DA01310237
:100080003102E501F001FB01060211021C02270208
:100090003C024002440248024C02500254025902FF
:1000A0005D0276027602610265026A026E027202E7
:1000B00087028D02930299029F02A502AB02B10250
:1000C000B702BD02C302E602E602C902CF02D502B0
:1000D000DB02E10207036603660324034B03040308
:1000E0004E03540301035E03FE0245034803570316
:1000F000AF038103B203840387038A038D03900354
:10010000930396039903E612E612E612E612E6124C
:10011000681368130413041304130413041326133D
:100120002613261326132613681346139F1FE11F59
:10013000552060206B20752082200C217B21F62128
:100140003A227E22BA21C422E622D520F4221820A7
:100150002023A9276D279927B1279D27B1277D2720
:10016000692775277927B1278D27612791275D2773
:100170007127352739273D274127452749274D270F
:1001800051275527592781278527AD278927B1274B
:100190006527A127B527D126D526D926DD26E12634
:1001A000E526E926ED26F126F526F926FD26012786
:1001B000052709270D271127152719271D2721276F
:1001C000252729272D273127B127B127B127B12787
:1001D0009527B127B127B127B127B127B127B1277B
:1001E000B127B127B127B127B127B127B127B1274F
:1001F000B127B127B127B127B127B127B127B1273F
:10020000B127B127B127B127B127A52705A84CCD24
:10021000B2D44EB93836A9020C50B9918688083C40
:10022000A6AAAA2ABE000000803FA526BA2611244D
:100230001FBECFEFD8E0DEBFCDBF13E0A0E0B1E03E
:10024000EAE4F7E602C005900D92A631B107D9F7AE
:1002500025E0A6E1B3E001C01D92AD3AB207E1F797
:1002600011E0C6E1D1E004C02197FE010E94702E8A
:10027000C531D107C9F70E9483250C9498330C949B
:100280000000623021F40E944E01845E08956830BF
:1002900008F06F5F61708EE1860F08959C012370F6
:1002A0003327232B59F464E670E00E941B2E892B20
:1002B00039F46370772781E0672B19F080E00895A7
:1002C00081E0089590E08431910508F0CAC0FC01F6
:1002D000EC5CFF4F0C94702E613011F4509A08952D
:1002E0005098633011F4589A0895589808956130E1
:1002F00011F4519A08955198633011F4599A089560
:1003000059980895613011F4529A089552986330C3
:1003100011F45A9A08955A980895613011F4539A35
:1003200008955398633011F45B9A08955B9808958B
:10033000613011F4549A08955498633011F45C9A22
:1003400008955C980895613011F4559A0895559870
:10035000633011F45D9A08955D980895613011F449
:10036000569A08955698633011F45E9A08955E98EF
:100370000895613011F4579A08955798633011F435
:100380005F9A08955F980895613011F4209A089556
:100390002098633011F4289A0895289808956130C0
:1003A00011F4219A08952198633011F4299A08953F
:1003B00029980895613011F4229A089522986330A3
:1003C00011F42A9A08952A980895613011F4259A13
:1003D00008952598633011F45D9A08955D98089505
:1003E000613011F4389A08953898633011F4409AC6
:1003F000089540980895613011F4399A0895399814
:10040000633011F4419A089541980895613011F4D0
:100410003A9A08953A98633011F4429A08954298AE
:100420000895613011F43B9A08953B98633011F4BC
:10043000439A089543980895613011F43C9A0895C1
:100440003C98633011F4449A0895449808956130BB
:1004500011F43D9A08953D98633011F4459A08953A
:100460004598089590E0FC013297E031F105F0F5F0
:10047000E85BFF4F0C94702E29B1247030E038C037
:1004800029B1287030E034C029B1207130E030C08B
:1004900029B1207230E02CC029B1207430E028C08E
:1004A00029B1207830E024C083B1282F217030E0BA
:1004B0001FC023B1227030E01BC023B1247030E094
:1004C00017C023B1207230E013C086B1282F2170ED
:1004D00030E00EC026B1227030E00AC026B1247090
:1004E00030E006C026B1287030E002C020E030E0E5
:1004F00081E0232B09F480E0089590E0823191059A
:1005000008F064C0FC01E85AFF4F0C94702E66237B
:1005100011F0589A089558980895662311F0599A41
:10052000089559980895662311F05A9A08955A9893
:100530000895662311F05B9A08955B9808956623E9
:1005400011F05C9A08955C980895662311F05D9A05
:1005500008955D980895662311F05E9A08955E9857
:100560000895662311F05F9A08955F9808956623B1
:1005700011F0289A089528980895662311F0299A71
:10058000089529980895662311F02A9A08952A98C3
:100590000895662311F02D9A08952D9808956623E5
:1005A00011F0409A089540980895662311F0419AF9
:1005B000089541980895662311F0429A089542984B
:1005C0000895662311F0439A089543980895089575
:1005D00008950F931F93CF93DF934115510509F4AD
:1005E00075C0862F90E0FC013B97EE30F10508F0D6
:1005F0006DC0DA01E659FF4F0C94702E85E293E04E
:100600005FC08FE193E055C08BE193E049C08A0160
:100610000F5F1F4F6C91662371F0C0E0D0E0219610
:10062000CE018D599D4F0E941233F80161918F01C7
:100630006111F5CF02C0C0E0D0E060E0CE018C597E
:100640009D4F0E94123342C08A010F5F1F4F6C9171
:10065000662391F0C0E0D0E003C0C830D10571F04E
:100660002196CE01805F9C4F0E941233F801619168
:100670008F016111F2CF02C0C0E0D0E060E0CE0196
:100680008F5E9C4F0E94123321C089E293E008C024
:100690008AE293E005C08AE193E002C08CE193E036
:1006A0006C910E94123312C08DE193E002C08BE284
:1006B00093E06D917C910E94303308C081E293E019
:1006C0004D915D916D917C910E942433DF91CF918A
:1006D0001F910F910895EF92FF920F931F93CF9365
:1006E000C62F0E94580A882309F446C08C2F90E038
:1006F0008B30910508F040C0FC01E858FF4F0C9486
:10070000702E8AE290E030C088E891E02DC08EEA39
:1007100091E02AC085ED91E027C086EF91E024C0EA
:1007200081E192E021C087E292E01EC08CE392E07A
:100730001BC080E592E018C08701CC23E9F08C2F24
:100740000E94160A78018FEFE81AF80AC8010E9481
:10075000FE32C82F0E946C098111FCCFEDCF80E0E2
:1007600090E002C080E691E08C010F5F1F4F0E9475
:10077000FE32C82F8111E3CFCF911F910F91FF90CF
:10078000EF900895EF92FF920F931F93CF93DF9313
:100790008BE293E00E940C338B3B910509F0B6C0CD
:1007A0008AE193E00E94FE3290E08530910514F4D6
:1007B00085E090E08531910514F084E190E080932C
:1007C00012018BE193E00E94FE32823108F081E158
:1007D000809392058CE193E00E94FE3280937E0527
:1007E0008DE193E00E940C339093100180930F01F0
:1007F0008FE193E00E940C3390930B0580930A05E0
:1008000081E293E00E94063360938605709387052A
:10081000809388059093890585E293E00E940633D2
:10082000609382057093830580938405909385057A
:1008300089E293E00E94FE32809381058AE293E090
:100840000E94FE328093800504E612E0C5E2D5E006
:100850000F2EF9E3EF2EF5E0FF2EF02DC8010E94D8
:10086000FE32899381110BC001E113E0C1E4D5E0B0
:100870000F2EF9E4EF2EF5E0FF2EF02D06C00F5FEE
:100880001F4FCE15DF0551F7EFCFC8010E94FE3292
:100890008993882329F00F5F1F4FCE15DF05A9F735
:1008A00001EF12E0CDE5D5E00F2EFDE7EF2EF5E0EC
:1008B000FF2EF02DC8010E94FE3289930F5F1F4F5B
:1008C000CE15DF05B9F78091860590918705A09137
:1008D0008805B0918905892B8A2B8B2BC9F0409113
:1008E0008205509183056091840570918505809102
:1008F000860590918705A0918805B0918905841798
:100900009507A607B70730F480E019C081E017C04B
:1009100080E015C08091860590918705A09188059B
:10092000B091890580589E4AAE4FBF4F8093820593
:1009300090938305A0938405B093850580E0DF91B3
:10094000CF911F910F91FF90EF900895EF92FF923A
:100950000F931F93CF93DF930DE111E0C1E4D5E036
:100960000F2EF5E4EF2EF5E0FF2EF02DF80161914A
:100970008F016883CE010E9436332196CE15DF05A4
:10098000A9F760E085E193E00E94363310924505B7
:1009900010927E0560917E058CE193E00E943633D3
:1009A000109286051092870510928805109289058D
:1009B0004091860550918705609188057091890561
:1009C00081E293E00E9444331092820510928305E5
:1009D00010928405109285054091820550918305FF
:1009E000609184057091850585E293E00E9444330F
:1009F000DF91CF911F910F91FF90EF900895CF93CA
:100A0000DF93EC010E940D0A60E0CE010E946B03AF
:100A100061E0CE010E946B030E940D0A0E940D0A44
:100A2000DF91CF910895CB01880F991F87589D4F73
:100A30000E940C3308959C012E5F3F4F2B3381E0C1
:100A4000380710F02BE331E0ADECBCEC0E94762EC1
:100A500096958795969587959C01220F331F220FB7
:100A6000331F280F391F0E94762E969587959695ED
:100A700087959C0120733327329522952F70232769
:100A80003F7023272093160398B18F70907F892B96
:100A900088B98BB18C7F90911603892B8BB90895FF
:100AA0000E94AF0961E08EE00E94620161E08FE088
:100AB0000E94620161E080E10E94620161E081E1E7
:100AC0000E94620161E080E00E94620161E081E0D9
:100AD0000E94620161E086E00E94620161E086E0BE
:100AE0000E947D020895EF92FF920F931F93CF9380
:100AF000DF93E42EF52ED62FC72F00932E031093ED
:100B00002F03209330033093310320E030E041E5A0
:100B100053E46E2D7F2D8D2F9C2F0E94FD2C1816D7
:100B20006CF020E030E048EC52E46E2D7F2D8D2FEC
:100B30009C2F0E945A2B882334F009C0E12CF12C01
:100B4000D1E5C3E404C0E12CF12CD8ECC2E46E2D55
:100B50007F2D8D2F9C2F0E94D62B7093290360939D
:100B60002803CB01880F991F0E949F2E9093180392
:100B700080931703DF91CF911F910F91FF90EF901A
:100B8000089580911703909118030E94372F0895BC
:100B900010921C0310921D0310921E0310921F034B
:100BA000109220031092210310922203109223032B
:100BB0001092190308958F929F92AF92BF92CF9295
:100BC000DF92EF92FF92CF93DF93EC014A015B013A
:100BD0006091280370912903072E000C880B990B54
:100BE0000E940E2C6B017C0180922A0390922B03B1
:100BF000A0922C03B0922D03A50194010E94022D16
:100C000020912E0330912F034091300350913103F6
:100C10000E94642B20E030E040E05FE30E94EE2A77
:100C20000E94D62B072E000C880B990B0E940E2CCD
:100C30002BED3FE049EC50E40E94022DA701960104
:100C40000E94642B0E945F2B9B01AC010E94EE2A44
:100C500060932403709325038093260390932703C6
:100C6000CE010E94C805DF91CF91FF90EF90DF90F9
:100C7000CF90BF90AF909F908F9008958F929F924A
:100C8000AF92BF92CF92DF92EF92FF92CF93DF931A
:100C9000EB01C0902003D0902103E0902203F0905C
:100CA0002303209124033091250340912603509182
:100CB0002703C701B6010E94022D20911C03309129
:100CC0001D0340911E0350911F030E94ED2A4B010A
:100CD0005C01BE017250072E000C880B990B0E941C
:100CE0000E2C9B01AC01C501B4010E94EE2AC092FA
:100CF0001C03D0921D03E0921E03F0921F03609329
:100D00002003709321038093220390932303DF91A8
:100D1000CF91FF90EF90DF90CF90BF90AF909F90DA
:100D20008F90089580911903811127C0E0911A03D3
:100D3000F0911B03EE0FFF1F809117039091180392
:100D4000E80FF91F7183608380911A0390911B0350
:100D5000019690931B0380931A03209128033091EE
:100D60002903821793073CF010921B0310921A0379
:100D700081E08093190380911903089580911903EC
:100D800008954F925F926F927F928F929F92AF924F
:100D9000BF92CF92DF92EF92FF920F931F93CF9368
:100DA000DF938C018091280390912903181619066E
:100DB000C4F4C0E0D0E0CE01880F991FE091170382
:100DC000F0911803E80FF91F60817181C8010E943A
:100DD0003E0621968091280390912903C817D907D0
:100DE00054F38090200390902103A0902203B090B0
:100DF0002303C0901C03D0901D03E0901E03F090CD
:100E00001F03A5019401C501B4010E94022D2B010D
:100E10003C01A7019601C701B6010E94022D9B016A
:100E2000AC01C301B2010E94EE2A2B013C012091CA
:100E30002403309125034091260350912703C501D7
:100E4000B4010E94022DA70196010E94022D9B0170
:100E5000AC01C301B2010E94ED2A6B017C01C80103
:100E60000E94C805C701B601DF91CF911F910F9174
:100E7000FF90EF90DF90CF90BF90AF909F908F90BA
:100E80007F906F905F904F900895E4E6F0E080814E
:100E90008F7780831092B90085E28093B80084E058
:100EA0008093BC0081E080930601089584EA8093DA
:100EB000BC00ECEBF0E08081882364F080910601B7
:100EC0008111F9CF07C080E98093BC0081E0809355
:100ED00006010895809106018823A9F380E0089512
:100EE00084E98093BC0008958093BB0084E88093DC
:100EF000BC00ECEBF0E08081882364F08091060177
:100F00008111F9CF07C084E98093BC0081E0809310
:100F1000060108958091B900887F8613F4CF80E0A0
:100F2000089584EC8093BC00ECEBF0E08081882392
:100F300024F0809106018111F9CF8091BB000895C2
:100F400084E88093BC00ECEBF0E08081882324F0FF
:100F5000809106018111F9CF8091BB000895209105
:100F6000B900287F30E090E02817390729F084E99C
:100F70008093BC0081E0089580E00895CF93DF93D3
:100F800000D000D000D0CDB7DEB78A836B835D83FD
:100F90004C832E8319820E94560788E00E94AF0777
:100FA000982F81E0992309F480E0882311F081E0F3
:100FB0003FC068E18A810E947407982F81E09923DD
:100FC00009F480E0882311F081E032C068E28B816F
:100FD0000E947407982F81E0992309F480E0882308
:100FE00011F081E025C08E819FEF980F9E8391E0E4
:100FF000882309F490E09923C1F0898191E0980F4A
:101000009983882F90E02C813D81820F931FFC01F2
:10101000808168E20E947407982F81E0992309F487
:1010200080E0882301F381E003C00E94700780E024
:1010300026960FB6F894DEBF0FBECDBFDF91CF91DD
:1010400008950F931F93CF93DF9300D000D000D06B
:10105000CDB7DEB78A836B835D834C832E83198281
:101060000E94560788E00E94AF07982F81E09923DD
:1010700009F480E0882311F081E079C068E18A8179
:101080000E947407982F81E0992309F480E0882357
:1010900011F081E06CC068E28B810E947407982F88
:1010A00081E0992309F480E0882311F081E05FC09A
:1010B0000E94560780E10E94AF07982F81E0992394
:1010C00009F480E0882311F081E051C08A818160B9
:1010D00060E40E947407982F81E0992309F480E06E
:1010E000882311F081E043C08E819FEF980F9E838B
:1010F00091E0882309F490E09923B1F18E8188234F
:10110000D9F0898191E0980F9983882F90E02C8104
:101110003D818901080F191F0E949107F801808302
:1011200080E50E94AF07982F81E0992309F480E0C1
:101130008823D1F281E01BC08981882F90E02C8127
:101140003D818901080F191F0E94A007F8018083C3
:1011500088E50E94AF07982F81E0992309F480E089
:10116000882311F281E003C00E94700780E0269678
:101170000FB6F894DEBF0FBECDBFDF91CF911F91A8
:101180000F9108958091350393E059E2282F30E0C4
:10119000529FF001539FF00D1124EC54FC4F4081FD
:1011A00041110CC0915029F08F5F833078F380E0BB
:1011B000EDCF8093350380E090E008958093350370
:1011C00049E2429FC001439F900D11248C549C4FD3
:1011D00008958091340393E059E2282F30E0529F24
:1011E000F001539FF00D1124EC54FC4F4081442337
:1011F00061F0915029F08F5F833078F380E0EDCF7C
:101200008093340380E090E008958093340349E2B2
:10121000429FC001439F900D11248C549C4F089510
:1012200080913303282F30E09FE3899FF001112440
:10123000EA5CFC4F41815281452BA9F08F5F8230DF
:1012400008F080E0282F30E09FE3899FF00111240F
:10125000EA5CFC4F41815281452B29F08093330396
:1012600080E090E00895809333034FE3429FC001F4
:10127000439F900D11248A5C9C4F08958091320306
:10128000282F30E09FE3899FF0011124EA5CFC4F96
:1012900041815281452BA9F48F5F823008F080E0B4
:1012A000282F30E09FE3899FF0011124EA5CFC4F76
:1012B00041815281452B29F48093320380E090E0F4
:1012C0000895809332034FE3429FC001439F900DE6
:1012D00011248A5C9C4F089580912F040895909169
:1012E0002F0481E0911180E0911108C091E090936A
:1012F0002F04E1ECF0E0908190629083089580915A
:101300002F04882339F0E1ECF0E080818F7D808329
:1013100010922F0408959B01AC018EE7E6E3F3E001
:10132000DF011D928A95E9F7E4EBF3E0108211A644
:101330001092060460E472E48FE090E00E942F2E89
:10134000215031093093C5002093C40088E980936F
:10135000C1008EE08093C20010920701089581E0E1
:10136000809307011092C1000E947F098EE7E6E397
:10137000F3E0DF011D928A95E9F7E4EBF3E01082D8
:1013800011A61092060408950F931F93CF93DF9335
:1013900020910701211114C00097A1F08C010E9437
:1013A000E9080097B9F4C8ECD0E002C0209761F0DA
:1013B00090912F04992351F02097D1F02197F8CFE5
:1013C00081E01BC081E019C081E017C00E94E908DC
:1013D000009761F31F930F939F938F930E944B305D
:1013E0000E946F090F900F900F900F9080E005C042
:1013F0000E94E908009771F781E0DF91CF911F917A
:101400000F91089580910701811106C082E291E059
:101410000E94C4098111FACF0895809107018111BA
:1014200004C085E291E00E94C409089590910701EB
:10143000911107C0E0E3F4E080831182CF010E94A4
:10144000C4090895CF9320910701211128C0009766
:1014500041F1FC012081222331F101900020E9F7C4
:101460003197E81BF90BBA9700F5C62FBC0149E28A
:1014700050E080E394E00E941F30CC2359F080E3D9
:1014800094E00E94C4098111FACF80912F04811148
:10149000FCCF0CC080E394E00E94C40907C081E047
:1014A00005C081E003C081E001C081E0CF910895D3
:1014B0009091070181E0911180E008951F920F92B1
:1014C0000FB60F9211242F933F934F935F936F9317
:1014D0007F938F939F93AF93BF93EF93FF9361E0BD
:1014E0008BE00E947D026091790070E080E095E0E1
:1014F0000E949206882329F0EAE7F0E08081877F46
:10150000808360E08BE00E947D02FF91EF91BF91AC
:10151000AF919F918F917F916F915F914F913F918B
:101520002F910F900FBE0F901F9018951F920F9242
:101530000FB60F9211241F932F933F934F935F93F6
:101540006F937F938F939F93AF93BF93CF93DF93CB
:10155000EF93FF931091C600C091D604D091D704A9
:10156000209751F40E941009EC019093D7048093C6
:10157000D604892B09F462C1812F90E00E940530C6
:101580009C018091D504882321F081508093D5045B
:1015900055C12B3121F482E08093D5044FC12D3009
:1015A00009F03FC080919404882331F1E091D40484
:1015B000EE23F9F082E08883809192049091930465
:1015C0009A83898380919104882379F090E0019730
:1015D0004091900454E1589F9001599F300D11247F
:1015E000C20FD31FC40FD11D1B82F0E0EB56FB4F7F
:1015F00010820E940D0A04C08FEF9FE79A838983AF
:101600001092D404109290041092930410929204B9
:10161000109291041092D7041092D6041092940460
:101620000DC1222309F40AC1E091D4044E2F50E0E9
:10163000DA01AB56BB4F2C93EE2309F4D6C02F37FB
:1016400009F05FC0E150E093D404809191048111CE
:1016500013C0F0E0EB56FB4F4081809192049091D3
:101660009304841B91096AE070E00E941B2E709322
:1016700093046093920439C090919004992391F05F
:101680004FEF490F4093900490E0019754E1589F29
:10169000B001599F700D1124C60FD71FC40FD11D63
:1016A0001B8223C0F0E0EB56FB4F90819032A1F4F7
:1016B000815080939104DE0194E1899FA00DB11DBA
:1016C00011241396FD0101900020E9F73197EA1BE0
:1016D000FB0BE093900409C094E1899FC00DD11DDC
:1016E00011241B828150809391048091D404E82FAF
:1016F000F0E0EB56FB4F1082811193C010929404DE
:1017000090C0203279F5FA01EC56FB4F808180328F
:1017100009F494C080919104682F70E0FB01319628
:1017200033970CF08BC0882379F061507109909148
:101730009004A4E1A69FF001A79FF00D1124CE0F05
:10174000DF1FC90FD11D1B828F5F80939104109200
:1017500090044F5F5F4F4E3351050CF04EE34093C2
:10176000D4045FC080919004843108F067C0409138
:101770009104411119C04091920450919304BA010F
:10178000660F771F440F551F440F551F440F551FF9
:10179000460F571F420F511D5093930440939204DC
:1017A0008F5F8093900416C050E04150510991E042
:1017B000980F90939004E4E1E49FB001E59F700DD1
:1017C0001124C60FD71FFE01E80FF11D2383C90F97
:1017D000D11D1B828091D40490E001968E33910537
:1017E0000CF08EE38093D4041CC02F3741F4809119
:1017F00092049091930418161906BCF01BC0203275
:10180000E9F010929104C901992790939304809371
:1018100092041B821F8A1BA681E08093940480930C
:10182000D404822F0E94160A09C0109293041092C9
:101830009204F7CF1092930410929204FF91EF91CB
:10184000DF91CF91BF91AF919F918F917F916F91D8
:101850005F914F913F912F911F910F900FBE0F906D
:101860001F9018951F920F920FB60F9211242F936D
:101870003F934F935F936F937F938F939F93AF9318
:10188000BF93EF93FF9380918E0490918F04892BE7
:1018900031F40E94C20890938F0480938E04E091EB
:1018A0008E04F0918F0480918D04DF01A80FB11D8B
:1018B0009C91992331F08F5F80938D049093C600A3
:1018C0000DC010928D0410820E94C20890938F0464
:1018D00080938E04892B11F40E947F09FF91EF9170
:1018E000BF91AF919F918F917F916F915F914F9138
:1018F0003F912F910F900FBE0F901F9018951F9240
:101900000F920FB60F921124EF92FF920F931F9335
:101910002F933F934F935F936F937F938F939F93F7
:10192000AF93BF93EF93FF93CF93DF931F92CDB706
:10193000DEB780918A0590918B05A0918C05B091BE
:101940008D050196A11DB11D80938A0590938B058D
:10195000A0938C05B0938D0580919305909194058B
:10196000A0919505B09196050196A11DB11D80939A
:10197000930590939405A0939505B0939605809157
:101980000D05882329F080910D05815080930D0568
:1019900080910C05882329F080910C05815080935B
:1019A0000C0580911801882391F180913C058823D2
:1019B00009F4FEC240918A0550918B0560918C0517
:1019C00070918D058091860590918705A09188057D
:1019D000B0918905481759076A077B0708F4E8C2E0
:1019E00040918A0550918B0560918C0570918D0511
:1019F0008091820590918305A0918405B091850521
:101A0000481759076A077B0708F482C2D1C2809140
:101A10003C058823D1F040918A0550918B05609157
:101A20008C0570918D058091820590918305A09120
:101A30008405B0918505481759076A077B0728F088
:101A400010923C0581E0809318018091180181116A
:101A5000AFC28091970590919805A0919905B0919A
:101A60009A05892B8A2B8B2B09F04AC0109285048A
:101A700020915105309152058091590590915A0558
:101A8000821793070CF445C140919205809153054C
:101A90009091540550E08A01081B190BE0905B05FA
:101AA000F0905C056091120170E085E295E00E9483
:101AB000B728A8011016110614F041E050E04E9D21
:101AC000F0014F9DF00D5E9DF00D11249C012C50F6
:101AD0003E4F369527953695279536952795A5EC53
:101AE000B0E20E94762E929582958F7089279F7022
:101AF0008927E81BF90BF0930D01E0930C01E5C079
:101B000020915105309152058091590590915A05C7
:101B1000821793070CF4D9C06091120170E085E23E
:101B200095E00E94B7288C509E4F9C0136952795D2
:101B30003695279536952795A5ECB0E20E94762E2E
:101B40009C01329522952F7023273F702327809187
:101B500050058230B9F410928504809197059091D8
:101B60009805A0919905B0919A0540915B05509117
:101B70005C05840F951F821B930B90930D0180933E
:101B80000C01C7C080915005833009F076C0809168
:101B90009205609153057091540540911601509142
:101BA000170190E0861B970B84179507C9F5809164
:101BB00057059091580560915B0570915C050E94F6
:101BC0001B2E281739078CF44091970550919805E2
:101BD0006091990570919A05480F591F421B530B4C
:101BE00050930D0140930C0170C0821793070CF0C5
:101BF00070C040919705509198056091990570913A
:101C00009A05E0915905F0915A054E0F5F1F840F18
:101C1000951F821B930B90930D0180930C0155C06F
:101C20008091970590919805A0919905B0919A059A
:101C3000E0915705F0915805409192056091530548
:101C40007091540500915B0510915C0550E0461BB6
:101C5000570B409FB001419F700D509F700D112494
:101C60008E1B9F0B860F971F821B930B90930D016A
:101C700080930C01109285044CC0409197055091BF
:101C800098056091990570919A0580910C01909149
:101C90000D01092E000CAA0BBB0B84179507A60794
:101CA000B70799F48091970590919805A0919905AF
:101CB000B0919A052091510530915205820F931FE2
:101CC00090930D0180930C0104C0809185048823BA
:101CD00001F1109285046091120170E082E89BE1AD
:101CE0000E941B2ECB016AE070E00E941B2E660F43
:101CF000771F7093900560938F05198240E050E044
:101D0000BE016F5F7F4F85E295E00E94B927109278
:101D10001A018091550590915605892BB1F160917A
:101D20009705709198058091990590919A05209159
:101D30005B0530915C05032E000C440B550B0E9493
:101D4000512E672B682B692B09F404C11EC08091AA
:101D50005005882309F40CC181E08093840420910C
:101D60001601309117018091550590915605821703
:101D7000930734F481E090E090931701809316016B
:101D8000109258051092570505C08091840488234D
:101D900009F49FC080911A018111F4C09AC020916A
:101DA0009205409116015091170180915305909131
:101DB000540530E0840F951F2817390709F0F5C046
:101DC000EEC040913E0550913F0580914005282F7F
:101DD000082E000C330B3F938F93FA01F695E7958D
:101DE000F695E7959F01ABE7B4E10E94762E9695B4
:101DF000879564E6689F9001699F300D1124CA01A0
:101E0000821B930B9C012B5F3F4FADECBCEC0E94FF
:101E1000762E9695879596958795969587959F9317
:101E20008F939F01ABE7B4E10E94762E969587953C
:101E30009F938F9387E291E09F938F9388ED94E037
:101E40009F938F930E944B3068ED74E080E195E0A2
:101E50000E94183019820FB6F894DEBF0FBECDBFB6
:101E600012C08091920590E0BC01660F771F660F4B
:101E7000771F680F791F64547D4F80E195E00E94C1
:101E8000183081E089836091110170E082E89BE164
:101E90000E941B2ECB016AE070E00E941B2E660F91
:101EA000771F7093900560938F0540E050E0BE016E
:101EB0006F5F7F4F80E195E00E94B92781E08093BA
:101EC00091058091160190911701909315018093CF
:101ED0001401109250058091970590919805A0915A
:101EE0009905B0919A050196A11DB11D80939705A2
:101EF00090939805A0939905B0939A058091570502
:101F0000909158050196909358058093570550C0BD
:101F100010928E051092180181E0898340E050E014
:101F2000BE016F5F7F4F80E195E00E94B92760910D
:101F3000110170E082E89BE10E941B2ECB016AE058
:101F400070E00E941B2E660F771F709390056093C0
:101F50008F052EC08091970590919805A0919905C5
:101F6000B0919A05892B8A2B8B2B09F0F0CEF4CEF9
:101F7000809116019091170101969093170180931B
:101F80001601EACE60E08DE00E947D02109284048A
:101F9000809155059091560502970CF000CF8091E5
:101FA0009205833109F05DCF0CCF1092910591CF4E
:101FB0000F90DF91CF91FF91EF91BF91AF919F91E2
:101FC0008F917F916F915F914F913F912F911F91D1
:101FD0000F91FF90EF900F900FBE0F901F901895EC
:101FE0001F920F920FB60F9211242F933F934F938E
:101FF0005F936F937F938F939F93AF93BF93EF9371
:10200000FF938091830491E0811190E09093830489
:1020100090914E05992361F0811105C061E089E03E
:102020000E947D0209C060E089E00E947D0204C038
:1020300060E089E00E947D02FF91EF91BF91AF9136
:102040009F918F917F916F915F914F913F912F91D0
:102050000F900FBE0F901F9018951F920F920FB602
:102060000F9211248F939F93EF93FF938091190107
:10207000882309F44BC080917F05811130C0809185
:10208000820481112CC080917D058823A1F036C087
:102090001092820498B18F70907F892B88B99BB180
:1020A00080918104807382958F709C7F892B8BB97E
:1020B000109281042BC0809181048F3339F18FE31A
:1020C0008093810488B18F6088B98BB1909181042D
:1020D000907392959F708C7F892B8BB917C0E0917C
:1020E000820491E09E0F90938204F0E0E35AFA4F4D
:1020F000808180938104903258F6CCCF81E0809328
:10210000820480915D0580938104C4CFFF91EF919B
:102110009F918F910F900FBE0F901F9018958091F7
:10212000820590918305A0918405B0918505811564
:102130009646AE4EBF4508F467C0809182059091E7
:102140008305A0918405B091850581159646AE4E14
:10215000BF4508F45BC080918A0590918B05A091E2
:102160008C05B0918D0581159646AE4EBF4508F49D
:102170004FC0409182055091830560918405709114
:1021800085058091860590918705A0918805B0917D
:10219000890584179507A607B707E0F540918A05DA
:1021A00050918B0560918C0570918D058091820511
:1021B00090918305A0918405B091850584179507BA
:1021C000A607B70748F140918A0550918B056091A9
:1021D0008C0570918D058091860590918705A09161
:1021E0008805B091890584179507A607B70730F4CD
:1021F00080911801811112C085E0089580913C05FD
:10220000882371F081E0089582E0089582E00895C6
:1022100082E0089582E0089582E0089583E00895C1
:1022200084E0089520911401309115019FE2921BE2
:1022300097BD80934E0508951F920F920FB60F928F
:1022400011242F933F934F935F936F937F938F93BB
:102250009F93AF93BF93EF93FF93CF93DF9300D000
:10226000CDB7DEB78091010590910205A0910305DD
:10227000B09104050196A11DB11D809301059093B5
:102280000205A0930305B093040581E089831A82B7
:1022900084E00E94320290913B05992309F435C1F4
:1022A000882309F435C131C144E050E060E070E0BA
:1022B000409393055093940560939505709396050C
:1022C00091E090933A0590910E01891325C02091D9
:1022D0004C0530914D052B3B304154F420914C0579
:1022E00030914D052F5F3F4F30934D0520934C05A6
:1022F00020914C0530914D05203931059CF08130FD
:1023000009F415C192E090934B0581110BC061E077
:102310008DE00E947D0206C080930E0110924D0553
:1023200010924C058091180181110BC1809191058B
:10233000811101C106C161E088E00E947D0284E94B
:1023400095E090938C0480938B0401C180918B0461
:1023500090918C04009731F0019790938C048093B6
:102360008B04F5C08091890490918A040097E1F173
:10237000019790938A0480938904892B09F0E7C020
:10238000AE014E5F5F4FBE016F5F7F4F80E090E018
:102390000E94B927809388048981811114C08A81A1
:1023A000882389F01092880481E080931A0180913B
:1023B0004F05882341F01092910584E995E09093B0
:1023C000870480938604609188048DE00E947D02DA
:1023D000609188048AE00E947D0280918804809345
:1023E0007F050E941211B3C080914B05823029F005
:1023F000609188048DE00E947D02609188048AE0EB
:102400000E947D028091880480937F050E941211B2
:1024100080918F059091900590938A048093890410
:1024200096C080918B0490918C04009739F484E6D7
:1024300090E090938C0480938B041CC00197909340
:102440008C0480938B04892BA9F460E088E00E94BF
:102450007D0210C08091860490918704009751F00E
:1024600001979093870480938604892B19F481E067
:102470008093910580918E05882379F1809189045C
:1024800090918A04009701F1019790938A048093B8
:102490008904892B81F5AE014E5F5F4FBE016F5FEE
:1024A0007F4F80E090E00E94B92780938804682FD6
:1024B0008DE00E947D0280918F0590919005909310
:1024C0008A048093890417C080918F0590919005AC
:1024D00090938A04809389040EC080918804882395
:1024E00051F01092880480914B05823021F060E019
:1024F0008DE00E947D0260E08AE00E947D021092E1
:102500007F0580E00E94121122C010923B05DBCEB5
:1025100040919305509194056091950570919605B1
:10252000433051056105710509F0CDCEBDCE81E086
:1025300080934B05F7CE88E00E943202811106CFCE
:10254000FACE88E00E94320281116BCF83CF0F90C8
:102550000F90DF91CF91FF91EF91BF91AF919F913C
:102560008F917F916F915F914F913F912F910F903C
:102570000FBE0F901F9018951F93CF93DF9300D03D
:10258000CDB7DEB7162F009731F0FC018081823184
:1025900011F0809392050E94232960938A0570931D
:1025A0008B0580938C0590938D0510924F05F894C0
:1025B000E09192058E2F90E0FC013197E331F10517
:1025C00008F086C0ED57FF4F0C94702E8CE390E01E
:1025D00090935C0580935B058CE291E090935A05A3
:1025E0008093590525E030E030935605209355053A
:1025F000109254051092530528E0209311019093F6
:1026000052058093510592C08CE090E090935C0558
:1026100080935B058CE390E090935A058093590575
:1026200085E090E0909356058093550588E080936F
:10263000110187E090E0909354058093530588E55D
:1026400092E0909352058093510570C08CE090E029
:1026500090935C0580935B052CE330E030935A0542
:102660002093590525E030E0309356052093550519
:102670002FE020931101909354058093530588E532
:1026800092E0909352058093510550C08EE190E006
:1026900090935C0580935B058CE390E090935A05E2
:1026A0008093590582E090E09093560580935505FC
:1026B00088E08093110182E190E09093540580932B
:1026C00053058FE090E090935205809351052EC002
:1026D0008091800580934F0581E090E090935605AE
:1026E0008093550588E080931101809180058111C8
:1026F00003C088E592E002C08CE390E0909352051D
:1027000080935105809151059091520590935C05FD
:1027100080935B05109254051092530580915105EA
:102720009091520590935A0580935905111106C056
:1027300010923C0581E080931801D9C01130C1F49A
:1027400081E090E090931701809316011092970515
:10275000109298051092990510929A0510925805BA
:102760001092570510923C051092180110E0BFC05E
:102770001230A9F5809192052091530530915405AE
:1027800090E0821B930B9093170180931601409168
:1027900016015091170120915B0530915C05429F15
:1027A000C001439F900D529F900D1124092E000CE3
:1027B000AA0BBB0B8093970590939805A09399055E
:1027C000B0939A05109258051092570510923C0547
:1027D0001092180182E08093500510E088C040916B
:1027E00086055091870560918805709189058091D3
:1027F0008A0590918B05A0918C05B0918D054817A5
:1028000059076A077B0708F05AC080918A059091A2
:102810008B05A0918C05B0918D0540918605509156
:1028200087056091880570918905841B950BA60B1F
:10283000B70B8093970590939805A0939905B09353
:102840009A056091970570919805809199059091EE
:102850009A052091590530915A05032E000C440B1E
:10286000550B0E94512E7093580560935705809127
:1028700057059091580560915B0570915C050E9429
:102880001B2E6F5F7F4F80915505909156059A835F
:10289000898389819A818617970734F0161617065F
:1028A0002CF061E070E002C069817A8170931701B9
:1028B0006093160183E08093500511E013C01092DD
:1028C0009705109298051092990510929A0581E04B
:1028D00090E0909317018093160110925805109282
:1028E000570510E081E080933C05809318018091AA
:1028F000160190911701909315018093140180E0C7
:102900000E9412111092900510928F05109291055D
:1029100010923D0560E08DE00E947D0260E08AE05B
:102920000E947D0210927F0510928E0510923D0547
:102930007894812F0F900F90DF91CF911F91089580
:102940008FEF9FEFEAE7F0E0208126FF04C00097B9
:1029500011F00197F9CF2091780030917900EAE7E2
:10296000F0E0908190649083C90108950F931F93C4
:10297000CF93DF9360910F0170911001072E000C2F
:10298000880B990B0E940E2C20E030E040E251E4CD
:102990000E94642B062F172FD82FC92F20E030E07C
:1029A00048E453E40E94FD2C18166CF020E030E05F
:1029B00048E453EC602F712F8D2F9C2F0E945A2BCF
:1029C000882334F009C000E010E0D8E4C3E404C078
:1029D00000E010E0D8E4C3EC0E94A0140E94A01410
:1029E000BC0180E090E00E940C2C2EEA37E242EA23
:1029F00053E40E94ED2A26EF38E24CE95FE30E949F
:102A0000642B202F312F4D2F5C2F0E94EE2A0E9425
:102A10006F2DDF91CF911F910F9108950E94A01407
:102A20000E94A0149C01ADEEB0E00E94762EDC0165
:102A3000CB01689416F8B695A79597958795169447
:102A4000D1F7089510927A0010927B0010927C00CA
:102A5000811122C0ECE7F0E0808186608083808174
:102A6000806C8083808180628083EAE7F0E08081EF
:102A7000866080838081806280838081886080839B
:102A8000808180688083662321F1808188608083D3
:102A90008081806480830895ECE7F0E09081906C01
:102AA0009083813021F480818860808305C0ECE7C9
:102AB000F0E0808187608083EAE7F0E080818760D2
:102AC00080838081806880838081806480830E948D
:102AD000A0140895FC012191222341F030E02053FD
:102AE00031092A303105B8F380E0089581E0089576
:102AF000CF93C82F0E948F10F894C1110EC082305E
:102B000031F460E080E090E00E94BC123EC063E0DF
:102B100080E090E00E94BC1238C0C230C9F482301C
:102B200031F461E080E090E00E94BC122EC0813060
:102B300019F08350823030F461E080E090E00E9430
:102B4000BC1223C063E080E090E00E94BC121DC074
:102B5000823031F461E080E090E00E94BC1215C048
:102B6000813031F462E080E090E00E94BC120DC040
:102B7000843031F463E080E090E00E94BC1205C034
:102B800063E080E090E00E94BC1210928E05789481
:102B9000CF910895CF93C82F0E948F10F894C23020
:102BA00031F460E080E090E00E94BC1215C08130FA
:102BB00031F462E080E090E00E94BC1208C08430F2
:102BC00031F460E080E090E00E94BC1205C060E05B
:102BD00080E090E00E94BC1280914B05823021F48D
:102BE00060E08DE00E947D02CF9108951F920F92C8
:102BF0000FB60F9211242F933F934F935F936F93D0
:102C00007F938F939F93AF93BF93EF93FF9384E052
:102C10000E94320210924D0510924C058823D9F083
:102C200080911801882371F080914B05823099F4CE
:102C300010924B0560E08DE00E947D0281E00E94D1
:102C4000781509C080914B05823029F410924B050C
:102C500081E00E94CA15FF91EF91BF91AF919F91C2
:102C60008F917F916F915F914F913F912F910F9035
:102C70000FBE0F901F9018950E94232960938A051C
:102C800070938B0580938C0590938D05809125051D
:102C9000811105C065E08BE995E00E946B0380918E
:102CA0008A0590918B05A0918C05B0918D058115B9
:102CB0009646AE4EBF4528F462E08BE995E00E944F
:102CC0006B0340918205509183056091840570915A
:102CD000850580918A0590918B05A0918C05B09116
:102CE0008D05481759076A077B0700F5409186054F
:102CF00050918705609188057091890580918A05BA
:102D000090918B05A0918C05B0918D0548175907BE
:102D10006A077B0728F463E08BE995E00E946B0368
:102D200064E08BE995E00E946B030895409186056D
:102D300050918705609188057091890580918A0579
:102D400090918B05A0918C05B0918D05481759077E
:102D50006A077B0728F461E083E391E00E94220A7E
:102D600008952F923F924F925F926F927F928F922F
:102D70009F92AF92BF92CF92DF92EF92FF920F930A
:102D80001F93CF93DF93CDB7DEB72C970FB6F89490
:102D9000DEBF0FBECDBF2B013C0149015A016217B6
:102DA00073078407950750F0E114F10409F404C196
:102DB00061E0C7010E94220A81E0FFC001151105F0
:102DC00021F061E0C8010E94220A75016401C41863
:102DD000D508E608F708C701B60120E833E341EE5D
:102DE00051E00E942F2E29013A014427552760E81F
:102DF00073E381EE91E00E94F72DC61AD70AE80A24
:102E0000F90AC701B60120E831E541E050E00E942F
:102E10002F2E49015A0119014427552760E871E511
:102E200081E090E00E94F72DC61AD70AE80AF90A55
:102E3000C701B60120E13EE040E050E00E942F2EA5
:102E400029833A834B835C8329813A813A87298796
:102E500029813A814B815C8144275527A0E1BEE05E
:102E60000E948C2EC61AD70AE80AF90AC701B601D1
:102E70002CE330E040E050E00E942F2E2D833E8373
:102E80004F8358870D811E812CE3209FC001219F15
:102E9000900D1124A601481B590B5C874B8710929B
:102EA000D80441145104B9F05F924F9285E491E047
:102EB0009F938F9388ED94E09F938F930E944B3064
:102EC00061E088ED94E00E94220A0F900F900F902D
:102ED0000F900F900F902328B9F09F928F928DE45E
:102EE00091E09F938F9388ED94E09F938F930E943E
:102EF0004B3061E088ED94E00E94220A0F900F9021
:102F00000F900F900F900F9089859A85892BC9F0AB
:102F10009A819F93E981EF9386E591E09F938F9348
:102F200088ED94E09F938F930E944B3061E088ED91
:102F300094E00E94220A0F900F900F900F900F9034
:102F40000F90012BC9F0FE81FF932D812F938EE509
:102F500091E09F938F9388ED94E09F938F930E94CD
:102F60004B3061E088ED94E00E94220A0F900F90B0
:102F70000F900F900F900F903C853F934B854F9390
:102F800086E691E09F938F9388ED94E09F938F93D3
:102F90000E944B3061E088ED94E00E94220A0E947A
:102FA0000D0AE8EDF4E010820F900F900F900F9053
:102FB0000F900F9080E001C081E02C960FB6F8943E
:102FC000DEBF0FBECDBFDF91CF911F910F91FF905C
:102FD000EF90DF90CF90BF90AF909F908F907F90B9
:102FE0006F905F904F903F902F900895EF92FF92D7
:102FF0000F931F9363E080E090E00E94BC120E9458
:10300000232960938A0570938B0580938C05909398
:103010008D050E948F10823009F45AC020918605D8
:1030200030918705409188055091890560918A0506
:1030300070918B0580918C0590918D050F2EFDE68A
:10304000EF2EF1E0FF2EF02D0AE711E00E94B116FD
:10305000209182053091830540918405509185052A
:10306000609186057091870580918805909189050A
:10307000E12CF12C06E811E00E94B1164091860582
:1030800050918705609188057091890580918A0526
:1030900090918B05A0918C05B0918D05481759072B
:1030A0006A077B07B8F4209182053091830540912F
:1030B00084055091850560918A0570918B058091FA
:1030C0008C0590918D050EE811E00E94B11602C0AA
:1030D0000E943C161F910F91FF90EF9008954F9220
:1030E0005F926F927F928F929F92AF92BF92EF9278
:1030F000FF920F931F93CF93DF93CDB7DEB72C973B
:103100000FB6F894DEBF0FBECDBF8C01E42EFC01DC
:1031100001900020E9F73197E81BF90B25E06638AC
:10312000720749F580918A0590918B05A0918C05D5
:10313000B0918D0589879A87AB87BC8780E096E63A
:10314000AEEEBFE589839A83AB83BC8389859A857C
:10315000AB85BC8581159646AE4EBF4528F4898067
:103160009A80AB80BC8004C089849A84AB84BC8480
:10317000FF24F39442C062587540A9F580918605FA
:1031800090918705A0918805B09189058D839E83D4
:10319000AF83B88780918A0590918B05A0918C05AB
:1031A000B0918D0589839A83AB83BC834D815E8109
:1031B0006F81788589819A81AB81BC8148175907D5
:1031C0006A077B0740F489809A80AB80BC80689452
:1031D000FF24F1F812C08D809E80AF80B88468947F
:1031E000FF24F1F80AC0F12C0F2E812CF6E69F2E59
:1031F000FEEEAF2EFFE5BF2EF02DEC30F10509F00D
:103200005EC0C8010E946A15882309F44FC0B80146
:1032100080E090E00E9452292B013C01AE2DEE0C83
:10322000BB0B20E13EE00E94852E640D751D861DBE
:10323000971D86169706A806B90608F445C021E032
:10324000F21209C068E08BE995E00E946B0360E030
:1032500070E0CB0139C022E0F2121FC000918A0554
:1032600010918B0520918C0530918D0560177107A9
:103270008207930748F467E08BE995E00E946B03AF
:1032800060E070E0CB0120C066E08BE995E00E9431
:103290006B0360E070E0CB0117C06AE08BE995E05A
:1032A0000E946B0360E070E0CB010EC069E08BE927
:1032B00095E00E946B0360E070E0CB0105C0EF2B4E
:1032C000A9F760E070E0CB012C960FB6F894DEBF52
:1032D0000FBECDBFDF91CF911F910F91FF90EF9067
:1032E000BF90AF909F908F907F906F905F904F9026
:1032F0000895833009F128F4882349F08230A9F039
:1033000037C0853039F1F8F0863059F131C088EE98
:1033100093E0909389008093880060E071EE80E0F4
:1033200090E00E948B0980E02AC08CE292E09093AA
:1033300089008093880026C081E792E090938900FD
:10334000809388001FC08AEC92E09093890080935C
:10335000880018C081E493E09093890080938800EE
:1033600011C088EE93E090938900809388000AC092
:1033700084EF91E0909389008093880003C080934C
:10338000190108950E94500581E0F9CF2F923F92D4
:103390004F925F926F927F928F929F92AF92BF9265
:1033A000CF92DF92EF92FF920F931F93CF93DF9311
:1033B000CDB7DEB72C970FB6F894DEBF0FBECDBFEA
:1033C0000F2EFFE96F2EF1E07F2EF02D0F2EF8ED7E
:1033D000AF2EF4E0BF2EF02D0F2EF6EC2F2EF1E0E5
:1033E0003F2EF02D0F2EF0E14F2EF5E05F2EF02D49
:1033F0000F2EF8E18F2EF2E09F2EF02D0E943E0955
:103400006C01009709F440C5DC0111968D919C91E7
:103410001297863CBEE19B0729F178F48E31F3E0E8
:103420009F0709F41AC18F362DE1920709F44CC2A7
:10343000873D924009F006C5B2C08237A3E29A07E1
:1034400009F47CC128F48A3E924209F408C2FAC405
:103450008433F4E29F0709F4D4C0853C944209F414
:1034600075C4F0C4D60113968C91139790E0009721
:1034700009F480C08234910509F4F0C486349105C2
:1034800009F4EEC483349105D9F457968C9157977B
:1034900058961C92823429F090E0C0970A9708F061
:1034A00069C0C60147960E94C02F992314F480E09A
:1034B00090E0863091050CF447C085E090E044C070
:1034C00083359105E9F5F6018789908D118E823457
:1034D00009F450C0863449F48FEC890F853008F028
:1034E00049C0892F90E084971BC0833541F48FEC4D
:1034F000890F8530C0F4892F90E0899711C09634E8
:1035000039F49FEC980F9530A8F590E0849708C0A7
:10351000933581F59FEC980F953060F590E0899791
:10352000009719F427C087E090E08730910514F4E4
:1035300087E090E0823191053CF081E190E004C0A9
:10354000C60103960E94C02F8231910598F48983A9
:10355000AE014F5F5F4F60E18BE995E00E94E902A9
:10356000809192059981981729F060E0CE0101962B
:103570000E94BC12809192051F928F937F926F924E
:10358000BF92AF920E944B3060E0C5010E94220AB8
:103590000F900F900F900F900F900F9057C4D6017F
:1035A00013968C918823B1F0C60103960E94DE2FFA
:1035B00070E0673071050CF066E060937E054EE7C1
:1035C00055E061E18BE995E00E94E90280917E057A
:1035D0000E94791980917E051F928F9387EA91E06E
:1035E0009F938F93BF92AF920E944B3060E0C501D2
:1035F0000E94220A0F900F900F900F900F900F9043
:1036000025C4F6018381882311F1803321F482E0FF
:103610000E94CA151BC4813321F482E00E947815F0
:1036200015C4823331F481E0809318010E94F617AB
:103630000DC4833331F462E080E090E00E94BC125C
:1036400005C461E08EEA91E00E94220AFFC361E0B6
:103650008EEA91E00E94220AF9C3D60113968C915A
:10366000882399F180E290E0F50191838083B6018F
:103670006D5F7F4FC5010E940D30D60157968C912A
:10368000882379F0F50101900020E9F7319780E275
:1036900090E091838083B601695E7F4FC5010E94EF
:1036A0000D30F50101900020E9F73197E85DF44015
:1036B000759758F4B50185E295E00E941830A50190
:1036C0006BE08BE995E00E94E902F201858988238D
:1036D000F1F06091120170E085E295E00E94B72858
:1036E000885A9D4F9C013695279536952795369596
:1036F0002795A5ECB0E20E94762E929582958F7068
:1037000089279F70892790930F0580930E0585E286
:1037100095E09F938F9383EB91E09F938F93BF925C
:10372000AF920E944B3061E0C5010E94220A0F90C7
:103730000F900F900F900F900F9088C3D6011396A3
:103740008C911397833509F051C057968C9188233B
:10375000D1F1C60147960E94DE2F862F90E085307A
:10376000910514F485E090E0853191050CF084E139
:103770008093120142E151E06FE08BE995E00E94F5
:10378000E902F20185898823F1F06091120170E06D
:1037900085E295E00E94B728885A9D4F9C01369596
:1037A00027953695279536952795A5ECB0E20E948A
:1037B000762E929582958F7089279F708927909396
:1037C0000F0580930E05809112011F928F938AEB53
:1037D00091E09F938F93BF92AF920E944B300F90D6
:1037E0000F900F900F900F900F9034C0803551F5CF
:1037F000F60187898823A9F0813339F0843539F0BF
:1038000091E0893529F090E003C091E001C091E09A
:103810009093800540E855E067E18BE995E00E94D0
:10382000E902809180051F928F933F922F92BF9261
:10383000AF920E944B300F900F900F900F900F900F
:103840000F9008C085E0EEEAF1E0D50101900D92FD
:103850008A95E1F760E0C5010E94220AF7C2D6010D
:1038600013968C918823C9F048E050E0B6016D5F53
:103870007F4FC5010E941F30F5011086C5010E94CF
:103880006A15882351F0F50101900020E9F731977E
:10389000E85DF440349708F0E5C281E495E09F9339
:1038A0008F938EEC91E09F938F93BF92AF920E9483
:1038B0004B3061E0C5010E94220A0F900F900F90DB
:1038C0000F900F900F90C2C2D60113968C91843541
:1038D00009F073C04CE050E0B601695E7F4FC5014E
:1038E0000E941F30F50114864091810541956AE8D8
:1038F00075E0C5010E946F1869877A878B879C875E
:10390000611571058105910541F10E9403298985A1
:103910009A85AB85BC8580938A0590938B05A0938F
:103920008C05B0938D0580918A0590918B05A091AF
:103930008C05B0918D05BF93AF939F938F938BEDC3
:1039400091E09F938F93BF92AF920E944B300FB63E
:10395000F894DEBF0FBECDBF92C220918605309194
:103960008705409188055091890560918A0570917D
:103970008B0580918C0590918D05E12CF12C0AE747
:1039800011E00E94B11680918A0590918B05A0915B
:103990008C05B0918D05BF93AF939F938F9386ED68
:1039A00091E09F938F93BF92AF920E944B300FB6DE
:1039B000F894DEBF0FBECDBF62C2833509F096C05A
:1039C000B601695E7F4FC5010E94183040918105A4
:1039D000419566E875E0C5010E946F186115710593
:1039E0008105910509F468C0609386057093870589
:1039F000809388059093890546E855E064E18BE95A
:103A000095E00E94E9028091820590918305A09142
:103A10008405B09185058D839E83AF83B88780919F
:103A2000860590918705A0918805B09189058058F9
:103A30009E4AAE4FBF4F89839A83AB83BC834D812F
:103A40005E816F817885481759076A077B0728F4DC
:103A500089819A81AB81BC8104C08D819E81AF81B7
:103A6000B8858093820590938305A0938405B093D5
:103A7000850542E855E065E18BE995E00E94E902A1
:103A80008091860590918705A0918805B091890560
:103A9000BF93AF939F938F9385EE91E09F938F9306
:103AA000BF92AF920E944B300E94F6170FB6F89467
:103AB000DEBF0FBECDBFE3C1809186059091870523
:103AC000A0918805B0918905BF93AF939F938F9381
:103AD00085EE91E09F938F93BF92AF920E944B30FF
:103AE0000FB6F894DEBF0FBECDBFC9C1863409F052
:103AF0006FC0B601695E7F4FC5010E9418304091CA
:103B00008105419562E875E0C5010E946F18611555
:103B100071058105910509F441C060938205709398
:103B20008305809384059093850542E855E065E11F
:103B30008BE995E00E94E90220918205309183058E
:103B400040918405509185056091860570918705A7
:103B50008091880590918905E12CF12C06E811E00F
:103B60000E94B1168091820590918305A0918405F1
:103B7000B0918505BF93AF939F938F9380EF91E0B2
:103B80009F938F93BF92AF920E944B300E94F61783
:103B90000FB6F894DEBF0FBECDBF71C18091820514
:103BA00090918305A0918405B0918505BF93AF9353
:103BB0009F938F9380EF91E09F938F93BF92AF92EB
:103BC0000E944B300FB6F894DEBF0FBECDBF57C179
:103BD0008F34B9F5D60157968C918823D9F0C60158
:103BE00047960E94C02F893154F4082E000C990B7F
:103BF000883EBFEF9B072CF488EE9FEF02C088E160
:103C000090E08093810541E855E066E18BE995E01D
:103C10000E94E90280918105282F082E000C330BA9
:103C20003F938F938CEF91E09F938F93BF92AF92CE
:103C30000E944B300F900F900F900F900F900F90AD
:103C40001EC1833409F5F6018789882351F0C60126
:103C500047960E94C02F8115F2E09F0710F40E9442
:103C60003C2A0E94D12A9F938F9387E092E09F93F2
:103C70008F93BF92AF920E944B300F900F900F9096
:103C80000F900F900F90FBC00E948F10823019F49C
:103C90000E943C16DBC0209186053091870540913B
:103CA00088055091890560918A0570918B058091F6
:103CB0008C0590918D050F2EFDE6EF2EF1E0FF2E85
:103CC000F02D0AE711E00E94B11620918205309193
:103CD000830540918405509185056091860570911A
:103CE00087058091880590918905E12CF12C06E8E3
:103CF00011E00E94B11640918605509187056091B0
:103D000088057091890580918A0590918B05A09115
:103D10008C05B0918D05481759076A077B0708F095
:103D200095C0209182053091830540918405509182
:103D3000850560918A0570918B0580918C05909125
:103D40008D050EE811E00E94B11680C0D6011396D1
:103D50008C911397833489F557968C918823A9F019
:103D6000C60147960E94C02F9C012153384F2F391E
:103D70003F4058F49093100180930F014FE051E0C1
:103D800062E18BE995E00E94E90280910F01909138
:103D900010019F938F938DE092E09F938F93BF923A
:103DA000AF920E944B3061E0C5010E94220A0F9041
:103DB0000F900F900F900F900F9080914005282F3B
:103DC000082E000C330B3F938F939F928F92BF92DC
:103DD000AF920E944B3061E0C5010E94220A4091DF
:103DE0003E0550913F05FA01F695E795F695E79562
:103DF0009F01ABE7B4E10E94762E9695879564E625
:103E0000689F9001699F300D1124421B530B5F93F3
:103E10004F939F010E94762E969587959F938F933F
:103E20008FE192E09F938F93BF92AF920E944B30AD
:103E300061E0C5010E94220A0FB6F894DEBF0FBEF2
:103E4000CDBF04C08BE995E00E94FF04D601129615
:103E50001C921E9211970E94020AD0CA80E077CB72
:103E600086E075CBB50181E495E00E94183041E40D
:103E700055E06EE08BE995E00E94E9020ECD61E02D
:103E8000C5010E94220AE2CF2C960FB6F894DEBF3D
:103E90000FBECDBFDF91CF911F910F91FF90EF909B
:103EA000DF90CF90BF90AF909F908F907F906F905A
:103EB0005F904F903F902F900895CF92DF92EF92B6
:103EC000FF92CF93DF931F92CDB7DEB7843439F4DE
:103ED000109213011092090110920801EFC3909102
:103EE0001301911107C021E130E0309309012093C3
:103EF00008017AC38A32A9F481E090E09093090125
:103F00008093080110927D0410927C0410927B042F
:103F100010927A041092790410927804809113011F
:103F2000CDC3E0910801F09109013197E331F1052A
:103F300008F0C4C3282FEA56FF4F0C94702E10923D
:103F40007D0410927C0410927B0410927A041092EB
:103F500079041092780480911301882309F4AEC388
:103F6000213439F482E090E09093090180930801B4
:103F7000A5C3223439F482E190E090930901809343
:103F800008019CC3233439F487E090E09093090141
:103F90008093080193C32A3209F490C330E0205380
:103FA000310930937B0420937A04809119018111A7
:103FB0000E94500583E190E09093090180930801ED
:103FC0007DC31092090110920801803339F483E017
:103FD00090E0909309018093080170C3813339F414
:103FE00084E090E0909309018093080167C38233D5
:103FF00039F485E090E090930901809308015EC355
:10400000833339F486E090E09093090180930801AE
:1040100055C3883309F052C380917704882309F48B
:104020004DC380E190E0909309018093080146C35D
:1040300080ED820F8A3008F540917A0450917B041C
:10404000CA01880F991F440F551F440F551F440F75
:10405000551F480F591F30E020533109420F531F9D
:1040600050937B0440937A04809178049091790472
:1040700001969093790480937804809178049091CC
:10408000790402970CF41AC31092090110920801E6
:104090008091920590917A04981310C381E090E08A
:1040A000909309018093080109C3833209F006C384
:1040B00082E00E94CA151092090110920801FEC206
:1040C000833209F0FBC282E00E9478151092090148
:1040D00010920801F3C2833209F0F0C20E94F61771
:1040E0001092090110920801E9C2833209F0E6C278
:1040F00062E080E090E00E94BC12109209011092F0
:104100000801DCC2813339F488E090E09093090122
:1041100080930801D3C2823339F489E090E0909310
:10412000090180930801CAC2833339F48DE090E01D
:104130009093090180930801C1C2843339F48AE065
:1041400090E09093090180930801B8C2853339F457
:104150008BE090E09093090180930801AFC2863311
:1041600069F48CE090E0909309018093080181E06C
:1041700090E09093790480937804A0C2893339F455
:104180008EE090E0909309018093080197C28234F9
:1041900039F48FE090E090930901809308018EC27A
:1041A000109209011092080189C28332C1F48091F2
:1041B0007C0490917D0404976CF062E674E081E4E5
:1041C00095E00E94183041E455E06EE08BE995E0FF
:1041D0000E94E90210920901109208016FC280ED5D
:1041E000820F8A3008F06AC280917C0490917D042D
:1041F000893091050CF062C2AC014F5F5F4F509364
:104200007D0440937C04FC01EE59FB4F2083FA01AE
:10421000EE59FB4F108252C28332E1F4E2E6F4E041
:1042200001900020E9F73197E256F440759768F461
:1042300062E674E085E295E00E94183045E255E0C0
:104240006BE08BE995E00E94E9021092090110925F
:10425000080134C280ED820F8A3008F02FC28091AD
:10426000780490917904892BC1F180917A0490911E
:104270007B04AC01440F551F880F991F880F991FAD
:10428000880F991F840F951F30E020533109280FA4
:10429000391F30937B0420937A0427323105C4F40C
:1042A00080917C0490917D04843191058CF4FC0113
:1042B000EE59FB4FD901AB59BD4F2C91208301968C
:1042C00090937D0480937C04FC01EE59FB4F108297
:1042D0001092790410927804F1C130E02053310932
:1042E00030937B0420937A0481E090E090937904EA
:1042F00080937804E3C18332F9F480917A04909139
:104300007B048231910598F48983AE014F5F5F4F42
:1043100060E18BE995E00E94E90280919205998124
:10432000981729F060E0CE0101960E94BC1210920D
:10433000090110920801C2C180ED820F8A3008F095
:10434000BDC180917A0490917B04AC01440F551F4C
:10435000880F991F880F991F880F991F840F951F29
:1043600030E020533109820F931F90937B04809398
:104370007A04A4C18332F9F44091810541956AE839
:1043800075E082E694E00E946F186B017C01611574
:1043900071058105910551F00E940329C0928A059B
:1043A000D0928B05E0928C05F0928D051092090158
:1043B0001092080183C180ED820F8A3008F07EC11F
:1043C00080917C0490917D04883291050CF076C137
:1043D000FC01EE59FB4F2083019690937D0480935E
:1043E0007C04FC01EE59FB4F108268C1833239F521
:1043F00040918105419566E875E082E694E00E946F
:104400006F186115710581059105A1F0609386050E
:1044100070938705809388059093890546E855E059
:1044200064E18BE995E00E94E90263E080E090E0BE
:104430000E94BC1210920901109208013FC180ED48
:10444000820F8A3008F03AC180917C0490917D04FB
:10445000883291050CF032C1FC01EE59FB4F2083EC
:10446000019690937D0480937C04FC01EE59FB4FF0
:10447000108224C1833239F540918105419562E86B
:1044800075E082E694E00E946F1861157105810560
:104490009105A1F060938205709383058093840554
:1044A0009093850542E855E065E18BE995E00E942F
:1044B000E90263E080E090E00E94BC1210920901E2
:1044C00010920801FBC080ED820F8A3008F0F6C020
:1044D00080917C0490917D04883291050CF0EEC0AF
:1044E000FC01EE59FB4F2083019690937D0480934D
:1044F0007C04FC01EE59FB4F1082E0C08332E9F4EA
:1045000080917A0490917B048831910588F4909190
:104510007804989F802D11248983AE014F5F5F4FEF
:1045200066E18BE995E00E94E9028981809381052B
:104530001092090110920801C1C080ED820F8A30EB
:10454000C8F480917A0490917B04AC01440F551F0C
:10455000880F991F880F991F880F991F840F951F27
:1045600030E020533109820F931F90937B04809396
:104570007A04A4C0223409F0A1C08FEF9FEF90937A
:104580007904809378049AC08332A1F480917A04EC
:1045900080937E0580917E050E9479194EE755E053
:1045A00061E18BE995E00E94E90210920901109205
:1045B000080184C0873008F081C0282F30E02053E4
:1045C000310930937B0420937A0478C0833239F424
:1045D00083E1898362E0CE0101960E94BC121092B1
:1045E0000901109208016AC0209178043091790481
:1045F000A9014F5F5F4F5093790440937804F9010C
:10460000EF5BFA4F9081891312C0E1E4F5E001906D
:104610000020E9F73197E154F540E417F50709F078
:104620004DC081E0809313018093770447C01092BE
:1046300079041092780410920901109208013EC08A
:10464000833201F580917A0490917B04009741F4C4
:1046500080E090E00E941B0581E080937D050DC005
:104660008C3321E092073CF010927D058BE391E0C2
:104670000E941B0502C00E941B05109209011092A6
:1046800008011CC080ED820F8A30C0F440917A048A
:1046900050917B04CA01880F991F440F551F440F86
:1046A000551F440F551F840F951F30E020533109CB
:1046B000820F931F90937B0480937A040F90DF9175
:1046C000CF91FF90EF90DF90CF9008952F923F927F
:1046D0004F925F926F927F928F929F92AF92BF9212
:1046E000CF92DF92EF92FF920F931F93CF93DF93BE
:1046F0001F92CDB7DEB780913A05882361F0109202
:104700003A058BE995E00E94A60460E071EE80E036
:1047100090E00E948B090E94C61980E095E00E94FB
:10472000BE06882309F436C180910D05811130C081
:1047300060E081E00E9422150E94B6140E94D62BF0
:10474000809140056817E1F0609340056A3114F0EC
:10475000695103C089E1861B682F062E000C770B78
:104760008BE995E00E94130520910A0530910B0515
:10477000A901480F511D87FD5A95CA010E943C2A84
:1047800060E080E00E9422158BE380930D057FC1DD
:1047900080910C0581117BC160E082E00E942215AE
:1047A0000E940E1590933F0580933E0560E080E0E7
:1047B0000E9422158BE080930C0569C1F50141919F
:1047C0005191619171915F0180E095E00E94DB055C
:1047D00080E095E00E94C106E62EF72ED82EC92E65
:1047E000272D362D452D542D0E94FD2C1816B4F47E
:1047F00020E034E244E759E46E2D7F2D8D2D9C2D71
:104800000E94FD2C181634F448017E2C6F2C5D2C70
:104810004C2C04C07E2C6F2C5D2C4C2C0F5F1F4F3A
:104820000430110559F643C1F5014191519161914F
:1048300071915F0180E095E00E94DB0580E095E0EA
:104840000E94C106E62EF72ED82EC92E252D342D16
:10485000432D522D0E94FD2C1816B4F420E034E2B2
:1048600044E759E46E2D7F2D8D2D9C2D0E94FD2C4B
:10487000181634F438015E2C4F2C3D2C2C2C04C01F
:104880005E2C4F2C3D2C2C2C0F5F1F4F043011053C
:1048900059F677200CF476C0C401880F991F880F51
:1048A000991F84579D4FFC01E60DF71D10818091E3
:1048B0008004181317C080910A0190910B01019692
:1048C00090930B0180930A01039761F481E0809338
:1048D0004A0510927F0410927E0410930905812FDF
:1048E0000E945D1F109380044DC0C0900105D090C0
:1048F0000205E0900305F090040580900505909076
:104900000605A0900705B090080580917E0490915F
:104910007F049C012F5F3F4F30937F0420937E04E0
:10492000039784F110924A0580911801882329F099
:1049300080918E05882309F4CDC0C818D908EA08EB
:10494000FB08FCEDCF16F5E0DF06E104F10420F4EE
:1049500010920B0110920A0110927F0410927E04B3
:104960008091010590910205A0910305B091040585
:104970008093050590930605A0930705B09308055D
:1049800010928004EAE7F0E0808188608083808173
:104990008064808380911801882309F4A0C08091ED
:1049A0004A058823B1F0198240E050E0BE016F5FF4
:1049B0007F4F8BE292E00E94B9278CE890E09093C1
:1049C000900580938F0581E080938E0510923D05C0
:1049D00086C010913D050E948F1080933D05809107
:1049E0003D05181709F47BC080913D058230A1F484
:1049F00011E0198340E050E0BE016F5F7F4F8DE210
:104A000092E00E94B9278CE890E090939005809303
:104A10008F0510938E0563C080913D058130A1F410
:104A200011E0198340E050E0BE016F5F7F4F8FE2DD
:104A300092E00E94B92786E490E0909390058093DD
:104A40008F0510938E054BC080913D05843021F079
:104A500080913D058330A1F411E0198340E050E0DE
:104A6000BE016F5F7F4F8DE292E00E94B9278CE814
:104A700090E09093900580938F0510938E052FC042
:104A800010928E0560E08DE00E947D0228C00F2EFE
:104A9000FCE9AF2EF2E0BF2EF02D00E010E08824FC
:104AA0008A94982C712C612C512C412C87CE992002
:104AB0000CF41BCF0F2EFCEAAF2EF2E0BF2EF02D30
:104AC00000E010E066246A94762C512C412C312CA5
:104AD000212CAACE60E08DE00E947D022ECF0F90A7
:104AE000DF91CF911F910F91FF90EF90DF90CF90CA
:104AF000BF90AF909F908F907F906F905F904F90FE
:104B00003F902F90089563E084E00E94620161E08D
:104B10008DE00E94620160E08DE00E947D0261E014
:104B20008DE00E94620160E08DE00E947D0261E004
:104B30008AE00E94620160E08AE00E947D0261E0FA
:104B400089E00E94620160E089E00E947D0261E0EC
:104B500088E00E94620160E088E00E947D0260E0DF
:104B600084E10E94620160E085E10E94620163E0ED
:104B70008CE00E94620161E08BE00E94620160E0D3
:104B80008BE00E947D020E94AF0987B18F6087B9D8
:104B900088B1807F88B98AB183608AB98BB18C7FF4
:104BA0008BB961E086E00E94620161E086E00E94CC
:104BB0007D0263E082E10E94620163E083E10E9482
:104BC00062010E9445078BE995E00E94C203182FFD
:104BD00061E080E00E942215F894A0EBB0E01C9206
:104BE000E1EBF0E010828C9182608C938081876091
:104BF00080838CE08093B3001092B400E6EBF0E089
:104C000080818F7D8083E0E7F0E010828081846086
:104C1000808310928000C1E8D0E018821092850055
:104C20001092840080917E050E94791988818860A5
:104C3000888388818160888314BC84B5826084BD48
:104C400015BC85B5846085BD8FE287BDEEE6F0E0DA
:104C50001082808182608083EDE6F0E0108280E146
:104C60008083E8E6F0E0108284E08083789480918D
:104C70001901811106C060E071EE80E090E00E94B1
:104C80008B0984E00E94320291E0811190E09093C0
:104C90003B05112329F061E089E392E00E94220A9A
:104CA00081E00E94582AC82F8BE995E00E94FF04FA
:104CB000CC2354F487E0E8E4F2E0A8EDB4E00190FE
:104CC0000D928A95E1F723C0C0FF0AC087E0EFE4A8
:104CD000F2E0A8EDB4E001900D928A95E1F717C0DB
:104CE000C1FF0AC087E0E6E5F2E0A8EDB4E001907C
:104CF0000D928A95E1F70BC0C5FF09C088E0EDE58C
:104D0000F2E0A8EDB4E001900D928A95E1F7809170
:104D1000D804882329F061E088ED94E00E94220AFB
:104D20000E943C160E94020AEFE6F0E08081826059
:104D3000808380E00E947815E9E6F0E0808182605F
:104D40008083E89A0E946623FDCF0F931F938BE91F
:104D500095E00E94E70200E018E726E936E440E02B
:104D600050E069E473E480E095E00E9473051F91D0
:104D70000F91089580E095E00E94C1058BE995E0D0
:104D80000E94E802089590E00E940530FC01FF2790
:104D9000B097ED35F10508F0E4C0E755FF4F0C94EE
:104DA000702E89E074E061E008958BE074E065E0C6
:104DB000089587E073E061E0089581E071E060E0CC
:104DC000089589E074E064E0089589E073E063E0A9
:104DD000089587E074E060E0089583E072E060E0A9
:104DE00008958DE074E06EE0089589E073E065E079
:104DF000089589E074E062E0089587E072E063E07E
:104E0000089585E072E061E008958BE073E067E06B
:104E100008958BE074E066E008958DE074E06BE047
:104E2000089587E073E062E0089585E073E060E054
:104E3000089583E071E061E0089587E073E064E045
:104E4000089589E074E068E0089589E073E066E021
:104E500008958BE074E069E008958DE074E06DE002
:104E600008958BE074E063E0089583E175E06FE1FD
:104E7000089581E175E06EE108958FE075E06CE1E1
:104E800008958DE075E068E108958BE075E060E1DC
:104E9000089589E075E060E008958BE075E061E0D9
:104EA00008958DE075E063E008958FE075E067E0B8
:104EB000089581E175E06FE0089581E176E06AE2AE
:104EC000089583E176E063E308958FE076E06CE097
:104ED000089583E176E06EE1089583E176E065E38D
:104EE00008958DE075E069E008958FE075E06DE06C
:104EF000089583E176E06DE208958BE075E062E06D
:104F0000089581E176E067E008958CE076E065E160
:104F100008958DE075E061E108958DE075E06AE047
:104F200008958FE076E061E2089581E176E06CE239
:104F300008958FE076E062E1089581E177E068E42A
:104F4000089581E176E066E1089584E077E06FEF0F
:104F5000089587E077E06EEF089583E175E06FE1F3
:104F6000089580E070E060E0089585E072E062E01E
:104F70000895CF93DF93EA010097B1F11092A7054E
:104F80006115710521F0DB012C9120931C01FC01BE
:104F900020812223D9F09093A6058093A50580E275
:104FA00080931B01822F0E94C3266093A2057093F9
:104FB000A3058093A4051092A1051092A00510925C
:104FC0009F0510929E0510929D050AC01092A6059D
:104FD0001092A50581E080939D05209709F08883B4
:104FE00010929C0580E0C0C0E091A505F091A60557
:104FF000309709F4AAC06115710521F080911C0158
:10500000DB018C9380919D05882349F0209709F45A
:10501000A8C081E088831092A70580E0A5C0809198
:105020009F05882321F0815080939F057FC0809148
:105030009C05882381F08091A70581110CC01092F6
:105040009C0580919E05882309F470C080939F057C
:1050500010929E056BC09091A3058091A0058917C1
:1050600090F18091A1058F5F8093A105DF01A80FCA
:10507000B11D8C9180931B01811119C080911C017D
:10508000882331F0808180931B011092A1050FC00D
:105090001092A6051092A50510929C0591E09093A0
:1050A0009D05209709F098831092A7055DC0809117
:1050B0001B010E94C3266093A2057093A3058093F1
:1050C000A4051092A0052091A2052D3F00F5409166
:1050D000A00531E0340F3093A00581E090E002C0DC
:1050E000880F991F4A95E2F7822321F082E080938E
:1050F0009F0502C010929F0581E080939C058091DE
:10510000A305381798F082E080939E050FC0809128
:10511000A3059FEF9093A00510929C05843020F08A
:10512000845080939F0502C010929F0580911B01BF
:105130008C3331F481E08093A705209741F414C0AB
:105140001092A705209719F409C0209719F08091B3
:105150009D0588838091A705811105C080919C05DC
:1051600003C080E001C081E0DF91CF910895CF922C
:10517000DF92EF92FF920F931F93CF93FC016B018D
:1051800080818823C1F08F010F5F1F4F7F0194E161
:10519000E90EF11CC0E005C0F80181918F01882360
:1051A00059F00E94C3266D3F08F4CD5FC80F0E155D
:1051B0001F0591F701C0C0E080EB94E0B6010E94AA
:1051C000072EC69FC001C79F900D1124CF911F913C
:1051D0000F91FF90EF90DF90CF900895982F9695C4
:1051E000969596959E71292F220F220F920F8F7000
:1051F000890F0895FC01208181818053F0E12F9F68
:10520000800D11240895CF93DF9300D000D01F921A
:10521000CDB7DEB7AE014F5F5F4F25E0FA011192C7
:105220002A95E9F79C838B837A83698324E06BE179
:1052300084EA0E94BE070F900F900F900F900F907E
:10524000DF91CF910895CF93DF9300D000D0CDB7F9
:10525000DEB719821A821B821C8224E0AE014F5FE6
:105260005F4F6BE184EA0E942108811111C02A81FD
:105270006B81862F90E0A0E0B0E0DC0199278827C1
:10528000922B2981822B2C81BC01CD01922B03C052
:1052900060E070E0CB010F900F900F900F90DF91C6
:1052A000CF9108956F927F928F929F92AF92BF920B
:1052B000CF92DF92EF92FF920F931F93CF93DF93E2
:1052C0006C01EB01209709F4B6C0CB010A960E944D
:1052D000FA28882ECE0108960E94FA28782ECE0150
:1052E00006960E94FA28982ECE0104960E94FA286B
:1052F000182FCE0102960E94FA28082FCE010E9494
:10530000FA280E94EE28E82EF12C570180E3A81A13
:1053100088EFB80A802F0E94EE28D82F812F0E9494
:10532000EE28682ED23068F000E010E0C1E06C2F6B
:10533000C5010E944101080F111DCF5FDC13F7CF9B
:1053400002C000E010E0862D660C990B0197080F53
:10535000191F882D0E94EE28882E872D0E94EE2886
:10536000C82F892D0E94EE28082C000C99089CE378
:10537000C902800C911C1124092C000CAA08BB083E
:10538000A82F880FBB0B20E13EE00E94852E860EE1
:10539000971EA81EB91ED80120E831E541E050E073
:1053A0000E94972E860E971EA81EB91ED7015E96E4
:1053B00020E833E341EE51E00E94972E860E971EBF
:1053C000A81EB91EC7014F96DC010AF41396B595C5
:1053D000A795B595A79520E831E541E050E00E94FA
:1053E000972E860E971EA81EB91EC7018D599F4F76
:1053F00064E670E00E941B2EDB0120E83EEA4EEFDF
:105400005FEF0E94972E860E971EA81EB91EC70139
:1054100081579E4F60E971E00E941B2EDB0120E85E
:1054200031E541E050E00E94972E680D791D8A1DFC
:105430009B1D30E009C00E94232931E061157105F0
:105440008105910509F030E0C114D10431F021E06B
:10545000311101C020E0F6012083DF91CF911F912F
:105460000F91FF90EF90DF90CF90BF90AF909F9003
:105470008F907F906F900895CF93DF9300D0CDB73A
:10548000DEB720E12A839C0136952795298380FF8A
:1054900002C080E98A8322E0AE014F5F5F4F66E37E
:1054A00084EA0E94BE070F900F90DF91CF9108957C
:1054B000CF93DF9300D0CDB7DEB71982882331F0C8
:1054C00085EC8A8381E08093A80504C085E48A8303
:1054D0001092A80521E0AE014E5F5F4F65E384EABC
:1054E0000E94BE07898181110CC021E0AE014F5F8F
:1054F0005F4F6EE084EA0E94210889818F7689835C
:1055000002C080E889831A8221E0AE014E5F5F4FBE
:105510006EE084EA0E94BE0789810F900F90DF91B0
:10552000CF910895CF93DF931F92CDB7DEB781E07F
:10553000898321E0AE014F5F5F4F6EE084EA0E94F5
:105540002108811107C08981807889838111F1CF79
:1055500080E003C089818823D9F30F90DF91CF9138
:105560000895CF93DF931F92CDB7DEB7198221E064
:10557000AE014F5F5F4F67E284EA0E94BE070E9460
:10558000922A82E1898321E0AE014F5F5F4F67E29B
:1055900084EA0E94BE070E94922A0F90DF91CF9169
:1055A0000895CF93DF9300D0CDB7DEB70E94B12A24
:1055B00022E0AE014F5F5F4F66E384EA0E9421085C
:1055C000898190E0880F991F2A8122230CF401968B
:1055D0000F900F90DF91CF9108955058BB27AA27C5
:1055E0000E94052B0C94AF2C0E94762C38F00E9460
:1055F0007D2C20F039F49F3F19F426F40C94732C81
:105600000EF4E095E7FB0C946D2CE92F0E94D42C4E
:1056100058F3BA17620773078407950720F079F4E7
:10562000A6F50C94F62C0EF4E0950B2EBA2FA02DB7
:105630000B01B90190010C01CA01A0011124FF273F
:10564000591B99F0593F50F4503E68F11A16F0403A
:10565000A22F232F342F4427585FF3CF4695379539
:105660002795A795F0405395C9F77EF41F16BA0BFE
:10567000620B730B840BBAF09150A1F0FF0FBB1FAC
:10568000661F771F881FC2F70EC0BA0F621F731FF5
:10569000841F48F4879577956795B795F7959E3F52
:1056A00008F0B0CF9395880F08F09927EE0F9795E3
:1056B000879508950E94492C08F481E008950E947E
:1056C000862CE3950C94C02C0E94782B0C94AF2C64
:1056D0000E947D2C58F00E94762C40F029F45F3F08
:1056E00029F00C946D2C51110C94F72C0C94732C04
:1056F0000E94D42C68F39923B1F3552391F3951BA1
:10570000550BBB27AA2762177307840738F09F5FE2
:105710005F4F220F331F441FAA1FA9F335D00E2E4F
:105720003AF0E0E832D091505040E695001CCAF7BC
:105730002BD0FE2F29D0660F771F881FBB1F26177F
:1057400037074807AB07B0E809F0BB0B802DBF0156
:10575000FF2793585F4F3AF09E3F510578F00C9425
:105760006D2C0C94F72C5F3FE4F3983ED4F38695B0
:1057700077956795B795F7959F5FC9F7880F911D46
:105780009695879597F90895E1E0660F771F881F32
:10579000BB1F621773078407BA0720F0621B730BE5
:1057A000840BBA0BEE1F88F7E09508950E94DD2B5D
:1057B0006894B1110C94F72C08950E94DC2C88F0A9
:1057C0009F5798F0B92F9927B751B0F0E1F0660FC5
:1057D000771F881F991F1AF0BA95C9F714C0B13006
:1057E00091F00E94F62CB1E008950C94F62C672FEE
:1057F000782F8827B85F39F0B93FCCF38695779535
:105800006795B395D9F73EF490958095709561951D
:105810007F4F8F4F9F4F0895E89409C097FB3EF448
:1058200090958095709561957F4F8F4F9F4F9923ED
:10583000A9F0F92F96E9BB279395F695879577956B
:105840006795B795F111F8CFFAF4BB0F11F460FF2B
:105850001BC06F5F7F4F8F4F9F4F16C0882311F083
:1058600096E911C0772321F09EE8872F762F05C097
:10587000662371F096E8862F70E060E02AF09A9532
:10588000660F771F881FDAF7880F9695879597F927
:105890000895990F0008550FAA0BE0E8FEEF1616C1
:1058A0001706E807F907C0F012161306E407F50714
:1058B00098F0621B730B840B950B39F40A2661F088
:1058C000232B242B252B21F408950A2609F4A1402B
:1058D000A6958FEF811D811D089597F99F6780E838
:1058E00070E060E008959FEF80EC089500240A9432
:1058F0001616170618060906089500240A941216AB
:1059000013061406050608950C94732C0E94DC2CD3
:10591000D8F3E894E0E0BB279F57F0F02AED3FE092
:1059200049EC06C0EE0FBB0F661F771F881F28F0DB
:10593000B23A62077307840728F0B25A620B730BFE
:10594000840BE3959A9572F7803830F49A95BB0FE3
:10595000661F771F881FD2F790480C94B02D092E30
:105960000394000C11F4882352F0BB0F40F4BF2BBA
:1059700011F460FF04C06F5F7F4F8F4F9F4F0895FA
:10598000EF93E0FF07C0A2EA2AED3FE049EC5FEBAE
:105990000E94052B0E94AF2C0F90039401FC90589D
:1059A000ECE0F2E00C94BC2D57FD9058440F551FCD
:1059B00059F05F3F71F04795880F97FB991F61F091
:1059C0009F3F79F087950895121613061406551F08
:1059D000F2CF4695F1DF08C0161617061806991F74
:1059E000F1CF86957105610508940895E894BB2769
:1059F00066277727CB0197F908950E94492C08F470
:105A00008FEF08950E94152D0C94AF2C0E94762CD8
:105A100038F00E947D2C20F0952311F00C946D2C11
:105A20000C94732C11240C94F72C0E94D42C70F33A
:105A3000959FC1F3950F50E0551F629FF001729F33
:105A4000BB27F00DB11D639FAA27F00DB11DAA1F42
:105A5000649F6627B00DA11D661F829F2227B00D8F
:105A6000A11D621F739FB00DA11D621F839FA00D1A
:105A7000611D221F749F3327A00D611D231F849F6A
:105A8000600D211D822F762F6A2F11249F575040C1
:105A90009AF0F1F088234AF0EE0FFF1FBB1F661F3C
:105AA000771F881F91505040A9F79E3F510580F005
:105AB0000C946D2C0C94F72C5F3FE4F3983ED4F3D8
:105AC000869577956795B795F795E7959F5FC1F7A9
:105AD000FE2B880F911D9695879597F908950E9442
