S00F000041726475636F6E2E7372656349
S11300000C942E010C949F110C9456010C945601DF
S11300100C94451A0C9456010C94030D0C9456013F
S11300200C947C0F0C9456010C9456010C942016DD
S11300300C9456010C9456010C94E7150C9456013B
S11300400C9456010C9456010C94930D0C942F0FA0
S11300500C9456010C94630D0C9456010C945601A7
S11300600C9456010C94560183018E019901A4014C
S1130070AF01BA01C501D001DB01E601F10148027B
S11300804802FC01070212021D02280233023E024A
S1130090530257025B025F02630267026B02700243
S11300A074028D028D0278027C028102850289022B
S11300B09E02A402AA02B002B602BC02C202C80294
S11300C0CE02D402DA02FD02FD02E002E602EC02F4
S11300D0F202F8026005BF05BF057D05A4055D05B4
S11300E0A705AD055A05B70557059E05A105B00539
S11300F00806DA050B06DD05E005E305E605E90576
S1130100EC05EF05F2053717371737173717371789
S1130110B717B71755175517551755175517771795
S11301207717771777177717B717971759245B241B
S1130130B024F124F82402250B2517259325FE2548
S11301408426CB26E3273F2612279C2733275D27C7
S113015057256C27B82459245B248924E527F824DF
S113016002250B2517259325FE258426CB26E52776
S11301703F2612279C2733275D2757256C27B82451
S1130180062DCA2CF62C0E2DFA2C0E2DDA2CC62C8C
S1130190D22CD62C0E2DEA2CBE2CEE2CBA2CCE2C26
S11301A0922C962C9A2C9E2CA22CA62CAA2CAE2CEB
S11301B0B22CB62CDE2CE22C0A2DE62C0E2DC22CF1
S11301C0FE2C122D2E2C322C362C3A2C3E2C422C6A
S11301D0462C4A2C4E2C522C562C5A2C5E2C622C1B
S11301E0662C6A2C6E2C722C762C7A2C7E2C822C0B
S11301F0862C8A2C8E2C0E2D0E2D0E2D0E2DF22CCF
S11302000E2D0E2D0E2D0E2D0E2D0E2D0E2D0E2D12
S11302100E2D0E2D0E2D0E2D0E2D0E2D0E2D0E2D02
S11302200E2D0E2D0E2D0E2D0E2D0E2D0E2D0E2DF2
S11302300E2D0E2D0E2D0E2D022D05A84CCDB2D453
S11302404EB93836A9020C50B9918688083CA6AA42
S1130250AA2ABE000000803F022C172C11241FBEC6
S1130260CFEFD8E0DEBFCDBF12E0A0E0B1E0E2E224
S1130270FEE602C005900D92A83DB107D9F725E02E
S1130280A8EDB2E001C01D92AF37B207E1F711E06B
S1130290CDE2D1E004C02197FE010E94DC31CC32D2
S11302A0D107C9F70E941E2B0C9404370C9400004C
S11302B0623021F40E946501845E0895683008F07C
S11302C06F5F61708EE1860F08959C012370332760
S11302D0232B59F464E670E00E948731892B39F4AA
S11302E06370772781E0672B19F080E0089581E03F
S11302F0089590E08431910508F0CAC0FC01EC5CDB
S1130300FF4F0C94DC31613011F4509A08955098E9
S1130310633011F4589A089558980895613011F48F
S1130320519A08955198633011F4599A089559983F
S11303300895613011F4529A08955298633011F47B
S11303405A9A08955A980895613011F4539A089569
S11303505398633011F45B9A08955B980895613063
S113036011F4549A08955498633011F45C9A0895E2
S11303705C980895613011F4559A08955598633046
S113038011F45D9A08955D980895613011F4569AB8
S113039008955698633011F45E9A08955E9808950E
S11303A0613011F4579A08955798633011F45F9AA5
S11303B008955F980895613011F4209A0895209863
S11303C0633011F4289A089528980895613011F43F
S11303D0219A08952198633011F4299A089529984F
S11303E00895613011F4229A08952298633011F42B
S11303F02A9A08952A980895613011F4259A089547
S11304002598633011F45D9A08955D9808956130DC
S113041011F4389A08953898633011F4409A089585
S113042040980895613011F4399A089539986330E9
S113043011F4419A089541980895613011F43A9A5B
S113044008953A98633011F4429A089542980895B1
S1130450613011F43B9A08953B98633011F4439A48
S1130460089543980895613011F43C9A08953C9896
S1130470633011F4449A089544980895613011F456
S11304803D9A08953D98633011F4459A089545982E
S1130490089590E0FC013297E031F105F0F5E85B56
S11304A0FF4F0C94DC3129B1247030E038C029B1FD
S11304B0287030E034C029B1207130E030C029B157
S11304C0207230E02CC029B1207430E028C029B15A
S11304D0207830E024C083B1282F217030E01FC081
S11304E023B1227030E01BC023B1247030E017C068
S11304F023B1207230E013C086B1282F217030E080
S11305000EC026B1227030E00AC026B1247030E05B
S113051006C026B1287030E002C020E030E081E05F
S1130520232B09F480E0089590E08231910508F0CE
S113053064C0FC01E85AFF4F0C94DC31662311F0CF
S1130540589A089558980895662311F0599A089571
S113055059980895662311F05A9A08955A9808955F
S1130560662311F05B9A08955B980895662311F051
S11305705C9A08955C980895662311F05D9A089535
S11305805D980895662311F05E9A08955E98089523
S1130590662311F05F9A08955F980895662311F019
S11305A0289A089528980895662311F0299A0895A1
S11305B029980895662311F02A9A08952A9808958F
S11305C0662311F02D9A08952D980895662311F04D
S11305D0409A089540980895662311F0419A089529
S11305E041980895662311F0429A08954298089517
S11305F0662311F0439A089543980895982F969589
S1130600969596959E71292F220F220F920F8F7027
S1130610890F0895FC01208181818053F0E12F9F8F
S1130620800D11240895CF92DF92EF92FF92CF9321
S1130630DF93EC01EE81FF818981C8800C2C000CD2
S1130640DD089CE38902C00CD11C11240D2C000C84
S1130650EE08FF08AA810A2E000CBB0B20E13EE045
S11306600E94F131C60ED71EE81EF91EA885B98571
S113067020E831E541E050E00E940332C60ED71E67
S1130680E81EF91EDF01A654B10920E833E341EE68
S113069051E00E940332C60ED71EE81EF91ECF0198
S11306A085549109DC010AF41396B595A795B5957F
S11306B0A79520E831E541E050E00E940332C60EE0
S11306C0D71EE81EF91ECF01019764E670E00E9470
S11306D08731DB0120E83EEA4EEF5FEF0E940332F0
S11306E0C60ED71EE81EF91ECF01855D9E4F60E938
S11306F071E00E948731DB0120E831E541E050E000
S11307000E9403326C0D7D1D8E1D9F1DDF91CF91C4
S1130710FF90EF90DF90CF900895DF92EF92FF92D9
S11307200F931F93CF93DF93CDB7DEB763970FB6C5
S1130730F894DEBF0FBECDBFAE014F5F5F4F87E0C1
S1130740DA011D928A95E9F727E060E080ED0E94C6
S1130750A00A811176C0FE0138968CE0DF011D925B
S11307608A95E9F72B81422F50E0CA019595879528
S113077095958795959587959595879581702F7013
S1130780BA01062E672F000C661F770B000C661F3C
S1130790771F60FD0CC05595479555954795559520
S11307A04795559547955595479540FD82E0880FA7
S11307B0D82EDD0CDD0C8D0DD82ED20E8F810E942B
S11307C0FE02E82EF12CC7018C599F4F9F878E871C
S11307D0B0E3EB1AB8EFFB0A8E810E94FE02082FE9
S11307E08FEF800F8D878D810E94FE028B870230F0
S11307F070F011E0612FC7010E94580128893989DE
S1130800280F311D398B288B1F5F0113F3CF8B8584
S1130810082E000C990B019728893989820F931FA0
S1130820998B888B89810E94FE02182F8A810E94ED
S1130830FE02DA8689871887CE0108960E94130380
S113084003C060E070E0CB0163960FB6F894DEBF9E
S11308500FBECDBFDF91CF911F910F91FF90EF900D
S1130860DF9008957F928F929F92AF92BF92CF9222
S1130870DF92EF92FF920F931F93CF93DF93CDB745
S1130880DEB72C970FB6F894DEBF0FBECDBF6C0158
S11308908B01FE0131968CE0DF011D928A95E9F708
S11308A06115710509F464C0CB010A960E940A031C
S11308B0A82EC80108960E940A03B82EC8010696FD
S11308C00E940A03F82EC80104960E940A03882E87
S11308D0C80102960E940A03782EC8010E940A03E6
S11308E0182F8F2D0E94FE02982E812F0E94FE0247
S11308F0E82EF12CC7018C599F4F98878F83B0E362
S1130900EB1AB8EFFB0A872D0E94FE02082F8FEF27
S1130910800F8E83882D0E94FE028C83023070F03B
S113092011E0612FC7010E94580129853A85280FDB
S1130930311D3A8729871F5F0113F3CF8C81082E5D
S1130940000C990B019729853A85820F931F9A878A
S113095089878A2D0E94FE02182F8B2D0E94FE0289
S11309609B828A831983CE0101960E94130302C0DD
S11309700E948D03C114D10449F021E06115710571
S11309808105910509F020E0F60120832C960FB62D
S1130990F894DEBF0FBECDBFDF91CF911F910F91B1
S11309A0FF90EF90DF90CF90BF90AF909F908F908B
S11309B07F9008950F931F93CF93DF93CDB7DEB746
S11309C027970FB6F894DEBF0FBECDBFFE01319658
S11309D027E0DF011D922A95E9F7009731F18C0198
S11309E00A960E940A038983C80108960E940A0392
S11309F08A83C80106960E940A038B83C801049661
S1130A000E940A038D83C80102960E940A038E8302
S1130A10C8010E940A038F8327E0AE014F5F5F4F36
S1130A2060E080ED0E943D0A01C081E027960FB688
S1130A30F894DEBF0FBECDBFDF91CF911F910F9110
S1130A400895CF93DF931F92CDB7DEB7882351F07B
S1130A50198221E0AE014F5F5F4F6EE080ED0E948E
S1130A603D0A0AC084E0898321E0AE014F5F5F4FF5
S1130A706EE080ED0E943D0A0F90DF91CF910895C2
S1130A80089508950F931F93CF93DF934115510554
S1130A9009F475C0862F90E0FC013B97EE30F10518
S1130AA008F06DC0DA01E659FF4F0C94DC3182E89E
S1130AB090E05FC08CE790E055C087E293E049C0C6
S1130AC08A010F5F1F4F6C91662371F0C0E0D0E084
S1130AD02196CE0189519D4F0E947E36F801619185
S1130AE08F016111F5CF02C0C0E0D0E060E0CE011B
S1130AF088519D4F0E947E3642C08A010F5F1F4F6E
S1130B006C91662391F0C0E0D0E003C0C830D105F9
S1130B1071F02196CE01845E9C4F0E947E36F801CE
S1130B2061918F016111F2CF02C0C0E0D0E060E0BA
S1130B30CE01835E9C4F0E947E3621C089E293E001
S1130B4008C08AE293E005C086E293E002C088E22E
S1130B5093E06C910E947E3612C08AE790E002C056
S1130B6080E090E06D917C910E949C3608C08EE7F5
S1130B7090E04D915D916D917C910E949036DF9152
S1130B80CF911F910F910895EF92FF920F931F93AE
S1130B90CF93C62F0E94FD0C882309F446C08C2FE6
S1130BA090E08B30910508F040C0FC01E858FF4FFD
S1130BB00C94DC3182EB90E030C08CE092E02DC0EC
S1130BC082E392E02AC089E592E027C08AE792E0B6
S1130BD024C085E992E021C08BEA92E01EC080EC3B
S1130BE092E01BC084ED92E018C08701CC23E9F0A9
S1130BF08C2F0E94BB0C78018FEFE81AF80AC80109
S1130C000E946A36C82F0E94EB0B8111FCCFEDCFF6
S1130C1086E890E002C084EE91E08C010F5F1F4FE4
S1130C200E946A36C82F8111E3CFCF911F910F9193
S1130C30FF90EF900895EF92FF920F931F93CF933D
S1130C40DF9380E090E00E9478368B3B910509F0B9
S1130C50B6C086E293E00E946A3690E08530910542
S1130C6014F485E090E08531910514F084E190E07E
S1130C7080930F0187E293E00E946A36823108F084
S1130C8081E18093650588E293E00E946A3680934F
S1130C904F058AE790E00E94783690930D01809387
S1130CA00C018CE790E00E9478369093DD048093E9
S1130CB0DC048EE790E00E947236609357057093CF
S1130CC058058093590590935A0582E890E00E9454
S1130CD07236609353057093540580935505909331
S1130CE0560589E293E00E946A36809352058AE2AF
S1130CF093E00E946A368093510508EE12E0C7EF34
S1130D00D4E00F2EFBE0EF2EF5E0FF2EF02DC8010E
S1130D100E946A36899381110BC00DE113E0C4E18E
S1130D20D5E00F2EFCE1EF2EF5E0FF2EF02D06C0EE
S1130D300F5F1F4FCE15DF0551F7EFCFC8010E949B
S1130D406A368993882329F00F5F1F4FCE15DF057C
S1130D50A9F70DEF12E0CEE2D5E00F2EFEE4EF2E60
S1130D60F5E0FF2EF02DC8010E946A3689930F5FCB
S1130D701F4FCE15DF05B9F780915705909158059F
S1130D80A0915905B0915A05892B8A2B8B2BC9F058
S1130D904091530550915405609155057091560545
S1130DA08091570590915805A0915905B0915A0525
S1130DB084179507A607B70730F480E019C081E0CF
S1130DC017C080E015C08091570590915805A091F7
S1130DD05905B0915A0580589E4AAE4FBF4F809333
S1130DE0530590935405A0935505B093560580E0A0
S1130DF0DF91CF911F910F91FF90EF900895EF92A3
S1130E00FF920F931F93CF93DF930EE111E0C4E1A0
S1130E10D5E00F2EF8E1EF2EF5E0FF2EF02DF801CE
S1130E2061918F016883CE010E94A2362196CE156E
S1130E30DF05A9F760E081E293E00E94A2361092F8
S1130E4018051092F70460E088EE92E00E94A23642
S1130E5010924F0560914F0588E293E00E94A236FC
S1130E6010925705109258051092590510925A0580
S1130E7040915705509158056091590570915A0554
S1130E808EE790E00E94B0361092530510925405FC
S1130E9010925505109256054091530550915405F2
S1130EA0609155057091560582E890E00E94B03635
S1130EB0DF91CF911F910F91FF90EF900895CF9301
S1130EC0DF93EC010E94B20C60E0CE010E94C405E5
S1130ED061E0CE010E94C4050E94B20C0E94B20CD3
S1130EE0DF91CF9108959C012E5F3F4F2B3381E01A
S1130EF0380710F02BE331E0ADECBCEC0E94E2319A
S1130F0096958795969587959C01220F331F220FFE
S1130F10331F280F391F0E94E231969587959695C5
S1130F20879585B90895CF93C82F61E088E00E9422
S1130F30790161E089E00E94790161E08AE00E9420
S1130F40790161E08BE00E94790161E08CE00E940C
S1130F50790161E08DE00E94790161E087E00E94FF
S1130F60790161E087E00E949402C11101C015B8C3
S1130F70CF910895EF92FF920F931F93CF93DF9336
S1130F80E42EF52ED62FC72F0093F1021093F20210
S1130F902093F3023093F40220E030E041E553E47F
S1130FA06E2D7F2D8D2F9C2F0E94693018166CF0AA
S1130FB020E030E048EC52E46E2D7F2D8D2F9C2FE5
S1130FC00E94C62E882334F009C0E12CF12CD1E50F
S1130FD0C3E404C0E12CF12CD8ECC2E46E2D7F2DC7
S1130FE08D2F9C2F0E94422F7093EC026093EB0292
S1130FF08091EB029091EC02880F991F0E940B32B2
S11310009093D9028093D802DF91CF911F910F91D1
S1131010FF90EF9008958091D8029091D9020E9498
S1131020A33208951092DF021092E0021092E102BE
S11310301092E2021092E3021092E4021092E5028E
S11310401092E6021092DC0208958F929F92AF9262
S1131050BF92CF92DF92EF92FF92CF93DF93EC0196
S11310604A015B016091EB027091EC02072E000CC7
S1131070880B990B0E947A2F6B017C018092ED0200
S11310809092EE02A092EF02B092F002A5019401B8
S11310900E946E302091F1023091F2024091F302ED
S11310A05091F4020E94D02E20E030E040E05FE353
S11310B00E945A2E0E94422F072E000C880B990B77
S11310C00E947A2F2BED3FE049EC50E40E946E30F1
S11310D0A70196010E94D02E0E94CB2E9B01AC0149
S11310E00E945A2E6093E7027093E8028093E9020B
S11310F09093EA02CE010E941208DF91CF91FF90F3
S1131100EF90DF90CF90BF90AF909F908F90089515
S11311108F929F92AF92BF92CF92DF92EF92FF9203
S1131120CF93DF93EB01C090E302D090E402E09010
S1131130E502F090E6022091E7023091E802409146
S1131140E9025091EA02C701B6010E946E30209173
S1131150DF023091E0024091E1025091E2020E94EC
S1131160592E4B015C01BE017250072E000C880BF6
S1131170990B0E947A2F9B01AC01C501B4010E9416
S11311805A2EC73ED10554F02091DA023091DB0289
S11311902F5F3F4F3093DB022093DA02C092DF02CD
S11311A0D092E002E092E102F092E2026093E30264
S11311B07093E4028093E5029093E602DF91CF916D
S11311C0FF90EF90DF90CF90BF90AF909F908F9063
S11311D008958091DC02882319F08091DC0208953F
S11311E0E091DD02F091DE02EE0FFF1F8091D80244
S11311F09091D902E80FF91F718360838091DD0219
S11312009091DE0201969093DE028093DD0220919C
S1131210DD023091DE028091EB029091EC022817FE
S113122039073CF01092DE021092DD0281E08093D7
S1131230DC028091DC0208958091DC0208954F92D3
S11312405F926F927F928F929F92AF92BF92EF9232
S1131250FF920F931F93CF93DF9300D000D0CDB7AD
S1131260DEB77C018B011092DB021092DA028091CE
S1131270EB029091EC0218161906F4F41A82198202
S113128089819A81880F991FE091D802F091D9023F
S1131290E80FF91F60817181C7010E9488082981C4
S11312A03A812F5F3F4F3A8329838091EB029091DB
S11312B0EC022817390724F30115110539F0809140
S11312C0DA029091DB02F801918380834090E3027B
S11312D05090E4026090E5027090E6028090DF0294
S11312E09090E002A090E102B090E202A30192018A
S11312F0C301B2010E946E3069837A838B839C831D
S1131300A5019401C501B4010E946E309B01AC019A
S113131069817A818B819C810E945A2E69837A83A8
S11313208B839C832091E7023091E8024091E9028B
S11313305091EA02C301B2010E946E30A5019401EA
S11313400E946E309B01AC0169817A818B819C8102
S11313500E94592E4B015C01C7010E941208C5016D
S1131360B4010F900F900F900F90DF91CF911F91C8
S11313700F91FF90EF90BF90AF909F908F907F90D0
S11313806F905F904F900895E4E6F0E080818F774E
S113139080831092B90085E28093B80084E0809342
S11313A0BC0081E080930601089584EA8093BC0028
S11313B0ECEBF0E08081882364F0809106018111D8
S11313C0F9CF07C080E98093BC0081E080930601D7
S11313D00895809106018823A9F380E0089584E9A3
S11313E08093BC0008958093BB0084E88093BC0084
S11313F0ECEBF0E08081882364F080910601811198
S1131400F9CF07C084E98093BC0081E08093060192
S113141008958091B900887F8613F4CF80E0089501
S113142084EC8093BC00ECEBF0E08081882324F012
S1131430809106018111F9CF8091BB00089584E861
S11314408093BC00ECEBF0E08081882324F0809151
S113145006018111F9CF8091BB0008952091B90054
S1131460287F30E090E02817390729F084E9809339
S1131470BC0081E0089580E00895CF93DF9300D00D
S113148000D000D0CDB7DEB78A836B835D834C83F5
S11314902E8319820E94D50988E00E942E0A982F73
S11314A081E0992309F480E0882311F081E03FC0B2
S11314B068E18A810E94F309982F81E0992309F455
S11314C080E0882311F081E032C068E28B810E94C1
S11314D0F309982F81E0992309F480E0882311F01F
S11314E081E025C08E819FEF980F9E8391E0882331
S11314F009F490E09923C1F0898191E0980F9983D0
S1131500882F90E02C813D81820F931FFC01808104
S113151068E20E94F309982F81E0992309F480E09E
S1131520882301F381E003C00E94EF0980E026963E
S11315300FB6F894DEBF0FBECDBFDF91CF910895F3
S11315400F931F93CF93DF9300D000D000D0CDB77B
S1131550DEB78A836B835D834C832E8319820E945A
S1131560D50988E00E942E0A982F81E0992309F476
S113157080E0882311F081E079C068E18A810E94CB
S1131580F309982F81E0992309F480E0882311F06E
S113159081E06CC068E28B810E94F309982F81E09E
S11315A0992309F480E0882311F081E05FC00E9450
S11315B0D50980E10E942E0A982F81E0992309F42D
S11315C080E0882311F081E051C08A81816060E469
S11315D00E94F309982F81E0992309F480E088237D
S11315E011F081E043C08E819FEF980F9E8391E0BC
S11315F0882309F490E09923B1F18E818823D9F0EE
S1131600898191E0980F9983882F90E02C813D8106
S11316108901080F191F0E94100AF801808380E5D0
S11316200E942E0A982F81E0992309F480E08823F0
S1131630D1F281E01BC08981882F90E02C813D810B
S11316408901080F191F0E941F0AF801808388E589
S11316500E942E0A982F81E0992309F480E08823C0
S113166011F281E003C00E94EF0980E026960FB6D4
S1131670F894DEBF0FBECDBFDF91CF911F910F91C4
S113168008958091F80293E059E2282F30E0529FA8
S1131690F001539FF00D1124E958FC4F4081411192
S11316A00CC0915029F08F5F833078F380E0EDCF48
S11316B08093F80280E090E008958093F80249E274
S11316C0429FC001439F900D112489589C4F089557
S11316D08091F70293E059E2282F30E0529FF00105
S11316E0539FF00D1124E958FC4F4081442361F0CD
S11316F0915029F08F5F833078F380E0EDCF8093B1
S1131700F70280E090E008958093F70249E2429F57
S1131710C001439F900D112489589C4F08958091D6
S1131720F602282F30E09FE3899FF0011124E7504F
S1131730FD4F41815281452BA9F08F5F823008F023
S113174080E0282F30E09FE3899FF0011124E750C7
S1131750FD4F41815281452B29F08093F60280E0B0
S113176090E008958093F6024FE3429FC001439FA7
S1131770900D112487509D4F08958091F502282FD4
S113178030E09FE3899FF0011124E750FD4F418130
S11317905281452BA9F48F5F823008F080E0282F16
S11317A030E09FE3899FF0011124E750FD4F418110
S11317B05281452B29F48093F50280E090E008954E
S11317C08093F5024FE3429FC001439F900D112483
S11317D087509D4F08958091F20308959091F203EC
S11317E081E0911180E0911108C091E09093F2039F
S11317F0E1ECF0E090819062908308958091F2038F
S1131800882339F0E1ECF0E080818F7D80831092B1
S1131810F20308950F931F938B019C018EE7E9EF68
S1131820F2E0DF011D928A95E9F7E7E7F3E0108221
S113183011A61092C903D901C80180589B47A14E33
S1131840BF4F880F991FAA1FBB1F880F991FAA1F7C
S1131850BB1FBC01CD01660F771F881F991F000FA6
S1131860111F221F331F000F111F221F331FA90135
S11318709801220F331F441F551F220F331F441F8B
S1131880551F0E949B31215031093093C50020938C
S1131890C40088E98093C1008EE08093C200109256
S11318A007011F910F91089581E080930701109221
S11318B0C1000E94FE0B8EE7E9EFF2E0DF011D920A
S11318C08A95E9F7E7E7F3E0108211A61092C903BD
S11318D008950F931F93CF93DF9320910701211154
S11318E014C00097A1F08C010E94680B0097B9F412
S11318F0C8ECD0E002C0209761F09091F2039923E4
S113190051F02097D1F02197F8CF81E01BC081E0FE
S113191019C081E017C00E94680B009761F31F9300
S11319200F939F938F930E94B7330E94EE0B0F90F7
S11319300F900F900F9080E005C00E94680B0097F5
S113194071F781E0DF91CF911F910F9108958091FC
S11319500701811106C083E291E00E94690C8111A4
S1131960FACF089580910701811104C086E291E0C5
S11319700E94690C089590910701911107C0E3EF4B
S1131980F3E080831182CF010E94690C0895CF9304
S113199020910701211128C0009741F1FC01208109
S11319A0222331F101900020E9F73197E81BF90B6C
S11319B0BA9700F5C62FBC0149E250E083EF93E0EB
S11319C00E948B33CC2359F083EF93E00E94690C7F
S11319D08111FACF8091F2038111FCCF0CC083EF07
S11319E093E00E94690C07C081E005C081E003C058
S11319F081E001C081E0CF9108959091070181E0D9
S1131A00911180E008951F920F920FB60F92112446
S1131A108F93EF93FF931092060180910C0581112F
S1131A2005C080910B01811109C00EC080910B018A
S1131A30882351F0815080930B0106C0E0E6F0E06A
S1131A40808180648083F2CFFF91EF918F910F901A
S1131A500FBE0F901F901895A89504B603FE03C0FF
S1131A6094B7987094BF833061F484B7877F84BF40
S1131A70E0E6F0E0808188618083108210920C059A
S1131A800895813041F4E0E6F0E09081986190831C
S1131A9098E6908311C0811108C0E0E6F0E09081DF
S1131AA09861908396E4908307C0E0E6F0E090812B
S1131AB09861908398E4908391E0811101C090E053
S1131AC090930C0508951F920F920FB60F92112454
S1131AD02F933F934F935F936F937F938F939F9332
S1131AE0AF93BF93EF93FF936091790070E080ED23
S1131AF094E00E94E908882329F0EAE7F0E0808175
S1131B00877F8083FF91EF91BF91AF919F918F91D8
S1131B107F916F915F914F913F912F910F900FBEE5
S1131B200F901F9018951F920F920FB60F921124C9
S1131B301F932F933F934F935F936F937F938F9351
S1131B409F93AF93BF93CF93DF93EF93FF93109142
S1131B50C600C091A504D091A604209751F40E9418
S1131B608F0BEC019093A6048093A504892B09F4B0
S1131B7062C1812F90E00E9471339C018091A40482
S1131B80882321F081508093A40455C12B3121F482
S1131B9082E08093A4044FC12D3009F03FC08091AE
S1131BA06304882331F1E091A304EE23F9F082E089
S1131BB0888380916104909162049A8389838091DF
S1131BC06004882379F090E0019740915F0454E128
S1131BD0589F9001599F300D1124C20FD31FC40F79
S1131BE0D11D1B82F0E0EC59FB4F10820E94B20C15
S1131BF004C08FEF9FE79A8389831092A304109205
S1131C005F041092620410926104109260041092B6
S1131C10A6041092A504109263040DC1222309F4B2
S1131C200AC1E091A3044E2F50E0DA01AC59BB4F36
S1131C302C93EE2309F4D6C02F3709F05FC0E1508E
S1131C40E093A30480916004811113C0F0E0EC5987
S1131C50FB4F40818091610490916204841B91093F
S1131C606AE070E00E9487317093620460936104BB
S1131C7039C090915F04992391F04FEF490F40933D
S1131C805F0490E0019754E1589FB001599F700D93
S1131C901124C60FD71FC40FD11D1B8223C0F0E02F
S1131CA0EC59FB4F90819032A1F4815080936004F1
S1131CB0DE0194E1899FA00DB11D11241396FD014D
S1131CC001900020E9F73197EA1BFB0BE0935F04D6
S1131CD009C094E1899FC00DD11D11241B8281503C
S1131CE0809360048091A304E82FF0E0EC59FB4F4B
S1131CF01082811193C01092630490C0203279F550
S1131D00FA01ED59FB4F8081803209F494C080912F
S1131D106004682F70E0FB01319633970CF08BC0A0
S1131D20882379F06150710990915F04A4E1A69F22
S1131D30F001A79FF00D1124CE0FDF1FC90FD11D95
S1131D401B828F5F8093600410925F044F5F5F4F2C
S1131D504E3351050CF04EE34093A3045FC08091D1
S1131D605F04843108F067C040916004411119C0D8
S1131D704091610450916204BA01660F771F440FC9
S1131D80551F440F551F440F551F460F571F420F31
S1131D90511D50936204409361048F5F80935F04EC
S1131DA016C050E04150510991E0980F90935F04A0
S1131DB0E4E1E49FB001E59F700D1124C60FD71F25
S1131DC0FE01E80FF11D2383C90FD11D1B828091F1
S1131DD0A30490E001968E3391050CF08EE380937A
S1131DE0A3041CC02F3741F48091610490916204D4
S1131DF018161906BCF01BC02032E9F010926004DA
S1131E00C901992790936204809361041B821F8AFD
S1131E101BA681E0809363048093A304822F0E9415
S1131E20BB0C09C01092620410926104F7CF1092A7
S1131E30620410926104FF91EF91DF91CF91BF9101
S1131E40AF919F918F917F916F915F914F913F914E
S1131E502F911F910F900FBE0F901F9018951F92F6
S1131E600F920FB60F9211242F933F934F935F93CA
S1131E706F937F938F939F93AF93BF93EF93FF934E
S1131E8080915D0490915E04892B31F40E94410B92
S1131E9090935E0480935D04E0915D04F0915E0490
S1131EA080915C04DF01A80FB11D9C91992331F04E
S1131EB08F5F80935C049093C6000DC010925C0405
S1131EC010820E94410B90935E0480935D04892BE1
S1131ED011F40E94FE0BFF91EF91BF91AF919F917E
S1131EE08F917F916F915F914F913F912F910F90BF
S1131EF00FBE0F901F9018951F920F920FB60F925E
S1131F0011241F932F933F934F935F936F937F936A
S1131F108F939F93AF93BF93EF93FF93CF93DF93ED
S1131F2000D0CDB7DEB78091D7049091D804A091AA
S1131F30D904B091DA040196A11DB11D8093D70490
S1131F409093D804A093D904B093DA0480916005E7
S1131F5090916105892B49F080916005909161050C
S1131F60019790936105809360058091130190918E
S1131F701401892B49F08091130190911401019768
S1131F8090931401809313018091D3049091D4040D
S1131F90892B49F08091D3049091D40401979093B4
S1131FA0D4048093D30480911D05882381F080910B
S1131FB0D5049091D60401969093D6048093D504C9
S1131FC084E995E09093D4048093D30404C01092E0
S1131FD0D6041092D5048091D1049091D204892B17
S1131FE049F08091D1049091D20401979093D20446
S1131FF08093D10481E089831A8281E10E9449029D
S1132000182F80910E05882309F45CC1112309F46B
S11320105CC158C161E080E10E9494021BC08091C0
S1132020660590916705A0916805B09169050597CB
S1132030A105B10579F486E090E0A0E0B0E08093DA
S1132040660590936705A0936805B093690581E0E0
S113205080930D0580910A01181328C080911F05F3
S1132060909120058B3B90414CF480911F059091F9
S1132070200501969093200580931F0580911F05EC
S11320809091200580399105BCF0113009F42BC1E1
S113209082E080931E0511110FC080910E058111FD
S11320A00BC061E080E10E94940206C010930A0113
S11320B01092200510921F0580911701811117C1FC
S11320C080916405882309F412C180915A04909187
S11320D05B04892B09F411C10AC161E084E00E9408
S11320E0940284E995E0909359048093580411C1B3
S11320F08091580490915904009731F0019790937E
S113210059048093580405C1809156049091570452
S11321100097F1F101979093570480935604892B0B
S113212009F0F7C0AE014E5F5F4FBE016F5F7F4F96
S113213080E090E00E94162D8093550489818111DE
S113214014C08A81882389F01092550481E0809319
S1132150190180912205882341F01092640584E9D5
S113216095E090935B0480935A046091550480E158
S11321700E9494026091550486E00E94940280912A
S11321805504809350059FE297BD80932105C1C0FB
S113219080911E05823029F06091550480E10E94EF
S11321A094026091550486E00E9494028091550443
S11321B0809350059FE297BD80932105809162052D
S11321C0909163059093570480935604A2C0809124
S11321D0580490915904009739F484E690E0909360
S11321E05904809358041CC0019790935904809318
S11321F05804892BA9F460E084E00E94940210C082
S113220080915A0490915B04009751F00197909348
S11322105B0480935A04892B19F481E0809364054C
S113222080915F058823A9F18091D3049091D4040F
S1132230892BE9F58091560490915704009701F198
S113224001979093570480935604892B81F5AE012E
S11322504E5F5F4FBE016F5F7F4F80E090E00E9452
S1132260162D80935504682F80E10E94940280917A
S1132270620590916305909357048093560417C0A8
S1132280809162059091630590935704809356045E
S11322900EC080915504882351F01092550480910A
S11322A01E05823021F060E080E10E94940260E02B
S11322B086E00E949402109250058FE287BD10922E
S11322C0210527C010920E05C5CE80916605909118
S11322D06705A0916805B09169050597A105B10549
S11322E00CF09DCE97CE81E080931E05E5CE84E070
S11322F00E94490281116BCF83CF87E29BE09093C8
S113230014018093130184E00E9449028111F0CEEC
S1132310E4CE0F900F90DF91CF91FF91EF91BF9199
S1132320AF919F918F917F916F915F914F913F9169
S11323302F911F910F900FBE0F901F9018951F9211
S11323400F920FB60F9211248F929F92AF92BF9269
S1132350CF92DF92EF92FF920F931F932F933F93AD
S11323604F935F936F937F938F939F93AF93BF9399
S1132370EF93FF93CF93DF931F92CDB7DEB7809196
S11323805B0590915C05A0915D05B0915E05019699
S1132390A11DB11D80935B0590935C05A0935D0521
S11323A0B0935E058091660590916705A0916805DC
S11323B0B09169050196A11DB11D809366059093A6
S11323C06705A0936805B09369058091DF048823AD
S11323D029F08091DF0481508093DF048091100103
S11323E090911101892B49F0809110019091110174
S11323F0019790931101809310018091DE0488234A
S113240029F08091DE0481508093DE0480911701CD
S1132410882391F180910F05882309F4BAC3409170
S11324205B0550915C0560915D0570915E0580913E
S1132430570590915805A0915905B0915A05481730
S113244059076A077B0708F4A4C340915B055091C0
S11324505C0560915D0570915E05809153059091D6
S11324605405A0915505B0915605481759076A07B8
S11324707B0708F402C38DC380910F058823D1F034
S113248040915B0550915C0560915D0570915E051E
S11324908091530590915405A0915505B09156052E
S11324A0481759076A077B0728F010920F0581E047
S11324B0809317018091170181116BC360910F0103
S11324C070E087EF94E00E94222E8C509E4F9C0176
S11324D0369527953695279536952795A5ECB0E240
S11324E00E94E2318C01129502950F7001271F7032
S11324F0012780916A0590916B05A0916C05B091BC
S11325006D05892B8A2B8B2B09F0EEC28091230554
S1132510882309F4DCC2E8C2809165052091260570
S11325203091270590E040912C0550912D05821B98
S1132530930B1816190614F081E090E0849F900123
S1132540859F300D949F300D1124C901801B910B80
S1132550092E000CAA0BBB0B8093510490935204D8
S1132560A0935304B09354041092500410924F0457
S113257010E0FEC220912305213031F580912C0515
S113258090912D0540916A0550916B0560916C0501
S113259070916D05092E000CAA0BBB0B840F951FBF
S11325A0A61FB71F012E000C220B330B801B910BAF
S11325B0A20BB30B8093510490935204A093530441
S11325C0B093540411E0D4C220912305233009F0C0
S11325D0E2C020916505A0912605B0912705E09100
S11325E01501F091160130E02A1B3B0B2E173F0713
S11325F041F020912805309129052130310509F059
S113260066C020912C0530912D0560912C057091A8
S11326102D05CA010E948731A901481B590BCA0123
S11326200417150714F540916A0550916B056091E4
S11326306C0570916D05092E000CAA0BBB0B840F61
S1132640951FA61FB71F012E000C220B330B801BF6
S1132650910BA20BB30B8093510490935204A0935B
S11326605304B093540411E083C2401751070CF093
S113267087C2C0906A05D0906B05E0906C05F0901D
S11326806D0540912A0550912B05092E000CAA0BCB
S1132690BB0B8C0D9D1DAE1DBF1D052E000C660BC6
S11326A0770B840F951FA61FB71F012E000C220B5A
S11326B0330B801B910BA20BB30B809351049093AB
S11326C05204A0935304B093540411E051C2809077
S11326D06A0590906B05A0906C05B0906D05E09133
S11326E06505E0902605F0902705A0912C05B09192
S11326F02D05F0E0EE19FF09EA9F6001EB9FD00C75
S1132700FA9FD00C11240D2C000CEE08FF08CB010D
S1132710770FAA0BBB0BA5019401281B390B4A0B9D
S11327205B0BDA01C9018C0D9D1DAE1DBF1D012E71
S1132730000C220B330B801B910BA20BB30B809369
S1132740510490935204A0935304B09354044091C1
S11327506A0550916B0560916C0570916D05841745
S11327609507A607B7070CF000C2409124055091C5
S11327702505052E000C660B770B840F951FA61FED
S1132780B71F8093510490935204A0935304B093C1
S1132790540410E0EDC180916A0590916B05A091FD
S11327A06C05B0916D0540915104509152046091B3
S11327B0530470915404481759076A077B0709F0BA
S11327C0D6C1809124059091250540916A055091C8
S11327D06B0560916C0570916D05092E000CAA0BB8
S11327E0BB0B840F951FA61FB71F809351049093B2
S11327F05204A0935304B093540410E0C2C100E007
S113280001C001E060916A0570916B0580916C05CF
S113281090916D0520912C0530912D05032E000C0F
S1132820440B550B0E94BD31672B682B692B09F4AF
S11328307BC120C080912305882309F483C181E0F2
S113284080934E0420911501309116018091280542
S1132850909129058217930734F481E090E09093D6
S11328601601809315011092500410924F04011127
S113287003C036C0002381F160910F0170E082E84B
S11328809BE10E948731CB016AE070E00E948731AE
S1132890660F771F709363056093620519828091B8
S11328A0F704882351F040E050E0BE016F5F7F4F92
S11328B087EF94E00E94162D09C040E050E0BE016D
S11328C06F5F7F4F8CE492E00E94162D10921901E5
S11328D081E080936405B2C080914E04882321F086
S11328E080911901811103C0112309F4A7C060E08C
S11328F080E10E94940210924E04809128059091E8
S1132900290502970CF42BC120916505409115010E
S113291050911601809126059091270530E0840F8F
S1132920951F2817390709F017C119C140911105DE
S1132930509112054B5F5F4F80911305282F082E8D
S1132940000C330B3F938F93FA01F695E795F695B8
S1132950E7959F01ABE7B4E10E94E2319695879534
S113296064E6689F9001699F300D1124CA01821B9F
S1132970930B9C01ADECBCEC0E94E23196958795DB
S113298096958795969587959F938F939F01ABE72F
S1132990B4E10E94E231969587959F938F9388E2E4
S11329A091E09F938F9388EA94E09F938F930E9482
S11329B0B73368EA74E082EE94E00E9484331982AB
S11329C00FB6F894DEBF0FBECDBF12C0809165056F
S11329D090E0BC01660F771F660F771F680F791FA1
S11329E063587D4F82EE94E00E94843381E08983B2
S11329F060910E0170E082E89BE10E948731CB0177
S1132A006AE070E00E948731660F771F7093630558
S1132A106093620540E050E060E070E08CE191E09A
S1132A200E94162D40E050E0BE016F5F7F4F82EEA2
S1132A3094E00E94162D81E0809364051092230592
S1132A4080916A0590916B05A0916C05B0916D051C
S1132A500196A11DB11D80936A0590936B05A09307
S1132A606C05B0936D0580914F04909150040196CC
S1132A709093500480934F048CC010925F05109281
S1132A80170181E0898340E050E060E070E08CE170
S1132A9091E00E94162D40E050E0BE016F5F7F4F31
S1132AA082EE94E00E94162D60910E0170E082E89F
S1132AB09BE10E948731CB016AE070E00E9487317C
S1132AC0660F771F709363056093620562C020915F
S1132AD024053091250580912A0590912B058217B4
S1132AE093070CF019CD40CD60916A0570916B0588
S1132AF080916C0590916D0520912A0530912B05EC
S1132B00032E000C440B550B0E94BD31AB01709396
S1132B10500460934F042091240530912505232B04
S1132B2009F028CD10E024C080916A0590916B05CE
S1132B30A0916C05B0916D05892B8A2B8B2B09F024
S1132B4079CE7DCE809115019091160101969093D6
S1132B5016018093150173CE109264056FCF809196
S1132B606505833109F032CFE1CE10E001C010E0F9
S1132B708091280590912905892B09F040CEACCE8F
S1132B8011E08091280590912905892B09F474CED0
S1132B9038CE0F90DF91CF91FF91EF91BF91AF911C
S1132BA09F918F917F916F915F914F913F912F9161
S1132BB01F910F91FF90EF90DF90CF90BF90AF9057
S1132BC09F908F900F900FBE0F901F9018951F929B
S1132BD00F920FB60F9211242F933F934F935F934D
S1132BE06F937F938F939F93AF93BF93EF93FF93D1
S1132BF080911801811113C061E080914D0481110D
S1132C0060E060934D0480912105882321F085E0E4
S1132C100E94940204C060E085E00E949402FF9147
S1132C20EF91BF91AF919F918F917F916F915F9140
S1132C304F913F912F910F900FBE0F901F901895B9
S1132C401F920F920FB60F9211242F933F934F931D
S1132C505F936F937F938F939F93AF93BF93EF9300
S1132C60FF9380911801882309F442C08091500594
S1132C70811128C080914C04811124C080914E059B
S1132C80882339F02CC010924C0495B910924B044F
S1132C902FC080916405882349F080914B048F33C1
S1132CA039F18FE380934B0485B922C084E00E94FC
S1132CB0490281111DC08091130190911401892B47
S1132CC0A1F016C0E0914C0481E08E0F80934C0477
S1132CD0F0E0E25DFA4F90818032A8F6D6CF81E031
S1132CE080934C0490912E05D0CF10924B0415B8CC
S1132CF0FF91EF91BF91AF919F918F917F916F91D0
S1132D005F914F913F912F910F900FBE0F901F90A5
S1132D1018958091530590915405A0915505B09153
S1132D20560581159646AE4EBF4508F467C080919E
S1132D30570590915805A0915905B0915A058115F0
S1132D409646AE4EBF4508F45BC080915B059091FA
S1132D505C05A0915D05B0915E0581159646AE4E69
S1132D60BF4508F44FC040915305509154056091FC
S1132D705505709156058091570590915805A0917D
S1132D805905B0915A0584179507A607B707E0F5CA
S1132D9040915B0550915C0560915D0570915E0505
S1132DA08091530590915405A0915505B091560515
S1132DB084179507A607B70748F140915B05509122
S1132DC05C0560915D0570915E0580915705909159
S1132DD05805A0915905B0915A0584179507A6077F
S1132DE0B70730F480911701811112C085E008956E
S1132DF080910F05882371F081E0089582E00895A1
S1132E0082E0089582E0089582E0089582E00895C2
S1132E1083E0089584E008950F931F93CF93DF9385
S1132E2000D0CDB7DEB7162F009731F0FC018081BA
S1132E30823111F0809365050E948D0360935B05D8
S1132E4070935C0580935D0590935E051092220556
S1132E50F894E09165058E2F90E0FC013197E33101
S1132E60F10508F084C0ED57FF4F0C94DC318CE37E
S1132E7090E090932D0580932C058CE291E0909343
S1132E802B0580932A0525E030E030932905209313
S1132E902805109227051092260528E020930E019C
S1132EA0909325058093240590C08CE090E0909346
S1132EB02D0580932C058CE390E090932B05809353
S1132EC02A0585E090E0909329058093280588E001
S1132ED080930E0187E090E0909327058093260568
S1132EE088E592E090932505809324056EC08CE0DC
S1132EF090E090932D0580932C052CE330E03093E3
S1132F002B0520932A0525E030E0309329052093F2
S1132F1028052FE020930E01909327058093260522
S1132F2088E592E090932505809324054EC08EE1B8
S1132F3090E090932D0580932C058CE390E0909382
S1132F402B0580932A0522E030E030932905209355
S1132F50280528E020930E0122E130E03093270574
S1132F602093260590932505809324052EC08091F7
S1132F7051058093220581E090E090932905809388
S1132F80280588E080930E0180915105811103C0CA
S1132F9088E592E002C08CE390E09093250580934D
S1132FA02405809124059091250590932D05809307
S1132FB02C051092270510922605809124059091E6
S1132FC0250590932B0580932A05111106C01092B4
S1132FD00F0581E080931701E0C0113099F481E07E
S1132FE090E0909316018093150110926A05109257
S1132FF06B0510926C0510926D0510920F051092DE
S11330001701CBC01230B9F58091650520912605D2
S11330103091270590E0821B930B1816190614F0C3
S113302081E090E0909316018093150120911501A1
S11330303091160140912C0550912D0521503109F4
S1133040249FC001259F900D349F900D1124092EBB
S1133050000CAA0BBB0B80936A0590936B05A0939D
S11330606C05B0936D0510920F051092170181E065
S11330708093230592C04091570550915805609163
S1133080590570915A0580915B0590915C05A0915A
S11330905D05B0915E05481759076A077B0708F07C
S11330A069C080915B0590915C05A0915D05B0912C
S11330B05E054091570550915805609159057091EE
S11330C05A05841B950BA60BB70B80936A05909346
S11330D06B05A0936C05B0936D0560916A057091C2
S11330E06B0580916C0590916D0520912A053091B6
S11330F02B0500912C0510912D05032E000C440B7B
S1133100550B0E94BD319801110F440B550B0E94C1
S1133110BD31BA01A9014F5F5F4F6F4F7F4F80915F
S11331202805909129059A83898389819A81092E9A
S1133130000CAA0BBB0B84179507A607B7073CF432
S113314029813A81C901330FAA0BBB0B0BC0DB01E8
S1133150CA01141615061606170624F081E090E03D
S1133160A0E0B0E0909316018093150183E0809372
S113317023050EC010926A0510926B0510926C051F
S113318010926D0581E090E09093160180931501F3
S113319081E080930F05809317018FE287BD109221
S11331A02105109263051092620510926405109235
S11331B0100560E080E10E94940260E086E00E94D5
S11331C094021092500510925F05109210057894A5
S11331D00F900F90DF91CF911F910F9108958FEF72
S11331E09FEFEAE7F0E0208126FF04C0009711F08A
S11331F00197F9CF2091780030917900EAE7F0E067
S1133200908190649083C90108950F931F93CF9385
S1133210DF9360910C0170910D01072E000C880B57
S1133220990B0E947A2F20E030E040E251E40E94A2
S1133230D02E062F172FD82FC92F20E030E048E4D6
S113324053E40E94693018166CF020E030E048E442
S113325053EC602F712F8D2F9C2F0E94C62E882334
S113326034F009C000E010E0D8E4C3E404C000E096
S113327010E0D8E4C3EC0E94EF180E94EF18BC01E0
S113328080E090E00E94782F2EEA37E242EA53E48D
S11332900E94592E26EF38E24CE95FE30E94D02EBB
S11332A0202F312F4D2F5C2F0E945A2E0E94DB308D
S11332B0DF91CF911F910F9108950E94EF180E9402
S11332C0EF189C01ADEEB0E00E94E231DC01CB01CD
S11332D0689416F8B695A795979587951694D1F79F
S11332E0089510927A0010927B0010927C00811154
S11332F022C0ECE7F0E08081866080838081806C6E
S11333008083808180628083EAE7F0E08081866048
S113331080838081806280838081886080838081D3
S113332080688083662321F1808188608083808126
S1133330806480830895ECE7F0E09081906C908342
S1133340813021F480818860808305C0ECE7F0E05F
S1133350808187608083EAE7F0E0808187608083F2
S11333608081806880838081806480830E94EF18DC
S11333700895FC012191222341F030E020533109CA
S11333802A303105B8F380E0089581E00895CF93A1
S1133390C82F0E948916F894C1110EC0823031F4EE
S11333A060E080E090E00E940C173EC063E080E0A3
S11333B090E00E940C1738C0C230C9F4823031F456
S11333C061E080E090E00E940C172EC0813019F07B
S11333D08350823030F461E080E090E00E940C176A
S11333E023C063E080E090E00E940C171DC082308F
S11333F031F461E080E090E00E940C1715C0813048
S113340031F462E080E090E00E940C170DC084303B
S113341031F463E080E090E00E940C1705C063E0A3
S113342080E090E00E940C1710925F057894CF9191
S11334300895CF93C82F0E948916F894C23031F4AE
S113344060E080E090E00E940C1715C0813031F4F8
S113345062E080E090E00E940C1708C0843031F4F0
S113346060E080E090E00E940C1705C060E080E01E
S113347090E00E940C1780911E05823021F460E0D8
S113348080E10E949402CF9108951F920F920FB68B
S11334900F9211242F933F934F935F936F937F93D6
S11334A08F939F93AF93BF93CF93EF93FF9381E158
S11334B00E944902C82F1092200510921F058823EC
S11334C091F18091A70481112EC0809110019091F7
S11334D01101892B01F180910D0581111EC080918C
S11334E01701882371F080911E058230B1F4109287
S11334F01E0560E080E10E94940281E00E94C719E9
S11335000CC080911E05823041F410921E0581E0AA
S11335100E94191A02C0109210058CE291E0909357
S1133520110180931001C093A704FF91EF91CF91F3
S1133530BF91AF919F918F917F916F915F914F91C7
S11335403F912F910F900FBE0F901F9018950E94DE
S11335508D0360935B0570935C0580935D05909388
S11335605E058091F704811105C065E08EE695E063
S11335700E94C40580915B0590915C05A0915D0556
S1133580B0915E0581159646AE4EBF4528F462E0C3
S11335908EE695E00E94C405409153055091540570
S11335A0609155057091560580915B0590915C057D
S11335B0A0915D05B0915E05481759076A077B071E
S11335C000F5409157055091580560915905709147
S11335D05A0580915B0590915C05A0915D05B091C1
S11335E05E05481759076A077B0728F463E08EE6EF
S11335F095E00E94C40564E08EE695E00E94C4054F
S1133600089540915705509158056091590570915E
S11336105A0580915B0590915C05A0915D05B09180
S11336205E05481759076A077B07C0F48091570560
S113363090915805A0915905B0915A058115964667
S1133640AE4EBF4530F463E08EE695E00E94C405BB
S1133650089561E084E391E00E94C70C08952F92DD
S11336603F924F925F926F927F928F929F92AF920E
S1133670BF92CF92DF92EF92FF920F931F93CF935B
S1133680DF93CDB7DEB72C970FB6F894DEBF0FBE2D
S1133690CDBF2B013C0149015A016217730784070E
S11336A0950750F0E114F10409F404C161E0C70185
S11336B00E94C70C81E0FFC00115110521F061E0F3
S11336C0C8010E94C70C75016401C418D508E60836
S11336D0F708C701B60120E833E341EE51E00E9448
S11336E09B3129013A014427552760E873E381EEB1
S11336F091E00E946331C61AD70AE80AF90AC701A1
S1133700B60120E831E541E050E00E949B314901D7
S11337105A0119014427552760E871E581E090E0DA
S11337200E946331C61AD70AE80AF90AC701B6012A
S113373020E13EE040E050E00E949B3129833A833F
S11337404B835C8329813A813A87298729813A818D
S11337504B815C8144275527A0E1BEE00E94F831EB
S1133760C61AD70AE80AF90AC701B6012CE330E001
S113377040E050E00E949B312D833E834F83588765
S11337800D811E812CE3209FC001219F900D1124E7
S1133790A601481B590B5C874B871092A80441145F
S11337A05104B9F05F924F9286E491E09F938F9316
S11337B088EA94E09F938F930E94B73361E088EA8C
S11337C094E00E94C70C0F900F900F900F900F90F1
S11337D00F902328B9F09F928F928EE491E09F93EB
S11337E08F9388EA94E09F938F930E94B73361E0AC
S11337F088EA94E00E94C70C0F900F900F900F90EE
S11338000F900F9089859A85892BC9F09A819F938F
S1133810E981EF9387E591E09F938F9388EA94E0A1
S11338209F938F930E94B73361E088EA94E00E94EB
S1133830C70C0F900F900F900F900F900F90012BCB
S1133840C9F0FE81FF932D812F938FE591E09F9323
S11338508F9388EA94E09F938F930E94B73361E03B
S113386088EA94E00E94C70C0F900F900F900F907D
S11338700F900F903C853F934B854F9387E691E0E3
S11338809F938F9388EA94E09F938F930E94B7331A
S113389061E088EA94E00E94C70C0E94B20CE8EA56
S11338A0F4E010820F900F900F900F900F900F90F4
S11338B080E001C081E02C960FB6F894DEBF0FBE05
S11338C0CDBFDF91CF911F910F91FF90EF90DF90CB
S11338D0CF90BF90AF909F908F907F906F905F90AC
S11338E04F903F902F900895EF92FF920F931F9364
S11338F00E948D0360935B0570935C0580935D0566
S113390090935E050E948916823009F462C063E0D8
S113391080E090E00E940C172091570530915805E3
S11339204091590550915A0560915B0570915C0571
S113393080915D0590915E050F2EFEE6EF2EF1E07D
S1133940FF2EF02D0BE711E00E942F1B409157052D
S1133950509158056091590570915A0580915B0505
S113396090915C05A0915D05B0915E0548175907DB
S11339706A077B07B8F420915305309154054091B0
S113398055055091560560915B0570915C058091D9
S11339905D0590915E05E12CF12C07E811E00E9491
S11339A02F1B19C0209153053091540540915505A2
S11339B050915605609157057091580580915905AD
S11339C090915A05E12CF12C08E911E00E942F1B7B
S11339D002C00E94A71A1F910F91FF90EF900895C3
S11339E04F925F926F927F928F929F92AF92BF920B
S11339F0EF92FF920F931F93CF93DF93CDB7DEB770
S1133A002C970FB6F894DEBF0FBECDBF8C01E42E09
S1133A10FC0101900020E9F73197E81BF90B25E040
S1133A206735720749F580915B0590915C05A0911B
S1133A305D05B0915E0589879A87AB87BC8780E076
S1133A4096E6AEEEBFE589839A83AB83BC83898512
S1133A509A85AB85BC8581159646AE4EBF4528F444
S1133A6089809A80AB80BC8004C089849A84AB84AA
S1133A70BC84FF24F39442C063557540A9F580913A
S1133A80570590915805A0915905B0915A058D8319
S1133A909E83AF83B88780915B0590915C05A0916C
S1133AA05D05B0915E0589839A83AB83BC834D81A8
S1133AB05E816F81788589819A81AB81BC81481749
S1133AC059076A077B0740F489809A80AB80BC80E1
S1133AD06894FF24F1F812C08D809E80AF80B88472
S1133AE06894FF24F1F80AC0F12C0F2E812CF6E61D
S1133AF09F2EFEEEAF2EFFE5BF2EF02DEC30F1052C
S1133B0009F05EC0C8010E94B919882309F44FC0A6
S1133B10B80180E090E00E9432042B013C01AE2DFC
S1133B20EE0CBB0B20E13EE00E94F131640D751DEB
S1133B30861D971D86169706A806B90608F445C083
S1133B4021E0F21209C068E08EE695E00E94C40507
S1133B5060E070E0CB0139C022E0F2121FC0009196
S1133B605B0510915C0520915D0530915E05601741
S1133B7071078207930748F467E08EE695E00E9498
S1133B80C40560E070E0CB0120C066E08EE695E0FD
S1133B900E94C40560E070E0CB0117C06AE08EE6C5
S1133BA095E00E94C40560E070E0CB010EC069E0BE
S1133BB08EE695E00E94C40560E070E0CB0105C08C
S1133BC0EF2BA9F760E070E0CB012C960FB6F894C8
S1133BD0DEBF0FBECDBFDF91CF911F910F91FF903C
S1133BE0EF90BF90AF909F908F907F906F905F9079
S1133BF04F900895CF93823019F128F48823C1F1AE
S1133C00813031F12DC0843059F090F0853041F588
S1133C108CE292E09093890080938800C1E029C0EF
S1133C2081E792E09093890080938800C1E021C0ED
S1133C308AEC92E09093890080938800C1E019C0D7
S1133C4081E493E09093890080938800C1E011C0DF
S1133C5088EE93E09093890080938800C1E009C0C6
S1133C6084EF91E09093890080938800C1E001C0C3
S1133C70C0E087B5811102C08FE287BD80918800C2
S1133C8090918900892B31F488EE93E09093890018
S1133C9080938800F8948C2F0E949307CC2359F0CA
S1133CA0EEE6F0E080818D7F8083EFE6F0E08081B6
S1133CB0826080830AC0EEE6F0E0808182608083C7
S1133CC0EFE6F0E080818D7F8083C09318017894C3
S1133CD08C2FCF9108952F923F924F925F926F92C3
S1133CE07F928F929F92AF92BF92CF92DF92EF9288
S1133CF0FF920F931F93CF93DF93CDB7DEB72C972B
S1133D000FB6F894DEBF0FBECDBF0F2EF0EA6F2EB4
S1133D10F1E07F2EF02D0F2EF8EAAF2EF4E0BF2E47
S1133D20F02D0F2EF2EE4F2EF4E05F2EF02D0F2E1D
S1133D30FEE08F2EF2E09F2EF02D0F2EF5E12F2EB8
S1133D40F2E03F2EF02D0E94BD0B6C01009709F4A8
S1133D5001C5DC0111968D919C911297863CBEE1C0
S1133D609B0729F178F48E31F3E09F0709F415C11C
S1133D708F362DE1920709F44DC2873D924009F038
S1133D80BDC4ADC08237A3E29A0709F477C128F411
S1133D908A3E924209F409C2B1C48433F4E29F0713
S1133DA009F4CFC0853C944209F417C4A7C4D601D2
S1133DB013968C91139790E0009709F47BC082349A
S1133DC0910509F4AFC48634910509F4ADC4833474
S1133DD09105D1F457968C91579758961C9282343A
S1133DE029F090E0C0970A9708F064C0C60147968E
S1133DF00E942C33992314F480E090E086309105DE
S1133E00CCF185E090E036C08335910579F5F60173
S1133E108789908D118E823489F1863439F48FEC40
S1133E20890F853068F58CED890F18C0833539F416
S1133E308FEC890F8530B8F487ED890F0FC0963465
S1133E4031F49FEC980F9530E8F4845207C0933511
S1133E50D9F49FEC980F9530C8F4895299EF980FD4
S1133E609B3010F063C487E090E004C0C601039661
S1133E700E942C3382319105E8F409C080E007C028
S1133E8080E005C080E003C080E001C080E0898359
S1133E90AE014F5F5F4F60E18EE695E00E94420500
S1133EA0809165059981981729F060E0CE0101960B
S1133EB00E940C17809165051F928F937F926F92D9
S1133EC0BF92AF920E94B73360E0C5010E94C70C55
S1133ED00F900F900F900F900F900F9013C4D60176
S1133EE013968C918823B1F0C60103960E944A333D
S1133EF070E0673071050CF066E060934F054FE4A5
S1133F0055E061E18EE695E00E94420580914F05FF
S1133F100E94FA1D80914F051F928F9388EA91E0C9
S1133F209F938F93BF92AF920E94B73360E0C50115
S1133F300E94C70C0F900F900F900F900F900F904E
S1133F40E1C3F6018381882311F1803321F482E0F7
S1133F500E94191AD7C3813321F482E00E94C71941
S1133F60D1C3823331F481E0809317010E94741C21
S1133F70C9C3833331F462E080E090E00E940C17FF
S1133F80C1C361E08FEA91E00E94C70CBBC361E04A
S1133F908FEA91E00E94C70CB5C3D60113968C91A9
S1133FA0882399F180E290E0F50191838083B60142
S1133FB06D5F7F4FC5010E947933D60157968C916E
S1133FC0882379F0F50101900020E9F7319780E228
S1133FD090E091838083B601695E7F4FC5010E94A2
S1133FE07933F50101900020E9F73197E85AF4405C
S1133FF0759758F4B50187EF94E00E948433A501C6
S11340006BE08EE695E00E944205F20185898823E3
S1134010F1F060910F0170E087EF94E00E94222E8E
S1134020885A9D4F9C013695279536952795369548
S11340302795A5ECB0E20E94E231929582958F70AB
S113404089279F7089279093E1048093E00487EF88
S113405094E09F938F9384EB91E09F938F93BF920F
S1134060AF920E94B73361E0C5010E94C70C0F9064
S11340700F900F900F900F900F9044C3D60113969A
S11340808C911397833509F051C057968C918823EE
S1134090D1F1C60147960E944A33862F90E08530BD
S11340A0910514F485E090E0853191050CF084E1EC
S11340B080930F014FE051E06FE08EE695E00E949F
S11340C04205F20185898823F1F060910F0170E0C7
S11340D087EF94E00E94222E885A9D4F9C013695CA
S11340E027953695279536952795A5ECB0E20E943D
S11340F0E231929582958F7089279F7089279093DA
S1134100E1048093E00480910F011F928F938BEB65
S113411091E09F938F93BF92AF920E94B7330F9019
S11341200F900F900F900F900F903AC0803581F54B
S1134130F60187898823C9F0813339F0843539F051
S113414091E0893529F090E003C091E001C091E04D
S11341509093510541E555E067E18EE695E00E94B4
S113416042058091510580932205809151051F924B
S11341708F9387EC91E09F938F93BF92AF920E94AD
S1134180B7330F900F900F900F900F900F9008C0BF
S113419085E0EFEAF1E0D50101900D928A95E1F70F
S11341A060E0C5010E94C70CADC2F601838188237B
S11341B0D1F048E050E0B6016D5F7F4FC5010E9429
S11341C08B33D50118961C92C5010E94B919882316
S11341D051F0F50101900020E9F73197E85AF440D5
S11341E0349708F0A5C284E195E09F938F938FECF8
S11341F091E09F938F93BF92AF920E94B73361E097
S1134200C5010E94C70C0F900F900F900F900F9054
S11342100F9078C2F6018381843509F083C04CE0A5
S113422050E0B601695E7F4FC5010E948B33D50112
S11342301C961C924091520541956BE575E0C501B1
S11342400E94F01C69877A878B879C87672B682B71
S1134250692B71F1C5010E94DA0489859A85AB85C1
S1134260BC8580935B0590935C05A0935D05B0933A
S11342705E0580915B0590915C05A0915D05B09110
S11342805E05BF93AF939F938F9387ED91E09F93C8
S11342908F93BF92AF920E94B73360E080E090E0CA
S11342A00E940C170FB6F894DEBF0FBECDBF4DC2EF
S11342B00E948D0360935B0570935C0580935D059C
S11342C090935E052091570530915805409159050A
S11342D050915A0560915B0570915C0580915D0574
S11342E090915E05E12CF12C0BE711E00E942F1B4D
S11342F080915B0590915C05A0915D05B0915E0590
S1134300BF93AF939F938F9381EE91E09F938F938D
S1134310BF92AF920E94B7330FB6F894DEBF0FBEC0
S1134320CDBF13C2833509F096C0B601695E7F4FD5
S1134330C5010E94843340915205419567E575E0BB
S1134340C5010E94F01C611571058105910509F4F0
S113435068C06093570570935805809359059093EE
S11343605A0547E555E064E18EE695E00E94420572
S11343708091530590915405A0915505B09156052F
S11343808D839E83AF83B88780915705909158059C
S1134390A0915905B0915A0580589E4AAE4FBF4F1F
S11343A089839A83AB83BC834D815E816F817885D9
S11343B0481759076A077B0728F489819A81AB81DA
S11343C0BC8104C08D819E81AF81B88580935305E3
S11343D090935405A0935505B093560543E555E0D5
S11343E065E18EE695E00E94420580915705909123
S11343F05805A0915905B0915A05BF93AF939F9367
S11344008F938CEE91E09F938F93BF92AF920E9413
S1134410B7330E94741C0FB6F894DEBF0FBECDBF35
S113442094C18091570590915805A0915905B09178
S11344305A05BF93AF939F938F938CEE91E09F9314
S11344408F93BF92AF920E94B7330FB6F894DEBF3A
S11344500FBECDBF7AC1863409F05CC0B601695E77
S11344607F4FC5010E94843340915205419563E515
S113447075E0C5010E94F01C611571058105910567
S113448079F1609353057093540580935505909387
S1134490560543E555E065E18EE695E00E94420548
S11344A08091530590915405A0915505B0915605FE
S11344B0BF93AF939F938F9387EF91E09F938F93D5
S11344C0BF92AF920E94B73361E0C5010E94C70C4E
S11344D00E94741C0FB6F894DEBF0FBECDBF12C18C
S11344E08091530590915405A0915505B0915605BE
S11344F0BF93AF939F938F9387EF91E09F938F9395
S1134500BF92AF920E94B7330FB6F894DEBF0FBECE
S1134510CDBF1BC10E9489168B7F813019F00E9488
S1134520A71AF0C0209157053091580540915905BC
S113453050915A0560915B0570915C0580915D0511
S113454090915E050F2EFEE6EF2EF1E0FF2EF02D8A
S11345500BE711E00E942F1B209153053091540565
S11345604091550550915605609157057091580535
S11345708091590590915A05E12CF12C08E911E03C
S11345800E942F1B40915705509158056091590581
S113459070915A0580915B0590915C05A0915D0531
S11345A0B0915E05481759076A077B0708F0AAC04F
S11345B0209153053091540540915505509156056D
S11345C060915B0570915C0580915D0590915E053D
S11345D007E811E00E942F1B95C0D60113968C9119
S11345E01397833491F557968C918823A9F0C601CB
S11345F047960E942C339C012153384F2F393F405A
S113460058F490930D0180930C014CE051E062E169
S11346108EE695E00E94420580910C0190910D0177
S11346209F938F9383E092E09F938F93BF92AF9277
S11346300E94B73361E0C5010E94C70C0F900F9030
S11346400F900F900F900F900FC08A3569F4F89473
S113465010921801EEE6F0E080818260808380E0B1
S113466090E00E947307789480911305282F082EF8
S1134670000C330B3F938F939F928F92BF92AF9214
S11346800E94B73361E0C5010E94C70C4091110537
S113469050911205E0911105F09112059A01369599
S11346A0279536952795ABE7B4E10E94E2319695BC
S11346B0879564E6689F9001699F300D1124421B21
S11346C0530B5F934F939F01369527953695279506
S11346D00E94E231969587959F938F933F922F92F4
S11346E0BF92AF920E94B73361E0C5010E94C70C2C
S11346F00FB6F894DEBF0FBECDBF04C08EE695E0C2
S11347000E945F07D60112961C921E9211970E9476
S1134710A70C8CE291E09093110180931001109208
S1134720100511CB80E0B3CB86E0B1CB80E0AFCBFA
S1134730B50184E195E00E94843344E155E06EE0E4
S11347408EE695E00E9442054ECD61E0C5010E94CF
S1134750C70CD8CF2C960FB6F894DEBF0FBECDBFD2
S1134760DF91CF911F910F91FF90EF90DF90CF9049
S1134770BF90AF909F908F907F906F905F904F907D
S11347803F902F9008958F3791F09FEF980F9A31B3
S113479010F4805C089593EE980F9A3010F48D5EB7
S11347A008958B3131F08C3131F48FE2089587E232
S11347B008958CE3089580E20895CF92DF92EF92FA
S11347C0FF920F931F93CF93DF931F92CDB7DEB762
S11347D010921005843431F41092120110924304A3
S11347E080E029C4811121C08091D1049091D20428
S11347F0892B89F48091410490914204892B39F0EA
S113480081E090914304911103C080E001C080E0F5
S11348101092430401C080E02091D1043091D2046D
S1134820309342042093410406C42CE231E03093D7
S113483011012093100190911201911104C093E190
S11348409093430449C38A3259F481E0809343042A
S113485088EC97E39093D2048093D10480E0EBC377
S1134860982F833289F41092D2041092D104E091EB
S113487043044E2F50E04531510508F0A4C3FA011A
S1134880EA56FF4F0C94DC31E0914304EE2389F0A7
S113489028EC37E33093D2042093D1044E2F50E018
S11348A04531510508F091C3FA01E555FF4F0C94C9
S11348B0DC3181E0C0C31092400410923F04109296
S11348C03E0410923D0410923C0410923B048091EB
S11348D01201882309F47BC3913429F482E0809384
S11348E0430480E0A8C3923429F484E18093430410
S11348F080E0A1C3933429F487E08093430480E0EB
S11349009AC31092D2041092D1041092430481E00D
S113491092C3803329F483E08093430480E08BC303
S1134920813329F484E08093430480E084C3823398
S113493029F485E08093430480E07DC3833329F424
S113494086E08093430480E076C3883349F4809101
S11349503A04882329F082E18093430480E06BC306
S11349601092D2041092D1041092430481E063C3E4
S113497080ED890F8A3008F520913D0430913E0482
S1134980A901440F551F220F331F220F331F220F7B
S1134990331F240F351F892F90E0C097280F391F2C
S11349A030933E0420933D0480913B0490913C0459
S11349B0019690933C0480933B0480913B04909136
S11349C03C0402970CF405C31092430480916505DE
S11349D090913D049813FFC281E08093430480E0EA
S11349E02AC382E00E94191A1092430480E023C370
S11349F0933209F0F2C282E00E94C7191092430474
S1134A0080E019C3933209F0EAC20E94741C109228
S1134A10430480E010C3933209F0E3C262E080E013
S1134A2090E00E940C171092430480E004C3913379
S1134A3029F488E08093430480E0FDC2923329F492
S1134A4089E08093430480E0F6C2933329F48DE037
S1134A508093430480E0EFC2943329F48AE0809386
S1134A60430480E0E8C2953329F48BE08093430447
S1134A7080E0E1C2993329F48EE08093430480E01E
S1134A80DAC2913429F480E18093430480E0D3C2F4
S1134A90923429F481E18093430480E0CCC21092E3
S1134AA0D2041092D1041092430481E0C4C2933220
S1134AB0C9F480913F049091400404977CF065E22E
S1134AC074E084E195E00E94843344E155E06EE0B3
S1134AD08EE695E00E94420580E001C081E01092DC
S1134AE04304A9C280ED890F8A30C8F420913F04A1
S1134AF030914004293031050CF075C2A9014F5F93
S1134B005F4F5093400440933F04F901EB5DFB4F2A
S1134B109083FA01EB5DFB4F108280E08CC210920F
S1134B20430481E088C29332E9F4E5E2F4E00190C1
S1134B300020E9F73197E552F440759778F465E27F
S1134B4074E087EF94E00E94843347EF54E06BE015
S1134B508EE695E00E94420580E001C081E010925B
S1134B60430469C280ED890F8A3008F043C0209164
S1134B703B0430913C04232B71F120913D0430918E
S1134B803E048901000F111F220F331F220F331F10
S1134B90220F331F020F131F892F90E0C097080FB5
S1134BA0191F10933E0400933D048FE70E94C32312
S1134BB090E0081719074CF4E0903F04F09040048B
S1134BC024E1E216F1040CF424C210923C04109285
S1134BD03B0480E030C2892F90E0C09790933E045C
S1134BE080933D0481E090E090933C0480933B04E7
S1134BF080E021C21092430481E01DC2933201F58A
S1134C0080913D0490913E0482319105A8F48983FA
S1134C10AE014F5F5F4F60E18EE695E00E94420572
S1134C20809165059981981729F060E0CE0101967D
S1134C300E940C1780E001C081E010924304FBC184
S1134C4080ED890F8A3008F0D0C120913D04309165
S1134C503E04A901440F551F220F331F220F331F97
S1134C60220F331F240F351F892F90E0C097280F80
S1134C70391F30933E0420933D0480E0DCC193321D
S1134C8031F54091520541956BE575E085E294E07C
S1134C900E94F01C6B017C01672B682B692B99F037
S1134CA085E294E00E94DA04C0925B05D0925C0530
S1134CB0E0925D05F0925E0560E080E090E00E9485
S1134CC00C1780E001C081E010924304B4C180ED70
S1134CD0890F8A3008F08BC120913F043091400441
S1134CE0283231050CF085C1F901EB5DFB4F90834F
S1134CF02F5F3F4F3093400420933F04F901EB5D55
S1134D00FB4F108280E097C1933241F540915205E8
S1134D10419567E575E085E294E00E94F01C611519
S1134D20710581059105B1F060935705709358059D
S1134D308093590590935A0547E555E064E18EE662
S1134D4095E00E94420563E080E090E00E940C1729
S1134D5080E001C081E0109243046DC180ED890FB1
S1134D608A3008F048C120913F0430914004283231
S1134D7031050CF042C1F901EB5DFB4F90832F5FCD
S1134D803F4F3093400420933F04F901EB5DFB4F08
S1134D90108280E050C1933241F540915205419513
S1134DA063E575E085E294E00E94F01C61157105ED
S1134DB081059105B1F06093530570935405809378
S1134DC055059093560543E555E065E18EE695E07B
S1134DD00E94420563E080E090E00E940C1780E0AE
S1134DE001C081E01092430426C180ED890F8A300E
S1134DF008F005C120913F04309140042832310568
S1134E000CF0FFC0F901EB5DFB4F90832F5F3F4F28
S1134E103093400420933F04F901EB5DFB4F108273
S1134E2080E009C1933299F480913D0480934F0549
S1134E3080914F050E94FA1D4FE455E061E18EE632
S1134E4095E00E9442051092430480E0F4C097303C
S1134E5008F0D9C0892F90E0C09790933E048093C6
S1134E603D0480E0E8C09332D1F480913D049091F8
S1134E703E048230910578F4809351058091510568
S1134E808093220541E555E067E18EE695E00E94B6
S1134E90420580E001C081E010924304CCC080ED63
S1134EA0890F823008F0B1C0892F90E0C0979093A9
S1134EB03E0480933D0480E0BEC0933249F483E114
S1134EC0898362E0CE0101960E940C1780E001C044
S1134ED081E010924304AFC020913B0430913C0424
S1134EE0A9014F5F5F4F50933C0440933B04F90189
S1134EF0EC5EFA4F9081891313C0E4E1F5E0019070
S1134F000020E9F73197E451F540E417F50709F07B
S1134F107EC081E08093120180933A0480E08BC0CC
S1134F201092D2041092D10410923C0410923B04CB
S1134F301092430481E07FC09332F9F480913D04E0
S1134F4090913E04009741F480E090E00E94730742
S1134F5081E080934E050DC08C3321E092073CF034
S1134F6010924E058BE391E00E94730702C00E94E9
S1134F7073071092430480E05EC080ED890F8A308D
S1134F80D0F420913D0430913E04A901440F551FF3
S1134F90220F331F220F331F220F331F240F351FFD
S1134FA0892F90E0C097820F931F90933E048093C3
S1134FB03D0480E040C01092D2041092D1041092BB
S1134FC0430481E038C080E036C080E034C080E033
S1134FD032C080E030C080E02EC080E02CC080E091
S1134FE02AC080E028C080E026C080E024C080E0A1
S1134FF022C080E020C080E01EC080E01CC080E0B1
S11350001AC080E018C080E016C080E014C080E0C0
S113501012C0802F0E94C323F701EB5DFB4F8083F6
S1135020C70101969093400480933F04FC01EB5D1B
S1135030FB4F1082CACD0F90DF91CF911F910F913A
S1135040FF90EF90DF90CF900895833010F48F5C41
S113505008959CEF980F933010F4805D089598EFB5
S1135060980F933010F4815D0895833071F0873088
S113507071F08B3071F08C3071F08D3071F08E30B6
S113508071F08F3071F484E4089581E4089582E42A
S1135090089583E408958AE2089580E3089583E2FD
S11350A0089580E008954F925F926F927F928F925D
S11350B09F92AF92BF92CF92DF92EF92FF920F93A3
S11350C01F93CF93DF9300D01F92CDB7DEB71A8220
S11350D0198280910D058823C1F08EE695E00E9427
S11350E0FF0660E071EE80E090E00E940A0C80917F
S11350F00E05882341F060E080E10E9494028091D3
S11351000E058111F8CF10920D0580E00E94DD2379
S1135110182F0E946B1EA895111197C180ED94E081
S11351200E941C09882309F490C11A821982809173
S1135130DF04811115C060E081E00E9471190E94B2
S113514005190E94422F809113056813609313057B
S113515060E080E00E9471198BE38093DF0424C235
S11351608091DE04811120C260E082E00E94711906
S11351700E945D19909312058093110560E080E010
S11351800E9471198BE08093DE040EC2F5014191F7
S11351905191619171915F0180ED94E00E94250825
S11351A0BE016F5F7F4F80ED94E00E941F09E62EE1
S11351B0F72E082FD92E292D382D472D562D0E9434
S11351C069301816B4F420E034E244E759E46E2D53
S11351D07F2D802F9D2D0E946930181634F45C2C8D
S11351E09E2C8F2C702E6D2C04C09E2C8F2C702E18
S11351F06D2CC394F4E0CF12C9CFE4C1F501419101
S11352005191619171915F0180ED94E00E942508B4
S113521060E070E080ED94E00E941F09E62EF72E16
S1135220082FD92E292D382D472D562D0E9469304F
S11352301816B4F420E034E244E759E46E2D7F2DCF
S1135240802F9D2D0E946930181634F44C2C9E2C0E
S11352508F2C702E6D2C04C09E2C8F2C702E6D2CD8
S1135260C394F4E0CF12CACF8091D1049091D204B8
S1135270892B59F4809108019091090103972CF02E
S113528089819A81C2970CF04DC044200CF470C0FF
S1135290852D880F880F840D0E942528082F809162
S11352A04A0408133CC080910801909109018A3096
S11352B091052CF401969093090180930801809143
S11352C0080190910901039751F581E080931D0530
S11352D010924904109248040093DB040E94FD0CD0
S11352E08823C9F08091DB041F928F9381E292E0BE
S11352F09F938F9388EA94E09F938F930E94B73390
S113530061E088EA94E00E94C70C0F900F900F9020
S11353100F900F900F90802F0E94DD23182F009381
S11353204A0475C081E080931D0561E080E10E941C
S113533094020E94FD0C882309F469C08A818F932A
S113534089818F9387E292E09F938F9388EA94E018
S11353509F938F930E94B73361E088EA94E00E94A0
S1135360C70C0F900F900F900F900F900F904FC09D
S1135370C090D704D090D804E090D904F090DA0417
S11353808090440490904504A0904604B090470453
S113539080914804909149049C012F5F3F4F3093C2
S11353A049042093480403970CF447C010921D0548
S11353B080911701882329F080915F05882309F4DF
S11353C012C1C818D908EA08FB0827E2C2162BE064
S11353D0D206E104F10420F41092090110920801AC
S11353E010924904109248048091D7049091D804F3
S11353F0A091D904B091DA048093440490934504B5
S1135400A0934604B093470410924A0416C08091B6
S1135410D5049091D604823E9B4178F010921D05EC
S11354201092100580911701882329F080915F055F
S1135430882309F4DDC010924A04EAE7F0E0808191
S11354408860808380818064808380916405811179
S1135450E1C08091600590916105892B19F010924B
S11354601D05D8C0112301F11B8240E050E0BE01AC
S11354706D5F7F4F85E392E00E94162D8EE290E0EF
S1135480909363058093620581E080935F05109299
S11354901D058BEB90E1909361058093600510925C
S11354A0D4041092D304B6C080911D05882339F02A
S11354B061E080E10E94940210921005ABC08091DB
S11354C01701882309F469C080911001909111019A
S11354D0892B09F49DC08091D3049091D404892B25
S11354E009F096C08091D1049091D204892B09F4DB
S11354F084C08EC0809110058230A1F411E01B831A
S113550040E050E0BE016D5F7F4F8EE392E00E9469
S1135510162D8CE890E090936305809362051093B8
S11355205F0578C0809110058130A1F411E01B83E0
S113553040E050E0BE016D5F7F4F81E492E00E9445
S1135540162D86E490E09093630580936205109392
S11355505F0560C080911005843021F080911005B2
S11355608330A1F411E01B8340E050E0BE016D5F85
S11355707F4F8EE392E00E94162D8CE890E090938A
S113558063058093620510935F0544C010925F0524
S113559060E080E10E9494023DC010925F0560E0EB
S11355A080E10E94940236C00F2EFDE5AF2EF2E09A
S11355B0BF2EF02DC12C912C812C712C612C5524E3
S11355C05A94E4CD55200CF4D3CE0F2EFDE6AF2E25
S11355D0F2E0BF2EF02DC12C912C812C712C612C6A
S11355E044244A940BCE60E080E10E949402E9CE08
S11355F060E080E10E9494021ECF109110050E9489
S113560089168093100580911005181373CF02C07A
S113561010925F050F900F900F90DF91CF911F9123
S11356200F91FF90EF90DF90CF90BF90AF909F903D
S11356308F907F906F905F904F90089563E081E129
S11356400E94790161E080E10E94790160E080E1DB
S11356500E94940261E086E00E94790160E086E0A5
S11356600E94940261E085E00E94790160E085E097
S11356700E94940261E084E00E94790160E084E089
S11356800E94940260E084E10E94790160E085E177
S11356900E94790161E087E00E94790161E087E07E
S11356A00E94940263E083E10E94790163E082E155
S11356B00E94790163E082E00E9479010E94540C07
S11356C061E083E00E94790160E083E00E9494023B
S11356D061E08EE00E94790160E08EE00E94940215
S11356E061E08FE00E94790160E08FE00E94940203
S11356F084B18F6384B985B1807C85B90E94C40963
S11357008EE695E00E941B06C82F61E080E00E94AF
S11357107119F894A0EBB0E01C92E1EBF0E0108278
S11357208C9182608C938081876080838CE08093ED
S1135730B3001092B400E6EBF0E080818F7D8083AB
S1135740E0E7F0E010828081846080831092800022
S1135750E1E8F0E0108210928500109284008081CC
S11357608860808380818160808314BC84B582607A
S113577084BD15BC85B5846085BD8FE287BD10925C
S11357806E0010926D00ECE6F0E0108288E08083F9
S1135790E8E6F0E0108282E0808380914F050E9469
S11357A0FA1D789460E071EE80E090E00E940A0CAB
S11357B080E00E942C0DA89581E10E94490291E0AD
S11357C0811190E090930E05CC2329F061E08EE4E2
S11357D092E00E94C70C81E00E9421058EE695E0CC
S11357E00E945F070E94A71A0E94A70C80E00E94F3
S11357F0C719E9E6F0E0808182608083E89A0E941C
S11358005328FDCF0F931F938EE695E00E94400529
S113581000E018E726E936E440E050E069E473E488
S113582080ED94E00E94BA071F910F91089580EDD6
S113583094E00E940B088EE695E00E9441050895CD
S113584090E00E947133FC01FF27B097ED35F1051C
S113585008F0E4C0E054FF4F0C94DC3189E074E0BC
S113586061E008958BE074E065E0089587E073E0FB
S113587061E0089581E071E060E0089589E074E0FA
S113588064E0089589E073E063E0089587E074E0DC
S113589060E0089583E072E060E008958DE074E0D4
S11358A06EE0089589E073E065E0089589E074E0AE
S11358B062E0089587E072E063E0089585E072E0B5
S11358C061E008958BE073E067E008958BE074E095
S11358D066E008958DE074E06BE0089587E073E07E
S11358E062E0089585E073E060E0089583E071E08C
S11358F061E0089587E073E064E0089589E074E06E
S113590068E0089589E073E066E008958BE074E050
S113591069E008958DE074E06DE008958BE074E033
S113592063E0089583E175E06FE1089581E175E036
S11359306EE108958FE075E06CE108958DE075E007
S113594068E108958BE075E060E1089589E075E011
S113595060E008958BE075E061E008958DE075E006
S113596063E008958FE075E067E0089581E175E0F4
S11359706FE0089581E176E06AE2089583E176E0DC
S113598063E308958FE076E06CE0089583E176E0C8
S11359906EE1089583E176E065E308958DE075E0B6
S11359A069E008958FE075E06DE0089583E176E0A5
S11359B06DE208958BE075E062E0089581E176E0A0
S11359C067E008958CE076E065E108958DE075E088
S11359D061E108958DE075E06AE008958FE076E076
S11359E061E2089581E176E06CE208958FE076E06B
S11359F062E1089581E177E068E4089581E176E069
S1135A0066E1089584E077E06FEF089587E077E03A
S1135A106EEF089583E175E06FE1089580E070E032
S1135A2060E0089585E072E062E00895CF93DF932B
S1135A30EA01009709F441C010927A0561157105D5
S1135A4021F0DB012C9120931B01FC0120812223F6
S1135A5031F140917805509179058417950709F43F
S1135A60E9C0909379058093780580E280931A01C8
S1135A70822F0E94202C6093750570937605809385
S1135A8077051092740510927305109272051092A6
S1135A9071051092700510926F0580E0D0C01092CD
S1135AA079051092780581E080937005209709F0BC
S1135AB0888310926F0580E0C2C0E0917805F09170
S1135AC07905309709F4AAC06115710521F0809118
S1135AD01B01DB018C9380917005882349F020978A
S1135AE009F4AAC081E0888310927A0580E0A7C0F7
S1135AF080917205882321F08150809372057FC0C4
S1135B0080916F05882381F080917A0581110CC002
S1135B1010926F0580917105882309F470C08093F9
S1135B207205109271056BC0909176058091730592
S1135B30891790F1809174058F5F80937405DF015C
S1135B40A80FB11D8C9180931A01811119C0809105
S1135B501B01882331F0808180931A01109274050F
S1135B600FC0109279051092780510926F0591E09C
S1135B7090937005209709F0988310927A055FC07E
S1135B8080911A010E94202C60937505709376050C
S1135B908093770510927305209175052D3F00F5CC
S1135BA04091730531E0340F3093730581E090E048
S1135BB002C0880F991F4A95E2F7822321F082E000
S1135BC08093720502C01092720581E080936F0584
S1135BD080917605381798F082E0809371050FC0A4
S1135BE0809176059FEF9093730510926F05843032
S1135BF020F084508093720502C010927205809147
S1135C001A018C3331F481E080937A05209741F4B2
S1135C1016C010927A05209719F409C0209719F03C
S1135C2080917005888380917A05811107C08091E5
S1135C306F0505C080E003C080E001C081E0DF9112
S1135C40CF910895CF92DF92EF92FF920F931F931B
S1135C50CF93FC016B0180818823C1F08F010F5F1A
S1135C601F4F7F0194E1E90EF11CC0E005C0F8016B
S1135C7081918F01882359F00E94202C6D3F08F4F4
S1135C80CD5FC80F0E151F0591F701C0C0E080EB72
S1135C9094E0B6010E947331C69FC001C79F900D66
S1135CA01124CF911F910F91FF90EF90DF90CF902F
S1135CB008955058BB27AA270E94712E0C941B30BC
S1135CC00E94E22F38F00E94E92F20F039F49F3F20
S1135CD019F426F40C94DF2F0EF4E095E7FB0C94F2
S1135CE0D92FE92F0E94403058F3BA17620773077F
