:100000000C94FF000C94090C0C9427010C9427010C
:100010000C9427010C9401130C9427010C942701D4
:100020000C94A60E0C9427010C9427010C94BC0D83
:100030000C9427010C9427010C947F0D0C9427013C
:100040000C9427010C9427010C94200A0C94BC0BEF
:100050000C9427010C94E8090C9427010C942701B7
:100060000C9427010C942701550160016B01760166
:1000700081018C019701A201AD010E020E02B801AF
:10008000C301D001DD01EA01F701040219021D02DA
:100090002102250229022D02310236023A025302C0
:1000A00053023E02420247024B024F0265026B02BC
:1000B000710277027D02830289028F029502B802E3
:1000C000B8029B02A102A702AD02B302D9023E030D
:1000D0003E03F6022C03D6022F0317033503D30287
:1000E0001A031D032303D002200338038703590397
:1000F0008A035C035F036203650368036B036E039B
:100100007103CA1CFF1C2E1D381D421D4C1DCD1D28
:100110003E1EB91EFC1E3F1F7D1E861F961DAA1F78
:10012000D61F9325572583259B2587259B25672546
:1001300053255F2563259B2577254B257B25472563
:100140005B251F25232527252B252F2533253725FF
:100150003B253F2543256B256F25972573259B253B
:100160004F258B259F25BB24BF24C324C724CB2424
:10017000CF24D324D724DB24DF24E324E724EB2477
:10018000EF24F324F724FB24FF24032507250B2564
:100190000F25132517251B259B259B259B259B2577
:1001A0007F259B259B259B259B259B259B259B256B
:1001B0009B259B259B259B259B259B259B259B253F
:1001C0009B259B259B259B259B259B259B259B252F
:1001D0009B259B259B259B259B258F2505A84CCDE5
:1001E000B2D44EB93836A9020C50B9918688083C71
:1001F000A6AAAA2ABE000000803F9224A7241124A8
:100200001FBECFEFD8E0DEBFCDBF13E0A0E0B1E06E
:10021000E6ECF2E602C005900D92A431B107D9F7E1
:1002200025E0A4E1B3E001C01D92AF3CB207E1F7C5
:1002300010E0CEEFD0E004C02197FE010E94492CCF
:10024000CD3FD107C9F70E946A230C9456310C9414
:100250000000623021F40E943601845E0895683007
:1002600008F06F5F61708EE1860F08959C01237026
:100270003327232B59F464E670E00E94F42B892B7A
:1002800039F46370772781E0672B19F080E00895D7
:1002900081E0089590E0FC013297E231F10508F029
:1002A000BDC0EC5CFF4F0C94492C613011F4529AA4
:1002B00008955298633011F45A9A08955A980895FF
:1002C000613011F4539A08955398633011F45B9A96
:1002D00008955B980895613011F4549A08955498E4
:1002E000633011F45C9A08955C980895613011F4BC
:1002F000559A08955598633011F45D9A08955D9864
:100300000895613011F4569A08955698633011F4A7
:100310005E9A08955E980895613011F4579A089591
:100320005798633011F45F9A08955F98089561308B
:1003300011F4209A08952098633011F4289A0895B2
:1003400028980895613011F4219A08952198633016
:1003500011F4299A089529980895613011F4229A88
:1003600008952298633011F42A9A08952A980895DE
:10037000613011F4259A08952598633011F45D9A3F
:1003800008955D980895613011F4389A0BC038983B
:10039000633019F4409A39980AC0409839980AC0D5
:1003A000613011F4399A0BC03998633019F4419ACD
:1003B0003A980AC041983A980AC0613011F43A9AC2
:1003C0000BC03A98633019F4429A3B980AC042989D
:1003D0003B980AC0613011F43B9A0BC03B986330E4
:1003E00019F4439A3C980AC043983C980AC061307B
:1003F00011F43C9A0BC03C98633019F4449A3D9830
:100400000AC044983D9809C0613011F43D9A08959E
:100410003D98633011F4459A08954598089590E009
:10042000FC013297E031F105F0F5EA5BFF4F0C94E7
:10043000492C29B1247030E038C029B1287030E04F
:1004400034C029B1207130E030C029B1207230E0D1
:100450002CC029B1207430E028C029B1207830E0C8
:1004600024C083B1282F217030E01FC023B1227037
:1004700030E01BC023B1247030E017C023B12072DC
:1004800030E013C086B1282F217030E00EC026B1B5
:10049000227030E00AC026B1247030E006C026B1D8
:1004A000287030E002C020E030E081E0232B09F426
:1004B00080E0089590E0FC013297E031F10508F00A
:1004C00057C0EA5AFF4F0C94492C662311F05A9AF0
:1004D00008955A980895662311F05B9A08955B98E1
:1004E0000895662311F05C9A08955C980895662338
:1004F00011F05D9A08955D980895662311F05E9A53
:1005000008955E980895662311F05F9A08955F98A4
:100510000895662311F0289A08952898089566236F
:1005200011F0299A089529980895662311F02A9ABE
:1005300008952A980895662311F02D9A08952D980C
:100540000895662311F0409A08954098089566230F
:1005500011F0419A089541980895662311F0429A46
:10056000089542980895662311F0439A0895439898
:100570000895089508950F931F93CF93DF93411526
:10058000510509F47BC0862F90E0FC013B97E031D8
:10059000F10508F073C0DA01EA59FF4F0C94492CB9
:1005A0008FEE92E052C087EE92E064C082EE92E05D
:1005B00058C08A010F5F1F4F6C91662371F0C0E035
:1005C000D0E02196CE01865D9D4F0E94EB30F80170
:1005D00061918F016111F5CF02C0C0E0D0E060E011
:1005E000CE01855D9D4F0E94EB3048C08A010F5FB0
:1005F0001F4F6C91662391F0C0E0D0E003C0C8307B
:10060000D10571F02196CE0189529D4F0E94EB30A9
:10061000F80161918F016111F2CF02C0C0E0D0E01A
:1006200060E0CE0188529D4F0E94EB3027C084EEDF
:1006300092E017C089EE92E014C08AEE92E011C0F9
:1006400083EF92E00EC08BEE92E04D915D916D9143
:100650007C910E94FD3012C081EE92E002C083EED8
:1006600092E06C910E94EB3009C085EE92E002C0EE
:1006700084EF92E06D917C910E940931DF91CF91DE
:100680001F910F910895EF92FF920F931F93CF93B5
:10069000C62F0E94E209882309F446C08C2F90E0FF
:1006A0008B30910508F040C0FC01EA58FF4F0C94D4
:1006B000492C8AE290E030C08FE491E02DC085E7BC
:1006C00091E02AC08CE991E027C08DEB91E024C035
:1006D00088ED91E021C08EEE91E01EC083E092E0B3
:1006E0001BC087E192E018C08701CC23E9F08C2F72
:1006F0000E94A50978018FEFE81AF80AC8010E9444
:10070000D730C82F0E94F7088111FCCFEDCF80E0D1
:1007100090E002C087E291E08C010F5F1F4F0E94C2
:10072000D730C82F8111E3CFCF911F910F91FF9048
:10073000EF900895EF92FF920F931F93CF93DF9363
:1007400084EF92E00E94E5308B3B910509F0C2C036
:1007500081EE92E00E94D73090E08530910514F44C
:1007600085E090E08531910514F084E190E080937C
:10077000150182EE92E00E94D730863108F085E1C3
:100780008093B90583EE92E00E94D7308093A5054F
:1007900085EE92E00E94E530909313018093120160
:1007A00087EE92E00E94E530909336058093350500
:1007B00084EE92E00E94D7308093390589EE92E072
:1007C0000E94D730809338058AEE92E00E94D7309D
:1007D000809337058BEE92E00E94DF306093AC058A
:1007E0007093AD058093AE059093AF058FEE92E0C8
:1007F0000E94DF306093A8057093A9058093AA0535
:100800009093AB0583EF92E00E94D7308093A705C9
:100810000BE212E0C1E5D5E00F2EF5E6EF2EF5E094
:10082000FF2EF02DC8010E94D730899381110BC093
:1008300008ED12E0C9E6D5E00F2EF1E7EF2EF5E066
:10084000FF2EF02D06C00F5F1F4FCE15DF0551F7AD
:10085000EFCFC8010E94D7308993882329F00F5F1A
:100860001F4FCE15DF05A9F708EB12E0C4E8D5E06D
:100870000F2EF4EAEF2EF5E0FF2EF02DC8010E94B6
:10088000D73089930F5F1F4FCE15DF05B9F78091E1
:10089000AC059091AD05A091AE05B091AF05892B47
:1008A0008A2B8B2BC9F04091A8055091A905609126
:1008B000AA057091AB058091AC059091AD05A09112
:1008C000AE05B091AF0584179507A607B70730F4BA
:1008D00080E019C081E017C080E015C08091AC05B0
:1008E0009091AD05A091AE05B091AF0580589E4A9C
:1008F000AE4FBF4F8093A8059093A905A093AA057A
:10090000B093AB0580E0DF91CF911F910F91FF90E5
:10091000EF900895CF93DF93EC010E949C0960E073
:10092000CE010E94430361E0CE010E9443030E9476
:100930009C090E949C09DF91CF910895CB01880FFB
:10094000991F805C9D4F0E94E53008959C012E5FA9
:100950003F4F2B3381E0380710F02BE331E0ADEC53
:10096000BCEC0E944F2C96958795969587959C0197
:10097000220F331F220F331F280F391F0E944F2CC5
:1009800096958795969587959C0120733327329588
:1009900022952F7023273F7023272093140398B1AB
:1009A0008F70907F892B88B98BB18C7F90911403C5
:1009B000892B8BB908950E943C0961E08EE00E946A
:1009C0004A0161E08FE00E944A0161E080E10E94FB
:1009D0004A0161E081E10E944A0161E080E00E94F9
:1009E0004A0161E081E00E944A0161E086E00E94E4
:1009F0004A0161E086E00E945A020895EF92FF9258
:100A00000F931F93CF93DF93E42EF52ED62FC72F8E
:100A100000932C0310932D0320932E0330932F0368
:100A200020E030E041E553E46E2D7F2D8D2F9C2F8B
:100A30000E94D62A18166CF020E030E048EC52E410
:100A40006E2D7F2D8D2F9C2F0E943329882334F00B
:100A500009C0E12CF12CD1E5C3E404C0E12CF12C58
:100A6000D8ECC2E46E2D7F2D8D2F9C2F0E94AF29D4
:100A70007093270360932603CB01880F991F0E9470
:100A8000782C9093160380931503DF91CF911F91DB
:100A90000F91FF90EF9008958091150390911603A8
:100AA0000E94102D089510921A0310921B031092A9
:100AB0001C0310921D0310921E0310921F0310922C
:100AC0002003109221031092170308958F929F9292
:100AD000AF92BF92CF92DF92EF92FF92CF93DF93CC
:100AE000EC014A015B016091260370912703072EF8
:100AF000000C880B990B0E94E7296B017C01809206
:100B0000280390922903A0922A03B0922B03A501F7
:100B100094010E94DB2A20912C0330912D034091F7
:100B20002E0350912F030E943D2920E030E040E049
:100B30005FE30E94C7280E94AF29072E000C880B94
:100B4000990B0E94E7292BED3FE049EC50E40E940D
:100B5000DB2AA70196010E943D290E9438299B01AA
:100B6000AC010E94C72860932203709323038093F3
:100B7000240390932503CE010E945305DF91CF916A
:100B8000FF90EF90DF90CF90BF90AF909F908F90AD
:100B900008958F929F92AF92BF92CF92DF92EF9281
:100BA000FF92CF93DF93EB01C0901E03D0901F0301
:100BB000E0902003F0902103209122033091230341
:100BC0004091240350912503C701B6010E94DB2AFE
:100BD00020911A0330911B0340911C0350911D0377
:100BE0000E94C6284B015C01BE017250072E000C0A
:100BF000880B990B0E94E7299B01AC01C501B40148
:100C00000E94C728C0921A03D0921B03E0921C03D3
:100C1000F0921D0360931E0370931F0380932003C3
:100C200090932103DF91CF91FF90EF90DF90CF90D1
:100C3000BF90AF909F908F9008958091170381117E
:100C400027C0E0911803F0911903EE0FFF1F809168
:100C5000150390911603E80FF91F7183608380914B
:100C60001803909119030196909319038093180328
:100C70002091260330912703821793073CF01092AE
:100C800019031092180381E08093170380911703D2
:100C900008958091170308954F925F926F927F920B
:100CA0008F929F92AF92BF92CF92DF92EF92FF927C
:100CB0000F931F93CF93DF938C0180912603909124
:100CC000270318161906C4F4C0E0D0E0CE01880F3F
:100CD000991FE0911503F0911603E80FF91F608149
:100CE0007181C8010E94C9052196809126039091C7
:100CF0002703C817D90754F380901E0390901F0351
:100D0000A0902003B0902103C0901A03D0901B0341
:100D1000E0901C03F0901D03A5019401C501B401EE
:100D20000E94DB2A2B013C01A7019601C701B601F5
:100D30000E94DB2A9B01AC01C301B2010E94C728BB
:100D40002B013C0120912203309123034091240385
:100D500050912503C501B4010E94DB2AA701960129
:100D60000E94DB2A9B01AC01C301B2010E94C6288C
:100D70006B017C01C8010E945305C701B601DF91D8
:100D8000CF911F910F91FF90EF90DF90CF90BF9088
:100D9000AF909F908F907F906F905F904F9008954D
:100DA000E4E6F0E080818F7780831092B90085E2DD
:100DB0008093B80084E08093BC0081E080930601BA
:100DC000089584EA8093BC00ECEBF0E080818823F6
:100DD00064F0809106018111F9CF07C080E980930A
:100DE000BC0081E08093060108958091060188236C
:100DF000A9F380E0089584E98093BC00089580936E
:100E0000BB0084E88093BC00ECEBF0E08081882399
:100E100064F0809106018111F9CF07C084E98093C5
:100E2000BC0081E08093060108958091B900887F1D
:100E30008613F4CF80E0089584EC8093BC00ECEB43
:100E4000F0E08081882324F0809106018111F9CFA0
:100E50008091BB00089584E88093BC00ECEBF0E047
:100E60008081882324F0809106018111F9CF80913F
:100E7000BB0008952091B900287F30E090E028174A
:100E8000390729F084E98093BC0081E0089580E06F
:100E90000895CF93DF9300D000D000D0CDB7DEB758
:100EA0008A836B835D834C832E8319820E94E106C3
:100EB00088E00E943A07982F81E0992309F480E0A6
:100EC000882311F081E03FC068E18A810E94FF061B
:100ED000982F81E0992309F480E0882311F081E0C4
:100EE00032C068E28B810E94FF06982F81E099232F
:100EF00009F480E0882311F081E025C08E819FEF06
:100F0000980F9E8391E0882309F490E09923C1F023
:100F1000898191E0980F9983882F90E02C813D8101
:100F2000820F931FFC01808168E20E94FF06982FC8
:100F300081E0992309F480E0882301F381E003C074
:100F40000E94FB0680E026960FB6F894DEBF0FBE27
:100F5000CDBFDF91CF9108950F931F93CF93DF9370
:100F600000D000D000D0CDB7DEB78A836B835D831D
:100F70004C832E8319820E94E10688E00E943A0782
:100F8000982F81E0992309F480E0882311F081E013
:100F900079C068E18A810E94FF06982F81E0992339
:100FA00009F480E0882311F081E06CC068E28B8155
:100FB0000E94FF06982F81E0992309F480E088239E
:100FC00011F081E05FC00E94E10680E10E943A07D3
:100FD000982F81E0992309F480E0882311F081E0C3
:100FE00051C08A81816060E40E94FF06982F81E0F1
:100FF000992309F480E0882311F081E043C08E81B9
:101000009FEF980F9E8391E0882309F490E0992345
:10101000B1F18E818823D9F0898191E0980F99836D
:10102000882F90E02C813D818901080F191F0E94B3
:101030001C07F801808380E50E943A07982F81E021
:10104000992309F480E08823D1F281E01BC08981D3
:10105000882F90E02C813D818901080F191F0E9483
:101060002B07F801808388E50E943A07982F81E0DA
:10107000992309F480E0882311F281E003C00E94E3
:10108000FB0680E026960FB6F894DEBF0FBECDBFFC
:10109000DF91CF911F910F9108958091330394E0D8
:1010A00059E2282F30E0529FF001539FF00D112498
:1010B000EE54FC4F408141110CC0915029F08F5FDC
:1010C000843078F380E0EDCF8093330380E090E0CC
:1010D00008958093330349E2429FC001439F900DDE
:1010E00011248E549C4F08958091320394E059E26C
:1010F000282F30E0529FF001539FF00D1124EE5441
:10110000FC4F4081442361F0915029F08F5F84307F
:1011100078F380E0EDCF8093320380E090E0089593
:101120008093320349E2429FC001439F900D1124F6
:101130008E549C4F089580913103282F30E09FE317
:10114000899FF0011124EC5CFC4F41815281452BB9
:10115000A9F08F5F823008F080E0282F30E09FE315
:10116000899FF0011124EC5CFC4F41815281452B99
:1011700029F08093310380E090E00895809331035B
:101180004FE3429FC001439F900D11248C5C9C4F04
:10119000089580913003282F30E09FE3899FF0016C
:1011A0001124EC5CFC4F41815281452BA9F48F5FE7
:1011B000823008F080E0282F30E09FE3899FF00123
:1011C0001124EC5CFC4F41815281452B29F4809322
:1011D000300380E090E00895809330034FE3429F16
:1011E000C001439F900D11248C5C9C4F0895809109
:1011F000560408959091560481E0911180E0911178
:1012000008C091E090935604E1ECF0E09081906288
:101210009083089580915604882339F0E1ECF0E042
:1012200080818F7D80831092560408959B01AC01CC
:101230008EE7E4E3F3E0DF011D928A95E9F7E2EB44
:10124000F3E0108211A61092040410922D0460E4C1
:1012500072E48FE090E00E94082C21503109309315
:10126000C5002093C40088E98093C1008EE080937C
:10127000C20010920701089581E080930701109247
:10128000C1000E940A098EE7E4E3F3E0DF011D924A
:101290008A95E9F7E2EBF3E0108211A610920404BC
:1012A00010922D0408950F931F93CF93DF932091F5
:1012B0000701211114C00097A1F08C010E9474084D
:1012C0000097B9F4C8ECD0E002C0209761F090918B
:1012D0005604992351F02097D1F02197F8CF81E05F
:1012E0001BC081E019C081E017C00E9474080097FC
:1012F00061F31F930F939F938F930E94242E0E945C
:10130000FA080F900F900F900F9080E005C00E9498
:101310007408009771F781E0DF91CF911F910F91D1
:10132000089580910701811106C081E291E00E9439
:1013300053098111FACF089580910701811104C0EA
:1013400084E291E00E945309089590910701911160
:1013500007C0E7E5F4E080831182CF010E945309C2
:101360000895CF9320910701211125C0009729F1FD
:10137000FC0101900020E9F73197E81BF90BBA97BF
:10138000F0F4C62FBC0149E250E087E594E00E94EA
:10139000F82DCC2359F087E594E00E945309811180
:1013A000FACF809156048111FCCF0AC087E594E002
:1013B0000E94530905C081E003C081E001C081E0C3
:1013C000CF9108959091070181E0911180E00895F7
:1013D0001F920F920FB60F9211242F933F934F93AA
:1013E0005F936F937F938F939F93AF93BF93EF938D
:1013F000FF9361E08BE00E945A026091790070E0F7
:101400008BE295E00E941D06882329F0EAE7F0E0D0
:101410008081877F808360E08BE00E945A02FF9189
:10142000EF91BF91AF919F918F917F916F915F915C
:101430004F913F912F910F900FBE0F901F901895D5
:101440001F920F920FB60F9211241F932F933F9369
:101450004F935F936F937F938F939F93AF93BF93BC
:10146000CF93DF93EF93FF931091C600C0910105D6
:10147000D0910205209751F40E949B08EC019093B3
:10148000020580930105892B09F462C1812F90E048
:101490000E94DE2D9C0180910005882321F081505F
:1014A0008093000555C12B3121F482E08093000523
:1014B0004FC12D3009F03FC08091BF04882331F126
:1014C000E091FF04EE23F9F082E088838091BD046F
:1014D0009091BE049A8389838091BC04882379F01B
:1014E00090E001974091BB0454E1589F9001599FAF
:1014F000300D1124C20FD31FC40FD11D1B82F0E089
:10150000E054FB4F10820E949C0904C08FEF9FE7BC
:101510009A8389831092FF041092BB041092BE0438
:101520001092BD041092BC041092020510920105A5
:101530001092BF040DC1222309F40AC1E091FF04F7
:101540004E2F50E0DA01A054BB4F2C93EE2309F448
:10155000D6C02F3709F05FC0E150E093FF048091BF
:10156000BC04811113C0F0E0E054FB4F4081809136
:10157000BD049091BE04841B91096AE070E00E9452
:10158000F42B7093BE046093BD0439C09091BB04EA
:10159000992391F04FEF490F4093BB0490E00197DE
:1015A00054E1589FB001599F700D1124C60FD71FE9
:1015B000C40FD11D1B8223C0F0E0E054FB4F90818B
:1015C0009032A1F481508093BC04DE0194E1899FA4
:1015D000A00DB11D11241396FD0101900020E9F723
:1015E0003197EA1BFB0BE093BB0409C094E1899F90
:1015F000C00DD11D11241B8281508093BC048091A9
:10160000FF04E82FF0E0E054FB4F1082811193C0FB
:101610001092BF0490C0203279F5FA01E154FB4FDB
:101620008081803209F494C08091BC04682F70E0FE
:10163000FB01319633970CF08BC0882379F0615011
:1016400071099091BB04A4E1A69FF001A79FF00D42
:101650001124CE0FDF1FC90FD11D1B828F5F809316
:10166000BC041092BB044F5F5F4F4E3351050CF02A
:101670004EE34093FF045FC08091BB04843108F0C7
:1016800067C04091BC04411119C04091BD04509104
:10169000BE04BA01660F771F440F551F440F551F34
:1016A000440F551F460F571F420F511D5093BE0444
:1016B0004093BD048F5F8093BB0416C050E041503F
:1016C000510991E0980F9093BB04E4E1E49FB001CD
:1016D000E59F700D1124C60FD71FFE01E80FF11D05
:1016E0002383C90FD11D1B828091FF0490E00196D6
:1016F0008E3391050CF08EE38093FF041CC02F37CE
:1017000041F48091BD049091BE0418161906BCF0F6
:101710001BC02032E9F01092BC04C90199279093B4
:10172000BE048093BD041B821F8A1BA681E08093A8
:10173000BF048093FF04822F0E94A50909C0109264
:10174000BE041092BD04F7CF1092BE041092BD04E7
:10175000FF91EF91DF91CF91BF91AF919F918F91C9
:101760007F916F915F914F913F912F911F910F90BA
:101770000FBE0F901F9018951F920F920FB60F92E9
:1017800011242F933F934F935F936F937F938F9386
:101790009F93AF93BF93EF93FF938091B904909180
:1017A000BA04892B31F40E944D089093BA048093B7
:1017B000B904E091B904F091BA048091B804DF0152
:1017C000A80FB11D9C91992331F08F5F8093B804CD
:1017D0009093C6000DC01092B80410820E944D086C
:1017E0009093BA048093B904892B11F40E940A09DA
:1017F000FF91EF91BF91AF919F918F917F916F91E9
:101800005F914F913F912F910F900FBE0F901F90BE
:1018100018951F920F920FB60F9211242F933F939A
:101820004F935F936F937F938F939F93AF93BF93E8
:10183000EF93FF938091B0059091B105A091B2050F
:10184000B091B3050196A11DB11D8093B005909391
:10185000B105A093B205B093B3058091110188231F
:1018600029F08091110181508093110180911E0116
:10187000882391F180916605882309F42FC1409156
:10188000B0055091B1056091B2057091B30580919A
:10189000AC059091AD05A091AE05B091AF0548178C
:1018A00059076A077B0708F419C14091B0055091A8
:1018B000B1056091B2057091B3058091A805909132
:1018C000A905A091AA05B091AB05481759076A0769
:1018D0007B0708F4CBC002C1809166058823E1F044
:1018E0004091B0055091B1056091B2057091B3057A
:1018F0008091A8059091A905A091AA05B091AB058A
:10190000481759076A077B0738F01092660581E08F
:1019100080931E011092B80580911E018111DEC0D6
:101920008091BA059091BB05A091BC05B091BD0511
:10193000892B8A2B8B2B81F48091790590917A05E4
:101940009093AD048093AC0481E090E090931D01EE
:1019500080931C01109276058091BA059091BB0589
:10196000A091BC05B091BD050196A11DB11D80934C
:10197000BA059093BB05A093BC05B093BD058091BB
:101980008005909181050196909381058093800553
:101990008091AC049091AD04009729F00197909349
:1019A000AD048093AC0480917E0590917F05892BD6
:1019B000D1F16091BA057091BB058091BC05909101
:1019C000BD052091820530918305032E000C440B48
:1019D000550B0E942A2C672B682B692B09F44BC0EE
:1019E00022C081E090E090931D0180931C0160E093
:1019F0008DE00E945A0281E080937D05109281055E
:101A0000109280058091AC049091AD04892B59F41B
:101A10008091790590917A059093AD048093AC0400
:101A200081E08093780580913805882309F454C0BB
:101A30008091BA059091BB05A091BC05B091BD0500
:101A400020911A0130911B01BC01CD01655F7F4FD0
:101A50008F4F9F4F032E000C440B550B0E942A2CD6
:101A60006B30710581059105E4F036C01092B40524
:101A700010921E0133C080911C0190911D010196AE
:101A800090931D0180931C0120911C0130911D0138
:101A900080917E0590917F05821793070CF0ABCF64
:101AA000A0CF8091BA059091BB05A091BC05B091E3
:101AB000BD0520911A0130911B01BC01CD01655F6C
:101AC0007F4F8F4F9F4F032E000C440B550B0E94EE
:101AD0002A2C6093760502C010927605FF91EF9153
:101AE000BF91AF919F918F917F916F915F914F9136
:101AF0003F912F910F900FBE0F901F9018951F923E
:101B00000F920FB60F9211242F933F934F935F9331
:101B10006F937F938F939F93AF93BF93EF93FF93B5
:101B20008091AB0491E0811190E09093AB0490918F
:101B30007705992361F0811105C061E089E00E9479
:101B40005A0209C060E089E00E945A0204C060E0C5
:101B500089E00E945A02FF91EF91BF91AF919F914E
:101B60008F917F916F915F914F913F912F910F9046
:101B70000FBE0F901F9018951F920F920FB60F92E5
:101B800011248F939F93EF93FF938091A60581116A
:101B90002EC08091AA0481112AC08091A4058823B7
:101BA00091F034C01092AA0498B18F70907F892B65
:101BB00088B99BB18091A904807382958F709C7FB6
:101BC000892B8BB92BC08091A9048F3339F18FE316
:101BD0008093A90488B18F6088B99BB18091A904D2
:101BE000807382958F709C7F892B8BB917C0E09191
:101BF000AA0491E09E0F9093AA04F0E0EC57FA4FEC
:101C000080818093A904903268F6CECF81E08093E2
:101C1000AA04809184058093A904C6CFFF91EF9117
:101C20009F918F910F900FBE0F901F9018958091EC
:101C30001E01882309F469C08091A8059091A90527
:101C4000A091AA05B091AB05892B8A2B8B2B09F4A7
:101C50005EC08091A8059091A905A091AA05B091B8
:101C6000AB05892B8A2B8B2B09F453C08091B005CF
:101C70009091B105A091B205B091B305811596463A
:101C8000AE4EBF4508F447C04091A8055091A90544
:101C90006091AA057091AB058091AC059091AD055E
:101CA000A091AE05B091AF0584179507A607B707B9
:101CB000A0F54091B0055091B1056091B2057091C9
:101CC000B3058091A8059091A905A091AA05B091AE
:101CD000AB0584179507A607B70708F14091B00533
:101CE0005091B1056091B2057091B3058091AC053A
:101CF0009091AD05A091AE05B091AF058417950701
:101D0000A607B70770F081E0089584E0089582E0A7
:101D1000089582E0089582E0089582E0089582E0C7
:101D2000089583E008959091760591110AC020915D
:101D30001801309119019FE2921B97BD809377059E
:101D400008958FE287BD1092770508951F920F9234
:101D50000FB60F9211242F933F934F935F936F937E
:101D60007F938F939F93AF93BF93EF93FF93CF9303
:101D7000DF9300D0CDB7DEB780912C0590912D0573
:101D8000A0912E05B0912F050196A11DB11D809344
:101D90002C0590932D05A0932E05B0932F0581E07F
:101DA00089831A8280911701882391F184E00E942F
:101DB0000F0290911001891325C020917405309174
:101DC00075052B3B304154F4209174053091750515
:101DD0002F5F3F4F30937505209374052091740554
:101DE00030917505253631059CF0813009F46FC1BD
:101DF00092E09093730581110BC061E08DE00E9429
:101E00005A0206C080931001109275051092740555
:101E100080913805882309F458C080917605909107
:101E2000B7049817B1F0809176058093B7048823A2
:101E300049F010920F0183E690E09093B6048093EE
:101E4000B50414C01092B6041092B50487E29BE06A
:101E500028C08091B5049091B6040097E1F00197F5
:101E60009093B6048093B504892B81F08091760518
:101E7000863030F08FE387BD81E08093770525C001
:101E80008FE187BD81E0809377051FC08FE287BD1A
:101E9000109277051AC08091B3049091B404009712
:101EA000A1F001979093B4048093B304892B41F47B
:101EB0008FE287BD1092770581E080930F0105C006
:101EC0008FE487BD81E08093770580911E018111A9
:101ED00002C18091B805811103C1FDC061E088E0B5
:101EE0000E945A0284E995E09093B2048093B10471
:101EF000FDC08091B1049091B204009731F0019738
:101F00009093B2048093B104F1C08091AF0490919A
:101F1000B004009709F447C001979093B0048093F0
:101F2000AF04892B09F0E2C0AE014E5F5F4FBE01E6
:101F30006F5F7F4F80E090E00E94A3258093AE0406
:101F40009981911111C09A81992371F01092AE0478
:101F500081E08093B50580910F01882309F4C6C004
:101F600080E00E94930E1AC0882399F061E08DE012
:101F70000E945A0280913705882359F061E08AE077
:101F80000E945A0261E088E00E945A0281E0809338
:101F9000A60580910F01882309F4A8C08091AE04A2
:101FA0000E94930EA3C080917305823029F0609146
:101FB000AE048DE00E945A0280913705882349F0D3
:101FC0006091AE048AE00E945A028091AE04809330
:101FD000A6058091B6059091B7059093B0048093C3
:101FE000AF0480910F01882309F480C08091AE0472
:101FF0000E94930E7BC08091AF049091B004009733
:1020000009F101979093B0048093AF04892B09F0F4
:102010006DC0AE014E5F5F4FBE016F5F7F4F80E0CE
:1020200090E00E94A3258093AE04682F8DE00E946B
:102030005A028091B6059091B7059093B0048093B1
:10204000AF0454C08091B6059091B7059093B00449
:102050008093AF044BC08091AE04882351F010925E
:10206000AE0480917305823021F060E08DE00E9423
:102070005A0260E08AE00E945A0260E088E00E9412
:102080005A021092A60580910F01882319F080E072
:102090000E94930E88E00E940F02882339F084E6A4
:1020A00090E09093B2048093B10420C08091B10479
:1020B0009091B204009731F001979093B20480930D
:1020C000B10414C060E088E00E945A020FC081E0B1
:1020D000809373059DCE8091B40581118CCFBBCFC9
:1020E00088E00E940F02811104CFF8CE0F900F906C
:1020F000DF91CF91FF91EF91BF91AF919F918F9120
:102100007F916F915F914F913F912F910F900FBEF3
:102110000F901F901895CF93DF9300D0CDB7DEB707
:10212000009731F0FC018081863111F08093B90570
:102130008091B905843130F48930D8F581508630EA
:10214000D0F06CC0843119F0853159F067C088E750
:1021500090E090931B0180931A0181E080933805F1
:102160007DC08CE291E090931B0180931A0181E085
:102170008093380573C08CE390E09093830580933F
:10218000820525E030E030937F0520937E05109294
:102190007C0510927B0528E02093140190937A052A
:1021A000809379058CE291E090931B0180931A0152
:1021B00055C08CE090E0909383058093820585E084
:1021C00090E090937F0580937E058091B9058331DF
:1021D00031F08091B9058E3020F08FE003C08AE0A5
:1021E00001C08AE0809314018091B9058E3018F007
:1021F0008DE090E002C088E090E090937C058093B1
:102200007B0588E592E090937A058093790588E7CD
:1022100090E090931B0180931A0120C088E592E022
:10222000909383058093820521E030E030937F0511
:1022300020937E0528E02093140190937A058093E3
:1022400079058091B905883019F08CE291E002C0DF
:1022500088E790E090931B0180931A010E94170E6B
:10226000833009F4E9C091E0813009F090E0909367
:102270006605813009F0BDC04091AC055091AD05B7
:102280006091AE057091AF058091B0059091B10558
:10229000A091B205B091B305481759076A077B07AB
:1022A00008F086C08091B0059091B105A091B2056B
:1022B000B091B3054091AC055091AD056091AE056C
:1022C0007091AF05841B950BA60BB70B8093BA05D5
:1022D0009093BB05A093BC05B093BD051092B805C3
:1022E0001092B7051092B6051092B5056091BA0527
:1022F0007091BB058091BC059091BD0520911A019C
:1023000030911B01032E000C440B550B0E942A2C0C
:10231000709381056093800580918005909181057F
:1023200060918205709183050E94F42B6F5F7F4F4F
:1023300080917E0590917F059A83898389819A8116
:102340008617970734F0161617062CF061E070E038
:1023500002C069817A8170931D0160931C01109203
:102360007D05109278051092770580911C0190915F
:102370001D0190931901809318018091BA059091E5
:10238000BB05A091BC05B091BD0520911A0130910B
:102390001B01BC01CD01655F7F4F8F4F9F4F032E07
:1023A000000C440B550B0E942A2C609376053FC00D
:1023B0001092BA051092BB051092BC051092BD0593
:1023C0001092B8051092B7051092B6051092B50597
:1023D00081E090E090931D0180931C011092810593
:1023E0001092800510927D05109278051092770565
:1023F0001EC01092BA051092BB051092BC05109237
:10240000BD051092B8051092B7051092B60510924E
:10241000B505109281051092800510927D051092ED
:102420007C0510927B05109278051092770560E08C
:102430008DE00E945A0204C081E0809366051CCFA3
:102440000F900F90DF91CF910895EAE7F0E080813F
:1024500086FDFDCF2091780030917900EAE7F0E029
:10246000908190649083C901089588EC80937C00EA
:10247000EAE7F0E087E08083808180688083808164
:10248000806480830E94251208950F931F93CF9339
:10249000DF936091120170911301072E000C880BDD
:1024A000990B0E94E72920E030E040E251E40E94CD
:1024B0003D29062F172FD82FC92F20E030E048E400
:1024C00053E40E94D62A18166CF020E030E048E46D
:1024D00053EC602F712F8D2F9C2F0E94332988235E
:1024E00034F009C000E010E0D8E4C3E404C000E028
:1024F00010E0D8E4C3EC0E9425120E942512BC0112
:1025000080E090E00E94E5292EEA37E242EA53E4B7
:102510000E94C62826EF38E24CE95FE30E943D297D
:10252000202F312F4D2F5C2F0E94C7280E94482B4F
:10253000DF91CF911F910F910895EAE7F0E01082AB
:1025400010927B00ACE7B0E01C929C9196609C934B
:102550009C91906C9C939C9190629C9390819660CE
:102560009083908190629083908198609083908115
:1025700090689083882331F0808188608083808197
:10258000806480830895FC012191222341F030E092
:10259000205331092A303105B8F380E0089581E0F5
:1025A00008950E943C0980E090E00E948B100E94F8
:1025B000DB0410921E011092B40560E086E291E007
:1025C0000E94B109089581E080931E011092660572
:1025D00080917305823021F460E08DE00E945A0200
:1025E00060E08AE00E945A0260E088E00E945A029D
:1025F0001092A60560E071EE80E090E00E9416095E
:1026000008951F920F920FB60F9211242F933F93AC
:102610004F935F936F937F938F939F93AF93BF93EA
:10262000EF93FF9384E00E940F028823C9F080910A
:102630001E01882369F080917305823089F40E941D
:10264000D1121092730560E08DE00E945A0208C01A
:1026500080917305823021F40E94E3121092730579
:102660001092750510927405FF91EF91BF91AF9193
:102670009F918F917F916F915F914F913F912F919A
:102680000F900FBE0F901F901895809151058111EA
:1026900005C065E08EEB95E00E9443038091B00594
:1026A0009091B105A091B205B091B3058115964600
:1026B000AE4EBF4528F462E08EEB95E00E944303E6
:1026C0004091A8055091A9056091AA057091AB05AC
:1026D0008091B0059091B105A091B205B091B3057C
:1026E000481759076A077B0700F54091AC055091E0
:1026F000AD056091AE057091AF058091B0059091E8
:10270000B105A091B205B091B305481759076A0702
:102710007B0728F463E08EEB95E00E94430364E0BE
:102720008EEB95E00E94430308954091AC055091D3
:10273000AD056091AE057091AF058091B0059091A7
:10274000B105A091B205B091B305481759076A07C2
:102750007B0728F461E08FE291E00E94B1090895BF
:102760002F923F924F925F926F927F928F929F92A1
:10277000AF92BF92CF92DF92EF92FF920F931F938F
:10278000CF93DF93CDB7DEB72C970FB6F894DEBFAB
:102790000FBECDBF2B013C0149015A0162177307DF
:1027A0008407950750F0E114F10409F404C161E0D5
:1027B000C7010E94B10981E0FFC00115110521F098
:1027C00061E0C8010E94B10975016401C418D5080F
:1027D000E608F708C701B60120E833E341EE51E00F
:1027E0000E94082C29013A014427552760E873E329
:1027F00081EE91E00E94D02BC61AD70AE80AF90AA6
:10280000C701B60120E831E541E050E00E94082C04
:1028100049015A0119014427552760E871E581E013
:1028200090E00E94D02BC61AD70AE80AF90AC7011D
:10283000B60120E13EE040E050E00E94082C2983F0
:102840003A834B835C8329813A813A87298729819E
:102850003A814B815C8144275527A0E1BEE00E946C
:10286000652CC61AD70AE80AF90AC701B6012CE393
:1028700030E040E050E00E94082C2D833E834F83DF
:1028800058870D811E812CE3209FC001219F900D50
:102890001124A601481B590B5C874B871092030536
:1028A00041145104B9F05F924F9281E491E09F93FB
:1028B0008F9383E095E09F938F930E94242E61E095
:1028C00083E095E00E94B1090F900F900F900F9058
:1028D0000F900F902328B9F09F928F9289E491E096
:1028E0009F938F9383E095E09F938F930E94242E74
:1028F00061E083E095E00E94B1090F900F900F9086
:102900000F900F900F9089859A85892BC9F09A8135
:102910009F93E981EF9382E591E09F938F9383E00A
:1029200095E09F938F930E94242E61E083E095E0D1
:102930000E94B1090F900F900F900F900F900F9081
:10294000012BC9F0FE81FF932D812F938AE591E041
:102950009F938F9383E095E09F938F930E94242E03
:1029600061E083E095E00E94B1090F900F900F9015
:102970000F900F900F903C853F934B854F9382E6CD
:1029800091E09F938F9383E095E09F938F930E94B4
:10299000242E61E083E095E00E94B1090E949C0929
:1029A000E3E0F5E010820F900F900F900F900F90E2
:1029B0000F9080E001C081E02C960FB6F894DEBF46
:1029C0000FBECDBFDF91CF911F910F91FF90EF9080
:1029D000DF90CF90BF90AF909F908F907F906F903F
:1029E0005F904F903F902F900895EF92FF920F933A
:1029F0001F9380E090E00E948B100E94170E8130A0
:102A000019F0843009F05AC02091AC053091AD0521
:102A10004091AE055091AF056091B0057091B10540
:102A20008091B2059091B3050F2EF9E6EF2EF1E0FB
:102A3000FF2EF02D06E711E00E94B0132091A805AB
:102A40003091A9054091AA055091AB056091AC0564
:102A50007091AD058091AE059091AF05E12CF12C00
:102A600002E811E00E94B0134091AC055091AD0511
:102A70006091AE057091AF058091B0059091B10560
:102A8000A091B205B091B305481759076A077B07B3
:102A9000D0F42091A8053091A9054091AA05509144
:102AA000AB056091B0057091B1058091B205909130
:102AB000B3050AE811E00E94B01305C081E08093DD
:102AC0001E010E9445131F910F91FF90EF900895F2
:102AD0004F925F926F927F928F929F92AF92BF922E
:102AE000EF92FF920F931F93CF93DF93CDB7DEB793
:102AF0002C970FB6F894DEBF0FBECDBF8C01E42E2D
:102B0000FC0101900020E9F73197E81BF90B25E063
:102B10006C3A720749F58091B0059091B105A0918A
:102B2000B205B091B30589879A87AB87BC8780E0EF
:102B300096E6AEEEBFE589839A83AB83BC83898535
:102B40009A85AB85BC8581159646AE4EBF4528F467
:102B500089809A80AB80BC8004C089849A84AB84CD
:102B6000BC84FF24F39442C0685A7540A9F5809153
:102B7000AC059091AD05A091AE05B091AF058D83E8
:102B80009E83AF83B8878091B0059091B105A091E5
:102B9000B205B091B30589839A83AB83BC834D8121
:102BA0005E816F81788589819A81AB81BC8148176C
:102BB00059076A077B0740F489809A80AB80BC8004
:102BC0006894FF24F1F812C08D809E80AF80B88495
:102BD0006894FF24F1F80AC0F12C0F2E812CF6E640
:102BE0009F2EFEEEAF2EFFE5BF2EF02DEC30F1054F
:102BF00009F05EC0C8010E94C312882309F44FC0C7
:102C0000B80180E090E00E943C272B013C01AE2DF2
:102C1000EE0CBB0B20E13EE00E945E2C640D751DA6
:102C2000861D971D86169706A806B90608F445C0A6
:102C300021E0F21209C068E08EEB95E00E944303A8
:102C400060E070E0CB0139C022E0F2121FC00091B9
:102C5000B0051091B1052091B2053091B305601710
:102C600071078207930748F467E08EEB95E00E94B6
:102C7000430360E070E0CB0120C066E08EEB95E09E
:102C80000E94430360E070E0CB0117C06AE08EEB66
:102C900095E00E94430360E070E0CB010EC069E064
:102CA0008EEB95E00E94430360E070E0CB0105C02D
:102CB000EF2BA9F760E070E0CB012C960FB6F894EB
:102CC000DEBF0FBECDBFDF91CF911F910F91FF905F
:102CD000EF90BF90AF909F908F907F906F905F909C
:102CE0004F9008958430C9F028F4823041F0833049
:102CF00069F028C08530C1F08630E9F023C08CE24D
:102D000092E09093890080938800089581E792E093
:102D1000909389008093880008958AEC92E09093C4
:102D2000890080938800089581E493E0909389005E
:102D300080938800089588EE93E0909389008093B3
:102D40008800089584EF91E0909389008093880033
:102D500008952F923F924F925F926F927F928F923F
:102D60009F92AF92BF92CF92DF92EF92FF920F931A
:102D70001F93CF93DF93CDB7DEB72C970FB6F894A0
:102D8000DEBF0FBECDBF0F2EF9E68F2EF5E09F2ED2
:102D9000F02D0F2EF4ED6F2EF1E07F2EF02D0F2E83
:102DA000F3E0AF2EF5E0BF2EF02D0F2EF8EC4F2EF6
:102DB000F1E05F2EF02D0F2EF9EB2F2EF1E03F2EDC
:102DC000F02D0E94C9086C01009709F485C5DC014B
:102DD00011968D919C9112978A3EB2E29B0709F45D
:102DE0008AC2F0F48F36FDE19F0709F4B5C250F4B2
:102DF000873D32E0930709F4EEC08E31934009F429
:102E0000ADC142C5863CAEE19A0749F1863AB0E2CF
:102E10009B0709F418C185329E4109F035C538C5B4
:102E2000803DF3E29F0709F40AC250F48A3933E285
:102E3000930709F42DC58F3C934209F4D3C424C5EC
:102E40008433A4E29A0709F474C18C39B4E29B0775
:102E500009F44BC2853F934209F016C534C1D6012F
:102E600013968C91139790E0009709F49DC08234DB
:102E7000910509F413C58434910541F457968C915A
:102E8000833509F40EC586E090E07CC08634910558
:102E900009F40AC583349105C9F4F6018789108EB7
:102EA000823429F090E0C0970A9708F07DC0C601EF
:102EB00047960E94992D992314F480E090E0863083
:102EC00091050CF45CC085E090E059C08335910514
:102ED00009F043C0D60157968C91579758969C910C
:102EE000589759961C92823409F45EC0863449F48E
:102EF0008FEC890F853008F057C0892F90E08397B9
:102F00001CC0833541F48FEC890F8530C8F4892FBC
:102F100090E0889712C0963441F49FEC980F95305A
:102F200008F042C090E0839708C09335E9F59FEC24
:102F3000980F9530C8F590E08897009719F434C041
:102F400088E090E08830910514F488E090E08331C7
:102F50009105ACF082E190E012C08E34910559F4F5
:102F6000F6018789823309F4A2C4853309F4A1C428
:102F700080E090E007C0C60103960E94992D86313B
:102F8000910590F48983AE014F5F5F4F60E18EEB56
:102F900095E00E94BB028091B9059981981721F0B4
:102FA000CE0101960E948B108091B9051F928F93DC
:102FB00082EA91E09F938F93BF92AF920E94242E5A
:102FC00060E0C5010E94B1090F900F900F900F9023
:102FD0000F900F905DC4D60113968C918823E1F079
:102FE000C60103960E94B72D70E01616170614F05E
:102FF00061E070E06730710514F066E070E06093A6
:10300000A50545EA55E061E18EEB95E00E94BB0223
:103010008091A5050E9472168091A5051F928F933D
:103020008AEA91E09F938F93BF92AF920E94242EE1
:1030300060E0C5010E94B1090F900F900F900F90B2
:103040000F900F9025C4F60183818823D1F09481DD
:10305000963411F0803359F41092390560E08DE018
:103060000E945A0260E08DE00E945A0203C081E093
:103070008093390549E355E062E18EEB95E00E94CB
:10308000BB0280913905811105C02EE931E0822F04
:10309000932F04C0ABE9B1E08A2F9B2F9F938F93AE
:1030A00081EB91E09F938F93BF92AF920E94242E69
:1030B00060E0C5010E94B1090F900F900F900F9032
:1030C0000F900F90E5C3F6018381882391F09481DE
:1030D000963411F0803319F41092380503C081E062
:1030E0008093380548E355E065E18EEB95E00E945A
:1030F000BB0280913805811105C02EE931E0822F95
:10310000932F04C0ABE9B1E08A2F9B2F9F938F933D
:103110003F922F92BF92AF920E94242E60E0C50191
:103120000E94B1090F900F900F900F900F900F9089
:10313000AFC3F6018381882309F4AAC3803319F44D
:103140000E94E312A5C3813319F40E94D112A0C3D7
:10315000823309F09DC30E94F5149AC3D6011396D9
:103160008C91882399F180E290E0F501918380832E
:10317000B6016D5F7F4FC5010E94E62DD6015796BF
:103180008C91882379F0F50101900020E9F73197BF
:1031900080E290E091838083B601695E7F4FC50134
:1031A0000E94E62DF50101900020E9F73197E350E8
:1031B000F540759758F4B50181E595E00E94F12D31
:1031C000A5016BE08EEB95E00E94BB02809151055A
:1031D0008823F1F06091150170E081E595E00E948F
:1031E000A1268C509E4F9C013695279536952795A4
:1031F00036952795A5ECB0E20E944F2C92958295CA
:103200008F7089279F70892790933B0580933A059B
:1032100081E595E09F938F9381EC91E09F938F934D
:10322000BF92AF920E94242E61E0C5010E94B109B5
:103230000F900F900F900F900F900F9029C3F601F1
:1032400083818934E9F587898823D1F1C6014796BE
:103250000E94B72D862F90E08530910514F485E00B
:1032600090E0853191050CF084E18093150145E1F2
:1032700051E06FE08EEB95E00E94BB02809151051A
:103280008823F1F06091150170E081E595E00E94DE
:10329000A1268C509E4F9C013695279536952795F3
:1032A00036952795A5ECB0E20E944F2C9295829519
:1032B0008F7089279F70892790933B0580933A05EB
:1032C000809115011F928F935F924F92BF92AF92A0
:1032D0000E94242E60E0C5010E94B1090F900F905A
:1032E0000F900F900F900F90D3C260E08EEB95E09F
:1032F0000E944303CDC2D60113968C918823C9F056
:1033000048E050E0B6016D5F7F4FC5010E94F82D87
:10331000F5011086C5010E94C312882351F0F50102
:1033200001900020E9F73197E350F540349708F019
:10333000C3C29F928F927F926F92BF92AF920E9470
:10334000242E61E0C5010E94B1090F900F900F90EB
:103350000F900F900F909CC2D60113968C918435DC
:1033600009F073C04CE050E0B601695E7F4FC501C3
:103370000E94F82DF50114864091A705419560EB58
:1033800075E0C5010E94681569877A878B879C87DD
:10339000611571058105910541F10E94ED26898530
:1033A0009A85AB85BC858093B0059093B105A093B9
:1033B000B205B093B3058091B0059091B105A0918D
:1033C000B205B091B305BF93AF939F938F9381EEF6
:1033D00091E09F938F93BF92AF920E94242E0FB6DD
:1033E000F894DEBF0FBECDBF72C22091AC05309104
:1033F000AD054091AE055091AF056091B00570915B
:10340000B1058091B2059091B305E12CF12C06E74E
:1034100011E00E94B0138091B0059091B105A09188
:10342000B205B091B305BF93AF939F938F938CED8B
:1034300091E09F938F93BF92AF920E94242E0FB67C
:10344000F894DEBF0FBECDBF42C2833509F098C0ED
:10345000B601695E7F4FC5010E94F12D4091A7051D
:1034600041956CEA75E0C5010E946815611571050A
:103470008105910509F46AC06093AC057093AD05B0
:103480008093AE059093AF054CEA55E067E18EEB73
:1034900095E00E94BB028091A8059091A905A0919A
:1034A000AA05B091AB058D839E83AF83B8878091C9
:1034B000AC059091AD05A091AE05B091AF058058D7
:1034C0009E4AAE4FBF4F89839A83AB83BC834D81A5
:1034D0005E816F817885481759076A077B0728F452
:1034E00089819A81AB81BC8104C08D819E81AF812D
:1034F000B8858093A8059093A905A093AA05B093D9
:10350000AB0548EA55E068E18EEB95E00E94BB020E
:103510008091AC059091AD05A091AE05B091AF053D
:10352000BF93AF939F938F938BEE91E09F938F9375
:10353000BF92AF920E94242E80E090E00E948B10F8
:103540000FB6F894DEBF0FBECDBFC1C18091AC05F0
:103550009091AD05A091AE05B091AF05BF93AF932B
:103560009F938F938BEE91E09F938F93BF92AF9237
:103570000E94242E0FB6F894DEBF0FBECDBFA7C1A8
:10358000863409F071C0B601695E7F4FC5010E94A3
:10359000F12D4091A705419568EA75E0C5010E94AB
:1035A0006815611571058105910509F443C06093A3
:1035B000A8057093A9058093AA059093AB0548EAE6
:1035C00055E068E18EEB95E00E94BB022091A805D2
:1035D0003091A9054091AA055091AB056091AC05C9
:1035E0007091AD058091AE059091AF05E12CF12C65
:1035F00002E811E00E94B0138091A8059091A905FE
:10360000A091AA05B091AB05BF93AF939F938F9301
:1036100086EF91E09F938F93BF92AF920E94242EEA
:1036200080E090E00E948B100FB6F894DEBF0FBED2
:10363000CDBF4DC18091A8059091A905A091AA0583
:10364000B091AB05BF93AF939F938F9386EF91E0BB
:103650009F938F93BF92AF920E94242E0FB6F8943F
:10366000DEBF0FBECDBF33C18F34B9F5D60157963B
:103670008C918823D9F0C60147960E94992D8931F3
:1036800054F4082E000C990B883EBFEF9B072CF4D6
:1036900088EE9FEF02C088E190E08093A70547EA9B
:1036A00055E069E18EEB95E00E94BB028091A70591
:1036B000282F082E000C330B3F938F9382E092E06B
:1036C0009F938F93BF92AF920E94242E0F900F90E2
:1036D0000F900F900F900F90FAC0833409F5F60108
:1036E0008789882351F0C60147960E94992D81153C
:1036F000F2E09F0710F40E9426280E9481289F93E1
:103700008F938DE092E09F938F93BF92AF920E9430
:10371000242E0F900F900F900F900F900F90D7C006
:103720000E94170E823019F40E944513B1C02091F7
:10373000AC053091AD054091AE055091AF0560915B
:10374000B0057091B1058091B2059091B3050F2E2F
:10375000F9E6EF2EF1E0FF2EF02D06E711E00E94D2
:10376000B0132091A8053091A9054091AA05509168
:10377000AB056091AC057091AD058091AE0590915F
:10378000AF05E12CF12C02E811E00E94B01340914A
:10379000AC055091AD056091AE057091AF0580917B
:1037A000B0059091B105A091B205B091B30548174D
:1037B00059076A077B0708F06BC02091A805309174
:1037C000A9054091AA055091AB056091B005709193
:1037D000B1058091B2059091B3050AE811E00E940D
:1037E000B01356C0D60113968C911397833489F584
:1037F00057968C918823A9F0C60147960E94992D6F
:103800009C012153384F2F393F4058F490931301B6
:103810008093120142E151E063E18EEB95E00E945A
:10382000BB0280911201909113019F938F93E3E16A
:10383000F2E0FF93EF93BF92AF920E94242E60E0DC
:10384000C5010E94B1090F900F900F900F900F903B
:103850000F9080916805282F082E000C330B3F93A2
:103860008F938EE192E09F938F93BF92AF920E94CD
:10387000242E61E0C5010E94B1090F900F900F90B6
:103880000F900F900F9004C08EEB95E00E948A0479
:10389000F601128211820E94910993CA80E090E0A1
:1038A00071CB83E190E06ECB87E090E06BCB84E15D
:1038B00069CB85E190E066CBB501C4010E94F12D92
:1038C000A4016EE08EEB95E00E94BB0232CD61E078
:1038D000C5010E94B109DCCF2C960FB6F894DEBF6B
:1038E0000FBECDBFDF91CF911F910F91FF90EF9051
:1038F000DF90CF90BF90AF909F908F907F906F9010
:103900005F904F903F902F900895CF92DF92EF926B
:10391000FF921F93CF93DF931F92CDB7DEB784340E
:1039200039F41092160110920901109208017DC31A
:1039300090911601911107C02FE030E030930901FA
:103940002093080107C3182F8A32B9F481E090E070
:1039500090930901809308011092A4041092A3048B
:103960001092A2041092A1041092A00410929F043D
:10397000809116018823C9F158C3E0910801F091A4
:1039800009013197E031F10508F04FC3EF57FF4FC0
:103990000C94492C1092A4041092A3041092A20437
:1039A0001092A1041092A00410929F04809116011D
:1039B0008823D9F0133439F486E090E0909309011C
:1039C0008093080132C31A3209F42FC3812F90E08B
:1039D000C0979093A2048093A1040E94DB0480E12D
:1039E00090E09093090180930801113409F01DC300
:1039F00082E090E0909309018093080116C38091C2
:103A00001601882309F411C3103339F483E090E0E0
:103A1000909309018093080108C3113339F484E0BD
:103A200090E09093090180930801FFC2123339F4AA
:103A300085E090E09093090180930801F6C2183365
:103A400009F0F3C280919E04882309F4EEC28EE04F
:103A500090E09093090180930801E7C2833209F056
:103A6000E4C20E94E3121092090110920801DDC223
:103A7000833209F0DAC20E94D11210920901109229
:103A80000801D3C2833209F0D0C20E94F51410920B
:103A9000090110920801C9C2813339F487E090E02E
:103AA0009093090180930801C0C2823339F488E001
:103AB00090E09093090180930801B7C2833339F4F1
:103AC0008CE090E09093090180930801AEC28433AA
:103AD00039F489E090E09093090180930801A5C230
:103AE000853339F48AE090E09093090180930801CE
:103AF0009CC2863369F48BE090E090930901809337
:103B0000080181E090E09093A00480939F048DC20F
:103B1000893339F48DE090E0909309018093080196
:103B200084C210920901109208017FC28332C1F44D
:103B30008091A3049091A40404976CF069E874E068
:103B400089E695E00E94F12D49E655E06EE08EEBA6
:103B500095E00E94BB02109209011092080165C213
:103B600080ED810F8A3008F060C28091A3049091AB
:103B7000A404893091050CF058C29C012F5F3F4F7F
:103B80003093A4042093A304FC01E757FB4F108358
:103B9000F901E757FB4F108248C28332E1F4E9E8AC
:103BA000F4E001900020E9F73197E958F440759767
:103BB00068F469E874E081E595E00E94F12D41E543
:103BC00055E06BE08EEB95E00E94BB02109209017C
:103BD000109208012AC280ED810F8A3008F025C2B8
:103BE00080919F049091A004892BC9F18091A10438
:103BF0009091A2049C01220F331F880F991F880FF8
:103C0000991F880F991F820F931F212F30E0205397
:103C10003109280F391F3093A2042093A1042732C1
:103C20003105C4F48091A3049091A40484319105DA
:103C30008CF4FC01E757FB4FD901A25ABD4F2C91E0
:103C4000208301969093A4048093A304FC01E7577A
:103C5000FB4F10821092A00410929F04E6C1212F06
:103C600030E0205331093093A2042093A10481E075
:103C700090E09093A00480939F04D7C18332F1F425
:103C80008091A1049091A2048631910590F48983DA
:103C9000AE014F5F5F4F60E18EEB95E00E94BB028B
:103CA0008091B9059981981721F0CE0101960E9463
:103CB0008B101092090110920801B7C180ED810F9D
:103CC0008A3008F0B2C18091A1049091A2049C01B5
:103CD000220F331F880F991F880F991F880F991F74
:103CE000820F931F212F30E020533109820F931F41
:103CF0009093A2048093A10498C18332F9F4409177
:103D0000A705419560EB75E089E894E00E9468158D
:103D10006B017C01611571058105910551F00E94CF
:103D2000ED26C092B005D092B105E092B205F092B6
:103D3000B305109209011092080177C180ED810F3F
:103D40008A3008F072C18091A3049091A404883253
:103D500091050CF06AC1FC01E757FB4F10830196F7
:103D60009093A4048093A304FC01E757FB4F1082B7
:103D70005CC1833231F54091A70541956CEA75E04D
:103D800089E894E00E946815611571058105910527
:103D900099F06093AC057093AD058093AE05909358
:103DA000AF054CEA55E067E18EEB95E00E94BB025F
:103DB00080E090E00E948B1010920901109208019F
:103DC00034C180ED810F8A3008F02FC18091A304A7
:103DD0009091A404883291050CF027C1FC01E757AB
:103DE000FB4F108301969093A4048093A304FC01DD
:103DF000E757FB4F108219C1833231F54091A70577
:103E0000419568EA75E089E894E00E9468156115BB
:103E100071058105910599F06093A8057093A90536
:103E20008093AA059093AB0548EA55E068E18EEBD4
:103E300095E00E94BB0280E090E00E948B101092FF
:103E4000090110920801F1C080ED810F8A3008F05D
:103E5000ECC08091A3049091A404883291050CF0E9
:103E6000E4C0FC01E757FB4F108301969093A40434
:103E70008093A304FC01E757FB4F1082D6C0833226
:103E8000E9F48091A1049091A2048831910588F40D
:103E900090919F04989F802D11248983AE014F5FDC
:103EA0005F4F69E18EEB95E00E94BB0289818093B0
:103EB000A7051092090110920801B7C080ED810F8B
:103EC0008A30D0F48091A1049091A2049C01220F29
:103ED000331F880F991F880F991F880F991F820F12
:103EE000931F212F30E020533109820F931F9093AD
:103EF000A2048093A10499C0123409F096C08FEFF8
:103F00009FEF9093A00480939F048FC08332A1F40D
:103F10008091A1048093A5058091A5050E94721649
:103F200045EA55E061E18EEB95E00E94BB021092FC
:103F300009011092080179C08FEC810F863008F0DA
:103F400074C0212F30E0205331093093A204209314
:103F5000A1046BC020919F043091A004A9014F5F80
:103F60005F4F5093A00440939F04F901E759FA4F23
:103F70009081891312C0E9E6F5E001900020E9F78D
:103F80003197E956F540E417F50709F04EC081E096
:103F90008093160180939E0448C01092A004109252
:103FA0009F0410920901109208013FC0833201F56D
:103FB0008091A1049091A204009741F480E090E0E8
:103FC0000E94A60481E08093A4050DC08C3321E0FB
:103FD00092073CF01092A4058BE391E00E94A604A6
:103FE00002C00E94A60410920901109208011DC08F
:103FF00080ED810F8A30C8F42091A1043091A20491
:10400000C901880F991F220F331F220F331F220F60
:10401000331F820F931F212F30E020533109820F6D
:10402000931F9093A2048093A1040F90DF91CF91EE
:104030001F91FF90EF90DF90CF9008952F923F92C5
:104040004F925F926F927F928F929F92AF92BF92A8
:10405000CF92DF92EF92FF920F931F93CF93DF9354
:104060001F92CDB7DEB70E94A9168091B8058823AC
:1040700029F08091A804882309F4D7C080911E01FB
:10408000811129C11092A8048091B905863091F45C
:1040900080911C0190911D01BC01660F771F660F76
:1040A000771F680F791F6B547D4F8CE395E00E945A
:1040B000F12D27C08091B905833199F480911C01BD
:1040C00090911D010896BC01660F771F660F771F40
:1040D000680F791F6B547D4F8CE395E00E94F12DA2
:1040E00010C08091B90590E0BC01660F771F660F84
:1040F000771F680F791F6B547D4F8CE395E00E940A
:10410000F12D8091B905863009F18091B90583318F
:10411000E9F08091B9058823C9F08091B90587300D
:10412000A9F08091B905883089F02091B9054091B6
:104130001C0150911D0180917B0590917C0530E020
:10414000840F951F2817390709F0C5C081E08983BE
:104150006091140170E082E89BE10E94F42BCB0196
:104160006AE070E00E94F42B660F771F7093B7052A
:104170006093B60540E050E0BE016F5F7F4F8CE377
:1041800095E00E94A3258091780581110BC02091B4
:10419000790530917A058091820590918305821787
:1041A00093073CF100918205109183056091150100
:1041B00070E081E595E00E94A1268C509E4F9C0105
:1041C000369527953695279536952795A5ECB0E237
:1041D0000E944F2C929582958F7089279F70892716
:1041E000081B190B10930E0100930D011092780516
:1041F0000AC080918205909183058D599F4F9093BD
:104200000E0180930D0110920C0181E08093B8059E
:104210001092B50510927D0580911C0190911D01B1
:10422000909319018093180156C080910C0181115F
:10423000F4C1209180053091810580910D0190910C
:104240000E012817390709F0E8C1C5C18091B905E9
:10425000843108F4E8C107C010927D051092B805BA
:1042600081E08093A8048091B905863021F0809187
:10427000B905833149F48091B505882361F18091B6
:104280007D058111D5C127C08091B905882341F0F2
:104290008091B905873021F08091B905883041F4CB
:1042A0008091B5058823B9F081E08093A80413C0FC
:1042B0008091B905893008F4C2C18091B905833174
:1042C00008F0BDC18091B5058111B6C1B8C180911A
:1042D000B5058111C0C18BE295E00E944906882393
:1042E00009F41DC1809111018111B8C10E943512DC
:1042F0000E9445120E94AF29809168056817E1F07D
:10430000609368056A3114F0695103C089E1861B26
:10431000682F062E000C770B8EEB95E00E949E0412
:104320002091350530913605A901480F511D87FDB3
:104330005A95CA010E94262880E00E949D128CE3B3
:10434000809311018BC1F50141915191619171915E
:104350005F018BE295E00E9466058BE295E00E948A
:104360004C06E62EF72ED82EC92E272D362D452D9C
:10437000542D0E94D62A1816B4F420E034E244E703
:1043800059E46E2D7F2D8D2D9C2D0E94D62A181656
:1043900034F448017E2C6F2C5D2C4C2C04C07E2CF8
:1043A0006F2C5D2C4C2C0F5F1F4F0430110559F6FC
:1043B00065C1F50141915191619171915F018BE26C
:1043C00095E00E9466058BE295E00E944C06E62E81
:1043D000F72ED82EC92E252D342D432D522D0E9477
:1043E000D62A1816B4F420E034E244E759E46E2DDE
:1043F0007F2D8D2D9C2D0E94D62A181634F438015D
:104400005E2C4F2C3D2C2C2C04C05E2C4F2C3D2CB4
:104410002C2C0F5F1F4F0430110559F677200CF438
:1044200076C0C401880F991F880F991F8B579D4F25
:10443000FC01E60DF71D10818091A704181317C029
:1044400080910A0190910B01019690930B0180934A
:104450000A01039761F481E0809372051092A6042B
:104460001092A50410933405812F0E94851C10938F
:10447000A7044DC0C0902C05D0902D05E0902E05CE
:10448000F0902F058090300590903105A090320576
:10449000B09033058091A5049091A6049C012F5FF4
:1044A0003F4F3093A6042093A504039784F1109204
:1044B000720580911E01882329F08091B40588231C
:1044C00009F4EFC0C818D908EA08FB08FCEDCF16BC
:1044D000F5E0DF06E104F10420F410920B011092E4
:1044E0000A011092A6041092A50480912C059091C7
:1044F0002D05A0912E05B0912F0580933005909346
:104500003105A0933205B09333051092A704EAE772
:10451000F0E08081886080838081806480838091E6
:1045200072058823B1F0198240E050E0BE016F5F50
:104530007F4F84E292E00E94A3258CE890E0909364
:10454000B7058093B60581E08093B40510926705A6
:10455000ADC0109167050E94170E8093670580918A
:104560006705181709F4A2C0809167058230A1F48D
:1045700011E0198340E050E0BE016F5F7F4F86E29B
:1045800092E00E94A3258CE890E09093B705809379
:10459000B6051093B4058AC0809167058130A1F4F7
:1045A00011E0198340E050E0BE016F5F7F4F88E269
:1045B00092E00E94A32586E490E09093B705809353
:1045C000B6051093B40572C01092B40560E08DE09A
:1045D0000E945A026BC06091150170E082E89BE175
:1045E0000E94F42BCB016AE070E00E94F42B660F6E
:1045F000771F7093B7056093B605198240E050E0CD
:10460000BE016F5F7F4F81E595E00E94A32581E0A9
:1046100080930C011092B50526CE8091B9058930A2
:1046200008F014CE20CE80917D05811115CE1BCED1
:1046300081E08093A8044FCE1092B8054CCE8091B3
:10464000B90520911C0130911D0190E0821793075C
:1046500009F03DCE40CE1092B8053DCE0F2EF5E9C3
:10466000AF2EF2E0BF2EF02D00E010E088248A94F7
:10467000982C712C612C512C412C65CE99200CF476
:10468000F9CE0F2EF5EAAF2EF2E0BF2EF02D00E0AE
:1046900010E066246A94762C512C412C312C212C6C
:1046A00088CE60E08DE00E945A020CCF0F90DF911F
:1046B000CF911F910F91FF90EF90DF90CF90BF901F
:1046C000AF909F908F907F906F905F904F903F90B2
:1046D0002F90089561E08DE00E944A0160E08DE036
:1046E0000E945A0261E08DE00E944A0160E08DE084
:1046F0000E945A0261E08AE00E944A0160E08AE07A
:104700000E945A0261E089E00E944A0160E089E06B
:104710000E945A0261E088E00E944A0160E088E05D
:104720000E945A0260E084E10E944A0160E085E153
:104730000E944A0163E08CE00E944A0161E08BE044
:104740000E944A0160E08BE00E945A0263E084E02C
:104750000E944A0161E08EE00E944A0161E08FE020
:104760000E944A0161E080E10E944A0161E081E12A
:104770000E944A0161E080E00E944A0161E081E01C
:104780000E944A0161E086E00E944A0161E086E001
:104790000E945A0263E082E10E944A0163E083E1E1
:1047A0000E944A010E94D0068EEB95E00E949A0377
:1047B000182F81E00E949D12E9E6F0E0808182607E
:1047C0008083E89AA0EBB0E01C92E1EBF0E010826D
:1047D0008C9182608C938081876080838CE0809351
:1047E000B3001092B400E6EBF0E080818F7D80830F
:1047F000E0E7F0E010828081846080831092800086
:10480000C1E8D0E018821092850010928400809157
:10481000A5050E94721688818860888388818160DE
:10482000888314BC84B5826084BD15BC85B5846062
:1048300085BD8FE287BDEEE6F0E010828081826068
:104840008083EDE6F0E0108280E18083E8E6F0E02E
:10485000108284E08083789460E071EE80E090E0E4
:104860000E941609112329F061E082E392E00E9480
:10487000B1090E949D28C82F0E940D276093B005A2
:104880007093B1058093B2059093B3058EEB95E0DC
:104890000E948A04CC2354F487E0E1E4F2E0A3E030
:1048A000B5E001900D928A95E1F723C0C0FF0AC0E0
:1048B00087E0E8E4F2E0A3E0B5E001900D928A958C
:1048C000E1F717C0C1FF0AC087E0EFE4F2E0A3E020
:1048D000B5E001900D928A95E1F70BC0C5FF09C0C4
:1048E00088E0E6E5F2E0A3E0B5E001900D928A955C
:1048F000E1F780910305882329F061E083E095E0EA
:104900000E94B1090E9445130E949109EFE6F0E070
:1049100080818260808380E090E00E948B100E9402
:104920001E20FDCF0F931F938EEB95E00E94B902DE
:1049300000E018E726E936E440E050E069E473E47B
:104940008BE295E00E94FE041F910F9108958BE287
:1049500095E00E944C058EEB95E00E94BA02089506
:1049600090E0FC01B097ED35F10508F0E4C0EF569A
:10497000FF4F0C94492C89E074E061E008958BE0CE
:1049800074E065E0089587E073E061E0089581E0F8
:1049900071E060E0089589E074E064E0089589E0E2
:1049A00073E063E0089587E074E060E0089583E0D9
:1049B00072E060E008958DE074E06EE0089589E0B3
:1049C00073E065E0089589E074E062E0089587E0AF
:1049D00072E063E0089585E072E061E008958BE0A5
:1049E00073E067E008958BE074E066E008958DE081
:1049F00074E06BE0089587E073E062E0089585E07D
:104A000073E060E0089583E071E061E0089587E07D
:104A100073E064E0089589E074E068E0089589E057
:104A200073E066E008958BE074E069E008958DE03E
:104A300074E06DE008958BE074E063E0089583E135
:104A400075E06FE1089581E175E06EE108958FE012
:104A500075E06CE108958DE075E068E108958BE004
:104A600075E060E1089589E075E060E008958BE00D
:104A700075E061E008958DE075E063E008958FE0F2
:104A800075E067E0089581E175E06FE0089581E1E8
:104A900076E06AE2089583E176E063E308958FE0CB
:104AA00076E06CE0089583E176E06EE1089583E1BD
:104AB00076E065E308958DE075E069E008958FE0A4
:104AC00075E06DE0089583E176E06DE208958BE096
:104AD00075E062E0089581E176E067E008958CE09A
:104AE00076E065E108958DE075E061E108958DE07F
:104AF00075E06AE008958FE076E061E2089581E173
:104B000076E06CE208958FE076E062E1089581E15D
:104B100077E068E4089581E176E066E1089584E055
:104B200077E06FEF089587E077E06EEF089583E117
:104B300075E06FE1089580E070E060E0089585E041
:104B400072E062E00895CF93DF93EA010097B1F13C
:104B50001092CA056115710521F0DB012C9120939B
:104B60002001FC0120812223D9F09093C905809374
:104B7000C80580E280931F01822F0E94B0246093B9
:104B8000C5057093C6058093C7051092C4051092A1
:104B9000C3051092C2051092C1051092C0050AC04B
:104BA0001092C9051092C80581E08093C005209736
:104BB00009F088831092BF0580E0C0C0E091C8056D
:104BC000F091C905309709F4AAC06115710521F06B
:104BD00080912001DB018C938091C005882349F0EE
:104BE000209709F4A8C081E088831092CA0580E06C
:104BF000A5C08091C205882321F081508093C20511
:104C00007FC08091BF05882381F08091CA05811102
:104C10000CC01092BF058091C105882309F470C0B3
:104C20008093C2051092C1056BC09091C60580911A
:104C3000C305891790F18091C4058F5F8093C405E7
:104C4000DF01A80FB11D8C9180931F01811119C044
:104C500080912001882331F0808180931F01109280
:104C6000C4050FC01092C9051092C8051092BF0567
:104C700091E09093C005209709F098831092CA059F
:104C80005DC080911F010E94B0246093C5057093A0
:104C9000C6058093C7051092C3052091C5052D3F19
:104CA00000F54091C30531E0340F3093C30581E036
:104CB00090E002C0880F991F4A95E2F7822321F005
:104CC00082E08093C20502C01092C20581E0809309
:104CD000BF058091C605381798F082E08093C10522
:104CE0000FC08091C6059FEF9093C3051092BF053A
:104CF000843020F084508093C20502C01092C20517
:104D000080911F018C3331F481E08093CA05209794
:104D100041F414C01092CA05209719F409C02097D5
:104D200019F08091C00588838091CA05811105C062
:104D30008091BF0503C080E001C081E0DF91CF9189
:104D40000895CF92DF92EF92FF920F931F93CF932C
:104D5000FC016B0180818823C1F08F010F5F1F4F21
:104D60007F0194E1E90EF11CC0E005C0F8018191DA
:104D70008F01882359F00E94B0246D3F08F4CD5F65
:104D8000C80F0E151F0591F701C0C0E080EB94E03D
:104D9000B6010E94E02BC69FC001C79F900D112451
:104DA000CF911F910F91FF90EF90DF90CF900895DA
:104DB000982F9695969596959E71292F220F220FE2
:104DC000920F8F70890F0895FC012081818180539B
:104DD000F0E12F9F800D11240895CF93DF9300D031
:104DE00000D01F92CDB7DEB7AE014F5F5F4F25E019
:104DF000FA0111922A95E9F79C838B837A83698360
:104E000024E06BE184EA0E9449070F900F900F9015
:104E10000F900F90DF91CF910895CF93DF9300D043
:104E200000D0CDB7DEB719821A821B821C8224E023
:104E3000AE014F5F5F4F6BE184EA0E94AC078111C6
:104E400011C02A816B81862F90E0A0E0B0E0DC01E8
:104E500099278827922B2981822B2C81BC01CD0197
:104E6000922B03C060E070E0CB010F900F900F9089
:104E70000F90DF91CF9108956F927F928F929F92C2
:104E8000AF92BF92CF92DF92EF92FF920F931F9358
:104E9000CF93DF936C01EB01209709F4B6C0CB01EF
:104EA0000A960E94E426882ECE0108960E94E426E7
:104EB000782ECE0106960E94E426982ECE01049606
:104EC0000E94E426182FCE0102960E94E426082FA5
:104ED000CE010E94E4260E94D826E82EF12C57012C
:104EE00080E3A81A88EFB80A802F0E94D826D82F0E
:104EF000812F0E94D826682ED23068F000E010E0A2
:104F0000C1E06C2FC5010E942901080F111DCF5F60
:104F1000DC13F7CF02C000E010E0862D660C990B81
:104F20000197080F191F882D0E94D826882E872DDB
:104F30000E94D826C82F892D0E94D826082C000C44
:104F400099089CE3C902800C911C1124092C000CC7
:104F5000AA08BB08A82F880FBB0B20E13EE00E94E7
:104F60005E2C860E971EA81EB91ED80120E831E5DA
:104F700041E050E00E94702C860E971EA81EB91EBC
:104F8000D7015E9620E833E341EE51E00E94702C99
:104F9000860E971EA81EB91EC7014F96DC010AF4A3
:104FA0001396B595A795B595A79520E831E541E00D
:104FB00050E00E94702C860E971EA81EB91EC701D5
:104FC0008D599F4F64E670E00E94F42BDB0120E8CE
:104FD0003EEA4EEF5FEF0E94702C860E971EA81ED1
:104FE000B91EC70181579E4F60E971E00E94F42B02
:104FF000DB0120E831E541E050E00E94702C680DB3
:10500000791D8A1D9B1D30E009C00E940D2731E0EB
:10501000611571058105910509F030E0C114D104D5
:1050200031F021E0311101C020E0F6012083DF9151
:10503000CF911F910F91FF90EF90DF90CF90BF9095
:10504000AF909F908F907F906F900895CF93DF9354
:1050500000D0CDB7DEB720E12A839C013695279595
:10506000298380FF02C080E98A8322E0AE014F5F7E
:105070005F4F66E384EA0E9449070F900F90DF912B
:10508000CF910895CF93DF931F92CDB7DEB781E024
:10509000898321E0AE014F5F5F4F6EE084EA0E949A
:1050A000AC07811107C08981807889838111F1CF94
:1050B00080E003C089818823D9F30F90DF91CF91DD
:1050C0000895CF93DF931F92CDB7DEB7198221E009
:1050D000AE014F5F5F4F67E284EA0E9449070E947A
:1050E000422882E1898321E0AE014F5F5F4F67E292
:1050F00084EA0E9449070E9442280F90DF91CF91D5
:105100000895CF93DF9300D0CDB7DEB70E9461281A
:1051100022E0AE014F5F5F4F66E384EA0E94AC0776
:10512000898190E0880F991F2A8122230CF401962F
:105130000F900F90DF91CF910895CF93DF9300D020
:10514000CDB7DEB719821A820E9461288981811148
:105150000CC021E0AE014F5F5F4F6EE084EA0E9419
:10516000AC0789818F76898302C080E889831A829F
:1051700021E0AE014E5F5F4F6EE084EA0E94490776
:1051800089810F900F90DF91CF9108955058BB27E0
:10519000AA270E94DE280C94882A0E944F2A38F001
:1051A0000E94562A20F039F49F3F19F426F40C94FB
:1051B0004C2A0EF4E095E7FB0C94462AE92F0E9456
:1051C000AD2A58F3BA17620773078407950720F0D2
:1051D00079F4A6F50C94CF2A0EF4E0950B2EBA2F95
:1051E000A02D0B01B90190010C01CA01A0011124ED
:1051F000FF27591B99F0593F50F4503E68F11A1699
:10520000F040A22F232F342F4427585FF3CF469529
:1052100037952795A795F0405395C9F77EF41F164B
:10522000BA0B620B730B840BBAF09150A1F0FF0F15
:10523000BB1F661F771F881FC2F70EC0BA0F621F01
:10524000731F841F48F4879577956795B795F795F1
:105250009E3F08F0B0CF9395880F08F09927EE0F86
:105260009795879508950E94222A08F481E0089571
:105270000E945F2AE3950C94992A0E9451290C946C
:10528000882A0E94562A58F00E944F2A40F029F49A
:105290005F3F29F00C94462A51110C94D02A0C94AB
:1052A0004C2A0E94AD2A68F39923B1F3552391F358
:1052B000951B550BBB27AA2762177307840738F085
:1052C0009F5F5F4F220F331F441FAA1FA9F335D0E2
:1052D0000E2E3AF0E0E832D091505040E695001C96
:1052E000CAF72BD0FE2F29D0660F771F881FBB1F50
:1052F000261737074807AB07B0E809F0BB0B802D2E
:10530000BF01FF2793585F4F3AF09E3F510578F059
:105310000C94462A0C94D02A5F3FE4F3983ED4F3D1
:10532000869577956795B795F7959F5FC9F7880F2D
:10533000911D9695879597F90895E1E0660F771F7F
:10534000881FBB1F621773078407BA0720F0621B10
:10535000730B840BBA0BEE1F88F7E09508950E943B
:10536000B6296894B1110C94D02A08950E94B52AE8
:1053700088F09F5798F0B92F9927B751B0F0E1F016
:10538000660F771F881F991F1AF0BA95C9F714C0C6
:10539000B13091F00E94CF2AB1E008950C94CF2A49
:1053A000672F782F8827B85F39F0B93FCCF38695FF
:1053B00077956795B395D9F73EF49095809570955C
:1053C00061957F4F8F4F9F4F0895E89409C097FBD9
:1053D0003EF490958095709561957F4F8F4F9F4FCC
:1053E0009923A9F0F92F96E9BB279395F695879510
:1053F00077956795B795F111F8CFFAF4BB0F11F4D3
:1054000060FF1BC06F5F7F4F8F4F9F4F16C0882379
:1054100011F096E911C0772321F09EE8872F762FAF
:1054200005C0662371F096E8862F70E060E02AF0F0
:105430009A95660F771F881FDAF7880F96958795DC
:1054400097F90895990F0008550FAA0BE0E8FEEFB1
:1054500016161706E807F907C0F012161306E40738
:10546000F50798F0621B730B840B950B39F40A2631
:1054700061F0232B242B252B21F408950A2609F40F
:10548000A140A6958FEF811D811D089597F99F6713
:1054900080E870E060E008959FEF80EC08950024BC
:1054A0000A941616170618060906089500240A9489
:1054B000121613061406050608950C944C2A0E9431
:1054C000B52AD8F3E894E0E0BB279F57F0F02AED27
:1054D0003FE049EC06C0EE0FBB0F661F771F881F29
:1054E00028F0B23A62077307840728F0B25A620BB9
:1054F000730B840BE3959A9572F7803830F49A9584
:10550000BB0F661F771F881FD2F790480C94892B1A
:10551000092E0394000C11F4882352F0BB0F40F4C1
:10552000BF2B11F460FF04C06F5F7F4F8F4F9F4F01
:105530000895EF93E0FF07C0A2EA2AED3FE049ECAF
:105540005FEB0E94DE280E94882A0F90039401FCE2
:105550009058ECEDF1E00C94952B57FD9058440FCA
:10556000551F59F05F3F71F04795880F97FB991FC2
:1055700061F09F3F79F0879508951216130614067F
:10558000551FF2CF4695F1DF08C01616170618060C
:10559000991FF1CF86957105610508940895E894E7
:1055A000BB2766277727CB0197F908950E94222A07
:1055B00008F48FEF08950E94EE2A0C94882A0E9426
:1055C0004F2A38F00E94562A20F0952311F00C94AF
:1055D000462A0C944C2A11240C94D02A0E94AD2AFD
:1055E00070F3959FC1F3950F50E0551F629FF00136
:1055F000729FBB27F00DB11D639FAA27F00DB11D4F
:10560000AA1F649F6627B00DA11D661F829F2227D7
:10561000B00DA11D621F739FB00DA11D621F839F5E
:10562000A00D611D221F749F3327A00D611D231F34
:10563000849F600D211D822F762F6A2F11249F5782
:1056400050409AF0F1F088234AF0EE0FFF1FBB1F85
:10565000661F771F881F91505040A9F79E3F510544
:1056600080F00C94462A0C94D02A5F3FE4F3983ED5
:10567000D4F3869577956795B795F795E7959F5FEE
:10568000C1F7FE2B880F911D9695879597F9089580
:105690000E94B52AE8F09E37E8F09639B8F49E38B3
:1056A00048F4672F782F8827985FF9CF86957795EC
:1056B000679593959539D0F3B62FB1706B0F711D27
:1056C000811D20F487957795679593950C946C2BA5
:1056D0000C94872B0C94D02A882371F4772321F023
:1056E0009850872B762F07C0662311F499270DC099
:1056F0009051862B70E060E02AF09A95660F771F34
:10570000881FDAF7880F9695879597F908959F3F38
:1057100031F0915020F4879577956795B795880F6C
:10572000911D9695879597F908959F938F937F93F1
:105730006F93FF93EF939B01AC010E94DB2AEF91E3
:10574000FF910E94A92B2F913F914F915F910C9453
:10575000DB2ADF93CF931F930F93FF92EF92DF9299
:105760007B018C01689406C0DA2EEF010E94EE2ABC
:10577000FE01E894A5912591359145915591A6F3A7
:10578000EF010E94DE28FE019701A801DA9469F773
:10579000DF90EF90FF900F911F91CF91DF910895CF
:1057A000DB018F939F930E94652CBF91AF91A29FC5
:1057B000800D911DA39F900DB29F900D112408950F
:1057C000AA1BBB1B51E107C0AA1FBB1FA617B70727
:1057D00010F0A61BB70B881F991F5A95A9F7809543
:1057E0009095BC01CD01089597FB072E16F4009407
:1057F00007D077FD09D00E94E02B07FC05D03EF4CE
:10580000909581959F4F0895709561957F4F08956C
:10581000A1E21A2EAA1BBB1BFD010DC0AA1FBB1FB4
:10582000EE1FFF1FA217B307E407F50720F0A21B26
:10583000B30BE40BF50B661F771F881F991F1A9493
:1058400069F760957095809590959B01AC01BD01BD
:10585000CF010895052E97FB1EF400940E94412C61
:1058600057FD07D00E94082C07FC03D04EF40C947F
:10587000412C50954095309521953F4F4F4F5F4FAC
:10588000089590958095709561957F4F8F4F9F4FAC
:105890000895EE0FFF1F0590F491E02D0994A29F4B
:1058A000B001B39FC001A39F700D811D1124911DF4
:1058B000B29F700D811D1124911D08950E944F2CDF
:1058C000B7FF0895821B930B08950E944F2CA59F4C
:1058D000900DB49F900DA49F800D911D11240895EB
:1058E000B7FF0C94652C0E94652C821B930B0895C6
:1058F0000F931F93CF93DF938230910510F482E0D2
:1059000090E0E091CD05F091CE0520E030E0A0E000
:10591000B0E0309719F1408151810281138148171D
:105920005907C8F08417950769F4109731F012965B
:105930000C93129713961C9327C00093CD051093D8
:10594000CE0522C02115310519F04217530718F46E
:105950009A01BD01EF01DF01F801DBCF211531050F
:10596000F9F0281B390B2430310580F48A819B81A2
:105970006115710521F0FB019383828304C090932C
:10598000CE058093CD05FE01329644C0FE01E20FA4
:10599000F31F8193919322503109398328833AC0B0
:1059A0002091CB053091CC05232B41F420910201AD
:1059B000309103013093CC052093CB052091000159
:1059C000309101012115310541F42DB73EB74091C9
:1059D000040150910501241B350BE091CB05F0919A
:1059E000CC05E217F307A0F42E1B3F0B281739074D
:1059F00078F0AC014E5F5F4F2417350748F04E0F2B
:105A00005F1F5093CC054093CB058193919302C0C7
:105A1000E0E0F0E0CF01DF91CF911F910F91089569
:105A2000CF93DF93009709F481C0FC013297138272
:105A30001282A091CD05B091CE05109781F42081FE
:105A40003181820F931F2091CB053091CC0528170F
:105A5000390751F5F093CC05E093CB0567C0ED0114
:105A600020E030E0CE17DF0740F44A815B819E01E1
:105A700041155105F1F0EA01F5CFD383C28340818E
:105A80005181840F951FC817D90759F488819981CE
:105A9000840F951F0296918380838A819B819383D3
:105AA00082832115310529F4F093CE05E093CD05CD
:105AB0003DC0E901FB83EA8349915991C40FD51F89
:105AC000EC17FD0761F480819181840F951F029688
:105AD000E90199838883828193819B838A83E0E0B3
